Component: Arm Compiler for Embedded 6.21 Tool: armlink [5ec1fa00]

==============================================================================

Section Cross References

    empty.o(.text.main) refers to ti_msp_dl_config.o(.text.SYSCFG_DL_init) for SYSCFG_DL_init
    empty.o(.text.main) refers to mid_debug_uart.o(.text.debug_uart_init) for debug_uart_init
    empty.o(.text.main) refers to hw_lcd.o(.text.lcd_init) for lcd_init
    empty.o(.text.main) refers to empty.o(.text.ui_home_page) for ui_home_page
    empty.o(.text.main) refers to dl_common.o(.text.DL_Common_delayCycles) for DL_Common_delayCycles
    empty.o(.ARM.exidx.text.main) refers to empty.o(.text.main) for [Anonymous Symbol]
    empty.o(.text.ui_home_page) refers to empty.o(.text.DL_GPIO_clearPins) for DL_GPIO_clearPins
    empty.o(.text.ui_home_page) refers to hw_lcd.o(.text.LCD_Fill) for LCD_Fill
    empty.o(.text.ui_home_page) refers to empty.o(.text.disp_x_center) for disp_x_center
    empty.o(.text.ui_home_page) refers to empty.o(.text.disp_string_rect) for disp_string_rect
    empty.o(.text.ui_home_page) refers to empty.o(.text.disp_select_box) for disp_select_box
    empty.o(.text.ui_home_page) refers to empty.o(.text.DL_GPIO_setPins) for DL_GPIO_setPins
    empty.o(.text.ui_home_page) refers to empty.o(.rodata.str1.1) for [Anonymous Symbol]
    empty.o(.ARM.exidx.text.ui_home_page) refers to empty.o(.text.ui_home_page) for [Anonymous Symbol]
    empty.o(.text.disp_x_center) refers to hw_lcd.o(.text.LCD_ArcRect) for LCD_ArcRect
    empty.o(.text.disp_x_center) refers to hw_lcd.o(.text.LCD_ShowChinese) for LCD_ShowChinese
    empty.o(.ARM.exidx.text.disp_x_center) refers to empty.o(.text.disp_x_center) for [Anonymous Symbol]
    empty.o(.text.disp_string_rect) refers to hw_lcd.o(.text.LCD_ArcRect) for LCD_ArcRect
==============================================================================

Removing Unused input sections from the image.

    Removing empty.o(.text), (0 bytes).
    Removing empty.o(.ARM.exidx.text.main), (8 bytes).
    Removing empty.o(.ARM.exidx.text.ui_home_page), (8 bytes).
    Removing empty.o(.ARM.exidx.text.disp_x_center), (8 bytes).
    Removing empty.o(.ARM.exidx.text.disp_string_rect), (8 bytes).
    Removing empty.o(.ARM.exidx.text.disp_select_box), (8 bytes).
    Removing empty.o(.ARM.exidx.text.DL_GPIO_clearPins), (8 bytes).
    Removing empty.o(.ARM.exidx.text.DL_GPIO_setPins), (8 bytes).
    Removing empty.o(.ARM.use_no_argv), (4 bytes).
    Removing startup_mspm0g350x_uvision.o(HEAP), (1024 bytes).
    Removing ti_msp_dl_config.o(.text), (0 bytes).
    Removing ti_msp_dl_config.o(.ARM.exidx.text.SYSCFG_DL_init), (8 bytes).
    Removing ti_msp_dl_config.o(.ARM.exidx.text.SYSCFG_DL_initPower), (8 bytes).
    Removing ti_msp_dl_config.o(.ARM.exidx.text.SYSCFG_DL_GPIO_init), (8 bytes).
    Removing ti_msp_dl_config.o(.ARM.exidx.text.SYSCFG_DL_SYSCTL_init), (8 bytes).
    Removing ti_msp_dl_config.o(.ARM.exidx.text.SYSCFG_DL_UART_DEBUG_init), (8 bytes).
    Removing ti_msp_dl_config.o(.ARM.exidx.text.SYSCFG_DL_SPI_LCD_init), (8 bytes).
    Removing ti_msp_dl_config.o(.text.SYSCFG_DL_saveConfiguration), (52 bytes).
==============================================================================

Image Symbol Table

    Local Symbols

    Symbol Name                              Value     Ov Type        Size  Object(Section)

    ../clib/division.s                       0x00000000   Number         0  aeabi_sdivfast.o ABSOLUTE
    ../clib/division.s                       0x00000000   Number         0  aeabi_sdivfast_div0.o ABSOLUTE
    ../clib/microlib/division.c              0x00000000   Number         0  uidiv.o ABSOLUTE
    ../clib/microlib/division.c              0x00000000   Number         0  uidiv_div0.o ABSOLUTE
    ../clib/microlib/division.c              0x00000000   Number         0  idiv_div0.o ABSOLUTE
    ../clib/microlib/division.c              0x00000000   Number         0  idiv0.o ABSOLUTE
    ../clib/microlib/errno.c                 0x00000000   Number         0  errno.o ABSOLUTE
    ../clib/microlib/init/entry.s            0x00000000   Number         0  entry.o ABSOLUTE
    ../clib/microlib/init/entry.s            0x00000000   Number         0  entry2.o ABSOLUTE
    ../clib/microlib/init/entry.s            0x00000000   Number         0  entry5.o ABSOLUTE
    ../clib/microlib/init/entry.s            0x00000000   Number         0  entry7a.o ABSOLUTE
    ../clib/microlib/init/entry.s            0x00000000   Number         0  entry7b.o ABSOLUTE
    ../clib/microlib/init/entry.s            0x00000000   Number         0  entry8a.o ABSOLUTE
    ../clib/microlib/init/entry.s            0x00000000   Number         0  entry8b.o ABSOLUTE
    ../clib/microlib/init/entry.s            0x00000000   Number         0  entry9a.o ABSOLUTE
    ../clib/microlib/init/entry.s            0x00000000   Number         0  entry9b.o ABSOLUTE
    ../clib/microlib/init/entry.s            0x00000000   Number         0  entry10a.o ABSOLUTE
    ../clib/microlib/init/entry.s            0x00000000   Number         0  entry10b.o ABSOLUTE
    ../clib/microlib/init/entry.s            0x00000000   Number         0  entry11a.o ABSOLUTE
    ../clib/microlib/init/entry.s            0x00000000   Number         0  entry11b.o ABSOLUTE
    ../clib/microlib/longlong.c              0x00000000   Number         0  llushr.o ABSOLUTE
    ../clib/microlib/longlong.c              0x00000000   Number         0  llshl.o ABSOLUTE
    ../clib/microlib/stubs.s                 0x00000000   Number         0  iusefp.o ABSOLUTE
    ../fplib/microlib/fpepilogue.c           0x00000000   Number         0  depilogue.o ABSOLUTE
    ../fplib/microlib/fpfix.c                0x00000000   Number         0  ffixui.o ABSOLUTE
    ../fplib/microlib/fpfix.c                0x00000000   Number         0  dfixi.o ABSOLUTE
    ../fplib/microlib/fpflt.c                0x00000000   Number         0  dfltui.o ABSOLUTE
    ../fplib/microlib/fpmul.c                0x00000000   Number         0  fmul.o ABSOLUTE
    ../fplib/microlib/fpsqrt.c               0x00000000   Number         0  dsqrt.o ABSOLUTE
    ../mathlib/sqrt.c                        0x00000000   Number         0  sqrt.o ABSOLUTE
    dc.s                                     0x00000000   Number         0  dc.o ABSOLUTE
    dl_common.c                              0x00000000   Number         0  dl_common.o ABSOLUTE
    dl_spi.c                                 0x00000000   Number         0  dl_spi.o ABSOLUTE
    dl_sysctl_mspm0g1x0x_g3x0x.c             0x00000000   Number         0  dl_sysctl_mspm0g1x0x_g3x0x.o ABSOLUTE
    dl_uart.c                                0x00000000   Number         0  dl_uart.o ABSOLUTE
    empty.c                                  0x00000000   Number         0  empty.o ABSOLUTE
    handlers.s                               0x00000000   Number         0  handlers.o ABSOLUTE
    hw_lcd.c                                 0x00000000   Number         0  hw_lcd.o ABSOLUTE
    init.s                                   0x00000000   Number         0  init.o ABSOLUTE
    mid_debug_led.c                          0x00000000   Number         0  mid_debug_led.o ABSOLUTE
    mid_debug_uart.c                         0x00000000   Number         0  mid_debug_uart.o ABSOLUTE
    startup_mspm0g350x_uvision.s             0x00000000   Number         0  startup_mspm0g350x_uvision.o ABSOLUTE
    ti_msp_dl_config.c                       0x00000000   Number         0  ti_msp_dl_config.o ABSOLUTE
    RESET                                    0x00000000   Section      192  startup_mspm0g350x_uvision.o(RESET)
    .ARM.Collect$$$$00000000                 0x000000c0   Section        0  entry.o(.ARM.Collect$$$$00000000)
    .ARM.Collect$$$$00000001                 0x000000c0   Section        4  entry2.o(.ARM.Collect$$$$00000001)
    .ARM.Collect$$$$00000004                 0x000000c4   Section        4  entry5.o(.ARM.Collect$$$$00000004)
    .ARM.Collect$$$$00000008                 0x000000c8   Section        0  entry7b.o(.ARM.Collect$$$$00000008)
    .ARM.Collect$$$$0000000A                 0x000000c8   Section        0  entry8b.o(.ARM.Collect$$$$0000000A)
    .ARM.Collect$$$$0000000B                 0x000000c8   Section        8  entry9a.o(.ARM.Collect$$$$0000000B)
    __lit__00000000                          0x000000d0   Data           4  entry2.o(.ARM.Collect$$$$00002712)
    .ARM.Collect$$$$0000000D                 0x000000d0   Section        0  entry10a.o(.ARM.Collect$$$$0000000D)
    .ARM.Collect$$$$0000000F                 0x000000d0   Section        0  entry11a.o(.ARM.Collect$$$$0000000F)
    .ARM.Collect$$$$00002712                 0x000000d0   Section        4  entry2.o(.ARM.Collect$$$$00002712)
    .text                                    0x000000d4   Section       20  startup_mspm0g350x_uvision.o(.text)
    .text                                    0x000000e8   Section        0  dfltui.o(.text)
    .text                                    0x00000104   Section        0  dfixi.o(.text)
    .text                                    0x0000014c   Section        0  uidiv_div0.o(.text)
    .text                                    0x0000018a   Section        0  llushr.o(.text)
    .text                                    0x000001ac   Section        0  iusefp.o(.text)
    .text                                    0x000001ac   Section        0  depilogue.o(.text)
    .text                                    0x0000026a   Section        0  dsqrt.o(.text)
    .text                                    0x00000310   Section       48  init.o(.text)
    .text                                    0x00000340   Section        0  llshl.o(.text)
    [Anonymous Symbol]                       0x00000360   Section        0  dl_common.o(.text.DL_Common_delayCycles)
    DL_Common_updateReg                      0x0000036b   Thumb Code    40  ti_msp_dl_config.o(.text.DL_Common_updateReg)
    [Anonymous Symbol]                       0x0000036a   Section        0  ti_msp_dl_config.o(.text.DL_Common_updateReg)
    DL_GPIO_clearPins                        0x00000393   Thumb Code    20  empty.o(.text.DL_GPIO_clearPins)
    [Anonymous Symbol]                       0x00000392   Section        0  empty.o(.text.DL_GPIO_clearPins)
    DL_GPIO_clearPins                        0x000003a7   Thumb Code    20  ti_msp_dl_config.o(.text.DL_GPIO_clearPins)
    [Anonymous Symbol]                       0x000003a6   Section        0  ti_msp_dl_config.o(.text.DL_GPIO_clearPins)
    DL_GPIO_clearPins                        0x000003bb   Thumb Code    20  hw_lcd.o(.text.DL_GPIO_clearPins)
    [Anonymous Symbol]                       0x000003ba   Section        0  hw_lcd.o(.text.DL_GPIO_clearPins)
    DL_GPIO_enableOutput                     0x000003d1   Thumb Code    20  ti_msp_dl_config.o(.text.DL_GPIO_enableOutput)
    [Anonymous Symbol]                       0x000003d0   Section        0  ti_msp_dl_config.o(.text.DL_GPIO_enableOutput)
    __arm_cp.20_0                            0x000003e4   Number         4  ti_msp_dl_config.o(.text.DL_GPIO_enableOutput)
    DL_GPIO_enablePower                      0x000003e9   Thumb Code    20  ti_msp_dl_config.o(.text.DL_GPIO_enablePower)
    [Anonymous Symbol]                       0x000003e8   Section        0  ti_msp_dl_config.o(.text.DL_GPIO_enablePower)
    DL_GPIO_initDigitalOutput                0x000003fd   Thumb Code    20  ti_msp_dl_config.o(.text.DL_GPIO_initDigitalOutput)
    [Anonymous Symbol]                       0x000003fc   Section        0  ti_msp_dl_config.o(.text.DL_GPIO_initDigitalOutput)
    DL_GPIO_initDigitalOutputFeatures        0x00000411   Thumb Code    44  ti_msp_dl_config.o(.text.DL_GPIO_initDigitalOutputFeatures)
    [Anonymous Symbol]                       0x00000410   Section        0  ti_msp_dl_config.o(.text.DL_GPIO_initDigitalOutputFeatures)
    DL_GPIO_initPeripheralAnalogFunction     0x0000043d   Thumb Code    20  ti_msp_dl_config.o(.text.DL_GPIO_initPeripheralAnalogFunction)
    [Anonymous Symbol]                       0x0000043c   Section        0  ti_msp_dl_config.o(.text.DL_GPIO_initPeripheralAnalogFunction)
    DL_GPIO_initPeripheralInputFunction      0x00000451   Thumb Code    24  ti_msp_dl_config.o(.text.DL_GPIO_initPeripheralInputFunction)
    [Anonymous Symbol]                       0x00000450   Section        0  ti_msp_dl_config.o(.text.DL_GPIO_initPeripheralInputFunction)
    __arm_cp.16_0                            0x00000468   Number         4  ti_msp_dl_config.o(.text.DL_GPIO_initPeripheralInputFunction)
    DL_GPIO_initPeripheralOutputFunction     0x0000046d   Thumb Code    24  ti_msp_dl_config.o(.text.DL_GPIO_initPeripheralOutputFunction)
    [Anonymous Symbol]                       0x0000046c   Section        0  ti_msp_dl_config.o(.text.DL_GPIO_initPeripheralOutputFunction)
    __arm_cp.15_0                            0x00000484   Number         4  ti_msp_dl_config.o(.text.DL_GPIO_initPeripheralOutputFunction)
    DL_GPIO_reset                            0x00000489   Thumb Code    16  ti_msp_dl_config.o(.text.DL_GPIO_reset)
    [Anonymous Symbol]                       0x00000488   Section        0  ti_msp_dl_config.o(.text.DL_GPIO_reset)
    DL_GPIO_setPins                          0x00000499   Thumb Code    20  empty.o(.text.DL_GPIO_setPins)
    [Anonymous Symbol]                       0x00000498   Section        0  empty.o(.text.DL_GPIO_setPins)
    DL_GPIO_setPins                          0x000004ad   Thumb Code    20  hw_lcd.o(.text.DL_GPIO_setPins)
    [Anonymous Symbol]                       0x000004ac   Section        0  hw_lcd.o(.text.DL_GPIO_setPins)
    __arm_cp.5_0                             0x000004c0   Number         4  hw_lcd.o(.text.DL_GPIO_setPins)
    DL_SPI_enable                            0x000004c5   Thumb Code    20  ti_msp_dl_config.o(.text.DL_SPI_enable)
    [Anonymous Symbol]                       0x000004c4   Section        0  ti_msp_dl_config.o(.text.DL_SPI_enable)
    __arm_cp.34_0                            0x000004d8   Number         4  ti_msp_dl_config.o(.text.DL_SPI_enable)
    DL_SPI_enablePower                       0x000004dd   Thumb Code    20  ti_msp_dl_config.o(.text.DL_SPI_enablePower)
    [Anonymous Symbol]                       0x000004dc   Section        0  ti_msp_dl_config.o(.text.DL_SPI_enablePower)
    __arm_cp.13_0                            0x000004f0   Number         4  ti_msp_dl_config.o(.text.DL_SPI_enablePower)
    [Anonymous Symbol]                       0x000004f4   Section        0  dl_spi.o(.text.DL_SPI_init)
    __arm_cp.0_0                             0x00000530   Number         4  dl_spi.o(.text.DL_SPI_init)
    __arm_cp.0_1                             0x00000534   Number         4  dl_spi.o(.text.DL_SPI_init)
    DL_SPI_isBusy                            0x00000539   Thumb Code    20  hw_lcd.o(.text.DL_SPI_isBusy)
    [Anonymous Symbol]                       0x00000538   Section        0  hw_lcd.o(.text.DL_SPI_isBusy)
    DL_SPI_reset                             0x0000054d   Thumb Code    16  ti_msp_dl_config.o(.text.DL_SPI_reset)
    [Anonymous Symbol]                       0x0000054c   Section        0  ti_msp_dl_config.o(.text.DL_SPI_reset)
    __arm_cp.10_0                            0x0000055c   Number         4  ti_msp_dl_config.o(.text.DL_SPI_reset)
    __arm_cp.10_1                            0x00000560   Number         4  ti_msp_dl_config.o(.text.DL_SPI_reset)
    DL_SPI_setBitRateSerialClockDivider      0x00000565   Thumb Code    28  ti_msp_dl_config.o(.text.DL_SPI_setBitRateSerialClockDivider)
    [Anonymous Symbol]                       0x00000564   Section        0  ti_msp_dl_config.o(.text.DL_SPI_setBitRateSerialClockDivider)
    __arm_cp.32_0                            0x00000580   Number         4  ti_msp_dl_config.o(.text.DL_SPI_setBitRateSerialClockDivider)
    __arm_cp.32_1                            0x00000584   Number         4  ti_msp_dl_config.o(.text.DL_SPI_setBitRateSerialClockDivider)
    [Anonymous Symbol]                       0x00000588   Section        0  dl_spi.o(.text.DL_SPI_setClockConfig)
    DL_SPI_setFIFOThreshold                  0x0000059d   Thumb Code    44  ti_msp_dl_config.o(.text.DL_SPI_setFIFOThreshold)
    [Anonymous Symbol]                       0x0000059c   Section        0  ti_msp_dl_config.o(.text.DL_SPI_setFIFOThreshold)
    __arm_cp.33_0                            0x000005c8   Number         4  ti_msp_dl_config.o(.text.DL_SPI_setFIFOThreshold)
    DL_SPI_transmitData8                     0x000005cd   Thumb Code    22  hw_lcd.o(.text.DL_SPI_transmitData8)
    [Anonymous Symbol]                       0x000005cc   Section        0  hw_lcd.o(.text.DL_SPI_transmitData8)
    [Anonymous Symbol]                       0x000005e4   Section        0  dl_sysctl_mspm0g1x0x_g3x0x.o(.text.DL_SYSCTL_configSYSPLL)
    __arm_cp.0_2                             0x00000698   Number         4  dl_sysctl_mspm0g1x0x_g3x0x.o(.text.DL_SYSCTL_configSYSPLL)
    __arm_cp.0_3                             0x0000069c   Number         4  dl_sysctl_mspm0g1x0x_g3x0x.o(.text.DL_SYSCTL_configSYSPLL)
    __arm_cp.0_4                             0x000006a0   Number         4  dl_sysctl_mspm0g1x0x_g3x0x.o(.text.DL_SYSCTL_configSYSPLL)
    DL_SYSCTL_disableHFXT                    0x000006a5   Thumb Code    12  ti_msp_dl_config.o(.text.DL_SYSCTL_disableHFXT)
    [Anonymous Symbol]                       0x000006a4   Section        0  ti_msp_dl_config.o(.text.DL_SYSCTL_disableHFXT)
    DL_SYSCTL_disableSYSPLL                  0x000006b1   Thumb Code    16  ti_msp_dl_config.o(.text.DL_SYSCTL_disableSYSPLL)
    [Anonymous Symbol]                       0x000006b0   Section        0  ti_msp_dl_config.o(.text.DL_SYSCTL_disableSYSPLL)
    __arm_cp.25_0                            0x000006c0   Number         4  ti_msp_dl_config.o(.text.DL_SYSCTL_disableSYSPLL)
    DL_SYSCTL_setBORThreshold                0x000006c5   Thumb Code    20  ti_msp_dl_config.o(.text.DL_SYSCTL_setBORThreshold)
    [Anonymous Symbol]                       0x000006c4   Section        0  ti_msp_dl_config.o(.text.DL_SYSCTL_setBORThreshold)
    __arm_cp.21_0                            0x000006d8   Number         4  ti_msp_dl_config.o(.text.DL_SYSCTL_setBORThreshold)
    DL_SYSCTL_setFlashWaitState              0x000006dd   Thumb Code    28  ti_msp_dl_config.o(.text.DL_SYSCTL_setFlashWaitState)
    [Anonymous Symbol]                       0x000006dc   Section        0  ti_msp_dl_config.o(.text.DL_SYSCTL_setFlashWaitState)
    [Anonymous Symbol]                       0x000006f8   Section        0  dl_sysctl_mspm0g1x0x_g3x0x.o(.text.DL_SYSCTL_setHFCLKSourceHFXTParams)
    __arm_cp.7_0                             0x00000744   Number         4  dl_sysctl_mspm0g1x0x_g3x0x.o(.text.DL_SYSCTL_setHFCLKSourceHFXTParams)
    DL_SYSCTL_setSYSOSCFreq                  0x00000749   Thumb Code    24  ti_msp_dl_config.o(.text.DL_SYSCTL_setSYSOSCFreq)
    [Anonymous Symbol]                       0x00000748   Section        0  ti_msp_dl_config.o(.text.DL_SYSCTL_setSYSOSCFreq)
    __arm_cp.23_0                            0x00000760   Number         4  ti_msp_dl_config.o(.text.DL_SYSCTL_setSYSOSCFreq)
    DL_SYSCTL_setULPCLKDivider               0x00000765   Thumb Code    24  ti_msp_dl_config.o(.text.DL_SYSCTL_setULPCLKDivider)
    [Anonymous Symbol]                       0x00000764   Section        0  ti_msp_dl_config.o(.text.DL_SYSCTL_setULPCLKDivider)
    [Anonymous Symbol]                       0x0000077c   Section        0  dl_sysctl_mspm0g1x0x_g3x0x.o(.text.DL_SYSCTL_switchMCLKfromSYSOSCtoHSCLK)
    __arm_cp.4_0                             0x0000079c   Number         4  dl_sysctl_mspm0g1x0x_g3x0x.o(.text.DL_SYSCTL_switchMCLKfromSYSOSCtoHSCLK)
    __arm_cp.4_1                             0x000007a0   Number         4  dl_sysctl_mspm0g1x0x_g3x0x.o(.text.DL_SYSCTL_switchMCLKfromSYSOSCtoHSCLK)
    DL_UART_enable                           0x000007a5   Thumb Code    22  ti_msp_dl_config.o(.text.DL_UART_enable)
    [Anonymous Symbol]                       0x000007a4   Section        0  ti_msp_dl_config.o(.text.DL_UART_enable)
    DL_UART_enableInterrupt                  0x000007bd   Thumb Code    24  ti_msp_dl_config.o(.text.DL_UART_enableInterrupt)
    [Anonymous Symbol]                       0x000007bc   Section        0  ti_msp_dl_config.o(.text.DL_UART_enableInterrupt)
    __arm_cp.29_0                            0x000007d4   Number         4  ti_msp_dl_config.o(.text.DL_UART_enableInterrupt)
    DL_UART_enablePower                      0x000007d9   Thumb Code    20  ti_msp_dl_config.o(.text.DL_UART_enablePower)
    [Anonymous Symbol]                       0x000007d8   Section        0  ti_msp_dl_config.o(.text.DL_UART_enablePower)
    __arm_cp.12_0                            0x000007ec   Number         4  ti_msp_dl_config.o(.text.DL_UART_enablePower)
    DL_UART_getPendingInterrupt              0x000007f1   Thumb Code    18  mid_debug_uart.o(.text.DL_UART_getPendingInterrupt)
    [Anonymous Symbol]                       0x000007f0   Section        0  mid_debug_uart.o(.text.DL_UART_getPendingInterrupt)
    [Anonymous Symbol]                       0x00000804   Section        0  dl_uart.o(.text.DL_UART_init)
    __arm_cp.0_0                             0x00000844   Number         4  dl_uart.o(.text.DL_UART_init)
    __arm_cp.0_1                             0x00000848   Number         4  dl_uart.o(.text.DL_UART_init)
    DL_UART_receiveData                      0x0000084d   Thumb Code    16  mid_debug_uart.o(.text.DL_UART_receiveData)
    [Anonymous Symbol]                       0x0000084c   Section        0  mid_debug_uart.o(.text.DL_UART_receiveData)
    __arm_cp.11_0                            0x0000085c   Number         4  mid_debug_uart.o(.text.DL_UART_receiveData)
    DL_UART_reset                            0x00000861   Thumb Code    16  ti_msp_dl_config.o(.text.DL_UART_reset)
    [Anonymous Symbol]                       0x00000860   Section        0  ti_msp_dl_config.o(.text.DL_UART_reset)
    __arm_cp.9_0                             0x00000870   Number         4  ti_msp_dl_config.o(.text.DL_UART_reset)
    __arm_cp.9_1                             0x00000874   Number         4  ti_msp_dl_config.o(.text.DL_UART_reset)
    DL_UART_setBaudRateDivisor               0x00000879   Thumb Code    60  ti_msp_dl_config.o(.text.DL_UART_setBaudRateDivisor)
    [Anonymous Symbol]                       0x00000878   Section        0  ti_msp_dl_config.o(.text.DL_UART_setBaudRateDivisor)
    __arm_cp.28_0                            0x000008b4   Number         4  ti_msp_dl_config.o(.text.DL_UART_setBaudRateDivisor)
    __arm_cp.28_1                            0x000008b8   Number         4  ti_msp_dl_config.o(.text.DL_UART_setBaudRateDivisor)
    __arm_cp.28_2                            0x000008bc   Number         4  ti_msp_dl_config.o(.text.DL_UART_setBaudRateDivisor)
    __arm_cp.28_3                            0x000008c0   Number         4  ti_msp_dl_config.o(.text.DL_UART_setBaudRateDivisor)
    [Anonymous Symbol]                       0x000008c4   Section        0  dl_uart.o(.text.DL_UART_setClockConfig)
    DL_UART_setOversampling                  0x000008d7   Thumb Code    30  ti_msp_dl_config.o(.text.DL_UART_setOversampling)
    [Anonymous Symbol]                       0x000008d6   Section        0  ti_msp_dl_config.o(.text.DL_UART_setOversampling)
    [Anonymous Symbol]                       0x000008f4   Section        0  hw_lcd.o(.text.Drawarc)
    [Anonymous Symbol]                       0x00000a46   Section        0  hw_lcd.o(.text.LCD_Address_Set)
    [Anonymous Symbol]                       0x00000a84   Section        0  hw_lcd.o(.text.LCD_ArcRect)
    [Anonymous Symbol]                       0x00000bce   Section        0  hw_lcd.o(.text.LCD_DrawLine)
    [Anonymous Symbol]                       0x00000cda   Section        0  hw_lcd.o(.text.LCD_DrawPoint)
    [Anonymous Symbol]                       0x00000cfa   Section        0  hw_lcd.o(.text.LCD_Fill)
    [Anonymous Symbol]                       0x00000d58   Section        0  hw_lcd.o(.text.LCD_ShowChar)
    __arm_cp.24_0                            0x00000f24   Number         4  hw_lcd.o(.text.LCD_ShowChar)
    __arm_cp.24_1                            0x00000f28   Number         4  hw_lcd.o(.text.LCD_ShowChar)
    __arm_cp.24_2                            0x00000f2c   Number         4  hw_lcd.o(.text.LCD_ShowChar)
    __arm_cp.24_3                            0x00000f30   Number         4  hw_lcd.o(.text.LCD_ShowChar)
    [Anonymous Symbol]                       0x00000f34   Section        0  hw_lcd.o(.text.LCD_ShowChinese)
    [Anonymous Symbol]                       0x0000105c   Section        0  hw_lcd.o(.text.LCD_ShowChinese12x12)
    __arm_cp.20_0                            0x000011f4   Number         4  hw_lcd.o(.text.LCD_ShowChinese12x12)
    [Anonymous Symbol]                       0x000011f8   Section        0  hw_lcd.o(.text.LCD_ShowChinese16x16)
    __arm_cp.21_0                            0x00001390   Number         4  hw_lcd.o(.text.LCD_ShowChinese16x16)
    [Anonymous Symbol]                       0x00001394   Section        0  hw_lcd.o(.text.LCD_ShowChinese24x24)
    __arm_cp.22_0                            0x0000152c   Number         4  hw_lcd.o(.text.LCD_ShowChinese24x24)
    [Anonymous Symbol]                       0x00001530   Section        0  hw_lcd.o(.text.LCD_ShowChinese32x32)
    __arm_cp.23_0                            0x000016c8   Number         4  hw_lcd.o(.text.LCD_ShowChinese32x32)
    [Anonymous Symbol]                       0x000016cc   Section        0  hw_lcd.o(.text.LCD_WR_DATA)
    [Anonymous Symbol]                       0x000016e8   Section        0  hw_lcd.o(.text.LCD_WR_DATA8)
    [Anonymous Symbol]                       0x000016fc   Section        0  hw_lcd.o(.text.LCD_WR_REG)
    [Anonymous Symbol]                       0x00001728   Section        0  hw_lcd.o(.text.LCD_Writ_Bus)
    [Anonymous Symbol]                       0x00001754   Section        0  ti_msp_dl_config.o(.text.SYSCFG_DL_GPIO_init)
    __arm_cp.2_1                             0x000017c8   Number         4  ti_msp_dl_config.o(.text.SYSCFG_DL_GPIO_init)
    [Anonymous Symbol]                       0x000017cc   Section        0  ti_msp_dl_config.o(.text.SYSCFG_DL_SPI_LCD_init)
    __arm_cp.5_0                             0x00001800   Number         4  ti_msp_dl_config.o(.text.SYSCFG_DL_SPI_LCD_init)
    __arm_cp.5_2                             0x00001804   Number         4  ti_msp_dl_config.o(.text.SYSCFG_DL_SPI_LCD_init)
    [Anonymous Symbol]                       0x00001808   Section        0  ti_msp_dl_config.o(.text.SYSCFG_DL_SYSCTL_init)
    __arm_cp.3_0                             0x00001850   Number         4  ti_msp_dl_config.o(.text.SYSCFG_DL_SYSCTL_init)
    [Anonymous Symbol]                       0x00001854   Section        0  ti_msp_dl_config.o(.text.SYSCFG_DL_UART_DEBUG_init)
    __arm_cp.4_0                             0x0000189c   Number         4  ti_msp_dl_config.o(.text.SYSCFG_DL_UART_DEBUG_init)
    __arm_cp.4_2                             0x000018a0   Number         4  ti_msp_dl_config.o(.text.SYSCFG_DL_UART_DEBUG_init)
    [Anonymous Symbol]                       0x000018a4   Section        0  ti_msp_dl_config.o(.text.SYSCFG_DL_init)
    __arm_cp.0_0                             0x000018c4   Number         4  ti_msp_dl_config.o(.text.SYSCFG_DL_init)
    [Anonymous Symbol]                       0x000018c8   Section        0  ti_msp_dl_config.o(.text.SYSCFG_DL_initPower)
    __arm_cp.1_0                             0x00001910   Number         4  ti_msp_dl_config.o(.text.SYSCFG_DL_initPower)
    __arm_cp.1_1                             0x00001914   Number         4  ti_msp_dl_config.o(.text.SYSCFG_DL_initPower)
    __arm_cp.1_3                             0x00001918   Number         4  ti_msp_dl_config.o(.text.SYSCFG_DL_initPower)
    [Anonymous Symbol]                       0x0000191c   Section        0  mid_debug_uart.o(.text.UART0_IRQHandler)
    __arm_cp.9_0                             0x00001944   Number         4  mid_debug_uart.o(.text.UART0_IRQHandler)
    __NVIC_ClearPendingIRQ                   0x00001949   Thumb Code    40  mid_debug_uart.o(.text.__NVIC_ClearPendingIRQ)
    [Anonymous Symbol]                       0x00001948   Section        0  mid_debug_uart.o(.text.__NVIC_ClearPendingIRQ)
    __arm_cp.1_0                             0x00001970   Number         4  mid_debug_uart.o(.text.__NVIC_ClearPendingIRQ)
    __NVIC_EnableIRQ                         0x00001975   Thumb Code    40  mid_debug_uart.o(.text.__NVIC_EnableIRQ)
    [Anonymous Symbol]                       0x00001974   Section        0  mid_debug_uart.o(.text.__NVIC_EnableIRQ)
    __arm_cp.2_0                             0x0000199c   Number         4  mid_debug_uart.o(.text.__NVIC_EnableIRQ)
    __NVIC_SetPriority                       0x000019a1   Thumb Code   124  ti_msp_dl_config.o(.text.__NVIC_SetPriority)
    [Anonymous Symbol]                       0x000019a0   Section        0  ti_msp_dl_config.o(.text.__NVIC_SetPriority)
    __arm_cp.30_0                            0x00001a1c   Number         4  ti_msp_dl_config.o(.text.__NVIC_SetPriority)
    __arm_cp.30_1                            0x00001a20   Number         4  ti_msp_dl_config.o(.text.__NVIC_SetPriority)
    [Anonymous Symbol]                       0x00001a24   Section        0  mid_debug_uart.o(.text.debug_uart_init)
    debug_uart_receive_limit_length          0x00001a3d   Thumb Code    40  mid_debug_uart.o(.text.debug_uart_receive_limit_length)
    [Anonymous Symbol]                       0x00001a3c   Section        0  mid_debug_uart.o(.text.debug_uart_receive_limit_length)
    __arm_cp.12_0                            0x00001a64   Number         4  mid_debug_uart.o(.text.debug_uart_receive_limit_length)
    [Anonymous Symbol]                       0x00001a68   Section        0  empty.o(.text.disp_select_box)
    [Anonymous Symbol]                       0x00001b54   Section        0  empty.o(.text.disp_string_rect)
    [Anonymous Symbol]                       0x00001bd8   Section        0  empty.o(.text.disp_x_center)
    [Anonymous Symbol]                       0x00001c38   Section        0  hw_lcd.o(.text.lcd_init)
    __arm_cp.10_1                            0x00001df8   Number         4  hw_lcd.o(.text.lcd_init)
    __arm_cp.10_2                            0x00001dfc   Number         4  hw_lcd.o(.text.lcd_init)
    __arm_cp.10_3                            0x00001e00   Number         4  hw_lcd.o(.text.lcd_init)
    [Anonymous Symbol]                       0x00001e04   Section        0  empty.o(.text.main)
    __arm_cp.0_0                             0x00001e28   Number         4  empty.o(.text.main)
    [Anonymous Symbol]                       0x00001e2c   Section        0  hw_lcd.o(.text.spi_write_bus)
    __arm_cp.0_0                             0x00001e54   Number         4  hw_lcd.o(.text.spi_write_bus)
    [Anonymous Symbol]                       0x00001e58   Section        0  empty.o(.text.ui_home_page)
    __arm_cp.1_0                             0x00001f18   Number         4  empty.o(.text.ui_home_page)
    __arm_cp.1_1                             0x00001f1c   Number         4  empty.o(.text.ui_home_page)
    __arm_cp.1_2                             0x00001f20   Number         4  empty.o(.text.ui_home_page)
    __arm_cp.1_3                             0x00001f24   Number         4  empty.o(.text.ui_home_page)
    __arm_cp.1_4                             0x00001f28   Number         4  empty.o(.text.ui_home_page)
    __arm_cp.1_5                             0x00001f2c   Number         4  empty.o(.text.ui_home_page)
    i.__ARM_clz                              0x00001f30   Section        0  depilogue.o(i.__ARM_clz)
    i.__scatterload_copy                     0x00001f60   Section       14  handlers.o(i.__scatterload_copy)
    i.__scatterload_null                     0x00001f70   Section        2  handlers.o(i.__scatterload_null)
    i.__scatterload_zeroinit                 0x00001f78   Section       14  handlers.o(i.__scatterload_zeroinit)
    i.__set_errno                            0x00001f88   Section        0  errno.o(i.__set_errno)
    i.sqrt                                   0x00001f94   Section        0  sqrt.o(i.sqrt)
    gSPI_LCD_clockConfig                     0x000053d0   Data           2  ti_msp_dl_config.o(.rodata.gSPI_LCD_clockConfig)
    [Anonymous Symbol]                       0x000053d0   Section        0  ti_msp_dl_config.o(.rodata.gSPI_LCD_clockConfig)
    gSPI_LCD_config                          0x000053d2   Data          10  ti_msp_dl_config.o(.rodata.gSPI_LCD_config)
    [Anonymous Symbol]                       0x000053d2   Section        0  ti_msp_dl_config.o(.rodata.gSPI_LCD_config)
    gSYSPLLConfig                            0x000053dc   Data          40  ti_msp_dl_config.o(.rodata.gSYSPLLConfig)
    [Anonymous Symbol]                       0x000053dc   Section        0  ti_msp_dl_config.o(.rodata.gSYSPLLConfig)
    gUART_DEBUGClockConfig                   0x00005404   Data           2  ti_msp_dl_config.o(.rodata.gUART_DEBUGClockConfig)
    [Anonymous Symbol]                       0x00005404   Section        0  ti_msp_dl_config.o(.rodata.gUART_DEBUGClockConfig)
    gUART_DEBUGConfig                        0x00005406   Data          10  ti_msp_dl_config.o(.rodata.gUART_DEBUGConfig)
    [Anonymous Symbol]                       0x00005406   Section        0  ti_msp_dl_config.o(.rodata.gUART_DEBUGConfig)
    [Anonymous Symbol]                       0x00005410   Section        0  empty.o(.rodata.str1.1)
    _errno                                   0x20200000   Data           4  errno.o(.data)
    .data                                    0x20200000   Section        4  errno.o(.data)
    STACK                                    0x202000b8   Section     1024  startup_mspm0g350x_uvision.o(STACK)

    Global Symbols

    Symbol Name                              Value     Ov Type        Size  Object(Section)

    BuildAttributes$$THM_ISAv3M$S$PE$A:L22$X:L11$S22$IEEE1$IW$~IW$USESV6$~STKCKD$USESV7$~SHL$OTIME$ROPI$IEEEJ$EBA8$MICROLIB$REQ8$PRES8$EABIv2 0x00000000   Number         0  anon$$obj.o ABSOLUTE
    __Vectors                                0x00000000   Data           4  startup_mspm0g350x_uvision.o(RESET)
    __cpp_initialize__aeabi_                  - Undefined Weak Reference
    __cxa_finalize                            - Undefined Weak Reference
    __decompress                              - Undefined Weak Reference
    _clock_init                               - Undefined Weak Reference
    _microlib_exit                            - Undefined Weak Reference
    __Vectors_End                            0x000000c0   Data           0  startup_mspm0g350x_uvision.o(RESET)
    __Vectors_Size                           0x000000c0   Number         0  startup_mspm0g350x_uvision.o ABSOLUTE
    __main                                   0x000000c1   Thumb Code     0  entry.o(.ARM.Collect$$$$00000000)
    _main_stk                                0x000000c1   Thumb Code     0  entry2.o(.ARM.Collect$$$$00000001)
    _main_scatterload                        0x000000c5   Thumb Code     0  entry5.o(.ARM.Collect$$$$00000004)
    __main_after_scatterload                 0x000000c9   Thumb Code     0  entry5.o(.ARM.Collect$$$$00000004)
    _main_clock                              0x000000c9   Thumb Code     0  entry7b.o(.ARM.Collect$$$$00000008)
    _main_cpp_init                           0x000000c9   Thumb Code     0  entry8b.o(.ARM.Collect$$$$0000000A)
    _main_init                               0x000000c9   Thumb Code     0  entry9a.o(.ARM.Collect$$$$0000000B)
    __rt_final_cpp                           0x000000d1   Thumb Code     0  entry10a.o(.ARM.Collect$$$$0000000D)
    __rt_final_exit                          0x000000d1   Thumb Code     0  entry11a.o(.ARM.Collect$$$$0000000F)
    Reset_Handler                            0x000000d5   Thumb Code     4  startup_mspm0g350x_uvision.o(.text)
    NMI_Handler                              0x000000d9   Thumb Code     2  startup_mspm0g350x_uvision.o(.text)
    HardFault_Handler                        0x000000db   Thumb Code     2  startup_mspm0g350x_uvision.o(.text)
    SVC_Handler                              0x000000dd   Thumb Code     2  startup_mspm0g350x_uvision.o(.text)
    PendSV_Handler                           0x000000df   Thumb Code     2  startup_mspm0g350x_uvision.o(.text)
    SysTick_Handler                          0x000000e1   Thumb Code     2  startup_mspm0g350x_uvision.o(.text)
    ADC0_IRQHandler                          0x000000e3   Thumb Code     0  startup_mspm0g350x_uvision.o(.text)
    ADC1_IRQHandler                          0x000000e3   Thumb Code     0  startup_mspm0g350x_uvision.o(.text)
    AES_IRQHandler                           0x000000e3   Thumb Code     0  startup_mspm0g350x_uvision.o(.text)
    CANFD0_IRQHandler                        0x000000e3   Thumb Code     0  startup_mspm0g350x_uvision.o(.text)
    DAC0_IRQHandler                          0x000000e3   Thumb Code     0  startup_mspm0g350x_uvision.o(.text)
    DMA_IRQHandler                           0x000000e3   Thumb Code     0  startup_mspm0g350x_uvision.o(.text)
    Default_Handler                          0x000000e3   Thumb Code     2  startup_mspm0g350x_uvision.o(.text)
    GROUP0_IRQHandler                        0x000000e3   Thumb Code     0  startup_mspm0g350x_uvision.o(.text)
    GROUP1_IRQHandler                        0x000000e3   Thumb Code     0  startup_mspm0g350x_uvision.o(.text)
    I2C0_IRQHandler                          0x000000e3   Thumb Code     0  startup_mspm0g350x_uvision.o(.text)
    I2C1_IRQHandler                          0x000000e3   Thumb Code     0  startup_mspm0g350x_uvision.o(.text)
    RTC_IRQHandler                           0x000000e3   Thumb Code     0  startup_mspm0g350x_uvision.o(.text)
    SPI0_IRQHandler                          0x000000e3   Thumb Code     0  startup_mspm0g350x_uvision.o(.text)
    SPI1_IRQHandler                          0x000000e3   Thumb Code     0  startup_mspm0g350x_uvision.o(.text)
    TIMA0_IRQHandler                         0x000000e3   Thumb Code     0  startup_mspm0g350x_uvision.o(.text)
    TIMA1_IRQHandler                         0x000000e3   Thumb Code     0  startup_mspm0g350x_uvision.o(.text)
    TIMG0_IRQHandler                         0x000000e3   Thumb Code     0  startup_mspm0g350x_uvision.o(.text)
    TIMG12_IRQHandler                        0x000000e3   Thumb Code     0  startup_mspm0g350x_uvision.o(.text)
    TIMG6_IRQHandler                         0x000000e3   Thumb Code     0  startup_mspm0g350x_uvision.o(.text)
    TIMG7_IRQHandler                         0x000000e3   Thumb Code     0  startup_mspm0g350x_uvision.o(.text)
    TIMG8_IRQHandler                         0x000000e3   Thumb Code     0  startup_mspm0g350x_uvision.o(.text)
    UART1_IRQHandler                         0x000000e3   Thumb Code     0  startup_mspm0g350x_uvision.o(.text)
    UART2_IRQHandler                         0x000000e3   Thumb Code     0  startup_mspm0g350x_uvision.o(.text)
    UART3_IRQHandler                         0x000000e3   Thumb Code     0  startup_mspm0g350x_uvision.o(.text)
    __aeabi_ui2d                             0x000000e9   Thumb Code    24  dfltui.o(.text)
    __aeabi_d2iz                             0x00000105   Thumb Code    62  dfixi.o(.text)
    __aeabi_uidiv                            0x0000014d   Thumb Code     0  uidiv_div0.o(.text)
    __aeabi_uidivmod                         0x0000014d   Thumb Code    62  uidiv_div0.o(.text)
    __aeabi_llsr                             0x0000018b   Thumb Code    34  llushr.o(.text)
    _ll_ushift_r                             0x0000018b   Thumb Code     0  llushr.o(.text)
    __I$use$fp                               0x000001ad   Thumb Code     0  iusefp.o(.text)
    _double_round                            0x000001ad   Thumb Code    26  depilogue.o(.text)
    _double_epilogue                         0x000001c7   Thumb Code   164  depilogue.o(.text)
    _dsqrt                                   0x0000026b   Thumb Code   162  dsqrt.o(.text)
    __scatterload                            0x00000311   Thumb Code    38  init.o(.text)
    __scatterload_rt2                        0x00000311   Thumb Code     0  init.o(.text)
    __aeabi_llsl                             0x00000341   Thumb Code    32  llshl.o(.text)
    _ll_shift_l                              0x00000341   Thumb Code     0  llshl.o(.text)
    DL_Common_delayCycles                    0x00000361   Thumb Code    10  dl_common.o(.text.DL_Common_delayCycles)
    DL_SPI_init                              0x000004f5   Thumb Code    68  dl_spi.o(.text.DL_SPI_init)
    DL_SPI_setClockConfig                    0x00000589   Thumb Code    18  dl_spi.o(.text.DL_SPI_setClockConfig)
    DL_SYSCTL_configSYSPLL                   0x000005e5   Thumb Code   192  dl_sysctl_mspm0g1x0x_g3x0x.o(.text.DL_SYSCTL_configSYSPLL)
    DL_SYSCTL_setHFCLKSourceHFXTParams       0x000006f9   Thumb Code    80  dl_sysctl_mspm0g1x0x_g3x0x.o(.text.DL_SYSCTL_setHFCLKSourceHFXTParams)
    DL_SYSCTL_switchMCLKfromSYSOSCtoHSCLK    0x0000077d   Thumb Code    40  dl_sysctl_mspm0g1x0x_g3x0x.o(.text.DL_SYSCTL_switchMCLKfromSYSOSCtoHSCLK)
    DL_UART_init                             0x00000805   Thumb Code    72  dl_uart.o(.text.DL_UART_init)
    DL_UART_setClockConfig                   0x000008c5   Thumb Code    18  dl_uart.o(.text.DL_UART_setClockConfig)
    Drawarc                                  0x000008f5   Thumb Code   338  hw_lcd.o(.text.Drawarc)
    LCD_Address_Set                          0x00000a47   Thumb Code    62  hw_lcd.o(.text.LCD_Address_Set)
    LCD_ArcRect                              0x00000a85   Thumb Code   330  hw_lcd.o(.text.LCD_ArcRect)
    LCD_DrawLine                             0x00000bcf   Thumb Code   268  hw_lcd.o(.text.LCD_DrawLine)
    LCD_DrawPoint                            0x00000cdb   Thumb Code    32  hw_lcd.o(.text.LCD_DrawPoint)
    LCD_Fill                                 0x00000cfb   Thumb Code    92  hw_lcd.o(.text.LCD_Fill)
    LCD_ShowChar                             0x00000d59   Thumb Code   460  hw_lcd.o(.text.LCD_ShowChar)
    LCD_ShowChinese                          0x00000f35   Thumb Code   296  hw_lcd.o(.text.LCD_ShowChinese)
    LCD_ShowChinese12x12                     0x0000105d   Thumb Code   408  hw_lcd.o(.text.LCD_ShowChinese12x12)
    LCD_ShowChinese16x16                     0x000011f9   Thumb Code   408  hw_lcd.o(.text.LCD_ShowChinese16x16)
    LCD_ShowChinese24x24                     0x00001395   Thumb Code   408  hw_lcd.o(.text.LCD_ShowChinese24x24)
    LCD_ShowChinese32x32                     0x00001531   Thumb Code   408  hw_lcd.o(.text.LCD_ShowChinese32x32)
    LCD_WR_DATA                              0x000016cd   Thumb Code    28  hw_lcd.o(.text.LCD_WR_DATA)
    LCD_WR_DATA8                             0x000016e9   Thumb Code    20  hw_lcd.o(.text.LCD_WR_DATA8)
    LCD_WR_REG                               0x000016fd   Thumb Code    44  hw_lcd.o(.text.LCD_WR_REG)
    LCD_Writ_Bus                             0x00001729   Thumb Code    44  hw_lcd.o(.text.LCD_Writ_Bus)
    SYSCFG_DL_GPIO_init                      0x00001755   Thumb Code   116  ti_msp_dl_config.o(.text.SYSCFG_DL_GPIO_init)
    SYSCFG_DL_SPI_LCD_init                   0x000017cd   Thumb Code    52  ti_msp_dl_config.o(.text.SYSCFG_DL_SPI_LCD_init)
    SYSCFG_DL_SYSCTL_init                    0x00001809   Thumb Code    72  ti_msp_dl_config.o(.text.SYSCFG_DL_SYSCTL_init)
    SYSCFG_DL_UART_DEBUG_init                0x00001855   Thumb Code    72  ti_msp_dl_config.o(.text.SYSCFG_DL_UART_DEBUG_init)
    SYSCFG_DL_init                           0x000018a5   Thumb Code    32  ti_msp_dl_config.o(.text.SYSCFG_DL_init)
    SYSCFG_DL_initPower                      0x000018c9   Thumb Code    72  ti_msp_dl_config.o(.text.SYSCFG_DL_initPower)
    UART0_IRQHandler                         0x0000191d   Thumb Code    40  mid_debug_uart.o(.text.UART0_IRQHandler)
    debug_uart_init                          0x00001a25   Thumb Code    22  mid_debug_uart.o(.text.debug_uart_init)
    disp_select_box                          0x00001a69   Thumb Code   234  empty.o(.text.disp_select_box)
    disp_string_rect                         0x00001b55   Thumb Code   132  empty.o(.text.disp_string_rect)
    disp_x_center                            0x00001bd9   Thumb Code    96  empty.o(.text.disp_x_center)
    lcd_init                                 0x00001c39   Thumb Code   448  hw_lcd.o(.text.lcd_init)
    main                                     0x00001e05   Thumb Code    36  empty.o(.text.main)
    spi_write_bus                            0x00001e2d   Thumb Code    40  hw_lcd.o(.text.spi_write_bus)
    ui_home_page                             0x00001e59   Thumb Code   192  empty.o(.text.ui_home_page)
    __ARM_clz                                0x00001f31   Thumb Code    46  depilogue.o(i.__ARM_clz)
    __scatterload_copy                       0x00001f61   Thumb Code    14  handlers.o(i.__scatterload_copy)
    __scatterload_null                       0x00001f71   Thumb Code     2  handlers.o(i.__scatterload_null)
    __scatterload_zeroinit                   0x00001f79   Thumb Code    14  handlers.o(i.__scatterload_zeroinit)
    __set_errno                              0x00001f89   Thumb Code     6  errno.o(i.__set_errno)
    sqrt                                     0x00001f95   Thumb Code    66  sqrt.o(i.sqrt)
    ascii_1206                               0x00001fdc   Data        1140  hw_lcd.o(.rodata.ascii_1206)
    ascii_1608                               0x00002450   Data        1520  hw_lcd.o(.rodata.ascii_1608)
    ascii_2412                               0x00002a40   Data        4560  hw_lcd.o(.rodata.ascii_2412)
    ascii_3216                               0x00003c10   Data        6080  hw_lcd.o(.rodata.ascii_3216)
    tfont12                                  0x00005435   Data         130  hw_lcd.o(.rodata.tfont12)
    tfont16                                  0x000054b7   Data         374  hw_lcd.o(.rodata.tfont16)
    tfont24                                  0x0000562d   Data         222  hw_lcd.o(.rodata.tfont24)
    tfont32                                  0x0000570b   Data         130  hw_lcd.o(.rodata.tfont32)
    Region$$Table$$Base                      0x00005790   Number         0  anon$$obj.o(Region$$Table)
    Region$$Table$$Limit                     0x000057b0   Number         0  anon$$obj.o(Region$$Table)
    debug_uart                               0x20200008   Data         132  mid_debug_uart.o(.bss.debug_uart)
    gSPI_LCDBackup                           0x2020008c   Data          40  ti_msp_dl_config.o(.bss.gSPI_LCDBackup)
    __initial_sp                             0x202004b8   Data           0  startup_mspm0g350x_uvision.o(STACK)



==============================================================================

Memory Map of the image

  Image Entry point : 0x000000c1

  Load Region LR_IROM1 (Base: 0x00000000, Size: 0x000057b8, Max: 0x00020000, ABSOLUTE)

    Execution Region ER_IROM1 (Exec base: 0x00000000, Load base: 0x00000000, Size: 0x000057b0, Max: 0x00020000, ABSOLUTE)

    Exec Addr    Load Addr    Size         Type   Attr      Idx    E Section Name        Object

    0x00000000   0x00000000   0x000000c0   Data   RO           26    RESET               startup_mspm0g350x_uvision.o
    0x000000c0   0x000000c0   0x00000000   Code   RO          386  * .ARM.Collect$$$$00000000  mc_p.l(entry.o)
    0x000000c0   0x000000c0   0x00000004   Code   RO          403    .ARM.Collect$$$$00000001  mc_p.l(entry2.o)
    0x000000c4   0x000000c4   0x00000004   Code   RO          406    .ARM.Collect$$$$00000004  mc_p.l(entry5.o)
    0x000000c8   0x000000c8   0x00000000   Code   RO          408    .ARM.Collect$$$$00000008  mc_p.l(entry7b.o)
    0x000000c8   0x000000c8   0x00000000   Code   RO          410    .ARM.Collect$$$$0000000A  mc_p.l(entry8b.o)
    0x000000c8   0x000000c8   0x00000008   Code   RO          411    .ARM.Collect$$$$0000000B  mc_p.l(entry9a.o)
    0x000000d0   0x000000d0   0x00000000   Code   RO          413    .ARM.Collect$$$$0000000D  mc_p.l(entry10a.o)
    0x000000d0   0x000000d0   0x00000000   Code   RO          415    .ARM.Collect$$$$0000000F  mc_p.l(entry11a.o)
    0x000000d0   0x000000d0   0x00000004   Code   RO          404    .ARM.Collect$$$$00002712  mc_p.l(entry2.o)
    0x000000d4   0x000000d4   0x00000014   Code   RO           27    .text               startup_mspm0g350x_uvision.o
    0x000000e8   0x000000e8   0x0000001c   Code   RO          397    .text               mf_p.l(dfltui.o)
    0x00000104   0x00000104   0x00000048   Code   RO          401    .text               mf_p.l(dfixi.o)
    0x0000014c   0x0000014c   0x0000003e   Code   RO          421    .text               mc_p.l(uidiv_div0.o)
    0x0000018a   0x0000018a   0x00000022   Code   RO          427    .text               mc_p.l(llushr.o)
    0x000001ac   0x000001ac   0x00000000   Code   RO          436    .text               mc_p.l(iusefp.o)
    0x000001ac   0x000001ac   0x000000be   Code   RO          437    .text               mf_p.l(depilogue.o)
    0x0000026a   0x0000026a   0x000000a2   Code   RO          441    .text               mf_p.l(dsqrt.o)
    0x0000030c   0x0000030c   0x00000004   PAD
    0x00000310   0x00000310   0x00000030   Code   RO          443    .text               mc_p.l(init.o)
    0x00000340   0x00000340   0x00000020   Code   RO          445    .text               mc_p.l(llshl.o)
    0x00000360   0x00000360   0x0000000a   Code   RO          248    .text.DL_Common_delayCycles  driverlib.a(dl_common.o)
    0x0000036a   0x0000036a   0x00000028   Code   RO          104    .text.DL_Common_updateReg  ti_msp_dl_config.o
    0x00000392   0x00000392   0x00000014   Code   RO           12    .text.DL_GPIO_clearPins  empty.o
    0x000003a6   0x000003a6   0x00000014   Code   RO           72    .text.DL_GPIO_clearPins  ti_msp_dl_config.o
    0x000003ba   0x000003ba   0x00000014   Code   RO          127    .text.DL_GPIO_clearPins  hw_lcd.o
    0x000003ce   0x000003ce   0x00000002   PAD
    0x000003d0   0x000003d0   0x00000018   Code   RO           74    .text.DL_GPIO_enableOutput  ti_msp_dl_config.o
    0x000003e8   0x000003e8   0x00000014   Code   RO           56    .text.DL_GPIO_enablePower  ti_msp_dl_config.o
    0x000003fc   0x000003fc   0x00000014   Code   RO           70    .text.DL_GPIO_initDigitalOutput  ti_msp_dl_config.o
    0x00000410   0x00000410   0x0000002c   Code   RO           68    .text.DL_GPIO_initDigitalOutputFeatures  ti_msp_dl_config.o
    0x0000043c   0x0000043c   0x00000014   Code   RO           62    .text.DL_GPIO_initPeripheralAnalogFunction  ti_msp_dl_config.o
    0x00000450   0x00000450   0x0000001c   Code   RO           66    .text.DL_GPIO_initPeripheralInputFunction  ti_msp_dl_config.o
    0x0000046c   0x0000046c   0x0000001c   Code   RO           64    .text.DL_GPIO_initPeripheralOutputFunction  ti_msp_dl_config.o
    0x00000488   0x00000488   0x00000010   Code   RO           50    .text.DL_GPIO_reset  ti_msp_dl_config.o
    0x00000498   0x00000498   0x00000014   Code   RO           14    .text.DL_GPIO_setPins  empty.o
    0x000004ac   0x000004ac   0x00000018   Code   RO          129    .text.DL_GPIO_setPins  hw_lcd.o
    0x000004c4   0x000004c4   0x00000018   Code   RO          102    .text.DL_SPI_enable  ti_msp_dl_config.o
    0x000004dc   0x000004dc   0x00000018   Code   RO           60    .text.DL_SPI_enablePower  ti_msp_dl_config.o
    0x000004f4   0x000004f4   0x00000044   Code   RO          257    .text.DL_SPI_init   driverlib.a(dl_spi.o)
    0x00000538   0x00000538   0x00000014   Code   RO          123    .text.DL_SPI_isBusy  hw_lcd.o
    0x0000054c   0x0000054c   0x00000018   Code   RO           54    .text.DL_SPI_reset  ti_msp_dl_config.o
    0x00000564   0x00000564   0x00000024   Code   RO           98    .text.DL_SPI_setBitRateSerialClockDivider  ti_msp_dl_config.o
    0x00000588   0x00000588   0x00000012   Code   RO          259    .text.DL_SPI_setClockConfig  driverlib.a(dl_spi.o)
    0x0000059a   0x0000059a   0x00000002   PAD
    0x0000059c   0x0000059c   0x00000030   Code   RO          100    .text.DL_SPI_setFIFOThreshold  ti_msp_dl_config.o
    0x000005cc   0x000005cc   0x00000016   Code   RO          121    .text.DL_SPI_transmitData8  hw_lcd.o
    0x000005e2   0x000005e2   0x00000002   PAD
    0x000005e4   0x000005e4   0x000000c0   Code   RO          351    .text.DL_SYSCTL_configSYSPLL  driverlib.a(dl_sysctl_mspm0g1x0x_g3x0x.o)
    0x000006a4   0x000006a4   0x0000000c   Code   RO           82    .text.DL_SYSCTL_disableHFXT  ti_msp_dl_config.o
    0x000006b0   0x000006b0   0x00000014   Code   RO           84    .text.DL_SYSCTL_disableSYSPLL  ti_msp_dl_config.o
    0x000006c4   0x000006c4   0x00000018   Code   RO           76    .text.DL_SYSCTL_setBORThreshold  ti_msp_dl_config.o
    0x000006dc   0x000006dc   0x0000001c   Code   RO           78    .text.DL_SYSCTL_setFlashWaitState  ti_msp_dl_config.o
    0x000006f8   0x000006f8   0x00000050   Code   RO          365    .text.DL_SYSCTL_setHFCLKSourceHFXTParams  driverlib.a(dl_sysctl_mspm0g1x0x_g3x0x.o)
    0x00000748   0x00000748   0x0000001c   Code   RO           80    .text.DL_SYSCTL_setSYSOSCFreq  ti_msp_dl_config.o
    0x00000764   0x00000764   0x00000018   Code   RO           86    .text.DL_SYSCTL_setULPCLKDivider  ti_msp_dl_config.o
    0x0000077c   0x0000077c   0x00000028   Code   RO          359    .text.DL_SYSCTL_switchMCLKfromSYSOSCtoHSCLK  driverlib.a(dl_sysctl_mspm0g1x0x_g3x0x.o)
    0x000007a4   0x000007a4   0x00000016   Code   RO           96    .text.DL_UART_enable  ti_msp_dl_config.o
    0x000007ba   0x000007ba   0x00000002   PAD
    0x000007bc   0x000007bc   0x0000001c   Code   RO           92    .text.DL_UART_enableInterrupt  ti_msp_dl_config.o
    0x000007d8   0x000007d8   0x00000018   Code   RO           58    .text.DL_UART_enablePower  ti_msp_dl_config.o
    0x000007f0   0x000007f0   0x00000012   Code   RO          234    .text.DL_UART_getPendingInterrupt  mid_debug_uart.o
    0x00000802   0x00000802   0x00000002   PAD
    0x00000804   0x00000804   0x00000048   Code   RO          311    .text.DL_UART_init  driverlib.a(dl_uart.o)
    0x0000084c   0x0000084c   0x00000014   Code   RO          236    .text.DL_UART_receiveData  mid_debug_uart.o
    0x00000860   0x00000860   0x00000018   Code   RO           52    .text.DL_UART_reset  ti_msp_dl_config.o
    0x00000878   0x00000878   0x0000004c   Code   RO           90    .text.DL_UART_setBaudRateDivisor  ti_msp_dl_config.o
    0x000008c4   0x000008c4   0x00000012   Code   RO          313    .text.DL_UART_setClockConfig  driverlib.a(dl_uart.o)
    0x000008d6   0x000008d6   0x0000001e   Code   RO           88    .text.DL_UART_setOversampling  ti_msp_dl_config.o
    0x000008f4   0x000008f4   0x00000152   Code   RO          153    .text.Drawarc       hw_lcd.o
    0x00000a46   0x00000a46   0x0000003e   Code   RO          137    .text.LCD_Address_Set  hw_lcd.o
    0x00000a84   0x00000a84   0x0000014a   Code   RO          155    .text.LCD_ArcRect   hw_lcd.o
    0x00000bce   0x00000bce   0x0000010c   Code   RO          145    .text.LCD_DrawLine  hw_lcd.o
    0x00000cda   0x00000cda   0x00000020   Code   RO          143    .text.LCD_DrawPoint  hw_lcd.o
    0x00000cfa   0x00000cfa   0x0000005c   Code   RO          141    .text.LCD_Fill      hw_lcd.o
    0x00000d56   0x00000d56   0x00000002   PAD
    0x00000d58   0x00000d58   0x000001dc   Code   RO          167    .text.LCD_ShowChar  hw_lcd.o
    0x00000f34   0x00000f34   0x00000128   Code   RO          157    .text.LCD_ShowChinese  hw_lcd.o
    0x0000105c   0x0000105c   0x0000019c   Code   RO          159    .text.LCD_ShowChinese12x12  hw_lcd.o
    0x000011f8   0x000011f8   0x0000019c   Code   RO          161    .text.LCD_ShowChinese16x16  hw_lcd.o
    0x00001394   0x00001394   0x0000019c   Code   RO          163    .text.LCD_ShowChinese24x24  hw_lcd.o
    0x00001530   0x00001530   0x0000019c   Code   RO          165    .text.LCD_ShowChinese32x32  hw_lcd.o
    0x000016cc   0x000016cc   0x0000001c   Code   RO          133    .text.LCD_WR_DATA   hw_lcd.o
    0x000016e8   0x000016e8   0x00000014   Code   RO          131    .text.LCD_WR_DATA8  hw_lcd.o
    0x000016fc   0x000016fc   0x0000002c   Code   RO          135    .text.LCD_WR_REG    hw_lcd.o
    0x00001728   0x00001728   0x0000002c   Code   RO          125    .text.LCD_Writ_Bus  hw_lcd.o
    0x00001754   0x00001754   0x00000078   Code   RO           38    .text.SYSCFG_DL_GPIO_init  ti_msp_dl_config.o
    0x000017cc   0x000017cc   0x0000003c   Code   RO           44    .text.SYSCFG_DL_SPI_LCD_init  ti_msp_dl_config.o
    0x00001808   0x00001808   0x0000004c   Code   RO           40    .text.SYSCFG_DL_SYSCTL_init  ti_msp_dl_config.o
    0x00001854   0x00001854   0x00000050   Code   RO           42    .text.SYSCFG_DL_UART_DEBUG_init  ti_msp_dl_config.o
    0x000018a4   0x000018a4   0x00000024   Code   RO           34    .text.SYSCFG_DL_init  ti_msp_dl_config.o
    0x000018c8   0x000018c8   0x00000054   Code   RO           36    .text.SYSCFG_DL_initPower  ti_msp_dl_config.o
    0x0000191c   0x0000191c   0x0000002c   Code   RO          232    .text.UART0_IRQHandler  mid_debug_uart.o
    0x00001948   0x00001948   0x0000002c   Code   RO          216    .text.__NVIC_ClearPendingIRQ  mid_debug_uart.o
    0x00001974   0x00001974   0x0000002c   Code   RO          218    .text.__NVIC_EnableIRQ  mid_debug_uart.o
    0x000019a0   0x000019a0   0x00000084   Code   RO           94    .text.__NVIC_SetPriority  ti_msp_dl_config.o
    0x00001a24   0x00001a24   0x00000016   Code   RO          214    .text.debug_uart_init  mid_debug_uart.o
    0x00001a3a   0x00001a3a   0x00000002   PAD
    0x00001a3c   0x00001a3c   0x0000002c   Code   RO          238    .text.debug_uart_receive_limit_length  mid_debug_uart.o
    0x00001a68   0x00001a68   0x000000ea   Code   RO           10    .text.disp_select_box  empty.o
    0x00001b52   0x00001b52   0x00000002   PAD
    0x00001b54   0x00001b54   0x00000084   Code   RO            8    .text.disp_string_rect  empty.o
    0x00001bd8   0x00001bd8   0x00000060   Code   RO            6    .text.disp_x_center  empty.o
    0x00001c38   0x00001c38   0x000001cc   Code   RO          139    .text.lcd_init      hw_lcd.o
    0x00001e04   0x00001e04   0x00000028   Code   RO            2    .text.main          empty.o
    0x00001e2c   0x00001e2c   0x0000002c   Code   RO          119    .text.spi_write_bus  hw_lcd.o
    0x00001e58   0x00001e58   0x000000d8   Code   RO            4    .text.ui_home_page  empty.o
    0x00001f30   0x00001f30   0x0000002e   Code   RO          439    i.__ARM_clz         mf_p.l(depilogue.o)
    0x00001f5e   0x00001f5e   0x00000002   PAD
    0x00001f60   0x00001f60   0x0000000e   Code   RO          449    i.__scatterload_copy  mc_p.l(handlers.o)
    0x00001f6e   0x00001f6e   0x00000002   PAD
    0x00001f70   0x00001f70   0x00000002   Code   RO          450    i.__scatterload_null  mc_p.l(handlers.o)
    0x00001f72   0x00001f72   0x00000006   PAD
    0x00001f78   0x00001f78   0x0000000e   Code   RO          451    i.__scatterload_zeroinit  mc_p.l(handlers.o)
    0x00001f86   0x00001f86   0x00000002   PAD
    0x00001f88   0x00001f88   0x0000000c   Code   RO          431    i.__set_errno       mc_p.l(errno.o)
    0x00001f94   0x00001f94   0x00000048   Code   RO          383    i.sqrt              m_ps.l(sqrt.o)
    0x00001fdc   0x00001fdc   0x00000474   Data   RO          179    .rodata.ascii_1206  hw_lcd.o
    0x00002450   0x00002450   0x000005f0   Data   RO          180    .rodata.ascii_1608  hw_lcd.o
    0x00002a40   0x00002a40   0x000011d0   Data   RO          181    .rodata.ascii_2412  hw_lcd.o
    0x00003c10   0x00003c10   0x000017c0   Data   RO          182    .rodata.ascii_3216  hw_lcd.o
    0x000053d0   0x000053d0   0x00000002   Data   RO          110    .rodata.gSPI_LCD_clockConfig  ti_msp_dl_config.o
    0x000053d2   0x000053d2   0x0000000a   Data   RO          111    .rodata.gSPI_LCD_config  ti_msp_dl_config.o
    0x000053dc   0x000053dc   0x00000028   Data   RO          107    .rodata.gSYSPLLConfig  ti_msp_dl_config.o
    0x00005404   0x00005404   0x00000002   Data   RO          108    .rodata.gUART_DEBUGClockConfig  ti_msp_dl_config.o
    0x00005406   0x00005406   0x0000000a   Data   RO          109    .rodata.gUART_DEBUGConfig  ti_msp_dl_config.o
    0x00005410   0x00005410   0x00000025   Data   RO           16    .rodata.str1.1      empty.o
    0x00005435   0x00005435   0x00000082   Data   RO          183    .rodata.tfont12     hw_lcd.o
    0x000054b7   0x000054b7   0x00000176   Data   RO          184    .rodata.tfont16     hw_lcd.o
    0x0000562d   0x0000562d   0x000000de   Data   RO          185    .rodata.tfont24     hw_lcd.o
    0x0000570b   0x0000570b   0x00000082   Data   RO          186    .rodata.tfont32     hw_lcd.o
    0x0000578d   0x0000578d   0x00000003   PAD
    0x00005790   0x00005790   0x00000020   Data   RO          448    Region$$Table       anon$$obj.o


    Execution Region RW_IRAM2 (Exec base: 0x20200000, Load base: 0x000057b0, Size: 0x000004b8, Max: 0x00008000, ABSOLUTE)

    Exec Addr    Load Addr    Size         Type   Attr      Idx    E Section Name        Object

    0x20200000   0x000057b0   0x00000004   Data   RW          432    .data               mc_p.l(errno.o)
    0x20200004   0x000057b4   0x00000004   PAD
    0x20200008        -       0x00000084   Zero   RW          240    .bss.debug_uart     mid_debug_uart.o
    0x2020008c        -       0x00000028   Zero   RW          106    .bss.gSPI_LCDBackup  ti_msp_dl_config.o
    0x202000b4   0x000057b4   0x00000004   PAD
    0x202000b8        -       0x00000400   Zero   RW           24    STACK               startup_mspm0g350x_uvision.o



  Load Region LR_BCR (Base: 0x41c00000, Size: 0x00000000, Max: 0x00000100, ABSOLUTE)

    Execution Region BCR_CONFIG (Exec base: 0x41c00000, Load base: 0x41c00000, Size: 0x00000000, Max: 0x000000ff, ABSOLUTE)

    **** No section assigned to this execution region ****



  Load Region LR_BSL (Base: 0x41c00100, Size: 0x00000000, Max: 0x00000100, ABSOLUTE)

    Execution Region BSL_CONFIG (Exec base: 0x41c00100, Load base: 0x41c00100, Size: 0x00000000, Max: 0x00000080, ABSOLUTE)

    **** No section assigned to this execution region ****


==============================================================================

Image component sizes


      Code (inc. data)   RO Data    RW Data    ZI Data      Debug   Object Name

       758         28         37          0          0       5370   empty.o
      4268         52      14156          0          0      15958   hw_lcd.o
       236         20          0          0        132       6351   mid_debug_uart.o
        20          4        192          0       1024        644   startup_mspm0g350x_uvision.o
      1344        132         64          0         40      22547   ti_msp_dl_config.o

    ----------------------------------------------------------------------
      6640        236      14484          0       1200      50870   Object Totals
         0          0         32          0          0          0   (incl. Generated)
        14          0          3          0          4          0   (incl. Padding)

    ----------------------------------------------------------------------

      Code (inc. data)   RO Data    RW Data    ZI Data      Debug   Library Member Name

        10          0          0          0          0        790   dl_common.o
        86          8          0          0          0      13505   dl_spi.o
       312         24          0          0          0      12865   dl_sysctl_mspm0g1x0x_g3x0x.o
        90          8          0          0          0      14150   dl_uart.o
        72          6          0          0          0         76   sqrt.o
         0          0          0          0          0          0   entry.o
         0          0          0          0          0          0   entry10a.o
         0          0          0          0          0          0   entry11a.o
         8          4          0          0          0          0   entry2.o
         4          0          0          0          0          0   entry5.o
         0          0          0          0          0          0   entry7b.o
         0          0          0          0          0          0   entry8b.o
         8          4          0          0          0          0   entry9a.o
        12          6          0          4          0         60   errno.o
        30          0          0          0          0          0   handlers.o
        48         10          0          0          0         68   init.o
         0          0          0          0          0          0   iusefp.o
        32          0          0          0          0         68   llshl.o
        34          0          0          0          0         68   llushr.o
        62          0          0          0          0         72   uidiv_div0.o
       236          0          0          0          0        216   depilogue.o
        72         10          0          0          0         72   dfixi.o
        28          4          0          0          0         68   dfltui.o
       162          0          0          0          0         80   dsqrt.o

    ----------------------------------------------------------------------
      1324         84          0          4          4      42158   Library Totals
        18          0          0          0          4          0   (incl. Padding)

    ----------------------------------------------------------------------

      Code (inc. data)   RO Data    RW Data    ZI Data      Debug   Library Name

       498         40          0          0          0      41310   driverlib.a
        72          6          0          0          0         76   m_ps.l
       238         24          0          4          0        336   mc_p.l
       498         14          0          0          0        436   mf_p.l

    ----------------------------------------------------------------------
      1324         84          0          4          4      42158   Library Totals

    ----------------------------------------------------------------------

==============================================================================


      Code (inc. data)   RO Data    RW Data    ZI Data      Debug   

      7964        320      14484          4       1204      92688   Grand Totals
      7964        320      14484          4       1204      92688   ELF Image Totals
      7964        320      14484          4          0          0   ROM Totals

==============================================================================

    Total RO  Size (Code + RO Data)                22448 (  21.92kB)
    Total RW  Size (RW Data + ZI Data)              1208 (   1.18kB)
    Total ROM Size (Code + RO Data + RW Data)      22452 (  21.93kB)

==============================================================================

