Component: Arm Compiler for Embedded 6.21 Tool: armlink [5ec1fa00]

==============================================================================

Section Cross References

    empty.o(.text.ui_speed_or_distance_page_value_set_quick) refers to app_sys_mode.o(.text.get_functional_mode) for get_functional_mode
    empty.o(.text.ui_speed_or_distance_page_value_set_quick) refers to app_speed_pid.o(.text.get_speed_pid) for get_speed_pid
    empty.o(.text.ui_speed_or_distance_page_value_set_quick) refers to app_speed_pid.o(.text.set_speed_pid_parameter) for set_speed_pid_parameter
    empty.o(.text.ui_speed_or_distance_page_value_set_quick) refers to app_sys_mode.o(.bss.system_status) for system_status
    empty.o(.ARM.exidx.text.ui_speed_or_distance_page_value_set_quick) refers to empty.o(.text.ui_speed_or_distance_page_value_set_quick) for [Anonymous Symbol]
    empty.o(.text.main) refers to ti_msp_dl_config.o(.text.SYSCFG_DL_init) for SYSCFG_DL_init
    empty.o(.text.main) refers to mid_debug_uart.o(.text.debug_uart_init) for debug_uart_init
    empty.o(.text.main) refers to mid_button.o(.text.user_button_init) for user_button_init
    empty.o(.text.main) refers to hw_encoder.o(.text.encoder_init) for encoder_init
    empty.o(.text.main) refers to mid_timer.o(.text.timer_init) for timer_init
    empty.o(.text.main) refers to app_sys_mode.o(.text.sys_event_init) for sys_event_init
    empty.o(.text.main) refers to app_speed_pid.o(.text.speed_pid_init) for speed_pid_init
    empty.o(.text.main) refers to hw_lcd.o(.text.lcd_init) for lcd_init
    empty.o(.text.main) refers to app_ui.o(.text.ui_home_page) for ui_home_page
    empty.o(.text.main) refers to app_sys_mode.o(.text.get_motor_status_flag) for get_motor_status_flag
    empty.o(.text.main) refers to app_sys_mode.o(.text.get_functional_mode) for get_functional_mode
    empty.o(.text.main) refers to app_speed_pid.o(.text.get_speed_pid_target) for get_speed_pid_target
    empty.o(.text.main) refers to app_speed_pid.o(.text.motor_speed_control) for motor_speed_control
==============================================================================

Removing Unused input sections from the image.

    Removing empty.o(.text), (0 bytes).
    Removing empty.o(.ARM.exidx.text.ui_speed_or_distance_page_value_set_quick), (8 bytes).
    Removing empty.o(.ARM.exidx.text.main), (8 bytes).
    Removing empty.o(.ARM.use_no_argv), (4 bytes).
    Removing startup_mspm0g350x_uvision.o(HEAP), (1024 bytes).
    Removing ti_msp_dl_config.o(.text), (0 bytes).
    Removing ti_msp_dl_config.o(.ARM.exidx.text.SYSCFG_DL_init), (8 bytes).
    Removing ti_msp_dl_config.o(.ARM.exidx.text.SYSCFG_DL_initPower), (8 bytes).
    Removing ti_msp_dl_config.o(.ARM.exidx.text.SYSCFG_DL_GPIO_init), (8 bytes).
    Removing ti_msp_dl_config.o(.ARM.exidx.text.SYSCFG_DL_SYSCTL_init), (8 bytes).
    Removing ti_msp_dl_config.o(.ARM.exidx.text.SYSCFG_DL_PWM_MOTOR_init), (8 bytes).
    Removing ti_msp_dl_config.o(.ARM.exidx.text.SYSCFG_DL_TIMER_TICK_init), (8 bytes).
    Removing ti_msp_dl_config.o(.ARM.exidx.text.SYSCFG_DL_UART_DEBUG_init), (8 bytes).
    Removing ti_msp_dl_config.o(.ARM.exidx.text.SYSCFG_DL_SPI_LCD_init), (8 bytes).
    Removing ti_msp_dl_config.o(.text.SYSCFG_DL_saveConfiguration), (104 bytes).
    Removing ti_msp_dl_config.o(.ARM.exidx.text.SYSCFG_DL_saveConfiguration), (8 bytes).
    Removing ti_msp_dl_config.o(.text.SYSCFG_DL_restoreConfiguration), (108 bytes).
    Removing ti_msp_dl_config.o(.ARM.exidx.text.SYSCFG_DL_restoreConfiguration), (8 bytes).
==============================================================================

Image Symbol Table

    Local Symbols

    Symbol Name                              Value     Ov Type        Size  Object(Section)

    ../clib/division.s                       0x00000000   Number         0  aeabi_sdivfast.o ABSOLUTE
    ../clib/division.s                       0x00000000   Number         0  aeabi_sdivfast_div0.o ABSOLUTE
    ../clib/microlib/division.c              0x00000000   Number         0  uidiv.o ABSOLUTE
    ../clib/microlib/division.c              0x00000000   Number         0  uidiv_div0.o ABSOLUTE
    ../clib/microlib/division.c              0x00000000   Number         0  idiv_div0.o ABSOLUTE
    ../clib/microlib/division.c              0x00000000   Number         0  idiv0.o ABSOLUTE
    ../clib/microlib/division.c              0x00000000   Number         0  uldiv.o ABSOLUTE
    ../clib/microlib/errno.c                 0x00000000   Number         0  errno.o ABSOLUTE
    ../clib/microlib/init/entry.s            0x00000000   Number         0  entry.o ABSOLUTE
    ../clib/microlib/init/entry.s            0x00000000   Number         0  entry2.o ABSOLUTE
    ../clib/microlib/init/entry.s            0x00000000   Number         0  entry5.o ABSOLUTE
    ../clib/microlib/init/entry.s            0x00000000   Number         0  entry7a.o ABSOLUTE
    ../clib/microlib/init/entry.s            0x00000000   Number         0  entry7b.o ABSOLUTE
    ../clib/microlib/init/entry.s            0x00000000   Number         0  entry8a.o ABSOLUTE
    ../clib/microlib/init/entry.s            0x00000000   Number         0  entry8b.o ABSOLUTE
    ../clib/microlib/init/entry.s            0x00000000   Number         0  entry9a.o ABSOLUTE
    ../clib/microlib/init/entry.s            0x00000000   Number         0  entry9b.o ABSOLUTE
    ../clib/microlib/init/entry.s            0x00000000   Number         0  entry10a.o ABSOLUTE
    ../clib/microlib/init/entry.s            0x00000000   Number         0  entry10b.o ABSOLUTE
    ../clib/microlib/init/entry.s            0x00000000   Number         0  entry11a.o ABSOLUTE
    ../clib/microlib/init/entry.s            0x00000000   Number         0  entry11b.o ABSOLUTE
    ../clib/microlib/longlong.c              0x00000000   Number         0  llshl.o ABSOLUTE
    ../clib/microlib/longlong.c              0x00000000   Number         0  llushr.o ABSOLUTE
    ../clib/microlib/longlong.c              0x00000000   Number         0  llsshr.o ABSOLUTE
    ../clib/microlib/printf/printf.c         0x00000000   Number         0  printfa.o ABSOLUTE
    ../clib/microlib/stdio/fputc.c           0x00000000   Number         0  fputc.o ABSOLUTE
    ../clib/microlib/stdio/fputc.c           0x00000000   Number         0  fputc_h.o ABSOLUTE
    ../clib/microlib/stdio/semi.s            0x00000000   Number         0  semi.o ABSOLUTE
    ../clib/microlib/stdio/streams.c         0x00000000   Number         0  stdout.o ABSOLUTE
    ../clib/microlib/string/memset.c         0x00000000   Number         0  memseta.o ABSOLUTE
    ../clib/microlib/string/strlen.c         0x00000000   Number         0  strlen.o ABSOLUTE
    ../clib/microlib/stubs.s                 0x00000000   Number         0  iusefp.o ABSOLUTE
    ../clib/microlib/stubs.s                 0x00000000   Number         0  iusesemip.o ABSOLUTE
    ../fplib/microlib/d2f.c                  0x00000000   Number         0  d2f.o ABSOLUTE
    ../fplib/microlib/f2d.c                  0x00000000   Number         0  f2d.o ABSOLUTE
    ../fplib/microlib/fpadd.c                0x00000000   Number         0  fadd.o ABSOLUTE
    ../fplib/microlib/fpadd.c                0x00000000   Number         0  dadd.o ABSOLUTE
    ../fplib/microlib/fpcmp.c                0x00000000   Number         0  fcmple.o ABSOLUTE
    ../fplib/microlib/fpcmp.c                0x00000000   Number         0  fcmpge.o ABSOLUTE
    ../fplib/microlib/fpcmp.c                0x00000000   Number         0  fcmpgt.o ABSOLUTE
    ../fplib/microlib/fpcmp.c                0x00000000   Number         0  fcmpeq.o ABSOLUTE
    ../fplib/microlib/fpdiv.c                0x00000000   Number         0  ddiv.o ABSOLUTE
    ../fplib/microlib/fpepilogue.c           0x00000000   Number         0  fepilogue.o ABSOLUTE
    ../fplib/microlib/fpepilogue.c           0x00000000   Number         0  depilogue.o ABSOLUTE
    ../fplib/microlib/fpfix.c                0x00000000   Number         0  ffixi.o ABSOLUTE
    ../fplib/microlib/fpfix.c                0x00000000   Number         0  ffixui.o ABSOLUTE
    ../fplib/microlib/fpfix.c                0x00000000   Number         0  dfixi.o ABSOLUTE
    ../fplib/microlib/fpfix.c                0x00000000   Number         0  dfixui.o ABSOLUTE
    ../fplib/microlib/fpfix.c                0x00000000   Number         0  dfixul.o ABSOLUTE
    ../fplib/microlib/fpflt.c                0x00000000   Number         0  fflti.o ABSOLUTE
    ../fplib/microlib/fpflt.c                0x00000000   Number         0  dflti.o ABSOLUTE
    ../fplib/microlib/fpflt.c                0x00000000   Number         0  dfltui.o ABSOLUTE
    ../fplib/microlib/fpmul.c                0x00000000   Number         0  fmul.o ABSOLUTE
    ../fplib/microlib/fpmul.c                0x00000000   Number         0  dmul.o ABSOLUTE
    ../fplib/microlib/fpsqrt.c               0x00000000   Number         0  dsqrt.o ABSOLUTE
    ../mathlib/sqrt.c                        0x00000000   Number         0  sqrt.o ABSOLUTE
    app_key_task.c                           0x00000000   Number         0  app_key_task.o ABSOLUTE
    app_speed_pid.c                          0x00000000   Number         0  app_speed_pid.o ABSOLUTE
    app_sys_mode.c                           0x00000000   Number         0  app_sys_mode.o ABSOLUTE
    app_ui.c                                 0x00000000   Number         0  app_ui.o ABSOLUTE
    cdrcmple.s                               0x00000000   Number         0  cdrcmple.o ABSOLUTE
    dc.s                                     0x00000000   Number         0  dc.o ABSOLUTE
    dl_common.c                              0x00000000   Number         0  dl_common.o ABSOLUTE
    dl_spi.c                                 0x00000000   Number         0  dl_spi.o ABSOLUTE
    dl_sysctl_mspm0g1x0x_g3x0x.c             0x00000000   Number         0  dl_sysctl_mspm0g1x0x_g3x0x.o ABSOLUTE
    dl_timer.c                               0x00000000   Number         0  dl_timer.o ABSOLUTE
    dl_uart.c                                0x00000000   Number         0  dl_uart.o ABSOLUTE
    empty.c                                  0x00000000   Number         0  empty.o ABSOLUTE
    handlers.s                               0x00000000   Number         0  handlers.o ABSOLUTE
    hw_encoder.c                             0x00000000   Number         0  hw_encoder.o ABSOLUTE
    hw_key.c                                 0x00000000   Number         0  hw_key.o ABSOLUTE
    hw_lcd.c                                 0x00000000   Number         0  hw_lcd.o ABSOLUTE
    hw_motor.c                               0x00000000   Number         0  hw_motor.o ABSOLUTE
    init.s                                   0x00000000   Number         0  init.o ABSOLUTE
    mid_button.c                             0x00000000   Number         0  mid_button.o ABSOLUTE
    mid_debug_led.c                          0x00000000   Number         0  mid_debug_led.o ABSOLUTE
    mid_debug_uart.c                         0x00000000   Number         0  mid_debug_uart.o ABSOLUTE
    mid_pid.c                                0x00000000   Number         0  mid_pid.o ABSOLUTE
    mid_timer.c                              0x00000000   Number         0  mid_timer.o ABSOLUTE
    startup_mspm0g350x_uvision.s             0x00000000   Number         0  startup_mspm0g350x_uvision.o ABSOLUTE
    ti_msp_dl_config.c                       0x00000000   Number         0  ti_msp_dl_config.o ABSOLUTE
    RESET                                    0x00000000   Section      192  startup_mspm0g350x_uvision.o(RESET)
    .ARM.Collect$$$$00000000                 0x000000c0   Section        0  entry.o(.ARM.Collect$$$$00000000)
    .ARM.Collect$$$$00000001                 0x000000c0   Section        4  entry2.o(.ARM.Collect$$$$00000001)
    .ARM.Collect$$$$00000004                 0x000000c4   Section        4  entry5.o(.ARM.Collect$$$$00000004)
    .ARM.Collect$$$$00000008                 0x000000c8   Section        0  entry7b.o(.ARM.Collect$$$$00000008)
    .ARM.Collect$$$$0000000A                 0x000000c8   Section        0  entry8b.o(.ARM.Collect$$$$0000000A)
    .ARM.Collect$$$$0000000B                 0x000000c8   Section        8  entry9a.o(.ARM.Collect$$$$0000000B)
    __lit__00000000                          0x000000d0   Data           4  entry2.o(.ARM.Collect$$$$00002712)
    .ARM.Collect$$$$0000000D                 0x000000d0   Section        0  entry10a.o(.ARM.Collect$$$$0000000D)
    .ARM.Collect$$$$0000000F                 0x000000d0   Section        0  entry11a.o(.ARM.Collect$$$$0000000F)
    .ARM.Collect$$$$00002712                 0x000000d0   Section        4  entry2.o(.ARM.Collect$$$$00002712)
    .text                                    0x000000d4   Section       20  startup_mspm0g350x_uvision.o(.text)
    .text                                    0x000000e8   Section        0  memseta.o(.text)
    .text                                    0x0000010c   Section        0  strlen.o(.text)
    .text                                    0x0000011a   Section        0  fadd.o(.text)
    .text                                    0x000001cc   Section        0  fmul.o(.text)
    .text                                    0x00000248   Section        0  dadd.o(.text)
    .text                                    0x000003ac   Section        0  ddiv.o(.text)
    .text                                    0x0000049c   Section        0  fcmple.o(.text)
    .text                                    0x000004b8   Section        0  fcmpge.o(.text)
    .text                                    0x000004d4   Section        0  fcmpgt.o(.text)
    .text                                    0x000004f0   Section        0  fcmpeq.o(.text)
    .text                                    0x0000050c   Section        0  fflti.o(.text)
    .text                                    0x00000524   Section        0  dflti.o(.text)
    .text                                    0x0000054c   Section        0  dfltui.o(.text)
    .text                                    0x00000568   Section        0  ffixi.o(.text)
    .text                                    0x0000059c   Section        0  dfixi.o(.text)
    .text                                    0x000005e4   Section        0  dfixui.o(.text)
    .text                                    0x00000620   Section        0  f2d.o(.text)
    .text                                    0x00000648   Section        0  d2f.o(.text)
    .text                                    0x00000680   Section        0  uidiv_div0.o(.text)
    .text                                    0x000006be   Section        0  uldiv.o(.text)
    .text                                    0x0000071e   Section        0  llshl.o(.text)
    .text                                    0x0000073e   Section        0  llushr.o(.text)
    .text                                    0x00000760   Section        0  llsshr.o(.text)
    .text                                    0x00000786   Section        0  iusefp.o(.text)
    .text                                    0x00000786   Section        0  fepilogue.o(.text)
    .text                                    0x00000808   Section        0  depilogue.o(.text)
    .text                                    0x000008c8   Section        0  dmul.o(.text)
    .text                                    0x00000998   Section        0  dsqrt.o(.text)
    .text                                    0x00000a3c   Section        0  dfixul.o(.text)
    .text                                    0x00000a7c   Section       40  cdrcmple.o(.text)
    .text                                    0x00000aa8   Section       48  init.o(.text)
    [Anonymous Symbol]                       0x00000ad8   Section        0  dl_common.o(.text.DL_Common_delayCycles)
    DL_Common_updateReg                      0x00000ae3   Thumb Code    40  ti_msp_dl_config.o(.text.DL_Common_updateReg)
    [Anonymous Symbol]                       0x00000ae2   Section        0  ti_msp_dl_config.o(.text.DL_Common_updateReg)
    DL_GPIO_clearInterruptStatus             0x00000b0d   Thumb Code    24  ti_msp_dl_config.o(.text.DL_GPIO_clearInterruptStatus)
    [Anonymous Symbol]                       0x00000b0c   Section        0  ti_msp_dl_config.o(.text.DL_GPIO_clearInterruptStatus)
    DL_GPIO_clearInterruptStatus             0x00000b25   Thumb Code    24  hw_encoder.o(.text.DL_GPIO_clearInterruptStatus)
    [Anonymous Symbol]                       0x00000b24   Section        0  hw_encoder.o(.text.DL_GPIO_clearInterruptStatus)
    __arm_cp.9_0                             0x00000b3c   Number         4  hw_encoder.o(.text.DL_GPIO_clearInterruptStatus)
    DL_GPIO_clearPins                        0x00000b41   Thumb Code    20  ti_msp_dl_config.o(.text.DL_GPIO_clearPins)
    [Anonymous Symbol]                       0x00000b40   Section        0  ti_msp_dl_config.o(.text.DL_GPIO_clearPins)
    DL_GPIO_clearPins                        0x00000b55   Thumb Code    20  hw_lcd.o(.text.DL_GPIO_clearPins)
    [Anonymous Symbol]                       0x00000b54   Section        0  hw_lcd.o(.text.DL_GPIO_clearPins)
    DL_GPIO_clearPins                        0x00000b69   Thumb Code    20  app_ui.o(.text.DL_GPIO_clearPins)
    [Anonymous Symbol]                       0x00000b68   Section        0  app_ui.o(.text.DL_GPIO_clearPins)
    DL_GPIO_enableInterrupt                  0x00000b7d   Thumb Code    24  ti_msp_dl_config.o(.text.DL_GPIO_enableInterrupt)
    [Anonymous Symbol]                       0x00000b7c   Section        0  ti_msp_dl_config.o(.text.DL_GPIO_enableInterrupt)
    __arm_cp.28_0                            0x00000b94   Number         4  ti_msp_dl_config.o(.text.DL_GPIO_enableInterrupt)
    DL_GPIO_enableOutput                     0x00000b99   Thumb Code    20  ti_msp_dl_config.o(.text.DL_GPIO_enableOutput)
    [Anonymous Symbol]                       0x00000b98   Section        0  ti_msp_dl_config.o(.text.DL_GPIO_enableOutput)
    __arm_cp.20_0                            0x00000bac   Number         4  ti_msp_dl_config.o(.text.DL_GPIO_enableOutput)
    DL_GPIO_enablePower                      0x00000bb1   Thumb Code    20  ti_msp_dl_config.o(.text.DL_GPIO_enablePower)
    [Anonymous Symbol]                       0x00000bb0   Section        0  ti_msp_dl_config.o(.text.DL_GPIO_enablePower)
    DL_GPIO_getEnabledInterruptStatus        0x00000bc5   Thumb Code    20  hw_encoder.o(.text.DL_GPIO_getEnabledInterruptStatus)
    [Anonymous Symbol]                       0x00000bc4   Section        0  hw_encoder.o(.text.DL_GPIO_getEnabledInterruptStatus)
    __arm_cp.7_0                             0x00000bd8   Number         4  hw_encoder.o(.text.DL_GPIO_getEnabledInterruptStatus)
    DL_GPIO_initDigitalInputFeatures         0x00000bdd   Thumb Code    44  ti_msp_dl_config.o(.text.DL_GPIO_initDigitalInputFeatures)
    [Anonymous Symbol]                       0x00000bdc   Section        0  ti_msp_dl_config.o(.text.DL_GPIO_initDigitalInputFeatures)
    __arm_cp.24_0                            0x00000c08   Number         4  ti_msp_dl_config.o(.text.DL_GPIO_initDigitalInputFeatures)
    DL_GPIO_initDigitalOutput                0x00000c0d   Thumb Code    20  ti_msp_dl_config.o(.text.DL_GPIO_initDigitalOutput)
    [Anonymous Symbol]                       0x00000c0c   Section        0  ti_msp_dl_config.o(.text.DL_GPIO_initDigitalOutput)
    DL_GPIO_initDigitalOutputFeatures        0x00000c21   Thumb Code    44  ti_msp_dl_config.o(.text.DL_GPIO_initDigitalOutputFeatures)
    [Anonymous Symbol]                       0x00000c20   Section        0  ti_msp_dl_config.o(.text.DL_GPIO_initDigitalOutputFeatures)
    DL_GPIO_initPeripheralAnalogFunction     0x00000c4d   Thumb Code    20  ti_msp_dl_config.o(.text.DL_GPIO_initPeripheralAnalogFunction)
    [Anonymous Symbol]                       0x00000c4c   Section        0  ti_msp_dl_config.o(.text.DL_GPIO_initPeripheralAnalogFunction)
    DL_GPIO_initPeripheralInputFunction      0x00000c61   Thumb Code    24  ti_msp_dl_config.o(.text.DL_GPIO_initPeripheralInputFunction)
    [Anonymous Symbol]                       0x00000c60   Section        0  ti_msp_dl_config.o(.text.DL_GPIO_initPeripheralInputFunction)
    __arm_cp.21_0                            0x00000c78   Number         4  ti_msp_dl_config.o(.text.DL_GPIO_initPeripheralInputFunction)
    DL_GPIO_initPeripheralOutputFunction     0x00000c7d   Thumb Code    24  ti_msp_dl_config.o(.text.DL_GPIO_initPeripheralOutputFunction)
    [Anonymous Symbol]                       0x00000c7c   Section        0  ti_msp_dl_config.o(.text.DL_GPIO_initPeripheralOutputFunction)
    __arm_cp.19_0                            0x00000c94   Number         4  ti_msp_dl_config.o(.text.DL_GPIO_initPeripheralOutputFunction)
    DL_GPIO_readPins                         0x00000c99   Thumb Code    22  hw_key.o(.text.DL_GPIO_readPins)
    [Anonymous Symbol]                       0x00000c98   Section        0  hw_key.o(.text.DL_GPIO_readPins)
    DL_GPIO_readPins                         0x00000caf   Thumb Code    22  hw_encoder.o(.text.DL_GPIO_readPins)
    [Anonymous Symbol]                       0x00000cae   Section        0  hw_encoder.o(.text.DL_GPIO_readPins)
    DL_GPIO_reset                            0x00000cc5   Thumb Code    16  ti_msp_dl_config.o(.text.DL_GPIO_reset)
    [Anonymous Symbol]                       0x00000cc4   Section        0  ti_msp_dl_config.o(.text.DL_GPIO_reset)
    DL_GPIO_setLowerPinsPolarity             0x00000cd5   Thumb Code    24  ti_msp_dl_config.o(.text.DL_GPIO_setLowerPinsPolarity)
    [Anonymous Symbol]                       0x00000cd4   Section        0  ti_msp_dl_config.o(.text.DL_GPIO_setLowerPinsPolarity)
    __arm_cp.26_0                            0x00000cec   Number         4  ti_msp_dl_config.o(.text.DL_GPIO_setLowerPinsPolarity)
    DL_GPIO_setPins                          0x00000cf1   Thumb Code    20  hw_lcd.o(.text.DL_GPIO_setPins)
    [Anonymous Symbol]                       0x00000cf0   Section        0  hw_lcd.o(.text.DL_GPIO_setPins)
    DL_GPIO_setPins                          0x00000d05   Thumb Code    20  app_ui.o(.text.DL_GPIO_setPins)
    [Anonymous Symbol]                       0x00000d04   Section        0  app_ui.o(.text.DL_GPIO_setPins)
    __arm_cp.5_0                             0x00000d18   Number         4  app_ui.o(.text.DL_GPIO_setPins)
    DL_SPI_enable                            0x00000d1d   Thumb Code    20  ti_msp_dl_config.o(.text.DL_SPI_enable)
    [Anonymous Symbol]                       0x00000d1c   Section        0  ti_msp_dl_config.o(.text.DL_SPI_enable)
    __arm_cp.46_0                            0x00000d30   Number         4  ti_msp_dl_config.o(.text.DL_SPI_enable)
    DL_SPI_enablePower                       0x00000d35   Thumb Code    20  ti_msp_dl_config.o(.text.DL_SPI_enablePower)
    [Anonymous Symbol]                       0x00000d34   Section        0  ti_msp_dl_config.o(.text.DL_SPI_enablePower)
    __arm_cp.17_0                            0x00000d48   Number         4  ti_msp_dl_config.o(.text.DL_SPI_enablePower)
    [Anonymous Symbol]                       0x00000d4c   Section        0  dl_spi.o(.text.DL_SPI_init)
    __arm_cp.0_0                             0x00000d88   Number         4  dl_spi.o(.text.DL_SPI_init)
    __arm_cp.0_1                             0x00000d8c   Number         4  dl_spi.o(.text.DL_SPI_init)
    DL_SPI_isBusy                            0x00000d91   Thumb Code    20  hw_lcd.o(.text.DL_SPI_isBusy)
    [Anonymous Symbol]                       0x00000d90   Section        0  hw_lcd.o(.text.DL_SPI_isBusy)
    __arm_cp.2_0                             0x00000da4   Number         4  hw_lcd.o(.text.DL_SPI_isBusy)
    DL_SPI_reset                             0x00000da9   Thumb Code    16  ti_msp_dl_config.o(.text.DL_SPI_reset)
    [Anonymous Symbol]                       0x00000da8   Section        0  ti_msp_dl_config.o(.text.DL_SPI_reset)
    __arm_cp.13_0                            0x00000db8   Number         4  ti_msp_dl_config.o(.text.DL_SPI_reset)
    __arm_cp.13_1                            0x00000dbc   Number         4  ti_msp_dl_config.o(.text.DL_SPI_reset)
    DL_SPI_setBitRateSerialClockDivider      0x00000dc1   Thumb Code    28  ti_msp_dl_config.o(.text.DL_SPI_setBitRateSerialClockDivider)
    [Anonymous Symbol]                       0x00000dc0   Section        0  ti_msp_dl_config.o(.text.DL_SPI_setBitRateSerialClockDivider)
    __arm_cp.44_1                            0x00000ddc   Number         4  ti_msp_dl_config.o(.text.DL_SPI_setBitRateSerialClockDivider)
    [Anonymous Symbol]                       0x00000de0   Section        0  dl_spi.o(.text.DL_SPI_setClockConfig)
    DL_SPI_setFIFOThreshold                  0x00000df5   Thumb Code    44  ti_msp_dl_config.o(.text.DL_SPI_setFIFOThreshold)
    [Anonymous Symbol]                       0x00000df4   Section        0  ti_msp_dl_config.o(.text.DL_SPI_setFIFOThreshold)
    __arm_cp.45_0                            0x00000e20   Number         4  ti_msp_dl_config.o(.text.DL_SPI_setFIFOThreshold)
    DL_SPI_transmitData8                     0x00000e25   Thumb Code    22  hw_lcd.o(.text.DL_SPI_transmitData8)
    [Anonymous Symbol]                       0x00000e24   Section        0  hw_lcd.o(.text.DL_SPI_transmitData8)
    [Anonymous Symbol]                       0x00000e3c   Section        0  dl_sysctl_mspm0g1x0x_g3x0x.o(.text.DL_SYSCTL_configSYSPLL)
    __arm_cp.0_2                             0x00000ef0   Number         4  dl_sysctl_mspm0g1x0x_g3x0x.o(.text.DL_SYSCTL_configSYSPLL)
    __arm_cp.0_3                             0x00000ef4   Number         4  dl_sysctl_mspm0g1x0x_g3x0x.o(.text.DL_SYSCTL_configSYSPLL)
    __arm_cp.0_4                             0x00000ef8   Number         4  dl_sysctl_mspm0g1x0x_g3x0x.o(.text.DL_SYSCTL_configSYSPLL)
    DL_SYSCTL_disableHFXT                    0x00000efd   Thumb Code    12  ti_msp_dl_config.o(.text.DL_SYSCTL_disableHFXT)
    [Anonymous Symbol]                       0x00000efc   Section        0  ti_msp_dl_config.o(.text.DL_SYSCTL_disableHFXT)
    DL_SYSCTL_disableSYSPLL                  0x00000f09   Thumb Code    16  ti_msp_dl_config.o(.text.DL_SYSCTL_disableSYSPLL)
    [Anonymous Symbol]                       0x00000f08   Section        0  ti_msp_dl_config.o(.text.DL_SYSCTL_disableSYSPLL)
    __arm_cp.33_0                            0x00000f18   Number         4  ti_msp_dl_config.o(.text.DL_SYSCTL_disableSYSPLL)
    DL_SYSCTL_setBORThreshold                0x00000f1d   Thumb Code    20  ti_msp_dl_config.o(.text.DL_SYSCTL_setBORThreshold)
    [Anonymous Symbol]                       0x00000f1c   Section        0  ti_msp_dl_config.o(.text.DL_SYSCTL_setBORThreshold)
    __arm_cp.29_0                            0x00000f30   Number         4  ti_msp_dl_config.o(.text.DL_SYSCTL_setBORThreshold)
    DL_SYSCTL_setFlashWaitState              0x00000f35   Thumb Code    28  ti_msp_dl_config.o(.text.DL_SYSCTL_setFlashWaitState)
    [Anonymous Symbol]                       0x00000f34   Section        0  ti_msp_dl_config.o(.text.DL_SYSCTL_setFlashWaitState)
    [Anonymous Symbol]                       0x00000f50   Section        0  dl_sysctl_mspm0g1x0x_g3x0x.o(.text.DL_SYSCTL_setHFCLKSourceHFXTParams)
    __arm_cp.7_0                             0x00000f9c   Number         4  dl_sysctl_mspm0g1x0x_g3x0x.o(.text.DL_SYSCTL_setHFCLKSourceHFXTParams)
    DL_SYSCTL_setSYSOSCFreq                  0x00000fa1   Thumb Code    24  ti_msp_dl_config.o(.text.DL_SYSCTL_setSYSOSCFreq)
    [Anonymous Symbol]                       0x00000fa0   Section        0  ti_msp_dl_config.o(.text.DL_SYSCTL_setSYSOSCFreq)
    __arm_cp.31_0                            0x00000fb8   Number         4  ti_msp_dl_config.o(.text.DL_SYSCTL_setSYSOSCFreq)
    DL_SYSCTL_setULPCLKDivider               0x00000fbd   Thumb Code    24  ti_msp_dl_config.o(.text.DL_SYSCTL_setULPCLKDivider)
    [Anonymous Symbol]                       0x00000fbc   Section        0  ti_msp_dl_config.o(.text.DL_SYSCTL_setULPCLKDivider)
    [Anonymous Symbol]                       0x00000fd4   Section        0  dl_sysctl_mspm0g1x0x_g3x0x.o(.text.DL_SYSCTL_switchMCLKfromSYSOSCtoHSCLK)
    __arm_cp.4_0                             0x00000ff4   Number         4  dl_sysctl_mspm0g1x0x_g3x0x.o(.text.DL_SYSCTL_switchMCLKfromSYSOSCtoHSCLK)
    __arm_cp.4_1                             0x00000ff8   Number         4  dl_sysctl_mspm0g1x0x_g3x0x.o(.text.DL_SYSCTL_switchMCLKfromSYSOSCtoHSCLK)
    DL_Timer_enableClock                     0x00000ffd   Thumb Code    16  ti_msp_dl_config.o(.text.DL_Timer_enableClock)
    [Anonymous Symbol]                       0x00000ffc   Section        0  ti_msp_dl_config.o(.text.DL_Timer_enableClock)
    __arm_cp.37_0                            0x0000100c   Number         4  ti_msp_dl_config.o(.text.DL_Timer_enableClock)
    DL_Timer_enableInterrupt                 0x00001011   Thumb Code    24  ti_msp_dl_config.o(.text.DL_Timer_enableInterrupt)
    [Anonymous Symbol]                       0x00001010   Section        0  ti_msp_dl_config.o(.text.DL_Timer_enableInterrupt)
    DL_Timer_enablePower                     0x00001029   Thumb Code    20  ti_msp_dl_config.o(.text.DL_Timer_enablePower)
    [Anonymous Symbol]                       0x00001028   Section        0  ti_msp_dl_config.o(.text.DL_Timer_enablePower)
    __arm_cp.15_0                            0x0000103c   Number         4  ti_msp_dl_config.o(.text.DL_Timer_enablePower)
    DL_Timer_getPendingInterrupt             0x00001041   Thumb Code    18  mid_timer.o(.text.DL_Timer_getPendingInterrupt)
    [Anonymous Symbol]                       0x00001040   Section        0  mid_timer.o(.text.DL_Timer_getPendingInterrupt)
    [Anonymous Symbol]                       0x00001054   Section        0  dl_timer.o(.text.DL_Timer_initFourCCPWMMode)
    __arm_cp.40_1                            0x00001148   Number         4  dl_timer.o(.text.DL_Timer_initFourCCPWMMode)
    __arm_cp.40_2                            0x0000114c   Number         4  dl_timer.o(.text.DL_Timer_initFourCCPWMMode)
    __arm_cp.40_4                            0x00001150   Number         4  dl_timer.o(.text.DL_Timer_initFourCCPWMMode)
    __arm_cp.40_5                            0x00001154   Number         4  dl_timer.o(.text.DL_Timer_initFourCCPWMMode)
    __arm_cp.40_6                            0x00001158   Number         4  dl_timer.o(.text.DL_Timer_initFourCCPWMMode)
    [Anonymous Symbol]                       0x0000115c   Section        0  dl_timer.o(.text.DL_Timer_initTimerMode)
    __arm_cp.2_0                             0x0000123c   Number         4  dl_timer.o(.text.DL_Timer_initTimerMode)
    __arm_cp.2_2                             0x00001240   Number         4  dl_timer.o(.text.DL_Timer_initTimerMode)
    __arm_cp.2_3                             0x00001244   Number         4  dl_timer.o(.text.DL_Timer_initTimerMode)
    DL_Timer_reset                           0x00001249   Thumb Code    16  ti_msp_dl_config.o(.text.DL_Timer_reset)
    [Anonymous Symbol]                       0x00001248   Section        0  ti_msp_dl_config.o(.text.DL_Timer_reset)
    DL_Timer_setCCPDirection                 0x00001259   Thumb Code    20  ti_msp_dl_config.o(.text.DL_Timer_setCCPDirection)
    [Anonymous Symbol]                       0x00001258   Section        0  ti_msp_dl_config.o(.text.DL_Timer_setCCPDirection)
    [Anonymous Symbol]                       0x0000126c   Section        0  dl_timer.o(.text.DL_Timer_setCaptCompUpdateMethod)
    __arm_cp.23_0                            0x00001284   Number         4  dl_timer.o(.text.DL_Timer_setCaptCompUpdateMethod)
    [Anonymous Symbol]                       0x00001288   Section        0  dl_timer.o(.text.DL_Timer_setCaptureCompareOutCtl)
    __arm_cp.27_0                            0x0000129c   Number         4  dl_timer.o(.text.DL_Timer_setCaptureCompareOutCtl)
    [Anonymous Symbol]                       0x000012a0   Section        0  dl_timer.o(.text.DL_Timer_setCaptureCompareValue)
    __arm_cp.3_0                             0x000012ac   Number         4  dl_timer.o(.text.DL_Timer_setCaptureCompareValue)
    [Anonymous Symbol]                       0x000012b0   Section        0  dl_timer.o(.text.DL_Timer_setClockConfig)
    __arm_cp.0_0                             0x000012c8   Number         4  dl_timer.o(.text.DL_Timer_setClockConfig)
    DL_Timer_setCounterControl               0x000012cd   Thumb Code    52  ti_msp_dl_config.o(.text.DL_Timer_setCounterControl)
    [Anonymous Symbol]                       0x000012cc   Section        0  ti_msp_dl_config.o(.text.DL_Timer_setCounterControl)
    __arm_cp.36_0                            0x00001300   Number         4  ti_msp_dl_config.o(.text.DL_Timer_setCounterControl)
    __arm_cp.36_1                            0x00001304   Number         4  ti_msp_dl_config.o(.text.DL_Timer_setCounterControl)
    DL_UART_enable                           0x00001309   Thumb Code    22  ti_msp_dl_config.o(.text.DL_UART_enable)
    [Anonymous Symbol]                       0x00001308   Section        0  ti_msp_dl_config.o(.text.DL_UART_enable)
    DL_UART_enableInterrupt                  0x00001321   Thumb Code    24  ti_msp_dl_config.o(.text.DL_UART_enableInterrupt)
    [Anonymous Symbol]                       0x00001320   Section        0  ti_msp_dl_config.o(.text.DL_UART_enableInterrupt)
    __arm_cp.42_0                            0x00001338   Number         4  ti_msp_dl_config.o(.text.DL_UART_enableInterrupt)
    DL_UART_enablePower                      0x0000133d   Thumb Code    20  ti_msp_dl_config.o(.text.DL_UART_enablePower)
    [Anonymous Symbol]                       0x0000133c   Section        0  ti_msp_dl_config.o(.text.DL_UART_enablePower)
    __arm_cp.16_0                            0x00001350   Number         4  ti_msp_dl_config.o(.text.DL_UART_enablePower)
    DL_UART_getPendingInterrupt              0x00001355   Thumb Code    18  mid_debug_uart.o(.text.DL_UART_getPendingInterrupt)
    [Anonymous Symbol]                       0x00001354   Section        0  mid_debug_uart.o(.text.DL_UART_getPendingInterrupt)
    [Anonymous Symbol]                       0x00001368   Section        0  dl_uart.o(.text.DL_UART_init)
    __arm_cp.0_0                             0x000013a8   Number         4  dl_uart.o(.text.DL_UART_init)
    __arm_cp.0_1                             0x000013ac   Number         4  dl_uart.o(.text.DL_UART_init)
    DL_UART_receiveData                      0x000013b1   Thumb Code    16  mid_debug_uart.o(.text.DL_UART_receiveData)
    [Anonymous Symbol]                       0x000013b0   Section        0  mid_debug_uart.o(.text.DL_UART_receiveData)
    __arm_cp.11_0                            0x000013c0   Number         4  mid_debug_uart.o(.text.DL_UART_receiveData)
    DL_UART_reset                            0x000013c5   Thumb Code    16  ti_msp_dl_config.o(.text.DL_UART_reset)
    [Anonymous Symbol]                       0x000013c4   Section        0  ti_msp_dl_config.o(.text.DL_UART_reset)
    __arm_cp.12_0                            0x000013d4   Number         4  ti_msp_dl_config.o(.text.DL_UART_reset)
    __arm_cp.12_1                            0x000013d8   Number         4  ti_msp_dl_config.o(.text.DL_UART_reset)
    DL_UART_setBaudRateDivisor               0x000013dd   Thumb Code    60  ti_msp_dl_config.o(.text.DL_UART_setBaudRateDivisor)
    [Anonymous Symbol]                       0x000013dc   Section        0  ti_msp_dl_config.o(.text.DL_UART_setBaudRateDivisor)
    __arm_cp.41_0                            0x00001418   Number         4  ti_msp_dl_config.o(.text.DL_UART_setBaudRateDivisor)
    __arm_cp.41_1                            0x0000141c   Number         4  ti_msp_dl_config.o(.text.DL_UART_setBaudRateDivisor)
    __arm_cp.41_2                            0x00001420   Number         4  ti_msp_dl_config.o(.text.DL_UART_setBaudRateDivisor)
    __arm_cp.41_3                            0x00001424   Number         4  ti_msp_dl_config.o(.text.DL_UART_setBaudRateDivisor)
    [Anonymous Symbol]                       0x00001428   Section        0  dl_uart.o(.text.DL_UART_setClockConfig)
    DL_UART_setOversampling                  0x0000143b   Thumb Code    30  ti_msp_dl_config.o(.text.DL_UART_setOversampling)
    [Anonymous Symbol]                       0x0000143a   Section        0  ti_msp_dl_config.o(.text.DL_UART_setOversampling)
    [Anonymous Symbol]                       0x00001458   Section        0  hw_lcd.o(.text.Drawarc)
    [Anonymous Symbol]                       0x000015ac   Section        0  hw_encoder.o(.text.GROUP1_IRQHandler)
    __arm_cp.6_0                             0x00001648   Number         4  hw_encoder.o(.text.GROUP1_IRQHandler)
    __arm_cp.6_1                             0x0000164c   Number         4  hw_encoder.o(.text.GROUP1_IRQHandler)
    [Anonymous Symbol]                       0x00001650   Section        0  hw_lcd.o(.text.LCD_Address_Set)
    [Anonymous Symbol]                       0x0000168e   Section        0  hw_lcd.o(.text.LCD_ArcRect)
    [Anonymous Symbol]                       0x000017d8   Section        0  hw_lcd.o(.text.LCD_DrawLine)
    [Anonymous Symbol]                       0x000018e4   Section        0  hw_lcd.o(.text.LCD_DrawPoint)
    [Anonymous Symbol]                       0x00001904   Section        0  hw_lcd.o(.text.LCD_DrawRectangle)
    [Anonymous Symbol]                       0x00001956   Section        0  hw_lcd.o(.text.LCD_DrawVerrticalLine)
    [Anonymous Symbol]                       0x00001998   Section        0  hw_lcd.o(.text.LCD_Fill)
    [Anonymous Symbol]                       0x000019f4   Section        0  hw_lcd.o(.text.LCD_ShowChar)
    __arm_cp.24_0                            0x00001bc0   Number         4  hw_lcd.o(.text.LCD_ShowChar)
    __arm_cp.24_1                            0x00001bc4   Number         4  hw_lcd.o(.text.LCD_ShowChar)
    __arm_cp.24_2                            0x00001bc8   Number         4  hw_lcd.o(.text.LCD_ShowChar)
    __arm_cp.24_3                            0x00001bcc   Number         4  hw_lcd.o(.text.LCD_ShowChar)
    [Anonymous Symbol]                       0x00001bd0   Section        0  hw_lcd.o(.text.LCD_ShowChinese)
    [Anonymous Symbol]                       0x00001cf8   Section        0  hw_lcd.o(.text.LCD_ShowChinese12x12)
    __arm_cp.20_0                            0x00001e90   Number         4  hw_lcd.o(.text.LCD_ShowChinese12x12)
    [Anonymous Symbol]                       0x00001e94   Section        0  hw_lcd.o(.text.LCD_ShowChinese16x16)
    __arm_cp.21_0                            0x0000202c   Number         4  hw_lcd.o(.text.LCD_ShowChinese16x16)
    [Anonymous Symbol]                       0x00002030   Section        0  hw_lcd.o(.text.LCD_ShowChinese24x24)
    __arm_cp.22_0                            0x000021c8   Number         4  hw_lcd.o(.text.LCD_ShowChinese24x24)
    [Anonymous Symbol]                       0x000021cc   Section        0  hw_lcd.o(.text.LCD_ShowChinese32x32)
    __arm_cp.23_0                            0x00002364   Number         4  hw_lcd.o(.text.LCD_ShowChinese32x32)
    [Anonymous Symbol]                       0x00002368   Section        0  hw_lcd.o(.text.LCD_ShowString)
    [Anonymous Symbol]                       0x000023ca   Section        0  hw_lcd.o(.text.LCD_WR_DATA)
    [Anonymous Symbol]                       0x000023e6   Section        0  hw_lcd.o(.text.LCD_WR_DATA8)
    [Anonymous Symbol]                       0x000023fc   Section        0  hw_lcd.o(.text.LCD_WR_REG)
    [Anonymous Symbol]                       0x00002428   Section        0  hw_lcd.o(.text.LCD_Writ_Bus)
    [Anonymous Symbol]                       0x00002454   Section        0  ti_msp_dl_config.o(.text.SYSCFG_DL_GPIO_init)
    __arm_cp.2_2                             0x00002568   Number         4  ti_msp_dl_config.o(.text.SYSCFG_DL_GPIO_init)
    [Anonymous Symbol]                       0x0000256c   Section        0  ti_msp_dl_config.o(.text.SYSCFG_DL_PWM_MOTOR_init)
    __arm_cp.4_0                             0x000025ec   Number         4  ti_msp_dl_config.o(.text.SYSCFG_DL_PWM_MOTOR_init)
    __arm_cp.4_2                             0x000025f0   Number         4  ti_msp_dl_config.o(.text.SYSCFG_DL_PWM_MOTOR_init)
    __arm_cp.4_3                             0x000025f4   Number         4  ti_msp_dl_config.o(.text.SYSCFG_DL_PWM_MOTOR_init)
    [Anonymous Symbol]                       0x000025f8   Section        0  ti_msp_dl_config.o(.text.SYSCFG_DL_SPI_LCD_init)
    __arm_cp.7_0                             0x0000262c   Number         4  ti_msp_dl_config.o(.text.SYSCFG_DL_SPI_LCD_init)
    __arm_cp.7_2                             0x00002630   Number         4  ti_msp_dl_config.o(.text.SYSCFG_DL_SPI_LCD_init)
    [Anonymous Symbol]                       0x00002634   Section        0  ti_msp_dl_config.o(.text.SYSCFG_DL_SYSCTL_init)
    __arm_cp.3_0                             0x00002684   Number         4  ti_msp_dl_config.o(.text.SYSCFG_DL_SYSCTL_init)
    [Anonymous Symbol]                       0x00002688   Section        0  ti_msp_dl_config.o(.text.SYSCFG_DL_TIMER_TICK_init)
    __arm_cp.5_0                             0x000026b8   Number         4  ti_msp_dl_config.o(.text.SYSCFG_DL_TIMER_TICK_init)
    __arm_cp.5_2                             0x000026bc   Number         4  ti_msp_dl_config.o(.text.SYSCFG_DL_TIMER_TICK_init)
    [Anonymous Symbol]                       0x000026c0   Section        0  ti_msp_dl_config.o(.text.SYSCFG_DL_UART_DEBUG_init)
    __arm_cp.6_0                             0x00002708   Number         4  ti_msp_dl_config.o(.text.SYSCFG_DL_UART_DEBUG_init)
    __arm_cp.6_2                             0x0000270c   Number         4  ti_msp_dl_config.o(.text.SYSCFG_DL_UART_DEBUG_init)
    [Anonymous Symbol]                       0x00002710   Section        0  ti_msp_dl_config.o(.text.SYSCFG_DL_init)
    __arm_cp.0_0                             0x00002744   Number         4  ti_msp_dl_config.o(.text.SYSCFG_DL_init)
    __arm_cp.0_1                             0x00002748   Number         4  ti_msp_dl_config.o(.text.SYSCFG_DL_init)
    __arm_cp.0_2                             0x0000274c   Number         4  ti_msp_dl_config.o(.text.SYSCFG_DL_init)
    [Anonymous Symbol]                       0x00002750   Section        0  ti_msp_dl_config.o(.text.SYSCFG_DL_initPower)
    __arm_cp.1_0                             0x000027b4   Number         4  ti_msp_dl_config.o(.text.SYSCFG_DL_initPower)
    __arm_cp.1_1                             0x000027b8   Number         4  ti_msp_dl_config.o(.text.SYSCFG_DL_initPower)
    __arm_cp.1_2                             0x000027bc   Number         4  ti_msp_dl_config.o(.text.SYSCFG_DL_initPower)
    __arm_cp.1_5                             0x000027c0   Number         4  ti_msp_dl_config.o(.text.SYSCFG_DL_initPower)
    [Anonymous Symbol]                       0x000027c4   Section        0  mid_timer.o(.text.TIMA0_IRQHandler)
    __arm_cp.6_0                             0x000027ec   Number         4  mid_timer.o(.text.TIMA0_IRQHandler)
    [Anonymous Symbol]                       0x000027f0   Section        0  mid_debug_uart.o(.text.UART0_IRQHandler)
    __arm_cp.9_0                             0x00002818   Number         4  mid_debug_uart.o(.text.UART0_IRQHandler)
    __arm_cp.9_1                             0x0000281c   Number         4  mid_debug_uart.o(.text.UART0_IRQHandler)
    __NVIC_ClearPendingIRQ                   0x00002821   Thumb Code    40  hw_encoder.o(.text.__NVIC_ClearPendingIRQ)
    [Anonymous Symbol]                       0x00002820   Section        0  hw_encoder.o(.text.__NVIC_ClearPendingIRQ)
    __NVIC_ClearPendingIRQ                   0x00002849   Thumb Code    40  mid_debug_uart.o(.text.__NVIC_ClearPendingIRQ)
    [Anonymous Symbol]                       0x00002848   Section        0  mid_debug_uart.o(.text.__NVIC_ClearPendingIRQ)
    __NVIC_ClearPendingIRQ                   0x00002871   Thumb Code    40  mid_timer.o(.text.__NVIC_ClearPendingIRQ)
    [Anonymous Symbol]                       0x00002870   Section        0  mid_timer.o(.text.__NVIC_ClearPendingIRQ)
    __arm_cp.4_0                             0x00002898   Number         4  mid_timer.o(.text.__NVIC_ClearPendingIRQ)
    __NVIC_EnableIRQ                         0x0000289d   Thumb Code    40  hw_encoder.o(.text.__NVIC_EnableIRQ)
    [Anonymous Symbol]                       0x0000289c   Section        0  hw_encoder.o(.text.__NVIC_EnableIRQ)
    __NVIC_EnableIRQ                         0x000028c5   Thumb Code    40  mid_debug_uart.o(.text.__NVIC_EnableIRQ)
    [Anonymous Symbol]                       0x000028c4   Section        0  mid_debug_uart.o(.text.__NVIC_EnableIRQ)
    __NVIC_EnableIRQ                         0x000028ed   Thumb Code    40  mid_timer.o(.text.__NVIC_EnableIRQ)
    [Anonymous Symbol]                       0x000028ec   Section        0  mid_timer.o(.text.__NVIC_EnableIRQ)
    __arm_cp.5_0                             0x00002914   Number         4  mid_timer.o(.text.__NVIC_EnableIRQ)
    __NVIC_SetPriority                       0x00002919   Thumb Code   124  ti_msp_dl_config.o(.text.__NVIC_SetPriority)
    [Anonymous Symbol]                       0x00002918   Section        0  ti_msp_dl_config.o(.text.__NVIC_SetPriority)
    __arm_cp.35_0                            0x00002994   Number         4  ti_msp_dl_config.o(.text.__NVIC_SetPriority)
    __arm_cp.35_1                            0x00002998   Number         4  ti_msp_dl_config.o(.text.__NVIC_SetPriority)
    [Anonymous Symbol]                       0x0000299c   Section        0  app_key_task.o(.text.btn_down_cb)
    [Anonymous Symbol]                       0x00002a78   Section        0  app_key_task.o(.text.btn_left_cb)
    [Anonymous Symbol]                       0x00002afc   Section        0  app_key_task.o(.text.btn_right_cb)
    [Anonymous Symbol]                       0x00002c1c   Section        0  app_key_task.o(.text.btn_up_cb)
    __arm_cp.0_0                             0x00002cf4   Number         4  app_key_task.o(.text.btn_up_cb)
    __arm_cp.0_1                             0x00002cf8   Number         4  app_key_task.o(.text.btn_up_cb)
    __arm_cp.0_2                             0x00002cfc   Number         4  app_key_task.o(.text.btn_up_cb)
    __arm_cp.0_3                             0x00002d00   Number         4  app_key_task.o(.text.btn_up_cb)
    button_down_read                         0x00002d05   Thumb Code    22  mid_button.o(.text.button_down_read)
    [Anonymous Symbol]                       0x00002d04   Section        0  mid_button.o(.text.button_down_read)
    button_left_read                         0x00002d1b   Thumb Code    22  mid_button.o(.text.button_left_read)
    [Anonymous Symbol]                       0x00002d1a   Section        0  mid_button.o(.text.button_left_read)
    button_right_read                        0x00002d31   Thumb Code    22  mid_button.o(.text.button_right_read)
    [Anonymous Symbol]                       0x00002d30   Section        0  mid_button.o(.text.button_right_read)
    button_up_read                           0x00002d47   Thumb Code    22  mid_button.o(.text.button_up_read)
    [Anonymous Symbol]                       0x00002d46   Section        0  mid_button.o(.text.button_up_read)
    [Anonymous Symbol]                       0x00002d5c   Section        0  mid_debug_uart.o(.text.debug_uart_init)
    debug_uart_receive_limit_length          0x00002d75   Thumb Code    40  mid_debug_uart.o(.text.debug_uart_receive_limit_length)
    [Anonymous Symbol]                       0x00002d74   Section        0  mid_debug_uart.o(.text.debug_uart_receive_limit_length)
    __arm_cp.12_0                            0x00002d9c   Number         4  mid_debug_uart.o(.text.debug_uart_receive_limit_length)
    [Anonymous Symbol]                       0x00002da0   Section        0  mid_timer.o(.text.disable_task_interrupt)
    [Anonymous Symbol]                       0x00002da8   Section        0  app_ui.o(.text.disp_select_box)
    [Anonymous Symbol]                       0x00002e94   Section        0  app_ui.o(.text.disp_string_rect)
    [Anonymous Symbol]                       0x00002f18   Section        0  app_ui.o(.text.disp_x_center)
    [Anonymous Symbol]                       0x00002f78   Section        0  app_ui.o(.text.draw_speed_curve)
    __arm_cp.14_0                            0x000030a0   Number         4  app_ui.o(.text.draw_speed_curve)
    __arm_cp.14_1                            0x000030a4   Number         4  app_ui.o(.text.draw_speed_curve)
    __arm_cp.14_2                            0x000030a8   Number         4  app_ui.o(.text.draw_speed_curve)
    __arm_cp.14_3                            0x000030ac   Number         4  app_ui.o(.text.draw_speed_curve)
    [Anonymous Symbol]                       0x000030b0   Section        0  mid_timer.o(.text.enable_task_interrupt)
    __arm_cp.0_0                             0x000030b8   Number         4  mid_timer.o(.text.enable_task_interrupt)
    [Anonymous Symbol]                       0x000030bc   Section        0  hw_encoder.o(.text.encoder_init)
    [Anonymous Symbol]                       0x000030d4   Section        0  hw_encoder.o(.text.encoder_update)
    __arm_cp.5_0                             0x000030ec   Number         4  hw_encoder.o(.text.encoder_update)
    [Anonymous Symbol]                       0x000030f0   Section        0  app_sys_mode.o(.text.event_manager)
    flex_button_process                      0x00003241   Thumb Code  1016  mid_button.o(.text.flex_button_process)
    [Anonymous Symbol]                       0x00003240   Section        0  mid_button.o(.text.flex_button_process)
    __arm_cp.9_0                             0x00003638   Number         4  mid_button.o(.text.flex_button_process)
    __arm_cp.9_1                             0x0000363c   Number         4  mid_button.o(.text.flex_button_process)
    __arm_cp.9_2                             0x00003640   Number         4  mid_button.o(.text.flex_button_process)
    flex_button_read                         0x00003645   Thumb Code   188  mid_button.o(.text.flex_button_read)
    [Anonymous Symbol]                       0x00003644   Section        0  mid_button.o(.text.flex_button_read)
    __arm_cp.8_1                             0x00003700   Number         4  mid_button.o(.text.flex_button_read)
    __arm_cp.8_3                             0x00003704   Number         4  mid_button.o(.text.flex_button_read)
    __arm_cp.8_4                             0x00003708   Number         4  mid_button.o(.text.flex_button_read)
    [Anonymous Symbol]                       0x0000370c   Section        0  mid_button.o(.text.flex_button_register)
    __arm_cp.5_0                             0x000037a4   Number         4  mid_button.o(.text.flex_button_register)
    __arm_cp.5_1                             0x000037a8   Number         4  mid_button.o(.text.flex_button_register)
    __arm_cp.5_2                             0x000037ac   Number         4  mid_button.o(.text.flex_button_register)
    [Anonymous Symbol]                       0x000037b0   Section        0  mid_button.o(.text.flex_button_scan)
    [Anonymous Symbol]                       0x000037bc   Section        0  app_sys_mode.o(.text.get_default_page_flag)
    [Anonymous Symbol]                       0x000037c4   Section        0  hw_encoder.o(.text.get_encoder_count)
    __arm_cp.3_0                             0x000037cc   Number         4  hw_encoder.o(.text.get_encoder_count)
    [Anonymous Symbol]                       0x000037d0   Section        0  app_sys_mode.o(.text.get_functional_mode)
    [Anonymous Symbol]                       0x000037d8   Section        0  app_sys_mode.o(.text.get_long_press_state)
    [Anonymous Symbol]                       0x000037e0   Section        0  app_sys_mode.o(.text.get_motor_status_flag)
    [Anonymous Symbol]                       0x000037e8   Section        0  app_sys_mode.o(.text.get_set_page_flag)
    [Anonymous Symbol]                       0x000037f0   Section        0  app_sys_mode.o(.text.get_show_state)
    __arm_cp.2_0                             0x000037f8   Number         4  app_sys_mode.o(.text.get_show_state)
    [Anonymous Symbol]                       0x000037fc   Section        0  app_speed_pid.o(.text.get_speed_pid)
    [Anonymous Symbol]                       0x00003800   Section        0  app_speed_pid.o(.text.get_speed_pid_target)
    [Anonymous Symbol]                       0x00003808   Section        0  mid_timer.o(.text.get_task_status)
    __arm_cp.2_0                             0x00003810   Number         4  mid_timer.o(.text.get_task_status)
    [Anonymous Symbol]                       0x00003814   Section        0  hw_key.o(.text.key_scan)
    __arm_cp.0_0                             0x0000389c   Number         4  hw_key.o(.text.key_scan)
    [Anonymous Symbol]                       0x000038a0   Section        0  hw_lcd.o(.text.lcd_init)
    __arm_cp.10_0                            0x00003a60   Number         4  hw_lcd.o(.text.lcd_init)
    __arm_cp.10_1                            0x00003a64   Number         4  hw_lcd.o(.text.lcd_init)
    __arm_cp.10_2                            0x00003a68   Number         4  hw_lcd.o(.text.lcd_init)
    __arm_cp.10_3                            0x00003a6c   Number         4  hw_lcd.o(.text.lcd_init)
    [Anonymous Symbol]                       0x00003a70   Section        0  empty.o(.text.main)
    [Anonymous Symbol]                       0x00003b60   Section        0  app_speed_pid.o(.text.motor_speed_control)
    __arm_cp.3_0                             0x00003bd4   Number         4  app_speed_pid.o(.text.motor_speed_control)
    __arm_cp.3_1                             0x00003bd8   Number         4  app_speed_pid.o(.text.motor_speed_control)
    [Anonymous Symbol]                       0x00003bdc   Section        0  mid_pid.o(.text.pid_calc)
    [Anonymous Symbol]                       0x00003cdc   Section        0  mid_pid.o(.text.pid_change_zero)
    [Anonymous Symbol]                       0x00003cf2   Section        0  mid_pid.o(.text.pid_init)
    restrict_pwm_max_value                   0x00003d2d   Thumb Code    28  hw_motor.o(.text.restrict_pwm_max_value)
    [Anonymous Symbol]                       0x00003d2c   Section        0  hw_motor.o(.text.restrict_pwm_max_value)
    __arm_cp.1_0                             0x00003d48   Number         4  hw_motor.o(.text.restrict_pwm_max_value)
    __arm_cp.1_1                             0x00003d4c   Number         4  hw_motor.o(.text.restrict_pwm_max_value)
    set_bi                                   0x00003d51   Thumb Code    24  hw_motor.o(.text.set_bi)
    [Anonymous Symbol]                       0x00003d50   Section        0  hw_motor.o(.text.set_bi)
    set_fi                                   0x00003d69   Thumb Code    24  hw_motor.o(.text.set_fi)
    [Anonymous Symbol]                       0x00003d68   Section        0  hw_motor.o(.text.set_fi)
    __arm_cp.2_0                             0x00003d80   Number         4  hw_motor.o(.text.set_fi)
    [Anonymous Symbol]                       0x00003d84   Section        0  hw_motor.o(.text.set_motor)
    [Anonymous Symbol]                       0x00003db4   Section        0  app_sys_mode.o(.text.set_motor_status_flag)
    [Anonymous Symbol]                       0x00003dc4   Section        0  app_speed_pid.o(.text.set_speed_pid_parameter)
    __arm_cp.4_0                             0x00003fa4   Number         4  app_speed_pid.o(.text.set_speed_pid_parameter)
    __arm_cp.4_1                             0x00003fa8   Number         4  app_speed_pid.o(.text.set_speed_pid_parameter)
    __arm_cp.4_2                             0x00003fac   Number         4  app_speed_pid.o(.text.set_speed_pid_parameter)
    [Anonymous Symbol]                       0x00003fb0   Section        0  app_speed_pid.o(.text.speed_pid_init)
    __arm_cp.0_0                             0x00003fd0   Number         4  app_speed_pid.o(.text.speed_pid_init)
    __arm_cp.0_1                             0x00003fd4   Number         4  app_speed_pid.o(.text.speed_pid_init)
    __arm_cp.0_2                             0x00003fd8   Number         4  app_speed_pid.o(.text.speed_pid_init)
    __arm_cp.0_3                             0x00003fdc   Number         4  app_speed_pid.o(.text.speed_pid_init)
    __arm_cp.0_4                             0x00003fe0   Number         4  app_speed_pid.o(.text.speed_pid_init)
    [Anonymous Symbol]                       0x00003fe4   Section        0  hw_lcd.o(.text.spi_write_bus)
    __arm_cp.0_0                             0x0000400c   Number         4  hw_lcd.o(.text.spi_write_bus)
    [Anonymous Symbol]                       0x00004010   Section        0  hw_motor.o(.text.stop_motor)
    [Anonymous Symbol]                       0x0000401c   Section        0  app_sys_mode.o(.text.sys_event_init)
    __arm_cp.0_0                             0x00004028   Number         4  app_sys_mode.o(.text.sys_event_init)
    [Anonymous Symbol]                       0x0000402c   Section        0  mid_timer.o(.text.timer_init)
    [Anonymous Symbol]                       0x00004044   Section        0  app_ui.o(.text.ui_distance_page)
    __arm_cp.11_0                            0x00004190   Number         4  app_ui.o(.text.ui_distance_page)
    __arm_cp.11_2                            0x00004194   Number         4  app_ui.o(.text.ui_distance_page)
    __arm_cp.11_3                            0x00004198   Number         4  app_ui.o(.text.ui_distance_page)
    [Anonymous Symbol]                       0x0000419c   Section        0  app_ui.o(.text.ui_distance_page_value_set)
    __arm_cp.12_0                            0x000043e0   Number         4  app_ui.o(.text.ui_distance_page_value_set)
    __arm_cp.12_1                            0x000043e4   Number         4  app_ui.o(.text.ui_distance_page_value_set)
    __arm_cp.12_2                            0x000043e8   Number         4  app_ui.o(.text.ui_distance_page_value_set)
    __arm_cp.12_3                            0x000043ec   Number         4  app_ui.o(.text.ui_distance_page_value_set)
    __arm_cp.12_4                            0x000043f0   Number         4  app_ui.o(.text.ui_distance_page_value_set)
    __arm_cp.12_5                            0x000043f4   Number         4  app_ui.o(.text.ui_distance_page_value_set)
    __arm_cp.12_6                            0x000043f8   Number         4  app_ui.o(.text.ui_distance_page_value_set)
    __arm_cp.12_7                            0x000043fc   Number         4  app_ui.o(.text.ui_distance_page_value_set)
    __arm_cp.12_8                            0x00004400   Number         4  app_ui.o(.text.ui_distance_page_value_set)
    [Anonymous Symbol]                       0x00004404   Section        0  app_ui.o(.text.ui_home_page)
    __arm_cp.3_0                             0x000044f0   Number         4  app_ui.o(.text.ui_home_page)
    __arm_cp.3_1                             0x000044f4   Number         4  app_ui.o(.text.ui_home_page)
    __arm_cp.3_2                             0x000044f8   Number         4  app_ui.o(.text.ui_home_page)
    __arm_cp.3_3                             0x000044fc   Number         4  app_ui.o(.text.ui_home_page)
    __arm_cp.3_4                             0x00004500   Number         4  app_ui.o(.text.ui_home_page)
    [Anonymous Symbol]                       0x00004504   Section        0  app_ui.o(.text.ui_home_page_select)
    __arm_cp.6_0                             0x000045a4   Number         4  app_ui.o(.text.ui_home_page_select)
    [Anonymous Symbol]                       0x000045a8   Section        0  app_ui.o(.text.ui_parameter_select_box_bold)
    __arm_cp.10_0                            0x000046d4   Number         4  app_ui.o(.text.ui_parameter_select_box_bold)
    [Anonymous Symbol]                       0x000046d8   Section        0  app_ui.o(.text.ui_select_page_show)
    [Anonymous Symbol]                       0x00004714   Section        0  app_ui.o(.text.ui_speed_curve)
    __arm_cp.16_0                            0x000047c8   Number         4  app_ui.o(.text.ui_speed_curve)
    __arm_cp.16_1                            0x000047cc   Number         4  app_ui.o(.text.ui_speed_curve)
    __arm_cp.16_2                            0x000047d0   Number         4  app_ui.o(.text.ui_speed_curve)
    [Anonymous Symbol]                       0x000047d4   Section        0  empty.o(.text.ui_speed_or_distance_page_value_set_quick)
    __arm_cp.0_0                             0x0000483c   Number         4  empty.o(.text.ui_speed_or_distance_page_value_set_quick)
    [Anonymous Symbol]                       0x00004840   Section        0  app_ui.o(.text.ui_speed_page)
    __arm_cp.7_0                             0x0000498c   Number         4  app_ui.o(.text.ui_speed_page)
    __arm_cp.7_1                             0x00004990   Number         4  app_ui.o(.text.ui_speed_page)
    __arm_cp.7_2                             0x00004994   Number         4  app_ui.o(.text.ui_speed_page)
    __arm_cp.7_3                             0x00004998   Number         4  app_ui.o(.text.ui_speed_page)
    [Anonymous Symbol]                       0x0000499c   Section        0  app_ui.o(.text.ui_speed_page_select_box)
    __arm_cp.9_0                             0x00004b94   Number         4  app_ui.o(.text.ui_speed_page_select_box)
    [Anonymous Symbol]                       0x00004b98   Section        0  app_ui.o(.text.ui_speed_page_value_set)
    __arm_cp.8_0                             0x00004ddc   Number         4  app_ui.o(.text.ui_speed_page_value_set)
    __arm_cp.8_1                             0x00004de0   Number         4  app_ui.o(.text.ui_speed_page_value_set)
    __arm_cp.8_2                             0x00004de4   Number         4  app_ui.o(.text.ui_speed_page_value_set)
    __arm_cp.8_3                             0x00004de8   Number         4  app_ui.o(.text.ui_speed_page_value_set)
    __arm_cp.8_4                             0x00004dec   Number         4  app_ui.o(.text.ui_speed_page_value_set)
    __arm_cp.8_5                             0x00004df0   Number         4  app_ui.o(.text.ui_speed_page_value_set)
    __arm_cp.8_6                             0x00004df4   Number         4  app_ui.o(.text.ui_speed_page_value_set)
    __arm_cp.8_7                             0x00004df8   Number         4  app_ui.o(.text.ui_speed_page_value_set)
    __arm_cp.8_8                             0x00004dfc   Number         4  app_ui.o(.text.ui_speed_page_value_set)
    [Anonymous Symbol]                       0x00004e00   Section        0  mid_button.o(.text.user_button_init)
    __arm_cp.0_0                             0x00004e98   Number         4  mid_button.o(.text.user_button_init)
    __arm_cp.0_1                             0x00004e9c   Number         4  mid_button.o(.text.user_button_init)
    __arm_cp.0_2                             0x00004ea0   Number         4  mid_button.o(.text.user_button_init)
    __arm_cp.0_3                             0x00004ea4   Number         4  mid_button.o(.text.user_button_init)
    __arm_cp.0_4                             0x00004ea8   Number         4  mid_button.o(.text.user_button_init)
    __arm_cp.0_5                             0x00004eac   Number         4  mid_button.o(.text.user_button_init)
    __arm_cp.0_6                             0x00004eb0   Number         4  mid_button.o(.text.user_button_init)
    __arm_cp.0_7                             0x00004eb4   Number         4  mid_button.o(.text.user_button_init)
    __arm_cp.0_8                             0x00004eb8   Number         4  mid_button.o(.text.user_button_init)
    i.__0sprintf                             0x00004ebc   Section        0  printfa.o(i.__0sprintf)
    i.__ARM_clz                              0x00004ee4   Section        0  depilogue.o(i.__ARM_clz)
    i.__scatterload_copy                     0x00004f18   Section       14  handlers.o(i.__scatterload_copy)
    i.__scatterload_null                     0x00004f28   Section        2  handlers.o(i.__scatterload_null)
    i.__scatterload_zeroinit                 0x00004f30   Section       14  handlers.o(i.__scatterload_zeroinit)
    i.__set_errno                            0x00004f40   Section        0  errno.o(i.__set_errno)
    _fp_digits                               0x00004f4d   Thumb Code   344  printfa.o(i._fp_digits)
    i._fp_digits                             0x00004f4c   Section        0  printfa.o(i._fp_digits)
    _printf_core                             0x000050c1   Thumb Code  1754  printfa.o(i._printf_core)
    i._printf_core                           0x000050c0   Section        0  printfa.o(i._printf_core)
    _printf_post_padding                     0x000057ad   Thumb Code    32  printfa.o(i._printf_post_padding)
    i._printf_post_padding                   0x000057ac   Section        0  printfa.o(i._printf_post_padding)
    _printf_pre_padding                      0x000057cd   Thumb Code    44  printfa.o(i._printf_pre_padding)
    i._printf_pre_padding                    0x000057cc   Section        0  printfa.o(i._printf_pre_padding)
    _sputc                                   0x000057f9   Thumb Code    10  printfa.o(i._sputc)
    i._sputc                                 0x000057f8   Section        0  printfa.o(i._sputc)
    i.sqrt                                   0x00005804   Section        0  sqrt.o(i.sqrt)
    gPWM_MOTORClockConfig                    0x00008c40   Data           3  ti_msp_dl_config.o(.rodata.gPWM_MOTORClockConfig)
    [Anonymous Symbol]                       0x00008c40   Section        0  ti_msp_dl_config.o(.rodata.gPWM_MOTORClockConfig)
    gPWM_MOTORConfig                         0x00008c44   Data           8  ti_msp_dl_config.o(.rodata.gPWM_MOTORConfig)
    [Anonymous Symbol]                       0x00008c44   Section        0  ti_msp_dl_config.o(.rodata.gPWM_MOTORConfig)
    gSPI_LCD_clockConfig                     0x00008c4c   Data           2  ti_msp_dl_config.o(.rodata.gSPI_LCD_clockConfig)
    [Anonymous Symbol]                       0x00008c4c   Section        0  ti_msp_dl_config.o(.rodata.gSPI_LCD_clockConfig)
    gSPI_LCD_config                          0x00008c4e   Data          10  ti_msp_dl_config.o(.rodata.gSPI_LCD_config)
    [Anonymous Symbol]                       0x00008c4e   Section        0  ti_msp_dl_config.o(.rodata.gSPI_LCD_config)
    gSYSPLLConfig                            0x00008c58   Data          40  ti_msp_dl_config.o(.rodata.gSYSPLLConfig)
    [Anonymous Symbol]                       0x00008c58   Section        0  ti_msp_dl_config.o(.rodata.gSYSPLLConfig)
    gTIMER_TICKClockConfig                   0x00008c80   Data           3  ti_msp_dl_config.o(.rodata.gTIMER_TICKClockConfig)
    [Anonymous Symbol]                       0x00008c80   Section        0  ti_msp_dl_config.o(.rodata.gTIMER_TICKClockConfig)
    gTIMER_TICKTimerConfig                   0x00008c84   Data          20  ti_msp_dl_config.o(.rodata.gTIMER_TICKTimerConfig)
    [Anonymous Symbol]                       0x00008c84   Section        0  ti_msp_dl_config.o(.rodata.gTIMER_TICKTimerConfig)
    gUART_DEBUGClockConfig                   0x00008c98   Data           2  ti_msp_dl_config.o(.rodata.gUART_DEBUGClockConfig)
    [Anonymous Symbol]                       0x00008c98   Section        0  ti_msp_dl_config.o(.rodata.gUART_DEBUGClockConfig)
    gUART_DEBUGConfig                        0x00008c9a   Data          10  ti_msp_dl_config.o(.rodata.gUART_DEBUGConfig)
    [Anonymous Symbol]                       0x00008c9a   Section        0  ti_msp_dl_config.o(.rodata.gUART_DEBUGConfig)
    [Anonymous Symbol]                       0x00008ca4   Section        0  app_ui.o(.rodata.str1.1)
    _errno                                   0x20200000   Data           4  errno.o(.data)
    .data                                    0x20200000   Section        4  errno.o(.data)
    draw_speed_curve.firstPoint              0x20200004   Data           1  app_ui.o(.data.draw_speed_curve.firstPoint)
    [Anonymous Symbol]                       0x20200004   Section        0  app_ui.o(.data.draw_speed_curve.firstPoint)
    key_rst_data                             0x20200006   Data           2  mid_button.o(.data.key_rst_data)
    [Anonymous Symbol]                       0x20200006   Section        0  mid_button.o(.data.key_rst_data)
    keydata                                  0x20200008   Data           2  mid_button.o(.data.keydata)
    [Anonymous Symbol]                       0x20200008   Section        0  mid_button.o(.data.keydata)
    tack_enable_flag                         0x2020000a   Data           1  mid_timer.o(.data.tack_enable_flag)
    [Anonymous Symbol]                       0x2020000a   Section        0  mid_timer.o(.data.tack_enable_flag)
    btn_head                                 0x20200010   Data           4  mid_button.o(.bss.btn_head)
    [Anonymous Symbol]                       0x20200010   Section        0  mid_button.o(.bss.btn_head)
    button_cnt                               0x20200014   Data           1  mid_button.o(.bss.button_cnt)
    [Anonymous Symbol]                       0x20200014   Section        0  mid_button.o(.bss.button_cnt)
    cont                                     0x20200016   Data           2  mid_button.o(.bss.cont)
    [Anonymous Symbol]                       0x20200016   Section        0  mid_button.o(.bss.cont)
    draw_speed_curve.lastX                   0x2020009c   Data           2  app_ui.o(.bss.draw_speed_curve.lastX)
    [Anonymous Symbol]                       0x2020009c   Section        0  app_ui.o(.bss.draw_speed_curve.lastX)
    draw_speed_curve.lastY                   0x2020009e   Data           2  app_ui.o(.bss.draw_speed_curve.lastY)
    [Anonymous Symbol]                       0x2020009e   Section        0  app_ui.o(.bss.draw_speed_curve.lastY)
    motor_encoder                            0x20200228   Data          16  hw_encoder.o(.bss.motor_encoder)
    [Anonymous Symbol]                       0x20200228   Section        0  hw_encoder.o(.bss.motor_encoder)
    trg                                      0x20200278   Data           2  mid_button.o(.bss.trg)
    [Anonymous Symbol]                       0x20200278   Section        0  mid_button.o(.bss.trg)
    ui_distance_page_value_set.last_d        0x2020027c   Data           4  app_ui.o(.bss.ui_distance_page_value_set.last_d)
    [Anonymous Symbol]                       0x2020027c   Section        0  app_ui.o(.bss.ui_distance_page_value_set.last_d)
    ui_distance_page_value_set.last_distance 0x20200280   Data           4  app_ui.o(.bss.ui_distance_page_value_set.last_distance)
    [Anonymous Symbol]                       0x20200280   Section        0  app_ui.o(.bss.ui_distance_page_value_set.last_distance)
    ui_distance_page_value_set.last_i        0x20200284   Data           4  app_ui.o(.bss.ui_distance_page_value_set.last_i)
    [Anonymous Symbol]                       0x20200284   Section        0  app_ui.o(.bss.ui_distance_page_value_set.last_i)
    ui_distance_page_value_set.last_p        0x20200288   Data           4  app_ui.o(.bss.ui_distance_page_value_set.last_p)
    [Anonymous Symbol]                       0x20200288   Section        0  app_ui.o(.bss.ui_distance_page_value_set.last_p)
    ui_distance_page_value_set.last_target   0x2020028c   Data           4  app_ui.o(.bss.ui_distance_page_value_set.last_target)
    [Anonymous Symbol]                       0x2020028c   Section        0  app_ui.o(.bss.ui_distance_page_value_set.last_target)
    ui_speed_page_value_set.last_d           0x20200290   Data           4  app_ui.o(.bss.ui_speed_page_value_set.last_d)
    [Anonymous Symbol]                       0x20200290   Section        0  app_ui.o(.bss.ui_speed_page_value_set.last_d)
    ui_speed_page_value_set.last_i           0x20200294   Data           4  app_ui.o(.bss.ui_speed_page_value_set.last_i)
    [Anonymous Symbol]                       0x20200294   Section        0  app_ui.o(.bss.ui_speed_page_value_set.last_i)
    ui_speed_page_value_set.last_p           0x20200298   Data           4  app_ui.o(.bss.ui_speed_page_value_set.last_p)
    [Anonymous Symbol]                       0x20200298   Section        0  app_ui.o(.bss.ui_speed_page_value_set.last_p)
    ui_speed_page_value_set.last_speed       0x2020029c   Data           4  app_ui.o(.bss.ui_speed_page_value_set.last_speed)
    [Anonymous Symbol]                       0x2020029c   Section        0  app_ui.o(.bss.ui_speed_page_value_set.last_speed)
    ui_speed_page_value_set.last_target      0x202002a0   Data           4  app_ui.o(.bss.ui_speed_page_value_set.last_target)
    [Anonymous Symbol]                       0x202002a0   Section        0  app_ui.o(.bss.ui_speed_page_value_set.last_target)
    user_button                              0x202002a4   Data         112  mid_button.o(.bss.user_button)
    [Anonymous Symbol]                       0x202002a4   Section        0  mid_button.o(.bss.user_button)
    STACK                                    0x20200318   Section     1024  startup_mspm0g350x_uvision.o(STACK)

    Global Symbols

    Symbol Name                              Value     Ov Type        Size  Object(Section)

    BuildAttributes$$THM_ISAv3M$S$PE$A:L22$X:L11$S22$IEEE1$IW$~IW$USESV6$~STKCKD$USESV7$~SHL$OTIME$ROPI$IEEEJ$EBA8$MICROLIB$REQ8$PRES8$EABIv2 0x00000000   Number         0  anon$$obj.o ABSOLUTE
    __Vectors                                0x00000000   Data           4  startup_mspm0g350x_uvision.o(RESET)
    __cpp_initialize__aeabi_                  - Undefined Weak Reference
    __cxa_finalize                            - Undefined Weak Reference
    __decompress                              - Undefined Weak Reference
    _clock_init                               - Undefined Weak Reference
    _microlib_exit                            - Undefined Weak Reference
    __Vectors_End                            0x000000c0   Data           0  startup_mspm0g350x_uvision.o(RESET)
    __Vectors_Size                           0x000000c0   Number         0  startup_mspm0g350x_uvision.o ABSOLUTE
    __main                                   0x000000c1   Thumb Code     0  entry.o(.ARM.Collect$$$$00000000)
    _main_stk                                0x000000c1   Thumb Code     0  entry2.o(.ARM.Collect$$$$00000001)
    _main_scatterload                        0x000000c5   Thumb Code     0  entry5.o(.ARM.Collect$$$$00000004)
    __main_after_scatterload                 0x000000c9   Thumb Code     0  entry5.o(.ARM.Collect$$$$00000004)
    _main_clock                              0x000000c9   Thumb Code     0  entry7b.o(.ARM.Collect$$$$00000008)
    _main_cpp_init                           0x000000c9   Thumb Code     0  entry8b.o(.ARM.Collect$$$$0000000A)
    _main_init                               0x000000c9   Thumb Code     0  entry9a.o(.ARM.Collect$$$$0000000B)
    __rt_final_cpp                           0x000000d1   Thumb Code     0  entry10a.o(.ARM.Collect$$$$0000000D)
    __rt_final_exit                          0x000000d1   Thumb Code     0  entry11a.o(.ARM.Collect$$$$0000000F)
    Reset_Handler                            0x000000d5   Thumb Code     4  startup_mspm0g350x_uvision.o(.text)
    NMI_Handler                              0x000000d9   Thumb Code     2  startup_mspm0g350x_uvision.o(.text)
    HardFault_Handler                        0x000000db   Thumb Code     2  startup_mspm0g350x_uvision.o(.text)
    SVC_Handler                              0x000000dd   Thumb Code     2  startup_mspm0g350x_uvision.o(.text)
    PendSV_Handler                           0x000000df   Thumb Code     2  startup_mspm0g350x_uvision.o(.text)
    SysTick_Handler                          0x000000e1   Thumb Code     2  startup_mspm0g350x_uvision.o(.text)
    ADC0_IRQHandler                          0x000000e3   Thumb Code     0  startup_mspm0g350x_uvision.o(.text)
    ADC1_IRQHandler                          0x000000e3   Thumb Code     0  startup_mspm0g350x_uvision.o(.text)
    AES_IRQHandler                           0x000000e3   Thumb Code     0  startup_mspm0g350x_uvision.o(.text)
    CANFD0_IRQHandler                        0x000000e3   Thumb Code     0  startup_mspm0g350x_uvision.o(.text)
    DAC0_IRQHandler                          0x000000e3   Thumb Code     0  startup_mspm0g350x_uvision.o(.text)
    DMA_IRQHandler                           0x000000e3   Thumb Code     0  startup_mspm0g350x_uvision.o(.text)
    Default_Handler                          0x000000e3   Thumb Code     2  startup_mspm0g350x_uvision.o(.text)
    GROUP0_IRQHandler                        0x000000e3   Thumb Code     0  startup_mspm0g350x_uvision.o(.text)
    I2C0_IRQHandler                          0x000000e3   Thumb Code     0  startup_mspm0g350x_uvision.o(.text)
    I2C1_IRQHandler                          0x000000e3   Thumb Code     0  startup_mspm0g350x_uvision.o(.text)
    RTC_IRQHandler                           0x000000e3   Thumb Code     0  startup_mspm0g350x_uvision.o(.text)
    SPI0_IRQHandler                          0x000000e3   Thumb Code     0  startup_mspm0g350x_uvision.o(.text)
    SPI1_IRQHandler                          0x000000e3   Thumb Code     0  startup_mspm0g350x_uvision.o(.text)
    TIMA1_IRQHandler                         0x000000e3   Thumb Code     0  startup_mspm0g350x_uvision.o(.text)
    TIMG0_IRQHandler                         0x000000e3   Thumb Code     0  startup_mspm0g350x_uvision.o(.text)
    TIMG12_IRQHandler                        0x000000e3   Thumb Code     0  startup_mspm0g350x_uvision.o(.text)
    TIMG6_IRQHandler                         0x000000e3   Thumb Code     0  startup_mspm0g350x_uvision.o(.text)
    TIMG7_IRQHandler                         0x000000e3   Thumb Code     0  startup_mspm0g350x_uvision.o(.text)
    TIMG8_IRQHandler                         0x000000e3   Thumb Code     0  startup_mspm0g350x_uvision.o(.text)
    UART1_IRQHandler                         0x000000e3   Thumb Code     0  startup_mspm0g350x_uvision.o(.text)
    UART2_IRQHandler                         0x000000e3   Thumb Code     0  startup_mspm0g350x_uvision.o(.text)
    UART3_IRQHandler                         0x000000e3   Thumb Code     0  startup_mspm0g350x_uvision.o(.text)
    __aeabi_memset                           0x000000e9   Thumb Code    14  memseta.o(.text)
    __aeabi_memset4                          0x000000e9   Thumb Code     0  memseta.o(.text)
    __aeabi_memset8                          0x000000e9   Thumb Code     0  memseta.o(.text)
    __aeabi_memclr                           0x000000f7   Thumb Code     4  memseta.o(.text)
    __aeabi_memclr4                          0x000000f7   Thumb Code     0  memseta.o(.text)
    __aeabi_memclr8                          0x000000f7   Thumb Code     0  memseta.o(.text)
    _memset$wrapper                          0x000000fb   Thumb Code    18  memseta.o(.text)
    strlen                                   0x0000010d   Thumb Code    14  strlen.o(.text)
    __aeabi_fadd                             0x0000011b   Thumb Code   162  fadd.o(.text)
    __aeabi_fsub                             0x000001bd   Thumb Code     8  fadd.o(.text)
    __aeabi_frsub                            0x000001c5   Thumb Code     8  fadd.o(.text)
    __aeabi_fmul                             0x000001cd   Thumb Code   122  fmul.o(.text)
    __aeabi_dadd                             0x00000249   Thumb Code   328  dadd.o(.text)
    __aeabi_dsub                             0x00000391   Thumb Code    12  dadd.o(.text)
    __aeabi_drsub                            0x0000039d   Thumb Code    12  dadd.o(.text)
    __aeabi_ddiv                             0x000003ad   Thumb Code   234  ddiv.o(.text)
    __aeabi_fcmple                           0x0000049d   Thumb Code    28  fcmple.o(.text)
    __aeabi_fcmpge                           0x000004b9   Thumb Code    28  fcmpge.o(.text)
    __aeabi_fcmpgt                           0x000004d5   Thumb Code    28  fcmpgt.o(.text)
    __aeabi_fcmpeq                           0x000004f1   Thumb Code    28  fcmpeq.o(.text)
    __aeabi_i2f                              0x0000050d   Thumb Code    22  fflti.o(.text)
    __aeabi_i2d                              0x00000525   Thumb Code    34  dflti.o(.text)
    __aeabi_ui2d                             0x0000054d   Thumb Code    24  dfltui.o(.text)
    __aeabi_f2iz                             0x00000569   Thumb Code    50  ffixi.o(.text)
    __aeabi_d2iz                             0x0000059d   Thumb Code    62  dfixi.o(.text)
    __aeabi_d2uiz                            0x000005e5   Thumb Code    50  dfixui.o(.text)
    __aeabi_f2d                              0x00000621   Thumb Code    40  f2d.o(.text)
    __aeabi_d2f                              0x00000649   Thumb Code    56  d2f.o(.text)
    __aeabi_uidiv                            0x00000681   Thumb Code     0  uidiv_div0.o(.text)
    __aeabi_uidivmod                         0x00000681   Thumb Code    62  uidiv_div0.o(.text)
    __aeabi_uldivmod                         0x000006bf   Thumb Code    96  uldiv.o(.text)
    __aeabi_llsl                             0x0000071f   Thumb Code    32  llshl.o(.text)
    _ll_shift_l                              0x0000071f   Thumb Code     0  llshl.o(.text)
    __aeabi_llsr                             0x0000073f   Thumb Code    34  llushr.o(.text)
    _ll_ushift_r                             0x0000073f   Thumb Code     0  llushr.o(.text)
    __aeabi_lasr                             0x00000761   Thumb Code    38  llsshr.o(.text)
    _ll_sshift_r                             0x00000761   Thumb Code     0  llsshr.o(.text)
    __I$use$fp                               0x00000787   Thumb Code     0  iusefp.o(.text)
    _float_round                             0x00000787   Thumb Code    16  fepilogue.o(.text)
    _float_epilogue                          0x00000797   Thumb Code   114  fepilogue.o(.text)
    _double_round                            0x00000809   Thumb Code    26  depilogue.o(.text)
    _double_epilogue                         0x00000823   Thumb Code   164  depilogue.o(.text)
    __aeabi_dmul                             0x000008c9   Thumb Code   202  dmul.o(.text)
    _dsqrt                                   0x00000999   Thumb Code   162  dsqrt.o(.text)
    __aeabi_d2ulz                            0x00000a3d   Thumb Code    54  dfixul.o(.text)
    __aeabi_cdrcmple                         0x00000a7d   Thumb Code    38  cdrcmple.o(.text)
    __scatterload                            0x00000aa9   Thumb Code    38  init.o(.text)
    __scatterload_rt2                        0x00000aa9   Thumb Code     0  init.o(.text)
    DL_Common_delayCycles                    0x00000ad9   Thumb Code    10  dl_common.o(.text.DL_Common_delayCycles)
    DL_SPI_init                              0x00000d4d   Thumb Code    68  dl_spi.o(.text.DL_SPI_init)
    DL_SPI_setClockConfig                    0x00000de1   Thumb Code    18  dl_spi.o(.text.DL_SPI_setClockConfig)
    DL_SYSCTL_configSYSPLL                   0x00000e3d   Thumb Code   192  dl_sysctl_mspm0g1x0x_g3x0x.o(.text.DL_SYSCTL_configSYSPLL)
    DL_SYSCTL_setHFCLKSourceHFXTParams       0x00000f51   Thumb Code    80  dl_sysctl_mspm0g1x0x_g3x0x.o(.text.DL_SYSCTL_setHFCLKSourceHFXTParams)
    DL_SYSCTL_switchMCLKfromSYSOSCtoHSCLK    0x00000fd5   Thumb Code    40  dl_sysctl_mspm0g1x0x_g3x0x.o(.text.DL_SYSCTL_switchMCLKfromSYSOSCtoHSCLK)
    DL_Timer_initFourCCPWMMode               0x00001055   Thumb Code   264  dl_timer.o(.text.DL_Timer_initFourCCPWMMode)
    DL_Timer_initTimerMode                   0x0000115d   Thumb Code   236  dl_timer.o(.text.DL_Timer_initTimerMode)
    DL_Timer_setCaptCompUpdateMethod         0x0000126d   Thumb Code    28  dl_timer.o(.text.DL_Timer_setCaptCompUpdateMethod)
    DL_Timer_setCaptureCompareOutCtl         0x00001289   Thumb Code    24  dl_timer.o(.text.DL_Timer_setCaptureCompareOutCtl)
    DL_Timer_setCaptureCompareValue          0x000012a1   Thumb Code    16  dl_timer.o(.text.DL_Timer_setCaptureCompareValue)
    DL_Timer_setClockConfig                  0x000012b1   Thumb Code    28  dl_timer.o(.text.DL_Timer_setClockConfig)
    DL_UART_init                             0x00001369   Thumb Code    72  dl_uart.o(.text.DL_UART_init)
    DL_UART_setClockConfig                   0x00001429   Thumb Code    18  dl_uart.o(.text.DL_UART_setClockConfig)
    Drawarc                                  0x00001459   Thumb Code   338  hw_lcd.o(.text.Drawarc)
    GROUP1_IRQHandler                        0x000015ad   Thumb Code   156  hw_encoder.o(.text.GROUP1_IRQHandler)
    LCD_Address_Set                          0x00001651   Thumb Code    62  hw_lcd.o(.text.LCD_Address_Set)
    LCD_ArcRect                              0x0000168f   Thumb Code   330  hw_lcd.o(.text.LCD_ArcRect)
    LCD_DrawLine                             0x000017d9   Thumb Code   268  hw_lcd.o(.text.LCD_DrawLine)
    LCD_DrawPoint                            0x000018e5   Thumb Code    32  hw_lcd.o(.text.LCD_DrawPoint)
    LCD_DrawRectangle                        0x00001905   Thumb Code    82  hw_lcd.o(.text.LCD_DrawRectangle)
    LCD_DrawVerrticalLine                    0x00001957   Thumb Code    66  hw_lcd.o(.text.LCD_DrawVerrticalLine)
    LCD_Fill                                 0x00001999   Thumb Code    92  hw_lcd.o(.text.LCD_Fill)
    LCD_ShowChar                             0x000019f5   Thumb Code   460  hw_lcd.o(.text.LCD_ShowChar)
    LCD_ShowChinese                          0x00001bd1   Thumb Code   296  hw_lcd.o(.text.LCD_ShowChinese)
    LCD_ShowChinese12x12                     0x00001cf9   Thumb Code   408  hw_lcd.o(.text.LCD_ShowChinese12x12)
    LCD_ShowChinese16x16                     0x00001e95   Thumb Code   408  hw_lcd.o(.text.LCD_ShowChinese16x16)
    LCD_ShowChinese24x24                     0x00002031   Thumb Code   408  hw_lcd.o(.text.LCD_ShowChinese24x24)
    LCD_ShowChinese32x32                     0x000021cd   Thumb Code   408  hw_lcd.o(.text.LCD_ShowChinese32x32)
    LCD_ShowString                           0x00002369   Thumb Code    98  hw_lcd.o(.text.LCD_ShowString)
    LCD_WR_DATA                              0x000023cb   Thumb Code    28  hw_lcd.o(.text.LCD_WR_DATA)
    LCD_WR_DATA8                             0x000023e7   Thumb Code    20  hw_lcd.o(.text.LCD_WR_DATA8)
    LCD_WR_REG                               0x000023fd   Thumb Code    44  hw_lcd.o(.text.LCD_WR_REG)
    LCD_Writ_Bus                             0x00002429   Thumb Code    44  hw_lcd.o(.text.LCD_Writ_Bus)
    SYSCFG_DL_GPIO_init                      0x00002455   Thumb Code   276  ti_msp_dl_config.o(.text.SYSCFG_DL_GPIO_init)
    SYSCFG_DL_PWM_MOTOR_init                 0x0000256d   Thumb Code   128  ti_msp_dl_config.o(.text.SYSCFG_DL_PWM_MOTOR_init)
    SYSCFG_DL_SPI_LCD_init                   0x000025f9   Thumb Code    52  ti_msp_dl_config.o(.text.SYSCFG_DL_SPI_LCD_init)
    SYSCFG_DL_SYSCTL_init                    0x00002635   Thumb Code    80  ti_msp_dl_config.o(.text.SYSCFG_DL_SYSCTL_init)
    SYSCFG_DL_TIMER_TICK_init                0x00002689   Thumb Code    48  ti_msp_dl_config.o(.text.SYSCFG_DL_TIMER_TICK_init)
    SYSCFG_DL_UART_DEBUG_init                0x000026c1   Thumb Code    72  ti_msp_dl_config.o(.text.SYSCFG_DL_UART_DEBUG_init)
    SYSCFG_DL_init                           0x00002711   Thumb Code    52  ti_msp_dl_config.o(.text.SYSCFG_DL_init)
    SYSCFG_DL_initPower                      0x00002751   Thumb Code   100  ti_msp_dl_config.o(.text.SYSCFG_DL_initPower)
    TIMA0_IRQHandler                         0x000027c5   Thumb Code    40  mid_timer.o(.text.TIMA0_IRQHandler)
    UART0_IRQHandler                         0x000027f1   Thumb Code    40  mid_debug_uart.o(.text.UART0_IRQHandler)
    btn_down_cb                              0x0000299d   Thumb Code   220  app_key_task.o(.text.btn_down_cb)
    btn_left_cb                              0x00002a79   Thumb Code   132  app_key_task.o(.text.btn_left_cb)
    btn_right_cb                             0x00002afd   Thumb Code   288  app_key_task.o(.text.btn_right_cb)
    btn_up_cb                                0x00002c1d   Thumb Code   216  app_key_task.o(.text.btn_up_cb)
    debug_uart_init                          0x00002d5d   Thumb Code    22  mid_debug_uart.o(.text.debug_uart_init)
    disable_task_interrupt                   0x00002da1   Thumb Code     8  mid_timer.o(.text.disable_task_interrupt)
    disp_select_box                          0x00002da9   Thumb Code   234  app_ui.o(.text.disp_select_box)
    disp_string_rect                         0x00002e95   Thumb Code   132  app_ui.o(.text.disp_string_rect)
    disp_x_center                            0x00002f19   Thumb Code    96  app_ui.o(.text.disp_x_center)
    draw_speed_curve                         0x00002f79   Thumb Code   296  app_ui.o(.text.draw_speed_curve)
    enable_task_interrupt                    0x000030b1   Thumb Code     8  mid_timer.o(.text.enable_task_interrupt)
    encoder_init                             0x000030bd   Thumb Code    22  hw_encoder.o(.text.encoder_init)
    encoder_update                           0x000030d5   Thumb Code    24  hw_encoder.o(.text.encoder_update)
    event_manager                            0x000030f1   Thumb Code   334  app_sys_mode.o(.text.event_manager)
    flex_button_register                     0x0000370d   Thumb Code   152  mid_button.o(.text.flex_button_register)
    flex_button_scan                         0x000037b1   Thumb Code    12  mid_button.o(.text.flex_button_scan)
    get_default_page_flag                    0x000037bd   Thumb Code     8  app_sys_mode.o(.text.get_default_page_flag)
    get_encoder_count                        0x000037c5   Thumb Code     8  hw_encoder.o(.text.get_encoder_count)
    get_functional_mode                      0x000037d1   Thumb Code     8  app_sys_mode.o(.text.get_functional_mode)
    get_long_press_state                     0x000037d9   Thumb Code     8  app_sys_mode.o(.text.get_long_press_state)
    get_motor_status_flag                    0x000037e1   Thumb Code     8  app_sys_mode.o(.text.get_motor_status_flag)
    get_set_page_flag                        0x000037e9   Thumb Code     8  app_sys_mode.o(.text.get_set_page_flag)
    get_show_state                           0x000037f1   Thumb Code     8  app_sys_mode.o(.text.get_show_state)
    get_speed_pid                            0x000037fd   Thumb Code     4  app_speed_pid.o(.text.get_speed_pid)
    get_speed_pid_target                     0x00003801   Thumb Code     8  app_speed_pid.o(.text.get_speed_pid_target)
    get_task_status                          0x00003809   Thumb Code     8  mid_timer.o(.text.get_task_status)
    key_scan                                 0x00003815   Thumb Code   136  hw_key.o(.text.key_scan)
    lcd_init                                 0x000038a1   Thumb Code   448  hw_lcd.o(.text.lcd_init)
    main                                     0x00003a71   Thumb Code   238  empty.o(.text.main)
    motor_speed_control                      0x00003b61   Thumb Code   116  app_speed_pid.o(.text.motor_speed_control)
    pid_calc                                 0x00003bdd   Thumb Code   256  mid_pid.o(.text.pid_calc)
    pid_change_zero                          0x00003cdd   Thumb Code    22  mid_pid.o(.text.pid_change_zero)
    pid_init                                 0x00003cf3   Thumb Code    58  mid_pid.o(.text.pid_init)
    set_motor                                0x00003d85   Thumb Code    48  hw_motor.o(.text.set_motor)
    set_motor_status_flag                    0x00003db5   Thumb Code    16  app_sys_mode.o(.text.set_motor_status_flag)
    set_speed_pid_parameter                  0x00003dc5   Thumb Code   480  app_speed_pid.o(.text.set_speed_pid_parameter)
    speed_pid_init                           0x00003fb1   Thumb Code    32  app_speed_pid.o(.text.speed_pid_init)
    spi_write_bus                            0x00003fe5   Thumb Code    40  hw_lcd.o(.text.spi_write_bus)
    stop_motor                               0x00004011   Thumb Code    12  hw_motor.o(.text.stop_motor)
    sys_event_init                           0x0000401d   Thumb Code    12  app_sys_mode.o(.text.sys_event_init)
    timer_init                               0x0000402d   Thumb Code    22  mid_timer.o(.text.timer_init)
    ui_distance_page                         0x00004045   Thumb Code   332  app_ui.o(.text.ui_distance_page)
    ui_distance_page_value_set               0x0000419d   Thumb Code   580  app_ui.o(.text.ui_distance_page_value_set)
    ui_home_page                             0x00004405   Thumb Code   236  app_ui.o(.text.ui_home_page)
    ui_home_page_select                      0x00004505   Thumb Code   160  app_ui.o(.text.ui_home_page_select)
    ui_parameter_select_box_bold             0x000045a9   Thumb Code   300  app_ui.o(.text.ui_parameter_select_box_bold)
    ui_select_page_show                      0x000046d9   Thumb Code    60  app_ui.o(.text.ui_select_page_show)
    ui_speed_curve                           0x00004715   Thumb Code   180  app_ui.o(.text.ui_speed_curve)
    ui_speed_or_distance_page_value_set_quick 0x000047d5   Thumb Code   104  empty.o(.text.ui_speed_or_distance_page_value_set_quick)
    ui_speed_page                            0x00004841   Thumb Code   332  app_ui.o(.text.ui_speed_page)
    ui_speed_page_select_box                 0x0000499d   Thumb Code   504  app_ui.o(.text.ui_speed_page_select_box)
    ui_speed_page_value_set                  0x00004b99   Thumb Code   580  app_ui.o(.text.ui_speed_page_value_set)
    user_button_init                         0x00004e01   Thumb Code   152  mid_button.o(.text.user_button_init)
    __0sprintf                               0x00004ebd   Thumb Code    36  printfa.o(i.__0sprintf)
    __1sprintf                               0x00004ebd   Thumb Code     0  printfa.o(i.__0sprintf)
    __2sprintf                               0x00004ebd   Thumb Code     0  printfa.o(i.__0sprintf)
    __c89sprintf                             0x00004ebd   Thumb Code     0  printfa.o(i.__0sprintf)
    sprintf                                  0x00004ebd   Thumb Code     0  printfa.o(i.__0sprintf)
    __ARM_clz                                0x00004ee5   Thumb Code    46  depilogue.o(i.__ARM_clz)
    __scatterload_copy                       0x00004f19   Thumb Code    14  handlers.o(i.__scatterload_copy)
    __scatterload_null                       0x00004f29   Thumb Code     2  handlers.o(i.__scatterload_null)
    __scatterload_zeroinit                   0x00004f31   Thumb Code    14  handlers.o(i.__scatterload_zeroinit)
    __set_errno                              0x00004f41   Thumb Code     6  errno.o(i.__set_errno)
    sqrt                                     0x00005805   Thumb Code    66  sqrt.o(i.sqrt)
    ascii_1206                               0x0000584c   Data        1140  hw_lcd.o(.rodata.ascii_1206)
    ascii_1608                               0x00005cc0   Data        1520  hw_lcd.o(.rodata.ascii_1608)
    ascii_2412                               0x000062b0   Data        4560  hw_lcd.o(.rodata.ascii_2412)
    ascii_3216                               0x00007480   Data        6080  hw_lcd.o(.rodata.ascii_3216)
    tfont12                                  0x00008ced   Data         130  hw_lcd.o(.rodata.tfont12)
    tfont16                                  0x00008d6f   Data         374  hw_lcd.o(.rodata.tfont16)
    tfont24                                  0x00008ee5   Data         222  hw_lcd.o(.rodata.tfont24)
    tfont32                                  0x00008fc3   Data         130  hw_lcd.o(.rodata.tfont32)
    Region$$Table$$Base                      0x00009048   Number         0  anon$$obj.o(Region$$Table)
    Region$$Table$$Limit                     0x00009068   Number         0  anon$$obj.o(Region$$Table)
    debug_uart                               0x20200018   Data         132  mid_debug_uart.o(.bss.debug_uart)
    gPWM_MOTORBackup                         0x202000a0   Data         160  ti_msp_dl_config.o(.bss.gPWM_MOTORBackup)
    gSPI_LCDBackup                           0x20200140   Data          40  ti_msp_dl_config.o(.bss.gSPI_LCDBackup)
    gTIMER_TICKBackup                        0x20200168   Data         188  ti_msp_dl_config.o(.bss.gTIMER_TICKBackup)
    speed_pid                                0x20200238   Data          48  app_speed_pid.o(.bss.speed_pid)
    system_status                            0x20200268   Data          16  app_sys_mode.o(.bss.system_status)
    __initial_sp                             0x20200718   Data           0  startup_mspm0g350x_uvision.o(STACK)



==============================================================================

Memory Map of the image

  Image Entry point : 0x000000c1

  Load Region LR_IROM1 (Base: 0x00000000, Size: 0x00009078, Max: 0x00020000, ABSOLUTE)

    Execution Region ER_IROM1 (Exec base: 0x00000000, Load base: 0x00000000, Size: 0x00009068, Max: 0x00020000, ABSOLUTE)

    Exec Addr    Load Addr    Size         Type   Attr      Idx    E Section Name        Object

    0x00000000   0x00000000   0x000000c0   Data   RO           15    RESET               startup_mspm0g350x_uvision.o
    0x000000c0   0x000000c0   0x00000000   Code   RO          756  * .ARM.Collect$$$$00000000  mc_p.l(entry.o)
    0x000000c0   0x000000c0   0x00000004   Code   RO          831    .ARM.Collect$$$$00000001  mc_p.l(entry2.o)
    0x000000c4   0x000000c4   0x00000004   Code   RO          834    .ARM.Collect$$$$00000004  mc_p.l(entry5.o)
    0x000000c8   0x000000c8   0x00000000   Code   RO          836    .ARM.Collect$$$$00000008  mc_p.l(entry7b.o)
    0x000000c8   0x000000c8   0x00000000   Code   RO          838    .ARM.Collect$$$$0000000A  mc_p.l(entry8b.o)
    0x000000c8   0x000000c8   0x00000008   Code   RO          839    .ARM.Collect$$$$0000000B  mc_p.l(entry9a.o)
    0x000000d0   0x000000d0   0x00000000   Code   RO          841    .ARM.Collect$$$$0000000D  mc_p.l(entry10a.o)
    0x000000d0   0x000000d0   0x00000000   Code   RO          843    .ARM.Collect$$$$0000000F  mc_p.l(entry11a.o)
    0x000000d0   0x000000d0   0x00000004   Code   RO          832    .ARM.Collect$$$$00002712  mc_p.l(entry2.o)
    0x000000d4   0x000000d4   0x00000014   Code   RO           16    .text               startup_mspm0g350x_uvision.o
    0x000000e8   0x000000e8   0x00000024   Code   RO          765    .text               mc_p.l(memseta.o)
    0x0000010c   0x0000010c   0x0000000e   Code   RO          767    .text               mc_p.l(strlen.o)
    0x0000011a   0x0000011a   0x000000b2   Code   RO          797    .text               mf_p.l(fadd.o)
    0x000001cc   0x000001cc   0x0000007a   Code   RO          799    .text               mf_p.l(fmul.o)
    0x00000246   0x00000246   0x00000002   PAD
    0x00000248   0x00000248   0x00000164   Code   RO          801    .text               mf_p.l(dadd.o)
    0x000003ac   0x000003ac   0x000000f0   Code   RO          803    .text               mf_p.l(ddiv.o)
    0x0000049c   0x0000049c   0x0000001c   Code   RO          805    .text               mf_p.l(fcmple.o)
    0x000004b8   0x000004b8   0x0000001c   Code   RO          807    .text               mf_p.l(fcmpge.o)
    0x000004d4   0x000004d4   0x0000001c   Code   RO          809    .text               mf_p.l(fcmpgt.o)
    0x000004f0   0x000004f0   0x0000001c   Code   RO          811    .text               mf_p.l(fcmpeq.o)
    0x0000050c   0x0000050c   0x00000016   Code   RO          813    .text               mf_p.l(fflti.o)
    0x00000522   0x00000522   0x00000002   PAD
    0x00000524   0x00000524   0x00000028   Code   RO          815    .text               mf_p.l(dflti.o)
    0x0000054c   0x0000054c   0x0000001c   Code   RO          817    .text               mf_p.l(dfltui.o)
    0x00000568   0x00000568   0x00000032   Code   RO          819    .text               mf_p.l(ffixi.o)
    0x0000059a   0x0000059a   0x00000002   PAD
    0x0000059c   0x0000059c   0x00000048   Code   RO          823    .text               mf_p.l(dfixi.o)
    0x000005e4   0x000005e4   0x0000003c   Code   RO          825    .text               mf_p.l(dfixui.o)
    0x00000620   0x00000620   0x00000028   Code   RO          827    .text               mf_p.l(f2d.o)
    0x00000648   0x00000648   0x00000038   Code   RO          829    .text               mf_p.l(d2f.o)
    0x00000680   0x00000680   0x0000003e   Code   RO          854    .text               mc_p.l(uidiv_div0.o)
    0x000006be   0x000006be   0x00000060   Code   RO          860    .text               mc_p.l(uldiv.o)
    0x0000071e   0x0000071e   0x00000020   Code   RO          862    .text               mc_p.l(llshl.o)
    0x0000073e   0x0000073e   0x00000022   Code   RO          864    .text               mc_p.l(llushr.o)
    0x00000760   0x00000760   0x00000026   Code   RO          866    .text               mc_p.l(llsshr.o)
    0x00000786   0x00000786   0x00000000   Code   RO          875    .text               mc_p.l(iusefp.o)
    0x00000786   0x00000786   0x00000082   Code   RO          876    .text               mf_p.l(fepilogue.o)
    0x00000808   0x00000808   0x000000be   Code   RO          878    .text               mf_p.l(depilogue.o)
    0x000008c6   0x000008c6   0x00000002   PAD
    0x000008c8   0x000008c8   0x000000d0   Code   RO          882    .text               mf_p.l(dmul.o)
    0x00000998   0x00000998   0x000000a2   Code   RO          884    .text               mf_p.l(dsqrt.o)
    0x00000a3a   0x00000a3a   0x00000002   PAD
    0x00000a3c   0x00000a3c   0x00000040   Code   RO          886    .text               mf_p.l(dfixul.o)
    0x00000a7c   0x00000a7c   0x00000028   Code   RO          888    .text               mf_p.l(cdrcmple.o)
    0x00000aa4   0x00000aa4   0x00000004   PAD
    0x00000aa8   0x00000aa8   0x00000030   Code   RO          890    .text               mc_p.l(init.o)
    0x00000ad8   0x00000ad8   0x0000000a   Code   RO          517    .text.DL_Common_delayCycles  driverlib.a(dl_common.o)
    0x00000ae2   0x00000ae2   0x00000028   Code   RO          117    .text.DL_Common_updateReg  ti_msp_dl_config.o
    0x00000b0a   0x00000b0a   0x00000002   PAD
    0x00000b0c   0x00000b0c   0x00000018   Code   RO           77    .text.DL_GPIO_clearInterruptStatus  ti_msp_dl_config.o
    0x00000b24   0x00000b24   0x0000001c   Code   RO          259    .text.DL_GPIO_clearInterruptStatus  hw_encoder.o
    0x00000b40   0x00000b40   0x00000014   Code   RO           73    .text.DL_GPIO_clearPins  ti_msp_dl_config.o
    0x00000b54   0x00000b54   0x00000014   Code   RO          146    .text.DL_GPIO_clearPins  hw_lcd.o
    0x00000b68   0x00000b68   0x00000014   Code   RO          419    .text.DL_GPIO_clearPins  app_ui.o
    0x00000b7c   0x00000b7c   0x0000001c   Code   RO           79    .text.DL_GPIO_enableInterrupt  ti_msp_dl_config.o
    0x00000b98   0x00000b98   0x00000018   Code   RO           63    .text.DL_GPIO_enableOutput  ti_msp_dl_config.o
    0x00000bb0   0x00000bb0   0x00000014   Code   RO           51    .text.DL_GPIO_enablePower  ti_msp_dl_config.o
    0x00000bc4   0x00000bc4   0x00000018   Code   RO          255    .text.DL_GPIO_getEnabledInterruptStatus  hw_encoder.o
    0x00000bdc   0x00000bdc   0x00000030   Code   RO           71    .text.DL_GPIO_initDigitalInputFeatures  ti_msp_dl_config.o
    0x00000c0c   0x00000c0c   0x00000014   Code   RO           69    .text.DL_GPIO_initDigitalOutput  ti_msp_dl_config.o
    0x00000c20   0x00000c20   0x0000002c   Code   RO           67    .text.DL_GPIO_initDigitalOutputFeatures  ti_msp_dl_config.o
    0x00000c4c   0x00000c4c   0x00000014   Code   RO           59    .text.DL_GPIO_initPeripheralAnalogFunction  ti_msp_dl_config.o
    0x00000c60   0x00000c60   0x0000001c   Code   RO           65    .text.DL_GPIO_initPeripheralInputFunction  ti_msp_dl_config.o
    0x00000c7c   0x00000c7c   0x0000001c   Code   RO           61    .text.DL_GPIO_initPeripheralOutputFunction  ti_msp_dl_config.o
    0x00000c98   0x00000c98   0x00000016   Code   RO          215    .text.DL_GPIO_readPins  hw_key.o
    0x00000cae   0x00000cae   0x00000016   Code   RO          257    .text.DL_GPIO_readPins  hw_encoder.o
    0x00000cc4   0x00000cc4   0x00000010   Code   RO           43    .text.DL_GPIO_reset  ti_msp_dl_config.o
    0x00000cd4   0x00000cd4   0x0000001c   Code   RO           75    .text.DL_GPIO_setLowerPinsPolarity  ti_msp_dl_config.o
    0x00000cf0   0x00000cf0   0x00000014   Code   RO          148    .text.DL_GPIO_setPins  hw_lcd.o
    0x00000d04   0x00000d04   0x00000018   Code   RO          421    .text.DL_GPIO_setPins  app_ui.o
    0x00000d1c   0x00000d1c   0x00000018   Code   RO          115    .text.DL_SPI_enable  ti_msp_dl_config.o
    0x00000d34   0x00000d34   0x00000018   Code   RO           57    .text.DL_SPI_enablePower  ti_msp_dl_config.o
    0x00000d4c   0x00000d4c   0x00000044   Code   RO          526    .text.DL_SPI_init   driverlib.a(dl_spi.o)
    0x00000d90   0x00000d90   0x00000018   Code   RO          142    .text.DL_SPI_isBusy  hw_lcd.o
    0x00000da8   0x00000da8   0x00000018   Code   RO           49    .text.DL_SPI_reset  ti_msp_dl_config.o
    0x00000dc0   0x00000dc0   0x00000020   Code   RO          111    .text.DL_SPI_setBitRateSerialClockDivider  ti_msp_dl_config.o
    0x00000de0   0x00000de0   0x00000012   Code   RO          528    .text.DL_SPI_setClockConfig  driverlib.a(dl_spi.o)
    0x00000df2   0x00000df2   0x00000002   PAD
    0x00000df4   0x00000df4   0x00000030   Code   RO          113    .text.DL_SPI_setFIFOThreshold  ti_msp_dl_config.o
    0x00000e24   0x00000e24   0x00000016   Code   RO          140    .text.DL_SPI_transmitData8  hw_lcd.o
    0x00000e3a   0x00000e3a   0x00000002   PAD
    0x00000e3c   0x00000e3c   0x000000c0   Code   RO          721    .text.DL_SYSCTL_configSYSPLL  driverlib.a(dl_sysctl_mspm0g1x0x_g3x0x.o)
    0x00000efc   0x00000efc   0x0000000c   Code   RO           87    .text.DL_SYSCTL_disableHFXT  ti_msp_dl_config.o
    0x00000f08   0x00000f08   0x00000014   Code   RO           89    .text.DL_SYSCTL_disableSYSPLL  ti_msp_dl_config.o
    0x00000f1c   0x00000f1c   0x00000018   Code   RO           81    .text.DL_SYSCTL_setBORThreshold  ti_msp_dl_config.o
    0x00000f34   0x00000f34   0x0000001c   Code   RO           83    .text.DL_SYSCTL_setFlashWaitState  ti_msp_dl_config.o
    0x00000f50   0x00000f50   0x00000050   Code   RO          735    .text.DL_SYSCTL_setHFCLKSourceHFXTParams  driverlib.a(dl_sysctl_mspm0g1x0x_g3x0x.o)
    0x00000fa0   0x00000fa0   0x0000001c   Code   RO           85    .text.DL_SYSCTL_setSYSOSCFreq  ti_msp_dl_config.o
    0x00000fbc   0x00000fbc   0x00000018   Code   RO           91    .text.DL_SYSCTL_setULPCLKDivider  ti_msp_dl_config.o
    0x00000fd4   0x00000fd4   0x00000028   Code   RO          729    .text.DL_SYSCTL_switchMCLKfromSYSOSCtoHSCLK  driverlib.a(dl_sysctl_mspm0g1x0x_g3x0x.o)
    0x00000ffc   0x00000ffc   0x00000014   Code   RO           97    .text.DL_Timer_enableClock  ti_msp_dl_config.o
    0x00001010   0x00001010   0x00000018   Code   RO          101    .text.DL_Timer_enableInterrupt  ti_msp_dl_config.o
    0x00001028   0x00001028   0x00000018   Code   RO           53    .text.DL_Timer_enablePower  ti_msp_dl_config.o
    0x00001040   0x00001040   0x00000012   Code   RO          371    .text.DL_Timer_getPendingInterrupt  mid_timer.o
    0x00001052   0x00001052   0x00000002   PAD
    0x00001054   0x00001054   0x00000108   Code   RO          660    .text.DL_Timer_initFourCCPWMMode  driverlib.a(dl_timer.o)
    0x0000115c   0x0000115c   0x000000ec   Code   RO          584    .text.DL_Timer_initTimerMode  driverlib.a(dl_timer.o)
    0x00001248   0x00001248   0x00000010   Code   RO           45    .text.DL_Timer_reset  ti_msp_dl_config.o
    0x00001258   0x00001258   0x00000014   Code   RO           99    .text.DL_Timer_setCCPDirection  ti_msp_dl_config.o
    0x0000126c   0x0000126c   0x0000001c   Code   RO          626    .text.DL_Timer_setCaptCompUpdateMethod  driverlib.a(dl_timer.o)
    0x00001288   0x00001288   0x00000018   Code   RO          634    .text.DL_Timer_setCaptureCompareOutCtl  driverlib.a(dl_timer.o)
    0x000012a0   0x000012a0   0x00000010   Code   RO          586    .text.DL_Timer_setCaptureCompareValue  driverlib.a(dl_timer.o)
    0x000012b0   0x000012b0   0x0000001c   Code   RO          580    .text.DL_Timer_setClockConfig  driverlib.a(dl_timer.o)
    0x000012cc   0x000012cc   0x0000003c   Code   RO           95    .text.DL_Timer_setCounterControl  ti_msp_dl_config.o
    0x00001308   0x00001308   0x00000016   Code   RO          109    .text.DL_UART_enable  ti_msp_dl_config.o
    0x0000131e   0x0000131e   0x00000002   PAD
    0x00001320   0x00001320   0x0000001c   Code   RO          107    .text.DL_UART_enableInterrupt  ti_msp_dl_config.o
    0x0000133c   0x0000133c   0x00000018   Code   RO           55    .text.DL_UART_enablePower  ti_msp_dl_config.o
    0x00001354   0x00001354   0x00000012   Code   RO          309    .text.DL_UART_getPendingInterrupt  mid_debug_uart.o
    0x00001366   0x00001366   0x00000002   PAD
    0x00001368   0x00001368   0x00000048   Code   RO          681    .text.DL_UART_init  driverlib.a(dl_uart.o)
    0x000013b0   0x000013b0   0x00000014   Code   RO          311    .text.DL_UART_receiveData  mid_debug_uart.o
    0x000013c4   0x000013c4   0x00000018   Code   RO           47    .text.DL_UART_reset  ti_msp_dl_config.o
    0x000013dc   0x000013dc   0x0000004c   Code   RO          105    .text.DL_UART_setBaudRateDivisor  ti_msp_dl_config.o
    0x00001428   0x00001428   0x00000012   Code   RO          683    .text.DL_UART_setClockConfig  driverlib.a(dl_uart.o)
    0x0000143a   0x0000143a   0x0000001e   Code   RO          103    .text.DL_UART_setOversampling  ti_msp_dl_config.o
    0x00001458   0x00001458   0x00000152   Code   RO          172    .text.Drawarc       hw_lcd.o
    0x000015aa   0x000015aa   0x00000002   PAD
    0x000015ac   0x000015ac   0x000000a4   Code   RO          253    .text.GROUP1_IRQHandler  hw_encoder.o
    0x00001650   0x00001650   0x0000003e   Code   RO          156    .text.LCD_Address_Set  hw_lcd.o
    0x0000168e   0x0000168e   0x0000014a   Code   RO          174    .text.LCD_ArcRect   hw_lcd.o
    0x000017d8   0x000017d8   0x0000010c   Code   RO          164    .text.LCD_DrawLine  hw_lcd.o
    0x000018e4   0x000018e4   0x00000020   Code   RO          162    .text.LCD_DrawPoint  hw_lcd.o
    0x00001904   0x00001904   0x00000052   Code   RO          168    .text.LCD_DrawRectangle  hw_lcd.o
    0x00001956   0x00001956   0x00000042   Code   RO          166    .text.LCD_DrawVerrticalLine  hw_lcd.o
    0x00001998   0x00001998   0x0000005c   Code   RO          160    .text.LCD_Fill      hw_lcd.o
    0x000019f4   0x000019f4   0x000001dc   Code   RO          186    .text.LCD_ShowChar  hw_lcd.o
    0x00001bd0   0x00001bd0   0x00000128   Code   RO          176    .text.LCD_ShowChinese  hw_lcd.o
    0x00001cf8   0x00001cf8   0x0000019c   Code   RO          178    .text.LCD_ShowChinese12x12  hw_lcd.o
    0x00001e94   0x00001e94   0x0000019c   Code   RO          180    .text.LCD_ShowChinese16x16  hw_lcd.o
    0x00002030   0x00002030   0x0000019c   Code   RO          182    .text.LCD_ShowChinese24x24  hw_lcd.o
    0x000021cc   0x000021cc   0x0000019c   Code   RO          184    .text.LCD_ShowChinese32x32  hw_lcd.o
    0x00002368   0x00002368   0x00000062   Code   RO          188    .text.LCD_ShowString  hw_lcd.o
    0x000023ca   0x000023ca   0x0000001c   Code   RO          152    .text.LCD_WR_DATA   hw_lcd.o
    0x000023e6   0x000023e6   0x00000014   Code   RO          150    .text.LCD_WR_DATA8  hw_lcd.o
    0x000023fa   0x000023fa   0x00000002   PAD
    0x000023fc   0x000023fc   0x0000002c   Code   RO          154    .text.LCD_WR_REG    hw_lcd.o
    0x00002428   0x00002428   0x0000002c   Code   RO          144    .text.LCD_Writ_Bus  hw_lcd.o
    0x00002454   0x00002454   0x00000118   Code   RO           27    .text.SYSCFG_DL_GPIO_init  ti_msp_dl_config.o
    0x0000256c   0x0000256c   0x0000008c   Code   RO           31    .text.SYSCFG_DL_PWM_MOTOR_init  ti_msp_dl_config.o
    0x000025f8   0x000025f8   0x0000003c   Code   RO           37    .text.SYSCFG_DL_SPI_LCD_init  ti_msp_dl_config.o
    0x00002634   0x00002634   0x00000054   Code   RO           29    .text.SYSCFG_DL_SYSCTL_init  ti_msp_dl_config.o
    0x00002688   0x00002688   0x00000038   Code   RO           33    .text.SYSCFG_DL_TIMER_TICK_init  ti_msp_dl_config.o
    0x000026c0   0x000026c0   0x00000050   Code   RO           35    .text.SYSCFG_DL_UART_DEBUG_init  ti_msp_dl_config.o
    0x00002710   0x00002710   0x00000040   Code   RO           23    .text.SYSCFG_DL_init  ti_msp_dl_config.o
    0x00002750   0x00002750   0x00000074   Code   RO           25    .text.SYSCFG_DL_initPower  ti_msp_dl_config.o
    0x000027c4   0x000027c4   0x0000002c   Code   RO          369    .text.TIMA0_IRQHandler  mid_timer.o
    0x000027f0   0x000027f0   0x00000030   Code   RO          307    .text.UART0_IRQHandler  mid_debug_uart.o
    0x00002820   0x00002820   0x00000028   Code   RO          243    .text.__NVIC_ClearPendingIRQ  hw_encoder.o
    0x00002848   0x00002848   0x00000028   Code   RO          291    .text.__NVIC_ClearPendingIRQ  mid_debug_uart.o
    0x00002870   0x00002870   0x0000002c   Code   RO          365    .text.__NVIC_ClearPendingIRQ  mid_timer.o
    0x0000289c   0x0000289c   0x00000028   Code   RO          245    .text.__NVIC_EnableIRQ  hw_encoder.o
    0x000028c4   0x000028c4   0x00000028   Code   RO          293    .text.__NVIC_EnableIRQ  mid_debug_uart.o
    0x000028ec   0x000028ec   0x0000002c   Code   RO          367    .text.__NVIC_EnableIRQ  mid_timer.o
    0x00002918   0x00002918   0x00000084   Code   RO           93    .text.__NVIC_SetPriority  ti_msp_dl_config.o
    0x0000299c   0x0000299c   0x000000dc   Code   RO          402    .text.btn_down_cb   app_key_task.o
    0x00002a78   0x00002a78   0x00000084   Code   RO          398    .text.btn_left_cb   app_key_task.o
    0x00002afc   0x00002afc   0x00000120   Code   RO          400    .text.btn_right_cb  app_key_task.o
    0x00002c1c   0x00002c1c   0x000000e8   Code   RO          396    .text.btn_up_cb     app_key_task.o
    0x00002d04   0x00002d04   0x00000016   Code   RO          331    .text.button_down_read  mid_button.o
    0x00002d1a   0x00002d1a   0x00000016   Code   RO          327    .text.button_left_read  mid_button.o
    0x00002d30   0x00002d30   0x00000016   Code   RO          329    .text.button_right_read  mid_button.o
    0x00002d46   0x00002d46   0x00000016   Code   RO          325    .text.button_up_read  mid_button.o
    0x00002d5c   0x00002d5c   0x00000016   Code   RO          289    .text.debug_uart_init  mid_debug_uart.o
    0x00002d72   0x00002d72   0x00000002   PAD
    0x00002d74   0x00002d74   0x0000002c   Code   RO          313    .text.debug_uart_receive_limit_length  mid_debug_uart.o
    0x00002da0   0x00002da0   0x00000008   Code   RO          359    .text.disable_task_interrupt  mid_timer.o
    0x00002da8   0x00002da8   0x000000ea   Code   RO          415    .text.disp_select_box  app_ui.o
    0x00002e92   0x00002e92   0x00000002   PAD
    0x00002e94   0x00002e94   0x00000084   Code   RO          413    .text.disp_string_rect  app_ui.o
    0x00002f18   0x00002f18   0x00000060   Code   RO          411    .text.disp_x_center  app_ui.o
    0x00002f78   0x00002f78   0x00000138   Code   RO          439    .text.draw_speed_curve  app_ui.o
    0x000030b0   0x000030b0   0x0000000c   Code   RO          357    .text.enable_task_interrupt  mid_timer.o
    0x000030bc   0x000030bc   0x00000016   Code   RO          241    .text.encoder_init  hw_encoder.o
    0x000030d2   0x000030d2   0x00000002   PAD
    0x000030d4   0x000030d4   0x0000001c   Code   RO          251    .text.encoder_update  hw_encoder.o
    0x000030f0   0x000030f0   0x0000014e   Code   RO          471    .text.event_manager  app_sys_mode.o
    0x0000323e   0x0000323e   0x00000002   PAD
    0x00003240   0x00003240   0x00000404   Code   RO          341    .text.flex_button_process  mid_button.o
    0x00003644   0x00003644   0x000000c8   Code   RO          339    .text.flex_button_read  mid_button.o
    0x0000370c   0x0000370c   0x000000a4   Code   RO          333    .text.flex_button_register  mid_button.o
    0x000037b0   0x000037b0   0x0000000c   Code   RO          337    .text.flex_button_scan  mid_button.o
    0x000037bc   0x000037bc   0x00000008   Code   RO          477    .text.get_default_page_flag  app_sys_mode.o
    0x000037c4   0x000037c4   0x0000000c   Code   RO          247    .text.get_encoder_count  hw_encoder.o
    0x000037d0   0x000037d0   0x00000008   Code   RO          487    .text.get_functional_mode  app_sys_mode.o
    0x000037d8   0x000037d8   0x00000008   Code   RO          485    .text.get_long_press_state  app_sys_mode.o
    0x000037e0   0x000037e0   0x00000008   Code   RO          483    .text.get_motor_status_flag  app_sys_mode.o
    0x000037e8   0x000037e8   0x00000008   Code   RO          479    .text.get_set_page_flag  app_sys_mode.o
    0x000037f0   0x000037f0   0x0000000c   Code   RO          473    .text.get_show_state  app_sys_mode.o
    0x000037fc   0x000037fc   0x00000004   Code   RO          501    .text.get_speed_pid  app_speed_pid.o
    0x00003800   0x00003800   0x00000008   Code   RO          503    .text.get_speed_pid_target  app_speed_pid.o
    0x00003808   0x00003808   0x0000000c   Code   RO          361    .text.get_task_status  mid_timer.o
    0x00003814   0x00003814   0x0000008c   Code   RO          213    .text.key_scan      hw_key.o
    0x000038a0   0x000038a0   0x000001d0   Code   RO          158    .text.lcd_init      hw_lcd.o
    0x00003a70   0x00003a70   0x000000ee   Code   RO            4    .text.main          empty.o
    0x00003b5e   0x00003b5e   0x00000002   PAD
    0x00003b60   0x00003b60   0x0000007c   Code   RO          505    .text.motor_speed_control  app_speed_pid.o
    0x00003bdc   0x00003bdc   0x00000100   Code   RO          385    .text.pid_calc      mid_pid.o
    0x00003cdc   0x00003cdc   0x00000016   Code   RO          383    .text.pid_change_zero  mid_pid.o
    0x00003cf2   0x00003cf2   0x0000003a   Code   RO          381    .text.pid_init      mid_pid.o
    0x00003d2c   0x00003d2c   0x00000024   Code   RO          226    .text.restrict_pwm_max_value  hw_motor.o
    0x00003d50   0x00003d50   0x00000018   Code   RO          230    .text.set_bi        hw_motor.o
    0x00003d68   0x00003d68   0x0000001c   Code   RO          228    .text.set_fi        hw_motor.o
    0x00003d84   0x00003d84   0x00000030   Code   RO          224    .text.set_motor     hw_motor.o
    0x00003db4   0x00003db4   0x00000010   Code   RO          481    .text.set_motor_status_flag  app_sys_mode.o
    0x00003dc4   0x00003dc4   0x000001ec   Code   RO          507    .text.set_speed_pid_parameter  app_speed_pid.o
    0x00003fb0   0x00003fb0   0x00000034   Code   RO          499    .text.speed_pid_init  app_speed_pid.o
    0x00003fe4   0x00003fe4   0x0000002c   Code   RO          138    .text.spi_write_bus  hw_lcd.o
    0x00004010   0x00004010   0x0000000c   Code   RO          232    .text.stop_motor    hw_motor.o
    0x0000401c   0x0000401c   0x00000010   Code   RO          469    .text.sys_event_init  app_sys_mode.o
    0x0000402c   0x0000402c   0x00000016   Code   RO          363    .text.timer_init    mid_timer.o
    0x00004042   0x00004042   0x00000002   PAD
    0x00004044   0x00004044   0x00000158   Code   RO          433    .text.ui_distance_page  app_ui.o
    0x0000419c   0x0000419c   0x00000268   Code   RO          435    .text.ui_distance_page_value_set  app_ui.o
    0x00004404   0x00004404   0x00000100   Code   RO          417    .text.ui_home_page  app_ui.o
    0x00004504   0x00004504   0x000000a4   Code   RO          423    .text.ui_home_page_select  app_ui.o
    0x000045a8   0x000045a8   0x00000130   Code   RO          431    .text.ui_parameter_select_box_bold  app_ui.o
    0x000046d8   0x000046d8   0x0000003c   Code   RO          437    .text.ui_select_page_show  app_ui.o
    0x00004714   0x00004714   0x000000c0   Code   RO          443    .text.ui_speed_curve  app_ui.o
    0x000047d4   0x000047d4   0x0000006c   Code   RO            2    .text.ui_speed_or_distance_page_value_set_quick  empty.o
    0x00004840   0x00004840   0x0000015c   Code   RO          425    .text.ui_speed_page  app_ui.o
    0x0000499c   0x0000499c   0x000001fc   Code   RO          429    .text.ui_speed_page_select_box  app_ui.o
    0x00004b98   0x00004b98   0x00000268   Code   RO          427    .text.ui_speed_page_value_set  app_ui.o
    0x00004e00   0x00004e00   0x000000bc   Code   RO          323    .text.user_button_init  mid_button.o
    0x00004ebc   0x00004ebc   0x00000028   Code   RO          772    i.__0sprintf        mc_p.l(printfa.o)
    0x00004ee4   0x00004ee4   0x0000002e   Code   RO          880    i.__ARM_clz         mf_p.l(depilogue.o)
    0x00004f12   0x00004f12   0x00000006   PAD
    0x00004f18   0x00004f18   0x0000000e   Code   RO          896    i.__scatterload_copy  mc_p.l(handlers.o)
    0x00004f26   0x00004f26   0x00000002   PAD
    0x00004f28   0x00004f28   0x00000002   Code   RO          897    i.__scatterload_null  mc_p.l(handlers.o)
    0x00004f2a   0x00004f2a   0x00000006   PAD
    0x00004f30   0x00004f30   0x0000000e   Code   RO          898    i.__scatterload_zeroinit  mc_p.l(handlers.o)
    0x00004f3e   0x00004f3e   0x00000002   PAD
    0x00004f40   0x00004f40   0x0000000c   Code   RO          870    i.__set_errno       mc_p.l(errno.o)
    0x00004f4c   0x00004f4c   0x00000174   Code   RO          777    i._fp_digits        mc_p.l(printfa.o)
    0x000050c0   0x000050c0   0x000006ec   Code   RO          778    i._printf_core      mc_p.l(printfa.o)
    0x000057ac   0x000057ac   0x00000020   Code   RO          779    i._printf_post_padding  mc_p.l(printfa.o)
    0x000057cc   0x000057cc   0x0000002c   Code   RO          780    i._printf_pre_padding  mc_p.l(printfa.o)
    0x000057f8   0x000057f8   0x0000000a   Code   RO          782    i._sputc            mc_p.l(printfa.o)
    0x00005802   0x00005802   0x00000002   PAD
    0x00005804   0x00005804   0x00000048   Code   RO          753    i.sqrt              m_ps.l(sqrt.o)
    0x0000584c   0x0000584c   0x00000474   Data   RO          198    .rodata.ascii_1206  hw_lcd.o
    0x00005cc0   0x00005cc0   0x000005f0   Data   RO          199    .rodata.ascii_1608  hw_lcd.o
    0x000062b0   0x000062b0   0x000011d0   Data   RO          200    .rodata.ascii_2412  hw_lcd.o
    0x00007480   0x00007480   0x000017c0   Data   RO          201    .rodata.ascii_3216  hw_lcd.o
    0x00008c40   0x00008c40   0x00000003   Data   RO          123    .rodata.gPWM_MOTORClockConfig  ti_msp_dl_config.o
    0x00008c43   0x00008c43   0x00000001   PAD
    0x00008c44   0x00008c44   0x00000008   Data   RO          124    .rodata.gPWM_MOTORConfig  ti_msp_dl_config.o
    0x00008c4c   0x00008c4c   0x00000002   Data   RO          129    .rodata.gSPI_LCD_clockConfig  ti_msp_dl_config.o
    0x00008c4e   0x00008c4e   0x0000000a   Data   RO          130    .rodata.gSPI_LCD_config  ti_msp_dl_config.o
    0x00008c58   0x00008c58   0x00000028   Data   RO          122    .rodata.gSYSPLLConfig  ti_msp_dl_config.o
    0x00008c80   0x00008c80   0x00000003   Data   RO          125    .rodata.gTIMER_TICKClockConfig  ti_msp_dl_config.o
    0x00008c83   0x00008c83   0x00000001   PAD
    0x00008c84   0x00008c84   0x00000014   Data   RO          126    .rodata.gTIMER_TICKTimerConfig  ti_msp_dl_config.o
    0x00008c98   0x00008c98   0x00000002   Data   RO          127    .rodata.gUART_DEBUGClockConfig  ti_msp_dl_config.o
    0x00008c9a   0x00008c9a   0x0000000a   Data   RO          128    .rodata.gUART_DEBUGConfig  ti_msp_dl_config.o
    0x00008ca4   0x00008ca4   0x00000049   Data   RO          445    .rodata.str1.1      app_ui.o
    0x00008ced   0x00008ced   0x00000082   Data   RO          202    .rodata.tfont12     hw_lcd.o
    0x00008d6f   0x00008d6f   0x00000176   Data   RO          203    .rodata.tfont16     hw_lcd.o
    0x00008ee5   0x00008ee5   0x000000de   Data   RO          204    .rodata.tfont24     hw_lcd.o
    0x00008fc3   0x00008fc3   0x00000082   Data   RO          205    .rodata.tfont32     hw_lcd.o
    0x00009045   0x00009045   0x00000003   PAD
    0x00009048   0x00009048   0x00000020   Data   RO          895    Region$$Table       anon$$obj.o


    Execution Region RW_IRAM2 (Exec base: 0x20200000, Load base: 0x00009068, Size: 0x00000718, Max: 0x00008000, ABSOLUTE)

    Exec Addr    Load Addr    Size         Type   Attr      Idx    E Section Name        Object

    0x20200000   0x00009068   0x00000004   Data   RW          871    .data               mc_p.l(errno.o)
    0x20200004   0x0000906c   0x00000001   Data   RW          456    .data.draw_speed_curve.firstPoint  app_ui.o
    0x20200005   0x0000906d   0x00000001   PAD
    0x20200006   0x0000906e   0x00000002   Data   RW          346    .data.key_rst_data  mid_button.o
    0x20200008   0x00009070   0x00000002   Data   RW          347    .data.keydata       mid_button.o
    0x2020000a   0x00009072   0x00000001   Data   RW          373    .data.tack_enable_flag  mid_timer.o
    0x2020000b   0x00009073   0x00000005   PAD
    0x20200010        -       0x00000004   Zero   RW          344    .bss.btn_head       mid_button.o
    0x20200014        -       0x00000001   Zero   RW          345    .bss.button_cnt     mid_button.o
    0x20200015   0x00009073   0x00000001   PAD
    0x20200016        -       0x00000002   Zero   RW          348    .bss.cont           mid_button.o
    0x20200018        -       0x00000084   Zero   RW          315    .bss.debug_uart     mid_debug_uart.o
    0x2020009c        -       0x00000002   Zero   RW          457    .bss.draw_speed_curve.lastX  app_ui.o
    0x2020009e        -       0x00000002   Zero   RW          458    .bss.draw_speed_curve.lastY  app_ui.o
    0x202000a0        -       0x000000a0   Zero   RW          119    .bss.gPWM_MOTORBackup  ti_msp_dl_config.o
    0x20200140        -       0x00000028   Zero   RW          121    .bss.gSPI_LCDBackup  ti_msp_dl_config.o
    0x20200168        -       0x000000bc   Zero   RW          120    .bss.gTIMER_TICKBackup  ti_msp_dl_config.o
    0x20200224   0x00009073   0x00000004   PAD
    0x20200228        -       0x00000010   Zero   RW          261    .bss.motor_encoder  hw_encoder.o
    0x20200238        -       0x00000030   Zero   RW          509    .bss.speed_pid      app_speed_pid.o
    0x20200268        -       0x00000010   Zero   RW          491    .bss.system_status  app_sys_mode.o
    0x20200278        -       0x00000002   Zero   RW          349    .bss.trg            mid_button.o
    0x2020027a   0x00009073   0x00000002   PAD
    0x2020027c        -       0x00000004   Zero   RW          453    .bss.ui_distance_page_value_set.last_d  app_ui.o
    0x20200280        -       0x00000004   Zero   RW          454    .bss.ui_distance_page_value_set.last_distance  app_ui.o
    0x20200284        -       0x00000004   Zero   RW          452    .bss.ui_distance_page_value_set.last_i  app_ui.o
    0x20200288        -       0x00000004   Zero   RW          451    .bss.ui_distance_page_value_set.last_p  app_ui.o
    0x2020028c        -       0x00000004   Zero   RW          455    .bss.ui_distance_page_value_set.last_target  app_ui.o
    0x20200290        -       0x00000004   Zero   RW          448    .bss.ui_speed_page_value_set.last_d  app_ui.o
    0x20200294        -       0x00000004   Zero   RW          447    .bss.ui_speed_page_value_set.last_i  app_ui.o
    0x20200298        -       0x00000004   Zero   RW          446    .bss.ui_speed_page_value_set.last_p  app_ui.o
    0x2020029c        -       0x00000004   Zero   RW          449    .bss.ui_speed_page_value_set.last_speed  app_ui.o
    0x202002a0        -       0x00000004   Zero   RW          450    .bss.ui_speed_page_value_set.last_target  app_ui.o
    0x202002a4        -       0x00000070   Zero   RW          343    .bss.user_button    mid_button.o
    0x20200314   0x00009073   0x00000004   PAD
    0x20200318        -       0x00000400   Zero   RW           13    STACK               startup_mspm0g350x_uvision.o



  Load Region LR_BCR (Base: 0x41c00000, Size: 0x00000000, Max: 0x00000100, ABSOLUTE)

    Execution Region BCR_CONFIG (Exec base: 0x41c00000, Load base: 0x41c00000, Size: 0x00000000, Max: 0x000000ff, ABSOLUTE)

    **** No section assigned to this execution region ****



  Load Region LR_BSL (Base: 0x41c00100, Size: 0x00000000, Max: 0x00000100, ABSOLUTE)

    Execution Region BSL_CONFIG (Exec base: 0x41c00100, Load base: 0x41c00100, Size: 0x00000000, Max: 0x00000080, ABSOLUTE)

    **** No section assigned to this execution region ****


==============================================================================

Image component sizes


      Code (inc. data)   RO Data    RW Data    ZI Data      Debug   Object Name

       872         16          0          0          0       2846   app_key_task.o
       680         72          0          0         48       1919   app_speed_pid.o
       418         32          0          0         16       2830   app_sys_mode.o
      4226        216         73          1         44      10926   app_ui.o
       346          4          0          0          0       1293   empty.o
       380         24          0          0         16       6110   hw_encoder.o
       162          4          0          0          0       3648   hw_key.o
      4518         56      14156          0          0      15954   hw_lcd.o
       148         12          0          0          0       3842   hw_motor.o
      1680        100          0          4        121       4433   mid_button.o
       232         16          0          0        132       6347   mid_debug_uart.o
       336          0          0          0          0       1830   mid_pid.o
       204         20          0          1          0       5902   mid_timer.o
        20          4        192          0       1024        640   startup_mspm0g350x_uvision.o
      2056        188         98          0        388      31266   ti_msp_dl_config.o

    ----------------------------------------------------------------------
     16304        764      14556          8       1804      99786   Object Totals
         0          0         32          0          0          0   (incl. Generated)
        26          0          5          2         15          0   (incl. Padding)

    ----------------------------------------------------------------------

      Code (inc. data)   RO Data    RW Data    ZI Data      Debug   Library Member Name

        10          0          0          0          0        790   dl_common.o
        86          8          0          0          0      13505   dl_spi.o
       312         24          0          0          0      12865   dl_sysctl_mspm0g1x0x_g3x0x.o
       596        188          0          0          0      41545   dl_timer.o
        90          8          0          0          0      14150   dl_uart.o
        72          6          0          0          0         76   sqrt.o
         0          0          0          0          0          0   entry.o
         0          0          0          0          0          0   entry10a.o
         0          0          0          0          0          0   entry11a.o
         8          4          0          0          0          0   entry2.o
         4          0          0          0          0          0   entry5.o
         0          0          0          0          0          0   entry7b.o
         0          0          0          0          0          0   entry8b.o
         8          4          0          0          0          0   entry9a.o
        12          6          0          4          0         60   errno.o
        30          0          0          0          0          0   handlers.o
        48         10          0          0          0         68   init.o
         0          0          0          0          0          0   iusefp.o
        32          0          0          0          0         68   llshl.o
        38          0          0          0          0         68   llsshr.o
        34          0          0          0          0         68   llushr.o
        36          0          0          0          0        100   memseta.o
      2270         94          0          0          0        472   printfa.o
        14          0          0          0          0         60   strlen.o
        62          0          0          0          0         72   uidiv_div0.o
        96          0          0          0          0         84   uldiv.o
        40          2          0          0          0         68   cdrcmple.o
        56          0          0          0          0         68   d2f.o
       356          4          0          0          0        140   dadd.o
       240          6          0          0          0         84   ddiv.o
       236          0          0          0          0        216   depilogue.o
        72         10          0          0          0         72   dfixi.o
        60         10          0          0          0         68   dfixui.o
        64         10          0          0          0         68   dfixul.o
        40          6          0          0          0         68   dflti.o
        28          4          0          0          0         68   dfltui.o
       208          6          0          0          0         88   dmul.o
       162          0          0          0          0         80   dsqrt.o
        40          0          0          0          0         60   f2d.o
       178          0          0          0          0        108   fadd.o
        28          0          0          0          0         60   fcmpeq.o
        28          0          0          0          0         60   fcmpge.o
        28          0          0          0          0         60   fcmpgt.o
        28          0          0          0          0         60   fcmple.o
       130          0          0          0          0        144   fepilogue.o
        50          0          0          0          0         60   ffixi.o
        22          0          0          0          0         68   fflti.o
       122          0          0          0          0         72   fmul.o

    ----------------------------------------------------------------------
      6108        414          0          4          0      85891   Library Totals
        34          4          0          0          0          0   (incl. Padding)

    ----------------------------------------------------------------------

      Code (inc. data)   RO Data    RW Data    ZI Data      Debug   Library Name

      1094        228          0          0          0      82855   driverlib.a
        72          6          0          0          0         76   m_ps.l
      2692        118          0          4          0       1120   mc_p.l
      2216         58          0          0          0       1840   mf_p.l

    ----------------------------------------------------------------------
      6108        414          0          4          0      85891   Library Totals

    ----------------------------------------------------------------------

==============================================================================


      Code (inc. data)   RO Data    RW Data    ZI Data      Debug   

     22412       1178      14556         12       1804     183877   Grand Totals
     22412       1178      14556         12       1804     183877   ELF Image Totals
     22412       1178      14556         12          0          0   ROM Totals

==============================================================================

    Total RO  Size (Code + RO Data)                36968 (  36.10kB)
    Total RW  Size (RW Data + ZI Data)              1816 (   1.77kB)
    Total ROM Size (Code + RO Data + RW Data)      36980 (  36.11kB)

==============================================================================

