Component: Arm Compiler for Embedded 6.21 Tool: armlink [5ec1fa00]

==============================================================================

Section Cross References

    empty.o(.text.main) refers to ti_msp_dl_config.o(.text.SYSCFG_DL_init) for SYSCFG_DL_init
    empty.o(.text.main) refers to mid_debug_uart.o(.text.debug_uart_init) for debug_uart_init
    empty.o(.text.main) refers to mid_button.o(.text.user_button_init) for user_button_init
    empty.o(.text.main) refers to hw_lcd.o(.text.lcd_init) for lcd_init
    empty.o(.text.main) refers to empty.o(.text.ui_home_page) for ui_home_page
    empty.o(.text.main) refers to mid_button.o(.text.flex_button_scan) for flex_button_scan
    empty.o(.text.main) refers to app_key_task.o(.text.get_app_key_current_mode) for get_app_key_current_mode
    empty.o(.text.main) refers to empty.o(.text.ui_home_page_select) for ui_home_page_select
    empty.o(.text.main) refers to dl_common.o(.text.DL_Common_delayCycles) for DL_Common_delayCycles
    empty.o(.ARM.exidx.text.main) refers to empty.o(.text.main) for [Anonymous Symbol]
    empty.o(.text.ui_home_page) refers to empty.o(.text.DL_GPIO_clearPins) for DL_GPIO_clearPins
    empty.o(.text.ui_home_page) refers to hw_lcd.o(.text.LCD_Fill) for LCD_Fill
    empty.o(.text.ui_home_page) refers to empty.o(.text.disp_x_center) for disp_x_center
    empty.o(.text.ui_home_page) refers to empty.o(.text.disp_string_rect) for disp_string_rect
    empty.o(.text.ui_home_page) refers to empty.o(.text.disp_select_box) for disp_select_box
    empty.o(.text.ui_home_page) refers to empty.o(.text.DL_GPIO_setPins) for DL_GPIO_setPins
    empty.o(.text.ui_home_page) refers to empty.o(.rodata.str1.1) for [Anonymous Symbol]
    empty.o(.ARM.exidx.text.ui_home_page) refers to empty.o(.text.ui_home_page) for [Anonymous Symbol]
==============================================================================

Removing Unused input sections from the image.

    Removing empty.o(.text), (0 bytes).
    Removing empty.o(.ARM.exidx.text.main), (8 bytes).
    Removing empty.o(.ARM.exidx.text.ui_home_page), (8 bytes).
    Removing empty.o(.ARM.exidx.text.ui_home_page_select), (8 bytes).
    Removing empty.o(.ARM.exidx.text.disp_x_center), (8 bytes).
    Removing empty.o(.ARM.exidx.text.disp_string_rect), (8 bytes).
    Removing empty.o(.ARM.exidx.text.disp_select_box), (8 bytes).
    Removing empty.o(.ARM.exidx.text.DL_GPIO_clearPins), (8 bytes).
    Removing empty.o(.ARM.exidx.text.DL_GPIO_setPins), (8 bytes).
    Removing empty.o(.ARM.use_no_argv), (4 bytes).
    Removing startup_mspm0g350x_uvision.o(HEAP), (1024 bytes).
    Removing ti_msp_dl_config.o(.text), (0 bytes).
    Removing ti_msp_dl_config.o(.ARM.exidx.text.SYSCFG_DL_init), (8 bytes).
    Removing ti_msp_dl_config.o(.ARM.exidx.text.SYSCFG_DL_initPower), (8 bytes).
    Removing ti_msp_dl_config.o(.ARM.exidx.text.SYSCFG_DL_GPIO_init), (8 bytes).
    Removing ti_msp_dl_config.o(.ARM.exidx.text.SYSCFG_DL_SYSCTL_init), (8 bytes).
    Removing ti_msp_dl_config.o(.ARM.exidx.text.SYSCFG_DL_UART_DEBUG_init), (8 bytes).
    Removing ti_msp_dl_config.o(.ARM.exidx.text.SYSCFG_DL_SPI_LCD_init), (8 bytes).
==============================================================================

Image Symbol Table

    Local Symbols

    Symbol Name                              Value     Ov Type        Size  Object(Section)

    ../clib/division.s                       0x00000000   Number         0  aeabi_sdivfast.o ABSOLUTE
    ../clib/division.s                       0x00000000   Number         0  aeabi_sdivfast_div0.o ABSOLUTE
    ../clib/microlib/division.c              0x00000000   Number         0  uidiv.o ABSOLUTE
    ../clib/microlib/division.c              0x00000000   Number         0  uidiv_div0.o ABSOLUTE
    ../clib/microlib/division.c              0x00000000   Number         0  idiv_div0.o ABSOLUTE
    ../clib/microlib/division.c              0x00000000   Number         0  idiv0.o ABSOLUTE
    ../clib/microlib/errno.c                 0x00000000   Number         0  errno.o ABSOLUTE
    ../clib/microlib/init/entry.s            0x00000000   Number         0  entry.o ABSOLUTE
    ../clib/microlib/init/entry.s            0x00000000   Number         0  entry2.o ABSOLUTE
    ../clib/microlib/init/entry.s            0x00000000   Number         0  entry5.o ABSOLUTE
    ../clib/microlib/init/entry.s            0x00000000   Number         0  entry7a.o ABSOLUTE
    ../clib/microlib/init/entry.s            0x00000000   Number         0  entry7b.o ABSOLUTE
    ../clib/microlib/init/entry.s            0x00000000   Number         0  entry8a.o ABSOLUTE
    ../clib/microlib/init/entry.s            0x00000000   Number         0  entry8b.o ABSOLUTE
    ../clib/microlib/init/entry.s            0x00000000   Number         0  entry9a.o ABSOLUTE
    ../clib/microlib/init/entry.s            0x00000000   Number         0  entry9b.o ABSOLUTE
    ../clib/microlib/init/entry.s            0x00000000   Number         0  entry10a.o ABSOLUTE
    ../clib/microlib/init/entry.s            0x00000000   Number         0  entry10b.o ABSOLUTE
    ../clib/microlib/init/entry.s            0x00000000   Number         0  entry11a.o ABSOLUTE
    ../clib/microlib/init/entry.s            0x00000000   Number         0  entry11b.o ABSOLUTE
    ../clib/microlib/longlong.c              0x00000000   Number         0  llushr.o ABSOLUTE
    ../clib/microlib/longlong.c              0x00000000   Number         0  llshl.o ABSOLUTE
    ../clib/microlib/string/memset.c         0x00000000   Number         0  memseta.o ABSOLUTE
    ../clib/microlib/stubs.s                 0x00000000   Number         0  iusefp.o ABSOLUTE
    ../fplib/microlib/fpepilogue.c           0x00000000   Number         0  depilogue.o ABSOLUTE
    ../fplib/microlib/fpfix.c                0x00000000   Number         0  ffixui.o ABSOLUTE
    ../fplib/microlib/fpfix.c                0x00000000   Number         0  dfixi.o ABSOLUTE
    ../fplib/microlib/fpflt.c                0x00000000   Number         0  dfltui.o ABSOLUTE
    ../fplib/microlib/fpmul.c                0x00000000   Number         0  fmul.o ABSOLUTE
    ../fplib/microlib/fpsqrt.c               0x00000000   Number         0  dsqrt.o ABSOLUTE
    ../mathlib/sqrt.c                        0x00000000   Number         0  sqrt.o ABSOLUTE
    app_key_task.c                           0x00000000   Number         0  app_key_task.o ABSOLUTE
    dc.s                                     0x00000000   Number         0  dc.o ABSOLUTE
    dl_common.c                              0x00000000   Number         0  dl_common.o ABSOLUTE
    dl_spi.c                                 0x00000000   Number         0  dl_spi.o ABSOLUTE
    dl_sysctl_mspm0g1x0x_g3x0x.c             0x00000000   Number         0  dl_sysctl_mspm0g1x0x_g3x0x.o ABSOLUTE
    dl_uart.c                                0x00000000   Number         0  dl_uart.o ABSOLUTE
    empty.c                                  0x00000000   Number         0  empty.o ABSOLUTE
    handlers.s                               0x00000000   Number         0  handlers.o ABSOLUTE
    hw_key.c                                 0x00000000   Number         0  hw_key.o ABSOLUTE
    hw_lcd.c                                 0x00000000   Number         0  hw_lcd.o ABSOLUTE
    init.s                                   0x00000000   Number         0  init.o ABSOLUTE
    mid_button.c                             0x00000000   Number         0  mid_button.o ABSOLUTE
    mid_debug_led.c                          0x00000000   Number         0  mid_debug_led.o ABSOLUTE
    mid_debug_uart.c                         0x00000000   Number         0  mid_debug_uart.o ABSOLUTE
    startup_mspm0g350x_uvision.s             0x00000000   Number         0  startup_mspm0g350x_uvision.o ABSOLUTE
    ti_msp_dl_config.c                       0x00000000   Number         0  ti_msp_dl_config.o ABSOLUTE
    RESET                                    0x00000000   Section      192  startup_mspm0g350x_uvision.o(RESET)
    .ARM.Collect$$$$00000000                 0x000000c0   Section        0  entry.o(.ARM.Collect$$$$00000000)
    .ARM.Collect$$$$00000001                 0x000000c0   Section        4  entry2.o(.ARM.Collect$$$$00000001)
    .ARM.Collect$$$$00000004                 0x000000c4   Section        4  entry5.o(.ARM.Collect$$$$00000004)
    .ARM.Collect$$$$00000008                 0x000000c8   Section        0  entry7b.o(.ARM.Collect$$$$00000008)
    .ARM.Collect$$$$0000000A                 0x000000c8   Section        0  entry8b.o(.ARM.Collect$$$$0000000A)
    .ARM.Collect$$$$0000000B                 0x000000c8   Section        8  entry9a.o(.ARM.Collect$$$$0000000B)
    __lit__00000000                          0x000000d0   Data           4  entry2.o(.ARM.Collect$$$$00002712)
    .ARM.Collect$$$$0000000D                 0x000000d0   Section        0  entry10a.o(.ARM.Collect$$$$0000000D)
    .ARM.Collect$$$$0000000F                 0x000000d0   Section        0  entry11a.o(.ARM.Collect$$$$0000000F)
    .ARM.Collect$$$$00002712                 0x000000d0   Section        4  entry2.o(.ARM.Collect$$$$00002712)
    .text                                    0x000000d4   Section       20  startup_mspm0g350x_uvision.o(.text)
    .text                                    0x000000e8   Section        0  memseta.o(.text)
    .text                                    0x0000010c   Section        0  dfltui.o(.text)
    .text                                    0x00000128   Section        0  dfixi.o(.text)
    .text                                    0x00000170   Section        0  uidiv_div0.o(.text)
    .text                                    0x000001ae   Section        0  llushr.o(.text)
    .text                                    0x000001d0   Section        0  iusefp.o(.text)
    .text                                    0x000001d0   Section        0  depilogue.o(.text)
    .text                                    0x0000028e   Section        0  dsqrt.o(.text)
    .text                                    0x00000330   Section       48  init.o(.text)
    .text                                    0x00000360   Section        0  llshl.o(.text)
    [Anonymous Symbol]                       0x00000380   Section        0  dl_common.o(.text.DL_Common_delayCycles)
    DL_Common_updateReg                      0x0000038b   Thumb Code    40  ti_msp_dl_config.o(.text.DL_Common_updateReg)
    [Anonymous Symbol]                       0x0000038a   Section        0  ti_msp_dl_config.o(.text.DL_Common_updateReg)
    DL_GPIO_clearPins                        0x000003b3   Thumb Code    20  empty.o(.text.DL_GPIO_clearPins)
    [Anonymous Symbol]                       0x000003b2   Section        0  empty.o(.text.DL_GPIO_clearPins)
    DL_GPIO_clearPins                        0x000003c7   Thumb Code    20  ti_msp_dl_config.o(.text.DL_GPIO_clearPins)
    [Anonymous Symbol]                       0x000003c6   Section        0  ti_msp_dl_config.o(.text.DL_GPIO_clearPins)
    DL_GPIO_clearPins                        0x000003db   Thumb Code    20  hw_lcd.o(.text.DL_GPIO_clearPins)
    [Anonymous Symbol]                       0x000003da   Section        0  hw_lcd.o(.text.DL_GPIO_clearPins)
    DL_GPIO_enableOutput                     0x000003f1   Thumb Code    20  ti_msp_dl_config.o(.text.DL_GPIO_enableOutput)
    [Anonymous Symbol]                       0x000003f0   Section        0  ti_msp_dl_config.o(.text.DL_GPIO_enableOutput)
    __arm_cp.21_0                            0x00000404   Number         4  ti_msp_dl_config.o(.text.DL_GPIO_enableOutput)
    DL_GPIO_enablePower                      0x00000409   Thumb Code    20  ti_msp_dl_config.o(.text.DL_GPIO_enablePower)
    [Anonymous Symbol]                       0x00000408   Section        0  ti_msp_dl_config.o(.text.DL_GPIO_enablePower)
    DL_GPIO_initDigitalInputFeatures         0x0000041d   Thumb Code    44  ti_msp_dl_config.o(.text.DL_GPIO_initDigitalInputFeatures)
    [Anonymous Symbol]                       0x0000041c   Section        0  ti_msp_dl_config.o(.text.DL_GPIO_initDigitalInputFeatures)
    __arm_cp.19_0                            0x00000448   Number         4  ti_msp_dl_config.o(.text.DL_GPIO_initDigitalInputFeatures)
    DL_GPIO_initDigitalOutput                0x0000044d   Thumb Code    20  ti_msp_dl_config.o(.text.DL_GPIO_initDigitalOutput)
    [Anonymous Symbol]                       0x0000044c   Section        0  ti_msp_dl_config.o(.text.DL_GPIO_initDigitalOutput)
    DL_GPIO_initDigitalOutputFeatures        0x00000461   Thumb Code    44  ti_msp_dl_config.o(.text.DL_GPIO_initDigitalOutputFeatures)
    [Anonymous Symbol]                       0x00000460   Section        0  ti_msp_dl_config.o(.text.DL_GPIO_initDigitalOutputFeatures)
    DL_GPIO_initPeripheralAnalogFunction     0x0000048d   Thumb Code    20  ti_msp_dl_config.o(.text.DL_GPIO_initPeripheralAnalogFunction)
    [Anonymous Symbol]                       0x0000048c   Section        0  ti_msp_dl_config.o(.text.DL_GPIO_initPeripheralAnalogFunction)
    DL_GPIO_initPeripheralInputFunction      0x000004a1   Thumb Code    24  ti_msp_dl_config.o(.text.DL_GPIO_initPeripheralInputFunction)
    [Anonymous Symbol]                       0x000004a0   Section        0  ti_msp_dl_config.o(.text.DL_GPIO_initPeripheralInputFunction)
    __arm_cp.16_0                            0x000004b8   Number         4  ti_msp_dl_config.o(.text.DL_GPIO_initPeripheralInputFunction)
    DL_GPIO_initPeripheralOutputFunction     0x000004bd   Thumb Code    24  ti_msp_dl_config.o(.text.DL_GPIO_initPeripheralOutputFunction)
    [Anonymous Symbol]                       0x000004bc   Section        0  ti_msp_dl_config.o(.text.DL_GPIO_initPeripheralOutputFunction)
    __arm_cp.15_0                            0x000004d4   Number         4  ti_msp_dl_config.o(.text.DL_GPIO_initPeripheralOutputFunction)
    DL_GPIO_readPins                         0x000004d9   Thumb Code    22  hw_key.o(.text.DL_GPIO_readPins)
    [Anonymous Symbol]                       0x000004d8   Section        0  hw_key.o(.text.DL_GPIO_readPins)
    DL_GPIO_reset                            0x000004f1   Thumb Code    16  ti_msp_dl_config.o(.text.DL_GPIO_reset)
    [Anonymous Symbol]                       0x000004f0   Section        0  ti_msp_dl_config.o(.text.DL_GPIO_reset)
    DL_GPIO_setPins                          0x00000501   Thumb Code    20  empty.o(.text.DL_GPIO_setPins)
    [Anonymous Symbol]                       0x00000500   Section        0  empty.o(.text.DL_GPIO_setPins)
    DL_GPIO_setPins                          0x00000515   Thumb Code    20  hw_lcd.o(.text.DL_GPIO_setPins)
    [Anonymous Symbol]                       0x00000514   Section        0  hw_lcd.o(.text.DL_GPIO_setPins)
    __arm_cp.5_0                             0x00000528   Number         4  hw_lcd.o(.text.DL_GPIO_setPins)
    DL_SPI_enable                            0x0000052d   Thumb Code    20  ti_msp_dl_config.o(.text.DL_SPI_enable)
    [Anonymous Symbol]                       0x0000052c   Section        0  ti_msp_dl_config.o(.text.DL_SPI_enable)
    __arm_cp.35_0                            0x00000540   Number         4  ti_msp_dl_config.o(.text.DL_SPI_enable)
    DL_SPI_enablePower                       0x00000545   Thumb Code    20  ti_msp_dl_config.o(.text.DL_SPI_enablePower)
    [Anonymous Symbol]                       0x00000544   Section        0  ti_msp_dl_config.o(.text.DL_SPI_enablePower)
    __arm_cp.13_0                            0x00000558   Number         4  ti_msp_dl_config.o(.text.DL_SPI_enablePower)
    [Anonymous Symbol]                       0x0000055c   Section        0  dl_spi.o(.text.DL_SPI_init)
    __arm_cp.0_0                             0x00000598   Number         4  dl_spi.o(.text.DL_SPI_init)
    __arm_cp.0_1                             0x0000059c   Number         4  dl_spi.o(.text.DL_SPI_init)
    DL_SPI_isBusy                            0x000005a1   Thumb Code    20  hw_lcd.o(.text.DL_SPI_isBusy)
    [Anonymous Symbol]                       0x000005a0   Section        0  hw_lcd.o(.text.DL_SPI_isBusy)
    DL_SPI_reset                             0x000005b5   Thumb Code    16  ti_msp_dl_config.o(.text.DL_SPI_reset)
    [Anonymous Symbol]                       0x000005b4   Section        0  ti_msp_dl_config.o(.text.DL_SPI_reset)
    __arm_cp.10_0                            0x000005c4   Number         4  ti_msp_dl_config.o(.text.DL_SPI_reset)
    __arm_cp.10_1                            0x000005c8   Number         4  ti_msp_dl_config.o(.text.DL_SPI_reset)
    DL_SPI_setBitRateSerialClockDivider      0x000005cd   Thumb Code    28  ti_msp_dl_config.o(.text.DL_SPI_setBitRateSerialClockDivider)
    [Anonymous Symbol]                       0x000005cc   Section        0  ti_msp_dl_config.o(.text.DL_SPI_setBitRateSerialClockDivider)
    __arm_cp.33_0                            0x000005e8   Number         4  ti_msp_dl_config.o(.text.DL_SPI_setBitRateSerialClockDivider)
    __arm_cp.33_1                            0x000005ec   Number         4  ti_msp_dl_config.o(.text.DL_SPI_setBitRateSerialClockDivider)
    [Anonymous Symbol]                       0x000005f0   Section        0  dl_spi.o(.text.DL_SPI_setClockConfig)
    DL_SPI_setFIFOThreshold                  0x00000605   Thumb Code    44  ti_msp_dl_config.o(.text.DL_SPI_setFIFOThreshold)
    [Anonymous Symbol]                       0x00000604   Section        0  ti_msp_dl_config.o(.text.DL_SPI_setFIFOThreshold)
    __arm_cp.34_0                            0x00000630   Number         4  ti_msp_dl_config.o(.text.DL_SPI_setFIFOThreshold)
    DL_SPI_transmitData8                     0x00000635   Thumb Code    22  hw_lcd.o(.text.DL_SPI_transmitData8)
    [Anonymous Symbol]                       0x00000634   Section        0  hw_lcd.o(.text.DL_SPI_transmitData8)
    [Anonymous Symbol]                       0x0000064c   Section        0  dl_sysctl_mspm0g1x0x_g3x0x.o(.text.DL_SYSCTL_configSYSPLL)
    __arm_cp.0_2                             0x00000700   Number         4  dl_sysctl_mspm0g1x0x_g3x0x.o(.text.DL_SYSCTL_configSYSPLL)
    __arm_cp.0_3                             0x00000704   Number         4  dl_sysctl_mspm0g1x0x_g3x0x.o(.text.DL_SYSCTL_configSYSPLL)
    __arm_cp.0_4                             0x00000708   Number         4  dl_sysctl_mspm0g1x0x_g3x0x.o(.text.DL_SYSCTL_configSYSPLL)
    DL_SYSCTL_disableHFXT                    0x0000070d   Thumb Code    12  ti_msp_dl_config.o(.text.DL_SYSCTL_disableHFXT)
    [Anonymous Symbol]                       0x0000070c   Section        0  ti_msp_dl_config.o(.text.DL_SYSCTL_disableHFXT)
    DL_SYSCTL_disableSYSPLL                  0x00000719   Thumb Code    16  ti_msp_dl_config.o(.text.DL_SYSCTL_disableSYSPLL)
    [Anonymous Symbol]                       0x00000718   Section        0  ti_msp_dl_config.o(.text.DL_SYSCTL_disableSYSPLL)
    __arm_cp.26_0                            0x00000728   Number         4  ti_msp_dl_config.o(.text.DL_SYSCTL_disableSYSPLL)
    DL_SYSCTL_setBORThreshold                0x0000072d   Thumb Code    20  ti_msp_dl_config.o(.text.DL_SYSCTL_setBORThreshold)
    [Anonymous Symbol]                       0x0000072c   Section        0  ti_msp_dl_config.o(.text.DL_SYSCTL_setBORThreshold)
    __arm_cp.22_0                            0x00000740   Number         4  ti_msp_dl_config.o(.text.DL_SYSCTL_setBORThreshold)
    DL_SYSCTL_setFlashWaitState              0x00000745   Thumb Code    28  ti_msp_dl_config.o(.text.DL_SYSCTL_setFlashWaitState)
    [Anonymous Symbol]                       0x00000744   Section        0  ti_msp_dl_config.o(.text.DL_SYSCTL_setFlashWaitState)
    [Anonymous Symbol]                       0x00000760   Section        0  dl_sysctl_mspm0g1x0x_g3x0x.o(.text.DL_SYSCTL_setHFCLKSourceHFXTParams)
    __arm_cp.7_0                             0x000007ac   Number         4  dl_sysctl_mspm0g1x0x_g3x0x.o(.text.DL_SYSCTL_setHFCLKSourceHFXTParams)
    DL_SYSCTL_setSYSOSCFreq                  0x000007b1   Thumb Code    24  ti_msp_dl_config.o(.text.DL_SYSCTL_setSYSOSCFreq)
    [Anonymous Symbol]                       0x000007b0   Section        0  ti_msp_dl_config.o(.text.DL_SYSCTL_setSYSOSCFreq)
    __arm_cp.24_0                            0x000007c8   Number         4  ti_msp_dl_config.o(.text.DL_SYSCTL_setSYSOSCFreq)
    DL_SYSCTL_setULPCLKDivider               0x000007cd   Thumb Code    24  ti_msp_dl_config.o(.text.DL_SYSCTL_setULPCLKDivider)
    [Anonymous Symbol]                       0x000007cc   Section        0  ti_msp_dl_config.o(.text.DL_SYSCTL_setULPCLKDivider)
    [Anonymous Symbol]                       0x000007e4   Section        0  dl_sysctl_mspm0g1x0x_g3x0x.o(.text.DL_SYSCTL_switchMCLKfromSYSOSCtoHSCLK)
    __arm_cp.4_0                             0x00000804   Number         4  dl_sysctl_mspm0g1x0x_g3x0x.o(.text.DL_SYSCTL_switchMCLKfromSYSOSCtoHSCLK)
    __arm_cp.4_1                             0x00000808   Number         4  dl_sysctl_mspm0g1x0x_g3x0x.o(.text.DL_SYSCTL_switchMCLKfromSYSOSCtoHSCLK)
    DL_UART_enable                           0x0000080d   Thumb Code    22  ti_msp_dl_config.o(.text.DL_UART_enable)
    [Anonymous Symbol]                       0x0000080c   Section        0  ti_msp_dl_config.o(.text.DL_UART_enable)
    DL_UART_enableInterrupt                  0x00000825   Thumb Code    24  ti_msp_dl_config.o(.text.DL_UART_enableInterrupt)
    [Anonymous Symbol]                       0x00000824   Section        0  ti_msp_dl_config.o(.text.DL_UART_enableInterrupt)
    __arm_cp.30_0                            0x0000083c   Number         4  ti_msp_dl_config.o(.text.DL_UART_enableInterrupt)
    DL_UART_enablePower                      0x00000841   Thumb Code    20  ti_msp_dl_config.o(.text.DL_UART_enablePower)
    [Anonymous Symbol]                       0x00000840   Section        0  ti_msp_dl_config.o(.text.DL_UART_enablePower)
    __arm_cp.12_0                            0x00000854   Number         4  ti_msp_dl_config.o(.text.DL_UART_enablePower)
    DL_UART_getPendingInterrupt              0x00000859   Thumb Code    18  mid_debug_uart.o(.text.DL_UART_getPendingInterrupt)
    [Anonymous Symbol]                       0x00000858   Section        0  mid_debug_uart.o(.text.DL_UART_getPendingInterrupt)
    [Anonymous Symbol]                       0x0000086c   Section        0  dl_uart.o(.text.DL_UART_init)
    __arm_cp.0_0                             0x000008ac   Number         4  dl_uart.o(.text.DL_UART_init)
    __arm_cp.0_1                             0x000008b0   Number         4  dl_uart.o(.text.DL_UART_init)
    DL_UART_receiveData                      0x000008b5   Thumb Code    16  mid_debug_uart.o(.text.DL_UART_receiveData)
    [Anonymous Symbol]                       0x000008b4   Section        0  mid_debug_uart.o(.text.DL_UART_receiveData)
    __arm_cp.11_0                            0x000008c4   Number         4  mid_debug_uart.o(.text.DL_UART_receiveData)
    DL_UART_reset                            0x000008c9   Thumb Code    16  ti_msp_dl_config.o(.text.DL_UART_reset)
    [Anonymous Symbol]                       0x000008c8   Section        0  ti_msp_dl_config.o(.text.DL_UART_reset)
    __arm_cp.9_0                             0x000008d8   Number         4  ti_msp_dl_config.o(.text.DL_UART_reset)
    __arm_cp.9_1                             0x000008dc   Number         4  ti_msp_dl_config.o(.text.DL_UART_reset)
    DL_UART_setBaudRateDivisor               0x000008e1   Thumb Code    60  ti_msp_dl_config.o(.text.DL_UART_setBaudRateDivisor)
    [Anonymous Symbol]                       0x000008e0   Section        0  ti_msp_dl_config.o(.text.DL_UART_setBaudRateDivisor)
    __arm_cp.29_0                            0x0000091c   Number         4  ti_msp_dl_config.o(.text.DL_UART_setBaudRateDivisor)
    __arm_cp.29_1                            0x00000920   Number         4  ti_msp_dl_config.o(.text.DL_UART_setBaudRateDivisor)
    __arm_cp.29_2                            0x00000924   Number         4  ti_msp_dl_config.o(.text.DL_UART_setBaudRateDivisor)
    __arm_cp.29_3                            0x00000928   Number         4  ti_msp_dl_config.o(.text.DL_UART_setBaudRateDivisor)
    [Anonymous Symbol]                       0x0000092c   Section        0  dl_uart.o(.text.DL_UART_setClockConfig)
    DL_UART_setOversampling                  0x0000093f   Thumb Code    30  ti_msp_dl_config.o(.text.DL_UART_setOversampling)
    [Anonymous Symbol]                       0x0000093e   Section        0  ti_msp_dl_config.o(.text.DL_UART_setOversampling)
    [Anonymous Symbol]                       0x0000095c   Section        0  hw_lcd.o(.text.Drawarc)
    [Anonymous Symbol]                       0x00000aae   Section        0  hw_lcd.o(.text.LCD_Address_Set)
    [Anonymous Symbol]                       0x00000aec   Section        0  hw_lcd.o(.text.LCD_ArcRect)
    [Anonymous Symbol]                       0x00000c36   Section        0  hw_lcd.o(.text.LCD_DrawLine)
    [Anonymous Symbol]                       0x00000d42   Section        0  hw_lcd.o(.text.LCD_DrawPoint)
    [Anonymous Symbol]                       0x00000d62   Section        0  hw_lcd.o(.text.LCD_Fill)
    [Anonymous Symbol]                       0x00000dc0   Section        0  hw_lcd.o(.text.LCD_ShowChar)
    __arm_cp.24_0                            0x00000f8c   Number         4  hw_lcd.o(.text.LCD_ShowChar)
    __arm_cp.24_1                            0x00000f90   Number         4  hw_lcd.o(.text.LCD_ShowChar)
    __arm_cp.24_2                            0x00000f94   Number         4  hw_lcd.o(.text.LCD_ShowChar)
    __arm_cp.24_3                            0x00000f98   Number         4  hw_lcd.o(.text.LCD_ShowChar)
    [Anonymous Symbol]                       0x00000f9c   Section        0  hw_lcd.o(.text.LCD_ShowChinese)
    [Anonymous Symbol]                       0x000010c4   Section        0  hw_lcd.o(.text.LCD_ShowChinese12x12)
    __arm_cp.20_0                            0x0000125c   Number         4  hw_lcd.o(.text.LCD_ShowChinese12x12)
    [Anonymous Symbol]                       0x00001260   Section        0  hw_lcd.o(.text.LCD_ShowChinese16x16)
    __arm_cp.21_0                            0x000013f8   Number         4  hw_lcd.o(.text.LCD_ShowChinese16x16)
    [Anonymous Symbol]                       0x000013fc   Section        0  hw_lcd.o(.text.LCD_ShowChinese24x24)
    __arm_cp.22_0                            0x00001594   Number         4  hw_lcd.o(.text.LCD_ShowChinese24x24)
    [Anonymous Symbol]                       0x00001598   Section        0  hw_lcd.o(.text.LCD_ShowChinese32x32)
    __arm_cp.23_0                            0x00001730   Number         4  hw_lcd.o(.text.LCD_ShowChinese32x32)
    [Anonymous Symbol]                       0x00001734   Section        0  hw_lcd.o(.text.LCD_WR_DATA)
    [Anonymous Symbol]                       0x00001750   Section        0  hw_lcd.o(.text.LCD_WR_DATA8)
    [Anonymous Symbol]                       0x00001764   Section        0  hw_lcd.o(.text.LCD_WR_REG)
    [Anonymous Symbol]                       0x00001790   Section        0  hw_lcd.o(.text.LCD_Writ_Bus)
    [Anonymous Symbol]                       0x000017bc   Section        0  ti_msp_dl_config.o(.text.SYSCFG_DL_GPIO_init)
    __arm_cp.2_1                             0x00001874   Number         4  ti_msp_dl_config.o(.text.SYSCFG_DL_GPIO_init)
    [Anonymous Symbol]                       0x00001878   Section        0  ti_msp_dl_config.o(.text.SYSCFG_DL_SPI_LCD_init)
    __arm_cp.5_0                             0x000018ac   Number         4  ti_msp_dl_config.o(.text.SYSCFG_DL_SPI_LCD_init)
    __arm_cp.5_2                             0x000018b0   Number         4  ti_msp_dl_config.o(.text.SYSCFG_DL_SPI_LCD_init)
    [Anonymous Symbol]                       0x000018b4   Section        0  ti_msp_dl_config.o(.text.SYSCFG_DL_SYSCTL_init)
    __arm_cp.3_0                             0x000018fc   Number         4  ti_msp_dl_config.o(.text.SYSCFG_DL_SYSCTL_init)
    [Anonymous Symbol]                       0x00001900   Section        0  ti_msp_dl_config.o(.text.SYSCFG_DL_UART_DEBUG_init)
    __arm_cp.4_0                             0x00001948   Number         4  ti_msp_dl_config.o(.text.SYSCFG_DL_UART_DEBUG_init)
    __arm_cp.4_2                             0x0000194c   Number         4  ti_msp_dl_config.o(.text.SYSCFG_DL_UART_DEBUG_init)
    [Anonymous Symbol]                       0x00001950   Section        0  ti_msp_dl_config.o(.text.SYSCFG_DL_init)
    __arm_cp.0_0                             0x00001970   Number         4  ti_msp_dl_config.o(.text.SYSCFG_DL_init)
    [Anonymous Symbol]                       0x00001974   Section        0  ti_msp_dl_config.o(.text.SYSCFG_DL_initPower)
    __arm_cp.1_0                             0x000019bc   Number         4  ti_msp_dl_config.o(.text.SYSCFG_DL_initPower)
    __arm_cp.1_1                             0x000019c0   Number         4  ti_msp_dl_config.o(.text.SYSCFG_DL_initPower)
    __arm_cp.1_3                             0x000019c4   Number         4  ti_msp_dl_config.o(.text.SYSCFG_DL_initPower)
    [Anonymous Symbol]                       0x000019c8   Section        0  mid_debug_uart.o(.text.UART0_IRQHandler)
    __arm_cp.9_0                             0x000019f0   Number         4  mid_debug_uart.o(.text.UART0_IRQHandler)
    __NVIC_ClearPendingIRQ                   0x000019f5   Thumb Code    40  mid_debug_uart.o(.text.__NVIC_ClearPendingIRQ)
    [Anonymous Symbol]                       0x000019f4   Section        0  mid_debug_uart.o(.text.__NVIC_ClearPendingIRQ)
    __arm_cp.1_0                             0x00001a1c   Number         4  mid_debug_uart.o(.text.__NVIC_ClearPendingIRQ)
    __NVIC_EnableIRQ                         0x00001a21   Thumb Code    40  mid_debug_uart.o(.text.__NVIC_EnableIRQ)
    [Anonymous Symbol]                       0x00001a20   Section        0  mid_debug_uart.o(.text.__NVIC_EnableIRQ)
    __arm_cp.2_0                             0x00001a48   Number         4  mid_debug_uart.o(.text.__NVIC_EnableIRQ)
    __NVIC_SetPriority                       0x00001a4d   Thumb Code   124  ti_msp_dl_config.o(.text.__NVIC_SetPriority)
    [Anonymous Symbol]                       0x00001a4c   Section        0  ti_msp_dl_config.o(.text.__NVIC_SetPriority)
    __arm_cp.31_0                            0x00001ac8   Number         4  ti_msp_dl_config.o(.text.__NVIC_SetPriority)
    __arm_cp.31_1                            0x00001acc   Number         4  ti_msp_dl_config.o(.text.__NVIC_SetPriority)
    [Anonymous Symbol]                       0x00001ad0   Section        0  app_key_task.o(.text.btn_down_cb)
    [Anonymous Symbol]                       0x00001b00   Section        0  app_key_task.o(.text.btn_left_cb)
    [Anonymous Symbol]                       0x00001b34   Section        0  app_key_task.o(.text.btn_right_cb)
    [Anonymous Symbol]                       0x00001b68   Section        0  app_key_task.o(.text.btn_up_cb)
    button_down_read                         0x00001b99   Thumb Code    22  mid_button.o(.text.button_down_read)
    [Anonymous Symbol]                       0x00001b98   Section        0  mid_button.o(.text.button_down_read)
    button_left_read                         0x00001baf   Thumb Code    22  mid_button.o(.text.button_left_read)
    [Anonymous Symbol]                       0x00001bae   Section        0  mid_button.o(.text.button_left_read)
    button_right_read                        0x00001bc5   Thumb Code    22  mid_button.o(.text.button_right_read)
    [Anonymous Symbol]                       0x00001bc4   Section        0  mid_button.o(.text.button_right_read)
    button_up_read                           0x00001bdb   Thumb Code    22  mid_button.o(.text.button_up_read)
    [Anonymous Symbol]                       0x00001bda   Section        0  mid_button.o(.text.button_up_read)
    [Anonymous Symbol]                       0x00001bf0   Section        0  mid_debug_uart.o(.text.debug_uart_init)
    debug_uart_receive_limit_length          0x00001c09   Thumb Code    40  mid_debug_uart.o(.text.debug_uart_receive_limit_length)
    [Anonymous Symbol]                       0x00001c08   Section        0  mid_debug_uart.o(.text.debug_uart_receive_limit_length)
    __arm_cp.12_0                            0x00001c30   Number         4  mid_debug_uart.o(.text.debug_uart_receive_limit_length)
    [Anonymous Symbol]                       0x00001c34   Section        0  empty.o(.text.disp_select_box)
    [Anonymous Symbol]                       0x00001d20   Section        0  empty.o(.text.disp_string_rect)
    [Anonymous Symbol]                       0x00001da4   Section        0  empty.o(.text.disp_x_center)
    __arm_cp.3_0                             0x00001e04   Number         4  empty.o(.text.disp_x_center)
    flex_button_process                      0x00001e09   Thumb Code  1016  mid_button.o(.text.flex_button_process)
    [Anonymous Symbol]                       0x00001e08   Section        0  mid_button.o(.text.flex_button_process)
    __arm_cp.9_0                             0x00002200   Number         4  mid_button.o(.text.flex_button_process)
    __arm_cp.9_1                             0x00002204   Number         4  mid_button.o(.text.flex_button_process)
    __arm_cp.9_2                             0x00002208   Number         4  mid_button.o(.text.flex_button_process)
    flex_button_read                         0x0000220d   Thumb Code   188  mid_button.o(.text.flex_button_read)
    [Anonymous Symbol]                       0x0000220c   Section        0  mid_button.o(.text.flex_button_read)
    __arm_cp.8_1                             0x000022c8   Number         4  mid_button.o(.text.flex_button_read)
    __arm_cp.8_3                             0x000022cc   Number         4  mid_button.o(.text.flex_button_read)
    __arm_cp.8_4                             0x000022d0   Number         4  mid_button.o(.text.flex_button_read)
    [Anonymous Symbol]                       0x000022d4   Section        0  mid_button.o(.text.flex_button_register)
    __arm_cp.5_0                             0x0000236c   Number         4  mid_button.o(.text.flex_button_register)
    __arm_cp.5_1                             0x00002370   Number         4  mid_button.o(.text.flex_button_register)
    __arm_cp.5_2                             0x00002374   Number         4  mid_button.o(.text.flex_button_register)
    [Anonymous Symbol]                       0x00002378   Section        0  mid_button.o(.text.flex_button_scan)
    [Anonymous Symbol]                       0x00002384   Section        0  app_key_task.o(.text.get_app_key_current_mode)
    [Anonymous Symbol]                       0x0000238c   Section        0  hw_key.o(.text.key_scan)
    __arm_cp.0_0                             0x00002414   Number         4  hw_key.o(.text.key_scan)
    [Anonymous Symbol]                       0x00002418   Section        0  hw_lcd.o(.text.lcd_init)
    __arm_cp.10_1                            0x000025d8   Number         4  hw_lcd.o(.text.lcd_init)
    __arm_cp.10_2                            0x000025dc   Number         4  hw_lcd.o(.text.lcd_init)
    __arm_cp.10_3                            0x000025e0   Number         4  hw_lcd.o(.text.lcd_init)
    [Anonymous Symbol]                       0x000025e4   Section        0  empty.o(.text.main)
    __arm_cp.0_0                             0x0000264c   Number         4  empty.o(.text.main)
    __arm_cp.0_1                             0x00002650   Number         4  empty.o(.text.main)
    __arm_cp.0_2                             0x00002654   Number         4  empty.o(.text.main)
    __arm_cp.0_3                             0x00002658   Number         4  empty.o(.text.main)
    __arm_cp.0_4                             0x0000265c   Number         4  empty.o(.text.main)
    [Anonymous Symbol]                       0x00002660   Section        0  app_key_task.o(.text.set_app_key_current_mode)
    __arm_cp.0_0                             0x00002670   Number         4  app_key_task.o(.text.set_app_key_current_mode)
    [Anonymous Symbol]                       0x00002674   Section        0  hw_lcd.o(.text.spi_write_bus)
    __arm_cp.0_0                             0x0000269c   Number         4  hw_lcd.o(.text.spi_write_bus)
    [Anonymous Symbol]                       0x000026a0   Section        0  empty.o(.text.ui_home_page)
    __arm_cp.1_0                             0x00002760   Number         4  empty.o(.text.ui_home_page)
    __arm_cp.1_1                             0x00002764   Number         4  empty.o(.text.ui_home_page)
    __arm_cp.1_2                             0x00002768   Number         4  empty.o(.text.ui_home_page)
    __arm_cp.1_3                             0x0000276c   Number         4  empty.o(.text.ui_home_page)
    __arm_cp.1_4                             0x00002770   Number         4  empty.o(.text.ui_home_page)
    [Anonymous Symbol]                       0x00002774   Section        0  empty.o(.text.ui_home_page_select)
    __arm_cp.2_0                             0x00002814   Number         4  empty.o(.text.ui_home_page_select)
    [Anonymous Symbol]                       0x00002818   Section        0  mid_button.o(.text.user_button_init)
    __arm_cp.0_0                             0x000028b0   Number         4  mid_button.o(.text.user_button_init)
    __arm_cp.0_1                             0x000028b4   Number         4  mid_button.o(.text.user_button_init)
    __arm_cp.0_2                             0x000028b8   Number         4  mid_button.o(.text.user_button_init)
    __arm_cp.0_3                             0x000028bc   Number         4  mid_button.o(.text.user_button_init)
    __arm_cp.0_4                             0x000028c0   Number         4  mid_button.o(.text.user_button_init)
    __arm_cp.0_5                             0x000028c4   Number         4  mid_button.o(.text.user_button_init)
    __arm_cp.0_6                             0x000028c8   Number         4  mid_button.o(.text.user_button_init)
    __arm_cp.0_7                             0x000028cc   Number         4  mid_button.o(.text.user_button_init)
    __arm_cp.0_8                             0x000028d0   Number         4  mid_button.o(.text.user_button_init)
    i.__ARM_clz                              0x000028d4   Section        0  depilogue.o(i.__ARM_clz)
    i.__scatterload_copy                     0x00002908   Section       14  handlers.o(i.__scatterload_copy)
    i.__scatterload_null                     0x00002918   Section        2  handlers.o(i.__scatterload_null)
    i.__scatterload_zeroinit                 0x00002920   Section       14  handlers.o(i.__scatterload_zeroinit)
    i.__set_errno                            0x00002930   Section        0  errno.o(i.__set_errno)
    i.sqrt                                   0x0000293c   Section        0  sqrt.o(i.sqrt)
    gSPI_LCD_clockConfig                     0x00005d78   Data           2  ti_msp_dl_config.o(.rodata.gSPI_LCD_clockConfig)
    [Anonymous Symbol]                       0x00005d78   Section        0  ti_msp_dl_config.o(.rodata.gSPI_LCD_clockConfig)
    gSPI_LCD_config                          0x00005d7a   Data          10  ti_msp_dl_config.o(.rodata.gSPI_LCD_config)
    [Anonymous Symbol]                       0x00005d7a   Section        0  ti_msp_dl_config.o(.rodata.gSPI_LCD_config)
    gSYSPLLConfig                            0x00005d84   Data          40  ti_msp_dl_config.o(.rodata.gSYSPLLConfig)
    [Anonymous Symbol]                       0x00005d84   Section        0  ti_msp_dl_config.o(.rodata.gSYSPLLConfig)
    gUART_DEBUGClockConfig                   0x00005dac   Data           2  ti_msp_dl_config.o(.rodata.gUART_DEBUGClockConfig)
    [Anonymous Symbol]                       0x00005dac   Section        0  ti_msp_dl_config.o(.rodata.gUART_DEBUGClockConfig)
    gUART_DEBUGConfig                        0x00005dae   Data          10  ti_msp_dl_config.o(.rodata.gUART_DEBUGConfig)
    [Anonymous Symbol]                       0x00005dae   Section        0  ti_msp_dl_config.o(.rodata.gUART_DEBUGConfig)
    [Anonymous Symbol]                       0x00005db8   Section        0  empty.o(.rodata.str1.1)
    _errno                                   0x20200000   Data           4  errno.o(.data)
    .data                                    0x20200000   Section        4  errno.o(.data)
    key_rst_data                             0x20200004   Data           2  mid_button.o(.data.key_rst_data)
    [Anonymous Symbol]                       0x20200004   Section        0  mid_button.o(.data.key_rst_data)
    keydata                                  0x20200006   Data           2  mid_button.o(.data.keydata)
    [Anonymous Symbol]                       0x20200006   Section        0  mid_button.o(.data.keydata)
    btn_head                                 0x20200008   Data           4  mid_button.o(.bss.btn_head)
    [Anonymous Symbol]                       0x20200008   Section        0  mid_button.o(.bss.btn_head)
    button_cnt                               0x2020000c   Data           1  mid_button.o(.bss.button_cnt)
    [Anonymous Symbol]                       0x2020000c   Section        0  mid_button.o(.bss.button_cnt)
    cont                                     0x2020000e   Data           2  mid_button.o(.bss.cont)
    [Anonymous Symbol]                       0x2020000e   Section        0  mid_button.o(.bss.cont)
    current_mode                             0x20200010   Data           1  app_key_task.o(.bss.current_mode)
    [Anonymous Symbol]                       0x20200010   Section        0  app_key_task.o(.bss.current_mode)
    trg                                      0x202000c0   Data           2  mid_button.o(.bss.trg)
    [Anonymous Symbol]                       0x202000c0   Section        0  mid_button.o(.bss.trg)
    user_button                              0x202000c4   Data         112  mid_button.o(.bss.user_button)
    [Anonymous Symbol]                       0x202000c4   Section        0  mid_button.o(.bss.user_button)
    STACK                                    0x20200138   Section     1024  startup_mspm0g350x_uvision.o(STACK)

    Global Symbols

    Symbol Name                              Value     Ov Type        Size  Object(Section)

    BuildAttributes$$THM_ISAv3M$S$PE$A:L22$X:L11$S22$IEEE1$IW$~IW$USESV6$~STKCKD$USESV7$~SHL$OTIME$ROPI$IEEEJ$EBA8$MICROLIB$REQ8$PRES8$EABIv2 0x00000000   Number         0  anon$$obj.o ABSOLUTE
    __Vectors                                0x00000000   Data           4  startup_mspm0g350x_uvision.o(RESET)
    __cpp_initialize__aeabi_                  - Undefined Weak Reference
    __cxa_finalize                            - Undefined Weak Reference
    __decompress                              - Undefined Weak Reference
    _clock_init                               - Undefined Weak Reference
    _microlib_exit                            - Undefined Weak Reference
    __Vectors_End                            0x000000c0   Data           0  startup_mspm0g350x_uvision.o(RESET)
    __Vectors_Size                           0x000000c0   Number         0  startup_mspm0g350x_uvision.o ABSOLUTE
    __main                                   0x000000c1   Thumb Code     0  entry.o(.ARM.Collect$$$$00000000)
    _main_stk                                0x000000c1   Thumb Code     0  entry2.o(.ARM.Collect$$$$00000001)
    _main_scatterload                        0x000000c5   Thumb Code     0  entry5.o(.ARM.Collect$$$$00000004)
    __main_after_scatterload                 0x000000c9   Thumb Code     0  entry5.o(.ARM.Collect$$$$00000004)
    _main_clock                              0x000000c9   Thumb Code     0  entry7b.o(.ARM.Collect$$$$00000008)
    _main_cpp_init                           0x000000c9   Thumb Code     0  entry8b.o(.ARM.Collect$$$$0000000A)
    _main_init                               0x000000c9   Thumb Code     0  entry9a.o(.ARM.Collect$$$$0000000B)
    __rt_final_cpp                           0x000000d1   Thumb Code     0  entry10a.o(.ARM.Collect$$$$0000000D)
    __rt_final_exit                          0x000000d1   Thumb Code     0  entry11a.o(.ARM.Collect$$$$0000000F)
    Reset_Handler                            0x000000d5   Thumb Code     4  startup_mspm0g350x_uvision.o(.text)
    NMI_Handler                              0x000000d9   Thumb Code     2  startup_mspm0g350x_uvision.o(.text)
    HardFault_Handler                        0x000000db   Thumb Code     2  startup_mspm0g350x_uvision.o(.text)
    SVC_Handler                              0x000000dd   Thumb Code     2  startup_mspm0g350x_uvision.o(.text)
    PendSV_Handler                           0x000000df   Thumb Code     2  startup_mspm0g350x_uvision.o(.text)
    SysTick_Handler                          0x000000e1   Thumb Code     2  startup_mspm0g350x_uvision.o(.text)
    ADC0_IRQHandler                          0x000000e3   Thumb Code     0  startup_mspm0g350x_uvision.o(.text)
    ADC1_IRQHandler                          0x000000e3   Thumb Code     0  startup_mspm0g350x_uvision.o(.text)
    AES_IRQHandler                           0x000000e3   Thumb Code     0  startup_mspm0g350x_uvision.o(.text)
    CANFD0_IRQHandler                        0x000000e3   Thumb Code     0  startup_mspm0g350x_uvision.o(.text)
    DAC0_IRQHandler                          0x000000e3   Thumb Code     0  startup_mspm0g350x_uvision.o(.text)
    DMA_IRQHandler                           0x000000e3   Thumb Code     0  startup_mspm0g350x_uvision.o(.text)
    Default_Handler                          0x000000e3   Thumb Code     2  startup_mspm0g350x_uvision.o(.text)
    GROUP0_IRQHandler                        0x000000e3   Thumb Code     0  startup_mspm0g350x_uvision.o(.text)
    GROUP1_IRQHandler                        0x000000e3   Thumb Code     0  startup_mspm0g350x_uvision.o(.text)
    I2C0_IRQHandler                          0x000000e3   Thumb Code     0  startup_mspm0g350x_uvision.o(.text)
    I2C1_IRQHandler                          0x000000e3   Thumb Code     0  startup_mspm0g350x_uvision.o(.text)
    RTC_IRQHandler                           0x000000e3   Thumb Code     0  startup_mspm0g350x_uvision.o(.text)
    SPI0_IRQHandler                          0x000000e3   Thumb Code     0  startup_mspm0g350x_uvision.o(.text)
    SPI1_IRQHandler                          0x000000e3   Thumb Code     0  startup_mspm0g350x_uvision.o(.text)
    TIMA0_IRQHandler                         0x000000e3   Thumb Code     0  startup_mspm0g350x_uvision.o(.text)
    TIMA1_IRQHandler                         0x000000e3   Thumb Code     0  startup_mspm0g350x_uvision.o(.text)
    TIMG0_IRQHandler                         0x000000e3   Thumb Code     0  startup_mspm0g350x_uvision.o(.text)
    TIMG12_IRQHandler                        0x000000e3   Thumb Code     0  startup_mspm0g350x_uvision.o(.text)
    TIMG6_IRQHandler                         0x000000e3   Thumb Code     0  startup_mspm0g350x_uvision.o(.text)
    TIMG7_IRQHandler                         0x000000e3   Thumb Code     0  startup_mspm0g350x_uvision.o(.text)
    TIMG8_IRQHandler                         0x000000e3   Thumb Code     0  startup_mspm0g350x_uvision.o(.text)
    UART1_IRQHandler                         0x000000e3   Thumb Code     0  startup_mspm0g350x_uvision.o(.text)
    UART2_IRQHandler                         0x000000e3   Thumb Code     0  startup_mspm0g350x_uvision.o(.text)
    UART3_IRQHandler                         0x000000e3   Thumb Code     0  startup_mspm0g350x_uvision.o(.text)
    __aeabi_memset                           0x000000e9   Thumb Code    14  memseta.o(.text)
    __aeabi_memset4                          0x000000e9   Thumb Code     0  memseta.o(.text)
    __aeabi_memset8                          0x000000e9   Thumb Code     0  memseta.o(.text)
    __aeabi_memclr                           0x000000f7   Thumb Code     4  memseta.o(.text)
    __aeabi_memclr4                          0x000000f7   Thumb Code     0  memseta.o(.text)
    __aeabi_memclr8                          0x000000f7   Thumb Code     0  memseta.o(.text)
    _memset$wrapper                          0x000000fb   Thumb Code    18  memseta.o(.text)
    __aeabi_ui2d                             0x0000010d   Thumb Code    24  dfltui.o(.text)
    __aeabi_d2iz                             0x00000129   Thumb Code    62  dfixi.o(.text)
    __aeabi_uidiv                            0x00000171   Thumb Code     0  uidiv_div0.o(.text)
    __aeabi_uidivmod                         0x00000171   Thumb Code    62  uidiv_div0.o(.text)
    __aeabi_llsr                             0x000001af   Thumb Code    34  llushr.o(.text)
    _ll_ushift_r                             0x000001af   Thumb Code     0  llushr.o(.text)
    __I$use$fp                               0x000001d1   Thumb Code     0  iusefp.o(.text)
    _double_round                            0x000001d1   Thumb Code    26  depilogue.o(.text)
    _double_epilogue                         0x000001eb   Thumb Code   164  depilogue.o(.text)
    _dsqrt                                   0x0000028f   Thumb Code   162  dsqrt.o(.text)
    __scatterload                            0x00000331   Thumb Code    38  init.o(.text)
    __scatterload_rt2                        0x00000331   Thumb Code     0  init.o(.text)
    __aeabi_llsl                             0x00000361   Thumb Code    32  llshl.o(.text)
    _ll_shift_l                              0x00000361   Thumb Code     0  llshl.o(.text)
    DL_Common_delayCycles                    0x00000381   Thumb Code    10  dl_common.o(.text.DL_Common_delayCycles)
    DL_SPI_init                              0x0000055d   Thumb Code    68  dl_spi.o(.text.DL_SPI_init)
    DL_SPI_setClockConfig                    0x000005f1   Thumb Code    18  dl_spi.o(.text.DL_SPI_setClockConfig)
    DL_SYSCTL_configSYSPLL                   0x0000064d   Thumb Code   192  dl_sysctl_mspm0g1x0x_g3x0x.o(.text.DL_SYSCTL_configSYSPLL)
    DL_SYSCTL_setHFCLKSourceHFXTParams       0x00000761   Thumb Code    80  dl_sysctl_mspm0g1x0x_g3x0x.o(.text.DL_SYSCTL_setHFCLKSourceHFXTParams)
    DL_SYSCTL_switchMCLKfromSYSOSCtoHSCLK    0x000007e5   Thumb Code    40  dl_sysctl_mspm0g1x0x_g3x0x.o(.text.DL_SYSCTL_switchMCLKfromSYSOSCtoHSCLK)
    DL_UART_init                             0x0000086d   Thumb Code    72  dl_uart.o(.text.DL_UART_init)
    DL_UART_setClockConfig                   0x0000092d   Thumb Code    18  dl_uart.o(.text.DL_UART_setClockConfig)
    Drawarc                                  0x0000095d   Thumb Code   338  hw_lcd.o(.text.Drawarc)
    LCD_Address_Set                          0x00000aaf   Thumb Code    62  hw_lcd.o(.text.LCD_Address_Set)
    LCD_ArcRect                              0x00000aed   Thumb Code   330  hw_lcd.o(.text.LCD_ArcRect)
    LCD_DrawLine                             0x00000c37   Thumb Code   268  hw_lcd.o(.text.LCD_DrawLine)
    LCD_DrawPoint                            0x00000d43   Thumb Code    32  hw_lcd.o(.text.LCD_DrawPoint)
    LCD_Fill                                 0x00000d63   Thumb Code    92  hw_lcd.o(.text.LCD_Fill)
    LCD_ShowChar                             0x00000dc1   Thumb Code   460  hw_lcd.o(.text.LCD_ShowChar)
    LCD_ShowChinese                          0x00000f9d   Thumb Code   296  hw_lcd.o(.text.LCD_ShowChinese)
    LCD_ShowChinese12x12                     0x000010c5   Thumb Code   408  hw_lcd.o(.text.LCD_ShowChinese12x12)
    LCD_ShowChinese16x16                     0x00001261   Thumb Code   408  hw_lcd.o(.text.LCD_ShowChinese16x16)
    LCD_ShowChinese24x24                     0x000013fd   Thumb Code   408  hw_lcd.o(.text.LCD_ShowChinese24x24)
    LCD_ShowChinese32x32                     0x00001599   Thumb Code   408  hw_lcd.o(.text.LCD_ShowChinese32x32)
    LCD_WR_DATA                              0x00001735   Thumb Code    28  hw_lcd.o(.text.LCD_WR_DATA)
    LCD_WR_DATA8                             0x00001751   Thumb Code    20  hw_lcd.o(.text.LCD_WR_DATA8)
    LCD_WR_REG                               0x00001765   Thumb Code    44  hw_lcd.o(.text.LCD_WR_REG)
    LCD_Writ_Bus                             0x00001791   Thumb Code    44  hw_lcd.o(.text.LCD_Writ_Bus)
    SYSCFG_DL_GPIO_init                      0x000017bd   Thumb Code   184  ti_msp_dl_config.o(.text.SYSCFG_DL_GPIO_init)
    SYSCFG_DL_SPI_LCD_init                   0x00001879   Thumb Code    52  ti_msp_dl_config.o(.text.SYSCFG_DL_SPI_LCD_init)
    SYSCFG_DL_SYSCTL_init                    0x000018b5   Thumb Code    72  ti_msp_dl_config.o(.text.SYSCFG_DL_SYSCTL_init)
    SYSCFG_DL_UART_DEBUG_init                0x00001901   Thumb Code    72  ti_msp_dl_config.o(.text.SYSCFG_DL_UART_DEBUG_init)
    SYSCFG_DL_init                           0x00001951   Thumb Code    32  ti_msp_dl_config.o(.text.SYSCFG_DL_init)
    SYSCFG_DL_initPower                      0x00001975   Thumb Code    72  ti_msp_dl_config.o(.text.SYSCFG_DL_initPower)
    UART0_IRQHandler                         0x000019c9   Thumb Code    40  mid_debug_uart.o(.text.UART0_IRQHandler)
    btn_down_cb                              0x00001ad1   Thumb Code    48  app_key_task.o(.text.btn_down_cb)
    btn_left_cb                              0x00001b01   Thumb Code    52  app_key_task.o(.text.btn_left_cb)
    btn_right_cb                             0x00001b35   Thumb Code    52  app_key_task.o(.text.btn_right_cb)
    btn_up_cb                                0x00001b69   Thumb Code    48  app_key_task.o(.text.btn_up_cb)
    debug_uart_init                          0x00001bf1   Thumb Code    22  mid_debug_uart.o(.text.debug_uart_init)
    disp_select_box                          0x00001c35   Thumb Code   234  empty.o(.text.disp_select_box)
    disp_string_rect                         0x00001d21   Thumb Code   132  empty.o(.text.disp_string_rect)
    disp_x_center                            0x00001da5   Thumb Code    96  empty.o(.text.disp_x_center)
    flex_button_register                     0x000022d5   Thumb Code   152  mid_button.o(.text.flex_button_register)
    flex_button_scan                         0x00002379   Thumb Code    12  mid_button.o(.text.flex_button_scan)
    get_app_key_current_mode                 0x00002385   Thumb Code     8  app_key_task.o(.text.get_app_key_current_mode)
    key_scan                                 0x0000238d   Thumb Code   136  hw_key.o(.text.key_scan)
    lcd_init                                 0x00002419   Thumb Code   448  hw_lcd.o(.text.lcd_init)
    main                                     0x000025e5   Thumb Code   104  empty.o(.text.main)
    set_app_key_current_mode                 0x00002661   Thumb Code    16  app_key_task.o(.text.set_app_key_current_mode)
    spi_write_bus                            0x00002675   Thumb Code    40  hw_lcd.o(.text.spi_write_bus)
    ui_home_page                             0x000026a1   Thumb Code   192  empty.o(.text.ui_home_page)
    ui_home_page_select                      0x00002775   Thumb Code   160  empty.o(.text.ui_home_page_select)
    user_button_init                         0x00002819   Thumb Code   152  mid_button.o(.text.user_button_init)
    __ARM_clz                                0x000028d5   Thumb Code    46  depilogue.o(i.__ARM_clz)
    __scatterload_copy                       0x00002909   Thumb Code    14  handlers.o(i.__scatterload_copy)
    __scatterload_null                       0x00002919   Thumb Code     2  handlers.o(i.__scatterload_null)
    __scatterload_zeroinit                   0x00002921   Thumb Code    14  handlers.o(i.__scatterload_zeroinit)
    __set_errno                              0x00002931   Thumb Code     6  errno.o(i.__set_errno)
    sqrt                                     0x0000293d   Thumb Code    66  sqrt.o(i.sqrt)
    ascii_1206                               0x00002984   Data        1140  hw_lcd.o(.rodata.ascii_1206)
    ascii_1608                               0x00002df8   Data        1520  hw_lcd.o(.rodata.ascii_1608)
    ascii_2412                               0x000033e8   Data        4560  hw_lcd.o(.rodata.ascii_2412)
    ascii_3216                               0x000045b8   Data        6080  hw_lcd.o(.rodata.ascii_3216)
    tfont12                                  0x00005ddd   Data         130  hw_lcd.o(.rodata.tfont12)
    tfont16                                  0x00005e5f   Data         374  hw_lcd.o(.rodata.tfont16)
    tfont24                                  0x00005fd5   Data         222  hw_lcd.o(.rodata.tfont24)
    tfont32                                  0x000060b3   Data         130  hw_lcd.o(.rodata.tfont32)
    Region$$Table$$Base                      0x00006138   Number         0  anon$$obj.o(Region$$Table)
    Region$$Table$$Limit                     0x00006158   Number         0  anon$$obj.o(Region$$Table)
    debug_uart                               0x20200014   Data         132  mid_debug_uart.o(.bss.debug_uart)
    gSPI_LCDBackup                           0x20200098   Data          40  ti_msp_dl_config.o(.bss.gSPI_LCDBackup)
    __initial_sp                             0x20200538   Data           0  startup_mspm0g350x_uvision.o(STACK)



==============================================================================

Memory Map of the image

  Image Entry point : 0x000000c1

  Load Region LR_IROM1 (Base: 0x00000000, Size: 0x00006160, Max: 0x00020000, ABSOLUTE)

    Execution Region ER_IROM1 (Exec base: 0x00000000, Load base: 0x00000000, Size: 0x00006158, Max: 0x00020000, ABSOLUTE)

    Exec Addr    Load Addr    Size         Type   Attr      Idx    E Section Name        Object

    0x00000000   0x00000000   0x000000c0   Data   RO           28    RESET               startup_mspm0g350x_uvision.o
    0x000000c0   0x000000c0   0x00000000   Code   RO          455  * .ARM.Collect$$$$00000000  mc_p.l(entry.o)
    0x000000c0   0x000000c0   0x00000004   Code   RO          474    .ARM.Collect$$$$00000001  mc_p.l(entry2.o)
    0x000000c4   0x000000c4   0x00000004   Code   RO          477    .ARM.Collect$$$$00000004  mc_p.l(entry5.o)
    0x000000c8   0x000000c8   0x00000000   Code   RO          479    .ARM.Collect$$$$00000008  mc_p.l(entry7b.o)
    0x000000c8   0x000000c8   0x00000000   Code   RO          481    .ARM.Collect$$$$0000000A  mc_p.l(entry8b.o)
    0x000000c8   0x000000c8   0x00000008   Code   RO          482    .ARM.Collect$$$$0000000B  mc_p.l(entry9a.o)
    0x000000d0   0x000000d0   0x00000000   Code   RO          484    .ARM.Collect$$$$0000000D  mc_p.l(entry10a.o)
    0x000000d0   0x000000d0   0x00000000   Code   RO          486    .ARM.Collect$$$$0000000F  mc_p.l(entry11a.o)
    0x000000d0   0x000000d0   0x00000004   Code   RO          475    .ARM.Collect$$$$00002712  mc_p.l(entry2.o)
    0x000000d4   0x000000d4   0x00000014   Code   RO           29    .text               startup_mspm0g350x_uvision.o
    0x000000e8   0x000000e8   0x00000024   Code   RO          464    .text               mc_p.l(memseta.o)
    0x0000010c   0x0000010c   0x0000001c   Code   RO          468    .text               mf_p.l(dfltui.o)
    0x00000128   0x00000128   0x00000048   Code   RO          472    .text               mf_p.l(dfixi.o)
    0x00000170   0x00000170   0x0000003e   Code   RO          492    .text               mc_p.l(uidiv_div0.o)
    0x000001ae   0x000001ae   0x00000022   Code   RO          498    .text               mc_p.l(llushr.o)
    0x000001d0   0x000001d0   0x00000000   Code   RO          507    .text               mc_p.l(iusefp.o)
    0x000001d0   0x000001d0   0x000000be   Code   RO          508    .text               mf_p.l(depilogue.o)
    0x0000028e   0x0000028e   0x000000a2   Code   RO          512    .text               mf_p.l(dsqrt.o)
    0x00000330   0x00000330   0x00000030   Code   RO          514    .text               mc_p.l(init.o)
    0x00000360   0x00000360   0x00000020   Code   RO          516    .text               mc_p.l(llshl.o)
    0x00000380   0x00000380   0x0000000a   Code   RO          317    .text.DL_Common_delayCycles  driverlib.a(dl_common.o)
    0x0000038a   0x0000038a   0x00000028   Code   RO          108    .text.DL_Common_updateReg  ti_msp_dl_config.o
    0x000003b2   0x000003b2   0x00000014   Code   RO           14    .text.DL_GPIO_clearPins  empty.o
    0x000003c6   0x000003c6   0x00000014   Code   RO           76    .text.DL_GPIO_clearPins  ti_msp_dl_config.o
    0x000003da   0x000003da   0x00000014   Code   RO          131    .text.DL_GPIO_clearPins  hw_lcd.o
    0x000003ee   0x000003ee   0x00000002   PAD
    0x000003f0   0x000003f0   0x00000018   Code   RO           78    .text.DL_GPIO_enableOutput  ti_msp_dl_config.o
    0x00000408   0x00000408   0x00000014   Code   RO           58    .text.DL_GPIO_enablePower  ti_msp_dl_config.o
    0x0000041c   0x0000041c   0x00000030   Code   RO           74    .text.DL_GPIO_initDigitalInputFeatures  ti_msp_dl_config.o
    0x0000044c   0x0000044c   0x00000014   Code   RO           72    .text.DL_GPIO_initDigitalOutput  ti_msp_dl_config.o
    0x00000460   0x00000460   0x0000002c   Code   RO           70    .text.DL_GPIO_initDigitalOutputFeatures  ti_msp_dl_config.o
    0x0000048c   0x0000048c   0x00000014   Code   RO           64    .text.DL_GPIO_initPeripheralAnalogFunction  ti_msp_dl_config.o
    0x000004a0   0x000004a0   0x0000001c   Code   RO           68    .text.DL_GPIO_initPeripheralInputFunction  ti_msp_dl_config.o
    0x000004bc   0x000004bc   0x0000001c   Code   RO           66    .text.DL_GPIO_initPeripheralOutputFunction  ti_msp_dl_config.o
    0x000004d8   0x000004d8   0x00000016   Code   RO          200    .text.DL_GPIO_readPins  hw_key.o
    0x000004ee   0x000004ee   0x00000002   PAD
    0x000004f0   0x000004f0   0x00000010   Code   RO           52    .text.DL_GPIO_reset  ti_msp_dl_config.o
    0x00000500   0x00000500   0x00000014   Code   RO           16    .text.DL_GPIO_setPins  empty.o
    0x00000514   0x00000514   0x00000018   Code   RO          133    .text.DL_GPIO_setPins  hw_lcd.o
    0x0000052c   0x0000052c   0x00000018   Code   RO          106    .text.DL_SPI_enable  ti_msp_dl_config.o
    0x00000544   0x00000544   0x00000018   Code   RO           62    .text.DL_SPI_enablePower  ti_msp_dl_config.o
    0x0000055c   0x0000055c   0x00000044   Code   RO          326    .text.DL_SPI_init   driverlib.a(dl_spi.o)
    0x000005a0   0x000005a0   0x00000014   Code   RO          127    .text.DL_SPI_isBusy  hw_lcd.o
    0x000005b4   0x000005b4   0x00000018   Code   RO           56    .text.DL_SPI_reset  ti_msp_dl_config.o
    0x000005cc   0x000005cc   0x00000024   Code   RO          102    .text.DL_SPI_setBitRateSerialClockDivider  ti_msp_dl_config.o
    0x000005f0   0x000005f0   0x00000012   Code   RO          328    .text.DL_SPI_setClockConfig  driverlib.a(dl_spi.o)
    0x00000602   0x00000602   0x00000002   PAD
    0x00000604   0x00000604   0x00000030   Code   RO          104    .text.DL_SPI_setFIFOThreshold  ti_msp_dl_config.o
    0x00000634   0x00000634   0x00000016   Code   RO          125    .text.DL_SPI_transmitData8  hw_lcd.o
    0x0000064a   0x0000064a   0x00000002   PAD
    0x0000064c   0x0000064c   0x000000c0   Code   RO          420    .text.DL_SYSCTL_configSYSPLL  driverlib.a(dl_sysctl_mspm0g1x0x_g3x0x.o)
    0x0000070c   0x0000070c   0x0000000c   Code   RO           86    .text.DL_SYSCTL_disableHFXT  ti_msp_dl_config.o
    0x00000718   0x00000718   0x00000014   Code   RO           88    .text.DL_SYSCTL_disableSYSPLL  ti_msp_dl_config.o
    0x0000072c   0x0000072c   0x00000018   Code   RO           80    .text.DL_SYSCTL_setBORThreshold  ti_msp_dl_config.o
    0x00000744   0x00000744   0x0000001c   Code   RO           82    .text.DL_SYSCTL_setFlashWaitState  ti_msp_dl_config.o
    0x00000760   0x00000760   0x00000050   Code   RO          434    .text.DL_SYSCTL_setHFCLKSourceHFXTParams  driverlib.a(dl_sysctl_mspm0g1x0x_g3x0x.o)
    0x000007b0   0x000007b0   0x0000001c   Code   RO           84    .text.DL_SYSCTL_setSYSOSCFreq  ti_msp_dl_config.o
    0x000007cc   0x000007cc   0x00000018   Code   RO           90    .text.DL_SYSCTL_setULPCLKDivider  ti_msp_dl_config.o
    0x000007e4   0x000007e4   0x00000028   Code   RO          428    .text.DL_SYSCTL_switchMCLKfromSYSOSCtoHSCLK  driverlib.a(dl_sysctl_mspm0g1x0x_g3x0x.o)
    0x0000080c   0x0000080c   0x00000016   Code   RO          100    .text.DL_UART_enable  ti_msp_dl_config.o
    0x00000822   0x00000822   0x00000002   PAD
    0x00000824   0x00000824   0x0000001c   Code   RO           96    .text.DL_UART_enableInterrupt  ti_msp_dl_config.o
    0x00000840   0x00000840   0x00000018   Code   RO           60    .text.DL_UART_enablePower  ti_msp_dl_config.o
    0x00000858   0x00000858   0x00000012   Code   RO          249    .text.DL_UART_getPendingInterrupt  mid_debug_uart.o
    0x0000086a   0x0000086a   0x00000002   PAD
    0x0000086c   0x0000086c   0x00000048   Code   RO          380    .text.DL_UART_init  driverlib.a(dl_uart.o)
    0x000008b4   0x000008b4   0x00000014   Code   RO          251    .text.DL_UART_receiveData  mid_debug_uart.o
    0x000008c8   0x000008c8   0x00000018   Code   RO           54    .text.DL_UART_reset  ti_msp_dl_config.o
    0x000008e0   0x000008e0   0x0000004c   Code   RO           94    .text.DL_UART_setBaudRateDivisor  ti_msp_dl_config.o
    0x0000092c   0x0000092c   0x00000012   Code   RO          382    .text.DL_UART_setClockConfig  driverlib.a(dl_uart.o)
    0x0000093e   0x0000093e   0x0000001e   Code   RO           92    .text.DL_UART_setOversampling  ti_msp_dl_config.o
    0x0000095c   0x0000095c   0x00000152   Code   RO          157    .text.Drawarc       hw_lcd.o
    0x00000aae   0x00000aae   0x0000003e   Code   RO          141    .text.LCD_Address_Set  hw_lcd.o
    0x00000aec   0x00000aec   0x0000014a   Code   RO          159    .text.LCD_ArcRect   hw_lcd.o
    0x00000c36   0x00000c36   0x0000010c   Code   RO          149    .text.LCD_DrawLine  hw_lcd.o
    0x00000d42   0x00000d42   0x00000020   Code   RO          147    .text.LCD_DrawPoint  hw_lcd.o
    0x00000d62   0x00000d62   0x0000005c   Code   RO          145    .text.LCD_Fill      hw_lcd.o
    0x00000dbe   0x00000dbe   0x00000002   PAD
    0x00000dc0   0x00000dc0   0x000001dc   Code   RO          171    .text.LCD_ShowChar  hw_lcd.o
    0x00000f9c   0x00000f9c   0x00000128   Code   RO          161    .text.LCD_ShowChinese  hw_lcd.o
    0x000010c4   0x000010c4   0x0000019c   Code   RO          163    .text.LCD_ShowChinese12x12  hw_lcd.o
    0x00001260   0x00001260   0x0000019c   Code   RO          165    .text.LCD_ShowChinese16x16  hw_lcd.o
    0x000013fc   0x000013fc   0x0000019c   Code   RO          167    .text.LCD_ShowChinese24x24  hw_lcd.o
    0x00001598   0x00001598   0x0000019c   Code   RO          169    .text.LCD_ShowChinese32x32  hw_lcd.o
    0x00001734   0x00001734   0x0000001c   Code   RO          137    .text.LCD_WR_DATA   hw_lcd.o
    0x00001750   0x00001750   0x00000014   Code   RO          135    .text.LCD_WR_DATA8  hw_lcd.o
    0x00001764   0x00001764   0x0000002c   Code   RO          139    .text.LCD_WR_REG    hw_lcd.o
    0x00001790   0x00001790   0x0000002c   Code   RO          129    .text.LCD_Writ_Bus  hw_lcd.o
    0x000017bc   0x000017bc   0x000000bc   Code   RO           40    .text.SYSCFG_DL_GPIO_init  ti_msp_dl_config.o
    0x00001878   0x00001878   0x0000003c   Code   RO           46    .text.SYSCFG_DL_SPI_LCD_init  ti_msp_dl_config.o
    0x000018b4   0x000018b4   0x0000004c   Code   RO           42    .text.SYSCFG_DL_SYSCTL_init  ti_msp_dl_config.o
    0x00001900   0x00001900   0x00000050   Code   RO           44    .text.SYSCFG_DL_UART_DEBUG_init  ti_msp_dl_config.o
    0x00001950   0x00001950   0x00000024   Code   RO           36    .text.SYSCFG_DL_init  ti_msp_dl_config.o
    0x00001974   0x00001974   0x00000054   Code   RO           38    .text.SYSCFG_DL_initPower  ti_msp_dl_config.o
    0x000019c8   0x000019c8   0x0000002c   Code   RO          247    .text.UART0_IRQHandler  mid_debug_uart.o
    0x000019f4   0x000019f4   0x0000002c   Code   RO          231    .text.__NVIC_ClearPendingIRQ  mid_debug_uart.o
    0x00001a20   0x00001a20   0x0000002c   Code   RO          233    .text.__NVIC_EnableIRQ  mid_debug_uart.o
    0x00001a4c   0x00001a4c   0x00000084   Code   RO           98    .text.__NVIC_SetPriority  ti_msp_dl_config.o
    0x00001ad0   0x00001ad0   0x00000030   Code   RO          307    .text.btn_down_cb   app_key_task.o
    0x00001b00   0x00001b00   0x00000034   Code   RO          303    .text.btn_left_cb   app_key_task.o
    0x00001b34   0x00001b34   0x00000034   Code   RO          305    .text.btn_right_cb  app_key_task.o
    0x00001b68   0x00001b68   0x00000030   Code   RO          301    .text.btn_up_cb     app_key_task.o
    0x00001b98   0x00001b98   0x00000016   Code   RO          271    .text.button_down_read  mid_button.o
    0x00001bae   0x00001bae   0x00000016   Code   RO          267    .text.button_left_read  mid_button.o
    0x00001bc4   0x00001bc4   0x00000016   Code   RO          269    .text.button_right_read  mid_button.o
    0x00001bda   0x00001bda   0x00000016   Code   RO          265    .text.button_up_read  mid_button.o
    0x00001bf0   0x00001bf0   0x00000016   Code   RO          229    .text.debug_uart_init  mid_debug_uart.o
    0x00001c06   0x00001c06   0x00000002   PAD
    0x00001c08   0x00001c08   0x0000002c   Code   RO          253    .text.debug_uart_receive_limit_length  mid_debug_uart.o
    0x00001c34   0x00001c34   0x000000ea   Code   RO           12    .text.disp_select_box  empty.o
    0x00001d1e   0x00001d1e   0x00000002   PAD
    0x00001d20   0x00001d20   0x00000084   Code   RO           10    .text.disp_string_rect  empty.o
    0x00001da4   0x00001da4   0x00000064   Code   RO            8    .text.disp_x_center  empty.o
    0x00001e08   0x00001e08   0x00000404   Code   RO          281    .text.flex_button_process  mid_button.o
    0x0000220c   0x0000220c   0x000000c8   Code   RO          279    .text.flex_button_read  mid_button.o
    0x000022d4   0x000022d4   0x000000a4   Code   RO          273    .text.flex_button_register  mid_button.o
    0x00002378   0x00002378   0x0000000c   Code   RO          277    .text.flex_button_scan  mid_button.o
    0x00002384   0x00002384   0x00000008   Code   RO          299    .text.get_app_key_current_mode  app_key_task.o
    0x0000238c   0x0000238c   0x0000008c   Code   RO          198    .text.key_scan      hw_key.o
    0x00002418   0x00002418   0x000001cc   Code   RO          143    .text.lcd_init      hw_lcd.o
    0x000025e4   0x000025e4   0x0000007c   Code   RO            2    .text.main          empty.o
    0x00002660   0x00002660   0x00000014   Code   RO          297    .text.set_app_key_current_mode  app_key_task.o
    0x00002674   0x00002674   0x0000002c   Code   RO          123    .text.spi_write_bus  hw_lcd.o
    0x000026a0   0x000026a0   0x000000d4   Code   RO            4    .text.ui_home_page  empty.o
    0x00002774   0x00002774   0x000000a4   Code   RO            6    .text.ui_home_page_select  empty.o
    0x00002818   0x00002818   0x000000bc   Code   RO          263    .text.user_button_init  mid_button.o
    0x000028d4   0x000028d4   0x0000002e   Code   RO          510    i.__ARM_clz         mf_p.l(depilogue.o)
    0x00002902   0x00002902   0x00000006   PAD
    0x00002908   0x00002908   0x0000000e   Code   RO          520    i.__scatterload_copy  mc_p.l(handlers.o)
    0x00002916   0x00002916   0x00000002   PAD
    0x00002918   0x00002918   0x00000002   Code   RO          521    i.__scatterload_null  mc_p.l(handlers.o)
    0x0000291a   0x0000291a   0x00000006   PAD
    0x00002920   0x00002920   0x0000000e   Code   RO          522    i.__scatterload_zeroinit  mc_p.l(handlers.o)
    0x0000292e   0x0000292e   0x00000002   PAD
    0x00002930   0x00002930   0x0000000c   Code   RO          502    i.__set_errno       mc_p.l(errno.o)
    0x0000293c   0x0000293c   0x00000048   Code   RO          452    i.sqrt              m_ps.l(sqrt.o)
    0x00002984   0x00002984   0x00000474   Data   RO          183    .rodata.ascii_1206  hw_lcd.o
    0x00002df8   0x00002df8   0x000005f0   Data   RO          184    .rodata.ascii_1608  hw_lcd.o
    0x000033e8   0x000033e8   0x000011d0   Data   RO          185    .rodata.ascii_2412  hw_lcd.o
    0x000045b8   0x000045b8   0x000017c0   Data   RO          186    .rodata.ascii_3216  hw_lcd.o
    0x00005d78   0x00005d78   0x00000002   Data   RO          114    .rodata.gSPI_LCD_clockConfig  ti_msp_dl_config.o
    0x00005d7a   0x00005d7a   0x0000000a   Data   RO          115    .rodata.gSPI_LCD_config  ti_msp_dl_config.o
    0x00005d84   0x00005d84   0x00000028   Data   RO          111    .rodata.gSYSPLLConfig  ti_msp_dl_config.o
    0x00005dac   0x00005dac   0x00000002   Data   RO          112    .rodata.gUART_DEBUGClockConfig  ti_msp_dl_config.o
    0x00005dae   0x00005dae   0x0000000a   Data   RO          113    .rodata.gUART_DEBUGConfig  ti_msp_dl_config.o
    0x00005db8   0x00005db8   0x00000025   Data   RO           18    .rodata.str1.1      empty.o
    0x00005ddd   0x00005ddd   0x00000082   Data   RO          187    .rodata.tfont12     hw_lcd.o
    0x00005e5f   0x00005e5f   0x00000176   Data   RO          188    .rodata.tfont16     hw_lcd.o
    0x00005fd5   0x00005fd5   0x000000de   Data   RO          189    .rodata.tfont24     hw_lcd.o
    0x000060b3   0x000060b3   0x00000082   Data   RO          190    .rodata.tfont32     hw_lcd.o
    0x00006135   0x00006135   0x00000003   PAD
    0x00006138   0x00006138   0x00000020   Data   RO          519    Region$$Table       anon$$obj.o


    Execution Region RW_IRAM2 (Exec base: 0x20200000, Load base: 0x00006158, Size: 0x00000538, Max: 0x00008000, ABSOLUTE)

    Exec Addr    Load Addr    Size         Type   Attr      Idx    E Section Name        Object

    0x20200000   0x00006158   0x00000004   Data   RW          503    .data               mc_p.l(errno.o)
    0x20200004   0x0000615c   0x00000002   Data   RW          286    .data.key_rst_data  mid_button.o
    0x20200006   0x0000615e   0x00000002   Data   RW          287    .data.keydata       mid_button.o
    0x20200008        -       0x00000004   Zero   RW          284    .bss.btn_head       mid_button.o
    0x2020000c        -       0x00000001   Zero   RW          285    .bss.button_cnt     mid_button.o
    0x2020000d   0x00006160   0x00000001   PAD
    0x2020000e        -       0x00000002   Zero   RW          288    .bss.cont           mid_button.o
    0x20200010        -       0x00000001   Zero   RW          309    .bss.current_mode   app_key_task.o
    0x20200011   0x00006160   0x00000003   PAD
    0x20200014        -       0x00000084   Zero   RW          255    .bss.debug_uart     mid_debug_uart.o
    0x20200098        -       0x00000028   Zero   RW          110    .bss.gSPI_LCDBackup  ti_msp_dl_config.o
    0x202000c0        -       0x00000002   Zero   RW          289    .bss.trg            mid_button.o
    0x202000c2   0x00006160   0x00000002   PAD
    0x202000c4        -       0x00000070   Zero   RW          283    .bss.user_button    mid_button.o
    0x20200134   0x00006160   0x00000004   PAD
    0x20200138        -       0x00000400   Zero   RW           26    STACK               startup_mspm0g350x_uvision.o



  Load Region LR_BCR (Base: 0x41c00000, Size: 0x00000000, Max: 0x00000100, ABSOLUTE)

    Execution Region BCR_CONFIG (Exec base: 0x41c00000, Load base: 0x41c00000, Size: 0x00000000, Max: 0x000000ff, ABSOLUTE)

    **** No section assigned to this execution region ****



  Load Region LR_BSL (Base: 0x41c00100, Size: 0x00000000, Max: 0x00000100, ABSOLUTE)

    Execution Region BSL_CONFIG (Exec base: 0x41c00100, Load base: 0x41c00100, Size: 0x00000000, Max: 0x00000080, ABSOLUTE)

    **** No section assigned to this execution region ****


==============================================================================

Image component sizes


      Code (inc. data)   RO Data    RW Data    ZI Data      Debug   Object Name

       228          4          0          0          1       2228   app_key_task.o
      1006         48         37          0          0       5647   empty.o
       162          4          0          0          0       3649   hw_key.o
      4268         52      14156          0          0      15955   hw_lcd.o
      1680        100          0          4        121       4434   mid_button.o
       236         20          0          0        132       6348   mid_debug_uart.o
        20          4        192          0       1024        644   startup_mspm0g350x_uvision.o
      1460        136         64          0         40      23058   ti_msp_dl_config.o

    ----------------------------------------------------------------------
      9076        368      14484          4       1328      61963   Object Totals
         0          0         32          0          0          0   (incl. Generated)
        16          0          3          0         10          0   (incl. Padding)

    ----------------------------------------------------------------------

      Code (inc. data)   RO Data    RW Data    ZI Data      Debug   Library Member Name

        10          0          0          0          0        790   dl_common.o
        86          8          0          0          0      13505   dl_spi.o
       312         24          0          0          0      12865   dl_sysctl_mspm0g1x0x_g3x0x.o
        90          8          0          0          0      14150   dl_uart.o
        72          6          0          0          0         76   sqrt.o
         0          0          0          0          0          0   entry.o
         0          0          0          0          0          0   entry10a.o
         0          0          0          0          0          0   entry11a.o
         8          4          0          0          0          0   entry2.o
         4          0          0          0          0          0   entry5.o
         0          0          0          0          0          0   entry7b.o
         0          0          0          0          0          0   entry8b.o
         8          4          0          0          0          0   entry9a.o
        12          6          0          4          0         60   errno.o
        30          0          0          0          0          0   handlers.o
        48         10          0          0          0         68   init.o
         0          0          0          0          0          0   iusefp.o
        32          0          0          0          0         68   llshl.o
        34          0          0          0          0         68   llushr.o
        36          0          0          0          0        100   memseta.o
        62          0          0          0          0         72   uidiv_div0.o
       236          0          0          0          0        216   depilogue.o
        72         10          0          0          0         72   dfixi.o
        28          4          0          0          0         68   dfltui.o
       162          0          0          0          0         80   dsqrt.o

    ----------------------------------------------------------------------
      1360         84          0          4          0      42258   Library Totals
        18          0          0          0          0          0   (incl. Padding)

    ----------------------------------------------------------------------

      Code (inc. data)   RO Data    RW Data    ZI Data      Debug   Library Name

       498         40          0          0          0      41310   driverlib.a
        72          6          0          0          0         76   m_ps.l
       274         24          0          4          0        436   mc_p.l
       498         14          0          0          0        436   mf_p.l

    ----------------------------------------------------------------------
      1360         84          0          4          0      42258   Library Totals

    ----------------------------------------------------------------------

==============================================================================


      Code (inc. data)   RO Data    RW Data    ZI Data      Debug   

     10436        452      14484          8       1328     103777   Grand Totals
     10436        452      14484          8       1328     103777   ELF Image Totals
     10436        452      14484          8          0          0   ROM Totals

==============================================================================

    Total RO  Size (Code + RO Data)                24920 (  24.34kB)
    Total RW  Size (RW Data + ZI Data)              1336 (   1.30kB)
    Total ROM Size (Code + RO Data + RW Data)      24928 (  24.34kB)

==============================================================================

