Component: Arm Compiler for Embedded 6.21 Tool: armlink [5ec1fa00]

==============================================================================

Section Cross References

    empty.o(.text.generate_random) refers to rand.o(.text) for rand
    empty.o(.text.generate_random) refers to idiv_div0.o(.text) for __aeabi_idivmod
    empty.o(.ARM.exidx.text.generate_random) refers to empty.o(.text.generate_random) for [Anonymous Symbol]
    empty.o(.text.main) refers to ti_msp_dl_config.o(.text.SYSCFG_DL_init) for SYSCFG_DL_init
    empty.o(.text.main) refers to mid_debug_uart.o(.text.debug_uart_init) for debug_uart_init
    empty.o(.text.main) refers to mid_button.o(.text.user_button_init) for user_button_init
    empty.o(.text.main) refers to hw_encoder.o(.text.encoder_init) for encoder_init
    empty.o(.text.main) refers to mid_timer.o(.text.timer_init) for timer_init
    empty.o(.text.main) refers to hw_lcd.o(.text.lcd_init) for lcd_init
    empty.o(.text.main) refers to app_ui.o(.text.ui_home_page) for ui_home_page
    empty.o(.text.main) refers to dl_common.o(.text.DL_Common_delayCycles) for DL_Common_delayCycles
    empty.o(.text.main) refers to app_ui.o(.text.ui_speed_page) for ui_speed_page
    empty.o(.text.main) refers to app_ui.o(.text.ui_speed_page_value_set) for ui_speed_page_value_set
    empty.o(.text.main) refers to app_ui.o(.text.ui_speed_page_select_box) for ui_speed_page_select_box
    empty.o(.text.main) refers to app_ui.o(.text.ui_parameter_select_box_bold) for ui_parameter_select_box_bold
    empty.o(.text.main) refers to empty.o(.text.generate_random) for generate_random
    empty.o(.text.main) refers to app_ui.o(.text.draw_speed_curve) for draw_speed_curve
    empty.o(.ARM.exidx.text.main) refers to empty.o(.text.main) for [Anonymous Symbol]
==============================================================================

Removing Unused input sections from the image.

    Removing empty.o(.text), (0 bytes).
    Removing empty.o(.ARM.exidx.text.generate_random), (8 bytes).
    Removing empty.o(.ARM.exidx.text.main), (8 bytes).
    Removing empty.o(.ARM.use_no_argv), (4 bytes).
    Removing startup_mspm0g350x_uvision.o(HEAP), (1024 bytes).
    Removing ti_msp_dl_config.o(.text), (0 bytes).
    Removing ti_msp_dl_config.o(.ARM.exidx.text.SYSCFG_DL_init), (8 bytes).
    Removing ti_msp_dl_config.o(.ARM.exidx.text.SYSCFG_DL_initPower), (8 bytes).
    Removing ti_msp_dl_config.o(.ARM.exidx.text.SYSCFG_DL_GPIO_init), (8 bytes).
    Removing ti_msp_dl_config.o(.ARM.exidx.text.SYSCFG_DL_SYSCTL_init), (8 bytes).
    Removing ti_msp_dl_config.o(.ARM.exidx.text.SYSCFG_DL_PWM_MOTOR_init), (8 bytes).
    Removing ti_msp_dl_config.o(.ARM.exidx.text.SYSCFG_DL_TIMER_TICK_init), (8 bytes).
    Removing ti_msp_dl_config.o(.ARM.exidx.text.SYSCFG_DL_UART_DEBUG_init), (8 bytes).
    Removing ti_msp_dl_config.o(.ARM.exidx.text.SYSCFG_DL_SPI_LCD_init), (8 bytes).
    Removing ti_msp_dl_config.o(.text.SYSCFG_DL_saveConfiguration), (104 bytes).
    Removing ti_msp_dl_config.o(.ARM.exidx.text.SYSCFG_DL_saveConfiguration), (8 bytes).
    Removing ti_msp_dl_config.o(.text.SYSCFG_DL_restoreConfiguration), (108 bytes).
    Removing ti_msp_dl_config.o(.ARM.exidx.text.SYSCFG_DL_restoreConfiguration), (8 bytes).
==============================================================================

Image Symbol Table

    Local Symbols

    Symbol Name                              Value     Ov Type        Size  Object(Section)

    ../clib/division.s                       0x00000000   Number         0  aeabi_sdivfast.o ABSOLUTE
    ../clib/division.s                       0x00000000   Number         0  aeabi_sdivfast_div0.o ABSOLUTE
    ../clib/microlib/division.c              0x00000000   Number         0  uidiv.o ABSOLUTE
    ../clib/microlib/division.c              0x00000000   Number         0  idiv.o ABSOLUTE
    ../clib/microlib/division.c              0x00000000   Number         0  uidiv_div0.o ABSOLUTE
    ../clib/microlib/division.c              0x00000000   Number         0  idiv_div0.o ABSOLUTE
    ../clib/microlib/division.c              0x00000000   Number         0  idiv0.o ABSOLUTE
    ../clib/microlib/division.c              0x00000000   Number         0  uldiv.o ABSOLUTE
    ../clib/microlib/errno.c                 0x00000000   Number         0  errno.o ABSOLUTE
    ../clib/microlib/init/entry.s            0x00000000   Number         0  entry.o ABSOLUTE
    ../clib/microlib/init/entry.s            0x00000000   Number         0  entry2.o ABSOLUTE
    ../clib/microlib/init/entry.s            0x00000000   Number         0  entry5.o ABSOLUTE
    ../clib/microlib/init/entry.s            0x00000000   Number         0  entry7a.o ABSOLUTE
    ../clib/microlib/init/entry.s            0x00000000   Number         0  entry7b.o ABSOLUTE
    ../clib/microlib/init/entry.s            0x00000000   Number         0  entry8a.o ABSOLUTE
    ../clib/microlib/init/entry.s            0x00000000   Number         0  entry8b.o ABSOLUTE
    ../clib/microlib/init/entry.s            0x00000000   Number         0  entry9a.o ABSOLUTE
    ../clib/microlib/init/entry.s            0x00000000   Number         0  entry9b.o ABSOLUTE
    ../clib/microlib/init/entry.s            0x00000000   Number         0  entry10a.o ABSOLUTE
    ../clib/microlib/init/entry.s            0x00000000   Number         0  entry10b.o ABSOLUTE
    ../clib/microlib/init/entry.s            0x00000000   Number         0  entry11a.o ABSOLUTE
    ../clib/microlib/init/entry.s            0x00000000   Number         0  entry11b.o ABSOLUTE
    ../clib/microlib/longlong.c              0x00000000   Number         0  llushr.o ABSOLUTE
    ../clib/microlib/longlong.c              0x00000000   Number         0  llshl.o ABSOLUTE
    ../clib/microlib/longlong.c              0x00000000   Number         0  llsshr.o ABSOLUTE
    ../clib/microlib/printf/printf.c         0x00000000   Number         0  printfa.o ABSOLUTE
    ../clib/microlib/stdio/fputc.c           0x00000000   Number         0  fputc.o ABSOLUTE
    ../clib/microlib/stdio/fputc.c           0x00000000   Number         0  fputc_h.o ABSOLUTE
    ../clib/microlib/stdio/semi.s            0x00000000   Number         0  semi.o ABSOLUTE
    ../clib/microlib/stdio/streams.c         0x00000000   Number         0  stdout.o ABSOLUTE
    ../clib/microlib/stdlib/rand.c           0x00000000   Number         0  rand.o ABSOLUTE
    ../clib/microlib/string/memset.c         0x00000000   Number         0  memseta.o ABSOLUTE
    ../clib/microlib/string/strlen.c         0x00000000   Number         0  strlen.o ABSOLUTE
    ../clib/microlib/stubs.s                 0x00000000   Number         0  iusefp.o ABSOLUTE
    ../clib/microlib/stubs.s                 0x00000000   Number         0  iusesemip.o ABSOLUTE
    ../fplib/microlib/f2d.c                  0x00000000   Number         0  f2d.o ABSOLUTE
    ../fplib/microlib/fpadd.c                0x00000000   Number         0  dadd.o ABSOLUTE
    ../fplib/microlib/fpcmp.c                0x00000000   Number         0  fcmpeq.o ABSOLUTE
    ../fplib/microlib/fpdiv.c                0x00000000   Number         0  ddiv.o ABSOLUTE
    ../fplib/microlib/fpepilogue.c           0x00000000   Number         0  depilogue.o ABSOLUTE
    ../fplib/microlib/fpfix.c                0x00000000   Number         0  ffixui.o ABSOLUTE
    ../fplib/microlib/fpfix.c                0x00000000   Number         0  dfixi.o ABSOLUTE
    ../fplib/microlib/fpfix.c                0x00000000   Number         0  dfixul.o ABSOLUTE
    ../fplib/microlib/fpflt.c                0x00000000   Number         0  dfltui.o ABSOLUTE
    ../fplib/microlib/fpmul.c                0x00000000   Number         0  fmul.o ABSOLUTE
    ../fplib/microlib/fpmul.c                0x00000000   Number         0  dmul.o ABSOLUTE
    ../fplib/microlib/fpsqrt.c               0x00000000   Number         0  dsqrt.o ABSOLUTE
    ../mathlib/sqrt.c                        0x00000000   Number         0  sqrt.o ABSOLUTE
    app_key_task.c                           0x00000000   Number         0  app_key_task.o ABSOLUTE
    app_ui.c                                 0x00000000   Number         0  app_ui.o ABSOLUTE
    cdrcmple.s                               0x00000000   Number         0  cdrcmple.o ABSOLUTE
    dc.s                                     0x00000000   Number         0  dc.o ABSOLUTE
    dl_common.c                              0x00000000   Number         0  dl_common.o ABSOLUTE
    dl_spi.c                                 0x00000000   Number         0  dl_spi.o ABSOLUTE
    dl_sysctl_mspm0g1x0x_g3x0x.c             0x00000000   Number         0  dl_sysctl_mspm0g1x0x_g3x0x.o ABSOLUTE
    dl_timer.c                               0x00000000   Number         0  dl_timer.o ABSOLUTE
    dl_uart.c                                0x00000000   Number         0  dl_uart.o ABSOLUTE
    empty.c                                  0x00000000   Number         0  empty.o ABSOLUTE
    handlers.s                               0x00000000   Number         0  handlers.o ABSOLUTE
    hw_encoder.c                             0x00000000   Number         0  hw_encoder.o ABSOLUTE
    hw_key.c                                 0x00000000   Number         0  hw_key.o ABSOLUTE
    hw_lcd.c                                 0x00000000   Number         0  hw_lcd.o ABSOLUTE
    hw_motor.c                               0x00000000   Number         0  hw_motor.o ABSOLUTE
    init.s                                   0x00000000   Number         0  init.o ABSOLUTE
    mid_button.c                             0x00000000   Number         0  mid_button.o ABSOLUTE
    mid_debug_led.c                          0x00000000   Number         0  mid_debug_led.o ABSOLUTE
    mid_debug_uart.c                         0x00000000   Number         0  mid_debug_uart.o ABSOLUTE
    mid_timer.c                              0x00000000   Number         0  mid_timer.o ABSOLUTE
    startup_mspm0g350x_uvision.s             0x00000000   Number         0  startup_mspm0g350x_uvision.o ABSOLUTE
    ti_msp_dl_config.c                       0x00000000   Number         0  ti_msp_dl_config.o ABSOLUTE
    RESET                                    0x00000000   Section      192  startup_mspm0g350x_uvision.o(RESET)
    .ARM.Collect$$$$00000000                 0x000000c0   Section        0  entry.o(.ARM.Collect$$$$00000000)
    .ARM.Collect$$$$00000001                 0x000000c0   Section        4  entry2.o(.ARM.Collect$$$$00000001)
    .ARM.Collect$$$$00000004                 0x000000c4   Section        4  entry5.o(.ARM.Collect$$$$00000004)
    .ARM.Collect$$$$00000008                 0x000000c8   Section        0  entry7b.o(.ARM.Collect$$$$00000008)
    .ARM.Collect$$$$0000000A                 0x000000c8   Section        0  entry8b.o(.ARM.Collect$$$$0000000A)
    .ARM.Collect$$$$0000000B                 0x000000c8   Section        8  entry9a.o(.ARM.Collect$$$$0000000B)
    __lit__00000000                          0x000000d0   Data           4  entry2.o(.ARM.Collect$$$$00002712)
    .ARM.Collect$$$$0000000D                 0x000000d0   Section        0  entry10a.o(.ARM.Collect$$$$0000000D)
    .ARM.Collect$$$$0000000F                 0x000000d0   Section        0  entry11a.o(.ARM.Collect$$$$0000000F)
    .ARM.Collect$$$$00002712                 0x000000d0   Section        4  entry2.o(.ARM.Collect$$$$00002712)
    .text                                    0x000000d4   Section       20  startup_mspm0g350x_uvision.o(.text)
    .text                                    0x000000e8   Section        0  rand.o(.text)
    .text                                    0x0000010c   Section        0  memseta.o(.text)
    .text                                    0x00000130   Section        0  strlen.o(.text)
    .text                                    0x0000013e   Section        0  fcmpeq.o(.text)
    .text                                    0x0000015c   Section        0  dfltui.o(.text)
    .text                                    0x00000178   Section        0  dfixi.o(.text)
    .text                                    0x000001c0   Section        0  f2d.o(.text)
    .text                                    0x000001e8   Section        0  uidiv_div0.o(.text)
    .text                                    0x00000228   Section        0  idiv_div0.o(.text)
    .text                                    0x00000278   Section        0  uldiv.o(.text)
    .text                                    0x000002d8   Section        0  llushr.o(.text)
    .text                                    0x000002fa   Section        0  iusefp.o(.text)
    .text                                    0x000002fa   Section        0  depilogue.o(.text)
    .text                                    0x000003b8   Section        0  dadd.o(.text)
    .text                                    0x0000051c   Section        0  dmul.o(.text)
    .text                                    0x000005ec   Section        0  ddiv.o(.text)
    .text                                    0x000006dc   Section        0  dsqrt.o(.text)
    .text                                    0x00000780   Section        0  dfixul.o(.text)
    .text                                    0x000007c0   Section       40  cdrcmple.o(.text)
    .text                                    0x000007e8   Section       48  init.o(.text)
    .text                                    0x00000818   Section        0  llshl.o(.text)
    .text                                    0x00000838   Section        0  llsshr.o(.text)
    [Anonymous Symbol]                       0x0000085e   Section        0  dl_common.o(.text.DL_Common_delayCycles)
    DL_Common_updateReg                      0x00000869   Thumb Code    40  ti_msp_dl_config.o(.text.DL_Common_updateReg)
    [Anonymous Symbol]                       0x00000868   Section        0  ti_msp_dl_config.o(.text.DL_Common_updateReg)
    DL_GPIO_clearInterruptStatus             0x00000891   Thumb Code    24  ti_msp_dl_config.o(.text.DL_GPIO_clearInterruptStatus)
    [Anonymous Symbol]                       0x00000890   Section        0  ti_msp_dl_config.o(.text.DL_GPIO_clearInterruptStatus)
    DL_GPIO_clearInterruptStatus             0x000008a9   Thumb Code    24  hw_encoder.o(.text.DL_GPIO_clearInterruptStatus)
    [Anonymous Symbol]                       0x000008a8   Section        0  hw_encoder.o(.text.DL_GPIO_clearInterruptStatus)
    __arm_cp.9_0                             0x000008c0   Number         4  hw_encoder.o(.text.DL_GPIO_clearInterruptStatus)
    DL_GPIO_clearPins                        0x000008c5   Thumb Code    20  ti_msp_dl_config.o(.text.DL_GPIO_clearPins)
    [Anonymous Symbol]                       0x000008c4   Section        0  ti_msp_dl_config.o(.text.DL_GPIO_clearPins)
    DL_GPIO_clearPins                        0x000008d9   Thumb Code    20  hw_lcd.o(.text.DL_GPIO_clearPins)
    [Anonymous Symbol]                       0x000008d8   Section        0  hw_lcd.o(.text.DL_GPIO_clearPins)
    DL_GPIO_clearPins                        0x000008ed   Thumb Code    20  app_ui.o(.text.DL_GPIO_clearPins)
    [Anonymous Symbol]                       0x000008ec   Section        0  app_ui.o(.text.DL_GPIO_clearPins)
    DL_GPIO_enableInterrupt                  0x00000901   Thumb Code    24  ti_msp_dl_config.o(.text.DL_GPIO_enableInterrupt)
    [Anonymous Symbol]                       0x00000900   Section        0  ti_msp_dl_config.o(.text.DL_GPIO_enableInterrupt)
    __arm_cp.28_0                            0x00000918   Number         4  ti_msp_dl_config.o(.text.DL_GPIO_enableInterrupt)
    DL_GPIO_enableOutput                     0x0000091d   Thumb Code    20  ti_msp_dl_config.o(.text.DL_GPIO_enableOutput)
    [Anonymous Symbol]                       0x0000091c   Section        0  ti_msp_dl_config.o(.text.DL_GPIO_enableOutput)
    __arm_cp.20_0                            0x00000930   Number         4  ti_msp_dl_config.o(.text.DL_GPIO_enableOutput)
    DL_GPIO_enablePower                      0x00000935   Thumb Code    20  ti_msp_dl_config.o(.text.DL_GPIO_enablePower)
    [Anonymous Symbol]                       0x00000934   Section        0  ti_msp_dl_config.o(.text.DL_GPIO_enablePower)
    DL_GPIO_getEnabledInterruptStatus        0x00000949   Thumb Code    20  hw_encoder.o(.text.DL_GPIO_getEnabledInterruptStatus)
    [Anonymous Symbol]                       0x00000948   Section        0  hw_encoder.o(.text.DL_GPIO_getEnabledInterruptStatus)
    __arm_cp.7_0                             0x0000095c   Number         4  hw_encoder.o(.text.DL_GPIO_getEnabledInterruptStatus)
    DL_GPIO_initDigitalInputFeatures         0x00000961   Thumb Code    44  ti_msp_dl_config.o(.text.DL_GPIO_initDigitalInputFeatures)
    [Anonymous Symbol]                       0x00000960   Section        0  ti_msp_dl_config.o(.text.DL_GPIO_initDigitalInputFeatures)
    __arm_cp.24_0                            0x0000098c   Number         4  ti_msp_dl_config.o(.text.DL_GPIO_initDigitalInputFeatures)
    DL_GPIO_initDigitalOutput                0x00000991   Thumb Code    20  ti_msp_dl_config.o(.text.DL_GPIO_initDigitalOutput)
    [Anonymous Symbol]                       0x00000990   Section        0  ti_msp_dl_config.o(.text.DL_GPIO_initDigitalOutput)
    DL_GPIO_initDigitalOutputFeatures        0x000009a5   Thumb Code    44  ti_msp_dl_config.o(.text.DL_GPIO_initDigitalOutputFeatures)
    [Anonymous Symbol]                       0x000009a4   Section        0  ti_msp_dl_config.o(.text.DL_GPIO_initDigitalOutputFeatures)
    DL_GPIO_initPeripheralAnalogFunction     0x000009d1   Thumb Code    20  ti_msp_dl_config.o(.text.DL_GPIO_initPeripheralAnalogFunction)
    [Anonymous Symbol]                       0x000009d0   Section        0  ti_msp_dl_config.o(.text.DL_GPIO_initPeripheralAnalogFunction)
    DL_GPIO_initPeripheralInputFunction      0x000009e5   Thumb Code    24  ti_msp_dl_config.o(.text.DL_GPIO_initPeripheralInputFunction)
    [Anonymous Symbol]                       0x000009e4   Section        0  ti_msp_dl_config.o(.text.DL_GPIO_initPeripheralInputFunction)
    __arm_cp.21_0                            0x000009fc   Number         4  ti_msp_dl_config.o(.text.DL_GPIO_initPeripheralInputFunction)
    DL_GPIO_initPeripheralOutputFunction     0x00000a01   Thumb Code    24  ti_msp_dl_config.o(.text.DL_GPIO_initPeripheralOutputFunction)
    [Anonymous Symbol]                       0x00000a00   Section        0  ti_msp_dl_config.o(.text.DL_GPIO_initPeripheralOutputFunction)
    __arm_cp.19_0                            0x00000a18   Number         4  ti_msp_dl_config.o(.text.DL_GPIO_initPeripheralOutputFunction)
    DL_GPIO_readPins                         0x00000a1d   Thumb Code    22  hw_key.o(.text.DL_GPIO_readPins)
    [Anonymous Symbol]                       0x00000a1c   Section        0  hw_key.o(.text.DL_GPIO_readPins)
    DL_GPIO_readPins                         0x00000a33   Thumb Code    22  hw_encoder.o(.text.DL_GPIO_readPins)
    [Anonymous Symbol]                       0x00000a32   Section        0  hw_encoder.o(.text.DL_GPIO_readPins)
    DL_GPIO_reset                            0x00000a49   Thumb Code    16  ti_msp_dl_config.o(.text.DL_GPIO_reset)
    [Anonymous Symbol]                       0x00000a48   Section        0  ti_msp_dl_config.o(.text.DL_GPIO_reset)
    DL_GPIO_setLowerPinsPolarity             0x00000a59   Thumb Code    24  ti_msp_dl_config.o(.text.DL_GPIO_setLowerPinsPolarity)
    [Anonymous Symbol]                       0x00000a58   Section        0  ti_msp_dl_config.o(.text.DL_GPIO_setLowerPinsPolarity)
    __arm_cp.26_0                            0x00000a70   Number         4  ti_msp_dl_config.o(.text.DL_GPIO_setLowerPinsPolarity)
    DL_GPIO_setPins                          0x00000a75   Thumb Code    20  hw_lcd.o(.text.DL_GPIO_setPins)
    [Anonymous Symbol]                       0x00000a74   Section        0  hw_lcd.o(.text.DL_GPIO_setPins)
    DL_GPIO_setPins                          0x00000a89   Thumb Code    20  app_ui.o(.text.DL_GPIO_setPins)
    [Anonymous Symbol]                       0x00000a88   Section        0  app_ui.o(.text.DL_GPIO_setPins)
    __arm_cp.5_0                             0x00000a9c   Number         4  app_ui.o(.text.DL_GPIO_setPins)
    DL_SPI_enable                            0x00000aa1   Thumb Code    20  ti_msp_dl_config.o(.text.DL_SPI_enable)
    [Anonymous Symbol]                       0x00000aa0   Section        0  ti_msp_dl_config.o(.text.DL_SPI_enable)
    __arm_cp.46_0                            0x00000ab4   Number         4  ti_msp_dl_config.o(.text.DL_SPI_enable)
    DL_SPI_enablePower                       0x00000ab9   Thumb Code    20  ti_msp_dl_config.o(.text.DL_SPI_enablePower)
    [Anonymous Symbol]                       0x00000ab8   Section        0  ti_msp_dl_config.o(.text.DL_SPI_enablePower)
    __arm_cp.17_0                            0x00000acc   Number         4  ti_msp_dl_config.o(.text.DL_SPI_enablePower)
    [Anonymous Symbol]                       0x00000ad0   Section        0  dl_spi.o(.text.DL_SPI_init)
    __arm_cp.0_0                             0x00000b0c   Number         4  dl_spi.o(.text.DL_SPI_init)
    __arm_cp.0_1                             0x00000b10   Number         4  dl_spi.o(.text.DL_SPI_init)
    DL_SPI_isBusy                            0x00000b15   Thumb Code    20  hw_lcd.o(.text.DL_SPI_isBusy)
    [Anonymous Symbol]                       0x00000b14   Section        0  hw_lcd.o(.text.DL_SPI_isBusy)
    __arm_cp.2_0                             0x00000b28   Number         4  hw_lcd.o(.text.DL_SPI_isBusy)
    DL_SPI_reset                             0x00000b2d   Thumb Code    16  ti_msp_dl_config.o(.text.DL_SPI_reset)
    [Anonymous Symbol]                       0x00000b2c   Section        0  ti_msp_dl_config.o(.text.DL_SPI_reset)
    __arm_cp.13_0                            0x00000b3c   Number         4  ti_msp_dl_config.o(.text.DL_SPI_reset)
    __arm_cp.13_1                            0x00000b40   Number         4  ti_msp_dl_config.o(.text.DL_SPI_reset)
    DL_SPI_setBitRateSerialClockDivider      0x00000b45   Thumb Code    28  ti_msp_dl_config.o(.text.DL_SPI_setBitRateSerialClockDivider)
    [Anonymous Symbol]                       0x00000b44   Section        0  ti_msp_dl_config.o(.text.DL_SPI_setBitRateSerialClockDivider)
    __arm_cp.44_1                            0x00000b60   Number         4  ti_msp_dl_config.o(.text.DL_SPI_setBitRateSerialClockDivider)
    [Anonymous Symbol]                       0x00000b64   Section        0  dl_spi.o(.text.DL_SPI_setClockConfig)
    DL_SPI_setFIFOThreshold                  0x00000b79   Thumb Code    44  ti_msp_dl_config.o(.text.DL_SPI_setFIFOThreshold)
    [Anonymous Symbol]                       0x00000b78   Section        0  ti_msp_dl_config.o(.text.DL_SPI_setFIFOThreshold)
    __arm_cp.45_0                            0x00000ba4   Number         4  ti_msp_dl_config.o(.text.DL_SPI_setFIFOThreshold)
    DL_SPI_transmitData8                     0x00000ba9   Thumb Code    22  hw_lcd.o(.text.DL_SPI_transmitData8)
    [Anonymous Symbol]                       0x00000ba8   Section        0  hw_lcd.o(.text.DL_SPI_transmitData8)
    [Anonymous Symbol]                       0x00000bc0   Section        0  dl_sysctl_mspm0g1x0x_g3x0x.o(.text.DL_SYSCTL_configSYSPLL)
    __arm_cp.0_2                             0x00000c74   Number         4  dl_sysctl_mspm0g1x0x_g3x0x.o(.text.DL_SYSCTL_configSYSPLL)
    __arm_cp.0_3                             0x00000c78   Number         4  dl_sysctl_mspm0g1x0x_g3x0x.o(.text.DL_SYSCTL_configSYSPLL)
    __arm_cp.0_4                             0x00000c7c   Number         4  dl_sysctl_mspm0g1x0x_g3x0x.o(.text.DL_SYSCTL_configSYSPLL)
    DL_SYSCTL_disableHFXT                    0x00000c81   Thumb Code    12  ti_msp_dl_config.o(.text.DL_SYSCTL_disableHFXT)
    [Anonymous Symbol]                       0x00000c80   Section        0  ti_msp_dl_config.o(.text.DL_SYSCTL_disableHFXT)
    DL_SYSCTL_disableSYSPLL                  0x00000c8d   Thumb Code    16  ti_msp_dl_config.o(.text.DL_SYSCTL_disableSYSPLL)
    [Anonymous Symbol]                       0x00000c8c   Section        0  ti_msp_dl_config.o(.text.DL_SYSCTL_disableSYSPLL)
    __arm_cp.33_0                            0x00000c9c   Number         4  ti_msp_dl_config.o(.text.DL_SYSCTL_disableSYSPLL)
    DL_SYSCTL_setBORThreshold                0x00000ca1   Thumb Code    20  ti_msp_dl_config.o(.text.DL_SYSCTL_setBORThreshold)
    [Anonymous Symbol]                       0x00000ca0   Section        0  ti_msp_dl_config.o(.text.DL_SYSCTL_setBORThreshold)
    __arm_cp.29_0                            0x00000cb4   Number         4  ti_msp_dl_config.o(.text.DL_SYSCTL_setBORThreshold)
    DL_SYSCTL_setFlashWaitState              0x00000cb9   Thumb Code    28  ti_msp_dl_config.o(.text.DL_SYSCTL_setFlashWaitState)
    [Anonymous Symbol]                       0x00000cb8   Section        0  ti_msp_dl_config.o(.text.DL_SYSCTL_setFlashWaitState)
    [Anonymous Symbol]                       0x00000cd4   Section        0  dl_sysctl_mspm0g1x0x_g3x0x.o(.text.DL_SYSCTL_setHFCLKSourceHFXTParams)
    __arm_cp.7_0                             0x00000d20   Number         4  dl_sysctl_mspm0g1x0x_g3x0x.o(.text.DL_SYSCTL_setHFCLKSourceHFXTParams)
    DL_SYSCTL_setSYSOSCFreq                  0x00000d25   Thumb Code    24  ti_msp_dl_config.o(.text.DL_SYSCTL_setSYSOSCFreq)
    [Anonymous Symbol]                       0x00000d24   Section        0  ti_msp_dl_config.o(.text.DL_SYSCTL_setSYSOSCFreq)
    __arm_cp.31_0                            0x00000d3c   Number         4  ti_msp_dl_config.o(.text.DL_SYSCTL_setSYSOSCFreq)
    DL_SYSCTL_setULPCLKDivider               0x00000d41   Thumb Code    24  ti_msp_dl_config.o(.text.DL_SYSCTL_setULPCLKDivider)
    [Anonymous Symbol]                       0x00000d40   Section        0  ti_msp_dl_config.o(.text.DL_SYSCTL_setULPCLKDivider)
    [Anonymous Symbol]                       0x00000d58   Section        0  dl_sysctl_mspm0g1x0x_g3x0x.o(.text.DL_SYSCTL_switchMCLKfromSYSOSCtoHSCLK)
    __arm_cp.4_0                             0x00000d78   Number         4  dl_sysctl_mspm0g1x0x_g3x0x.o(.text.DL_SYSCTL_switchMCLKfromSYSOSCtoHSCLK)
    __arm_cp.4_1                             0x00000d7c   Number         4  dl_sysctl_mspm0g1x0x_g3x0x.o(.text.DL_SYSCTL_switchMCLKfromSYSOSCtoHSCLK)
    DL_Timer_enableClock                     0x00000d81   Thumb Code    16  ti_msp_dl_config.o(.text.DL_Timer_enableClock)
    [Anonymous Symbol]                       0x00000d80   Section        0  ti_msp_dl_config.o(.text.DL_Timer_enableClock)
    __arm_cp.37_0                            0x00000d90   Number         4  ti_msp_dl_config.o(.text.DL_Timer_enableClock)
    DL_Timer_enableInterrupt                 0x00000d95   Thumb Code    24  ti_msp_dl_config.o(.text.DL_Timer_enableInterrupt)
    [Anonymous Symbol]                       0x00000d94   Section        0  ti_msp_dl_config.o(.text.DL_Timer_enableInterrupt)
    DL_Timer_enablePower                     0x00000dad   Thumb Code    20  ti_msp_dl_config.o(.text.DL_Timer_enablePower)
    [Anonymous Symbol]                       0x00000dac   Section        0  ti_msp_dl_config.o(.text.DL_Timer_enablePower)
    __arm_cp.15_0                            0x00000dc0   Number         4  ti_msp_dl_config.o(.text.DL_Timer_enablePower)
    DL_Timer_getPendingInterrupt             0x00000dc5   Thumb Code    18  mid_timer.o(.text.DL_Timer_getPendingInterrupt)
    [Anonymous Symbol]                       0x00000dc4   Section        0  mid_timer.o(.text.DL_Timer_getPendingInterrupt)
    [Anonymous Symbol]                       0x00000dd8   Section        0  dl_timer.o(.text.DL_Timer_initFourCCPWMMode)
    __arm_cp.40_1                            0x00000ecc   Number         4  dl_timer.o(.text.DL_Timer_initFourCCPWMMode)
    __arm_cp.40_2                            0x00000ed0   Number         4  dl_timer.o(.text.DL_Timer_initFourCCPWMMode)
    __arm_cp.40_4                            0x00000ed4   Number         4  dl_timer.o(.text.DL_Timer_initFourCCPWMMode)
    __arm_cp.40_5                            0x00000ed8   Number         4  dl_timer.o(.text.DL_Timer_initFourCCPWMMode)
    __arm_cp.40_6                            0x00000edc   Number         4  dl_timer.o(.text.DL_Timer_initFourCCPWMMode)
    [Anonymous Symbol]                       0x00000ee0   Section        0  dl_timer.o(.text.DL_Timer_initTimerMode)
    __arm_cp.2_0                             0x00000fc0   Number         4  dl_timer.o(.text.DL_Timer_initTimerMode)
    __arm_cp.2_2                             0x00000fc4   Number         4  dl_timer.o(.text.DL_Timer_initTimerMode)
    __arm_cp.2_3                             0x00000fc8   Number         4  dl_timer.o(.text.DL_Timer_initTimerMode)
    DL_Timer_reset                           0x00000fcd   Thumb Code    16  ti_msp_dl_config.o(.text.DL_Timer_reset)
    [Anonymous Symbol]                       0x00000fcc   Section        0  ti_msp_dl_config.o(.text.DL_Timer_reset)
    DL_Timer_setCCPDirection                 0x00000fdd   Thumb Code    20  ti_msp_dl_config.o(.text.DL_Timer_setCCPDirection)
    [Anonymous Symbol]                       0x00000fdc   Section        0  ti_msp_dl_config.o(.text.DL_Timer_setCCPDirection)
    [Anonymous Symbol]                       0x00000ff0   Section        0  dl_timer.o(.text.DL_Timer_setCaptCompUpdateMethod)
    __arm_cp.23_0                            0x00001008   Number         4  dl_timer.o(.text.DL_Timer_setCaptCompUpdateMethod)
    [Anonymous Symbol]                       0x0000100c   Section        0  dl_timer.o(.text.DL_Timer_setCaptureCompareOutCtl)
    __arm_cp.27_0                            0x00001020   Number         4  dl_timer.o(.text.DL_Timer_setCaptureCompareOutCtl)
    [Anonymous Symbol]                       0x00001024   Section        0  dl_timer.o(.text.DL_Timer_setCaptureCompareValue)
    __arm_cp.3_0                             0x00001030   Number         4  dl_timer.o(.text.DL_Timer_setCaptureCompareValue)
    [Anonymous Symbol]                       0x00001034   Section        0  dl_timer.o(.text.DL_Timer_setClockConfig)
    __arm_cp.0_0                             0x0000104c   Number         4  dl_timer.o(.text.DL_Timer_setClockConfig)
    DL_Timer_setCounterControl               0x00001051   Thumb Code    52  ti_msp_dl_config.o(.text.DL_Timer_setCounterControl)
    [Anonymous Symbol]                       0x00001050   Section        0  ti_msp_dl_config.o(.text.DL_Timer_setCounterControl)
    __arm_cp.36_0                            0x00001084   Number         4  ti_msp_dl_config.o(.text.DL_Timer_setCounterControl)
    __arm_cp.36_1                            0x00001088   Number         4  ti_msp_dl_config.o(.text.DL_Timer_setCounterControl)
    DL_UART_enable                           0x0000108d   Thumb Code    22  ti_msp_dl_config.o(.text.DL_UART_enable)
    [Anonymous Symbol]                       0x0000108c   Section        0  ti_msp_dl_config.o(.text.DL_UART_enable)
    DL_UART_enableInterrupt                  0x000010a5   Thumb Code    24  ti_msp_dl_config.o(.text.DL_UART_enableInterrupt)
    [Anonymous Symbol]                       0x000010a4   Section        0  ti_msp_dl_config.o(.text.DL_UART_enableInterrupt)
    __arm_cp.42_0                            0x000010bc   Number         4  ti_msp_dl_config.o(.text.DL_UART_enableInterrupt)
    DL_UART_enablePower                      0x000010c1   Thumb Code    20  ti_msp_dl_config.o(.text.DL_UART_enablePower)
    [Anonymous Symbol]                       0x000010c0   Section        0  ti_msp_dl_config.o(.text.DL_UART_enablePower)
    __arm_cp.16_0                            0x000010d4   Number         4  ti_msp_dl_config.o(.text.DL_UART_enablePower)
    DL_UART_getPendingInterrupt              0x000010d9   Thumb Code    18  mid_debug_uart.o(.text.DL_UART_getPendingInterrupt)
    [Anonymous Symbol]                       0x000010d8   Section        0  mid_debug_uart.o(.text.DL_UART_getPendingInterrupt)
    [Anonymous Symbol]                       0x000010ec   Section        0  dl_uart.o(.text.DL_UART_init)
    __arm_cp.0_0                             0x0000112c   Number         4  dl_uart.o(.text.DL_UART_init)
    __arm_cp.0_1                             0x00001130   Number         4  dl_uart.o(.text.DL_UART_init)
    DL_UART_receiveData                      0x00001135   Thumb Code    16  mid_debug_uart.o(.text.DL_UART_receiveData)
    [Anonymous Symbol]                       0x00001134   Section        0  mid_debug_uart.o(.text.DL_UART_receiveData)
    __arm_cp.11_0                            0x00001144   Number         4  mid_debug_uart.o(.text.DL_UART_receiveData)
    DL_UART_reset                            0x00001149   Thumb Code    16  ti_msp_dl_config.o(.text.DL_UART_reset)
    [Anonymous Symbol]                       0x00001148   Section        0  ti_msp_dl_config.o(.text.DL_UART_reset)
    __arm_cp.12_0                            0x00001158   Number         4  ti_msp_dl_config.o(.text.DL_UART_reset)
    __arm_cp.12_1                            0x0000115c   Number         4  ti_msp_dl_config.o(.text.DL_UART_reset)
    DL_UART_setBaudRateDivisor               0x00001161   Thumb Code    60  ti_msp_dl_config.o(.text.DL_UART_setBaudRateDivisor)
    [Anonymous Symbol]                       0x00001160   Section        0  ti_msp_dl_config.o(.text.DL_UART_setBaudRateDivisor)
    __arm_cp.41_0                            0x0000119c   Number         4  ti_msp_dl_config.o(.text.DL_UART_setBaudRateDivisor)
    __arm_cp.41_1                            0x000011a0   Number         4  ti_msp_dl_config.o(.text.DL_UART_setBaudRateDivisor)
    __arm_cp.41_2                            0x000011a4   Number         4  ti_msp_dl_config.o(.text.DL_UART_setBaudRateDivisor)
    __arm_cp.41_3                            0x000011a8   Number         4  ti_msp_dl_config.o(.text.DL_UART_setBaudRateDivisor)
    [Anonymous Symbol]                       0x000011ac   Section        0  dl_uart.o(.text.DL_UART_setClockConfig)
    DL_UART_setOversampling                  0x000011bf   Thumb Code    30  ti_msp_dl_config.o(.text.DL_UART_setOversampling)
    [Anonymous Symbol]                       0x000011be   Section        0  ti_msp_dl_config.o(.text.DL_UART_setOversampling)
    [Anonymous Symbol]                       0x000011dc   Section        0  hw_lcd.o(.text.Drawarc)
    [Anonymous Symbol]                       0x00001330   Section        0  hw_encoder.o(.text.GROUP1_IRQHandler)
    __arm_cp.6_0                             0x000013cc   Number         4  hw_encoder.o(.text.GROUP1_IRQHandler)
    __arm_cp.6_1                             0x000013d0   Number         4  hw_encoder.o(.text.GROUP1_IRQHandler)
    [Anonymous Symbol]                       0x000013d4   Section        0  hw_lcd.o(.text.LCD_Address_Set)
    [Anonymous Symbol]                       0x00001412   Section        0  hw_lcd.o(.text.LCD_ArcRect)
    [Anonymous Symbol]                       0x0000155c   Section        0  hw_lcd.o(.text.LCD_DrawLine)
    [Anonymous Symbol]                       0x00001668   Section        0  hw_lcd.o(.text.LCD_DrawPoint)
    [Anonymous Symbol]                       0x00001688   Section        0  hw_lcd.o(.text.LCD_DrawRectangle)
    [Anonymous Symbol]                       0x000016da   Section        0  hw_lcd.o(.text.LCD_DrawVerrticalLine)
    [Anonymous Symbol]                       0x0000171c   Section        0  hw_lcd.o(.text.LCD_Fill)
    [Anonymous Symbol]                       0x00001778   Section        0  hw_lcd.o(.text.LCD_ShowChar)
    __arm_cp.24_0                            0x00001944   Number         4  hw_lcd.o(.text.LCD_ShowChar)
    __arm_cp.24_1                            0x00001948   Number         4  hw_lcd.o(.text.LCD_ShowChar)
    __arm_cp.24_2                            0x0000194c   Number         4  hw_lcd.o(.text.LCD_ShowChar)
    __arm_cp.24_3                            0x00001950   Number         4  hw_lcd.o(.text.LCD_ShowChar)
    [Anonymous Symbol]                       0x00001954   Section        0  hw_lcd.o(.text.LCD_ShowChinese)
    [Anonymous Symbol]                       0x00001a7c   Section        0  hw_lcd.o(.text.LCD_ShowChinese12x12)
    __arm_cp.20_0                            0x00001c14   Number         4  hw_lcd.o(.text.LCD_ShowChinese12x12)
    [Anonymous Symbol]                       0x00001c18   Section        0  hw_lcd.o(.text.LCD_ShowChinese16x16)
    __arm_cp.21_0                            0x00001db0   Number         4  hw_lcd.o(.text.LCD_ShowChinese16x16)
    [Anonymous Symbol]                       0x00001db4   Section        0  hw_lcd.o(.text.LCD_ShowChinese24x24)
    __arm_cp.22_0                            0x00001f4c   Number         4  hw_lcd.o(.text.LCD_ShowChinese24x24)
    [Anonymous Symbol]                       0x00001f50   Section        0  hw_lcd.o(.text.LCD_ShowChinese32x32)
    __arm_cp.23_0                            0x000020e8   Number         4  hw_lcd.o(.text.LCD_ShowChinese32x32)
    [Anonymous Symbol]                       0x000020ec   Section        0  hw_lcd.o(.text.LCD_ShowString)
    [Anonymous Symbol]                       0x0000214e   Section        0  hw_lcd.o(.text.LCD_WR_DATA)
    [Anonymous Symbol]                       0x0000216a   Section        0  hw_lcd.o(.text.LCD_WR_DATA8)
    [Anonymous Symbol]                       0x00002180   Section        0  hw_lcd.o(.text.LCD_WR_REG)
    [Anonymous Symbol]                       0x000021ac   Section        0  hw_lcd.o(.text.LCD_Writ_Bus)
    [Anonymous Symbol]                       0x000021d8   Section        0  ti_msp_dl_config.o(.text.SYSCFG_DL_GPIO_init)
    __arm_cp.2_2                             0x000022ec   Number         4  ti_msp_dl_config.o(.text.SYSCFG_DL_GPIO_init)
    [Anonymous Symbol]                       0x000022f0   Section        0  ti_msp_dl_config.o(.text.SYSCFG_DL_PWM_MOTOR_init)
    __arm_cp.4_0                             0x00002370   Number         4  ti_msp_dl_config.o(.text.SYSCFG_DL_PWM_MOTOR_init)
    __arm_cp.4_2                             0x00002374   Number         4  ti_msp_dl_config.o(.text.SYSCFG_DL_PWM_MOTOR_init)
    __arm_cp.4_3                             0x00002378   Number         4  ti_msp_dl_config.o(.text.SYSCFG_DL_PWM_MOTOR_init)
    [Anonymous Symbol]                       0x0000237c   Section        0  ti_msp_dl_config.o(.text.SYSCFG_DL_SPI_LCD_init)
    __arm_cp.7_0                             0x000023b0   Number         4  ti_msp_dl_config.o(.text.SYSCFG_DL_SPI_LCD_init)
    __arm_cp.7_2                             0x000023b4   Number         4  ti_msp_dl_config.o(.text.SYSCFG_DL_SPI_LCD_init)
    [Anonymous Symbol]                       0x000023b8   Section        0  ti_msp_dl_config.o(.text.SYSCFG_DL_SYSCTL_init)
    __arm_cp.3_0                             0x00002408   Number         4  ti_msp_dl_config.o(.text.SYSCFG_DL_SYSCTL_init)
    [Anonymous Symbol]                       0x0000240c   Section        0  ti_msp_dl_config.o(.text.SYSCFG_DL_TIMER_TICK_init)
    __arm_cp.5_0                             0x0000243c   Number         4  ti_msp_dl_config.o(.text.SYSCFG_DL_TIMER_TICK_init)
    __arm_cp.5_2                             0x00002440   Number         4  ti_msp_dl_config.o(.text.SYSCFG_DL_TIMER_TICK_init)
    [Anonymous Symbol]                       0x00002444   Section        0  ti_msp_dl_config.o(.text.SYSCFG_DL_UART_DEBUG_init)
    __arm_cp.6_0                             0x0000248c   Number         4  ti_msp_dl_config.o(.text.SYSCFG_DL_UART_DEBUG_init)
    __arm_cp.6_2                             0x00002490   Number         4  ti_msp_dl_config.o(.text.SYSCFG_DL_UART_DEBUG_init)
    [Anonymous Symbol]                       0x00002494   Section        0  ti_msp_dl_config.o(.text.SYSCFG_DL_init)
    __arm_cp.0_0                             0x000024c8   Number         4  ti_msp_dl_config.o(.text.SYSCFG_DL_init)
    __arm_cp.0_1                             0x000024cc   Number         4  ti_msp_dl_config.o(.text.SYSCFG_DL_init)
    __arm_cp.0_2                             0x000024d0   Number         4  ti_msp_dl_config.o(.text.SYSCFG_DL_init)
    [Anonymous Symbol]                       0x000024d4   Section        0  ti_msp_dl_config.o(.text.SYSCFG_DL_initPower)
    __arm_cp.1_0                             0x00002538   Number         4  ti_msp_dl_config.o(.text.SYSCFG_DL_initPower)
    __arm_cp.1_1                             0x0000253c   Number         4  ti_msp_dl_config.o(.text.SYSCFG_DL_initPower)
    __arm_cp.1_2                             0x00002540   Number         4  ti_msp_dl_config.o(.text.SYSCFG_DL_initPower)
    __arm_cp.1_5                             0x00002544   Number         4  ti_msp_dl_config.o(.text.SYSCFG_DL_initPower)
    [Anonymous Symbol]                       0x00002548   Section        0  mid_timer.o(.text.TIMA0_IRQHandler)
    __arm_cp.3_0                             0x00002564   Number         4  mid_timer.o(.text.TIMA0_IRQHandler)
    [Anonymous Symbol]                       0x00002568   Section        0  mid_debug_uart.o(.text.UART0_IRQHandler)
    __arm_cp.9_0                             0x00002590   Number         4  mid_debug_uart.o(.text.UART0_IRQHandler)
    __NVIC_ClearPendingIRQ                   0x00002595   Thumb Code    40  hw_encoder.o(.text.__NVIC_ClearPendingIRQ)
    [Anonymous Symbol]                       0x00002594   Section        0  hw_encoder.o(.text.__NVIC_ClearPendingIRQ)
    __NVIC_ClearPendingIRQ                   0x000025bd   Thumb Code    40  mid_debug_uart.o(.text.__NVIC_ClearPendingIRQ)
    [Anonymous Symbol]                       0x000025bc   Section        0  mid_debug_uart.o(.text.__NVIC_ClearPendingIRQ)
    __NVIC_ClearPendingIRQ                   0x000025e5   Thumb Code    40  mid_timer.o(.text.__NVIC_ClearPendingIRQ)
    [Anonymous Symbol]                       0x000025e4   Section        0  mid_timer.o(.text.__NVIC_ClearPendingIRQ)
    __arm_cp.1_0                             0x0000260c   Number         4  mid_timer.o(.text.__NVIC_ClearPendingIRQ)
    __NVIC_EnableIRQ                         0x00002611   Thumb Code    40  hw_encoder.o(.text.__NVIC_EnableIRQ)
    [Anonymous Symbol]                       0x00002610   Section        0  hw_encoder.o(.text.__NVIC_EnableIRQ)
    __NVIC_EnableIRQ                         0x00002639   Thumb Code    40  mid_debug_uart.o(.text.__NVIC_EnableIRQ)
    [Anonymous Symbol]                       0x00002638   Section        0  mid_debug_uart.o(.text.__NVIC_EnableIRQ)
    __NVIC_EnableIRQ                         0x00002661   Thumb Code    40  mid_timer.o(.text.__NVIC_EnableIRQ)
    [Anonymous Symbol]                       0x00002660   Section        0  mid_timer.o(.text.__NVIC_EnableIRQ)
    __arm_cp.2_0                             0x00002688   Number         4  mid_timer.o(.text.__NVIC_EnableIRQ)
    __NVIC_SetPriority                       0x0000268d   Thumb Code   124  ti_msp_dl_config.o(.text.__NVIC_SetPriority)
    [Anonymous Symbol]                       0x0000268c   Section        0  ti_msp_dl_config.o(.text.__NVIC_SetPriority)
    __arm_cp.35_0                            0x00002708   Number         4  ti_msp_dl_config.o(.text.__NVIC_SetPriority)
    __arm_cp.35_1                            0x0000270c   Number         4  ti_msp_dl_config.o(.text.__NVIC_SetPriority)
    [Anonymous Symbol]                       0x00002710   Section        0  app_key_task.o(.text.btn_down_cb)
    [Anonymous Symbol]                       0x00002740   Section        0  app_key_task.o(.text.btn_left_cb)
    [Anonymous Symbol]                       0x00002774   Section        0  app_key_task.o(.text.btn_right_cb)
    __arm_cp.4_0                             0x000027d4   Number         4  app_key_task.o(.text.btn_right_cb)
    __arm_cp.4_1                             0x000027d8   Number         4  app_key_task.o(.text.btn_right_cb)
    [Anonymous Symbol]                       0x000027dc   Section        0  app_key_task.o(.text.btn_up_cb)
    button_down_read                         0x0000280d   Thumb Code    22  mid_button.o(.text.button_down_read)
    [Anonymous Symbol]                       0x0000280c   Section        0  mid_button.o(.text.button_down_read)
    button_left_read                         0x00002823   Thumb Code    22  mid_button.o(.text.button_left_read)
    [Anonymous Symbol]                       0x00002822   Section        0  mid_button.o(.text.button_left_read)
    button_right_read                        0x00002839   Thumb Code    22  mid_button.o(.text.button_right_read)
    [Anonymous Symbol]                       0x00002838   Section        0  mid_button.o(.text.button_right_read)
    button_up_read                           0x0000284f   Thumb Code    22  mid_button.o(.text.button_up_read)
    [Anonymous Symbol]                       0x0000284e   Section        0  mid_button.o(.text.button_up_read)
    [Anonymous Symbol]                       0x00002864   Section        0  mid_debug_uart.o(.text.debug_uart_init)
    debug_uart_receive_limit_length          0x0000287d   Thumb Code    40  mid_debug_uart.o(.text.debug_uart_receive_limit_length)
    [Anonymous Symbol]                       0x0000287c   Section        0  mid_debug_uart.o(.text.debug_uart_receive_limit_length)
    __arm_cp.12_0                            0x000028a4   Number         4  mid_debug_uart.o(.text.debug_uart_receive_limit_length)
    [Anonymous Symbol]                       0x000028a8   Section        0  app_ui.o(.text.disp_select_box)
    [Anonymous Symbol]                       0x00002994   Section        0  app_ui.o(.text.disp_string_rect)
    [Anonymous Symbol]                       0x00002a18   Section        0  app_ui.o(.text.disp_x_center)
    [Anonymous Symbol]                       0x00002a78   Section        0  app_ui.o(.text.draw_speed_curve)
    __arm_cp.14_0                            0x00002ba0   Number         4  app_ui.o(.text.draw_speed_curve)
    __arm_cp.14_1                            0x00002ba4   Number         4  app_ui.o(.text.draw_speed_curve)
    __arm_cp.14_2                            0x00002ba8   Number         4  app_ui.o(.text.draw_speed_curve)
    __arm_cp.14_3                            0x00002bac   Number         4  app_ui.o(.text.draw_speed_curve)
    [Anonymous Symbol]                       0x00002bb0   Section        0  hw_encoder.o(.text.encoder_init)
    [Anonymous Symbol]                       0x00002bc8   Section        0  hw_encoder.o(.text.encoder_update)
    __arm_cp.5_0                             0x00002be0   Number         4  hw_encoder.o(.text.encoder_update)
    flex_button_process                      0x00002be5   Thumb Code  1016  mid_button.o(.text.flex_button_process)
    [Anonymous Symbol]                       0x00002be4   Section        0  mid_button.o(.text.flex_button_process)
    __arm_cp.9_0                             0x00002fdc   Number         4  mid_button.o(.text.flex_button_process)
    __arm_cp.9_1                             0x00002fe0   Number         4  mid_button.o(.text.flex_button_process)
    __arm_cp.9_2                             0x00002fe4   Number         4  mid_button.o(.text.flex_button_process)
    flex_button_read                         0x00002fe9   Thumb Code   188  mid_button.o(.text.flex_button_read)
    [Anonymous Symbol]                       0x00002fe8   Section        0  mid_button.o(.text.flex_button_read)
    __arm_cp.8_1                             0x000030a4   Number         4  mid_button.o(.text.flex_button_read)
    __arm_cp.8_3                             0x000030a8   Number         4  mid_button.o(.text.flex_button_read)
    __arm_cp.8_4                             0x000030ac   Number         4  mid_button.o(.text.flex_button_read)
    [Anonymous Symbol]                       0x000030b0   Section        0  mid_button.o(.text.flex_button_register)
    __arm_cp.5_0                             0x00003148   Number         4  mid_button.o(.text.flex_button_register)
    __arm_cp.5_1                             0x0000314c   Number         4  mid_button.o(.text.flex_button_register)
    __arm_cp.5_2                             0x00003150   Number         4  mid_button.o(.text.flex_button_register)
    [Anonymous Symbol]                       0x00003154   Section        0  mid_button.o(.text.flex_button_scan)
    [Anonymous Symbol]                       0x00003160   Section        0  empty.o(.text.generate_random)
    [Anonymous Symbol]                       0x00003170   Section        0  app_key_task.o(.text.get_app_key_current_mode)
    [Anonymous Symbol]                       0x00003178   Section        0  hw_key.o(.text.key_scan)
    __arm_cp.0_0                             0x00003200   Number         4  hw_key.o(.text.key_scan)
    [Anonymous Symbol]                       0x00003204   Section        0  hw_lcd.o(.text.lcd_init)
    __arm_cp.10_0                            0x000033c4   Number         4  hw_lcd.o(.text.lcd_init)
    __arm_cp.10_1                            0x000033c8   Number         4  hw_lcd.o(.text.lcd_init)
    __arm_cp.10_2                            0x000033cc   Number         4  hw_lcd.o(.text.lcd_init)
    __arm_cp.10_3                            0x000033d0   Number         4  hw_lcd.o(.text.lcd_init)
    [Anonymous Symbol]                       0x000033d4   Section        0  empty.o(.text.main)
    __arm_cp.1_0                             0x0000346c   Number         4  empty.o(.text.main)
    __arm_cp.1_1                             0x00003470   Number         4  empty.o(.text.main)
    __arm_cp.1_2                             0x00003474   Number         4  empty.o(.text.main)
    __arm_cp.1_3                             0x00003478   Number         4  empty.o(.text.main)
    __arm_cp.1_4                             0x0000347c   Number         4  empty.o(.text.main)
    __arm_cp.1_5                             0x00003480   Number         4  empty.o(.text.main)
    __arm_cp.1_6                             0x00003484   Number         4  empty.o(.text.main)
    restrict_pwm_max_value                   0x00003489   Thumb Code    28  hw_motor.o(.text.restrict_pwm_max_value)
    [Anonymous Symbol]                       0x00003488   Section        0  hw_motor.o(.text.restrict_pwm_max_value)
    __arm_cp.1_0                             0x000034a4   Number         4  hw_motor.o(.text.restrict_pwm_max_value)
    __arm_cp.1_1                             0x000034a8   Number         4  hw_motor.o(.text.restrict_pwm_max_value)
    [Anonymous Symbol]                       0x000034ac   Section        0  app_key_task.o(.text.set_app_key_current_mode)
    __arm_cp.0_0                             0x000034bc   Number         4  app_key_task.o(.text.set_app_key_current_mode)
    set_bi                                   0x000034c1   Thumb Code    24  hw_motor.o(.text.set_bi)
    [Anonymous Symbol]                       0x000034c0   Section        0  hw_motor.o(.text.set_bi)
    set_fi                                   0x000034d9   Thumb Code    24  hw_motor.o(.text.set_fi)
    [Anonymous Symbol]                       0x000034d8   Section        0  hw_motor.o(.text.set_fi)
    __arm_cp.2_0                             0x000034f0   Number         4  hw_motor.o(.text.set_fi)
    [Anonymous Symbol]                       0x000034f4   Section        0  hw_motor.o(.text.set_motor)
    [Anonymous Symbol]                       0x00003524   Section        0  hw_lcd.o(.text.spi_write_bus)
    __arm_cp.0_0                             0x0000354c   Number         4  hw_lcd.o(.text.spi_write_bus)
    [Anonymous Symbol]                       0x00003550   Section        0  hw_motor.o(.text.stop_motor)
    [Anonymous Symbol]                       0x0000355c   Section        0  mid_timer.o(.text.timer_init)
    [Anonymous Symbol]                       0x00003574   Section        0  app_ui.o(.text.ui_home_page)
    __arm_cp.3_1                             0x00003634   Number         4  app_ui.o(.text.ui_home_page)
    __arm_cp.3_2                             0x00003638   Number         4  app_ui.o(.text.ui_home_page)
    __arm_cp.3_3                             0x0000363c   Number         4  app_ui.o(.text.ui_home_page)
    __arm_cp.3_4                             0x00003640   Number         4  app_ui.o(.text.ui_home_page)
    [Anonymous Symbol]                       0x00003644   Section        0  app_ui.o(.text.ui_parameter_select_box_bold)
    [Anonymous Symbol]                       0x00003760   Section        0  app_ui.o(.text.ui_speed_page)
    __arm_cp.7_0                             0x000038ac   Number         4  app_ui.o(.text.ui_speed_page)
    __arm_cp.7_1                             0x000038b0   Number         4  app_ui.o(.text.ui_speed_page)
    __arm_cp.7_2                             0x000038b4   Number         4  app_ui.o(.text.ui_speed_page)
    __arm_cp.7_3                             0x000038b8   Number         4  app_ui.o(.text.ui_speed_page)
    [Anonymous Symbol]                       0x000038bc   Section        0  app_ui.o(.text.ui_speed_page_select_box)
    __arm_cp.9_0                             0x00003ab4   Number         4  app_ui.o(.text.ui_speed_page_select_box)
    [Anonymous Symbol]                       0x00003ab8   Section        0  app_ui.o(.text.ui_speed_page_value_set)
    __arm_cp.8_0                             0x00003cfc   Number         4  app_ui.o(.text.ui_speed_page_value_set)
    __arm_cp.8_1                             0x00003d00   Number         4  app_ui.o(.text.ui_speed_page_value_set)
    __arm_cp.8_2                             0x00003d04   Number         4  app_ui.o(.text.ui_speed_page_value_set)
    __arm_cp.8_3                             0x00003d08   Number         4  app_ui.o(.text.ui_speed_page_value_set)
    __arm_cp.8_4                             0x00003d0c   Number         4  app_ui.o(.text.ui_speed_page_value_set)
    __arm_cp.8_5                             0x00003d10   Number         4  app_ui.o(.text.ui_speed_page_value_set)
    __arm_cp.8_6                             0x00003d14   Number         4  app_ui.o(.text.ui_speed_page_value_set)
    __arm_cp.8_7                             0x00003d18   Number         4  app_ui.o(.text.ui_speed_page_value_set)
    __arm_cp.8_8                             0x00003d1c   Number         4  app_ui.o(.text.ui_speed_page_value_set)
    [Anonymous Symbol]                       0x00003d20   Section        0  mid_button.o(.text.user_button_init)
    __arm_cp.0_0                             0x00003db8   Number         4  mid_button.o(.text.user_button_init)
    __arm_cp.0_1                             0x00003dbc   Number         4  mid_button.o(.text.user_button_init)
    __arm_cp.0_2                             0x00003dc0   Number         4  mid_button.o(.text.user_button_init)
    __arm_cp.0_3                             0x00003dc4   Number         4  mid_button.o(.text.user_button_init)
    __arm_cp.0_4                             0x00003dc8   Number         4  mid_button.o(.text.user_button_init)
    __arm_cp.0_5                             0x00003dcc   Number         4  mid_button.o(.text.user_button_init)
    __arm_cp.0_6                             0x00003dd0   Number         4  mid_button.o(.text.user_button_init)
    __arm_cp.0_7                             0x00003dd4   Number         4  mid_button.o(.text.user_button_init)
    __arm_cp.0_8                             0x00003dd8   Number         4  mid_button.o(.text.user_button_init)
    i.__0sprintf                             0x00003ddc   Section        0  printfa.o(i.__0sprintf)
    i.__ARM_clz                              0x00003e04   Section        0  depilogue.o(i.__ARM_clz)
    i.__scatterload_copy                     0x00003e38   Section       14  handlers.o(i.__scatterload_copy)
    i.__scatterload_null                     0x00003e48   Section        2  handlers.o(i.__scatterload_null)
    i.__scatterload_zeroinit                 0x00003e50   Section       14  handlers.o(i.__scatterload_zeroinit)
    i.__set_errno                            0x00003e60   Section        0  errno.o(i.__set_errno)
    _fp_digits                               0x00003e6d   Thumb Code   344  printfa.o(i._fp_digits)
    i._fp_digits                             0x00003e6c   Section        0  printfa.o(i._fp_digits)
    _printf_core                             0x00003fe1   Thumb Code  1754  printfa.o(i._printf_core)
    i._printf_core                           0x00003fe0   Section        0  printfa.o(i._printf_core)
    _printf_post_padding                     0x000046cd   Thumb Code    32  printfa.o(i._printf_post_padding)
    i._printf_post_padding                   0x000046cc   Section        0  printfa.o(i._printf_post_padding)
    _printf_pre_padding                      0x000046ed   Thumb Code    44  printfa.o(i._printf_pre_padding)
    i._printf_pre_padding                    0x000046ec   Section        0  printfa.o(i._printf_pre_padding)
    _sputc                                   0x00004719   Thumb Code    10  printfa.o(i._sputc)
    i._sputc                                 0x00004718   Section        0  printfa.o(i._sputc)
    i.sqrt                                   0x00004724   Section        0  sqrt.o(i.sqrt)
    gPWM_MOTORClockConfig                    0x00007b60   Data           3  ti_msp_dl_config.o(.rodata.gPWM_MOTORClockConfig)
    [Anonymous Symbol]                       0x00007b60   Section        0  ti_msp_dl_config.o(.rodata.gPWM_MOTORClockConfig)
    gPWM_MOTORConfig                         0x00007b64   Data           8  ti_msp_dl_config.o(.rodata.gPWM_MOTORConfig)
    [Anonymous Symbol]                       0x00007b64   Section        0  ti_msp_dl_config.o(.rodata.gPWM_MOTORConfig)
    gSPI_LCD_clockConfig                     0x00007b6c   Data           2  ti_msp_dl_config.o(.rodata.gSPI_LCD_clockConfig)
    [Anonymous Symbol]                       0x00007b6c   Section        0  ti_msp_dl_config.o(.rodata.gSPI_LCD_clockConfig)
    gSPI_LCD_config                          0x00007b6e   Data          10  ti_msp_dl_config.o(.rodata.gSPI_LCD_config)
    [Anonymous Symbol]                       0x00007b6e   Section        0  ti_msp_dl_config.o(.rodata.gSPI_LCD_config)
    gSYSPLLConfig                            0x00007b78   Data          40  ti_msp_dl_config.o(.rodata.gSYSPLLConfig)
    [Anonymous Symbol]                       0x00007b78   Section        0  ti_msp_dl_config.o(.rodata.gSYSPLLConfig)
    gTIMER_TICKClockConfig                   0x00007ba0   Data           3  ti_msp_dl_config.o(.rodata.gTIMER_TICKClockConfig)
    [Anonymous Symbol]                       0x00007ba0   Section        0  ti_msp_dl_config.o(.rodata.gTIMER_TICKClockConfig)
    gTIMER_TICKTimerConfig                   0x00007ba4   Data          20  ti_msp_dl_config.o(.rodata.gTIMER_TICKTimerConfig)
    [Anonymous Symbol]                       0x00007ba4   Section        0  ti_msp_dl_config.o(.rodata.gTIMER_TICKTimerConfig)
    gUART_DEBUGClockConfig                   0x00007bb8   Data           2  ti_msp_dl_config.o(.rodata.gUART_DEBUGClockConfig)
    [Anonymous Symbol]                       0x00007bb8   Section        0  ti_msp_dl_config.o(.rodata.gUART_DEBUGClockConfig)
    gUART_DEBUGConfig                        0x00007bba   Data          10  ti_msp_dl_config.o(.rodata.gUART_DEBUGConfig)
    [Anonymous Symbol]                       0x00007bba   Section        0  ti_msp_dl_config.o(.rodata.gUART_DEBUGConfig)
    [Anonymous Symbol]                       0x00007bc4   Section        0  app_ui.o(.rodata.str1.1)
    _rand_state                              0x20200000   Data           4  rand.o(.data)
    .data                                    0x20200000   Section        4  rand.o(.data)
    _errno                                   0x20200004   Data           4  errno.o(.data)
    .data                                    0x20200004   Section        4  errno.o(.data)
    draw_speed_curve.firstPoint              0x20200008   Data           1  app_ui.o(.data.draw_speed_curve.firstPoint)
    [Anonymous Symbol]                       0x20200008   Section        0  app_ui.o(.data.draw_speed_curve.firstPoint)
    key_rst_data                             0x2020000a   Data           2  mid_button.o(.data.key_rst_data)
    [Anonymous Symbol]                       0x2020000a   Section        0  mid_button.o(.data.key_rst_data)
    keydata                                  0x2020000c   Data           2  mid_button.o(.data.keydata)
    [Anonymous Symbol]                       0x2020000c   Section        0  mid_button.o(.data.keydata)
    btn_head                                 0x20200010   Data           4  mid_button.o(.bss.btn_head)
    [Anonymous Symbol]                       0x20200010   Section        0  mid_button.o(.bss.btn_head)
    btn_right_cb.motor_status                0x20200014   Data           4  app_key_task.o(.bss.btn_right_cb.motor_status)
    [Anonymous Symbol]                       0x20200014   Section        0  app_key_task.o(.bss.btn_right_cb.motor_status)
    button_cnt                               0x20200018   Data           1  mid_button.o(.bss.button_cnt)
    [Anonymous Symbol]                       0x20200018   Section        0  mid_button.o(.bss.button_cnt)
    cont                                     0x2020001a   Data           2  mid_button.o(.bss.cont)
    [Anonymous Symbol]                       0x2020001a   Section        0  mid_button.o(.bss.cont)
    current_mode                             0x2020001c   Data           1  app_key_task.o(.bss.current_mode)
    [Anonymous Symbol]                       0x2020001c   Section        0  app_key_task.o(.bss.current_mode)
    draw_speed_curve.lastX                   0x202000a4   Data           2  app_ui.o(.bss.draw_speed_curve.lastX)
    [Anonymous Symbol]                       0x202000a4   Section        0  app_ui.o(.bss.draw_speed_curve.lastX)
    draw_speed_curve.lastY                   0x202000a6   Data           2  app_ui.o(.bss.draw_speed_curve.lastY)
    [Anonymous Symbol]                       0x202000a6   Section        0  app_ui.o(.bss.draw_speed_curve.lastY)
    motor_encoder                            0x20200230   Data          16  hw_encoder.o(.bss.motor_encoder)
    [Anonymous Symbol]                       0x20200230   Section        0  hw_encoder.o(.bss.motor_encoder)
    trg                                      0x20200240   Data           2  mid_button.o(.bss.trg)
    [Anonymous Symbol]                       0x20200240   Section        0  mid_button.o(.bss.trg)
    ui_speed_page_value_set.last_d           0x20200244   Data           4  app_ui.o(.bss.ui_speed_page_value_set.last_d)
    [Anonymous Symbol]                       0x20200244   Section        0  app_ui.o(.bss.ui_speed_page_value_set.last_d)
    ui_speed_page_value_set.last_i           0x20200248   Data           4  app_ui.o(.bss.ui_speed_page_value_set.last_i)
    [Anonymous Symbol]                       0x20200248   Section        0  app_ui.o(.bss.ui_speed_page_value_set.last_i)
    ui_speed_page_value_set.last_p           0x2020024c   Data           4  app_ui.o(.bss.ui_speed_page_value_set.last_p)
    [Anonymous Symbol]                       0x2020024c   Section        0  app_ui.o(.bss.ui_speed_page_value_set.last_p)
    ui_speed_page_value_set.last_speed       0x20200250   Data           4  app_ui.o(.bss.ui_speed_page_value_set.last_speed)
    [Anonymous Symbol]                       0x20200250   Section        0  app_ui.o(.bss.ui_speed_page_value_set.last_speed)
    ui_speed_page_value_set.last_target      0x20200254   Data           4  app_ui.o(.bss.ui_speed_page_value_set.last_target)
    [Anonymous Symbol]                       0x20200254   Section        0  app_ui.o(.bss.ui_speed_page_value_set.last_target)
    user_button                              0x20200258   Data         112  mid_button.o(.bss.user_button)
    [Anonymous Symbol]                       0x20200258   Section        0  mid_button.o(.bss.user_button)
    STACK                                    0x202002c8   Section     1024  startup_mspm0g350x_uvision.o(STACK)

    Global Symbols

    Symbol Name                              Value     Ov Type        Size  Object(Section)

    BuildAttributes$$THM_ISAv3M$S$PE$A:L22$X:L11$S22$IEEE1$IW$~IW$USESV6$~STKCKD$USESV7$~SHL$OTIME$ROPI$IEEEJ$EBA8$MICROLIB$REQ8$PRES8$EABIv2 0x00000000   Number         0  anon$$obj.o ABSOLUTE
    __Vectors                                0x00000000   Data           4  startup_mspm0g350x_uvision.o(RESET)
    __cpp_initialize__aeabi_                  - Undefined Weak Reference
    __cxa_finalize                            - Undefined Weak Reference
    __decompress                              - Undefined Weak Reference
    _clock_init                               - Undefined Weak Reference
    _microlib_exit                            - Undefined Weak Reference
    __Vectors_End                            0x000000c0   Data           0  startup_mspm0g350x_uvision.o(RESET)
    __Vectors_Size                           0x000000c0   Number         0  startup_mspm0g350x_uvision.o ABSOLUTE
    __main                                   0x000000c1   Thumb Code     0  entry.o(.ARM.Collect$$$$00000000)
    _main_stk                                0x000000c1   Thumb Code     0  entry2.o(.ARM.Collect$$$$00000001)
    _main_scatterload                        0x000000c5   Thumb Code     0  entry5.o(.ARM.Collect$$$$00000004)
    __main_after_scatterload                 0x000000c9   Thumb Code     0  entry5.o(.ARM.Collect$$$$00000004)
    _main_clock                              0x000000c9   Thumb Code     0  entry7b.o(.ARM.Collect$$$$00000008)
    _main_cpp_init                           0x000000c9   Thumb Code     0  entry8b.o(.ARM.Collect$$$$0000000A)
    _main_init                               0x000000c9   Thumb Code     0  entry9a.o(.ARM.Collect$$$$0000000B)
    __rt_final_cpp                           0x000000d1   Thumb Code     0  entry10a.o(.ARM.Collect$$$$0000000D)
    __rt_final_exit                          0x000000d1   Thumb Code     0  entry11a.o(.ARM.Collect$$$$0000000F)
    Reset_Handler                            0x000000d5   Thumb Code     4  startup_mspm0g350x_uvision.o(.text)
    NMI_Handler                              0x000000d9   Thumb Code     2  startup_mspm0g350x_uvision.o(.text)
    HardFault_Handler                        0x000000db   Thumb Code     2  startup_mspm0g350x_uvision.o(.text)
    SVC_Handler                              0x000000dd   Thumb Code     2  startup_mspm0g350x_uvision.o(.text)
    PendSV_Handler                           0x000000df   Thumb Code     2  startup_mspm0g350x_uvision.o(.text)
    SysTick_Handler                          0x000000e1   Thumb Code     2  startup_mspm0g350x_uvision.o(.text)
    ADC0_IRQHandler                          0x000000e3   Thumb Code     0  startup_mspm0g350x_uvision.o(.text)
    ADC1_IRQHandler                          0x000000e3   Thumb Code     0  startup_mspm0g350x_uvision.o(.text)
    AES_IRQHandler                           0x000000e3   Thumb Code     0  startup_mspm0g350x_uvision.o(.text)
    CANFD0_IRQHandler                        0x000000e3   Thumb Code     0  startup_mspm0g350x_uvision.o(.text)
    DAC0_IRQHandler                          0x000000e3   Thumb Code     0  startup_mspm0g350x_uvision.o(.text)
    DMA_IRQHandler                           0x000000e3   Thumb Code     0  startup_mspm0g350x_uvision.o(.text)
    Default_Handler                          0x000000e3   Thumb Code     2  startup_mspm0g350x_uvision.o(.text)
    GROUP0_IRQHandler                        0x000000e3   Thumb Code     0  startup_mspm0g350x_uvision.o(.text)
    I2C0_IRQHandler                          0x000000e3   Thumb Code     0  startup_mspm0g350x_uvision.o(.text)
    I2C1_IRQHandler                          0x000000e3   Thumb Code     0  startup_mspm0g350x_uvision.o(.text)
    RTC_IRQHandler                           0x000000e3   Thumb Code     0  startup_mspm0g350x_uvision.o(.text)
    SPI0_IRQHandler                          0x000000e3   Thumb Code     0  startup_mspm0g350x_uvision.o(.text)
    SPI1_IRQHandler                          0x000000e3   Thumb Code     0  startup_mspm0g350x_uvision.o(.text)
    TIMA1_IRQHandler                         0x000000e3   Thumb Code     0  startup_mspm0g350x_uvision.o(.text)
    TIMG0_IRQHandler                         0x000000e3   Thumb Code     0  startup_mspm0g350x_uvision.o(.text)
    TIMG12_IRQHandler                        0x000000e3   Thumb Code     0  startup_mspm0g350x_uvision.o(.text)
    TIMG6_IRQHandler                         0x000000e3   Thumb Code     0  startup_mspm0g350x_uvision.o(.text)
    TIMG7_IRQHandler                         0x000000e3   Thumb Code     0  startup_mspm0g350x_uvision.o(.text)
    TIMG8_IRQHandler                         0x000000e3   Thumb Code     0  startup_mspm0g350x_uvision.o(.text)
    UART1_IRQHandler                         0x000000e3   Thumb Code     0  startup_mspm0g350x_uvision.o(.text)
    UART2_IRQHandler                         0x000000e3   Thumb Code     0  startup_mspm0g350x_uvision.o(.text)
    UART3_IRQHandler                         0x000000e3   Thumb Code     0  startup_mspm0g350x_uvision.o(.text)
    rand                                     0x000000e9   Thumb Code    18  rand.o(.text)
    srand                                    0x000000fb   Thumb Code     6  rand.o(.text)
    __aeabi_memset                           0x0000010d   Thumb Code    14  memseta.o(.text)
    __aeabi_memset4                          0x0000010d   Thumb Code     0  memseta.o(.text)
    __aeabi_memset8                          0x0000010d   Thumb Code     0  memseta.o(.text)
    __aeabi_memclr                           0x0000011b   Thumb Code     4  memseta.o(.text)
    __aeabi_memclr4                          0x0000011b   Thumb Code     0  memseta.o(.text)
    __aeabi_memclr8                          0x0000011b   Thumb Code     0  memseta.o(.text)
    _memset$wrapper                          0x0000011f   Thumb Code    18  memseta.o(.text)
    strlen                                   0x00000131   Thumb Code    14  strlen.o(.text)
    __aeabi_fcmpeq                           0x0000013f   Thumb Code    28  fcmpeq.o(.text)
    __aeabi_ui2d                             0x0000015d   Thumb Code    24  dfltui.o(.text)
    __aeabi_d2iz                             0x00000179   Thumb Code    62  dfixi.o(.text)
    __aeabi_f2d                              0x000001c1   Thumb Code    40  f2d.o(.text)
    __aeabi_uidiv                            0x000001e9   Thumb Code     0  uidiv_div0.o(.text)
    __aeabi_uidivmod                         0x000001e9   Thumb Code    62  uidiv_div0.o(.text)
    __aeabi_idiv$div0                        0x00000229   Thumb Code     0  idiv_div0.o(.text)
    __aeabi_idivmod                          0x00000229   Thumb Code    74  idiv_div0.o(.text)
    __aeabi_uldivmod                         0x00000279   Thumb Code    96  uldiv.o(.text)
    __aeabi_llsr                             0x000002d9   Thumb Code    34  llushr.o(.text)
    _ll_ushift_r                             0x000002d9   Thumb Code     0  llushr.o(.text)
    __I$use$fp                               0x000002fb   Thumb Code     0  iusefp.o(.text)
    _double_round                            0x000002fb   Thumb Code    26  depilogue.o(.text)
    _double_epilogue                         0x00000315   Thumb Code   164  depilogue.o(.text)
    __aeabi_dadd                             0x000003b9   Thumb Code   328  dadd.o(.text)
    __aeabi_dsub                             0x00000501   Thumb Code    12  dadd.o(.text)
    __aeabi_drsub                            0x0000050d   Thumb Code    12  dadd.o(.text)
    __aeabi_dmul                             0x0000051d   Thumb Code   202  dmul.o(.text)
    __aeabi_ddiv                             0x000005ed   Thumb Code   234  ddiv.o(.text)
    _dsqrt                                   0x000006dd   Thumb Code   162  dsqrt.o(.text)
    __aeabi_d2ulz                            0x00000781   Thumb Code    54  dfixul.o(.text)
    __aeabi_cdrcmple                         0x000007c1   Thumb Code    38  cdrcmple.o(.text)
    __scatterload                            0x000007e9   Thumb Code    38  init.o(.text)
    __scatterload_rt2                        0x000007e9   Thumb Code     0  init.o(.text)
    __aeabi_llsl                             0x00000819   Thumb Code    32  llshl.o(.text)
    _ll_shift_l                              0x00000819   Thumb Code     0  llshl.o(.text)
    __aeabi_lasr                             0x00000839   Thumb Code    38  llsshr.o(.text)
    _ll_sshift_r                             0x00000839   Thumb Code     0  llsshr.o(.text)
    DL_Common_delayCycles                    0x0000085f   Thumb Code    10  dl_common.o(.text.DL_Common_delayCycles)
    DL_SPI_init                              0x00000ad1   Thumb Code    68  dl_spi.o(.text.DL_SPI_init)
    DL_SPI_setClockConfig                    0x00000b65   Thumb Code    18  dl_spi.o(.text.DL_SPI_setClockConfig)
    DL_SYSCTL_configSYSPLL                   0x00000bc1   Thumb Code   192  dl_sysctl_mspm0g1x0x_g3x0x.o(.text.DL_SYSCTL_configSYSPLL)
    DL_SYSCTL_setHFCLKSourceHFXTParams       0x00000cd5   Thumb Code    80  dl_sysctl_mspm0g1x0x_g3x0x.o(.text.DL_SYSCTL_setHFCLKSourceHFXTParams)
    DL_SYSCTL_switchMCLKfromSYSOSCtoHSCLK    0x00000d59   Thumb Code    40  dl_sysctl_mspm0g1x0x_g3x0x.o(.text.DL_SYSCTL_switchMCLKfromSYSOSCtoHSCLK)
    DL_Timer_initFourCCPWMMode               0x00000dd9   Thumb Code   264  dl_timer.o(.text.DL_Timer_initFourCCPWMMode)
    DL_Timer_initTimerMode                   0x00000ee1   Thumb Code   236  dl_timer.o(.text.DL_Timer_initTimerMode)
    DL_Timer_setCaptCompUpdateMethod         0x00000ff1   Thumb Code    28  dl_timer.o(.text.DL_Timer_setCaptCompUpdateMethod)
    DL_Timer_setCaptureCompareOutCtl         0x0000100d   Thumb Code    24  dl_timer.o(.text.DL_Timer_setCaptureCompareOutCtl)
    DL_Timer_setCaptureCompareValue          0x00001025   Thumb Code    16  dl_timer.o(.text.DL_Timer_setCaptureCompareValue)
    DL_Timer_setClockConfig                  0x00001035   Thumb Code    28  dl_timer.o(.text.DL_Timer_setClockConfig)
    DL_UART_init                             0x000010ed   Thumb Code    72  dl_uart.o(.text.DL_UART_init)
    DL_UART_setClockConfig                   0x000011ad   Thumb Code    18  dl_uart.o(.text.DL_UART_setClockConfig)
    Drawarc                                  0x000011dd   Thumb Code   338  hw_lcd.o(.text.Drawarc)
    GROUP1_IRQHandler                        0x00001331   Thumb Code   156  hw_encoder.o(.text.GROUP1_IRQHandler)
    LCD_Address_Set                          0x000013d5   Thumb Code    62  hw_lcd.o(.text.LCD_Address_Set)
    LCD_ArcRect                              0x00001413   Thumb Code   330  hw_lcd.o(.text.LCD_ArcRect)
    LCD_DrawLine                             0x0000155d   Thumb Code   268  hw_lcd.o(.text.LCD_DrawLine)
    LCD_DrawPoint                            0x00001669   Thumb Code    32  hw_lcd.o(.text.LCD_DrawPoint)
    LCD_DrawRectangle                        0x00001689   Thumb Code    82  hw_lcd.o(.text.LCD_DrawRectangle)
    LCD_DrawVerrticalLine                    0x000016db   Thumb Code    66  hw_lcd.o(.text.LCD_DrawVerrticalLine)
    LCD_Fill                                 0x0000171d   Thumb Code    92  hw_lcd.o(.text.LCD_Fill)
    LCD_ShowChar                             0x00001779   Thumb Code   460  hw_lcd.o(.text.LCD_ShowChar)
    LCD_ShowChinese                          0x00001955   Thumb Code   296  hw_lcd.o(.text.LCD_ShowChinese)
    LCD_ShowChinese12x12                     0x00001a7d   Thumb Code   408  hw_lcd.o(.text.LCD_ShowChinese12x12)
    LCD_ShowChinese16x16                     0x00001c19   Thumb Code   408  hw_lcd.o(.text.LCD_ShowChinese16x16)
    LCD_ShowChinese24x24                     0x00001db5   Thumb Code   408  hw_lcd.o(.text.LCD_ShowChinese24x24)
    LCD_ShowChinese32x32                     0x00001f51   Thumb Code   408  hw_lcd.o(.text.LCD_ShowChinese32x32)
    LCD_ShowString                           0x000020ed   Thumb Code    98  hw_lcd.o(.text.LCD_ShowString)
    LCD_WR_DATA                              0x0000214f   Thumb Code    28  hw_lcd.o(.text.LCD_WR_DATA)
    LCD_WR_DATA8                             0x0000216b   Thumb Code    20  hw_lcd.o(.text.LCD_WR_DATA8)
    LCD_WR_REG                               0x00002181   Thumb Code    44  hw_lcd.o(.text.LCD_WR_REG)
    LCD_Writ_Bus                             0x000021ad   Thumb Code    44  hw_lcd.o(.text.LCD_Writ_Bus)
    SYSCFG_DL_GPIO_init                      0x000021d9   Thumb Code   276  ti_msp_dl_config.o(.text.SYSCFG_DL_GPIO_init)
    SYSCFG_DL_PWM_MOTOR_init                 0x000022f1   Thumb Code   128  ti_msp_dl_config.o(.text.SYSCFG_DL_PWM_MOTOR_init)
    SYSCFG_DL_SPI_LCD_init                   0x0000237d   Thumb Code    52  ti_msp_dl_config.o(.text.SYSCFG_DL_SPI_LCD_init)
    SYSCFG_DL_SYSCTL_init                    0x000023b9   Thumb Code    80  ti_msp_dl_config.o(.text.SYSCFG_DL_SYSCTL_init)
    SYSCFG_DL_TIMER_TICK_init                0x0000240d   Thumb Code    48  ti_msp_dl_config.o(.text.SYSCFG_DL_TIMER_TICK_init)
    SYSCFG_DL_UART_DEBUG_init                0x00002445   Thumb Code    72  ti_msp_dl_config.o(.text.SYSCFG_DL_UART_DEBUG_init)
    SYSCFG_DL_init                           0x00002495   Thumb Code    52  ti_msp_dl_config.o(.text.SYSCFG_DL_init)
    SYSCFG_DL_initPower                      0x000024d5   Thumb Code   100  ti_msp_dl_config.o(.text.SYSCFG_DL_initPower)
    TIMA0_IRQHandler                         0x00002549   Thumb Code    28  mid_timer.o(.text.TIMA0_IRQHandler)
    UART0_IRQHandler                         0x00002569   Thumb Code    40  mid_debug_uart.o(.text.UART0_IRQHandler)
    btn_down_cb                              0x00002711   Thumb Code    48  app_key_task.o(.text.btn_down_cb)
    btn_left_cb                              0x00002741   Thumb Code    52  app_key_task.o(.text.btn_left_cb)
    btn_right_cb                             0x00002775   Thumb Code    96  app_key_task.o(.text.btn_right_cb)
    btn_up_cb                                0x000027dd   Thumb Code    48  app_key_task.o(.text.btn_up_cb)
    debug_uart_init                          0x00002865   Thumb Code    22  mid_debug_uart.o(.text.debug_uart_init)
    disp_select_box                          0x000028a9   Thumb Code   234  app_ui.o(.text.disp_select_box)
    disp_string_rect                         0x00002995   Thumb Code   132  app_ui.o(.text.disp_string_rect)
    disp_x_center                            0x00002a19   Thumb Code    96  app_ui.o(.text.disp_x_center)
    draw_speed_curve                         0x00002a79   Thumb Code   296  app_ui.o(.text.draw_speed_curve)
    encoder_init                             0x00002bb1   Thumb Code    22  hw_encoder.o(.text.encoder_init)
    encoder_update                           0x00002bc9   Thumb Code    24  hw_encoder.o(.text.encoder_update)
    flex_button_register                     0x000030b1   Thumb Code   152  mid_button.o(.text.flex_button_register)
    flex_button_scan                         0x00003155   Thumb Code    12  mid_button.o(.text.flex_button_scan)
    generate_random                          0x00003161   Thumb Code    16  empty.o(.text.generate_random)
    get_app_key_current_mode                 0x00003171   Thumb Code     8  app_key_task.o(.text.get_app_key_current_mode)
    key_scan                                 0x00003179   Thumb Code   136  hw_key.o(.text.key_scan)
    lcd_init                                 0x00003205   Thumb Code   448  hw_lcd.o(.text.lcd_init)
    main                                     0x000033d5   Thumb Code   152  empty.o(.text.main)
    set_app_key_current_mode                 0x000034ad   Thumb Code    16  app_key_task.o(.text.set_app_key_current_mode)
    set_motor                                0x000034f5   Thumb Code    48  hw_motor.o(.text.set_motor)
    spi_write_bus                            0x00003525   Thumb Code    40  hw_lcd.o(.text.spi_write_bus)
    stop_motor                               0x00003551   Thumb Code    12  hw_motor.o(.text.stop_motor)
    timer_init                               0x0000355d   Thumb Code    22  mid_timer.o(.text.timer_init)
    ui_home_page                             0x00003575   Thumb Code   192  app_ui.o(.text.ui_home_page)
    ui_parameter_select_box_bold             0x00003645   Thumb Code   284  app_ui.o(.text.ui_parameter_select_box_bold)
    ui_speed_page                            0x00003761   Thumb Code   332  app_ui.o(.text.ui_speed_page)
    ui_speed_page_select_box                 0x000038bd   Thumb Code   504  app_ui.o(.text.ui_speed_page_select_box)
    ui_speed_page_value_set                  0x00003ab9   Thumb Code   580  app_ui.o(.text.ui_speed_page_value_set)
    user_button_init                         0x00003d21   Thumb Code   152  mid_button.o(.text.user_button_init)
    __0sprintf                               0x00003ddd   Thumb Code    36  printfa.o(i.__0sprintf)
    __1sprintf                               0x00003ddd   Thumb Code     0  printfa.o(i.__0sprintf)
    __2sprintf                               0x00003ddd   Thumb Code     0  printfa.o(i.__0sprintf)
    __c89sprintf                             0x00003ddd   Thumb Code     0  printfa.o(i.__0sprintf)
    sprintf                                  0x00003ddd   Thumb Code     0  printfa.o(i.__0sprintf)
    __ARM_clz                                0x00003e05   Thumb Code    46  depilogue.o(i.__ARM_clz)
    __scatterload_copy                       0x00003e39   Thumb Code    14  handlers.o(i.__scatterload_copy)
    __scatterload_null                       0x00003e49   Thumb Code     2  handlers.o(i.__scatterload_null)
    __scatterload_zeroinit                   0x00003e51   Thumb Code    14  handlers.o(i.__scatterload_zeroinit)
    __set_errno                              0x00003e61   Thumb Code     6  errno.o(i.__set_errno)
    sqrt                                     0x00004725   Thumb Code    66  sqrt.o(i.sqrt)
    ascii_1206                               0x0000476c   Data        1140  hw_lcd.o(.rodata.ascii_1206)
    ascii_1608                               0x00004be0   Data        1520  hw_lcd.o(.rodata.ascii_1608)
    ascii_2412                               0x000051d0   Data        4560  hw_lcd.o(.rodata.ascii_2412)
    ascii_3216                               0x000063a0   Data        6080  hw_lcd.o(.rodata.ascii_3216)
    tfont12                                  0x00007c0d   Data         130  hw_lcd.o(.rodata.tfont12)
    tfont16                                  0x00007c8f   Data         374  hw_lcd.o(.rodata.tfont16)
    tfont24                                  0x00007e05   Data         222  hw_lcd.o(.rodata.tfont24)
    tfont32                                  0x00007ee3   Data         130  hw_lcd.o(.rodata.tfont32)
    Region$$Table$$Base                      0x00007f68   Number         0  anon$$obj.o(Region$$Table)
    Region$$Table$$Limit                     0x00007f88   Number         0  anon$$obj.o(Region$$Table)
    debug_uart                               0x20200020   Data         132  mid_debug_uart.o(.bss.debug_uart)
    gPWM_MOTORBackup                         0x202000a8   Data         160  ti_msp_dl_config.o(.bss.gPWM_MOTORBackup)
    gSPI_LCDBackup                           0x20200148   Data          40  ti_msp_dl_config.o(.bss.gSPI_LCDBackup)
    gTIMER_TICKBackup                        0x20200170   Data         188  ti_msp_dl_config.o(.bss.gTIMER_TICKBackup)
    __initial_sp                             0x202006c8   Data           0  startup_mspm0g350x_uvision.o(STACK)



==============================================================================

Memory Map of the image

  Image Entry point : 0x000000c1

  Load Region LR_IROM1 (Base: 0x00000000, Size: 0x00007f98, Max: 0x00020000, ABSOLUTE)

    Execution Region ER_IROM1 (Exec base: 0x00000000, Load base: 0x00000000, Size: 0x00007f88, Max: 0x00020000, ABSOLUTE)

    Exec Addr    Load Addr    Size         Type   Attr      Idx    E Section Name        Object

    0x00000000   0x00000000   0x000000c0   Data   RO           15    RESET               startup_mspm0g350x_uvision.o
    0x000000c0   0x000000c0   0x00000000   Code   RO          690  * .ARM.Collect$$$$00000000  mc_p.l(entry.o)
    0x000000c0   0x000000c0   0x00000004   Code   RO          748    .ARM.Collect$$$$00000001  mc_p.l(entry2.o)
    0x000000c4   0x000000c4   0x00000004   Code   RO          751    .ARM.Collect$$$$00000004  mc_p.l(entry5.o)
    0x000000c8   0x000000c8   0x00000000   Code   RO          753    .ARM.Collect$$$$00000008  mc_p.l(entry7b.o)
    0x000000c8   0x000000c8   0x00000000   Code   RO          755    .ARM.Collect$$$$0000000A  mc_p.l(entry8b.o)
    0x000000c8   0x000000c8   0x00000008   Code   RO          756    .ARM.Collect$$$$0000000B  mc_p.l(entry9a.o)
    0x000000d0   0x000000d0   0x00000000   Code   RO          758    .ARM.Collect$$$$0000000D  mc_p.l(entry10a.o)
    0x000000d0   0x000000d0   0x00000000   Code   RO          760    .ARM.Collect$$$$0000000F  mc_p.l(entry11a.o)
    0x000000d0   0x000000d0   0x00000004   Code   RO          749    .ARM.Collect$$$$00002712  mc_p.l(entry2.o)
    0x000000d4   0x000000d4   0x00000014   Code   RO           16    .text               startup_mspm0g350x_uvision.o
    0x000000e8   0x000000e8   0x00000024   Code   RO          701    .text               mc_p.l(rand.o)
    0x0000010c   0x0000010c   0x00000024   Code   RO          704    .text               mc_p.l(memseta.o)
    0x00000130   0x00000130   0x0000000e   Code   RO          706    .text               mc_p.l(strlen.o)
    0x0000013e   0x0000013e   0x0000001c   Code   RO          738    .text               mf_p.l(fcmpeq.o)
    0x0000015a   0x0000015a   0x00000002   PAD
    0x0000015c   0x0000015c   0x0000001c   Code   RO          740    .text               mf_p.l(dfltui.o)
    0x00000178   0x00000178   0x00000048   Code   RO          744    .text               mf_p.l(dfixi.o)
    0x000001c0   0x000001c0   0x00000028   Code   RO          746    .text               mf_p.l(f2d.o)
    0x000001e8   0x000001e8   0x0000003e   Code   RO          771    .text               mc_p.l(uidiv_div0.o)
    0x00000226   0x00000226   0x00000002   PAD
    0x00000228   0x00000228   0x00000050   Code   RO          773    .text               mc_p.l(idiv_div0.o)
    0x00000278   0x00000278   0x00000060   Code   RO          777    .text               mc_p.l(uldiv.o)
    0x000002d8   0x000002d8   0x00000022   Code   RO          779    .text               mc_p.l(llushr.o)
    0x000002fa   0x000002fa   0x00000000   Code   RO          788    .text               mc_p.l(iusefp.o)
    0x000002fa   0x000002fa   0x000000be   Code   RO          789    .text               mf_p.l(depilogue.o)
    0x000003b8   0x000003b8   0x00000164   Code   RO          793    .text               mf_p.l(dadd.o)
    0x0000051c   0x0000051c   0x000000d0   Code   RO          795    .text               mf_p.l(dmul.o)
    0x000005ec   0x000005ec   0x000000f0   Code   RO          797    .text               mf_p.l(ddiv.o)
    0x000006dc   0x000006dc   0x000000a2   Code   RO          799    .text               mf_p.l(dsqrt.o)
    0x0000077e   0x0000077e   0x00000002   PAD
    0x00000780   0x00000780   0x00000040   Code   RO          801    .text               mf_p.l(dfixul.o)
    0x000007c0   0x000007c0   0x00000028   Code   RO          803    .text               mf_p.l(cdrcmple.o)
    0x000007e8   0x000007e8   0x00000030   Code   RO          805    .text               mc_p.l(init.o)
    0x00000818   0x00000818   0x00000020   Code   RO          808    .text               mc_p.l(llshl.o)
    0x00000838   0x00000838   0x00000026   Code   RO          810    .text               mc_p.l(llsshr.o)
    0x0000085e   0x0000085e   0x0000000a   Code   RO          451    .text.DL_Common_delayCycles  driverlib.a(dl_common.o)
    0x00000868   0x00000868   0x00000028   Code   RO          117    .text.DL_Common_updateReg  ti_msp_dl_config.o
    0x00000890   0x00000890   0x00000018   Code   RO           77    .text.DL_GPIO_clearInterruptStatus  ti_msp_dl_config.o
    0x000008a8   0x000008a8   0x0000001c   Code   RO          259    .text.DL_GPIO_clearInterruptStatus  hw_encoder.o
    0x000008c4   0x000008c4   0x00000014   Code   RO           73    .text.DL_GPIO_clearPins  ti_msp_dl_config.o
    0x000008d8   0x000008d8   0x00000014   Code   RO          146    .text.DL_GPIO_clearPins  hw_lcd.o
    0x000008ec   0x000008ec   0x00000014   Code   RO          403    .text.DL_GPIO_clearPins  app_ui.o
    0x00000900   0x00000900   0x0000001c   Code   RO           79    .text.DL_GPIO_enableInterrupt  ti_msp_dl_config.o
    0x0000091c   0x0000091c   0x00000018   Code   RO           63    .text.DL_GPIO_enableOutput  ti_msp_dl_config.o
    0x00000934   0x00000934   0x00000014   Code   RO           51    .text.DL_GPIO_enablePower  ti_msp_dl_config.o
    0x00000948   0x00000948   0x00000018   Code   RO          255    .text.DL_GPIO_getEnabledInterruptStatus  hw_encoder.o
    0x00000960   0x00000960   0x00000030   Code   RO           71    .text.DL_GPIO_initDigitalInputFeatures  ti_msp_dl_config.o
    0x00000990   0x00000990   0x00000014   Code   RO           69    .text.DL_GPIO_initDigitalOutput  ti_msp_dl_config.o
    0x000009a4   0x000009a4   0x0000002c   Code   RO           67    .text.DL_GPIO_initDigitalOutputFeatures  ti_msp_dl_config.o
    0x000009d0   0x000009d0   0x00000014   Code   RO           59    .text.DL_GPIO_initPeripheralAnalogFunction  ti_msp_dl_config.o
    0x000009e4   0x000009e4   0x0000001c   Code   RO           65    .text.DL_GPIO_initPeripheralInputFunction  ti_msp_dl_config.o
    0x00000a00   0x00000a00   0x0000001c   Code   RO           61    .text.DL_GPIO_initPeripheralOutputFunction  ti_msp_dl_config.o
    0x00000a1c   0x00000a1c   0x00000016   Code   RO          215    .text.DL_GPIO_readPins  hw_key.o
    0x00000a32   0x00000a32   0x00000016   Code   RO          257    .text.DL_GPIO_readPins  hw_encoder.o
    0x00000a48   0x00000a48   0x00000010   Code   RO           43    .text.DL_GPIO_reset  ti_msp_dl_config.o
    0x00000a58   0x00000a58   0x0000001c   Code   RO           75    .text.DL_GPIO_setLowerPinsPolarity  ti_msp_dl_config.o
    0x00000a74   0x00000a74   0x00000014   Code   RO          148    .text.DL_GPIO_setPins  hw_lcd.o
    0x00000a88   0x00000a88   0x00000018   Code   RO          405    .text.DL_GPIO_setPins  app_ui.o
    0x00000aa0   0x00000aa0   0x00000018   Code   RO          115    .text.DL_SPI_enable  ti_msp_dl_config.o
    0x00000ab8   0x00000ab8   0x00000018   Code   RO           57    .text.DL_SPI_enablePower  ti_msp_dl_config.o
    0x00000ad0   0x00000ad0   0x00000044   Code   RO          460    .text.DL_SPI_init   driverlib.a(dl_spi.o)
    0x00000b14   0x00000b14   0x00000018   Code   RO          142    .text.DL_SPI_isBusy  hw_lcd.o
    0x00000b2c   0x00000b2c   0x00000018   Code   RO           49    .text.DL_SPI_reset  ti_msp_dl_config.o
    0x00000b44   0x00000b44   0x00000020   Code   RO          111    .text.DL_SPI_setBitRateSerialClockDivider  ti_msp_dl_config.o
    0x00000b64   0x00000b64   0x00000012   Code   RO          462    .text.DL_SPI_setClockConfig  driverlib.a(dl_spi.o)
    0x00000b76   0x00000b76   0x00000002   PAD
    0x00000b78   0x00000b78   0x00000030   Code   RO          113    .text.DL_SPI_setFIFOThreshold  ti_msp_dl_config.o
    0x00000ba8   0x00000ba8   0x00000016   Code   RO          140    .text.DL_SPI_transmitData8  hw_lcd.o
    0x00000bbe   0x00000bbe   0x00000002   PAD
    0x00000bc0   0x00000bc0   0x000000c0   Code   RO          655    .text.DL_SYSCTL_configSYSPLL  driverlib.a(dl_sysctl_mspm0g1x0x_g3x0x.o)
    0x00000c80   0x00000c80   0x0000000c   Code   RO           87    .text.DL_SYSCTL_disableHFXT  ti_msp_dl_config.o
    0x00000c8c   0x00000c8c   0x00000014   Code   RO           89    .text.DL_SYSCTL_disableSYSPLL  ti_msp_dl_config.o
    0x00000ca0   0x00000ca0   0x00000018   Code   RO           81    .text.DL_SYSCTL_setBORThreshold  ti_msp_dl_config.o
    0x00000cb8   0x00000cb8   0x0000001c   Code   RO           83    .text.DL_SYSCTL_setFlashWaitState  ti_msp_dl_config.o
    0x00000cd4   0x00000cd4   0x00000050   Code   RO          669    .text.DL_SYSCTL_setHFCLKSourceHFXTParams  driverlib.a(dl_sysctl_mspm0g1x0x_g3x0x.o)
    0x00000d24   0x00000d24   0x0000001c   Code   RO           85    .text.DL_SYSCTL_setSYSOSCFreq  ti_msp_dl_config.o
    0x00000d40   0x00000d40   0x00000018   Code   RO           91    .text.DL_SYSCTL_setULPCLKDivider  ti_msp_dl_config.o
    0x00000d58   0x00000d58   0x00000028   Code   RO          663    .text.DL_SYSCTL_switchMCLKfromSYSOSCtoHSCLK  driverlib.a(dl_sysctl_mspm0g1x0x_g3x0x.o)
    0x00000d80   0x00000d80   0x00000014   Code   RO           97    .text.DL_Timer_enableClock  ti_msp_dl_config.o
    0x00000d94   0x00000d94   0x00000018   Code   RO          101    .text.DL_Timer_enableInterrupt  ti_msp_dl_config.o
    0x00000dac   0x00000dac   0x00000018   Code   RO           53    .text.DL_Timer_enablePower  ti_msp_dl_config.o
    0x00000dc4   0x00000dc4   0x00000012   Code   RO          365    .text.DL_Timer_getPendingInterrupt  mid_timer.o
    0x00000dd6   0x00000dd6   0x00000002   PAD
    0x00000dd8   0x00000dd8   0x00000108   Code   RO          594    .text.DL_Timer_initFourCCPWMMode  driverlib.a(dl_timer.o)
    0x00000ee0   0x00000ee0   0x000000ec   Code   RO          518    .text.DL_Timer_initTimerMode  driverlib.a(dl_timer.o)
    0x00000fcc   0x00000fcc   0x00000010   Code   RO           45    .text.DL_Timer_reset  ti_msp_dl_config.o
    0x00000fdc   0x00000fdc   0x00000014   Code   RO           99    .text.DL_Timer_setCCPDirection  ti_msp_dl_config.o
    0x00000ff0   0x00000ff0   0x0000001c   Code   RO          560    .text.DL_Timer_setCaptCompUpdateMethod  driverlib.a(dl_timer.o)
    0x0000100c   0x0000100c   0x00000018   Code   RO          568    .text.DL_Timer_setCaptureCompareOutCtl  driverlib.a(dl_timer.o)
    0x00001024   0x00001024   0x00000010   Code   RO          520    .text.DL_Timer_setCaptureCompareValue  driverlib.a(dl_timer.o)
    0x00001034   0x00001034   0x0000001c   Code   RO          514    .text.DL_Timer_setClockConfig  driverlib.a(dl_timer.o)
    0x00001050   0x00001050   0x0000003c   Code   RO           95    .text.DL_Timer_setCounterControl  ti_msp_dl_config.o
    0x0000108c   0x0000108c   0x00000016   Code   RO          109    .text.DL_UART_enable  ti_msp_dl_config.o
    0x000010a2   0x000010a2   0x00000002   PAD
    0x000010a4   0x000010a4   0x0000001c   Code   RO          107    .text.DL_UART_enableInterrupt  ti_msp_dl_config.o
    0x000010c0   0x000010c0   0x00000018   Code   RO           55    .text.DL_UART_enablePower  ti_msp_dl_config.o
    0x000010d8   0x000010d8   0x00000012   Code   RO          309    .text.DL_UART_getPendingInterrupt  mid_debug_uart.o
    0x000010ea   0x000010ea   0x00000002   PAD
    0x000010ec   0x000010ec   0x00000048   Code   RO          615    .text.DL_UART_init  driverlib.a(dl_uart.o)
    0x00001134   0x00001134   0x00000014   Code   RO          311    .text.DL_UART_receiveData  mid_debug_uart.o
    0x00001148   0x00001148   0x00000018   Code   RO           47    .text.DL_UART_reset  ti_msp_dl_config.o
    0x00001160   0x00001160   0x0000004c   Code   RO          105    .text.DL_UART_setBaudRateDivisor  ti_msp_dl_config.o
    0x000011ac   0x000011ac   0x00000012   Code   RO          617    .text.DL_UART_setClockConfig  driverlib.a(dl_uart.o)
    0x000011be   0x000011be   0x0000001e   Code   RO          103    .text.DL_UART_setOversampling  ti_msp_dl_config.o
    0x000011dc   0x000011dc   0x00000152   Code   RO          172    .text.Drawarc       hw_lcd.o
    0x0000132e   0x0000132e   0x00000002   PAD
    0x00001330   0x00001330   0x000000a4   Code   RO          253    .text.GROUP1_IRQHandler  hw_encoder.o
    0x000013d4   0x000013d4   0x0000003e   Code   RO          156    .text.LCD_Address_Set  hw_lcd.o
    0x00001412   0x00001412   0x0000014a   Code   RO          174    .text.LCD_ArcRect   hw_lcd.o
    0x0000155c   0x0000155c   0x0000010c   Code   RO          164    .text.LCD_DrawLine  hw_lcd.o
    0x00001668   0x00001668   0x00000020   Code   RO          162    .text.LCD_DrawPoint  hw_lcd.o
    0x00001688   0x00001688   0x00000052   Code   RO          168    .text.LCD_DrawRectangle  hw_lcd.o
    0x000016da   0x000016da   0x00000042   Code   RO          166    .text.LCD_DrawVerrticalLine  hw_lcd.o
    0x0000171c   0x0000171c   0x0000005c   Code   RO          160    .text.LCD_Fill      hw_lcd.o
    0x00001778   0x00001778   0x000001dc   Code   RO          186    .text.LCD_ShowChar  hw_lcd.o
    0x00001954   0x00001954   0x00000128   Code   RO          176    .text.LCD_ShowChinese  hw_lcd.o
    0x00001a7c   0x00001a7c   0x0000019c   Code   RO          178    .text.LCD_ShowChinese12x12  hw_lcd.o
    0x00001c18   0x00001c18   0x0000019c   Code   RO          180    .text.LCD_ShowChinese16x16  hw_lcd.o
    0x00001db4   0x00001db4   0x0000019c   Code   RO          182    .text.LCD_ShowChinese24x24  hw_lcd.o
    0x00001f50   0x00001f50   0x0000019c   Code   RO          184    .text.LCD_ShowChinese32x32  hw_lcd.o
    0x000020ec   0x000020ec   0x00000062   Code   RO          188    .text.LCD_ShowString  hw_lcd.o
    0x0000214e   0x0000214e   0x0000001c   Code   RO          152    .text.LCD_WR_DATA   hw_lcd.o
    0x0000216a   0x0000216a   0x00000014   Code   RO          150    .text.LCD_WR_DATA8  hw_lcd.o
    0x0000217e   0x0000217e   0x00000002   PAD
    0x00002180   0x00002180   0x0000002c   Code   RO          154    .text.LCD_WR_REG    hw_lcd.o
    0x000021ac   0x000021ac   0x0000002c   Code   RO          144    .text.LCD_Writ_Bus  hw_lcd.o
    0x000021d8   0x000021d8   0x00000118   Code   RO           27    .text.SYSCFG_DL_GPIO_init  ti_msp_dl_config.o
    0x000022f0   0x000022f0   0x0000008c   Code   RO           31    .text.SYSCFG_DL_PWM_MOTOR_init  ti_msp_dl_config.o
    0x0000237c   0x0000237c   0x0000003c   Code   RO           37    .text.SYSCFG_DL_SPI_LCD_init  ti_msp_dl_config.o
    0x000023b8   0x000023b8   0x00000054   Code   RO           29    .text.SYSCFG_DL_SYSCTL_init  ti_msp_dl_config.o
    0x0000240c   0x0000240c   0x00000038   Code   RO           33    .text.SYSCFG_DL_TIMER_TICK_init  ti_msp_dl_config.o
    0x00002444   0x00002444   0x00000050   Code   RO           35    .text.SYSCFG_DL_UART_DEBUG_init  ti_msp_dl_config.o
    0x00002494   0x00002494   0x00000040   Code   RO           23    .text.SYSCFG_DL_init  ti_msp_dl_config.o
    0x000024d4   0x000024d4   0x00000074   Code   RO           25    .text.SYSCFG_DL_initPower  ti_msp_dl_config.o
    0x00002548   0x00002548   0x00000020   Code   RO          363    .text.TIMA0_IRQHandler  mid_timer.o
    0x00002568   0x00002568   0x0000002c   Code   RO          307    .text.UART0_IRQHandler  mid_debug_uart.o
    0x00002594   0x00002594   0x00000028   Code   RO          243    .text.__NVIC_ClearPendingIRQ  hw_encoder.o
    0x000025bc   0x000025bc   0x00000028   Code   RO          291    .text.__NVIC_ClearPendingIRQ  mid_debug_uart.o
    0x000025e4   0x000025e4   0x0000002c   Code   RO          359    .text.__NVIC_ClearPendingIRQ  mid_timer.o
    0x00002610   0x00002610   0x00000028   Code   RO          245    .text.__NVIC_EnableIRQ  hw_encoder.o
    0x00002638   0x00002638   0x00000028   Code   RO          293    .text.__NVIC_EnableIRQ  mid_debug_uart.o
    0x00002660   0x00002660   0x0000002c   Code   RO          361    .text.__NVIC_EnableIRQ  mid_timer.o
    0x0000268c   0x0000268c   0x00000084   Code   RO           93    .text.__NVIC_SetPriority  ti_msp_dl_config.o
    0x00002710   0x00002710   0x00000030   Code   RO          384    .text.btn_down_cb   app_key_task.o
    0x00002740   0x00002740   0x00000034   Code   RO          380    .text.btn_left_cb   app_key_task.o
    0x00002774   0x00002774   0x00000068   Code   RO          382    .text.btn_right_cb  app_key_task.o
    0x000027dc   0x000027dc   0x00000030   Code   RO          378    .text.btn_up_cb     app_key_task.o
    0x0000280c   0x0000280c   0x00000016   Code   RO          331    .text.button_down_read  mid_button.o
    0x00002822   0x00002822   0x00000016   Code   RO          327    .text.button_left_read  mid_button.o
    0x00002838   0x00002838   0x00000016   Code   RO          329    .text.button_right_read  mid_button.o
    0x0000284e   0x0000284e   0x00000016   Code   RO          325    .text.button_up_read  mid_button.o
    0x00002864   0x00002864   0x00000016   Code   RO          289    .text.debug_uart_init  mid_debug_uart.o
    0x0000287a   0x0000287a   0x00000002   PAD
    0x0000287c   0x0000287c   0x0000002c   Code   RO          313    .text.debug_uart_receive_limit_length  mid_debug_uart.o
    0x000028a8   0x000028a8   0x000000ea   Code   RO          399    .text.disp_select_box  app_ui.o
    0x00002992   0x00002992   0x00000002   PAD
    0x00002994   0x00002994   0x00000084   Code   RO          397    .text.disp_string_rect  app_ui.o
    0x00002a18   0x00002a18   0x00000060   Code   RO          395    .text.disp_x_center  app_ui.o
    0x00002a78   0x00002a78   0x00000138   Code   RO          423    .text.draw_speed_curve  app_ui.o
    0x00002bb0   0x00002bb0   0x00000016   Code   RO          241    .text.encoder_init  hw_encoder.o
    0x00002bc6   0x00002bc6   0x00000002   PAD
    0x00002bc8   0x00002bc8   0x0000001c   Code   RO          251    .text.encoder_update  hw_encoder.o
    0x00002be4   0x00002be4   0x00000404   Code   RO          341    .text.flex_button_process  mid_button.o
    0x00002fe8   0x00002fe8   0x000000c8   Code   RO          339    .text.flex_button_read  mid_button.o
    0x000030b0   0x000030b0   0x000000a4   Code   RO          333    .text.flex_button_register  mid_button.o
    0x00003154   0x00003154   0x0000000c   Code   RO          337    .text.flex_button_scan  mid_button.o
    0x00003160   0x00003160   0x00000010   Code   RO            2    .text.generate_random  empty.o
    0x00003170   0x00003170   0x00000008   Code   RO          376    .text.get_app_key_current_mode  app_key_task.o
    0x00003178   0x00003178   0x0000008c   Code   RO          213    .text.key_scan      hw_key.o
    0x00003204   0x00003204   0x000001d0   Code   RO          158    .text.lcd_init      hw_lcd.o
    0x000033d4   0x000033d4   0x000000b4   Code   RO            4    .text.main          empty.o
    0x00003488   0x00003488   0x00000024   Code   RO          226    .text.restrict_pwm_max_value  hw_motor.o
    0x000034ac   0x000034ac   0x00000014   Code   RO          374    .text.set_app_key_current_mode  app_key_task.o
    0x000034c0   0x000034c0   0x00000018   Code   RO          230    .text.set_bi        hw_motor.o
    0x000034d8   0x000034d8   0x0000001c   Code   RO          228    .text.set_fi        hw_motor.o
    0x000034f4   0x000034f4   0x00000030   Code   RO          224    .text.set_motor     hw_motor.o
    0x00003524   0x00003524   0x0000002c   Code   RO          138    .text.spi_write_bus  hw_lcd.o
    0x00003550   0x00003550   0x0000000c   Code   RO          232    .text.stop_motor    hw_motor.o
    0x0000355c   0x0000355c   0x00000016   Code   RO          357    .text.timer_init    mid_timer.o
    0x00003572   0x00003572   0x00000002   PAD
    0x00003574   0x00003574   0x000000d0   Code   RO          401    .text.ui_home_page  app_ui.o
    0x00003644   0x00003644   0x0000011c   Code   RO          415    .text.ui_parameter_select_box_bold  app_ui.o
    0x00003760   0x00003760   0x0000015c   Code   RO          409    .text.ui_speed_page  app_ui.o
    0x000038bc   0x000038bc   0x000001fc   Code   RO          413    .text.ui_speed_page_select_box  app_ui.o
    0x00003ab8   0x00003ab8   0x00000268   Code   RO          411    .text.ui_speed_page_value_set  app_ui.o
    0x00003d20   0x00003d20   0x000000bc   Code   RO          323    .text.user_button_init  mid_button.o
    0x00003ddc   0x00003ddc   0x00000028   Code   RO          711    i.__0sprintf        mc_p.l(printfa.o)
    0x00003e04   0x00003e04   0x0000002e   Code   RO          791    i.__ARM_clz         mf_p.l(depilogue.o)
    0x00003e32   0x00003e32   0x00000006   PAD
    0x00003e38   0x00003e38   0x0000000e   Code   RO          815    i.__scatterload_copy  mc_p.l(handlers.o)
    0x00003e46   0x00003e46   0x00000002   PAD
    0x00003e48   0x00003e48   0x00000002   Code   RO          816    i.__scatterload_null  mc_p.l(handlers.o)
    0x00003e4a   0x00003e4a   0x00000006   PAD
    0x00003e50   0x00003e50   0x0000000e   Code   RO          817    i.__scatterload_zeroinit  mc_p.l(handlers.o)
    0x00003e5e   0x00003e5e   0x00000002   PAD
    0x00003e60   0x00003e60   0x0000000c   Code   RO          783    i.__set_errno       mc_p.l(errno.o)
    0x00003e6c   0x00003e6c   0x00000174   Code   RO          716    i._fp_digits        mc_p.l(printfa.o)
    0x00003fe0   0x00003fe0   0x000006ec   Code   RO          717    i._printf_core      mc_p.l(printfa.o)
    0x000046cc   0x000046cc   0x00000020   Code   RO          718    i._printf_post_padding  mc_p.l(printfa.o)
    0x000046ec   0x000046ec   0x0000002c   Code   RO          719    i._printf_pre_padding  mc_p.l(printfa.o)
    0x00004718   0x00004718   0x0000000a   Code   RO          721    i._sputc            mc_p.l(printfa.o)
    0x00004722   0x00004722   0x00000002   PAD
    0x00004724   0x00004724   0x00000048   Code   RO          687    i.sqrt              m_ps.l(sqrt.o)
    0x0000476c   0x0000476c   0x00000474   Data   RO          198    .rodata.ascii_1206  hw_lcd.o
    0x00004be0   0x00004be0   0x000005f0   Data   RO          199    .rodata.ascii_1608  hw_lcd.o
    0x000051d0   0x000051d0   0x000011d0   Data   RO          200    .rodata.ascii_2412  hw_lcd.o
    0x000063a0   0x000063a0   0x000017c0   Data   RO          201    .rodata.ascii_3216  hw_lcd.o
    0x00007b60   0x00007b60   0x00000003   Data   RO          123    .rodata.gPWM_MOTORClockConfig  ti_msp_dl_config.o
    0x00007b63   0x00007b63   0x00000001   PAD
    0x00007b64   0x00007b64   0x00000008   Data   RO          124    .rodata.gPWM_MOTORConfig  ti_msp_dl_config.o
    0x00007b6c   0x00007b6c   0x00000002   Data   RO          129    .rodata.gSPI_LCD_clockConfig  ti_msp_dl_config.o
    0x00007b6e   0x00007b6e   0x0000000a   Data   RO          130    .rodata.gSPI_LCD_config  ti_msp_dl_config.o
    0x00007b78   0x00007b78   0x00000028   Data   RO          122    .rodata.gSYSPLLConfig  ti_msp_dl_config.o
    0x00007ba0   0x00007ba0   0x00000003   Data   RO          125    .rodata.gTIMER_TICKClockConfig  ti_msp_dl_config.o
    0x00007ba3   0x00007ba3   0x00000001   PAD
    0x00007ba4   0x00007ba4   0x00000014   Data   RO          126    .rodata.gTIMER_TICKTimerConfig  ti_msp_dl_config.o
    0x00007bb8   0x00007bb8   0x00000002   Data   RO          127    .rodata.gUART_DEBUGClockConfig  ti_msp_dl_config.o
    0x00007bba   0x00007bba   0x0000000a   Data   RO          128    .rodata.gUART_DEBUGConfig  ti_msp_dl_config.o
    0x00007bc4   0x00007bc4   0x00000049   Data   RO          427    .rodata.str1.1      app_ui.o
    0x00007c0d   0x00007c0d   0x00000082   Data   RO          202    .rodata.tfont12     hw_lcd.o
    0x00007c8f   0x00007c8f   0x00000176   Data   RO          203    .rodata.tfont16     hw_lcd.o
    0x00007e05   0x00007e05   0x000000de   Data   RO          204    .rodata.tfont24     hw_lcd.o
    0x00007ee3   0x00007ee3   0x00000082   Data   RO          205    .rodata.tfont32     hw_lcd.o
    0x00007f65   0x00007f65   0x00000003   PAD
    0x00007f68   0x00007f68   0x00000020   Data   RO          814    Region$$Table       anon$$obj.o


    Execution Region RW_IRAM2 (Exec base: 0x20200000, Load base: 0x00007f88, Size: 0x000006c8, Max: 0x00008000, ABSOLUTE)

    Exec Addr    Load Addr    Size         Type   Attr      Idx    E Section Name        Object

    0x20200000   0x00007f88   0x00000004   Data   RW          702    .data               mc_p.l(rand.o)
    0x20200004   0x00007f8c   0x00000004   Data   RW          784    .data               mc_p.l(errno.o)
    0x20200008   0x00007f90   0x00000001   Data   RW          438    .data.draw_speed_curve.firstPoint  app_ui.o
    0x20200009   0x00007f91   0x00000001   PAD
    0x2020000a   0x00007f92   0x00000002   Data   RW          346    .data.key_rst_data  mid_button.o
    0x2020000c   0x00007f94   0x00000002   Data   RW          347    .data.keydata       mid_button.o
    0x2020000e   0x00007f96   0x00000002   PAD
    0x20200010        -       0x00000004   Zero   RW          344    .bss.btn_head       mid_button.o
    0x20200014        -       0x00000004   Zero   RW          387    .bss.btn_right_cb.motor_status  app_key_task.o
    0x20200018        -       0x00000001   Zero   RW          345    .bss.button_cnt     mid_button.o
    0x20200019   0x00007f96   0x00000001   PAD
    0x2020001a        -       0x00000002   Zero   RW          348    .bss.cont           mid_button.o
    0x2020001c        -       0x00000001   Zero   RW          386    .bss.current_mode   app_key_task.o
    0x2020001d   0x00007f96   0x00000003   PAD
    0x20200020        -       0x00000084   Zero   RW          315    .bss.debug_uart     mid_debug_uart.o
    0x202000a4        -       0x00000002   Zero   RW          439    .bss.draw_speed_curve.lastX  app_ui.o
    0x202000a6        -       0x00000002   Zero   RW          440    .bss.draw_speed_curve.lastY  app_ui.o
    0x202000a8        -       0x000000a0   Zero   RW          119    .bss.gPWM_MOTORBackup  ti_msp_dl_config.o
    0x20200148        -       0x00000028   Zero   RW          121    .bss.gSPI_LCDBackup  ti_msp_dl_config.o
    0x20200170        -       0x000000bc   Zero   RW          120    .bss.gTIMER_TICKBackup  ti_msp_dl_config.o
    0x2020022c   0x00007f96   0x00000004   PAD
    0x20200230        -       0x00000010   Zero   RW          261    .bss.motor_encoder  hw_encoder.o
    0x20200240        -       0x00000002   Zero   RW          349    .bss.trg            mid_button.o
    0x20200242   0x00007f96   0x00000002   PAD
    0x20200244        -       0x00000004   Zero   RW          430    .bss.ui_speed_page_value_set.last_d  app_ui.o
    0x20200248        -       0x00000004   Zero   RW          429    .bss.ui_speed_page_value_set.last_i  app_ui.o
    0x2020024c        -       0x00000004   Zero   RW          428    .bss.ui_speed_page_value_set.last_p  app_ui.o
    0x20200250        -       0x00000004   Zero   RW          431    .bss.ui_speed_page_value_set.last_speed  app_ui.o
    0x20200254        -       0x00000004   Zero   RW          432    .bss.ui_speed_page_value_set.last_target  app_ui.o
    0x20200258        -       0x00000070   Zero   RW          343    .bss.user_button    mid_button.o
    0x202002c8        -       0x00000400   Zero   RW           13    STACK               startup_mspm0g350x_uvision.o



  Load Region LR_BCR (Base: 0x41c00000, Size: 0x00000000, Max: 0x00000100, ABSOLUTE)

    Execution Region BCR_CONFIG (Exec base: 0x41c00000, Load base: 0x41c00000, Size: 0x00000000, Max: 0x000000ff, ABSOLUTE)

    **** No section assigned to this execution region ****



  Load Region LR_BSL (Base: 0x41c00100, Size: 0x00000000, Max: 0x00000100, ABSOLUTE)

    Execution Region BSL_CONFIG (Exec base: 0x41c00100, Load base: 0x41c00100, Size: 0x00000000, Max: 0x00000080, ABSOLUTE)

    **** No section assigned to this execution region ****


==============================================================================

Image component sizes


      Code (inc. data)   RO Data    RW Data    ZI Data      Debug   Object Name

       280         12          0          0          5       2317   app_key_task.o
      2782        132         73          1         24      10640   app_ui.o
       196         28          0          0          0        620   empty.o
       368         20          0          0         16       6111   hw_encoder.o
       162          4          0          0          0       3649   hw_key.o
      4518         56      14156          0          0      15955   hw_lcd.o
       148         12          0          0          0       3843   hw_motor.o
      1680        100          0          4        121       4434   mid_button.o
       228         12          0          0        132       6348   mid_debug_uart.o
       160         12          0          0          0       5469   mid_timer.o
        20          4        192          0       1024        644   startup_mspm0g350x_uvision.o
      2056        188         98          0        388      31267   ti_msp_dl_config.o

    ----------------------------------------------------------------------
     12618        580      14556          8       1720      91297   Object Totals
         0          0         32          0          0          0   (incl. Generated)
        20          0          5          3         10          0   (incl. Padding)

    ----------------------------------------------------------------------

      Code (inc. data)   RO Data    RW Data    ZI Data      Debug   Library Member Name

        10          0          0          0          0        790   dl_common.o
        86          8          0          0          0      13505   dl_spi.o
       312         24          0          0          0      12865   dl_sysctl_mspm0g1x0x_g3x0x.o
       596        188          0          0          0      41545   dl_timer.o
        90          8          0          0          0      14150   dl_uart.o
        72          6          0          0          0         76   sqrt.o
         0          0          0          0          0          0   entry.o
         0          0          0          0          0          0   entry10a.o
         0          0          0          0          0          0   entry11a.o
         8          4          0          0          0          0   entry2.o
         4          0          0          0          0          0   entry5.o
         0          0          0          0          0          0   entry7b.o
         0          0          0          0          0          0   entry8b.o
         8          4          0          0          0          0   entry9a.o
        12          6          0          4          0         60   errno.o
        30          0          0          0          0          0   handlers.o
        80          6          0          0          0         72   idiv_div0.o
        48         10          0          0          0         68   init.o
         0          0          0          0          0          0   iusefp.o
        32          0          0          0          0         68   llshl.o
        38          0          0          0          0         68   llsshr.o
        34          0          0          0          0         68   llushr.o
        36          0          0          0          0        100   memseta.o
      2270         94          0          0          0        472   printfa.o
        36         12          0          4          0        120   rand.o
        14          0          0          0          0         60   strlen.o
        62          0          0          0          0         72   uidiv_div0.o
        96          0          0          0          0         84   uldiv.o
        40          2          0          0          0         68   cdrcmple.o
       356          4          0          0          0        140   dadd.o
       240          6          0          0          0         84   ddiv.o
       236          0          0          0          0        216   depilogue.o
        72         10          0          0          0         72   dfixi.o
        64         10          0          0          0         68   dfixul.o
        28          4          0          0          0         68   dfltui.o
       208          6          0          0          0         88   dmul.o
       162          0          0          0          0         80   dsqrt.o
        40          0          0          0          0         60   f2d.o
        28          0          0          0          0         60   fcmpeq.o

    ----------------------------------------------------------------------
      5474        412          0          8          0      85247   Library Totals
        26          0          0          0          0          0   (incl. Padding)

    ----------------------------------------------------------------------

      Code (inc. data)   RO Data    RW Data    ZI Data      Debug   Library Name

      1094        228          0          0          0      82855   driverlib.a
        72          6          0          0          0         76   m_ps.l
      2808        136          0          8          0       1312   mc_p.l
      1474         42          0          0          0       1004   mf_p.l

    ----------------------------------------------------------------------
      5474        412          0          8          0      85247   Library Totals

    ----------------------------------------------------------------------

==============================================================================


      Code (inc. data)   RO Data    RW Data    ZI Data      Debug   

     18092        992      14556         16       1720     175200   Grand Totals
     18092        992      14556         16       1720     175200   ELF Image Totals
     18092        992      14556         16          0          0   ROM Totals

==============================================================================

    Total RO  Size (Code + RO Data)                32648 (  31.88kB)
    Total RW  Size (RW Data + ZI Data)              1736 (   1.70kB)
    Total ROM Size (Code + RO Data + RW Data)      32664 (  31.90kB)

==============================================================================

