Component: Arm Compiler for Embedded 6.21 Tool: armlink [5ec1fa00]

==============================================================================

Section Cross References

    empty.o(.text.main) refers to ti_msp_dl_config.o(.text.SYSCFG_DL_init) for SYSCFG_DL_init
    empty.o(.text.main) refers to mid_debug_uart.o(.text.debug_uart_init) for debug_uart_init
    empty.o(.text.main) refers to mid_button.o(.text.user_button_init) for user_button_init
    empty.o(.text.main) refers to hw_encoder.o(.text.encoder_init) for encoder_init
    empty.o(.text.main) refers to mid_timer.o(.text.timer_init) for timer_init
    empty.o(.text.main) refers to hw_lcd.o(.text.lcd_init) for lcd_init
    empty.o(.text.main) refers to empty.o(.text.ui_home_page) for ui_home_page
    empty.o(.text.main) refers to empty.o(.text.ui_encoder_value_update) for ui_encoder_value_update
    empty.o(.text.main) refers to dl_common.o(.text.DL_Common_delayCycles) for DL_Common_delayCycles
    empty.o(.ARM.exidx.text.main) refers to empty.o(.text.main) for [Anonymous Symbol]
    empty.o(.text.ui_home_page) refers to empty.o(.text.DL_GPIO_clearPins) for DL_GPIO_clearPins
    empty.o(.text.ui_home_page) refers to hw_lcd.o(.text.LCD_Fill) for LCD_Fill
    empty.o(.text.ui_home_page) refers to empty.o(.text.disp_x_center) for disp_x_center
    empty.o(.text.ui_home_page) refers to empty.o(.text.disp_string_rect) for disp_string_rect
    empty.o(.text.ui_home_page) refers to empty.o(.text.DL_GPIO_setPins) for DL_GPIO_setPins
    empty.o(.text.ui_home_page) refers to empty.o(.rodata.str1.1) for [Anonymous Symbol]
    empty.o(.ARM.exidx.text.ui_home_page) refers to empty.o(.text.ui_home_page) for [Anonymous Symbol]
    empty.o(.text.ui_encoder_value_update) refers to memseta.o(.text) for __aeabi_memclr4
==============================================================================

Removing Unused input sections from the image.

    Removing empty.o(.text), (0 bytes).
    Removing empty.o(.ARM.exidx.text.main), (8 bytes).
    Removing empty.o(.ARM.exidx.text.ui_home_page), (8 bytes).
    Removing empty.o(.ARM.exidx.text.ui_encoder_value_update), (8 bytes).
    Removing empty.o(.ARM.exidx.text.disp_x_center), (8 bytes).
    Removing empty.o(.ARM.exidx.text.disp_string_rect), (8 bytes).
    Removing empty.o(.ARM.exidx.text.DL_GPIO_clearPins), (8 bytes).
    Removing empty.o(.ARM.exidx.text.DL_GPIO_setPins), (8 bytes).
    Removing empty.o(.ARM.use_no_argv), (4 bytes).
    Removing startup_mspm0g350x_uvision.o(HEAP), (1024 bytes).
    Removing ti_msp_dl_config.o(.text), (0 bytes).
    Removing ti_msp_dl_config.o(.ARM.exidx.text.SYSCFG_DL_init), (8 bytes).
    Removing ti_msp_dl_config.o(.ARM.exidx.text.SYSCFG_DL_initPower), (8 bytes).
    Removing ti_msp_dl_config.o(.ARM.exidx.text.SYSCFG_DL_GPIO_init), (8 bytes).
    Removing ti_msp_dl_config.o(.ARM.exidx.text.SYSCFG_DL_SYSCTL_init), (8 bytes).
    Removing ti_msp_dl_config.o(.ARM.exidx.text.SYSCFG_DL_PWM_MOTOR_init), (8 bytes).
    Removing ti_msp_dl_config.o(.ARM.exidx.text.SYSCFG_DL_TIMER_TICK_init), (8 bytes).
    Removing ti_msp_dl_config.o(.ARM.exidx.text.SYSCFG_DL_UART_DEBUG_init), (8 bytes).
==============================================================================

Image Symbol Table

    Local Symbols

    Symbol Name                              Value     Ov Type        Size  Object(Section)

    ../clib/division.s                       0x00000000   Number         0  aeabi_sdivfast.o ABSOLUTE
    ../clib/division.s                       0x00000000   Number         0  aeabi_sdivfast_div0.o ABSOLUTE
    ../clib/microlib/division.c              0x00000000   Number         0  uidiv.o ABSOLUTE
    ../clib/microlib/division.c              0x00000000   Number         0  uidiv_div0.o ABSOLUTE
    ../clib/microlib/division.c              0x00000000   Number         0  idiv_div0.o ABSOLUTE
    ../clib/microlib/division.c              0x00000000   Number         0  idiv0.o ABSOLUTE
    ../clib/microlib/division.c              0x00000000   Number         0  uldiv.o ABSOLUTE
    ../clib/microlib/errno.c                 0x00000000   Number         0  errno.o ABSOLUTE
    ../clib/microlib/init/entry.s            0x00000000   Number         0  entry.o ABSOLUTE
    ../clib/microlib/init/entry.s            0x00000000   Number         0  entry2.o ABSOLUTE
    ../clib/microlib/init/entry.s            0x00000000   Number         0  entry5.o ABSOLUTE
    ../clib/microlib/init/entry.s            0x00000000   Number         0  entry7a.o ABSOLUTE
    ../clib/microlib/init/entry.s            0x00000000   Number         0  entry7b.o ABSOLUTE
    ../clib/microlib/init/entry.s            0x00000000   Number         0  entry8a.o ABSOLUTE
    ../clib/microlib/init/entry.s            0x00000000   Number         0  entry8b.o ABSOLUTE
    ../clib/microlib/init/entry.s            0x00000000   Number         0  entry9a.o ABSOLUTE
    ../clib/microlib/init/entry.s            0x00000000   Number         0  entry9b.o ABSOLUTE
    ../clib/microlib/init/entry.s            0x00000000   Number         0  entry10a.o ABSOLUTE
    ../clib/microlib/init/entry.s            0x00000000   Number         0  entry10b.o ABSOLUTE
    ../clib/microlib/init/entry.s            0x00000000   Number         0  entry11a.o ABSOLUTE
    ../clib/microlib/init/entry.s            0x00000000   Number         0  entry11b.o ABSOLUTE
    ../clib/microlib/longlong.c              0x00000000   Number         0  llushr.o ABSOLUTE
    ../clib/microlib/longlong.c              0x00000000   Number         0  llshl.o ABSOLUTE
    ../clib/microlib/longlong.c              0x00000000   Number         0  llsshr.o ABSOLUTE
    ../clib/microlib/printf/printf.c         0x00000000   Number         0  printfa.o ABSOLUTE
    ../clib/microlib/stdio/fputc.c           0x00000000   Number         0  fputc.o ABSOLUTE
    ../clib/microlib/stdio/fputc.c           0x00000000   Number         0  fputc_h.o ABSOLUTE
    ../clib/microlib/stdio/semi.s            0x00000000   Number         0  semi.o ABSOLUTE
    ../clib/microlib/stdio/streams.c         0x00000000   Number         0  stdout.o ABSOLUTE
    ../clib/microlib/string/memset.c         0x00000000   Number         0  memseta.o ABSOLUTE
    ../clib/microlib/string/strlen.c         0x00000000   Number         0  strlen.o ABSOLUTE
    ../clib/microlib/stubs.s                 0x00000000   Number         0  iusefp.o ABSOLUTE
    ../clib/microlib/stubs.s                 0x00000000   Number         0  iusesemip.o ABSOLUTE
    ../fplib/microlib/fpadd.c                0x00000000   Number         0  dadd.o ABSOLUTE
    ../fplib/microlib/fpdiv.c                0x00000000   Number         0  ddiv.o ABSOLUTE
    ../fplib/microlib/fpepilogue.c           0x00000000   Number         0  depilogue.o ABSOLUTE
    ../fplib/microlib/fpfix.c                0x00000000   Number         0  ffixui.o ABSOLUTE
    ../fplib/microlib/fpfix.c                0x00000000   Number         0  dfixi.o ABSOLUTE
    ../fplib/microlib/fpfix.c                0x00000000   Number         0  dfixul.o ABSOLUTE
    ../fplib/microlib/fpflt.c                0x00000000   Number         0  dfltui.o ABSOLUTE
    ../fplib/microlib/fpmul.c                0x00000000   Number         0  fmul.o ABSOLUTE
    ../fplib/microlib/fpmul.c                0x00000000   Number         0  dmul.o ABSOLUTE
    ../fplib/microlib/fpsqrt.c               0x00000000   Number         0  dsqrt.o ABSOLUTE
    ../mathlib/sqrt.c                        0x00000000   Number         0  sqrt.o ABSOLUTE
    app_key_task.c                           0x00000000   Number         0  app_key_task.o ABSOLUTE
    cdrcmple.s                               0x00000000   Number         0  cdrcmple.o ABSOLUTE
    dc.s                                     0x00000000   Number         0  dc.o ABSOLUTE
    dl_common.c                              0x00000000   Number         0  dl_common.o ABSOLUTE
    dl_spi.c                                 0x00000000   Number         0  dl_spi.o ABSOLUTE
    dl_sysctl_mspm0g1x0x_g3x0x.c             0x00000000   Number         0  dl_sysctl_mspm0g1x0x_g3x0x.o ABSOLUTE
    dl_timer.c                               0x00000000   Number         0  dl_timer.o ABSOLUTE
    dl_uart.c                                0x00000000   Number         0  dl_uart.o ABSOLUTE
    empty.c                                  0x00000000   Number         0  empty.o ABSOLUTE
    handlers.s                               0x00000000   Number         0  handlers.o ABSOLUTE
    hw_encoder.c                             0x00000000   Number         0  hw_encoder.o ABSOLUTE
    hw_key.c                                 0x00000000   Number         0  hw_key.o ABSOLUTE
    hw_lcd.c                                 0x00000000   Number         0  hw_lcd.o ABSOLUTE
    hw_motor.c                               0x00000000   Number         0  hw_motor.o ABSOLUTE
    init.s                                   0x00000000   Number         0  init.o ABSOLUTE
    mid_button.c                             0x00000000   Number         0  mid_button.o ABSOLUTE
    mid_debug_led.c                          0x00000000   Number         0  mid_debug_led.o ABSOLUTE
    mid_debug_uart.c                         0x00000000   Number         0  mid_debug_uart.o ABSOLUTE
    mid_timer.c                              0x00000000   Number         0  mid_timer.o ABSOLUTE
    startup_mspm0g350x_uvision.s             0x00000000   Number         0  startup_mspm0g350x_uvision.o ABSOLUTE
    ti_msp_dl_config.c                       0x00000000   Number         0  ti_msp_dl_config.o ABSOLUTE
    RESET                                    0x00000000   Section      192  startup_mspm0g350x_uvision.o(RESET)
    .ARM.Collect$$$$00000000                 0x000000c0   Section        0  entry.o(.ARM.Collect$$$$00000000)
    .ARM.Collect$$$$00000001                 0x000000c0   Section        4  entry2.o(.ARM.Collect$$$$00000001)
    .ARM.Collect$$$$00000004                 0x000000c4   Section        4  entry5.o(.ARM.Collect$$$$00000004)
    .ARM.Collect$$$$00000008                 0x000000c8   Section        0  entry7b.o(.ARM.Collect$$$$00000008)
    .ARM.Collect$$$$0000000A                 0x000000c8   Section        0  entry8b.o(.ARM.Collect$$$$0000000A)
    .ARM.Collect$$$$0000000B                 0x000000c8   Section        8  entry9a.o(.ARM.Collect$$$$0000000B)
    __lit__00000000                          0x000000d0   Data           4  entry2.o(.ARM.Collect$$$$00002712)
    .ARM.Collect$$$$0000000D                 0x000000d0   Section        0  entry10a.o(.ARM.Collect$$$$0000000D)
    .ARM.Collect$$$$0000000F                 0x000000d0   Section        0  entry11a.o(.ARM.Collect$$$$0000000F)
    .ARM.Collect$$$$00002712                 0x000000d0   Section        4  entry2.o(.ARM.Collect$$$$00002712)
    .text                                    0x000000d4   Section       20  startup_mspm0g350x_uvision.o(.text)
    .text                                    0x000000e8   Section        0  memseta.o(.text)
    .text                                    0x0000010c   Section        0  strlen.o(.text)
    .text                                    0x0000011c   Section        0  dfltui.o(.text)
    .text                                    0x00000138   Section        0  dfixi.o(.text)
    .text                                    0x00000180   Section        0  uidiv_div0.o(.text)
    .text                                    0x000001be   Section        0  uldiv.o(.text)
    .text                                    0x0000021e   Section        0  llushr.o(.text)
    .text                                    0x00000240   Section        0  iusefp.o(.text)
    .text                                    0x00000240   Section        0  depilogue.o(.text)
    .text                                    0x00000300   Section        0  dadd.o(.text)
    .text                                    0x00000464   Section        0  dmul.o(.text)
    .text                                    0x00000534   Section        0  ddiv.o(.text)
    .text                                    0x00000624   Section        0  dsqrt.o(.text)
    .text                                    0x000006c8   Section        0  dfixul.o(.text)
    .text                                    0x00000708   Section       40  cdrcmple.o(.text)
    .text                                    0x00000730   Section       48  init.o(.text)
    .text                                    0x00000760   Section        0  llshl.o(.text)
    .text                                    0x00000780   Section        0  llsshr.o(.text)
    [Anonymous Symbol]                       0x000007a6   Section        0  dl_common.o(.text.DL_Common_delayCycles)
    DL_Common_updateReg                      0x000007b1   Thumb Code    40  ti_msp_dl_config.o(.text.DL_Common_updateReg)
    [Anonymous Symbol]                       0x000007b0   Section        0  ti_msp_dl_config.o(.text.DL_Common_updateReg)
    DL_GPIO_clearInterruptStatus             0x000007d9   Thumb Code    24  ti_msp_dl_config.o(.text.DL_GPIO_clearInterruptStatus)
    [Anonymous Symbol]                       0x000007d8   Section        0  ti_msp_dl_config.o(.text.DL_GPIO_clearInterruptStatus)
    DL_GPIO_clearInterruptStatus             0x000007f1   Thumb Code    24  hw_encoder.o(.text.DL_GPIO_clearInterruptStatus)
    [Anonymous Symbol]                       0x000007f0   Section        0  hw_encoder.o(.text.DL_GPIO_clearInterruptStatus)
    __arm_cp.9_0                             0x00000808   Number         4  hw_encoder.o(.text.DL_GPIO_clearInterruptStatus)
    DL_GPIO_clearPins                        0x0000080d   Thumb Code    20  empty.o(.text.DL_GPIO_clearPins)
    [Anonymous Symbol]                       0x0000080c   Section        0  empty.o(.text.DL_GPIO_clearPins)
    DL_GPIO_clearPins                        0x00000821   Thumb Code    20  ti_msp_dl_config.o(.text.DL_GPIO_clearPins)
    [Anonymous Symbol]                       0x00000820   Section        0  ti_msp_dl_config.o(.text.DL_GPIO_clearPins)
    DL_GPIO_clearPins                        0x00000835   Thumb Code    20  hw_lcd.o(.text.DL_GPIO_clearPins)
    [Anonymous Symbol]                       0x00000834   Section        0  hw_lcd.o(.text.DL_GPIO_clearPins)
    DL_GPIO_enableInterrupt                  0x00000849   Thumb Code    24  ti_msp_dl_config.o(.text.DL_GPIO_enableInterrupt)
    [Anonymous Symbol]                       0x00000848   Section        0  ti_msp_dl_config.o(.text.DL_GPIO_enableInterrupt)
    __arm_cp.28_0                            0x00000860   Number         4  ti_msp_dl_config.o(.text.DL_GPIO_enableInterrupt)
    DL_GPIO_enableOutput                     0x00000865   Thumb Code    20  ti_msp_dl_config.o(.text.DL_GPIO_enableOutput)
    [Anonymous Symbol]                       0x00000864   Section        0  ti_msp_dl_config.o(.text.DL_GPIO_enableOutput)
    __arm_cp.20_0                            0x00000878   Number         4  ti_msp_dl_config.o(.text.DL_GPIO_enableOutput)
    DL_GPIO_enablePower                      0x0000087d   Thumb Code    20  ti_msp_dl_config.o(.text.DL_GPIO_enablePower)
    [Anonymous Symbol]                       0x0000087c   Section        0  ti_msp_dl_config.o(.text.DL_GPIO_enablePower)
    DL_GPIO_getEnabledInterruptStatus        0x00000891   Thumb Code    20  hw_encoder.o(.text.DL_GPIO_getEnabledInterruptStatus)
    [Anonymous Symbol]                       0x00000890   Section        0  hw_encoder.o(.text.DL_GPIO_getEnabledInterruptStatus)
    __arm_cp.7_0                             0x000008a4   Number         4  hw_encoder.o(.text.DL_GPIO_getEnabledInterruptStatus)
    DL_GPIO_initDigitalInputFeatures         0x000008a9   Thumb Code    44  ti_msp_dl_config.o(.text.DL_GPIO_initDigitalInputFeatures)
    [Anonymous Symbol]                       0x000008a8   Section        0  ti_msp_dl_config.o(.text.DL_GPIO_initDigitalInputFeatures)
    __arm_cp.24_0                            0x000008d4   Number         4  ti_msp_dl_config.o(.text.DL_GPIO_initDigitalInputFeatures)
    DL_GPIO_initDigitalOutput                0x000008d9   Thumb Code    20  ti_msp_dl_config.o(.text.DL_GPIO_initDigitalOutput)
    [Anonymous Symbol]                       0x000008d8   Section        0  ti_msp_dl_config.o(.text.DL_GPIO_initDigitalOutput)
    DL_GPIO_initDigitalOutputFeatures        0x000008ed   Thumb Code    44  ti_msp_dl_config.o(.text.DL_GPIO_initDigitalOutputFeatures)
    [Anonymous Symbol]                       0x000008ec   Section        0  ti_msp_dl_config.o(.text.DL_GPIO_initDigitalOutputFeatures)
    DL_GPIO_initPeripheralAnalogFunction     0x00000919   Thumb Code    20  ti_msp_dl_config.o(.text.DL_GPIO_initPeripheralAnalogFunction)
    [Anonymous Symbol]                       0x00000918   Section        0  ti_msp_dl_config.o(.text.DL_GPIO_initPeripheralAnalogFunction)
    DL_GPIO_initPeripheralInputFunction      0x0000092d   Thumb Code    24  ti_msp_dl_config.o(.text.DL_GPIO_initPeripheralInputFunction)
    [Anonymous Symbol]                       0x0000092c   Section        0  ti_msp_dl_config.o(.text.DL_GPIO_initPeripheralInputFunction)
    __arm_cp.21_0                            0x00000944   Number         4  ti_msp_dl_config.o(.text.DL_GPIO_initPeripheralInputFunction)
    DL_GPIO_initPeripheralOutputFunction     0x00000949   Thumb Code    24  ti_msp_dl_config.o(.text.DL_GPIO_initPeripheralOutputFunction)
    [Anonymous Symbol]                       0x00000948   Section        0  ti_msp_dl_config.o(.text.DL_GPIO_initPeripheralOutputFunction)
    __arm_cp.19_0                            0x00000960   Number         4  ti_msp_dl_config.o(.text.DL_GPIO_initPeripheralOutputFunction)
    DL_GPIO_readPins                         0x00000965   Thumb Code    22  hw_key.o(.text.DL_GPIO_readPins)
    [Anonymous Symbol]                       0x00000964   Section        0  hw_key.o(.text.DL_GPIO_readPins)
    DL_GPIO_readPins                         0x0000097b   Thumb Code    22  hw_encoder.o(.text.DL_GPIO_readPins)
    [Anonymous Symbol]                       0x0000097a   Section        0  hw_encoder.o(.text.DL_GPIO_readPins)
    DL_GPIO_reset                            0x00000991   Thumb Code    16  ti_msp_dl_config.o(.text.DL_GPIO_reset)
    [Anonymous Symbol]                       0x00000990   Section        0  ti_msp_dl_config.o(.text.DL_GPIO_reset)
    DL_GPIO_setLowerPinsPolarity             0x000009a1   Thumb Code    24  ti_msp_dl_config.o(.text.DL_GPIO_setLowerPinsPolarity)
    [Anonymous Symbol]                       0x000009a0   Section        0  ti_msp_dl_config.o(.text.DL_GPIO_setLowerPinsPolarity)
    __arm_cp.26_0                            0x000009b8   Number         4  ti_msp_dl_config.o(.text.DL_GPIO_setLowerPinsPolarity)
    DL_GPIO_setPins                          0x000009bd   Thumb Code    20  empty.o(.text.DL_GPIO_setPins)
    [Anonymous Symbol]                       0x000009bc   Section        0  empty.o(.text.DL_GPIO_setPins)
    DL_GPIO_setPins                          0x000009d1   Thumb Code    20  hw_lcd.o(.text.DL_GPIO_setPins)
    [Anonymous Symbol]                       0x000009d0   Section        0  hw_lcd.o(.text.DL_GPIO_setPins)
    __arm_cp.5_0                             0x000009e4   Number         4  hw_lcd.o(.text.DL_GPIO_setPins)
    DL_SPI_enable                            0x000009e9   Thumb Code    20  ti_msp_dl_config.o(.text.DL_SPI_enable)
    [Anonymous Symbol]                       0x000009e8   Section        0  ti_msp_dl_config.o(.text.DL_SPI_enable)
    __arm_cp.46_0                            0x000009fc   Number         4  ti_msp_dl_config.o(.text.DL_SPI_enable)
    DL_SPI_enablePower                       0x00000a01   Thumb Code    20  ti_msp_dl_config.o(.text.DL_SPI_enablePower)
    [Anonymous Symbol]                       0x00000a00   Section        0  ti_msp_dl_config.o(.text.DL_SPI_enablePower)
    __arm_cp.17_0                            0x00000a14   Number         4  ti_msp_dl_config.o(.text.DL_SPI_enablePower)
    [Anonymous Symbol]                       0x00000a18   Section        0  dl_spi.o(.text.DL_SPI_init)
    __arm_cp.0_0                             0x00000a54   Number         4  dl_spi.o(.text.DL_SPI_init)
    __arm_cp.0_1                             0x00000a58   Number         4  dl_spi.o(.text.DL_SPI_init)
    DL_SPI_isBusy                            0x00000a5d   Thumb Code    20  hw_lcd.o(.text.DL_SPI_isBusy)
    [Anonymous Symbol]                       0x00000a5c   Section        0  hw_lcd.o(.text.DL_SPI_isBusy)
    __arm_cp.2_0                             0x00000a70   Number         4  hw_lcd.o(.text.DL_SPI_isBusy)
    DL_SPI_reset                             0x00000a75   Thumb Code    16  ti_msp_dl_config.o(.text.DL_SPI_reset)
    [Anonymous Symbol]                       0x00000a74   Section        0  ti_msp_dl_config.o(.text.DL_SPI_reset)
    __arm_cp.13_0                            0x00000a84   Number         4  ti_msp_dl_config.o(.text.DL_SPI_reset)
    __arm_cp.13_1                            0x00000a88   Number         4  ti_msp_dl_config.o(.text.DL_SPI_reset)
    DL_SPI_setBitRateSerialClockDivider      0x00000a8d   Thumb Code    28  ti_msp_dl_config.o(.text.DL_SPI_setBitRateSerialClockDivider)
    [Anonymous Symbol]                       0x00000a8c   Section        0  ti_msp_dl_config.o(.text.DL_SPI_setBitRateSerialClockDivider)
    __arm_cp.44_1                            0x00000aa8   Number         4  ti_msp_dl_config.o(.text.DL_SPI_setBitRateSerialClockDivider)
    [Anonymous Symbol]                       0x00000aac   Section        0  dl_spi.o(.text.DL_SPI_setClockConfig)
    DL_SPI_setFIFOThreshold                  0x00000ac1   Thumb Code    44  ti_msp_dl_config.o(.text.DL_SPI_setFIFOThreshold)
    [Anonymous Symbol]                       0x00000ac0   Section        0  ti_msp_dl_config.o(.text.DL_SPI_setFIFOThreshold)
    __arm_cp.45_0                            0x00000aec   Number         4  ti_msp_dl_config.o(.text.DL_SPI_setFIFOThreshold)
    DL_SPI_transmitData8                     0x00000af1   Thumb Code    22  hw_lcd.o(.text.DL_SPI_transmitData8)
    [Anonymous Symbol]                       0x00000af0   Section        0  hw_lcd.o(.text.DL_SPI_transmitData8)
    [Anonymous Symbol]                       0x00000b08   Section        0  dl_sysctl_mspm0g1x0x_g3x0x.o(.text.DL_SYSCTL_configSYSPLL)
    __arm_cp.0_2                             0x00000bbc   Number         4  dl_sysctl_mspm0g1x0x_g3x0x.o(.text.DL_SYSCTL_configSYSPLL)
    __arm_cp.0_3                             0x00000bc0   Number         4  dl_sysctl_mspm0g1x0x_g3x0x.o(.text.DL_SYSCTL_configSYSPLL)
    __arm_cp.0_4                             0x00000bc4   Number         4  dl_sysctl_mspm0g1x0x_g3x0x.o(.text.DL_SYSCTL_configSYSPLL)
    DL_SYSCTL_disableHFXT                    0x00000bc9   Thumb Code    12  ti_msp_dl_config.o(.text.DL_SYSCTL_disableHFXT)
    [Anonymous Symbol]                       0x00000bc8   Section        0  ti_msp_dl_config.o(.text.DL_SYSCTL_disableHFXT)
    DL_SYSCTL_disableSYSPLL                  0x00000bd5   Thumb Code    16  ti_msp_dl_config.o(.text.DL_SYSCTL_disableSYSPLL)
    [Anonymous Symbol]                       0x00000bd4   Section        0  ti_msp_dl_config.o(.text.DL_SYSCTL_disableSYSPLL)
    __arm_cp.33_0                            0x00000be4   Number         4  ti_msp_dl_config.o(.text.DL_SYSCTL_disableSYSPLL)
    DL_SYSCTL_setBORThreshold                0x00000be9   Thumb Code    20  ti_msp_dl_config.o(.text.DL_SYSCTL_setBORThreshold)
    [Anonymous Symbol]                       0x00000be8   Section        0  ti_msp_dl_config.o(.text.DL_SYSCTL_setBORThreshold)
    __arm_cp.29_0                            0x00000bfc   Number         4  ti_msp_dl_config.o(.text.DL_SYSCTL_setBORThreshold)
    DL_SYSCTL_setFlashWaitState              0x00000c01   Thumb Code    28  ti_msp_dl_config.o(.text.DL_SYSCTL_setFlashWaitState)
    [Anonymous Symbol]                       0x00000c00   Section        0  ti_msp_dl_config.o(.text.DL_SYSCTL_setFlashWaitState)
    [Anonymous Symbol]                       0x00000c1c   Section        0  dl_sysctl_mspm0g1x0x_g3x0x.o(.text.DL_SYSCTL_setHFCLKSourceHFXTParams)
    __arm_cp.7_0                             0x00000c68   Number         4  dl_sysctl_mspm0g1x0x_g3x0x.o(.text.DL_SYSCTL_setHFCLKSourceHFXTParams)
    DL_SYSCTL_setSYSOSCFreq                  0x00000c6d   Thumb Code    24  ti_msp_dl_config.o(.text.DL_SYSCTL_setSYSOSCFreq)
    [Anonymous Symbol]                       0x00000c6c   Section        0  ti_msp_dl_config.o(.text.DL_SYSCTL_setSYSOSCFreq)
    __arm_cp.31_0                            0x00000c84   Number         4  ti_msp_dl_config.o(.text.DL_SYSCTL_setSYSOSCFreq)
    DL_SYSCTL_setULPCLKDivider               0x00000c89   Thumb Code    24  ti_msp_dl_config.o(.text.DL_SYSCTL_setULPCLKDivider)
    [Anonymous Symbol]                       0x00000c88   Section        0  ti_msp_dl_config.o(.text.DL_SYSCTL_setULPCLKDivider)
    [Anonymous Symbol]                       0x00000ca0   Section        0  dl_sysctl_mspm0g1x0x_g3x0x.o(.text.DL_SYSCTL_switchMCLKfromSYSOSCtoHSCLK)
    __arm_cp.4_0                             0x00000cc0   Number         4  dl_sysctl_mspm0g1x0x_g3x0x.o(.text.DL_SYSCTL_switchMCLKfromSYSOSCtoHSCLK)
    __arm_cp.4_1                             0x00000cc4   Number         4  dl_sysctl_mspm0g1x0x_g3x0x.o(.text.DL_SYSCTL_switchMCLKfromSYSOSCtoHSCLK)
    DL_Timer_enableClock                     0x00000cc9   Thumb Code    16  ti_msp_dl_config.o(.text.DL_Timer_enableClock)
    [Anonymous Symbol]                       0x00000cc8   Section        0  ti_msp_dl_config.o(.text.DL_Timer_enableClock)
    __arm_cp.37_0                            0x00000cd8   Number         4  ti_msp_dl_config.o(.text.DL_Timer_enableClock)
    DL_Timer_enableInterrupt                 0x00000cdd   Thumb Code    24  ti_msp_dl_config.o(.text.DL_Timer_enableInterrupt)
    [Anonymous Symbol]                       0x00000cdc   Section        0  ti_msp_dl_config.o(.text.DL_Timer_enableInterrupt)
    DL_Timer_enablePower                     0x00000cf5   Thumb Code    20  ti_msp_dl_config.o(.text.DL_Timer_enablePower)
    [Anonymous Symbol]                       0x00000cf4   Section        0  ti_msp_dl_config.o(.text.DL_Timer_enablePower)
    __arm_cp.15_0                            0x00000d08   Number         4  ti_msp_dl_config.o(.text.DL_Timer_enablePower)
    DL_Timer_getPendingInterrupt             0x00000d0d   Thumb Code    18  mid_timer.o(.text.DL_Timer_getPendingInterrupt)
    [Anonymous Symbol]                       0x00000d0c   Section        0  mid_timer.o(.text.DL_Timer_getPendingInterrupt)
    [Anonymous Symbol]                       0x00000d20   Section        0  dl_timer.o(.text.DL_Timer_initFourCCPWMMode)
    __arm_cp.40_1                            0x00000e14   Number         4  dl_timer.o(.text.DL_Timer_initFourCCPWMMode)
    __arm_cp.40_2                            0x00000e18   Number         4  dl_timer.o(.text.DL_Timer_initFourCCPWMMode)
    __arm_cp.40_4                            0x00000e1c   Number         4  dl_timer.o(.text.DL_Timer_initFourCCPWMMode)
    __arm_cp.40_5                            0x00000e20   Number         4  dl_timer.o(.text.DL_Timer_initFourCCPWMMode)
    __arm_cp.40_6                            0x00000e24   Number         4  dl_timer.o(.text.DL_Timer_initFourCCPWMMode)
    [Anonymous Symbol]                       0x00000e28   Section        0  dl_timer.o(.text.DL_Timer_initTimerMode)
    __arm_cp.2_0                             0x00000f08   Number         4  dl_timer.o(.text.DL_Timer_initTimerMode)
    __arm_cp.2_2                             0x00000f0c   Number         4  dl_timer.o(.text.DL_Timer_initTimerMode)
    __arm_cp.2_3                             0x00000f10   Number         4  dl_timer.o(.text.DL_Timer_initTimerMode)
    DL_Timer_reset                           0x00000f15   Thumb Code    16  ti_msp_dl_config.o(.text.DL_Timer_reset)
    [Anonymous Symbol]                       0x00000f14   Section        0  ti_msp_dl_config.o(.text.DL_Timer_reset)
    DL_Timer_setCCPDirection                 0x00000f25   Thumb Code    20  ti_msp_dl_config.o(.text.DL_Timer_setCCPDirection)
    [Anonymous Symbol]                       0x00000f24   Section        0  ti_msp_dl_config.o(.text.DL_Timer_setCCPDirection)
    [Anonymous Symbol]                       0x00000f38   Section        0  dl_timer.o(.text.DL_Timer_setCaptCompUpdateMethod)
    __arm_cp.23_0                            0x00000f50   Number         4  dl_timer.o(.text.DL_Timer_setCaptCompUpdateMethod)
    [Anonymous Symbol]                       0x00000f54   Section        0  dl_timer.o(.text.DL_Timer_setCaptureCompareOutCtl)
    __arm_cp.27_0                            0x00000f68   Number         4  dl_timer.o(.text.DL_Timer_setCaptureCompareOutCtl)
    [Anonymous Symbol]                       0x00000f6c   Section        0  dl_timer.o(.text.DL_Timer_setCaptureCompareValue)
    __arm_cp.3_0                             0x00000f78   Number         4  dl_timer.o(.text.DL_Timer_setCaptureCompareValue)
    [Anonymous Symbol]                       0x00000f7c   Section        0  dl_timer.o(.text.DL_Timer_setClockConfig)
    __arm_cp.0_0                             0x00000f94   Number         4  dl_timer.o(.text.DL_Timer_setClockConfig)
    DL_Timer_setCounterControl               0x00000f99   Thumb Code    52  ti_msp_dl_config.o(.text.DL_Timer_setCounterControl)
    [Anonymous Symbol]                       0x00000f98   Section        0  ti_msp_dl_config.o(.text.DL_Timer_setCounterControl)
    __arm_cp.36_0                            0x00000fcc   Number         4  ti_msp_dl_config.o(.text.DL_Timer_setCounterControl)
    __arm_cp.36_1                            0x00000fd0   Number         4  ti_msp_dl_config.o(.text.DL_Timer_setCounterControl)
    DL_UART_enable                           0x00000fd5   Thumb Code    22  ti_msp_dl_config.o(.text.DL_UART_enable)
    [Anonymous Symbol]                       0x00000fd4   Section        0  ti_msp_dl_config.o(.text.DL_UART_enable)
    DL_UART_enableInterrupt                  0x00000fed   Thumb Code    24  ti_msp_dl_config.o(.text.DL_UART_enableInterrupt)
    [Anonymous Symbol]                       0x00000fec   Section        0  ti_msp_dl_config.o(.text.DL_UART_enableInterrupt)
    __arm_cp.42_0                            0x00001004   Number         4  ti_msp_dl_config.o(.text.DL_UART_enableInterrupt)
    DL_UART_enablePower                      0x00001009   Thumb Code    20  ti_msp_dl_config.o(.text.DL_UART_enablePower)
    [Anonymous Symbol]                       0x00001008   Section        0  ti_msp_dl_config.o(.text.DL_UART_enablePower)
    __arm_cp.16_0                            0x0000101c   Number         4  ti_msp_dl_config.o(.text.DL_UART_enablePower)
    DL_UART_getPendingInterrupt              0x00001021   Thumb Code    18  mid_debug_uart.o(.text.DL_UART_getPendingInterrupt)
    [Anonymous Symbol]                       0x00001020   Section        0  mid_debug_uart.o(.text.DL_UART_getPendingInterrupt)
    [Anonymous Symbol]                       0x00001034   Section        0  dl_uart.o(.text.DL_UART_init)
    __arm_cp.0_0                             0x00001074   Number         4  dl_uart.o(.text.DL_UART_init)
    __arm_cp.0_1                             0x00001078   Number         4  dl_uart.o(.text.DL_UART_init)
    DL_UART_receiveData                      0x0000107d   Thumb Code    16  mid_debug_uart.o(.text.DL_UART_receiveData)
    [Anonymous Symbol]                       0x0000107c   Section        0  mid_debug_uart.o(.text.DL_UART_receiveData)
    __arm_cp.11_0                            0x0000108c   Number         4  mid_debug_uart.o(.text.DL_UART_receiveData)
    DL_UART_reset                            0x00001091   Thumb Code    16  ti_msp_dl_config.o(.text.DL_UART_reset)
    [Anonymous Symbol]                       0x00001090   Section        0  ti_msp_dl_config.o(.text.DL_UART_reset)
    __arm_cp.12_0                            0x000010a0   Number         4  ti_msp_dl_config.o(.text.DL_UART_reset)
    __arm_cp.12_1                            0x000010a4   Number         4  ti_msp_dl_config.o(.text.DL_UART_reset)
    DL_UART_setBaudRateDivisor               0x000010a9   Thumb Code    60  ti_msp_dl_config.o(.text.DL_UART_setBaudRateDivisor)
    [Anonymous Symbol]                       0x000010a8   Section        0  ti_msp_dl_config.o(.text.DL_UART_setBaudRateDivisor)
    __arm_cp.41_0                            0x000010e4   Number         4  ti_msp_dl_config.o(.text.DL_UART_setBaudRateDivisor)
    __arm_cp.41_1                            0x000010e8   Number         4  ti_msp_dl_config.o(.text.DL_UART_setBaudRateDivisor)
    __arm_cp.41_2                            0x000010ec   Number         4  ti_msp_dl_config.o(.text.DL_UART_setBaudRateDivisor)
    __arm_cp.41_3                            0x000010f0   Number         4  ti_msp_dl_config.o(.text.DL_UART_setBaudRateDivisor)
    [Anonymous Symbol]                       0x000010f4   Section        0  dl_uart.o(.text.DL_UART_setClockConfig)
    DL_UART_setOversampling                  0x00001107   Thumb Code    30  ti_msp_dl_config.o(.text.DL_UART_setOversampling)
    [Anonymous Symbol]                       0x00001106   Section        0  ti_msp_dl_config.o(.text.DL_UART_setOversampling)
    [Anonymous Symbol]                       0x00001124   Section        0  hw_lcd.o(.text.Drawarc)
    [Anonymous Symbol]                       0x00001278   Section        0  hw_encoder.o(.text.GROUP1_IRQHandler)
    __arm_cp.6_0                             0x00001314   Number         4  hw_encoder.o(.text.GROUP1_IRQHandler)
    __arm_cp.6_1                             0x00001318   Number         4  hw_encoder.o(.text.GROUP1_IRQHandler)
    [Anonymous Symbol]                       0x0000131c   Section        0  hw_lcd.o(.text.LCD_Address_Set)
    [Anonymous Symbol]                       0x0000135a   Section        0  hw_lcd.o(.text.LCD_ArcRect)
    [Anonymous Symbol]                       0x000014a4   Section        0  hw_lcd.o(.text.LCD_DrawLine)
    [Anonymous Symbol]                       0x000015b0   Section        0  hw_lcd.o(.text.LCD_DrawPoint)
    [Anonymous Symbol]                       0x000015d0   Section        0  hw_lcd.o(.text.LCD_Fill)
    [Anonymous Symbol]                       0x0000162c   Section        0  hw_lcd.o(.text.LCD_ShowChar)
    __arm_cp.24_0                            0x000017f8   Number         4  hw_lcd.o(.text.LCD_ShowChar)
    __arm_cp.24_1                            0x000017fc   Number         4  hw_lcd.o(.text.LCD_ShowChar)
    __arm_cp.24_2                            0x00001800   Number         4  hw_lcd.o(.text.LCD_ShowChar)
    __arm_cp.24_3                            0x00001804   Number         4  hw_lcd.o(.text.LCD_ShowChar)
    [Anonymous Symbol]                       0x00001808   Section        0  hw_lcd.o(.text.LCD_ShowChinese)
    [Anonymous Symbol]                       0x00001930   Section        0  hw_lcd.o(.text.LCD_ShowChinese12x12)
    __arm_cp.20_0                            0x00001ac8   Number         4  hw_lcd.o(.text.LCD_ShowChinese12x12)
    [Anonymous Symbol]                       0x00001acc   Section        0  hw_lcd.o(.text.LCD_ShowChinese16x16)
    __arm_cp.21_0                            0x00001c64   Number         4  hw_lcd.o(.text.LCD_ShowChinese16x16)
    [Anonymous Symbol]                       0x00001c68   Section        0  hw_lcd.o(.text.LCD_ShowChinese24x24)
    __arm_cp.22_0                            0x00001e00   Number         4  hw_lcd.o(.text.LCD_ShowChinese24x24)
    [Anonymous Symbol]                       0x00001e04   Section        0  hw_lcd.o(.text.LCD_ShowChinese32x32)
    __arm_cp.23_0                            0x00001f9c   Number         4  hw_lcd.o(.text.LCD_ShowChinese32x32)
    [Anonymous Symbol]                       0x00001fa0   Section        0  hw_lcd.o(.text.LCD_WR_DATA)
    [Anonymous Symbol]                       0x00001fbc   Section        0  hw_lcd.o(.text.LCD_WR_DATA8)
    [Anonymous Symbol]                       0x00001fd0   Section        0  hw_lcd.o(.text.LCD_WR_REG)
    [Anonymous Symbol]                       0x00001ffc   Section        0  hw_lcd.o(.text.LCD_Writ_Bus)
    [Anonymous Symbol]                       0x00002028   Section        0  ti_msp_dl_config.o(.text.SYSCFG_DL_GPIO_init)
    __arm_cp.2_2                             0x0000213c   Number         4  ti_msp_dl_config.o(.text.SYSCFG_DL_GPIO_init)
    [Anonymous Symbol]                       0x00002140   Section        0  ti_msp_dl_config.o(.text.SYSCFG_DL_PWM_MOTOR_init)
    __arm_cp.4_0                             0x000021c0   Number         4  ti_msp_dl_config.o(.text.SYSCFG_DL_PWM_MOTOR_init)
    __arm_cp.4_2                             0x000021c4   Number         4  ti_msp_dl_config.o(.text.SYSCFG_DL_PWM_MOTOR_init)
    __arm_cp.4_3                             0x000021c8   Number         4  ti_msp_dl_config.o(.text.SYSCFG_DL_PWM_MOTOR_init)
    [Anonymous Symbol]                       0x000021cc   Section        0  ti_msp_dl_config.o(.text.SYSCFG_DL_SPI_LCD_init)
    __arm_cp.7_0                             0x00002200   Number         4  ti_msp_dl_config.o(.text.SYSCFG_DL_SPI_LCD_init)
    __arm_cp.7_2                             0x00002204   Number         4  ti_msp_dl_config.o(.text.SYSCFG_DL_SPI_LCD_init)
    [Anonymous Symbol]                       0x00002208   Section        0  ti_msp_dl_config.o(.text.SYSCFG_DL_SYSCTL_init)
    __arm_cp.3_0                             0x00002258   Number         4  ti_msp_dl_config.o(.text.SYSCFG_DL_SYSCTL_init)
    [Anonymous Symbol]                       0x0000225c   Section        0  ti_msp_dl_config.o(.text.SYSCFG_DL_TIMER_TICK_init)
    __arm_cp.5_0                             0x0000228c   Number         4  ti_msp_dl_config.o(.text.SYSCFG_DL_TIMER_TICK_init)
    __arm_cp.5_2                             0x00002290   Number         4  ti_msp_dl_config.o(.text.SYSCFG_DL_TIMER_TICK_init)
    [Anonymous Symbol]                       0x00002294   Section        0  ti_msp_dl_config.o(.text.SYSCFG_DL_UART_DEBUG_init)
    __arm_cp.6_0                             0x000022dc   Number         4  ti_msp_dl_config.o(.text.SYSCFG_DL_UART_DEBUG_init)
    __arm_cp.6_2                             0x000022e0   Number         4  ti_msp_dl_config.o(.text.SYSCFG_DL_UART_DEBUG_init)
    [Anonymous Symbol]                       0x000022e4   Section        0  ti_msp_dl_config.o(.text.SYSCFG_DL_init)
    __arm_cp.0_0                             0x00002318   Number         4  ti_msp_dl_config.o(.text.SYSCFG_DL_init)
    __arm_cp.0_1                             0x0000231c   Number         4  ti_msp_dl_config.o(.text.SYSCFG_DL_init)
    __arm_cp.0_2                             0x00002320   Number         4  ti_msp_dl_config.o(.text.SYSCFG_DL_init)
    [Anonymous Symbol]                       0x00002324   Section        0  ti_msp_dl_config.o(.text.SYSCFG_DL_initPower)
    __arm_cp.1_0                             0x00002388   Number         4  ti_msp_dl_config.o(.text.SYSCFG_DL_initPower)
    __arm_cp.1_1                             0x0000238c   Number         4  ti_msp_dl_config.o(.text.SYSCFG_DL_initPower)
    __arm_cp.1_2                             0x00002390   Number         4  ti_msp_dl_config.o(.text.SYSCFG_DL_initPower)
    __arm_cp.1_5                             0x00002394   Number         4  ti_msp_dl_config.o(.text.SYSCFG_DL_initPower)
    [Anonymous Symbol]                       0x00002398   Section        0  mid_timer.o(.text.TIMA0_IRQHandler)
    __arm_cp.3_0                             0x000023b4   Number         4  mid_timer.o(.text.TIMA0_IRQHandler)
    [Anonymous Symbol]                       0x000023b8   Section        0  mid_debug_uart.o(.text.UART0_IRQHandler)
    __arm_cp.9_0                             0x000023e0   Number         4  mid_debug_uart.o(.text.UART0_IRQHandler)
    __NVIC_ClearPendingIRQ                   0x000023e5   Thumb Code    40  hw_encoder.o(.text.__NVIC_ClearPendingIRQ)
    [Anonymous Symbol]                       0x000023e4   Section        0  hw_encoder.o(.text.__NVIC_ClearPendingIRQ)
    __NVIC_ClearPendingIRQ                   0x0000240d   Thumb Code    40  mid_debug_uart.o(.text.__NVIC_ClearPendingIRQ)
    [Anonymous Symbol]                       0x0000240c   Section        0  mid_debug_uart.o(.text.__NVIC_ClearPendingIRQ)
    __NVIC_ClearPendingIRQ                   0x00002435   Thumb Code    40  mid_timer.o(.text.__NVIC_ClearPendingIRQ)
    [Anonymous Symbol]                       0x00002434   Section        0  mid_timer.o(.text.__NVIC_ClearPendingIRQ)
    __arm_cp.1_0                             0x0000245c   Number         4  mid_timer.o(.text.__NVIC_ClearPendingIRQ)
    __NVIC_EnableIRQ                         0x00002461   Thumb Code    40  hw_encoder.o(.text.__NVIC_EnableIRQ)
    [Anonymous Symbol]                       0x00002460   Section        0  hw_encoder.o(.text.__NVIC_EnableIRQ)
    __NVIC_EnableIRQ                         0x00002489   Thumb Code    40  mid_debug_uart.o(.text.__NVIC_EnableIRQ)
    [Anonymous Symbol]                       0x00002488   Section        0  mid_debug_uart.o(.text.__NVIC_EnableIRQ)
    __NVIC_EnableIRQ                         0x000024b1   Thumb Code    40  mid_timer.o(.text.__NVIC_EnableIRQ)
    [Anonymous Symbol]                       0x000024b0   Section        0  mid_timer.o(.text.__NVIC_EnableIRQ)
    __arm_cp.2_0                             0x000024d8   Number         4  mid_timer.o(.text.__NVIC_EnableIRQ)
    __NVIC_SetPriority                       0x000024dd   Thumb Code   124  ti_msp_dl_config.o(.text.__NVIC_SetPriority)
    [Anonymous Symbol]                       0x000024dc   Section        0  ti_msp_dl_config.o(.text.__NVIC_SetPriority)
    __arm_cp.35_0                            0x00002558   Number         4  ti_msp_dl_config.o(.text.__NVIC_SetPriority)
    __arm_cp.35_1                            0x0000255c   Number         4  ti_msp_dl_config.o(.text.__NVIC_SetPriority)
    [Anonymous Symbol]                       0x00002560   Section        0  app_key_task.o(.text.btn_down_cb)
    [Anonymous Symbol]                       0x00002590   Section        0  app_key_task.o(.text.btn_left_cb)
    [Anonymous Symbol]                       0x000025c4   Section        0  app_key_task.o(.text.btn_right_cb)
    __arm_cp.4_0                             0x00002624   Number         4  app_key_task.o(.text.btn_right_cb)
    __arm_cp.4_1                             0x00002628   Number         4  app_key_task.o(.text.btn_right_cb)
    [Anonymous Symbol]                       0x0000262c   Section        0  app_key_task.o(.text.btn_up_cb)
    button_down_read                         0x0000265d   Thumb Code    22  mid_button.o(.text.button_down_read)
    [Anonymous Symbol]                       0x0000265c   Section        0  mid_button.o(.text.button_down_read)
    button_left_read                         0x00002673   Thumb Code    22  mid_button.o(.text.button_left_read)
    [Anonymous Symbol]                       0x00002672   Section        0  mid_button.o(.text.button_left_read)
    button_right_read                        0x00002689   Thumb Code    22  mid_button.o(.text.button_right_read)
    [Anonymous Symbol]                       0x00002688   Section        0  mid_button.o(.text.button_right_read)
    button_up_read                           0x0000269f   Thumb Code    22  mid_button.o(.text.button_up_read)
    [Anonymous Symbol]                       0x0000269e   Section        0  mid_button.o(.text.button_up_read)
    [Anonymous Symbol]                       0x000026b4   Section        0  mid_debug_uart.o(.text.debug_uart_init)
    debug_uart_receive_limit_length          0x000026cd   Thumb Code    40  mid_debug_uart.o(.text.debug_uart_receive_limit_length)
    [Anonymous Symbol]                       0x000026cc   Section        0  mid_debug_uart.o(.text.debug_uart_receive_limit_length)
    __arm_cp.12_0                            0x000026f4   Number         4  mid_debug_uart.o(.text.debug_uart_receive_limit_length)
    [Anonymous Symbol]                       0x000026f8   Section        0  empty.o(.text.disp_string_rect)
    [Anonymous Symbol]                       0x00002780   Section        0  empty.o(.text.disp_x_center)
    __arm_cp.3_0                             0x000027e0   Number         4  empty.o(.text.disp_x_center)
    [Anonymous Symbol]                       0x000027e4   Section        0  hw_encoder.o(.text.encoder_init)
    [Anonymous Symbol]                       0x000027fc   Section        0  hw_encoder.o(.text.encoder_update)
    __arm_cp.5_0                             0x00002814   Number         4  hw_encoder.o(.text.encoder_update)
    flex_button_process                      0x00002819   Thumb Code  1016  mid_button.o(.text.flex_button_process)
    [Anonymous Symbol]                       0x00002818   Section        0  mid_button.o(.text.flex_button_process)
    __arm_cp.9_0                             0x00002c10   Number         4  mid_button.o(.text.flex_button_process)
    __arm_cp.9_1                             0x00002c14   Number         4  mid_button.o(.text.flex_button_process)
    __arm_cp.9_2                             0x00002c18   Number         4  mid_button.o(.text.flex_button_process)
    flex_button_read                         0x00002c1d   Thumb Code   188  mid_button.o(.text.flex_button_read)
    [Anonymous Symbol]                       0x00002c1c   Section        0  mid_button.o(.text.flex_button_read)
    __arm_cp.8_1                             0x00002cd8   Number         4  mid_button.o(.text.flex_button_read)
    __arm_cp.8_3                             0x00002cdc   Number         4  mid_button.o(.text.flex_button_read)
    __arm_cp.8_4                             0x00002ce0   Number         4  mid_button.o(.text.flex_button_read)
    [Anonymous Symbol]                       0x00002ce4   Section        0  mid_button.o(.text.flex_button_register)
    __arm_cp.5_0                             0x00002d7c   Number         4  mid_button.o(.text.flex_button_register)
    __arm_cp.5_1                             0x00002d80   Number         4  mid_button.o(.text.flex_button_register)
    __arm_cp.5_2                             0x00002d84   Number         4  mid_button.o(.text.flex_button_register)
    [Anonymous Symbol]                       0x00002d88   Section        0  mid_button.o(.text.flex_button_scan)
    [Anonymous Symbol]                       0x00002d94   Section        0  app_key_task.o(.text.get_app_key_current_mode)
    [Anonymous Symbol]                       0x00002d9c   Section        0  hw_encoder.o(.text.get_encoder_count)
    [Anonymous Symbol]                       0x00002da4   Section        0  hw_encoder.o(.text.get_encoder_dir)
    __arm_cp.4_0                             0x00002dac   Number         4  hw_encoder.o(.text.get_encoder_dir)
    [Anonymous Symbol]                       0x00002db0   Section        0  hw_key.o(.text.key_scan)
    __arm_cp.0_0                             0x00002e38   Number         4  hw_key.o(.text.key_scan)
    [Anonymous Symbol]                       0x00002e3c   Section        0  hw_lcd.o(.text.lcd_init)
    __arm_cp.10_0                            0x00002ffc   Number         4  hw_lcd.o(.text.lcd_init)
    __arm_cp.10_1                            0x00003000   Number         4  hw_lcd.o(.text.lcd_init)
    __arm_cp.10_2                            0x00003004   Number         4  hw_lcd.o(.text.lcd_init)
    __arm_cp.10_3                            0x00003008   Number         4  hw_lcd.o(.text.lcd_init)
    [Anonymous Symbol]                       0x0000300c   Section        0  empty.o(.text.main)
    __arm_cp.0_0                             0x00003060   Number         4  empty.o(.text.main)
    __arm_cp.0_1                             0x00003064   Number         4  empty.o(.text.main)
    __arm_cp.0_2                             0x00003068   Number         4  empty.o(.text.main)
    __arm_cp.0_3                             0x0000306c   Number         4  empty.o(.text.main)
    restrict_pwm_max_value                   0x00003071   Thumb Code    28  hw_motor.o(.text.restrict_pwm_max_value)
    [Anonymous Symbol]                       0x00003070   Section        0  hw_motor.o(.text.restrict_pwm_max_value)
    __arm_cp.1_0                             0x0000308c   Number         4  hw_motor.o(.text.restrict_pwm_max_value)
    __arm_cp.1_1                             0x00003090   Number         4  hw_motor.o(.text.restrict_pwm_max_value)
    [Anonymous Symbol]                       0x00003094   Section        0  app_key_task.o(.text.set_app_key_current_mode)
    __arm_cp.0_0                             0x000030a4   Number         4  app_key_task.o(.text.set_app_key_current_mode)
    set_bi                                   0x000030a9   Thumb Code    24  hw_motor.o(.text.set_bi)
    [Anonymous Symbol]                       0x000030a8   Section        0  hw_motor.o(.text.set_bi)
    set_fi                                   0x000030c1   Thumb Code    24  hw_motor.o(.text.set_fi)
    [Anonymous Symbol]                       0x000030c0   Section        0  hw_motor.o(.text.set_fi)
    __arm_cp.2_0                             0x000030d8   Number         4  hw_motor.o(.text.set_fi)
    [Anonymous Symbol]                       0x000030dc   Section        0  hw_motor.o(.text.set_motor)
    [Anonymous Symbol]                       0x0000310c   Section        0  hw_lcd.o(.text.spi_write_bus)
    __arm_cp.0_0                             0x00003134   Number         4  hw_lcd.o(.text.spi_write_bus)
    [Anonymous Symbol]                       0x00003138   Section        0  hw_motor.o(.text.stop_motor)
    [Anonymous Symbol]                       0x00003144   Section        0  mid_timer.o(.text.timer_init)
    [Anonymous Symbol]                       0x0000315c   Section        0  empty.o(.text.ui_encoder_value_update)
    __arm_cp.2_0                             0x0000325c   Number         4  empty.o(.text.ui_encoder_value_update)
    __arm_cp.2_1                             0x00003260   Number         4  empty.o(.text.ui_encoder_value_update)
    __arm_cp.2_2                             0x00003264   Number         4  empty.o(.text.ui_encoder_value_update)
    __arm_cp.2_3                             0x00003268   Number         4  empty.o(.text.ui_encoder_value_update)
    __arm_cp.2_4                             0x0000326c   Number         4  empty.o(.text.ui_encoder_value_update)
    __arm_cp.2_5                             0x00003270   Number         4  empty.o(.text.ui_encoder_value_update)
    [Anonymous Symbol]                       0x00003274   Section        0  empty.o(.text.ui_home_page)
    __arm_cp.1_0                             0x0000331c   Number         4  empty.o(.text.ui_home_page)
    __arm_cp.1_1                             0x00003320   Number         4  empty.o(.text.ui_home_page)
    __arm_cp.1_2                             0x00003324   Number         4  empty.o(.text.ui_home_page)
    __arm_cp.1_3                             0x00003328   Number         4  empty.o(.text.ui_home_page)
    __arm_cp.1_4                             0x0000332c   Number         4  empty.o(.text.ui_home_page)
    [Anonymous Symbol]                       0x00003330   Section        0  mid_button.o(.text.user_button_init)
    __arm_cp.0_0                             0x000033c8   Number         4  mid_button.o(.text.user_button_init)
    __arm_cp.0_1                             0x000033cc   Number         4  mid_button.o(.text.user_button_init)
    __arm_cp.0_2                             0x000033d0   Number         4  mid_button.o(.text.user_button_init)
    __arm_cp.0_3                             0x000033d4   Number         4  mid_button.o(.text.user_button_init)
    __arm_cp.0_4                             0x000033d8   Number         4  mid_button.o(.text.user_button_init)
    __arm_cp.0_5                             0x000033dc   Number         4  mid_button.o(.text.user_button_init)
    __arm_cp.0_6                             0x000033e0   Number         4  mid_button.o(.text.user_button_init)
    __arm_cp.0_7                             0x000033e4   Number         4  mid_button.o(.text.user_button_init)
    __arm_cp.0_8                             0x000033e8   Number         4  mid_button.o(.text.user_button_init)
    i.__0sprintf                             0x000033ec   Section        0  printfa.o(i.__0sprintf)
    i.__ARM_clz                              0x00003414   Section        0  depilogue.o(i.__ARM_clz)
    i.__scatterload_copy                     0x00003448   Section       14  handlers.o(i.__scatterload_copy)
    i.__scatterload_null                     0x00003458   Section        2  handlers.o(i.__scatterload_null)
    i.__scatterload_zeroinit                 0x00003460   Section       14  handlers.o(i.__scatterload_zeroinit)
    i.__set_errno                            0x00003470   Section        0  errno.o(i.__set_errno)
    _fp_digits                               0x0000347d   Thumb Code   344  printfa.o(i._fp_digits)
    i._fp_digits                             0x0000347c   Section        0  printfa.o(i._fp_digits)
    _printf_core                             0x000035f1   Thumb Code  1754  printfa.o(i._printf_core)
    i._printf_core                           0x000035f0   Section        0  printfa.o(i._printf_core)
    _printf_post_padding                     0x00003cdd   Thumb Code    32  printfa.o(i._printf_post_padding)
    i._printf_post_padding                   0x00003cdc   Section        0  printfa.o(i._printf_post_padding)
    _printf_pre_padding                      0x00003cfd   Thumb Code    44  printfa.o(i._printf_pre_padding)
    i._printf_pre_padding                    0x00003cfc   Section        0  printfa.o(i._printf_pre_padding)
    _sputc                                   0x00003d29   Thumb Code    10  printfa.o(i._sputc)
    i._sputc                                 0x00003d28   Section        0  printfa.o(i._sputc)
    i.sqrt                                   0x00003d34   Section        0  sqrt.o(i.sqrt)
    gPWM_MOTORClockConfig                    0x00007170   Data           3  ti_msp_dl_config.o(.rodata.gPWM_MOTORClockConfig)
    [Anonymous Symbol]                       0x00007170   Section        0  ti_msp_dl_config.o(.rodata.gPWM_MOTORClockConfig)
    gPWM_MOTORConfig                         0x00007174   Data           8  ti_msp_dl_config.o(.rodata.gPWM_MOTORConfig)
    [Anonymous Symbol]                       0x00007174   Section        0  ti_msp_dl_config.o(.rodata.gPWM_MOTORConfig)
    gSPI_LCD_clockConfig                     0x0000717c   Data           2  ti_msp_dl_config.o(.rodata.gSPI_LCD_clockConfig)
    [Anonymous Symbol]                       0x0000717c   Section        0  ti_msp_dl_config.o(.rodata.gSPI_LCD_clockConfig)
    gSPI_LCD_config                          0x0000717e   Data          10  ti_msp_dl_config.o(.rodata.gSPI_LCD_config)
    [Anonymous Symbol]                       0x0000717e   Section        0  ti_msp_dl_config.o(.rodata.gSPI_LCD_config)
    gSYSPLLConfig                            0x00007188   Data          40  ti_msp_dl_config.o(.rodata.gSYSPLLConfig)
    [Anonymous Symbol]                       0x00007188   Section        0  ti_msp_dl_config.o(.rodata.gSYSPLLConfig)
    gTIMER_TICKClockConfig                   0x000071b0   Data           3  ti_msp_dl_config.o(.rodata.gTIMER_TICKClockConfig)
    [Anonymous Symbol]                       0x000071b0   Section        0  ti_msp_dl_config.o(.rodata.gTIMER_TICKClockConfig)
    gTIMER_TICKTimerConfig                   0x000071b4   Data          20  ti_msp_dl_config.o(.rodata.gTIMER_TICKTimerConfig)
    [Anonymous Symbol]                       0x000071b4   Section        0  ti_msp_dl_config.o(.rodata.gTIMER_TICKTimerConfig)
    gUART_DEBUGClockConfig                   0x000071c8   Data           2  ti_msp_dl_config.o(.rodata.gUART_DEBUGClockConfig)
    [Anonymous Symbol]                       0x000071c8   Section        0  ti_msp_dl_config.o(.rodata.gUART_DEBUGClockConfig)
    gUART_DEBUGConfig                        0x000071ca   Data          10  ti_msp_dl_config.o(.rodata.gUART_DEBUGConfig)
    [Anonymous Symbol]                       0x000071ca   Section        0  ti_msp_dl_config.o(.rodata.gUART_DEBUGConfig)
    [Anonymous Symbol]                       0x000071d4   Section        0  empty.o(.rodata.str1.1)
    _errno                                   0x20200000   Data           4  errno.o(.data)
    .data                                    0x20200000   Section        4  errno.o(.data)
    key_rst_data                             0x20200004   Data           2  mid_button.o(.data.key_rst_data)
    [Anonymous Symbol]                       0x20200004   Section        0  mid_button.o(.data.key_rst_data)
    keydata                                  0x20200006   Data           2  mid_button.o(.data.keydata)
    [Anonymous Symbol]                       0x20200006   Section        0  mid_button.o(.data.keydata)
    ui_encoder_value_update.last_encoder_count 0x20200008   Data           4  empty.o(.data.ui_encoder_value_update.last_encoder_count)
    [Anonymous Symbol]                       0x20200008   Section        0  empty.o(.data.ui_encoder_value_update.last_encoder_count)
    ui_encoder_value_update.last_encoder_dir 0x2020000c   Data           4  empty.o(.data.ui_encoder_value_update.last_encoder_dir)
    [Anonymous Symbol]                       0x2020000c   Section        0  empty.o(.data.ui_encoder_value_update.last_encoder_dir)
    btn_head                                 0x20200010   Data           4  mid_button.o(.bss.btn_head)
    [Anonymous Symbol]                       0x20200010   Section        0  mid_button.o(.bss.btn_head)
    btn_right_cb.motor_status                0x20200014   Data           4  app_key_task.o(.bss.btn_right_cb.motor_status)
    [Anonymous Symbol]                       0x20200014   Section        0  app_key_task.o(.bss.btn_right_cb.motor_status)
    button_cnt                               0x20200018   Data           1  mid_button.o(.bss.button_cnt)
    [Anonymous Symbol]                       0x20200018   Section        0  mid_button.o(.bss.button_cnt)
    cont                                     0x2020001a   Data           2  mid_button.o(.bss.cont)
    [Anonymous Symbol]                       0x2020001a   Section        0  mid_button.o(.bss.cont)
    current_mode                             0x2020001c   Data           1  app_key_task.o(.bss.current_mode)
    [Anonymous Symbol]                       0x2020001c   Section        0  app_key_task.o(.bss.current_mode)
    motor_encoder                            0x20200228   Data          16  hw_encoder.o(.bss.motor_encoder)
    [Anonymous Symbol]                       0x20200228   Section        0  hw_encoder.o(.bss.motor_encoder)
    trg                                      0x20200238   Data           2  mid_button.o(.bss.trg)
    [Anonymous Symbol]                       0x20200238   Section        0  mid_button.o(.bss.trg)
    user_button                              0x2020023c   Data         112  mid_button.o(.bss.user_button)
    [Anonymous Symbol]                       0x2020023c   Section        0  mid_button.o(.bss.user_button)
    STACK                                    0x202002b0   Section     1024  startup_mspm0g350x_uvision.o(STACK)

    Global Symbols

    Symbol Name                              Value     Ov Type        Size  Object(Section)

    BuildAttributes$$THM_ISAv3M$S$PE$A:L22$X:L11$S22$IEEE1$IW$~IW$USESV6$~STKCKD$USESV7$~SHL$OTIME$ROPI$IEEEJ$EBA8$MICROLIB$REQ8$PRES8$EABIv2 0x00000000   Number         0  anon$$obj.o ABSOLUTE
    __Vectors                                0x00000000   Data           4  startup_mspm0g350x_uvision.o(RESET)
    __cpp_initialize__aeabi_                  - Undefined Weak Reference
    __cxa_finalize                            - Undefined Weak Reference
    __decompress                              - Undefined Weak Reference
    _clock_init                               - Undefined Weak Reference
    _microlib_exit                            - Undefined Weak Reference
    __Vectors_End                            0x000000c0   Data           0  startup_mspm0g350x_uvision.o(RESET)
    __Vectors_Size                           0x000000c0   Number         0  startup_mspm0g350x_uvision.o ABSOLUTE
    __main                                   0x000000c1   Thumb Code     0  entry.o(.ARM.Collect$$$$00000000)
    _main_stk                                0x000000c1   Thumb Code     0  entry2.o(.ARM.Collect$$$$00000001)
    _main_scatterload                        0x000000c5   Thumb Code     0  entry5.o(.ARM.Collect$$$$00000004)
    __main_after_scatterload                 0x000000c9   Thumb Code     0  entry5.o(.ARM.Collect$$$$00000004)
    _main_clock                              0x000000c9   Thumb Code     0  entry7b.o(.ARM.Collect$$$$00000008)
    _main_cpp_init                           0x000000c9   Thumb Code     0  entry8b.o(.ARM.Collect$$$$0000000A)
    _main_init                               0x000000c9   Thumb Code     0  entry9a.o(.ARM.Collect$$$$0000000B)
    __rt_final_cpp                           0x000000d1   Thumb Code     0  entry10a.o(.ARM.Collect$$$$0000000D)
    __rt_final_exit                          0x000000d1   Thumb Code     0  entry11a.o(.ARM.Collect$$$$0000000F)
    Reset_Handler                            0x000000d5   Thumb Code     4  startup_mspm0g350x_uvision.o(.text)
    NMI_Handler                              0x000000d9   Thumb Code     2  startup_mspm0g350x_uvision.o(.text)
    HardFault_Handler                        0x000000db   Thumb Code     2  startup_mspm0g350x_uvision.o(.text)
    SVC_Handler                              0x000000dd   Thumb Code     2  startup_mspm0g350x_uvision.o(.text)
    PendSV_Handler                           0x000000df   Thumb Code     2  startup_mspm0g350x_uvision.o(.text)
    SysTick_Handler                          0x000000e1   Thumb Code     2  startup_mspm0g350x_uvision.o(.text)
    ADC0_IRQHandler                          0x000000e3   Thumb Code     0  startup_mspm0g350x_uvision.o(.text)
    ADC1_IRQHandler                          0x000000e3   Thumb Code     0  startup_mspm0g350x_uvision.o(.text)
    AES_IRQHandler                           0x000000e3   Thumb Code     0  startup_mspm0g350x_uvision.o(.text)
    CANFD0_IRQHandler                        0x000000e3   Thumb Code     0  startup_mspm0g350x_uvision.o(.text)
    DAC0_IRQHandler                          0x000000e3   Thumb Code     0  startup_mspm0g350x_uvision.o(.text)
    DMA_IRQHandler                           0x000000e3   Thumb Code     0  startup_mspm0g350x_uvision.o(.text)
    Default_Handler                          0x000000e3   Thumb Code     2  startup_mspm0g350x_uvision.o(.text)
    GROUP0_IRQHandler                        0x000000e3   Thumb Code     0  startup_mspm0g350x_uvision.o(.text)
    I2C0_IRQHandler                          0x000000e3   Thumb Code     0  startup_mspm0g350x_uvision.o(.text)
    I2C1_IRQHandler                          0x000000e3   Thumb Code     0  startup_mspm0g350x_uvision.o(.text)
    RTC_IRQHandler                           0x000000e3   Thumb Code     0  startup_mspm0g350x_uvision.o(.text)
    SPI0_IRQHandler                          0x000000e3   Thumb Code     0  startup_mspm0g350x_uvision.o(.text)
    SPI1_IRQHandler                          0x000000e3   Thumb Code     0  startup_mspm0g350x_uvision.o(.text)
    TIMA1_IRQHandler                         0x000000e3   Thumb Code     0  startup_mspm0g350x_uvision.o(.text)
    TIMG0_IRQHandler                         0x000000e3   Thumb Code     0  startup_mspm0g350x_uvision.o(.text)
    TIMG12_IRQHandler                        0x000000e3   Thumb Code     0  startup_mspm0g350x_uvision.o(.text)
    TIMG6_IRQHandler                         0x000000e3   Thumb Code     0  startup_mspm0g350x_uvision.o(.text)
    TIMG7_IRQHandler                         0x000000e3   Thumb Code     0  startup_mspm0g350x_uvision.o(.text)
    TIMG8_IRQHandler                         0x000000e3   Thumb Code     0  startup_mspm0g350x_uvision.o(.text)
    UART1_IRQHandler                         0x000000e3   Thumb Code     0  startup_mspm0g350x_uvision.o(.text)
    UART2_IRQHandler                         0x000000e3   Thumb Code     0  startup_mspm0g350x_uvision.o(.text)
    UART3_IRQHandler                         0x000000e3   Thumb Code     0  startup_mspm0g350x_uvision.o(.text)
    __aeabi_memset                           0x000000e9   Thumb Code    14  memseta.o(.text)
    __aeabi_memset4                          0x000000e9   Thumb Code     0  memseta.o(.text)
    __aeabi_memset8                          0x000000e9   Thumb Code     0  memseta.o(.text)
    __aeabi_memclr                           0x000000f7   Thumb Code     4  memseta.o(.text)
    __aeabi_memclr4                          0x000000f7   Thumb Code     0  memseta.o(.text)
    __aeabi_memclr8                          0x000000f7   Thumb Code     0  memseta.o(.text)
    _memset$wrapper                          0x000000fb   Thumb Code    18  memseta.o(.text)
    strlen                                   0x0000010d   Thumb Code    14  strlen.o(.text)
    __aeabi_ui2d                             0x0000011d   Thumb Code    24  dfltui.o(.text)
    __aeabi_d2iz                             0x00000139   Thumb Code    62  dfixi.o(.text)
    __aeabi_uidiv                            0x00000181   Thumb Code     0  uidiv_div0.o(.text)
    __aeabi_uidivmod                         0x00000181   Thumb Code    62  uidiv_div0.o(.text)
    __aeabi_uldivmod                         0x000001bf   Thumb Code    96  uldiv.o(.text)
    __aeabi_llsr                             0x0000021f   Thumb Code    34  llushr.o(.text)
    _ll_ushift_r                             0x0000021f   Thumb Code     0  llushr.o(.text)
    __I$use$fp                               0x00000241   Thumb Code     0  iusefp.o(.text)
    _double_round                            0x00000241   Thumb Code    26  depilogue.o(.text)
    _double_epilogue                         0x0000025b   Thumb Code   164  depilogue.o(.text)
    __aeabi_dadd                             0x00000301   Thumb Code   328  dadd.o(.text)
    __aeabi_dsub                             0x00000449   Thumb Code    12  dadd.o(.text)
    __aeabi_drsub                            0x00000455   Thumb Code    12  dadd.o(.text)
    __aeabi_dmul                             0x00000465   Thumb Code   202  dmul.o(.text)
    __aeabi_ddiv                             0x00000535   Thumb Code   234  ddiv.o(.text)
    _dsqrt                                   0x00000625   Thumb Code   162  dsqrt.o(.text)
    __aeabi_d2ulz                            0x000006c9   Thumb Code    54  dfixul.o(.text)
    __aeabi_cdrcmple                         0x00000709   Thumb Code    38  cdrcmple.o(.text)
    __scatterload                            0x00000731   Thumb Code    38  init.o(.text)
    __scatterload_rt2                        0x00000731   Thumb Code     0  init.o(.text)
    __aeabi_llsl                             0x00000761   Thumb Code    32  llshl.o(.text)
    _ll_shift_l                              0x00000761   Thumb Code     0  llshl.o(.text)
    __aeabi_lasr                             0x00000781   Thumb Code    38  llsshr.o(.text)
    _ll_sshift_r                             0x00000781   Thumb Code     0  llsshr.o(.text)
    DL_Common_delayCycles                    0x000007a7   Thumb Code    10  dl_common.o(.text.DL_Common_delayCycles)
    DL_SPI_init                              0x00000a19   Thumb Code    68  dl_spi.o(.text.DL_SPI_init)
    DL_SPI_setClockConfig                    0x00000aad   Thumb Code    18  dl_spi.o(.text.DL_SPI_setClockConfig)
    DL_SYSCTL_configSYSPLL                   0x00000b09   Thumb Code   192  dl_sysctl_mspm0g1x0x_g3x0x.o(.text.DL_SYSCTL_configSYSPLL)
    DL_SYSCTL_setHFCLKSourceHFXTParams       0x00000c1d   Thumb Code    80  dl_sysctl_mspm0g1x0x_g3x0x.o(.text.DL_SYSCTL_setHFCLKSourceHFXTParams)
    DL_SYSCTL_switchMCLKfromSYSOSCtoHSCLK    0x00000ca1   Thumb Code    40  dl_sysctl_mspm0g1x0x_g3x0x.o(.text.DL_SYSCTL_switchMCLKfromSYSOSCtoHSCLK)
    DL_Timer_initFourCCPWMMode               0x00000d21   Thumb Code   264  dl_timer.o(.text.DL_Timer_initFourCCPWMMode)
    DL_Timer_initTimerMode                   0x00000e29   Thumb Code   236  dl_timer.o(.text.DL_Timer_initTimerMode)
    DL_Timer_setCaptCompUpdateMethod         0x00000f39   Thumb Code    28  dl_timer.o(.text.DL_Timer_setCaptCompUpdateMethod)
    DL_Timer_setCaptureCompareOutCtl         0x00000f55   Thumb Code    24  dl_timer.o(.text.DL_Timer_setCaptureCompareOutCtl)
    DL_Timer_setCaptureCompareValue          0x00000f6d   Thumb Code    16  dl_timer.o(.text.DL_Timer_setCaptureCompareValue)
    DL_Timer_setClockConfig                  0x00000f7d   Thumb Code    28  dl_timer.o(.text.DL_Timer_setClockConfig)
    DL_UART_init                             0x00001035   Thumb Code    72  dl_uart.o(.text.DL_UART_init)
    DL_UART_setClockConfig                   0x000010f5   Thumb Code    18  dl_uart.o(.text.DL_UART_setClockConfig)
    Drawarc                                  0x00001125   Thumb Code   338  hw_lcd.o(.text.Drawarc)
    GROUP1_IRQHandler                        0x00001279   Thumb Code   156  hw_encoder.o(.text.GROUP1_IRQHandler)
    LCD_Address_Set                          0x0000131d   Thumb Code    62  hw_lcd.o(.text.LCD_Address_Set)
    LCD_ArcRect                              0x0000135b   Thumb Code   330  hw_lcd.o(.text.LCD_ArcRect)
    LCD_DrawLine                             0x000014a5   Thumb Code   268  hw_lcd.o(.text.LCD_DrawLine)
    LCD_DrawPoint                            0x000015b1   Thumb Code    32  hw_lcd.o(.text.LCD_DrawPoint)
    LCD_Fill                                 0x000015d1   Thumb Code    92  hw_lcd.o(.text.LCD_Fill)
    LCD_ShowChar                             0x0000162d   Thumb Code   460  hw_lcd.o(.text.LCD_ShowChar)
    LCD_ShowChinese                          0x00001809   Thumb Code   296  hw_lcd.o(.text.LCD_ShowChinese)
    LCD_ShowChinese12x12                     0x00001931   Thumb Code   408  hw_lcd.o(.text.LCD_ShowChinese12x12)
    LCD_ShowChinese16x16                     0x00001acd   Thumb Code   408  hw_lcd.o(.text.LCD_ShowChinese16x16)
    LCD_ShowChinese24x24                     0x00001c69   Thumb Code   408  hw_lcd.o(.text.LCD_ShowChinese24x24)
    LCD_ShowChinese32x32                     0x00001e05   Thumb Code   408  hw_lcd.o(.text.LCD_ShowChinese32x32)
    LCD_WR_DATA                              0x00001fa1   Thumb Code    28  hw_lcd.o(.text.LCD_WR_DATA)
    LCD_WR_DATA8                             0x00001fbd   Thumb Code    20  hw_lcd.o(.text.LCD_WR_DATA8)
    LCD_WR_REG                               0x00001fd1   Thumb Code    44  hw_lcd.o(.text.LCD_WR_REG)
    LCD_Writ_Bus                             0x00001ffd   Thumb Code    44  hw_lcd.o(.text.LCD_Writ_Bus)
    SYSCFG_DL_GPIO_init                      0x00002029   Thumb Code   276  ti_msp_dl_config.o(.text.SYSCFG_DL_GPIO_init)
    SYSCFG_DL_PWM_MOTOR_init                 0x00002141   Thumb Code   128  ti_msp_dl_config.o(.text.SYSCFG_DL_PWM_MOTOR_init)
    SYSCFG_DL_SPI_LCD_init                   0x000021cd   Thumb Code    52  ti_msp_dl_config.o(.text.SYSCFG_DL_SPI_LCD_init)
    SYSCFG_DL_SYSCTL_init                    0x00002209   Thumb Code    80  ti_msp_dl_config.o(.text.SYSCFG_DL_SYSCTL_init)
    SYSCFG_DL_TIMER_TICK_init                0x0000225d   Thumb Code    48  ti_msp_dl_config.o(.text.SYSCFG_DL_TIMER_TICK_init)
    SYSCFG_DL_UART_DEBUG_init                0x00002295   Thumb Code    72  ti_msp_dl_config.o(.text.SYSCFG_DL_UART_DEBUG_init)
    SYSCFG_DL_init                           0x000022e5   Thumb Code    52  ti_msp_dl_config.o(.text.SYSCFG_DL_init)
    SYSCFG_DL_initPower                      0x00002325   Thumb Code   100  ti_msp_dl_config.o(.text.SYSCFG_DL_initPower)
    TIMA0_IRQHandler                         0x00002399   Thumb Code    28  mid_timer.o(.text.TIMA0_IRQHandler)
    UART0_IRQHandler                         0x000023b9   Thumb Code    40  mid_debug_uart.o(.text.UART0_IRQHandler)
    btn_down_cb                              0x00002561   Thumb Code    48  app_key_task.o(.text.btn_down_cb)
    btn_left_cb                              0x00002591   Thumb Code    52  app_key_task.o(.text.btn_left_cb)
    btn_right_cb                             0x000025c5   Thumb Code    96  app_key_task.o(.text.btn_right_cb)
    btn_up_cb                                0x0000262d   Thumb Code    48  app_key_task.o(.text.btn_up_cb)
    debug_uart_init                          0x000026b5   Thumb Code    22  mid_debug_uart.o(.text.debug_uart_init)
    disp_string_rect                         0x000026f9   Thumb Code   136  empty.o(.text.disp_string_rect)
    disp_x_center                            0x00002781   Thumb Code    96  empty.o(.text.disp_x_center)
    encoder_init                             0x000027e5   Thumb Code    22  hw_encoder.o(.text.encoder_init)
    encoder_update                           0x000027fd   Thumb Code    24  hw_encoder.o(.text.encoder_update)
    flex_button_register                     0x00002ce5   Thumb Code   152  mid_button.o(.text.flex_button_register)
    flex_button_scan                         0x00002d89   Thumb Code    12  mid_button.o(.text.flex_button_scan)
    get_app_key_current_mode                 0x00002d95   Thumb Code     8  app_key_task.o(.text.get_app_key_current_mode)
    get_encoder_count                        0x00002d9d   Thumb Code     8  hw_encoder.o(.text.get_encoder_count)
    get_encoder_dir                          0x00002da5   Thumb Code     8  hw_encoder.o(.text.get_encoder_dir)
    key_scan                                 0x00002db1   Thumb Code   136  hw_key.o(.text.key_scan)
    lcd_init                                 0x00002e3d   Thumb Code   448  hw_lcd.o(.text.lcd_init)
    main                                     0x0000300d   Thumb Code    84  empty.o(.text.main)
    set_app_key_current_mode                 0x00003095   Thumb Code    16  app_key_task.o(.text.set_app_key_current_mode)
    set_motor                                0x000030dd   Thumb Code    48  hw_motor.o(.text.set_motor)
    spi_write_bus                            0x0000310d   Thumb Code    40  hw_lcd.o(.text.spi_write_bus)
    stop_motor                               0x00003139   Thumb Code    12  hw_motor.o(.text.stop_motor)
    timer_init                               0x00003145   Thumb Code    22  mid_timer.o(.text.timer_init)
    ui_encoder_value_update                  0x0000315d   Thumb Code   256  empty.o(.text.ui_encoder_value_update)
    ui_home_page                             0x00003275   Thumb Code   168  empty.o(.text.ui_home_page)
    user_button_init                         0x00003331   Thumb Code   152  mid_button.o(.text.user_button_init)
    __0sprintf                               0x000033ed   Thumb Code    36  printfa.o(i.__0sprintf)
    __1sprintf                               0x000033ed   Thumb Code     0  printfa.o(i.__0sprintf)
    __2sprintf                               0x000033ed   Thumb Code     0  printfa.o(i.__0sprintf)
    __c89sprintf                             0x000033ed   Thumb Code     0  printfa.o(i.__0sprintf)
    sprintf                                  0x000033ed   Thumb Code     0  printfa.o(i.__0sprintf)
    __ARM_clz                                0x00003415   Thumb Code    46  depilogue.o(i.__ARM_clz)
    __scatterload_copy                       0x00003449   Thumb Code    14  handlers.o(i.__scatterload_copy)
    __scatterload_null                       0x00003459   Thumb Code     2  handlers.o(i.__scatterload_null)
    __scatterload_zeroinit                   0x00003461   Thumb Code    14  handlers.o(i.__scatterload_zeroinit)
    __set_errno                              0x00003471   Thumb Code     6  errno.o(i.__set_errno)
    sqrt                                     0x00003d35   Thumb Code    66  sqrt.o(i.sqrt)
    ascii_1206                               0x00003d7c   Data        1140  hw_lcd.o(.rodata.ascii_1206)
    ascii_1608                               0x000041f0   Data        1520  hw_lcd.o(.rodata.ascii_1608)
    ascii_2412                               0x000047e0   Data        4560  hw_lcd.o(.rodata.ascii_2412)
    ascii_3216                               0x000059b0   Data        6080  hw_lcd.o(.rodata.ascii_3216)
    tfont12                                  0x00007216   Data         130  hw_lcd.o(.rodata.tfont12)
    tfont16                                  0x00007298   Data         374  hw_lcd.o(.rodata.tfont16)
    tfont24                                  0x0000740e   Data         222  hw_lcd.o(.rodata.tfont24)
    tfont32                                  0x000074ec   Data         130  hw_lcd.o(.rodata.tfont32)
    Region$$Table$$Base                      0x00007570   Number         0  anon$$obj.o(Region$$Table)
    Region$$Table$$Limit                     0x00007590   Number         0  anon$$obj.o(Region$$Table)
    debug_uart                               0x20200020   Data         132  mid_debug_uart.o(.bss.debug_uart)
    gPWM_MOTORBackup                         0x202000a4   Data         160  ti_msp_dl_config.o(.bss.gPWM_MOTORBackup)
    gSPI_LCDBackup                           0x20200144   Data          40  ti_msp_dl_config.o(.bss.gSPI_LCDBackup)
    gTIMER_TICKBackup                        0x2020016c   Data         188  ti_msp_dl_config.o(.bss.gTIMER_TICKBackup)
    __initial_sp                             0x202006b0   Data           0  startup_mspm0g350x_uvision.o(STACK)



==============================================================================

Memory Map of the image

  Image Entry point : 0x000000c1

  Load Region LR_IROM1 (Base: 0x00000000, Size: 0x000075a0, Max: 0x00020000, ABSOLUTE)

    Execution Region ER_IROM1 (Exec base: 0x00000000, Load base: 0x00000000, Size: 0x00007590, Max: 0x00020000, ABSOLUTE)

    Exec Addr    Load Addr    Size         Type   Attr      Idx    E Section Name        Object

    0x00000000   0x00000000   0x000000c0   Data   RO           28    RESET               startup_mspm0g350x_uvision.o
    0x000000c0   0x000000c0   0x00000000   Code   RO          647  * .ARM.Collect$$$$00000000  mc_p.l(entry.o)
    0x000000c0   0x000000c0   0x00000004   Code   RO          696    .ARM.Collect$$$$00000001  mc_p.l(entry2.o)
    0x000000c4   0x000000c4   0x00000004   Code   RO          699    .ARM.Collect$$$$00000004  mc_p.l(entry5.o)
    0x000000c8   0x000000c8   0x00000000   Code   RO          701    .ARM.Collect$$$$00000008  mc_p.l(entry7b.o)
    0x000000c8   0x000000c8   0x00000000   Code   RO          703    .ARM.Collect$$$$0000000A  mc_p.l(entry8b.o)
    0x000000c8   0x000000c8   0x00000008   Code   RO          704    .ARM.Collect$$$$0000000B  mc_p.l(entry9a.o)
    0x000000d0   0x000000d0   0x00000000   Code   RO          706    .ARM.Collect$$$$0000000D  mc_p.l(entry10a.o)
    0x000000d0   0x000000d0   0x00000000   Code   RO          708    .ARM.Collect$$$$0000000F  mc_p.l(entry11a.o)
    0x000000d0   0x000000d0   0x00000004   Code   RO          697    .ARM.Collect$$$$00002712  mc_p.l(entry2.o)
    0x000000d4   0x000000d4   0x00000014   Code   RO           29    .text               startup_mspm0g350x_uvision.o
    0x000000e8   0x000000e8   0x00000024   Code   RO          656    .text               mc_p.l(memseta.o)
    0x0000010c   0x0000010c   0x0000000e   Code   RO          658    .text               mc_p.l(strlen.o)
    0x0000011a   0x0000011a   0x00000002   PAD
    0x0000011c   0x0000011c   0x0000001c   Code   RO          690    .text               mf_p.l(dfltui.o)
    0x00000138   0x00000138   0x00000048   Code   RO          694    .text               mf_p.l(dfixi.o)
    0x00000180   0x00000180   0x0000003e   Code   RO          719    .text               mc_p.l(uidiv_div0.o)
    0x000001be   0x000001be   0x00000060   Code   RO          725    .text               mc_p.l(uldiv.o)
    0x0000021e   0x0000021e   0x00000022   Code   RO          727    .text               mc_p.l(llushr.o)
    0x00000240   0x00000240   0x00000000   Code   RO          736    .text               mc_p.l(iusefp.o)
    0x00000240   0x00000240   0x000000be   Code   RO          737    .text               mf_p.l(depilogue.o)
    0x000002fe   0x000002fe   0x00000002   PAD
    0x00000300   0x00000300   0x00000164   Code   RO          741    .text               mf_p.l(dadd.o)
    0x00000464   0x00000464   0x000000d0   Code   RO          743    .text               mf_p.l(dmul.o)
    0x00000534   0x00000534   0x000000f0   Code   RO          745    .text               mf_p.l(ddiv.o)
    0x00000624   0x00000624   0x000000a2   Code   RO          747    .text               mf_p.l(dsqrt.o)
    0x000006c6   0x000006c6   0x00000002   PAD
    0x000006c8   0x000006c8   0x00000040   Code   RO          749    .text               mf_p.l(dfixul.o)
    0x00000708   0x00000708   0x00000028   Code   RO          751    .text               mf_p.l(cdrcmple.o)
    0x00000730   0x00000730   0x00000030   Code   RO          753    .text               mc_p.l(init.o)
    0x00000760   0x00000760   0x00000020   Code   RO          756    .text               mc_p.l(llshl.o)
    0x00000780   0x00000780   0x00000026   Code   RO          758    .text               mc_p.l(llsshr.o)
    0x000007a6   0x000007a6   0x0000000a   Code   RO          408    .text.DL_Common_delayCycles  driverlib.a(dl_common.o)
    0x000007b0   0x000007b0   0x00000028   Code   RO          130    .text.DL_Common_updateReg  ti_msp_dl_config.o
    0x000007d8   0x000007d8   0x00000018   Code   RO           90    .text.DL_GPIO_clearInterruptStatus  ti_msp_dl_config.o
    0x000007f0   0x000007f0   0x0000001c   Code   RO          272    .text.DL_GPIO_clearInterruptStatus  hw_encoder.o
    0x0000080c   0x0000080c   0x00000014   Code   RO           12    .text.DL_GPIO_clearPins  empty.o
    0x00000820   0x00000820   0x00000014   Code   RO           86    .text.DL_GPIO_clearPins  ti_msp_dl_config.o
    0x00000834   0x00000834   0x00000014   Code   RO          159    .text.DL_GPIO_clearPins  hw_lcd.o
    0x00000848   0x00000848   0x0000001c   Code   RO           92    .text.DL_GPIO_enableInterrupt  ti_msp_dl_config.o
    0x00000864   0x00000864   0x00000018   Code   RO           76    .text.DL_GPIO_enableOutput  ti_msp_dl_config.o
    0x0000087c   0x0000087c   0x00000014   Code   RO           64    .text.DL_GPIO_enablePower  ti_msp_dl_config.o
    0x00000890   0x00000890   0x00000018   Code   RO          268    .text.DL_GPIO_getEnabledInterruptStatus  hw_encoder.o
    0x000008a8   0x000008a8   0x00000030   Code   RO           84    .text.DL_GPIO_initDigitalInputFeatures  ti_msp_dl_config.o
    0x000008d8   0x000008d8   0x00000014   Code   RO           82    .text.DL_GPIO_initDigitalOutput  ti_msp_dl_config.o
    0x000008ec   0x000008ec   0x0000002c   Code   RO           80    .text.DL_GPIO_initDigitalOutputFeatures  ti_msp_dl_config.o
    0x00000918   0x00000918   0x00000014   Code   RO           72    .text.DL_GPIO_initPeripheralAnalogFunction  ti_msp_dl_config.o
    0x0000092c   0x0000092c   0x0000001c   Code   RO           78    .text.DL_GPIO_initPeripheralInputFunction  ti_msp_dl_config.o
    0x00000948   0x00000948   0x0000001c   Code   RO           74    .text.DL_GPIO_initPeripheralOutputFunction  ti_msp_dl_config.o
    0x00000964   0x00000964   0x00000016   Code   RO          228    .text.DL_GPIO_readPins  hw_key.o
    0x0000097a   0x0000097a   0x00000016   Code   RO          270    .text.DL_GPIO_readPins  hw_encoder.o
    0x00000990   0x00000990   0x00000010   Code   RO           56    .text.DL_GPIO_reset  ti_msp_dl_config.o
    0x000009a0   0x000009a0   0x0000001c   Code   RO           88    .text.DL_GPIO_setLowerPinsPolarity  ti_msp_dl_config.o
    0x000009bc   0x000009bc   0x00000014   Code   RO           14    .text.DL_GPIO_setPins  empty.o
    0x000009d0   0x000009d0   0x00000018   Code   RO          161    .text.DL_GPIO_setPins  hw_lcd.o
    0x000009e8   0x000009e8   0x00000018   Code   RO          128    .text.DL_SPI_enable  ti_msp_dl_config.o
    0x00000a00   0x00000a00   0x00000018   Code   RO           70    .text.DL_SPI_enablePower  ti_msp_dl_config.o
    0x00000a18   0x00000a18   0x00000044   Code   RO          417    .text.DL_SPI_init   driverlib.a(dl_spi.o)
    0x00000a5c   0x00000a5c   0x00000018   Code   RO          155    .text.DL_SPI_isBusy  hw_lcd.o
    0x00000a74   0x00000a74   0x00000018   Code   RO           62    .text.DL_SPI_reset  ti_msp_dl_config.o
    0x00000a8c   0x00000a8c   0x00000020   Code   RO          124    .text.DL_SPI_setBitRateSerialClockDivider  ti_msp_dl_config.o
    0x00000aac   0x00000aac   0x00000012   Code   RO          419    .text.DL_SPI_setClockConfig  driverlib.a(dl_spi.o)
    0x00000abe   0x00000abe   0x00000002   PAD
    0x00000ac0   0x00000ac0   0x00000030   Code   RO          126    .text.DL_SPI_setFIFOThreshold  ti_msp_dl_config.o
    0x00000af0   0x00000af0   0x00000016   Code   RO          153    .text.DL_SPI_transmitData8  hw_lcd.o
    0x00000b06   0x00000b06   0x00000002   PAD
    0x00000b08   0x00000b08   0x000000c0   Code   RO          612    .text.DL_SYSCTL_configSYSPLL  driverlib.a(dl_sysctl_mspm0g1x0x_g3x0x.o)
    0x00000bc8   0x00000bc8   0x0000000c   Code   RO          100    .text.DL_SYSCTL_disableHFXT  ti_msp_dl_config.o
    0x00000bd4   0x00000bd4   0x00000014   Code   RO          102    .text.DL_SYSCTL_disableSYSPLL  ti_msp_dl_config.o
    0x00000be8   0x00000be8   0x00000018   Code   RO           94    .text.DL_SYSCTL_setBORThreshold  ti_msp_dl_config.o
    0x00000c00   0x00000c00   0x0000001c   Code   RO           96    .text.DL_SYSCTL_setFlashWaitState  ti_msp_dl_config.o
    0x00000c1c   0x00000c1c   0x00000050   Code   RO          626    .text.DL_SYSCTL_setHFCLKSourceHFXTParams  driverlib.a(dl_sysctl_mspm0g1x0x_g3x0x.o)
    0x00000c6c   0x00000c6c   0x0000001c   Code   RO           98    .text.DL_SYSCTL_setSYSOSCFreq  ti_msp_dl_config.o
    0x00000c88   0x00000c88   0x00000018   Code   RO          104    .text.DL_SYSCTL_setULPCLKDivider  ti_msp_dl_config.o
    0x00000ca0   0x00000ca0   0x00000028   Code   RO          620    .text.DL_SYSCTL_switchMCLKfromSYSOSCtoHSCLK  driverlib.a(dl_sysctl_mspm0g1x0x_g3x0x.o)
    0x00000cc8   0x00000cc8   0x00000014   Code   RO          110    .text.DL_Timer_enableClock  ti_msp_dl_config.o
    0x00000cdc   0x00000cdc   0x00000018   Code   RO          114    .text.DL_Timer_enableInterrupt  ti_msp_dl_config.o
    0x00000cf4   0x00000cf4   0x00000018   Code   RO           66    .text.DL_Timer_enablePower  ti_msp_dl_config.o
    0x00000d0c   0x00000d0c   0x00000012   Code   RO          378    .text.DL_Timer_getPendingInterrupt  mid_timer.o
    0x00000d1e   0x00000d1e   0x00000002   PAD
    0x00000d20   0x00000d20   0x00000108   Code   RO          551    .text.DL_Timer_initFourCCPWMMode  driverlib.a(dl_timer.o)
    0x00000e28   0x00000e28   0x000000ec   Code   RO          475    .text.DL_Timer_initTimerMode  driverlib.a(dl_timer.o)
    0x00000f14   0x00000f14   0x00000010   Code   RO           58    .text.DL_Timer_reset  ti_msp_dl_config.o
    0x00000f24   0x00000f24   0x00000014   Code   RO          112    .text.DL_Timer_setCCPDirection  ti_msp_dl_config.o
    0x00000f38   0x00000f38   0x0000001c   Code   RO          517    .text.DL_Timer_setCaptCompUpdateMethod  driverlib.a(dl_timer.o)
    0x00000f54   0x00000f54   0x00000018   Code   RO          525    .text.DL_Timer_setCaptureCompareOutCtl  driverlib.a(dl_timer.o)
    0x00000f6c   0x00000f6c   0x00000010   Code   RO          477    .text.DL_Timer_setCaptureCompareValue  driverlib.a(dl_timer.o)
    0x00000f7c   0x00000f7c   0x0000001c   Code   RO          471    .text.DL_Timer_setClockConfig  driverlib.a(dl_timer.o)
    0x00000f98   0x00000f98   0x0000003c   Code   RO          108    .text.DL_Timer_setCounterControl  ti_msp_dl_config.o
    0x00000fd4   0x00000fd4   0x00000016   Code   RO          122    .text.DL_UART_enable  ti_msp_dl_config.o
    0x00000fea   0x00000fea   0x00000002   PAD
    0x00000fec   0x00000fec   0x0000001c   Code   RO          120    .text.DL_UART_enableInterrupt  ti_msp_dl_config.o
    0x00001008   0x00001008   0x00000018   Code   RO           68    .text.DL_UART_enablePower  ti_msp_dl_config.o
    0x00001020   0x00001020   0x00000012   Code   RO          322    .text.DL_UART_getPendingInterrupt  mid_debug_uart.o
    0x00001032   0x00001032   0x00000002   PAD
    0x00001034   0x00001034   0x00000048   Code   RO          572    .text.DL_UART_init  driverlib.a(dl_uart.o)
    0x0000107c   0x0000107c   0x00000014   Code   RO          324    .text.DL_UART_receiveData  mid_debug_uart.o
    0x00001090   0x00001090   0x00000018   Code   RO           60    .text.DL_UART_reset  ti_msp_dl_config.o
    0x000010a8   0x000010a8   0x0000004c   Code   RO          118    .text.DL_UART_setBaudRateDivisor  ti_msp_dl_config.o
    0x000010f4   0x000010f4   0x00000012   Code   RO          574    .text.DL_UART_setClockConfig  driverlib.a(dl_uart.o)
    0x00001106   0x00001106   0x0000001e   Code   RO          116    .text.DL_UART_setOversampling  ti_msp_dl_config.o
    0x00001124   0x00001124   0x00000152   Code   RO          185    .text.Drawarc       hw_lcd.o
    0x00001276   0x00001276   0x00000002   PAD
    0x00001278   0x00001278   0x000000a4   Code   RO          266    .text.GROUP1_IRQHandler  hw_encoder.o
    0x0000131c   0x0000131c   0x0000003e   Code   RO          169    .text.LCD_Address_Set  hw_lcd.o
    0x0000135a   0x0000135a   0x0000014a   Code   RO          187    .text.LCD_ArcRect   hw_lcd.o
    0x000014a4   0x000014a4   0x0000010c   Code   RO          177    .text.LCD_DrawLine  hw_lcd.o
    0x000015b0   0x000015b0   0x00000020   Code   RO          175    .text.LCD_DrawPoint  hw_lcd.o
    0x000015d0   0x000015d0   0x0000005c   Code   RO          173    .text.LCD_Fill      hw_lcd.o
    0x0000162c   0x0000162c   0x000001dc   Code   RO          199    .text.LCD_ShowChar  hw_lcd.o
    0x00001808   0x00001808   0x00000128   Code   RO          189    .text.LCD_ShowChinese  hw_lcd.o
    0x00001930   0x00001930   0x0000019c   Code   RO          191    .text.LCD_ShowChinese12x12  hw_lcd.o
    0x00001acc   0x00001acc   0x0000019c   Code   RO          193    .text.LCD_ShowChinese16x16  hw_lcd.o
    0x00001c68   0x00001c68   0x0000019c   Code   RO          195    .text.LCD_ShowChinese24x24  hw_lcd.o
    0x00001e04   0x00001e04   0x0000019c   Code   RO          197    .text.LCD_ShowChinese32x32  hw_lcd.o
    0x00001fa0   0x00001fa0   0x0000001c   Code   RO          165    .text.LCD_WR_DATA   hw_lcd.o
    0x00001fbc   0x00001fbc   0x00000014   Code   RO          163    .text.LCD_WR_DATA8  hw_lcd.o
    0x00001fd0   0x00001fd0   0x0000002c   Code   RO          167    .text.LCD_WR_REG    hw_lcd.o
    0x00001ffc   0x00001ffc   0x0000002c   Code   RO          157    .text.LCD_Writ_Bus  hw_lcd.o
    0x00002028   0x00002028   0x00000118   Code   RO           40    .text.SYSCFG_DL_GPIO_init  ti_msp_dl_config.o
    0x00002140   0x00002140   0x0000008c   Code   RO           44    .text.SYSCFG_DL_PWM_MOTOR_init  ti_msp_dl_config.o
    0x000021cc   0x000021cc   0x0000003c   Code   RO           50    .text.SYSCFG_DL_SPI_LCD_init  ti_msp_dl_config.o
    0x00002208   0x00002208   0x00000054   Code   RO           42    .text.SYSCFG_DL_SYSCTL_init  ti_msp_dl_config.o
    0x0000225c   0x0000225c   0x00000038   Code   RO           46    .text.SYSCFG_DL_TIMER_TICK_init  ti_msp_dl_config.o
    0x00002294   0x00002294   0x00000050   Code   RO           48    .text.SYSCFG_DL_UART_DEBUG_init  ti_msp_dl_config.o
    0x000022e4   0x000022e4   0x00000040   Code   RO           36    .text.SYSCFG_DL_init  ti_msp_dl_config.o
    0x00002324   0x00002324   0x00000074   Code   RO           38    .text.SYSCFG_DL_initPower  ti_msp_dl_config.o
    0x00002398   0x00002398   0x00000020   Code   RO          376    .text.TIMA0_IRQHandler  mid_timer.o
    0x000023b8   0x000023b8   0x0000002c   Code   RO          320    .text.UART0_IRQHandler  mid_debug_uart.o
    0x000023e4   0x000023e4   0x00000028   Code   RO          256    .text.__NVIC_ClearPendingIRQ  hw_encoder.o
    0x0000240c   0x0000240c   0x00000028   Code   RO          304    .text.__NVIC_ClearPendingIRQ  mid_debug_uart.o
    0x00002434   0x00002434   0x0000002c   Code   RO          372    .text.__NVIC_ClearPendingIRQ  mid_timer.o
    0x00002460   0x00002460   0x00000028   Code   RO          258    .text.__NVIC_EnableIRQ  hw_encoder.o
    0x00002488   0x00002488   0x00000028   Code   RO          306    .text.__NVIC_EnableIRQ  mid_debug_uart.o
    0x000024b0   0x000024b0   0x0000002c   Code   RO          374    .text.__NVIC_EnableIRQ  mid_timer.o
    0x000024dc   0x000024dc   0x00000084   Code   RO          106    .text.__NVIC_SetPriority  ti_msp_dl_config.o
    0x00002560   0x00002560   0x00000030   Code   RO          397    .text.btn_down_cb   app_key_task.o
    0x00002590   0x00002590   0x00000034   Code   RO          393    .text.btn_left_cb   app_key_task.o
    0x000025c4   0x000025c4   0x00000068   Code   RO          395    .text.btn_right_cb  app_key_task.o
    0x0000262c   0x0000262c   0x00000030   Code   RO          391    .text.btn_up_cb     app_key_task.o
    0x0000265c   0x0000265c   0x00000016   Code   RO          344    .text.button_down_read  mid_button.o
    0x00002672   0x00002672   0x00000016   Code   RO          340    .text.button_left_read  mid_button.o
    0x00002688   0x00002688   0x00000016   Code   RO          342    .text.button_right_read  mid_button.o
    0x0000269e   0x0000269e   0x00000016   Code   RO          338    .text.button_up_read  mid_button.o
    0x000026b4   0x000026b4   0x00000016   Code   RO          302    .text.debug_uart_init  mid_debug_uart.o
    0x000026ca   0x000026ca   0x00000002   PAD
    0x000026cc   0x000026cc   0x0000002c   Code   RO          326    .text.debug_uart_receive_limit_length  mid_debug_uart.o
    0x000026f8   0x000026f8   0x00000088   Code   RO           10    .text.disp_string_rect  empty.o
    0x00002780   0x00002780   0x00000064   Code   RO            8    .text.disp_x_center  empty.o
    0x000027e4   0x000027e4   0x00000016   Code   RO          254    .text.encoder_init  hw_encoder.o
    0x000027fa   0x000027fa   0x00000002   PAD
    0x000027fc   0x000027fc   0x0000001c   Code   RO          264    .text.encoder_update  hw_encoder.o
    0x00002818   0x00002818   0x00000404   Code   RO          354    .text.flex_button_process  mid_button.o
    0x00002c1c   0x00002c1c   0x000000c8   Code   RO          352    .text.flex_button_read  mid_button.o
    0x00002ce4   0x00002ce4   0x000000a4   Code   RO          346    .text.flex_button_register  mid_button.o
    0x00002d88   0x00002d88   0x0000000c   Code   RO          350    .text.flex_button_scan  mid_button.o
    0x00002d94   0x00002d94   0x00000008   Code   RO          389    .text.get_app_key_current_mode  app_key_task.o
    0x00002d9c   0x00002d9c   0x00000008   Code   RO          260    .text.get_encoder_count  hw_encoder.o
    0x00002da4   0x00002da4   0x0000000c   Code   RO          262    .text.get_encoder_dir  hw_encoder.o
    0x00002db0   0x00002db0   0x0000008c   Code   RO          226    .text.key_scan      hw_key.o
    0x00002e3c   0x00002e3c   0x000001d0   Code   RO          171    .text.lcd_init      hw_lcd.o
    0x0000300c   0x0000300c   0x00000064   Code   RO            2    .text.main          empty.o
    0x00003070   0x00003070   0x00000024   Code   RO          239    .text.restrict_pwm_max_value  hw_motor.o
    0x00003094   0x00003094   0x00000014   Code   RO          387    .text.set_app_key_current_mode  app_key_task.o
    0x000030a8   0x000030a8   0x00000018   Code   RO          243    .text.set_bi        hw_motor.o
    0x000030c0   0x000030c0   0x0000001c   Code   RO          241    .text.set_fi        hw_motor.o
    0x000030dc   0x000030dc   0x00000030   Code   RO          237    .text.set_motor     hw_motor.o
    0x0000310c   0x0000310c   0x0000002c   Code   RO          151    .text.spi_write_bus  hw_lcd.o
    0x00003138   0x00003138   0x0000000c   Code   RO          245    .text.stop_motor    hw_motor.o
    0x00003144   0x00003144   0x00000016   Code   RO          370    .text.timer_init    mid_timer.o
    0x0000315a   0x0000315a   0x00000002   PAD
    0x0000315c   0x0000315c   0x00000118   Code   RO            6    .text.ui_encoder_value_update  empty.o
    0x00003274   0x00003274   0x000000bc   Code   RO            4    .text.ui_home_page  empty.o
    0x00003330   0x00003330   0x000000bc   Code   RO          336    .text.user_button_init  mid_button.o
    0x000033ec   0x000033ec   0x00000028   Code   RO          663    i.__0sprintf        mc_p.l(printfa.o)
    0x00003414   0x00003414   0x0000002e   Code   RO          739    i.__ARM_clz         mf_p.l(depilogue.o)
    0x00003442   0x00003442   0x00000006   PAD
    0x00003448   0x00003448   0x0000000e   Code   RO          763    i.__scatterload_copy  mc_p.l(handlers.o)
    0x00003456   0x00003456   0x00000002   PAD
    0x00003458   0x00003458   0x00000002   Code   RO          764    i.__scatterload_null  mc_p.l(handlers.o)
    0x0000345a   0x0000345a   0x00000006   PAD
    0x00003460   0x00003460   0x0000000e   Code   RO          765    i.__scatterload_zeroinit  mc_p.l(handlers.o)
    0x0000346e   0x0000346e   0x00000002   PAD
    0x00003470   0x00003470   0x0000000c   Code   RO          731    i.__set_errno       mc_p.l(errno.o)
    0x0000347c   0x0000347c   0x00000174   Code   RO          668    i._fp_digits        mc_p.l(printfa.o)
    0x000035f0   0x000035f0   0x000006ec   Code   RO          669    i._printf_core      mc_p.l(printfa.o)
    0x00003cdc   0x00003cdc   0x00000020   Code   RO          670    i._printf_post_padding  mc_p.l(printfa.o)
    0x00003cfc   0x00003cfc   0x0000002c   Code   RO          671    i._printf_pre_padding  mc_p.l(printfa.o)
    0x00003d28   0x00003d28   0x0000000a   Code   RO          673    i._sputc            mc_p.l(printfa.o)
    0x00003d32   0x00003d32   0x00000002   PAD
    0x00003d34   0x00003d34   0x00000048   Code   RO          644    i.sqrt              m_ps.l(sqrt.o)
    0x00003d7c   0x00003d7c   0x00000474   Data   RO          211    .rodata.ascii_1206  hw_lcd.o
    0x000041f0   0x000041f0   0x000005f0   Data   RO          212    .rodata.ascii_1608  hw_lcd.o
    0x000047e0   0x000047e0   0x000011d0   Data   RO          213    .rodata.ascii_2412  hw_lcd.o
    0x000059b0   0x000059b0   0x000017c0   Data   RO          214    .rodata.ascii_3216  hw_lcd.o
    0x00007170   0x00007170   0x00000003   Data   RO          136    .rodata.gPWM_MOTORClockConfig  ti_msp_dl_config.o
    0x00007173   0x00007173   0x00000001   PAD
    0x00007174   0x00007174   0x00000008   Data   RO          137    .rodata.gPWM_MOTORConfig  ti_msp_dl_config.o
    0x0000717c   0x0000717c   0x00000002   Data   RO          142    .rodata.gSPI_LCD_clockConfig  ti_msp_dl_config.o
    0x0000717e   0x0000717e   0x0000000a   Data   RO          143    .rodata.gSPI_LCD_config  ti_msp_dl_config.o
    0x00007188   0x00007188   0x00000028   Data   RO          135    .rodata.gSYSPLLConfig  ti_msp_dl_config.o
    0x000071b0   0x000071b0   0x00000003   Data   RO          138    .rodata.gTIMER_TICKClockConfig  ti_msp_dl_config.o
    0x000071b3   0x000071b3   0x00000001   PAD
    0x000071b4   0x000071b4   0x00000014   Data   RO          139    .rodata.gTIMER_TICKTimerConfig  ti_msp_dl_config.o
    0x000071c8   0x000071c8   0x00000002   Data   RO          140    .rodata.gUART_DEBUGClockConfig  ti_msp_dl_config.o
    0x000071ca   0x000071ca   0x0000000a   Data   RO          141    .rodata.gUART_DEBUGConfig  ti_msp_dl_config.o
    0x000071d4   0x000071d4   0x00000042   Data   RO           16    .rodata.str1.1      empty.o
    0x00007216   0x00007216   0x00000082   Data   RO          215    .rodata.tfont12     hw_lcd.o
    0x00007298   0x00007298   0x00000176   Data   RO          216    .rodata.tfont16     hw_lcd.o
    0x0000740e   0x0000740e   0x000000de   Data   RO          217    .rodata.tfont24     hw_lcd.o
    0x000074ec   0x000074ec   0x00000082   Data   RO          218    .rodata.tfont32     hw_lcd.o
    0x0000756e   0x0000756e   0x00000002   PAD
    0x00007570   0x00007570   0x00000020   Data   RO          762    Region$$Table       anon$$obj.o


    Execution Region RW_IRAM2 (Exec base: 0x20200000, Load base: 0x00007590, Size: 0x000006b0, Max: 0x00008000, ABSOLUTE)

    Exec Addr    Load Addr    Size         Type   Attr      Idx    E Section Name        Object

    0x20200000   0x00007590   0x00000004   Data   RW          732    .data               mc_p.l(errno.o)
    0x20200004   0x00007594   0x00000002   Data   RW          359    .data.key_rst_data  mid_button.o
    0x20200006   0x00007596   0x00000002   Data   RW          360    .data.keydata       mid_button.o
    0x20200008   0x00007598   0x00000004   Data   RW           17    .data.ui_encoder_value_update.last_encoder_count  empty.o
    0x2020000c   0x0000759c   0x00000004   Data   RW           18    .data.ui_encoder_value_update.last_encoder_dir  empty.o
    0x20200010        -       0x00000004   Zero   RW          357    .bss.btn_head       mid_button.o
    0x20200014        -       0x00000004   Zero   RW          400    .bss.btn_right_cb.motor_status  app_key_task.o
    0x20200018        -       0x00000001   Zero   RW          358    .bss.button_cnt     mid_button.o
    0x20200019   0x000075a0   0x00000001   PAD
    0x2020001a        -       0x00000002   Zero   RW          361    .bss.cont           mid_button.o
    0x2020001c        -       0x00000001   Zero   RW          399    .bss.current_mode   app_key_task.o
    0x2020001d   0x000075a0   0x00000003   PAD
    0x20200020        -       0x00000084   Zero   RW          328    .bss.debug_uart     mid_debug_uart.o
    0x202000a4        -       0x000000a0   Zero   RW          132    .bss.gPWM_MOTORBackup  ti_msp_dl_config.o
    0x20200144        -       0x00000028   Zero   RW          134    .bss.gSPI_LCDBackup  ti_msp_dl_config.o
    0x2020016c        -       0x000000bc   Zero   RW          133    .bss.gTIMER_TICKBackup  ti_msp_dl_config.o
    0x20200228        -       0x00000010   Zero   RW          274    .bss.motor_encoder  hw_encoder.o
    0x20200238        -       0x00000002   Zero   RW          362    .bss.trg            mid_button.o
    0x2020023a   0x000075a0   0x00000002   PAD
    0x2020023c        -       0x00000070   Zero   RW          356    .bss.user_button    mid_button.o
    0x202002ac   0x000075a0   0x00000004   PAD
    0x202002b0        -       0x00000400   Zero   RW           26    STACK               startup_mspm0g350x_uvision.o



  Load Region LR_BCR (Base: 0x41c00000, Size: 0x00000000, Max: 0x00000100, ABSOLUTE)

    Execution Region BCR_CONFIG (Exec base: 0x41c00000, Load base: 0x41c00000, Size: 0x00000000, Max: 0x000000ff, ABSOLUTE)

    **** No section assigned to this execution region ****



  Load Region LR_BSL (Base: 0x41c00100, Size: 0x00000000, Max: 0x00000100, ABSOLUTE)

    Execution Region BSL_CONFIG (Exec base: 0x41c00100, Load base: 0x41c00100, Size: 0x00000000, Max: 0x00000080, ABSOLUTE)

    **** No section assigned to this execution region ****


==============================================================================

Image component sizes


      Code (inc. data)   RO Data    RW Data    ZI Data      Debug   Object Name

       280         12          0          0          5       2321   app_key_task.o
       844         64         66          8          0       5638   empty.o
       388         24          0          0         16       6115   hw_encoder.o
       162          4          0          0          0       3653   hw_key.o
      4276         60      14156          0          0      15959   hw_lcd.o
       148         12          0          0          0       3847   hw_motor.o
      1680        100          0          4        121       4438   mid_button.o
       228         12          0          0        132       6352   mid_debug_uart.o
       160         12          0          0          0       5473   mid_timer.o
        20          4        192          0       1024        648   startup_mspm0g350x_uvision.o
      2056        188         98          0        388      31271   ti_msp_dl_config.o

    ----------------------------------------------------------------------
     10258        492      14548         12       1696      85715   Object Totals
         0          0         32          0          0          0   (incl. Generated)
        16          0          4          0         10          0   (incl. Padding)

    ----------------------------------------------------------------------

      Code (inc. data)   RO Data    RW Data    ZI Data      Debug   Library Member Name

        10          0          0          0          0        790   dl_common.o
        86          8          0          0          0      13505   dl_spi.o
       312         24          0          0          0      12865   dl_sysctl_mspm0g1x0x_g3x0x.o
       596        188          0          0          0      41545   dl_timer.o
        90          8          0          0          0      14150   dl_uart.o
        72          6          0          0          0         76   sqrt.o
         0          0          0          0          0          0   entry.o
         0          0          0          0          0          0   entry10a.o
         0          0          0          0          0          0   entry11a.o
         8          4          0          0          0          0   entry2.o
         4          0          0          0          0          0   entry5.o
         0          0          0          0          0          0   entry7b.o
         0          0          0          0          0          0   entry8b.o
         8          4          0          0          0          0   entry9a.o
        12          6          0          4          0         60   errno.o
        30          0          0          0          0          0   handlers.o
        48         10          0          0          0         68   init.o
         0          0          0          0          0          0   iusefp.o
        32          0          0          0          0         68   llshl.o
        38          0          0          0          0         68   llsshr.o
        34          0          0          0          0         68   llushr.o
        36          0          0          0          0        100   memseta.o
      2270         94          0          0          0        472   printfa.o
        14          0          0          0          0         60   strlen.o
        62          0          0          0          0         72   uidiv_div0.o
        96          0          0          0          0         84   uldiv.o
        40          2          0          0          0         68   cdrcmple.o
       356          4          0          0          0        140   dadd.o
       240          6          0          0          0         84   ddiv.o
       236          0          0          0          0        216   depilogue.o
        72         10          0          0          0         72   dfixi.o
        64         10          0          0          0         68   dfixul.o
        28          4          0          0          0         68   dfltui.o
       208          6          0          0          0         88   dmul.o
       162          0          0          0          0         80   dsqrt.o

    ----------------------------------------------------------------------
      5290        394          0          4          0      84935   Library Totals
        26          0          0          0          0          0   (incl. Padding)

    ----------------------------------------------------------------------

      Code (inc. data)   RO Data    RW Data    ZI Data      Debug   Library Name

      1094        228          0          0          0      82855   driverlib.a
        72          6          0          0          0         76   m_ps.l
      2692        118          0          4          0       1120   mc_p.l
      1406         42          0          0          0        884   mf_p.l

    ----------------------------------------------------------------------
      5290        394          0          4          0      84935   Library Totals

    ----------------------------------------------------------------------

==============================================================================


      Code (inc. data)   RO Data    RW Data    ZI Data      Debug   

     15548        886      14548         16       1696     169546   Grand Totals
     15548        886      14548         16       1696     169546   ELF Image Totals
     15548        886      14548         16          0          0   ROM Totals

==============================================================================

    Total RO  Size (Code + RO Data)                30096 (  29.39kB)
    Total RW  Size (RW Data + ZI Data)              1712 (   1.67kB)
    Total ROM Size (Code + RO Data + RW Data)      30112 (  29.41kB)

==============================================================================

