Component: Arm Compiler for Embedded 6.21 Tool: armlink [5ec1fa00]

==============================================================================

Section Cross References

    empty.o(.text.main) refers to ti_msp_dl_config.o(.text.SYSCFG_DL_init) for SYSCFG_DL_init
    empty.o(.text.main) refers to mid_debug_uart.o(.text.debug_uart_init) for debug_uart_init
    empty.o(.text.main) refers to mid_debug_uart.o(.text.debug_uart_send_string) for debug_uart_send_string
    empty.o(.text.main) refers to mid_debug_uart.o(.text.get_debug_uart_receive_data) for get_debug_uart_receive_data
    empty.o(.text.main) refers to strstr.o(.text) for strstr
    empty.o(.text.main) refers to mid_debug_led.o(.text.set_debug_led_toggle) for set_debug_led_toggle
    empty.o(.text.main) refers to mid_debug_uart.o(.text.clear_debug_uart_receive_data) for clear_debug_uart_receive_data
    empty.o(.text.main) refers to dl_common.o(.text.DL_Common_delayCycles) for DL_Common_delayCycles
    empty.o(.text.main) refers to empty.o(.rodata.str1.1) for [Anonymous Symbol]
    empty.o(.ARM.exidx.text.main) refers to empty.o(.text.main) for [Anonymous Symbol]
    startup_mspm0g350x_uvision.o(RESET) refers to startup_mspm0g350x_uvision.o(STACK) for __initial_sp
    startup_mspm0g350x_uvision.o(RESET) refers to startup_mspm0g350x_uvision.o(.text) for Reset_Handler
    startup_mspm0g350x_uvision.o(RESET) refers to mid_debug_uart.o(.text.UART0_IRQHandler) for UART0_IRQHandler
    startup_mspm0g350x_uvision.o(.text) refers to entry.o(.ARM.Collect$$$$00000000) for __main
    ti_msp_dl_config.o(.text.SYSCFG_DL_init) refers to ti_msp_dl_config.o(.text.SYSCFG_DL_initPower) for SYSCFG_DL_initPower
    ti_msp_dl_config.o(.text.SYSCFG_DL_init) refers to ti_msp_dl_config.o(.text.SYSCFG_DL_GPIO_init) for SYSCFG_DL_GPIO_init
    ti_msp_dl_config.o(.text.SYSCFG_DL_init) refers to ti_msp_dl_config.o(.text.SYSCFG_DL_SYSCTL_init) for SYSCFG_DL_SYSCTL_init
    ti_msp_dl_config.o(.text.SYSCFG_DL_init) refers to ti_msp_dl_config.o(.text.SYSCFG_DL_UART_DEBUG_init) for SYSCFG_DL_UART_DEBUG_init
==============================================================================

Removing Unused input sections from the image.

    Removing empty.o(.text), (0 bytes).
    Removing empty.o(.ARM.exidx.text.main), (8 bytes).
    Removing empty.o(.ARM.use_no_argv), (4 bytes).
    Removing startup_mspm0g350x_uvision.o(HEAP), (0 bytes).
    Removing ti_msp_dl_config.o(.text), (0 bytes).
    Removing ti_msp_dl_config.o(.ARM.exidx.text.SYSCFG_DL_init), (8 bytes).
    Removing ti_msp_dl_config.o(.ARM.exidx.text.SYSCFG_DL_initPower), (8 bytes).
    Removing ti_msp_dl_config.o(.ARM.exidx.text.SYSCFG_DL_GPIO_init), (8 bytes).
    Removing ti_msp_dl_config.o(.ARM.exidx.text.SYSCFG_DL_SYSCTL_init), (8 bytes).
    Removing ti_msp_dl_config.o(.ARM.exidx.text.SYSCFG_DL_UART_DEBUG_init), (8 bytes).
    Removing ti_msp_dl_config.o(.ARM.exidx.text.DL_GPIO_reset), (8 bytes).
    Removing ti_msp_dl_config.o(.ARM.exidx.text.DL_UART_reset), (8 bytes).
    Removing ti_msp_dl_config.o(.ARM.exidx.text.DL_GPIO_enablePower), (8 bytes).
    Removing ti_msp_dl_config.o(.ARM.exidx.text.DL_UART_enablePower), (8 bytes).
    Removing ti_msp_dl_config.o(.ARM.exidx.text.DL_GPIO_initPeripheralAnalogFunction), (8 bytes).
    Removing ti_msp_dl_config.o(.ARM.exidx.text.DL_GPIO_initPeripheralOutputFunction), (8 bytes).
    Removing ti_msp_dl_config.o(.ARM.exidx.text.DL_GPIO_initPeripheralInputFunction), (8 bytes).
    Removing ti_msp_dl_config.o(.ARM.exidx.text.DL_GPIO_initDigitalOutputFeatures), (8 bytes).
==============================================================================

Image Symbol Table

    Local Symbols

    Symbol Name                              Value     Ov Type        Size  Object(Section)

    ../clib/division.s                       0x00000000   Number         0  aeabi_sdivfast.o ABSOLUTE
    ../clib/division.s                       0x00000000   Number         0  aeabi_sdivfast_div0.o ABSOLUTE
    ../clib/microlib/division.c              0x00000000   Number         0  uidiv.o ABSOLUTE
    ../clib/microlib/division.c              0x00000000   Number         0  uidiv_div0.o ABSOLUTE
    ../clib/microlib/division.c              0x00000000   Number         0  idiv_div0.o ABSOLUTE
    ../clib/microlib/division.c              0x00000000   Number         0  idiv0.o ABSOLUTE
    ../clib/microlib/init/entry.s            0x00000000   Number         0  entry.o ABSOLUTE
    ../clib/microlib/init/entry.s            0x00000000   Number         0  entry2.o ABSOLUTE
    ../clib/microlib/init/entry.s            0x00000000   Number         0  entry5.o ABSOLUTE
    ../clib/microlib/init/entry.s            0x00000000   Number         0  entry7a.o ABSOLUTE
    ../clib/microlib/init/entry.s            0x00000000   Number         0  entry7b.o ABSOLUTE
    ../clib/microlib/init/entry.s            0x00000000   Number         0  entry8a.o ABSOLUTE
    ../clib/microlib/init/entry.s            0x00000000   Number         0  entry8b.o ABSOLUTE
    ../clib/microlib/init/entry.s            0x00000000   Number         0  entry9a.o ABSOLUTE
    ../clib/microlib/init/entry.s            0x00000000   Number         0  entry9b.o ABSOLUTE
    ../clib/microlib/init/entry.s            0x00000000   Number         0  entry10a.o ABSOLUTE
    ../clib/microlib/init/entry.s            0x00000000   Number         0  entry10b.o ABSOLUTE
    ../clib/microlib/init/entry.s            0x00000000   Number         0  entry11a.o ABSOLUTE
    ../clib/microlib/init/entry.s            0x00000000   Number         0  entry11b.o ABSOLUTE
    ../clib/microlib/string/strstr.c         0x00000000   Number         0  strstr.o ABSOLUTE
    dc.s                                     0x00000000   Number         0  dc.o ABSOLUTE
    dl_common.c                              0x00000000   Number         0  dl_common.o ABSOLUTE
    dl_sysctl_mspm0g1x0x_g3x0x.c             0x00000000   Number         0  dl_sysctl_mspm0g1x0x_g3x0x.o ABSOLUTE
    dl_uart.c                                0x00000000   Number         0  dl_uart.o ABSOLUTE
    empty.c                                  0x00000000   Number         0  empty.o ABSOLUTE
    handlers.s                               0x00000000   Number         0  handlers.o ABSOLUTE
    init.s                                   0x00000000   Number         0  init.o ABSOLUTE
    mid_debug_led.c                          0x00000000   Number         0  mid_debug_led.o ABSOLUTE
    mid_debug_uart.c                         0x00000000   Number         0  mid_debug_uart.o ABSOLUTE
    startup_mspm0g350x_uvision.s             0x00000000   Number         0  startup_mspm0g350x_uvision.o ABSOLUTE
    ti_msp_dl_config.c                       0x00000000   Number         0  ti_msp_dl_config.o ABSOLUTE
    RESET                                    0x00000000   Section      192  startup_mspm0g350x_uvision.o(RESET)
    .ARM.Collect$$$$00000000                 0x000000c0   Section        0  entry.o(.ARM.Collect$$$$00000000)
    .ARM.Collect$$$$00000001                 0x000000c0   Section        4  entry2.o(.ARM.Collect$$$$00000001)
    .ARM.Collect$$$$00000004                 0x000000c4   Section        4  entry5.o(.ARM.Collect$$$$00000004)
    .ARM.Collect$$$$00000008                 0x000000c8   Section        0  entry7b.o(.ARM.Collect$$$$00000008)
    .ARM.Collect$$$$0000000A                 0x000000c8   Section        0  entry8b.o(.ARM.Collect$$$$0000000A)
    .ARM.Collect$$$$0000000B                 0x000000c8   Section        8  entry9a.o(.ARM.Collect$$$$0000000B)
    __lit__00000000                          0x000000d0   Data           4  entry2.o(.ARM.Collect$$$$00002712)
    .ARM.Collect$$$$0000000D                 0x000000d0   Section        0  entry10a.o(.ARM.Collect$$$$0000000D)
    .ARM.Collect$$$$0000000F                 0x000000d0   Section        0  entry11a.o(.ARM.Collect$$$$0000000F)
    .ARM.Collect$$$$00002712                 0x000000d0   Section        4  entry2.o(.ARM.Collect$$$$00002712)
    .text                                    0x000000d4   Section       20  startup_mspm0g350x_uvision.o(.text)
    .text                                    0x000000e8   Section        0  strstr.o(.text)
    .text                                    0x00000110   Section       48  init.o(.text)
    [Anonymous Symbol]                       0x00000140   Section        0  dl_common.o(.text.DL_Common_delayCycles)
    DL_Common_updateReg                      0x0000014b   Thumb Code    40  ti_msp_dl_config.o(.text.DL_Common_updateReg)
    [Anonymous Symbol]                       0x0000014a   Section        0  ti_msp_dl_config.o(.text.DL_Common_updateReg)
    DL_GPIO_clearPins                        0x00000173   Thumb Code    20  ti_msp_dl_config.o(.text.DL_GPIO_clearPins)
    [Anonymous Symbol]                       0x00000172   Section        0  ti_msp_dl_config.o(.text.DL_GPIO_clearPins)
    DL_GPIO_clearPins                        0x00000187   Thumb Code    20  mid_debug_led.o(.text.DL_GPIO_clearPins)
    [Anonymous Symbol]                       0x00000186   Section        0  mid_debug_led.o(.text.DL_GPIO_clearPins)
    DL_GPIO_enableOutput                     0x0000019d   Thumb Code    20  ti_msp_dl_config.o(.text.DL_GPIO_enableOutput)
    [Anonymous Symbol]                       0x0000019c   Section        0  ti_msp_dl_config.o(.text.DL_GPIO_enableOutput)
    __arm_cp.14_0                            0x000001b0   Number         4  ti_msp_dl_config.o(.text.DL_GPIO_enableOutput)
    DL_GPIO_enablePower                      0x000001b5   Thumb Code    20  ti_msp_dl_config.o(.text.DL_GPIO_enablePower)
    [Anonymous Symbol]                       0x000001b4   Section        0  ti_msp_dl_config.o(.text.DL_GPIO_enablePower)
    DL_GPIO_initDigitalOutputFeatures        0x000001c9   Thumb Code    44  ti_msp_dl_config.o(.text.DL_GPIO_initDigitalOutputFeatures)
    [Anonymous Symbol]                       0x000001c8   Section        0  ti_msp_dl_config.o(.text.DL_GPIO_initDigitalOutputFeatures)
    DL_GPIO_initPeripheralAnalogFunction     0x000001f5   Thumb Code    20  ti_msp_dl_config.o(.text.DL_GPIO_initPeripheralAnalogFunction)
    [Anonymous Symbol]                       0x000001f4   Section        0  ti_msp_dl_config.o(.text.DL_GPIO_initPeripheralAnalogFunction)
    DL_GPIO_initPeripheralInputFunction      0x00000209   Thumb Code    24  ti_msp_dl_config.o(.text.DL_GPIO_initPeripheralInputFunction)
    [Anonymous Symbol]                       0x00000208   Section        0  ti_msp_dl_config.o(.text.DL_GPIO_initPeripheralInputFunction)
    __arm_cp.11_0                            0x00000220   Number         4  ti_msp_dl_config.o(.text.DL_GPIO_initPeripheralInputFunction)
    DL_GPIO_initPeripheralOutputFunction     0x00000225   Thumb Code    24  ti_msp_dl_config.o(.text.DL_GPIO_initPeripheralOutputFunction)
    [Anonymous Symbol]                       0x00000224   Section        0  ti_msp_dl_config.o(.text.DL_GPIO_initPeripheralOutputFunction)
    __arm_cp.10_0                            0x0000023c   Number         4  ti_msp_dl_config.o(.text.DL_GPIO_initPeripheralOutputFunction)
    DL_GPIO_reset                            0x00000241   Thumb Code    16  ti_msp_dl_config.o(.text.DL_GPIO_reset)
    [Anonymous Symbol]                       0x00000240   Section        0  ti_msp_dl_config.o(.text.DL_GPIO_reset)
    DL_GPIO_setPins                          0x00000251   Thumb Code    20  mid_debug_led.o(.text.DL_GPIO_setPins)
    [Anonymous Symbol]                       0x00000250   Section        0  mid_debug_led.o(.text.DL_GPIO_setPins)
    __arm_cp.1_0                             0x00000264   Number         4  mid_debug_led.o(.text.DL_GPIO_setPins)
    [Anonymous Symbol]                       0x00000268   Section        0  dl_sysctl_mspm0g1x0x_g3x0x.o(.text.DL_SYSCTL_configSYSPLL)
    __arm_cp.0_2                             0x0000031c   Number         4  dl_sysctl_mspm0g1x0x_g3x0x.o(.text.DL_SYSCTL_configSYSPLL)
    __arm_cp.0_3                             0x00000320   Number         4  dl_sysctl_mspm0g1x0x_g3x0x.o(.text.DL_SYSCTL_configSYSPLL)
    __arm_cp.0_4                             0x00000324   Number         4  dl_sysctl_mspm0g1x0x_g3x0x.o(.text.DL_SYSCTL_configSYSPLL)
    DL_SYSCTL_disableHFXT                    0x00000329   Thumb Code    12  ti_msp_dl_config.o(.text.DL_SYSCTL_disableHFXT)
    [Anonymous Symbol]                       0x00000328   Section        0  ti_msp_dl_config.o(.text.DL_SYSCTL_disableHFXT)
    DL_SYSCTL_disableSYSPLL                  0x00000335   Thumb Code    16  ti_msp_dl_config.o(.text.DL_SYSCTL_disableSYSPLL)
    [Anonymous Symbol]                       0x00000334   Section        0  ti_msp_dl_config.o(.text.DL_SYSCTL_disableSYSPLL)
    __arm_cp.19_0                            0x00000344   Number         4  ti_msp_dl_config.o(.text.DL_SYSCTL_disableSYSPLL)
    DL_SYSCTL_setBORThreshold                0x00000349   Thumb Code    20  ti_msp_dl_config.o(.text.DL_SYSCTL_setBORThreshold)
    [Anonymous Symbol]                       0x00000348   Section        0  ti_msp_dl_config.o(.text.DL_SYSCTL_setBORThreshold)
    __arm_cp.15_0                            0x0000035c   Number         4  ti_msp_dl_config.o(.text.DL_SYSCTL_setBORThreshold)
    DL_SYSCTL_setFlashWaitState              0x00000361   Thumb Code    28  ti_msp_dl_config.o(.text.DL_SYSCTL_setFlashWaitState)
    [Anonymous Symbol]                       0x00000360   Section        0  ti_msp_dl_config.o(.text.DL_SYSCTL_setFlashWaitState)
    [Anonymous Symbol]                       0x0000037c   Section        0  dl_sysctl_mspm0g1x0x_g3x0x.o(.text.DL_SYSCTL_setHFCLKSourceHFXTParams)
    __arm_cp.7_0                             0x000003c8   Number         4  dl_sysctl_mspm0g1x0x_g3x0x.o(.text.DL_SYSCTL_setHFCLKSourceHFXTParams)
    DL_SYSCTL_setSYSOSCFreq                  0x000003cd   Thumb Code    24  ti_msp_dl_config.o(.text.DL_SYSCTL_setSYSOSCFreq)
    [Anonymous Symbol]                       0x000003cc   Section        0  ti_msp_dl_config.o(.text.DL_SYSCTL_setSYSOSCFreq)
    __arm_cp.17_0                            0x000003e4   Number         4  ti_msp_dl_config.o(.text.DL_SYSCTL_setSYSOSCFreq)
    DL_SYSCTL_setULPCLKDivider               0x000003e9   Thumb Code    24  ti_msp_dl_config.o(.text.DL_SYSCTL_setULPCLKDivider)
    [Anonymous Symbol]                       0x000003e8   Section        0  ti_msp_dl_config.o(.text.DL_SYSCTL_setULPCLKDivider)
    [Anonymous Symbol]                       0x00000400   Section        0  dl_sysctl_mspm0g1x0x_g3x0x.o(.text.DL_SYSCTL_switchMCLKfromSYSOSCtoHSCLK)
    __arm_cp.4_0                             0x00000420   Number         4  dl_sysctl_mspm0g1x0x_g3x0x.o(.text.DL_SYSCTL_switchMCLKfromSYSOSCtoHSCLK)
    __arm_cp.4_1                             0x00000424   Number         4  dl_sysctl_mspm0g1x0x_g3x0x.o(.text.DL_SYSCTL_switchMCLKfromSYSOSCtoHSCLK)
    DL_UART_enable                           0x00000429   Thumb Code    22  ti_msp_dl_config.o(.text.DL_UART_enable)
    [Anonymous Symbol]                       0x00000428   Section        0  ti_msp_dl_config.o(.text.DL_UART_enable)
    DL_UART_enableInterrupt                  0x00000441   Thumb Code    24  ti_msp_dl_config.o(.text.DL_UART_enableInterrupt)
    [Anonymous Symbol]                       0x00000440   Section        0  ti_msp_dl_config.o(.text.DL_UART_enableInterrupt)
    __arm_cp.23_0                            0x00000458   Number         4  ti_msp_dl_config.o(.text.DL_UART_enableInterrupt)
    DL_UART_enablePower                      0x0000045d   Thumb Code    20  ti_msp_dl_config.o(.text.DL_UART_enablePower)
    [Anonymous Symbol]                       0x0000045c   Section        0  ti_msp_dl_config.o(.text.DL_UART_enablePower)
    __arm_cp.8_0                             0x00000470   Number         4  ti_msp_dl_config.o(.text.DL_UART_enablePower)
    DL_UART_getPendingInterrupt              0x00000475   Thumb Code    18  mid_debug_uart.o(.text.DL_UART_getPendingInterrupt)
    [Anonymous Symbol]                       0x00000474   Section        0  mid_debug_uart.o(.text.DL_UART_getPendingInterrupt)
    [Anonymous Symbol]                       0x00000488   Section        0  dl_uart.o(.text.DL_UART_init)
    __arm_cp.0_0                             0x000004c8   Number         4  dl_uart.o(.text.DL_UART_init)
    __arm_cp.0_1                             0x000004cc   Number         4  dl_uart.o(.text.DL_UART_init)
    DL_UART_isBusy                           0x000004d1   Thumb Code    20  mid_debug_uart.o(.text.DL_UART_isBusy)
    [Anonymous Symbol]                       0x000004d0   Section        0  mid_debug_uart.o(.text.DL_UART_isBusy)
    __arm_cp.4_0                             0x000004e4   Number         4  mid_debug_uart.o(.text.DL_UART_isBusy)
    DL_UART_receiveData                      0x000004e9   Thumb Code    16  mid_debug_uart.o(.text.DL_UART_receiveData)
    [Anonymous Symbol]                       0x000004e8   Section        0  mid_debug_uart.o(.text.DL_UART_receiveData)
    __arm_cp.11_0                            0x000004f8   Number         4  mid_debug_uart.o(.text.DL_UART_receiveData)
    DL_UART_reset                            0x000004fd   Thumb Code    16  ti_msp_dl_config.o(.text.DL_UART_reset)
    [Anonymous Symbol]                       0x000004fc   Section        0  ti_msp_dl_config.o(.text.DL_UART_reset)
    __arm_cp.6_0                             0x0000050c   Number         4  ti_msp_dl_config.o(.text.DL_UART_reset)
    __arm_cp.6_1                             0x00000510   Number         4  ti_msp_dl_config.o(.text.DL_UART_reset)
    DL_UART_setBaudRateDivisor               0x00000515   Thumb Code    60  ti_msp_dl_config.o(.text.DL_UART_setBaudRateDivisor)
    [Anonymous Symbol]                       0x00000514   Section        0  ti_msp_dl_config.o(.text.DL_UART_setBaudRateDivisor)
    __arm_cp.22_0                            0x00000550   Number         4  ti_msp_dl_config.o(.text.DL_UART_setBaudRateDivisor)
    __arm_cp.22_1                            0x00000554   Number         4  ti_msp_dl_config.o(.text.DL_UART_setBaudRateDivisor)
    __arm_cp.22_2                            0x00000558   Number         4  ti_msp_dl_config.o(.text.DL_UART_setBaudRateDivisor)
    __arm_cp.22_3                            0x0000055c   Number         4  ti_msp_dl_config.o(.text.DL_UART_setBaudRateDivisor)
    [Anonymous Symbol]                       0x00000560   Section        0  dl_uart.o(.text.DL_UART_setClockConfig)
    DL_UART_setOversampling                  0x00000573   Thumb Code    30  ti_msp_dl_config.o(.text.DL_UART_setOversampling)
    [Anonymous Symbol]                       0x00000572   Section        0  ti_msp_dl_config.o(.text.DL_UART_setOversampling)
    DL_UART_transmitData                     0x00000591   Thumb Code    22  mid_debug_uart.o(.text.DL_UART_transmitData)
    [Anonymous Symbol]                       0x00000590   Section        0  mid_debug_uart.o(.text.DL_UART_transmitData)
    [Anonymous Symbol]                       0x000005a8   Section        0  ti_msp_dl_config.o(.text.SYSCFG_DL_GPIO_init)
    [Anonymous Symbol]                       0x000005f8   Section        0  ti_msp_dl_config.o(.text.SYSCFG_DL_SYSCTL_init)
    __arm_cp.3_0                             0x00000640   Number         4  ti_msp_dl_config.o(.text.SYSCFG_DL_SYSCTL_init)
    [Anonymous Symbol]                       0x00000644   Section        0  ti_msp_dl_config.o(.text.SYSCFG_DL_UART_DEBUG_init)
    __arm_cp.4_0                             0x0000068c   Number         4  ti_msp_dl_config.o(.text.SYSCFG_DL_UART_DEBUG_init)
    __arm_cp.4_2                             0x00000690   Number         4  ti_msp_dl_config.o(.text.SYSCFG_DL_UART_DEBUG_init)
    [Anonymous Symbol]                       0x00000694   Section        0  ti_msp_dl_config.o(.text.SYSCFG_DL_init)
    [Anonymous Symbol]                       0x000006a8   Section        0  ti_msp_dl_config.o(.text.SYSCFG_DL_initPower)
    __arm_cp.1_0                             0x000006e0   Number         4  ti_msp_dl_config.o(.text.SYSCFG_DL_initPower)
    [Anonymous Symbol]                       0x000006e4   Section        0  mid_debug_uart.o(.text.UART0_IRQHandler)
    __NVIC_ClearPendingIRQ                   0x0000070d   Thumb Code    40  mid_debug_uart.o(.text.__NVIC_ClearPendingIRQ)
    [Anonymous Symbol]                       0x0000070c   Section        0  mid_debug_uart.o(.text.__NVIC_ClearPendingIRQ)
    __arm_cp.1_0                             0x00000734   Number         4  mid_debug_uart.o(.text.__NVIC_ClearPendingIRQ)
    __NVIC_EnableIRQ                         0x00000739   Thumb Code    40  mid_debug_uart.o(.text.__NVIC_EnableIRQ)
    [Anonymous Symbol]                       0x00000738   Section        0  mid_debug_uart.o(.text.__NVIC_EnableIRQ)
    __arm_cp.2_0                             0x00000760   Number         4  mid_debug_uart.o(.text.__NVIC_EnableIRQ)
    __NVIC_SetPriority                       0x00000765   Thumb Code   124  ti_msp_dl_config.o(.text.__NVIC_SetPriority)
    [Anonymous Symbol]                       0x00000764   Section        0  ti_msp_dl_config.o(.text.__NVIC_SetPriority)
    __arm_cp.24_0                            0x000007e0   Number         4  ti_msp_dl_config.o(.text.__NVIC_SetPriority)
    __arm_cp.24_1                            0x000007e4   Number         4  ti_msp_dl_config.o(.text.__NVIC_SetPriority)
    [Anonymous Symbol]                       0x000007e8   Section        0  mid_debug_uart.o(.text.clear_debug_uart_receive_data)
    [Anonymous Symbol]                       0x00000818   Section        0  mid_debug_uart.o(.text.debug_uart_init)
    debug_uart_receive_limit_length          0x00000831   Thumb Code    40  mid_debug_uart.o(.text.debug_uart_receive_limit_length)
    [Anonymous Symbol]                       0x00000830   Section        0  mid_debug_uart.o(.text.debug_uart_receive_limit_length)
    [Anonymous Symbol]                       0x00000858   Section        0  mid_debug_uart.o(.text.debug_uart_send_char)
    __arm_cp.3_0                             0x00000880   Number         4  mid_debug_uart.o(.text.debug_uart_send_char)
    [Anonymous Symbol]                       0x00000884   Section        0  mid_debug_uart.o(.text.debug_uart_send_string)
    [Anonymous Symbol]                       0x000008c0   Section        0  mid_debug_uart.o(.text.get_debug_uart_receive_data)
    __arm_cp.7_0                             0x000008c4   Number         4  mid_debug_uart.o(.text.get_debug_uart_receive_data)
    [Anonymous Symbol]                       0x000008c8   Section        0  empty.o(.text.main)
    __arm_cp.0_0                             0x00000904   Number         4  empty.o(.text.main)
    __arm_cp.0_1                             0x00000908   Number         4  empty.o(.text.main)
    __arm_cp.0_2                             0x0000090c   Number         4  empty.o(.text.main)
    [Anonymous Symbol]                       0x00000910   Section        0  mid_debug_led.o(.text.set_debug_led_off)
    [Anonymous Symbol]                       0x00000924   Section        0  mid_debug_led.o(.text.set_debug_led_on)
    __arm_cp.0_1                             0x00000938   Number         4  mid_debug_led.o(.text.set_debug_led_on)
    [Anonymous Symbol]                       0x0000093c   Section        0  mid_debug_led.o(.text.set_debug_led_toggle)
    __arm_cp.4_0                             0x00000964   Number         4  mid_debug_led.o(.text.set_debug_led_toggle)
    i.__scatterload_copy                     0x00000968   Section       14  handlers.o(i.__scatterload_copy)
    i.__scatterload_null                     0x00000978   Section        2  handlers.o(i.__scatterload_null)
    i.__scatterload_zeroinit                 0x00000980   Section       14  handlers.o(i.__scatterload_zeroinit)
    gSYSPLLConfig                            0x00000990   Data          40  ti_msp_dl_config.o(.rodata.gSYSPLLConfig)
    [Anonymous Symbol]                       0x00000990   Section        0  ti_msp_dl_config.o(.rodata.gSYSPLLConfig)
    gUART_DEBUGClockConfig                   0x000009b8   Data           2  ti_msp_dl_config.o(.rodata.gUART_DEBUGClockConfig)
    [Anonymous Symbol]                       0x000009b8   Section        0  ti_msp_dl_config.o(.rodata.gUART_DEBUGClockConfig)
    gUART_DEBUGConfig                        0x000009ba   Data          10  ti_msp_dl_config.o(.rodata.gUART_DEBUGConfig)
    [Anonymous Symbol]                       0x000009ba   Section        0  ti_msp_dl_config.o(.rodata.gUART_DEBUGConfig)
    [Anonymous Symbol]                       0x000009c4   Section        0  empty.o(.rodata.str1.1)
    debug_led                                0x20200000   Data           1  mid_debug_led.o(.bss.debug_led)
    [Anonymous Symbol]                       0x20200000   Section        0  mid_debug_led.o(.bss.debug_led)
    STACK                                    0x20200088   Section      256  startup_mspm0g350x_uvision.o(STACK)

    Global Symbols

    Symbol Name                              Value     Ov Type        Size  Object(Section)

    BuildAttributes$$THM_ISAv3M$S$PE$A:L22$X:L11$S22$IEEE1$IW$~IW$USESV6$~STKCKD$USESV7$~SHL$OTIME$EBA8$MICROLIB$REQ8$PRES8$EABIv2 0x00000000   Number         0  anon$$obj.o ABSOLUTE
    __Vectors                                0x00000000   Data           4  startup_mspm0g350x_uvision.o(RESET)
    __cpp_initialize__aeabi_                  - Undefined Weak Reference
    __cxa_finalize                            - Undefined Weak Reference
    __decompress                              - Undefined Weak Reference
    _clock_init                               - Undefined Weak Reference
    _microlib_exit                            - Undefined Weak Reference
    __Vectors_End                            0x000000c0   Data           0  startup_mspm0g350x_uvision.o(RESET)
    __Vectors_Size                           0x000000c0   Number         0  startup_mspm0g350x_uvision.o ABSOLUTE
    __main                                   0x000000c1   Thumb Code     0  entry.o(.ARM.Collect$$$$00000000)
    _main_stk                                0x000000c1   Thumb Code     0  entry2.o(.ARM.Collect$$$$00000001)
    _main_scatterload                        0x000000c5   Thumb Code     0  entry5.o(.ARM.Collect$$$$00000004)
    __main_after_scatterload                 0x000000c9   Thumb Code     0  entry5.o(.ARM.Collect$$$$00000004)
    _main_clock                              0x000000c9   Thumb Code     0  entry7b.o(.ARM.Collect$$$$00000008)
    _main_cpp_init                           0x000000c9   Thumb Code     0  entry8b.o(.ARM.Collect$$$$0000000A)
    _main_init                               0x000000c9   Thumb Code     0  entry9a.o(.ARM.Collect$$$$0000000B)
    __rt_final_cpp                           0x000000d1   Thumb Code     0  entry10a.o(.ARM.Collect$$$$0000000D)
    __rt_final_exit                          0x000000d1   Thumb Code     0  entry11a.o(.ARM.Collect$$$$0000000F)
    Reset_Handler                            0x000000d5   Thumb Code     4  startup_mspm0g350x_uvision.o(.text)
    NMI_Handler                              0x000000d9   Thumb Code     2  startup_mspm0g350x_uvision.o(.text)
    HardFault_Handler                        0x000000db   Thumb Code     2  startup_mspm0g350x_uvision.o(.text)
    SVC_Handler                              0x000000dd   Thumb Code     2  startup_mspm0g350x_uvision.o(.text)
    PendSV_Handler                           0x000000df   Thumb Code     2  startup_mspm0g350x_uvision.o(.text)
    SysTick_Handler                          0x000000e1   Thumb Code     2  startup_mspm0g350x_uvision.o(.text)
    ADC0_IRQHandler                          0x000000e3   Thumb Code     0  startup_mspm0g350x_uvision.o(.text)
    ADC1_IRQHandler                          0x000000e3   Thumb Code     0  startup_mspm0g350x_uvision.o(.text)
    AES_IRQHandler                           0x000000e3   Thumb Code     0  startup_mspm0g350x_uvision.o(.text)
    CANFD0_IRQHandler                        0x000000e3   Thumb Code     0  startup_mspm0g350x_uvision.o(.text)
    DAC0_IRQHandler                          0x000000e3   Thumb Code     0  startup_mspm0g350x_uvision.o(.text)
    DMA_IRQHandler                           0x000000e3   Thumb Code     0  startup_mspm0g350x_uvision.o(.text)
    Default_Handler                          0x000000e3   Thumb Code     2  startup_mspm0g350x_uvision.o(.text)
    GROUP0_IRQHandler                        0x000000e3   Thumb Code     0  startup_mspm0g350x_uvision.o(.text)
    GROUP1_IRQHandler                        0x000000e3   Thumb Code     0  startup_mspm0g350x_uvision.o(.text)
    I2C0_IRQHandler                          0x000000e3   Thumb Code     0  startup_mspm0g350x_uvision.o(.text)
    I2C1_IRQHandler                          0x000000e3   Thumb Code     0  startup_mspm0g350x_uvision.o(.text)
    RTC_IRQHandler                           0x000000e3   Thumb Code     0  startup_mspm0g350x_uvision.o(.text)
    SPI0_IRQHandler                          0x000000e3   Thumb Code     0  startup_mspm0g350x_uvision.o(.text)
    SPI1_IRQHandler                          0x000000e3   Thumb Code     0  startup_mspm0g350x_uvision.o(.text)
    TIMA0_IRQHandler                         0x000000e3   Thumb Code     0  startup_mspm0g350x_uvision.o(.text)
    TIMA1_IRQHandler                         0x000000e3   Thumb Code     0  startup_mspm0g350x_uvision.o(.text)
    TIMG0_IRQHandler                         0x000000e3   Thumb Code     0  startup_mspm0g350x_uvision.o(.text)
    TIMG12_IRQHandler                        0x000000e3   Thumb Code     0  startup_mspm0g350x_uvision.o(.text)
    TIMG6_IRQHandler                         0x000000e3   Thumb Code     0  startup_mspm0g350x_uvision.o(.text)
    TIMG7_IRQHandler                         0x000000e3   Thumb Code     0  startup_mspm0g350x_uvision.o(.text)
    TIMG8_IRQHandler                         0x000000e3   Thumb Code     0  startup_mspm0g350x_uvision.o(.text)
    UART1_IRQHandler                         0x000000e3   Thumb Code     0  startup_mspm0g350x_uvision.o(.text)
    UART2_IRQHandler                         0x000000e3   Thumb Code     0  startup_mspm0g350x_uvision.o(.text)
    UART3_IRQHandler                         0x000000e3   Thumb Code     0  startup_mspm0g350x_uvision.o(.text)
    strstr                                   0x000000e9   Thumb Code    40  strstr.o(.text)
    __scatterload                            0x00000111   Thumb Code    38  init.o(.text)
    __scatterload_rt2                        0x00000111   Thumb Code     0  init.o(.text)
    DL_Common_delayCycles                    0x00000141   Thumb Code    10  dl_common.o(.text.DL_Common_delayCycles)
    DL_SYSCTL_configSYSPLL                   0x00000269   Thumb Code   192  dl_sysctl_mspm0g1x0x_g3x0x.o(.text.DL_SYSCTL_configSYSPLL)
    DL_SYSCTL_setHFCLKSourceHFXTParams       0x0000037d   Thumb Code    80  dl_sysctl_mspm0g1x0x_g3x0x.o(.text.DL_SYSCTL_setHFCLKSourceHFXTParams)
    DL_SYSCTL_switchMCLKfromSYSOSCtoHSCLK    0x00000401   Thumb Code    40  dl_sysctl_mspm0g1x0x_g3x0x.o(.text.DL_SYSCTL_switchMCLKfromSYSOSCtoHSCLK)
    DL_UART_init                             0x00000489   Thumb Code    72  dl_uart.o(.text.DL_UART_init)
    DL_UART_setClockConfig                   0x00000561   Thumb Code    18  dl_uart.o(.text.DL_UART_setClockConfig)
    SYSCFG_DL_GPIO_init                      0x000005a9   Thumb Code    80  ti_msp_dl_config.o(.text.SYSCFG_DL_GPIO_init)
    SYSCFG_DL_SYSCTL_init                    0x000005f9   Thumb Code    72  ti_msp_dl_config.o(.text.SYSCFG_DL_SYSCTL_init)
    SYSCFG_DL_UART_DEBUG_init                0x00000645   Thumb Code    72  ti_msp_dl_config.o(.text.SYSCFG_DL_UART_DEBUG_init)
    SYSCFG_DL_init                           0x00000695   Thumb Code    20  ti_msp_dl_config.o(.text.SYSCFG_DL_init)
    SYSCFG_DL_initPower                      0x000006a9   Thumb Code    56  ti_msp_dl_config.o(.text.SYSCFG_DL_initPower)
    UART0_IRQHandler                         0x000006e5   Thumb Code    40  mid_debug_uart.o(.text.UART0_IRQHandler)
    clear_debug_uart_receive_data            0x000007e9   Thumb Code    48  mid_debug_uart.o(.text.clear_debug_uart_receive_data)
    debug_uart_init                          0x00000819   Thumb Code    22  mid_debug_uart.o(.text.debug_uart_init)
    debug_uart_send_char                     0x00000859   Thumb Code    40  mid_debug_uart.o(.text.debug_uart_send_char)
    debug_uart_send_string                   0x00000885   Thumb Code    60  mid_debug_uart.o(.text.debug_uart_send_string)
    get_debug_uart_receive_data              0x000008c1   Thumb Code     4  mid_debug_uart.o(.text.get_debug_uart_receive_data)
    main                                     0x000008c9   Thumb Code    60  empty.o(.text.main)
    set_debug_led_off                        0x00000911   Thumb Code    20  mid_debug_led.o(.text.set_debug_led_off)
    set_debug_led_on                         0x00000925   Thumb Code    20  mid_debug_led.o(.text.set_debug_led_on)
    set_debug_led_toggle                     0x0000093d   Thumb Code    40  mid_debug_led.o(.text.set_debug_led_toggle)
    __scatterload_copy                       0x00000969   Thumb Code    14  handlers.o(i.__scatterload_copy)
    __scatterload_null                       0x00000979   Thumb Code     2  handlers.o(i.__scatterload_null)
    __scatterload_zeroinit                   0x00000981   Thumb Code    14  handlers.o(i.__scatterload_zeroinit)
    Region$$Table$$Base                      0x000009f0   Number         0  anon$$obj.o(Region$$Table)
    Region$$Table$$Limit                     0x00000a00   Number         0  anon$$obj.o(Region$$Table)
    debug_uart                               0x20200004   Data         132  mid_debug_uart.o(.bss.debug_uart)
    __initial_sp                             0x20200188   Data           0  startup_mspm0g350x_uvision.o(STACK)



==============================================================================

Memory Map of the image

  Image Entry point : 0x000000c1

  Load Region LR_IROM1 (Base: 0x00000000, Size: 0x00000a00, Max: 0x00020000, ABSOLUTE)

    Execution Region ER_IROM1 (Exec base: 0x00000000, Load base: 0x00000000, Size: 0x00000a00, Max: 0x00020000, ABSOLUTE)

    Exec Addr    Load Addr    Size         Type   Attr      Idx    E Section Name        Object

    0x00000000   0x00000000   0x000000c0   Data   RO           13    RESET               startup_mspm0g350x_uvision.o
    0x000000c0   0x000000c0   0x00000000   Code   RO          219  * .ARM.Collect$$$$00000000  mc_p.l(entry.o)
    0x000000c0   0x000000c0   0x00000004   Code   RO          230    .ARM.Collect$$$$00000001  mc_p.l(entry2.o)
    0x000000c4   0x000000c4   0x00000004   Code   RO          233    .ARM.Collect$$$$00000004  mc_p.l(entry5.o)
    0x000000c8   0x000000c8   0x00000000   Code   RO          235    .ARM.Collect$$$$00000008  mc_p.l(entry7b.o)
    0x000000c8   0x000000c8   0x00000000   Code   RO          237    .ARM.Collect$$$$0000000A  mc_p.l(entry8b.o)
    0x000000c8   0x000000c8   0x00000008   Code   RO          238    .ARM.Collect$$$$0000000B  mc_p.l(entry9a.o)
    0x000000d0   0x000000d0   0x00000000   Code   RO          240    .ARM.Collect$$$$0000000D  mc_p.l(entry10a.o)
    0x000000d0   0x000000d0   0x00000000   Code   RO          242    .ARM.Collect$$$$0000000F  mc_p.l(entry11a.o)
    0x000000d0   0x000000d0   0x00000004   Code   RO          231    .ARM.Collect$$$$00002712  mc_p.l(entry2.o)
    0x000000d4   0x000000d4   0x00000014   Code   RO           14    .text               startup_mspm0g350x_uvision.o
    0x000000e8   0x000000e8   0x00000028   Code   RO          228    .text               mc_p.l(strstr.o)
    0x00000110   0x00000110   0x00000030   Code   RO          254    .text               mc_p.l(init.o)
    0x00000140   0x00000140   0x0000000a   Code   RO          139    .text.DL_Common_delayCycles  driverlib.a(dl_common.o)
    0x0000014a   0x0000014a   0x00000028   Code   RO           73    .text.DL_Common_updateReg  ti_msp_dl_config.o
    0x00000172   0x00000172   0x00000014   Code   RO           47    .text.DL_GPIO_clearPins  ti_msp_dl_config.o
    0x00000186   0x00000186   0x00000014   Code   RO           91    .text.DL_GPIO_clearPins  mid_debug_led.o
    0x0000019a   0x0000019a   0x00000002   PAD
    0x0000019c   0x0000019c   0x00000018   Code   RO           49    .text.DL_GPIO_enableOutput  ti_msp_dl_config.o
    0x000001b4   0x000001b4   0x00000014   Code   RO           35    .text.DL_GPIO_enablePower  ti_msp_dl_config.o
    0x000001c8   0x000001c8   0x0000002c   Code   RO           45    .text.DL_GPIO_initDigitalOutputFeatures  ti_msp_dl_config.o
    0x000001f4   0x000001f4   0x00000014   Code   RO           39    .text.DL_GPIO_initPeripheralAnalogFunction  ti_msp_dl_config.o
    0x00000208   0x00000208   0x0000001c   Code   RO           43    .text.DL_GPIO_initPeripheralInputFunction  ti_msp_dl_config.o
    0x00000224   0x00000224   0x0000001c   Code   RO           41    .text.DL_GPIO_initPeripheralOutputFunction  ti_msp_dl_config.o
    0x00000240   0x00000240   0x00000010   Code   RO           31    .text.DL_GPIO_reset  ti_msp_dl_config.o
    0x00000250   0x00000250   0x00000018   Code   RO           87    .text.DL_GPIO_setPins  mid_debug_led.o
    0x00000268   0x00000268   0x000000c0   Code   RO          188    .text.DL_SYSCTL_configSYSPLL  driverlib.a(dl_sysctl_mspm0g1x0x_g3x0x.o)
    0x00000328   0x00000328   0x0000000c   Code   RO           57    .text.DL_SYSCTL_disableHFXT  ti_msp_dl_config.o
    0x00000334   0x00000334   0x00000014   Code   RO           59    .text.DL_SYSCTL_disableSYSPLL  ti_msp_dl_config.o
    0x00000348   0x00000348   0x00000018   Code   RO           51    .text.DL_SYSCTL_setBORThreshold  ti_msp_dl_config.o
    0x00000360   0x00000360   0x0000001c   Code   RO           53    .text.DL_SYSCTL_setFlashWaitState  ti_msp_dl_config.o
    0x0000037c   0x0000037c   0x00000050   Code   RO          202    .text.DL_SYSCTL_setHFCLKSourceHFXTParams  driverlib.a(dl_sysctl_mspm0g1x0x_g3x0x.o)
    0x000003cc   0x000003cc   0x0000001c   Code   RO           55    .text.DL_SYSCTL_setSYSOSCFreq  ti_msp_dl_config.o
    0x000003e8   0x000003e8   0x00000018   Code   RO           61    .text.DL_SYSCTL_setULPCLKDivider  ti_msp_dl_config.o
    0x00000400   0x00000400   0x00000028   Code   RO          196    .text.DL_SYSCTL_switchMCLKfromSYSOSCtoHSCLK  driverlib.a(dl_sysctl_mspm0g1x0x_g3x0x.o)
    0x00000428   0x00000428   0x00000016   Code   RO           71    .text.DL_UART_enable  ti_msp_dl_config.o
    0x0000043e   0x0000043e   0x00000002   PAD
    0x00000440   0x00000440   0x0000001c   Code   RO           67    .text.DL_UART_enableInterrupt  ti_msp_dl_config.o
    0x0000045c   0x0000045c   0x00000018   Code   RO           37    .text.DL_UART_enablePower  ti_msp_dl_config.o
    0x00000474   0x00000474   0x00000012   Code   RO          125    .text.DL_UART_getPendingInterrupt  mid_debug_uart.o
    0x00000486   0x00000486   0x00000002   PAD
    0x00000488   0x00000488   0x00000048   Code   RO          148    .text.DL_UART_init  driverlib.a(dl_uart.o)
    0x000004d0   0x000004d0   0x00000018   Code   RO          113    .text.DL_UART_isBusy  mid_debug_uart.o
    0x000004e8   0x000004e8   0x00000014   Code   RO          127    .text.DL_UART_receiveData  mid_debug_uart.o
    0x000004fc   0x000004fc   0x00000018   Code   RO           33    .text.DL_UART_reset  ti_msp_dl_config.o
    0x00000514   0x00000514   0x0000004c   Code   RO           65    .text.DL_UART_setBaudRateDivisor  ti_msp_dl_config.o
    0x00000560   0x00000560   0x00000012   Code   RO          150    .text.DL_UART_setClockConfig  driverlib.a(dl_uart.o)
    0x00000572   0x00000572   0x0000001e   Code   RO           63    .text.DL_UART_setOversampling  ti_msp_dl_config.o
    0x00000590   0x00000590   0x00000016   Code   RO          115    .text.DL_UART_transmitData  mid_debug_uart.o
    0x000005a6   0x000005a6   0x00000002   PAD
    0x000005a8   0x000005a8   0x00000050   Code   RO           25    .text.SYSCFG_DL_GPIO_init  ti_msp_dl_config.o
    0x000005f8   0x000005f8   0x0000004c   Code   RO           27    .text.SYSCFG_DL_SYSCTL_init  ti_msp_dl_config.o
    0x00000644   0x00000644   0x00000050   Code   RO           29    .text.SYSCFG_DL_UART_DEBUG_init  ti_msp_dl_config.o
    0x00000694   0x00000694   0x00000014   Code   RO           21    .text.SYSCFG_DL_init  ti_msp_dl_config.o
    0x000006a8   0x000006a8   0x0000003c   Code   RO           23    .text.SYSCFG_DL_initPower  ti_msp_dl_config.o
    0x000006e4   0x000006e4   0x00000028   Code   RO          123    .text.UART0_IRQHandler  mid_debug_uart.o
    0x0000070c   0x0000070c   0x0000002c   Code   RO          107    .text.__NVIC_ClearPendingIRQ  mid_debug_uart.o
    0x00000738   0x00000738   0x0000002c   Code   RO          109    .text.__NVIC_EnableIRQ  mid_debug_uart.o
    0x00000764   0x00000764   0x00000084   Code   RO           69    .text.__NVIC_SetPriority  ti_msp_dl_config.o
    0x000007e8   0x000007e8   0x00000030   Code   RO          121    .text.clear_debug_uart_receive_data  mid_debug_uart.o
    0x00000818   0x00000818   0x00000016   Code   RO          105    .text.debug_uart_init  mid_debug_uart.o
    0x0000082e   0x0000082e   0x00000002   PAD
    0x00000830   0x00000830   0x00000028   Code   RO          129    .text.debug_uart_receive_limit_length  mid_debug_uart.o
    0x00000858   0x00000858   0x0000002c   Code   RO          111    .text.debug_uart_send_char  mid_debug_uart.o
    0x00000884   0x00000884   0x0000003c   Code   RO          117    .text.debug_uart_send_string  mid_debug_uart.o
    0x000008c0   0x000008c0   0x00000008   Code   RO          119    .text.get_debug_uart_receive_data  mid_debug_uart.o
    0x000008c8   0x000008c8   0x00000048   Code   RO            2    .text.main          empty.o
    0x00000910   0x00000910   0x00000014   Code   RO           89    .text.set_debug_led_off  mid_debug_led.o
    0x00000924   0x00000924   0x00000018   Code   RO           85    .text.set_debug_led_on  mid_debug_led.o
    0x0000093c   0x0000093c   0x0000002c   Code   RO           93    .text.set_debug_led_toggle  mid_debug_led.o
    0x00000968   0x00000968   0x0000000e   Code   RO          258    i.__scatterload_copy  mc_p.l(handlers.o)
    0x00000976   0x00000976   0x00000002   PAD
    0x00000978   0x00000978   0x00000002   Code   RO          259    i.__scatterload_null  mc_p.l(handlers.o)
    0x0000097a   0x0000097a   0x00000006   PAD
    0x00000980   0x00000980   0x0000000e   Code   RO          260    i.__scatterload_zeroinit  mc_p.l(handlers.o)
    0x0000098e   0x0000098e   0x00000002   PAD
    0x00000990   0x00000990   0x00000028   Data   RO           75    .rodata.gSYSPLLConfig  ti_msp_dl_config.o
    0x000009b8   0x000009b8   0x00000002   Data   RO           76    .rodata.gUART_DEBUGClockConfig  ti_msp_dl_config.o
    0x000009ba   0x000009ba   0x0000000a   Data   RO           77    .rodata.gUART_DEBUGConfig  ti_msp_dl_config.o
    0x000009c4   0x000009c4   0x0000002a   Data   RO            4    .rodata.str1.1      empty.o
    0x000009ee   0x000009ee   0x00000002   PAD
    0x000009f0   0x000009f0   0x00000010   Data   RO          257    Region$$Table       anon$$obj.o


    Execution Region RW_IRAM2 (Exec base: 0x20200000, Load base: 0x00000a00, Size: 0x00000188, Max: 0x00008000, ABSOLUTE)

    Exec Addr    Load Addr    Size         Type   Attr      Idx    E Section Name        Object

    0x20200000        -       0x00000001   Zero   RW           97    .bss.debug_led      mid_debug_led.o
    0x20200001   0x00000a00   0x00000003   PAD
    0x20200004        -       0x00000084   Zero   RW          131    .bss.debug_uart     mid_debug_uart.o
    0x20200088        -       0x00000100   Zero   RW           11    STACK               startup_mspm0g350x_uvision.o



  Load Region LR_BCR (Base: 0x41c00000, Size: 0x00000000, Max: 0x00000100, ABSOLUTE)

    Execution Region BCR_CONFIG (Exec base: 0x41c00000, Load base: 0x41c00000, Size: 0x00000000, Max: 0x000000ff, ABSOLUTE)

    **** No section assigned to this execution region ****



  Load Region LR_BSL (Base: 0x41c00100, Size: 0x00000000, Max: 0x00000100, ABSOLUTE)

    Execution Region BSL_CONFIG (Exec base: 0x41c00100, Load base: 0x41c00100, Size: 0x00000000, Max: 0x00000080, ABSOLUTE)

    **** No section assigned to this execution region ****


==============================================================================

Image component sizes


      Code (inc. data)   RO Data    RW Data    ZI Data      Debug   Object Name

        72         12         42          0          0        563   empty.o
       132         12          0          0          1       4146   mid_debug_led.o
       434         24          0          0        132       6354   mid_debug_uart.o
        20          4        192          0        256        648   startup_mspm0g350x_uvision.o
      1028         80         52          0          0      17454   ti_msp_dl_config.o

    ----------------------------------------------------------------------
      1696        132        304          0        392      29165   Object Totals
         0          0         16          0          0          0   (incl. Generated)
        10          0          2          0          3          0   (incl. Padding)

    ----------------------------------------------------------------------

      Code (inc. data)   RO Data    RW Data    ZI Data      Debug   Library Member Name

        10          0          0          0          0        790   dl_common.o
       312         24          0          0          0      12865   dl_sysctl_mspm0g1x0x_g3x0x.o
        90          8          0          0          0      14150   dl_uart.o
         0          0          0          0          0          0   entry.o
         0          0          0          0          0          0   entry10a.o
         0          0          0          0          0          0   entry11a.o
         8          4          0          0          0          0   entry2.o
         4          0          0          0          0          0   entry5.o
         0          0          0          0          0          0   entry7b.o
         0          0          0          0          0          0   entry8b.o
         8          4          0          0          0          0   entry9a.o
        30          0          0          0          0          0   handlers.o
        48         10          0          0          0         68   init.o
        40          0          0          0          0         72   strstr.o

    ----------------------------------------------------------------------
       560         50          0          0          0      27945   Library Totals
        10          0          0          0          0          0   (incl. Padding)

    ----------------------------------------------------------------------

      Code (inc. data)   RO Data    RW Data    ZI Data      Debug   Library Name

       412         32          0          0          0      27805   driverlib.a
       138         18          0          0          0        140   mc_p.l

    ----------------------------------------------------------------------
       560         50          0          0          0      27945   Library Totals

    ----------------------------------------------------------------------

==============================================================================


      Code (inc. data)   RO Data    RW Data    ZI Data      Debug   

      2256        182        304          0        392      57142   Grand Totals
      2256        182        304          0        392      57142   ELF Image Totals
      2256        182        304          0          0          0   ROM Totals

==============================================================================

    Total RO  Size (Code + RO Data)                 2560 (   2.50kB)
    Total RW  Size (RW Data + ZI Data)               392 (   0.38kB)
    Total ROM Size (Code + RO Data + RW Data)       2560 (   2.50kB)

==============================================================================

