Component: Arm Compiler for Embedded 6.21 Tool: armlink [5ec1fa00]

==============================================================================

Section Cross References

    empty.o(.text.main) refers to ti_msp_dl_config.o(.text.SYSCFG_DL_init) for SYSCFG_DL_init
    empty.o(.text.main) refers to mid_debug_uart.o(.text.debug_uart_init) for debug_uart_init
    empty.o(.text.main) refers to mid_button.o(.text.user_button_init) for user_button_init
    empty.o(.text.main) refers to hw_lcd.o(.text.lcd_init) for lcd_init
    empty.o(.text.main) refers to empty.o(.text.ui_home_page) for ui_home_page
    empty.o(.text.main) refers to mid_button.o(.text.flex_button_scan) for flex_button_scan
    empty.o(.text.main) refers to app_key_task.o(.text.get_app_key_current_mode) for get_app_key_current_mode
    empty.o(.text.main) refers to empty.o(.text.ui_home_page_select) for ui_home_page_select
    empty.o(.text.main) refers to dl_common.o(.text.DL_Common_delayCycles) for DL_Common_delayCycles
    empty.o(.ARM.exidx.text.main) refers to empty.o(.text.main) for [Anonymous Symbol]
    empty.o(.text.ui_home_page) refers to empty.o(.text.DL_GPIO_clearPins) for DL_GPIO_clearPins
    empty.o(.text.ui_home_page) refers to hw_lcd.o(.text.LCD_Fill) for LCD_Fill
    empty.o(.text.ui_home_page) refers to empty.o(.text.disp_x_center) for disp_x_center
    empty.o(.text.ui_home_page) refers to empty.o(.text.disp_string_rect) for disp_string_rect
    empty.o(.text.ui_home_page) refers to empty.o(.text.disp_select_box) for disp_select_box
    empty.o(.text.ui_home_page) refers to empty.o(.text.DL_GPIO_setPins) for DL_GPIO_setPins
    empty.o(.text.ui_home_page) refers to empty.o(.rodata.str1.1) for [Anonymous Symbol]
    empty.o(.ARM.exidx.text.ui_home_page) refers to empty.o(.text.ui_home_page) for [Anonymous Symbol]
==============================================================================

Removing Unused input sections from the image.

    Removing empty.o(.text), (0 bytes).
    Removing empty.o(.ARM.exidx.text.main), (8 bytes).
    Removing empty.o(.ARM.exidx.text.ui_home_page), (8 bytes).
    Removing empty.o(.ARM.exidx.text.ui_home_page_select), (8 bytes).
    Removing empty.o(.ARM.exidx.text.disp_x_center), (8 bytes).
    Removing empty.o(.ARM.exidx.text.disp_string_rect), (8 bytes).
    Removing empty.o(.ARM.exidx.text.disp_select_box), (8 bytes).
    Removing empty.o(.ARM.exidx.text.DL_GPIO_clearPins), (8 bytes).
    Removing empty.o(.ARM.exidx.text.DL_GPIO_setPins), (8 bytes).
    Removing empty.o(.ARM.use_no_argv), (4 bytes).
    Removing startup_mspm0g350x_uvision.o(HEAP), (1024 bytes).
    Removing ti_msp_dl_config.o(.text), (0 bytes).
    Removing ti_msp_dl_config.o(.ARM.exidx.text.SYSCFG_DL_init), (8 bytes).
    Removing ti_msp_dl_config.o(.ARM.exidx.text.SYSCFG_DL_initPower), (8 bytes).
    Removing ti_msp_dl_config.o(.ARM.exidx.text.SYSCFG_DL_GPIO_init), (8 bytes).
    Removing ti_msp_dl_config.o(.ARM.exidx.text.SYSCFG_DL_SYSCTL_init), (8 bytes).
    Removing ti_msp_dl_config.o(.ARM.exidx.text.SYSCFG_DL_PWM_MOTOR_init), (8 bytes).
    Removing ti_msp_dl_config.o(.ARM.exidx.text.SYSCFG_DL_UART_DEBUG_init), (8 bytes).
==============================================================================

Image Symbol Table

    Local Symbols

    Symbol Name                              Value     Ov Type        Size  Object(Section)

    ../clib/division.s                       0x00000000   Number         0  aeabi_sdivfast.o ABSOLUTE
    ../clib/division.s                       0x00000000   Number         0  aeabi_sdivfast_div0.o ABSOLUTE
    ../clib/microlib/division.c              0x00000000   Number         0  uidiv.o ABSOLUTE
    ../clib/microlib/division.c              0x00000000   Number         0  uidiv_div0.o ABSOLUTE
    ../clib/microlib/division.c              0x00000000   Number         0  idiv_div0.o ABSOLUTE
    ../clib/microlib/division.c              0x00000000   Number         0  idiv0.o ABSOLUTE
    ../clib/microlib/errno.c                 0x00000000   Number         0  errno.o ABSOLUTE
    ../clib/microlib/init/entry.s            0x00000000   Number         0  entry.o ABSOLUTE
    ../clib/microlib/init/entry.s            0x00000000   Number         0  entry2.o ABSOLUTE
    ../clib/microlib/init/entry.s            0x00000000   Number         0  entry5.o ABSOLUTE
    ../clib/microlib/init/entry.s            0x00000000   Number         0  entry7a.o ABSOLUTE
    ../clib/microlib/init/entry.s            0x00000000   Number         0  entry7b.o ABSOLUTE
    ../clib/microlib/init/entry.s            0x00000000   Number         0  entry8a.o ABSOLUTE
    ../clib/microlib/init/entry.s            0x00000000   Number         0  entry8b.o ABSOLUTE
    ../clib/microlib/init/entry.s            0x00000000   Number         0  entry9a.o ABSOLUTE
    ../clib/microlib/init/entry.s            0x00000000   Number         0  entry9b.o ABSOLUTE
    ../clib/microlib/init/entry.s            0x00000000   Number         0  entry10a.o ABSOLUTE
    ../clib/microlib/init/entry.s            0x00000000   Number         0  entry10b.o ABSOLUTE
    ../clib/microlib/init/entry.s            0x00000000   Number         0  entry11a.o ABSOLUTE
    ../clib/microlib/init/entry.s            0x00000000   Number         0  entry11b.o ABSOLUTE
    ../clib/microlib/longlong.c              0x00000000   Number         0  llushr.o ABSOLUTE
    ../clib/microlib/longlong.c              0x00000000   Number         0  llshl.o ABSOLUTE
    ../clib/microlib/string/memset.c         0x00000000   Number         0  memseta.o ABSOLUTE
    ../clib/microlib/stubs.s                 0x00000000   Number         0  iusefp.o ABSOLUTE
    ../fplib/microlib/fpepilogue.c           0x00000000   Number         0  depilogue.o ABSOLUTE
    ../fplib/microlib/fpfix.c                0x00000000   Number         0  ffixui.o ABSOLUTE
    ../fplib/microlib/fpfix.c                0x00000000   Number         0  dfixi.o ABSOLUTE
    ../fplib/microlib/fpflt.c                0x00000000   Number         0  dfltui.o ABSOLUTE
    ../fplib/microlib/fpmul.c                0x00000000   Number         0  fmul.o ABSOLUTE
    ../fplib/microlib/fpsqrt.c               0x00000000   Number         0  dsqrt.o ABSOLUTE
    ../mathlib/sqrt.c                        0x00000000   Number         0  sqrt.o ABSOLUTE
    app_key_task.c                           0x00000000   Number         0  app_key_task.o ABSOLUTE
    dc.s                                     0x00000000   Number         0  dc.o ABSOLUTE
    dl_common.c                              0x00000000   Number         0  dl_common.o ABSOLUTE
    dl_spi.c                                 0x00000000   Number         0  dl_spi.o ABSOLUTE
    dl_sysctl_mspm0g1x0x_g3x0x.c             0x00000000   Number         0  dl_sysctl_mspm0g1x0x_g3x0x.o ABSOLUTE
    dl_timer.c                               0x00000000   Number         0  dl_timer.o ABSOLUTE
    dl_uart.c                                0x00000000   Number         0  dl_uart.o ABSOLUTE
    empty.c                                  0x00000000   Number         0  empty.o ABSOLUTE
    handlers.s                               0x00000000   Number         0  handlers.o ABSOLUTE
    hw_key.c                                 0x00000000   Number         0  hw_key.o ABSOLUTE
    hw_lcd.c                                 0x00000000   Number         0  hw_lcd.o ABSOLUTE
    hw_motor.c                               0x00000000   Number         0  hw_motor.o ABSOLUTE
    init.s                                   0x00000000   Number         0  init.o ABSOLUTE
    mid_button.c                             0x00000000   Number         0  mid_button.o ABSOLUTE
    mid_debug_led.c                          0x00000000   Number         0  mid_debug_led.o ABSOLUTE
    mid_debug_uart.c                         0x00000000   Number         0  mid_debug_uart.o ABSOLUTE
    startup_mspm0g350x_uvision.s             0x00000000   Number         0  startup_mspm0g350x_uvision.o ABSOLUTE
    ti_msp_dl_config.c                       0x00000000   Number         0  ti_msp_dl_config.o ABSOLUTE
    RESET                                    0x00000000   Section      192  startup_mspm0g350x_uvision.o(RESET)
    .ARM.Collect$$$$00000000                 0x000000c0   Section        0  entry.o(.ARM.Collect$$$$00000000)
    .ARM.Collect$$$$00000001                 0x000000c0   Section        4  entry2.o(.ARM.Collect$$$$00000001)
    .ARM.Collect$$$$00000004                 0x000000c4   Section        4  entry5.o(.ARM.Collect$$$$00000004)
    .ARM.Collect$$$$00000008                 0x000000c8   Section        0  entry7b.o(.ARM.Collect$$$$00000008)
    .ARM.Collect$$$$0000000A                 0x000000c8   Section        0  entry8b.o(.ARM.Collect$$$$0000000A)
    .ARM.Collect$$$$0000000B                 0x000000c8   Section        8  entry9a.o(.ARM.Collect$$$$0000000B)
    __lit__00000000                          0x000000d0   Data           4  entry2.o(.ARM.Collect$$$$00002712)
    .ARM.Collect$$$$0000000D                 0x000000d0   Section        0  entry10a.o(.ARM.Collect$$$$0000000D)
    .ARM.Collect$$$$0000000F                 0x000000d0   Section        0  entry11a.o(.ARM.Collect$$$$0000000F)
    .ARM.Collect$$$$00002712                 0x000000d0   Section        4  entry2.o(.ARM.Collect$$$$00002712)
    .text                                    0x000000d4   Section       20  startup_mspm0g350x_uvision.o(.text)
    .text                                    0x000000e8   Section        0  memseta.o(.text)
    .text                                    0x0000010c   Section        0  dfltui.o(.text)
    .text                                    0x00000128   Section        0  dfixi.o(.text)
    .text                                    0x00000170   Section        0  uidiv_div0.o(.text)
    .text                                    0x000001ae   Section        0  llushr.o(.text)
    .text                                    0x000001d0   Section        0  iusefp.o(.text)
    .text                                    0x000001d0   Section        0  depilogue.o(.text)
    .text                                    0x0000028e   Section        0  dsqrt.o(.text)
    .text                                    0x00000330   Section       48  init.o(.text)
    .text                                    0x00000360   Section        0  llshl.o(.text)
    [Anonymous Symbol]                       0x00000380   Section        0  dl_common.o(.text.DL_Common_delayCycles)
    DL_Common_updateReg                      0x0000038b   Thumb Code    40  ti_msp_dl_config.o(.text.DL_Common_updateReg)
    [Anonymous Symbol]                       0x0000038a   Section        0  ti_msp_dl_config.o(.text.DL_Common_updateReg)
    DL_GPIO_clearPins                        0x000003b3   Thumb Code    20  empty.o(.text.DL_GPIO_clearPins)
    [Anonymous Symbol]                       0x000003b2   Section        0  empty.o(.text.DL_GPIO_clearPins)
    DL_GPIO_clearPins                        0x000003c7   Thumb Code    20  ti_msp_dl_config.o(.text.DL_GPIO_clearPins)
    [Anonymous Symbol]                       0x000003c6   Section        0  ti_msp_dl_config.o(.text.DL_GPIO_clearPins)
    DL_GPIO_clearPins                        0x000003db   Thumb Code    20  hw_lcd.o(.text.DL_GPIO_clearPins)
    [Anonymous Symbol]                       0x000003da   Section        0  hw_lcd.o(.text.DL_GPIO_clearPins)
    DL_GPIO_enableOutput                     0x000003f1   Thumb Code    20  ti_msp_dl_config.o(.text.DL_GPIO_enableOutput)
    [Anonymous Symbol]                       0x000003f0   Section        0  ti_msp_dl_config.o(.text.DL_GPIO_enableOutput)
    __arm_cp.19_0                            0x00000404   Number         4  ti_msp_dl_config.o(.text.DL_GPIO_enableOutput)
    DL_GPIO_enablePower                      0x00000409   Thumb Code    20  ti_msp_dl_config.o(.text.DL_GPIO_enablePower)
    [Anonymous Symbol]                       0x00000408   Section        0  ti_msp_dl_config.o(.text.DL_GPIO_enablePower)
    DL_GPIO_initDigitalInputFeatures         0x0000041d   Thumb Code    44  ti_msp_dl_config.o(.text.DL_GPIO_initDigitalInputFeatures)
    [Anonymous Symbol]                       0x0000041c   Section        0  ti_msp_dl_config.o(.text.DL_GPIO_initDigitalInputFeatures)
    __arm_cp.23_0                            0x00000448   Number         4  ti_msp_dl_config.o(.text.DL_GPIO_initDigitalInputFeatures)
    DL_GPIO_initDigitalOutput                0x0000044d   Thumb Code    20  ti_msp_dl_config.o(.text.DL_GPIO_initDigitalOutput)
    [Anonymous Symbol]                       0x0000044c   Section        0  ti_msp_dl_config.o(.text.DL_GPIO_initDigitalOutput)
    DL_GPIO_initDigitalOutputFeatures        0x00000461   Thumb Code    44  ti_msp_dl_config.o(.text.DL_GPIO_initDigitalOutputFeatures)
    [Anonymous Symbol]                       0x00000460   Section        0  ti_msp_dl_config.o(.text.DL_GPIO_initDigitalOutputFeatures)
    DL_GPIO_initPeripheralAnalogFunction     0x0000048d   Thumb Code    20  ti_msp_dl_config.o(.text.DL_GPIO_initPeripheralAnalogFunction)
    [Anonymous Symbol]                       0x0000048c   Section        0  ti_msp_dl_config.o(.text.DL_GPIO_initPeripheralAnalogFunction)
    DL_GPIO_initPeripheralInputFunction      0x000004a1   Thumb Code    24  ti_msp_dl_config.o(.text.DL_GPIO_initPeripheralInputFunction)
    [Anonymous Symbol]                       0x000004a0   Section        0  ti_msp_dl_config.o(.text.DL_GPIO_initPeripheralInputFunction)
    __arm_cp.20_0                            0x000004b8   Number         4  ti_msp_dl_config.o(.text.DL_GPIO_initPeripheralInputFunction)
    DL_GPIO_initPeripheralOutputFunction     0x000004bd   Thumb Code    24  ti_msp_dl_config.o(.text.DL_GPIO_initPeripheralOutputFunction)
    [Anonymous Symbol]                       0x000004bc   Section        0  ti_msp_dl_config.o(.text.DL_GPIO_initPeripheralOutputFunction)
    __arm_cp.18_0                            0x000004d4   Number         4  ti_msp_dl_config.o(.text.DL_GPIO_initPeripheralOutputFunction)
    DL_GPIO_readPins                         0x000004d9   Thumb Code    22  hw_key.o(.text.DL_GPIO_readPins)
    [Anonymous Symbol]                       0x000004d8   Section        0  hw_key.o(.text.DL_GPIO_readPins)
    DL_GPIO_reset                            0x000004f1   Thumb Code    16  ti_msp_dl_config.o(.text.DL_GPIO_reset)
    [Anonymous Symbol]                       0x000004f0   Section        0  ti_msp_dl_config.o(.text.DL_GPIO_reset)
    DL_GPIO_setPins                          0x00000501   Thumb Code    20  empty.o(.text.DL_GPIO_setPins)
    [Anonymous Symbol]                       0x00000500   Section        0  empty.o(.text.DL_GPIO_setPins)
    DL_GPIO_setPins                          0x00000515   Thumb Code    20  hw_lcd.o(.text.DL_GPIO_setPins)
    [Anonymous Symbol]                       0x00000514   Section        0  hw_lcd.o(.text.DL_GPIO_setPins)
    __arm_cp.5_0                             0x00000528   Number         4  hw_lcd.o(.text.DL_GPIO_setPins)
    DL_SPI_enable                            0x0000052d   Thumb Code    20  ti_msp_dl_config.o(.text.DL_SPI_enable)
    [Anonymous Symbol]                       0x0000052c   Section        0  ti_msp_dl_config.o(.text.DL_SPI_enable)
    __arm_cp.41_0                            0x00000540   Number         4  ti_msp_dl_config.o(.text.DL_SPI_enable)
    DL_SPI_enablePower                       0x00000545   Thumb Code    20  ti_msp_dl_config.o(.text.DL_SPI_enablePower)
    [Anonymous Symbol]                       0x00000544   Section        0  ti_msp_dl_config.o(.text.DL_SPI_enablePower)
    __arm_cp.16_0                            0x00000558   Number         4  ti_msp_dl_config.o(.text.DL_SPI_enablePower)
    [Anonymous Symbol]                       0x0000055c   Section        0  dl_spi.o(.text.DL_SPI_init)
    __arm_cp.0_0                             0x00000598   Number         4  dl_spi.o(.text.DL_SPI_init)
    __arm_cp.0_1                             0x0000059c   Number         4  dl_spi.o(.text.DL_SPI_init)
    DL_SPI_isBusy                            0x000005a1   Thumb Code    20  hw_lcd.o(.text.DL_SPI_isBusy)
    [Anonymous Symbol]                       0x000005a0   Section        0  hw_lcd.o(.text.DL_SPI_isBusy)
    __arm_cp.2_0                             0x000005b4   Number         4  hw_lcd.o(.text.DL_SPI_isBusy)
    DL_SPI_reset                             0x000005b9   Thumb Code    16  ti_msp_dl_config.o(.text.DL_SPI_reset)
    [Anonymous Symbol]                       0x000005b8   Section        0  ti_msp_dl_config.o(.text.DL_SPI_reset)
    __arm_cp.12_0                            0x000005c8   Number         4  ti_msp_dl_config.o(.text.DL_SPI_reset)
    __arm_cp.12_1                            0x000005cc   Number         4  ti_msp_dl_config.o(.text.DL_SPI_reset)
    DL_SPI_setBitRateSerialClockDivider      0x000005d1   Thumb Code    28  ti_msp_dl_config.o(.text.DL_SPI_setBitRateSerialClockDivider)
    [Anonymous Symbol]                       0x000005d0   Section        0  ti_msp_dl_config.o(.text.DL_SPI_setBitRateSerialClockDivider)
    __arm_cp.39_1                            0x000005ec   Number         4  ti_msp_dl_config.o(.text.DL_SPI_setBitRateSerialClockDivider)
    [Anonymous Symbol]                       0x000005f0   Section        0  dl_spi.o(.text.DL_SPI_setClockConfig)
    DL_SPI_setFIFOThreshold                  0x00000605   Thumb Code    44  ti_msp_dl_config.o(.text.DL_SPI_setFIFOThreshold)
    [Anonymous Symbol]                       0x00000604   Section        0  ti_msp_dl_config.o(.text.DL_SPI_setFIFOThreshold)
    DL_SPI_transmitData8                     0x00000631   Thumb Code    22  hw_lcd.o(.text.DL_SPI_transmitData8)
    [Anonymous Symbol]                       0x00000630   Section        0  hw_lcd.o(.text.DL_SPI_transmitData8)
    [Anonymous Symbol]                       0x00000648   Section        0  dl_sysctl_mspm0g1x0x_g3x0x.o(.text.DL_SYSCTL_configSYSPLL)
    __arm_cp.0_2                             0x000006fc   Number         4  dl_sysctl_mspm0g1x0x_g3x0x.o(.text.DL_SYSCTL_configSYSPLL)
    __arm_cp.0_3                             0x00000700   Number         4  dl_sysctl_mspm0g1x0x_g3x0x.o(.text.DL_SYSCTL_configSYSPLL)
    __arm_cp.0_4                             0x00000704   Number         4  dl_sysctl_mspm0g1x0x_g3x0x.o(.text.DL_SYSCTL_configSYSPLL)
    DL_SYSCTL_disableHFXT                    0x00000709   Thumb Code    12  ti_msp_dl_config.o(.text.DL_SYSCTL_disableHFXT)
    [Anonymous Symbol]                       0x00000708   Section        0  ti_msp_dl_config.o(.text.DL_SYSCTL_disableHFXT)
    DL_SYSCTL_disableSYSPLL                  0x00000715   Thumb Code    16  ti_msp_dl_config.o(.text.DL_SYSCTL_disableSYSPLL)
    [Anonymous Symbol]                       0x00000714   Section        0  ti_msp_dl_config.o(.text.DL_SYSCTL_disableSYSPLL)
    __arm_cp.29_0                            0x00000724   Number         4  ti_msp_dl_config.o(.text.DL_SYSCTL_disableSYSPLL)
    DL_SYSCTL_setBORThreshold                0x00000729   Thumb Code    20  ti_msp_dl_config.o(.text.DL_SYSCTL_setBORThreshold)
    [Anonymous Symbol]                       0x00000728   Section        0  ti_msp_dl_config.o(.text.DL_SYSCTL_setBORThreshold)
    __arm_cp.25_0                            0x0000073c   Number         4  ti_msp_dl_config.o(.text.DL_SYSCTL_setBORThreshold)
    DL_SYSCTL_setFlashWaitState              0x00000741   Thumb Code    28  ti_msp_dl_config.o(.text.DL_SYSCTL_setFlashWaitState)
    [Anonymous Symbol]                       0x00000740   Section        0  ti_msp_dl_config.o(.text.DL_SYSCTL_setFlashWaitState)
    [Anonymous Symbol]                       0x0000075c   Section        0  dl_sysctl_mspm0g1x0x_g3x0x.o(.text.DL_SYSCTL_setHFCLKSourceHFXTParams)
    __arm_cp.7_0                             0x000007a8   Number         4  dl_sysctl_mspm0g1x0x_g3x0x.o(.text.DL_SYSCTL_setHFCLKSourceHFXTParams)
    DL_SYSCTL_setSYSOSCFreq                  0x000007ad   Thumb Code    24  ti_msp_dl_config.o(.text.DL_SYSCTL_setSYSOSCFreq)
    [Anonymous Symbol]                       0x000007ac   Section        0  ti_msp_dl_config.o(.text.DL_SYSCTL_setSYSOSCFreq)
    __arm_cp.27_0                            0x000007c4   Number         4  ti_msp_dl_config.o(.text.DL_SYSCTL_setSYSOSCFreq)
    DL_SYSCTL_setULPCLKDivider               0x000007c9   Thumb Code    24  ti_msp_dl_config.o(.text.DL_SYSCTL_setULPCLKDivider)
    [Anonymous Symbol]                       0x000007c8   Section        0  ti_msp_dl_config.o(.text.DL_SYSCTL_setULPCLKDivider)
    [Anonymous Symbol]                       0x000007e0   Section        0  dl_sysctl_mspm0g1x0x_g3x0x.o(.text.DL_SYSCTL_switchMCLKfromSYSOSCtoHSCLK)
    __arm_cp.4_0                             0x00000800   Number         4  dl_sysctl_mspm0g1x0x_g3x0x.o(.text.DL_SYSCTL_switchMCLKfromSYSOSCtoHSCLK)
    __arm_cp.4_1                             0x00000804   Number         4  dl_sysctl_mspm0g1x0x_g3x0x.o(.text.DL_SYSCTL_switchMCLKfromSYSOSCtoHSCLK)
    DL_Timer_enableClock                     0x00000809   Thumb Code    16  ti_msp_dl_config.o(.text.DL_Timer_enableClock)
    [Anonymous Symbol]                       0x00000808   Section        0  ti_msp_dl_config.o(.text.DL_Timer_enableClock)
    __arm_cp.32_0                            0x00000818   Number         4  ti_msp_dl_config.o(.text.DL_Timer_enableClock)
    DL_Timer_enablePower                     0x0000081d   Thumb Code    20  ti_msp_dl_config.o(.text.DL_Timer_enablePower)
    [Anonymous Symbol]                       0x0000081c   Section        0  ti_msp_dl_config.o(.text.DL_Timer_enablePower)
    __arm_cp.14_0                            0x00000830   Number         4  ti_msp_dl_config.o(.text.DL_Timer_enablePower)
    [Anonymous Symbol]                       0x00000834   Section        0  dl_timer.o(.text.DL_Timer_initFourCCPWMMode)
    __arm_cp.40_1                            0x00000928   Number         4  dl_timer.o(.text.DL_Timer_initFourCCPWMMode)
    __arm_cp.40_2                            0x0000092c   Number         4  dl_timer.o(.text.DL_Timer_initFourCCPWMMode)
    __arm_cp.40_3                            0x00000930   Number         4  dl_timer.o(.text.DL_Timer_initFourCCPWMMode)
    __arm_cp.40_4                            0x00000934   Number         4  dl_timer.o(.text.DL_Timer_initFourCCPWMMode)
    __arm_cp.40_5                            0x00000938   Number         4  dl_timer.o(.text.DL_Timer_initFourCCPWMMode)
    __arm_cp.40_6                            0x0000093c   Number         4  dl_timer.o(.text.DL_Timer_initFourCCPWMMode)
    DL_Timer_reset                           0x00000941   Thumb Code    16  ti_msp_dl_config.o(.text.DL_Timer_reset)
    [Anonymous Symbol]                       0x00000940   Section        0  ti_msp_dl_config.o(.text.DL_Timer_reset)
    __arm_cp.10_0                            0x00000950   Number         4  ti_msp_dl_config.o(.text.DL_Timer_reset)
    __arm_cp.10_1                            0x00000954   Number         4  ti_msp_dl_config.o(.text.DL_Timer_reset)
    DL_Timer_setCCPDirection                 0x00000959   Thumb Code    20  ti_msp_dl_config.o(.text.DL_Timer_setCCPDirection)
    [Anonymous Symbol]                       0x00000958   Section        0  ti_msp_dl_config.o(.text.DL_Timer_setCCPDirection)
    [Anonymous Symbol]                       0x0000096c   Section        0  dl_timer.o(.text.DL_Timer_setCaptCompUpdateMethod)
    __arm_cp.23_0                            0x00000984   Number         4  dl_timer.o(.text.DL_Timer_setCaptCompUpdateMethod)
    [Anonymous Symbol]                       0x00000988   Section        0  dl_timer.o(.text.DL_Timer_setCaptureCompareOutCtl)
    __arm_cp.27_0                            0x0000099c   Number         4  dl_timer.o(.text.DL_Timer_setCaptureCompareOutCtl)
    [Anonymous Symbol]                       0x000009a0   Section        0  dl_timer.o(.text.DL_Timer_setCaptureCompareValue)
    __arm_cp.3_0                             0x000009ac   Number         4  dl_timer.o(.text.DL_Timer_setCaptureCompareValue)
    [Anonymous Symbol]                       0x000009b0   Section        0  dl_timer.o(.text.DL_Timer_setClockConfig)
    __arm_cp.0_0                             0x000009c8   Number         4  dl_timer.o(.text.DL_Timer_setClockConfig)
    DL_Timer_setCounterControl               0x000009cd   Thumb Code    52  ti_msp_dl_config.o(.text.DL_Timer_setCounterControl)
    [Anonymous Symbol]                       0x000009cc   Section        0  ti_msp_dl_config.o(.text.DL_Timer_setCounterControl)
    __arm_cp.31_0                            0x00000a00   Number         4  ti_msp_dl_config.o(.text.DL_Timer_setCounterControl)
    __arm_cp.31_1                            0x00000a04   Number         4  ti_msp_dl_config.o(.text.DL_Timer_setCounterControl)
    DL_UART_enable                           0x00000a09   Thumb Code    22  ti_msp_dl_config.o(.text.DL_UART_enable)
    [Anonymous Symbol]                       0x00000a08   Section        0  ti_msp_dl_config.o(.text.DL_UART_enable)
    DL_UART_enableInterrupt                  0x00000a21   Thumb Code    24  ti_msp_dl_config.o(.text.DL_UART_enableInterrupt)
    [Anonymous Symbol]                       0x00000a20   Section        0  ti_msp_dl_config.o(.text.DL_UART_enableInterrupt)
    __arm_cp.36_0                            0x00000a38   Number         4  ti_msp_dl_config.o(.text.DL_UART_enableInterrupt)
    DL_UART_enablePower                      0x00000a3d   Thumb Code    20  ti_msp_dl_config.o(.text.DL_UART_enablePower)
    [Anonymous Symbol]                       0x00000a3c   Section        0  ti_msp_dl_config.o(.text.DL_UART_enablePower)
    __arm_cp.15_0                            0x00000a50   Number         4  ti_msp_dl_config.o(.text.DL_UART_enablePower)
    DL_UART_getPendingInterrupt              0x00000a55   Thumb Code    18  mid_debug_uart.o(.text.DL_UART_getPendingInterrupt)
    [Anonymous Symbol]                       0x00000a54   Section        0  mid_debug_uart.o(.text.DL_UART_getPendingInterrupt)
    [Anonymous Symbol]                       0x00000a68   Section        0  dl_uart.o(.text.DL_UART_init)
    __arm_cp.0_0                             0x00000aa8   Number         4  dl_uart.o(.text.DL_UART_init)
    __arm_cp.0_1                             0x00000aac   Number         4  dl_uart.o(.text.DL_UART_init)
    DL_UART_receiveData                      0x00000ab1   Thumb Code    16  mid_debug_uart.o(.text.DL_UART_receiveData)
    [Anonymous Symbol]                       0x00000ab0   Section        0  mid_debug_uart.o(.text.DL_UART_receiveData)
    __arm_cp.11_0                            0x00000ac0   Number         4  mid_debug_uart.o(.text.DL_UART_receiveData)
    DL_UART_reset                            0x00000ac5   Thumb Code    16  ti_msp_dl_config.o(.text.DL_UART_reset)
    [Anonymous Symbol]                       0x00000ac4   Section        0  ti_msp_dl_config.o(.text.DL_UART_reset)
    __arm_cp.11_0                            0x00000ad4   Number         4  ti_msp_dl_config.o(.text.DL_UART_reset)
    __arm_cp.11_1                            0x00000ad8   Number         4  ti_msp_dl_config.o(.text.DL_UART_reset)
    DL_UART_setBaudRateDivisor               0x00000add   Thumb Code    60  ti_msp_dl_config.o(.text.DL_UART_setBaudRateDivisor)
    [Anonymous Symbol]                       0x00000adc   Section        0  ti_msp_dl_config.o(.text.DL_UART_setBaudRateDivisor)
    __arm_cp.35_0                            0x00000b18   Number         4  ti_msp_dl_config.o(.text.DL_UART_setBaudRateDivisor)
    __arm_cp.35_1                            0x00000b1c   Number         4  ti_msp_dl_config.o(.text.DL_UART_setBaudRateDivisor)
    __arm_cp.35_2                            0x00000b20   Number         4  ti_msp_dl_config.o(.text.DL_UART_setBaudRateDivisor)
    __arm_cp.35_3                            0x00000b24   Number         4  ti_msp_dl_config.o(.text.DL_UART_setBaudRateDivisor)
    [Anonymous Symbol]                       0x00000b28   Section        0  dl_uart.o(.text.DL_UART_setClockConfig)
    DL_UART_setOversampling                  0x00000b3b   Thumb Code    30  ti_msp_dl_config.o(.text.DL_UART_setOversampling)
    [Anonymous Symbol]                       0x00000b3a   Section        0  ti_msp_dl_config.o(.text.DL_UART_setOversampling)
    [Anonymous Symbol]                       0x00000b58   Section        0  hw_lcd.o(.text.Drawarc)
    [Anonymous Symbol]                       0x00000caa   Section        0  hw_lcd.o(.text.LCD_Address_Set)
    [Anonymous Symbol]                       0x00000ce8   Section        0  hw_lcd.o(.text.LCD_ArcRect)
    [Anonymous Symbol]                       0x00000e32   Section        0  hw_lcd.o(.text.LCD_DrawLine)
    [Anonymous Symbol]                       0x00000f3e   Section        0  hw_lcd.o(.text.LCD_DrawPoint)
    [Anonymous Symbol]                       0x00000f5e   Section        0  hw_lcd.o(.text.LCD_Fill)
    [Anonymous Symbol]                       0x00000fbc   Section        0  hw_lcd.o(.text.LCD_ShowChar)
    __arm_cp.24_0                            0x00001188   Number         4  hw_lcd.o(.text.LCD_ShowChar)
    __arm_cp.24_1                            0x0000118c   Number         4  hw_lcd.o(.text.LCD_ShowChar)
    __arm_cp.24_2                            0x00001190   Number         4  hw_lcd.o(.text.LCD_ShowChar)
    __arm_cp.24_3                            0x00001194   Number         4  hw_lcd.o(.text.LCD_ShowChar)
    [Anonymous Symbol]                       0x00001198   Section        0  hw_lcd.o(.text.LCD_ShowChinese)
    [Anonymous Symbol]                       0x000012c0   Section        0  hw_lcd.o(.text.LCD_ShowChinese12x12)
    __arm_cp.20_0                            0x00001458   Number         4  hw_lcd.o(.text.LCD_ShowChinese12x12)
    [Anonymous Symbol]                       0x0000145c   Section        0  hw_lcd.o(.text.LCD_ShowChinese16x16)
    __arm_cp.21_0                            0x000015f4   Number         4  hw_lcd.o(.text.LCD_ShowChinese16x16)
    [Anonymous Symbol]                       0x000015f8   Section        0  hw_lcd.o(.text.LCD_ShowChinese24x24)
    __arm_cp.22_0                            0x00001790   Number         4  hw_lcd.o(.text.LCD_ShowChinese24x24)
    [Anonymous Symbol]                       0x00001794   Section        0  hw_lcd.o(.text.LCD_ShowChinese32x32)
    __arm_cp.23_0                            0x0000192c   Number         4  hw_lcd.o(.text.LCD_ShowChinese32x32)
    [Anonymous Symbol]                       0x00001930   Section        0  hw_lcd.o(.text.LCD_WR_DATA)
    [Anonymous Symbol]                       0x0000194c   Section        0  hw_lcd.o(.text.LCD_WR_DATA8)
    [Anonymous Symbol]                       0x00001960   Section        0  hw_lcd.o(.text.LCD_WR_REG)
    [Anonymous Symbol]                       0x0000198c   Section        0  hw_lcd.o(.text.LCD_Writ_Bus)
    [Anonymous Symbol]                       0x000019b8   Section        0  ti_msp_dl_config.o(.text.SYSCFG_DL_GPIO_init)
    __arm_cp.2_2                             0x00001a98   Number         4  ti_msp_dl_config.o(.text.SYSCFG_DL_GPIO_init)
    [Anonymous Symbol]                       0x00001a9c   Section        0  ti_msp_dl_config.o(.text.SYSCFG_DL_PWM_MOTOR_init)
    __arm_cp.4_0                             0x00001b1c   Number         4  ti_msp_dl_config.o(.text.SYSCFG_DL_PWM_MOTOR_init)
    __arm_cp.4_2                             0x00001b20   Number         4  ti_msp_dl_config.o(.text.SYSCFG_DL_PWM_MOTOR_init)
    __arm_cp.4_3                             0x00001b24   Number         4  ti_msp_dl_config.o(.text.SYSCFG_DL_PWM_MOTOR_init)
    [Anonymous Symbol]                       0x00001b28   Section        0  ti_msp_dl_config.o(.text.SYSCFG_DL_SPI_LCD_init)
    __arm_cp.6_0                             0x00001b5c   Number         4  ti_msp_dl_config.o(.text.SYSCFG_DL_SPI_LCD_init)
    __arm_cp.6_2                             0x00001b60   Number         4  ti_msp_dl_config.o(.text.SYSCFG_DL_SPI_LCD_init)
    [Anonymous Symbol]                       0x00001b64   Section        0  ti_msp_dl_config.o(.text.SYSCFG_DL_SYSCTL_init)
    __arm_cp.3_0                             0x00001bac   Number         4  ti_msp_dl_config.o(.text.SYSCFG_DL_SYSCTL_init)
    [Anonymous Symbol]                       0x00001bb0   Section        0  ti_msp_dl_config.o(.text.SYSCFG_DL_UART_DEBUG_init)
    __arm_cp.5_0                             0x00001bf8   Number         4  ti_msp_dl_config.o(.text.SYSCFG_DL_UART_DEBUG_init)
    __arm_cp.5_2                             0x00001bfc   Number         4  ti_msp_dl_config.o(.text.SYSCFG_DL_UART_DEBUG_init)
    [Anonymous Symbol]                       0x00001c00   Section        0  ti_msp_dl_config.o(.text.SYSCFG_DL_init)
    __arm_cp.0_0                             0x00001c2c   Number         4  ti_msp_dl_config.o(.text.SYSCFG_DL_init)
    __arm_cp.0_1                             0x00001c30   Number         4  ti_msp_dl_config.o(.text.SYSCFG_DL_init)
    [Anonymous Symbol]                       0x00001c34   Section        0  ti_msp_dl_config.o(.text.SYSCFG_DL_initPower)
    __arm_cp.1_0                             0x00001c88   Number         4  ti_msp_dl_config.o(.text.SYSCFG_DL_initPower)
    __arm_cp.1_1                             0x00001c8c   Number         4  ti_msp_dl_config.o(.text.SYSCFG_DL_initPower)
    __arm_cp.1_2                             0x00001c90   Number         4  ti_msp_dl_config.o(.text.SYSCFG_DL_initPower)
    __arm_cp.1_4                             0x00001c94   Number         4  ti_msp_dl_config.o(.text.SYSCFG_DL_initPower)
    [Anonymous Symbol]                       0x00001c98   Section        0  mid_debug_uart.o(.text.UART0_IRQHandler)
    __arm_cp.9_0                             0x00001cc0   Number         4  mid_debug_uart.o(.text.UART0_IRQHandler)
    __NVIC_ClearPendingIRQ                   0x00001cc5   Thumb Code    40  mid_debug_uart.o(.text.__NVIC_ClearPendingIRQ)
    [Anonymous Symbol]                       0x00001cc4   Section        0  mid_debug_uart.o(.text.__NVIC_ClearPendingIRQ)
    __arm_cp.1_0                             0x00001cec   Number         4  mid_debug_uart.o(.text.__NVIC_ClearPendingIRQ)
    __NVIC_EnableIRQ                         0x00001cf1   Thumb Code    40  mid_debug_uart.o(.text.__NVIC_EnableIRQ)
    [Anonymous Symbol]                       0x00001cf0   Section        0  mid_debug_uart.o(.text.__NVIC_EnableIRQ)
    __arm_cp.2_0                             0x00001d18   Number         4  mid_debug_uart.o(.text.__NVIC_EnableIRQ)
    __NVIC_SetPriority                       0x00001d1d   Thumb Code   124  ti_msp_dl_config.o(.text.__NVIC_SetPriority)
    [Anonymous Symbol]                       0x00001d1c   Section        0  ti_msp_dl_config.o(.text.__NVIC_SetPriority)
    __arm_cp.37_0                            0x00001d98   Number         4  ti_msp_dl_config.o(.text.__NVIC_SetPriority)
    __arm_cp.37_1                            0x00001d9c   Number         4  ti_msp_dl_config.o(.text.__NVIC_SetPriority)
    [Anonymous Symbol]                       0x00001da0   Section        0  app_key_task.o(.text.btn_down_cb)
    [Anonymous Symbol]                       0x00001dd0   Section        0  app_key_task.o(.text.btn_left_cb)
    [Anonymous Symbol]                       0x00001e04   Section        0  app_key_task.o(.text.btn_right_cb)
    __arm_cp.4_0                             0x00001e64   Number         4  app_key_task.o(.text.btn_right_cb)
    __arm_cp.4_1                             0x00001e68   Number         4  app_key_task.o(.text.btn_right_cb)
    [Anonymous Symbol]                       0x00001e6c   Section        0  app_key_task.o(.text.btn_up_cb)
    button_down_read                         0x00001e9d   Thumb Code    22  mid_button.o(.text.button_down_read)
    [Anonymous Symbol]                       0x00001e9c   Section        0  mid_button.o(.text.button_down_read)
    button_left_read                         0x00001eb3   Thumb Code    22  mid_button.o(.text.button_left_read)
    [Anonymous Symbol]                       0x00001eb2   Section        0  mid_button.o(.text.button_left_read)
    button_right_read                        0x00001ec9   Thumb Code    22  mid_button.o(.text.button_right_read)
    [Anonymous Symbol]                       0x00001ec8   Section        0  mid_button.o(.text.button_right_read)
    button_up_read                           0x00001edf   Thumb Code    22  mid_button.o(.text.button_up_read)
    [Anonymous Symbol]                       0x00001ede   Section        0  mid_button.o(.text.button_up_read)
    [Anonymous Symbol]                       0x00001ef4   Section        0  mid_debug_uart.o(.text.debug_uart_init)
    debug_uart_receive_limit_length          0x00001f0d   Thumb Code    40  mid_debug_uart.o(.text.debug_uart_receive_limit_length)
    [Anonymous Symbol]                       0x00001f0c   Section        0  mid_debug_uart.o(.text.debug_uart_receive_limit_length)
    __arm_cp.12_0                            0x00001f34   Number         4  mid_debug_uart.o(.text.debug_uart_receive_limit_length)
    [Anonymous Symbol]                       0x00001f38   Section        0  empty.o(.text.disp_select_box)
    [Anonymous Symbol]                       0x00002024   Section        0  empty.o(.text.disp_string_rect)
    [Anonymous Symbol]                       0x000020a8   Section        0  empty.o(.text.disp_x_center)
    __arm_cp.3_0                             0x00002108   Number         4  empty.o(.text.disp_x_center)
    flex_button_process                      0x0000210d   Thumb Code  1016  mid_button.o(.text.flex_button_process)
    [Anonymous Symbol]                       0x0000210c   Section        0  mid_button.o(.text.flex_button_process)
    __arm_cp.9_0                             0x00002504   Number         4  mid_button.o(.text.flex_button_process)
    __arm_cp.9_1                             0x00002508   Number         4  mid_button.o(.text.flex_button_process)
    __arm_cp.9_2                             0x0000250c   Number         4  mid_button.o(.text.flex_button_process)
    flex_button_read                         0x00002511   Thumb Code   188  mid_button.o(.text.flex_button_read)
    [Anonymous Symbol]                       0x00002510   Section        0  mid_button.o(.text.flex_button_read)
    __arm_cp.8_1                             0x000025cc   Number         4  mid_button.o(.text.flex_button_read)
    __arm_cp.8_3                             0x000025d0   Number         4  mid_button.o(.text.flex_button_read)
    __arm_cp.8_4                             0x000025d4   Number         4  mid_button.o(.text.flex_button_read)
    [Anonymous Symbol]                       0x000025d8   Section        0  mid_button.o(.text.flex_button_register)
    __arm_cp.5_0                             0x00002670   Number         4  mid_button.o(.text.flex_button_register)
    __arm_cp.5_1                             0x00002674   Number         4  mid_button.o(.text.flex_button_register)
    __arm_cp.5_2                             0x00002678   Number         4  mid_button.o(.text.flex_button_register)
    [Anonymous Symbol]                       0x0000267c   Section        0  mid_button.o(.text.flex_button_scan)
    [Anonymous Symbol]                       0x00002688   Section        0  app_key_task.o(.text.get_app_key_current_mode)
    [Anonymous Symbol]                       0x00002690   Section        0  hw_key.o(.text.key_scan)
    __arm_cp.0_0                             0x00002718   Number         4  hw_key.o(.text.key_scan)
    [Anonymous Symbol]                       0x0000271c   Section        0  hw_lcd.o(.text.lcd_init)
    __arm_cp.10_1                            0x000028dc   Number         4  hw_lcd.o(.text.lcd_init)
    __arm_cp.10_2                            0x000028e0   Number         4  hw_lcd.o(.text.lcd_init)
    __arm_cp.10_3                            0x000028e4   Number         4  hw_lcd.o(.text.lcd_init)
    [Anonymous Symbol]                       0x000028e8   Section        0  empty.o(.text.main)
    __arm_cp.0_0                             0x00002950   Number         4  empty.o(.text.main)
    __arm_cp.0_1                             0x00002954   Number         4  empty.o(.text.main)
    __arm_cp.0_2                             0x00002958   Number         4  empty.o(.text.main)
    __arm_cp.0_3                             0x0000295c   Number         4  empty.o(.text.main)
    __arm_cp.0_4                             0x00002960   Number         4  empty.o(.text.main)
    restrict_pwm_max_value                   0x00002965   Thumb Code    28  hw_motor.o(.text.restrict_pwm_max_value)
    [Anonymous Symbol]                       0x00002964   Section        0  hw_motor.o(.text.restrict_pwm_max_value)
    __arm_cp.1_0                             0x00002980   Number         4  hw_motor.o(.text.restrict_pwm_max_value)
    __arm_cp.1_1                             0x00002984   Number         4  hw_motor.o(.text.restrict_pwm_max_value)
    [Anonymous Symbol]                       0x00002988   Section        0  app_key_task.o(.text.set_app_key_current_mode)
    __arm_cp.0_0                             0x00002998   Number         4  app_key_task.o(.text.set_app_key_current_mode)
    set_bi                                   0x0000299d   Thumb Code    24  hw_motor.o(.text.set_bi)
    [Anonymous Symbol]                       0x0000299c   Section        0  hw_motor.o(.text.set_bi)
    set_fi                                   0x000029b5   Thumb Code    24  hw_motor.o(.text.set_fi)
    [Anonymous Symbol]                       0x000029b4   Section        0  hw_motor.o(.text.set_fi)
    __arm_cp.2_0                             0x000029cc   Number         4  hw_motor.o(.text.set_fi)
    [Anonymous Symbol]                       0x000029d0   Section        0  hw_motor.o(.text.set_motor)
    [Anonymous Symbol]                       0x00002a00   Section        0  hw_lcd.o(.text.spi_write_bus)
    __arm_cp.0_0                             0x00002a28   Number         4  hw_lcd.o(.text.spi_write_bus)
    [Anonymous Symbol]                       0x00002a2c   Section        0  hw_motor.o(.text.stop_motor)
    [Anonymous Symbol]                       0x00002a38   Section        0  empty.o(.text.ui_home_page)
    __arm_cp.1_0                             0x00002af8   Number         4  empty.o(.text.ui_home_page)
    __arm_cp.1_1                             0x00002afc   Number         4  empty.o(.text.ui_home_page)
    __arm_cp.1_2                             0x00002b00   Number         4  empty.o(.text.ui_home_page)
    __arm_cp.1_3                             0x00002b04   Number         4  empty.o(.text.ui_home_page)
    __arm_cp.1_4                             0x00002b08   Number         4  empty.o(.text.ui_home_page)
    [Anonymous Symbol]                       0x00002b0c   Section        0  empty.o(.text.ui_home_page_select)
    __arm_cp.2_0                             0x00002bac   Number         4  empty.o(.text.ui_home_page_select)
    [Anonymous Symbol]                       0x00002bb0   Section        0  mid_button.o(.text.user_button_init)
    __arm_cp.0_0                             0x00002c48   Number         4  mid_button.o(.text.user_button_init)
    __arm_cp.0_1                             0x00002c4c   Number         4  mid_button.o(.text.user_button_init)
    __arm_cp.0_2                             0x00002c50   Number         4  mid_button.o(.text.user_button_init)
    __arm_cp.0_3                             0x00002c54   Number         4  mid_button.o(.text.user_button_init)
    __arm_cp.0_4                             0x00002c58   Number         4  mid_button.o(.text.user_button_init)
    __arm_cp.0_5                             0x00002c5c   Number         4  mid_button.o(.text.user_button_init)
    __arm_cp.0_6                             0x00002c60   Number         4  mid_button.o(.text.user_button_init)
    __arm_cp.0_7                             0x00002c64   Number         4  mid_button.o(.text.user_button_init)
    __arm_cp.0_8                             0x00002c68   Number         4  mid_button.o(.text.user_button_init)
    i.__ARM_clz                              0x00002c6c   Section        0  depilogue.o(i.__ARM_clz)
    i.__scatterload_copy                     0x00002ca0   Section       14  handlers.o(i.__scatterload_copy)
    i.__scatterload_null                     0x00002cb0   Section        2  handlers.o(i.__scatterload_null)
    i.__scatterload_zeroinit                 0x00002cb8   Section       14  handlers.o(i.__scatterload_zeroinit)
    i.__set_errno                            0x00002cc8   Section        0  errno.o(i.__set_errno)
    i.sqrt                                   0x00002cd4   Section        0  sqrt.o(i.sqrt)
    gPWM_MOTORClockConfig                    0x00006110   Data           3  ti_msp_dl_config.o(.rodata.gPWM_MOTORClockConfig)
    [Anonymous Symbol]                       0x00006110   Section        0  ti_msp_dl_config.o(.rodata.gPWM_MOTORClockConfig)
    gPWM_MOTORConfig                         0x00006114   Data           8  ti_msp_dl_config.o(.rodata.gPWM_MOTORConfig)
    [Anonymous Symbol]                       0x00006114   Section        0  ti_msp_dl_config.o(.rodata.gPWM_MOTORConfig)
    gSPI_LCD_clockConfig                     0x0000611c   Data           2  ti_msp_dl_config.o(.rodata.gSPI_LCD_clockConfig)
    [Anonymous Symbol]                       0x0000611c   Section        0  ti_msp_dl_config.o(.rodata.gSPI_LCD_clockConfig)
    gSPI_LCD_config                          0x0000611e   Data          10  ti_msp_dl_config.o(.rodata.gSPI_LCD_config)
    [Anonymous Symbol]                       0x0000611e   Section        0  ti_msp_dl_config.o(.rodata.gSPI_LCD_config)
    gSYSPLLConfig                            0x00006128   Data          40  ti_msp_dl_config.o(.rodata.gSYSPLLConfig)
    [Anonymous Symbol]                       0x00006128   Section        0  ti_msp_dl_config.o(.rodata.gSYSPLLConfig)
    gUART_DEBUGClockConfig                   0x00006150   Data           2  ti_msp_dl_config.o(.rodata.gUART_DEBUGClockConfig)
    [Anonymous Symbol]                       0x00006150   Section        0  ti_msp_dl_config.o(.rodata.gUART_DEBUGClockConfig)
    gUART_DEBUGConfig                        0x00006152   Data          10  ti_msp_dl_config.o(.rodata.gUART_DEBUGConfig)
    [Anonymous Symbol]                       0x00006152   Section        0  ti_msp_dl_config.o(.rodata.gUART_DEBUGConfig)
    [Anonymous Symbol]                       0x0000615c   Section        0  empty.o(.rodata.str1.1)
    _errno                                   0x20200000   Data           4  errno.o(.data)
    .data                                    0x20200000   Section        4  errno.o(.data)
    key_rst_data                             0x20200004   Data           2  mid_button.o(.data.key_rst_data)
    [Anonymous Symbol]                       0x20200004   Section        0  mid_button.o(.data.key_rst_data)
    keydata                                  0x20200006   Data           2  mid_button.o(.data.keydata)
    [Anonymous Symbol]                       0x20200006   Section        0  mid_button.o(.data.keydata)
    btn_head                                 0x20200008   Data           4  mid_button.o(.bss.btn_head)
    [Anonymous Symbol]                       0x20200008   Section        0  mid_button.o(.bss.btn_head)
    btn_right_cb.motor_status                0x2020000c   Data           4  app_key_task.o(.bss.btn_right_cb.motor_status)
    [Anonymous Symbol]                       0x2020000c   Section        0  app_key_task.o(.bss.btn_right_cb.motor_status)
    button_cnt                               0x20200010   Data           1  mid_button.o(.bss.button_cnt)
    [Anonymous Symbol]                       0x20200010   Section        0  mid_button.o(.bss.button_cnt)
    cont                                     0x20200012   Data           2  mid_button.o(.bss.cont)
    [Anonymous Symbol]                       0x20200012   Section        0  mid_button.o(.bss.cont)
    current_mode                             0x20200014   Data           1  app_key_task.o(.bss.current_mode)
    [Anonymous Symbol]                       0x20200014   Section        0  app_key_task.o(.bss.current_mode)
    trg                                      0x20200164   Data           2  mid_button.o(.bss.trg)
    [Anonymous Symbol]                       0x20200164   Section        0  mid_button.o(.bss.trg)
    user_button                              0x20200168   Data         112  mid_button.o(.bss.user_button)
    [Anonymous Symbol]                       0x20200168   Section        0  mid_button.o(.bss.user_button)
    STACK                                    0x202001d8   Section     1024  startup_mspm0g350x_uvision.o(STACK)

    Global Symbols

    Symbol Name                              Value     Ov Type        Size  Object(Section)

    BuildAttributes$$THM_ISAv3M$S$PE$A:L22$X:L11$S22$IEEE1$IW$~IW$USESV6$~STKCKD$USESV7$~SHL$OTIME$ROPI$IEEEJ$EBA8$MICROLIB$REQ8$PRES8$EABIv2 0x00000000   Number         0  anon$$obj.o ABSOLUTE
    __Vectors                                0x00000000   Data           4  startup_mspm0g350x_uvision.o(RESET)
    __cpp_initialize__aeabi_                  - Undefined Weak Reference
    __cxa_finalize                            - Undefined Weak Reference
    __decompress                              - Undefined Weak Reference
    _clock_init                               - Undefined Weak Reference
    _microlib_exit                            - Undefined Weak Reference
    __Vectors_End                            0x000000c0   Data           0  startup_mspm0g350x_uvision.o(RESET)
    __Vectors_Size                           0x000000c0   Number         0  startup_mspm0g350x_uvision.o ABSOLUTE
    __main                                   0x000000c1   Thumb Code     0  entry.o(.ARM.Collect$$$$00000000)
    _main_stk                                0x000000c1   Thumb Code     0  entry2.o(.ARM.Collect$$$$00000001)
    _main_scatterload                        0x000000c5   Thumb Code     0  entry5.o(.ARM.Collect$$$$00000004)
    __main_after_scatterload                 0x000000c9   Thumb Code     0  entry5.o(.ARM.Collect$$$$00000004)
    _main_clock                              0x000000c9   Thumb Code     0  entry7b.o(.ARM.Collect$$$$00000008)
    _main_cpp_init                           0x000000c9   Thumb Code     0  entry8b.o(.ARM.Collect$$$$0000000A)
    _main_init                               0x000000c9   Thumb Code     0  entry9a.o(.ARM.Collect$$$$0000000B)
    __rt_final_cpp                           0x000000d1   Thumb Code     0  entry10a.o(.ARM.Collect$$$$0000000D)
    __rt_final_exit                          0x000000d1   Thumb Code     0  entry11a.o(.ARM.Collect$$$$0000000F)
    Reset_Handler                            0x000000d5   Thumb Code     4  startup_mspm0g350x_uvision.o(.text)
    NMI_Handler                              0x000000d9   Thumb Code     2  startup_mspm0g350x_uvision.o(.text)
    HardFault_Handler                        0x000000db   Thumb Code     2  startup_mspm0g350x_uvision.o(.text)
    SVC_Handler                              0x000000dd   Thumb Code     2  startup_mspm0g350x_uvision.o(.text)
    PendSV_Handler                           0x000000df   Thumb Code     2  startup_mspm0g350x_uvision.o(.text)
    SysTick_Handler                          0x000000e1   Thumb Code     2  startup_mspm0g350x_uvision.o(.text)
    ADC0_IRQHandler                          0x000000e3   Thumb Code     0  startup_mspm0g350x_uvision.o(.text)
    ADC1_IRQHandler                          0x000000e3   Thumb Code     0  startup_mspm0g350x_uvision.o(.text)
    AES_IRQHandler                           0x000000e3   Thumb Code     0  startup_mspm0g350x_uvision.o(.text)
    CANFD0_IRQHandler                        0x000000e3   Thumb Code     0  startup_mspm0g350x_uvision.o(.text)
    DAC0_IRQHandler                          0x000000e3   Thumb Code     0  startup_mspm0g350x_uvision.o(.text)
    DMA_IRQHandler                           0x000000e3   Thumb Code     0  startup_mspm0g350x_uvision.o(.text)
    Default_Handler                          0x000000e3   Thumb Code     2  startup_mspm0g350x_uvision.o(.text)
    GROUP0_IRQHandler                        0x000000e3   Thumb Code     0  startup_mspm0g350x_uvision.o(.text)
    GROUP1_IRQHandler                        0x000000e3   Thumb Code     0  startup_mspm0g350x_uvision.o(.text)
    I2C0_IRQHandler                          0x000000e3   Thumb Code     0  startup_mspm0g350x_uvision.o(.text)
    I2C1_IRQHandler                          0x000000e3   Thumb Code     0  startup_mspm0g350x_uvision.o(.text)
    RTC_IRQHandler                           0x000000e3   Thumb Code     0  startup_mspm0g350x_uvision.o(.text)
    SPI0_IRQHandler                          0x000000e3   Thumb Code     0  startup_mspm0g350x_uvision.o(.text)
    SPI1_IRQHandler                          0x000000e3   Thumb Code     0  startup_mspm0g350x_uvision.o(.text)
    TIMA0_IRQHandler                         0x000000e3   Thumb Code     0  startup_mspm0g350x_uvision.o(.text)
    TIMA1_IRQHandler                         0x000000e3   Thumb Code     0  startup_mspm0g350x_uvision.o(.text)
    TIMG0_IRQHandler                         0x000000e3   Thumb Code     0  startup_mspm0g350x_uvision.o(.text)
    TIMG12_IRQHandler                        0x000000e3   Thumb Code     0  startup_mspm0g350x_uvision.o(.text)
    TIMG6_IRQHandler                         0x000000e3   Thumb Code     0  startup_mspm0g350x_uvision.o(.text)
    TIMG7_IRQHandler                         0x000000e3   Thumb Code     0  startup_mspm0g350x_uvision.o(.text)
    TIMG8_IRQHandler                         0x000000e3   Thumb Code     0  startup_mspm0g350x_uvision.o(.text)
    UART1_IRQHandler                         0x000000e3   Thumb Code     0  startup_mspm0g350x_uvision.o(.text)
    UART2_IRQHandler                         0x000000e3   Thumb Code     0  startup_mspm0g350x_uvision.o(.text)
    UART3_IRQHandler                         0x000000e3   Thumb Code     0  startup_mspm0g350x_uvision.o(.text)
    __aeabi_memset                           0x000000e9   Thumb Code    14  memseta.o(.text)
    __aeabi_memset4                          0x000000e9   Thumb Code     0  memseta.o(.text)
    __aeabi_memset8                          0x000000e9   Thumb Code     0  memseta.o(.text)
    __aeabi_memclr                           0x000000f7   Thumb Code     4  memseta.o(.text)
    __aeabi_memclr4                          0x000000f7   Thumb Code     0  memseta.o(.text)
    __aeabi_memclr8                          0x000000f7   Thumb Code     0  memseta.o(.text)
    _memset$wrapper                          0x000000fb   Thumb Code    18  memseta.o(.text)
    __aeabi_ui2d                             0x0000010d   Thumb Code    24  dfltui.o(.text)
    __aeabi_d2iz                             0x00000129   Thumb Code    62  dfixi.o(.text)
    __aeabi_uidiv                            0x00000171   Thumb Code     0  uidiv_div0.o(.text)
    __aeabi_uidivmod                         0x00000171   Thumb Code    62  uidiv_div0.o(.text)
    __aeabi_llsr                             0x000001af   Thumb Code    34  llushr.o(.text)
    _ll_ushift_r                             0x000001af   Thumb Code     0  llushr.o(.text)
    __I$use$fp                               0x000001d1   Thumb Code     0  iusefp.o(.text)
    _double_round                            0x000001d1   Thumb Code    26  depilogue.o(.text)
    _double_epilogue                         0x000001eb   Thumb Code   164  depilogue.o(.text)
    _dsqrt                                   0x0000028f   Thumb Code   162  dsqrt.o(.text)
    __scatterload                            0x00000331   Thumb Code    38  init.o(.text)
    __scatterload_rt2                        0x00000331   Thumb Code     0  init.o(.text)
    __aeabi_llsl                             0x00000361   Thumb Code    32  llshl.o(.text)
    _ll_shift_l                              0x00000361   Thumb Code     0  llshl.o(.text)
    DL_Common_delayCycles                    0x00000381   Thumb Code    10  dl_common.o(.text.DL_Common_delayCycles)
    DL_SPI_init                              0x0000055d   Thumb Code    68  dl_spi.o(.text.DL_SPI_init)
    DL_SPI_setClockConfig                    0x000005f1   Thumb Code    18  dl_spi.o(.text.DL_SPI_setClockConfig)
    DL_SYSCTL_configSYSPLL                   0x00000649   Thumb Code   192  dl_sysctl_mspm0g1x0x_g3x0x.o(.text.DL_SYSCTL_configSYSPLL)
    DL_SYSCTL_setHFCLKSourceHFXTParams       0x0000075d   Thumb Code    80  dl_sysctl_mspm0g1x0x_g3x0x.o(.text.DL_SYSCTL_setHFCLKSourceHFXTParams)
    DL_SYSCTL_switchMCLKfromSYSOSCtoHSCLK    0x000007e1   Thumb Code    40  dl_sysctl_mspm0g1x0x_g3x0x.o(.text.DL_SYSCTL_switchMCLKfromSYSOSCtoHSCLK)
    DL_Timer_initFourCCPWMMode               0x00000835   Thumb Code   268  dl_timer.o(.text.DL_Timer_initFourCCPWMMode)
    DL_Timer_setCaptCompUpdateMethod         0x0000096d   Thumb Code    28  dl_timer.o(.text.DL_Timer_setCaptCompUpdateMethod)
    DL_Timer_setCaptureCompareOutCtl         0x00000989   Thumb Code    24  dl_timer.o(.text.DL_Timer_setCaptureCompareOutCtl)
    DL_Timer_setCaptureCompareValue          0x000009a1   Thumb Code    16  dl_timer.o(.text.DL_Timer_setCaptureCompareValue)
    DL_Timer_setClockConfig                  0x000009b1   Thumb Code    28  dl_timer.o(.text.DL_Timer_setClockConfig)
    DL_UART_init                             0x00000a69   Thumb Code    72  dl_uart.o(.text.DL_UART_init)
    DL_UART_setClockConfig                   0x00000b29   Thumb Code    18  dl_uart.o(.text.DL_UART_setClockConfig)
    Drawarc                                  0x00000b59   Thumb Code   338  hw_lcd.o(.text.Drawarc)
    LCD_Address_Set                          0x00000cab   Thumb Code    62  hw_lcd.o(.text.LCD_Address_Set)
    LCD_ArcRect                              0x00000ce9   Thumb Code   330  hw_lcd.o(.text.LCD_ArcRect)
    LCD_DrawLine                             0x00000e33   Thumb Code   268  hw_lcd.o(.text.LCD_DrawLine)
    LCD_DrawPoint                            0x00000f3f   Thumb Code    32  hw_lcd.o(.text.LCD_DrawPoint)
    LCD_Fill                                 0x00000f5f   Thumb Code    92  hw_lcd.o(.text.LCD_Fill)
    LCD_ShowChar                             0x00000fbd   Thumb Code   460  hw_lcd.o(.text.LCD_ShowChar)
    LCD_ShowChinese                          0x00001199   Thumb Code   296  hw_lcd.o(.text.LCD_ShowChinese)
    LCD_ShowChinese12x12                     0x000012c1   Thumb Code   408  hw_lcd.o(.text.LCD_ShowChinese12x12)
    LCD_ShowChinese16x16                     0x0000145d   Thumb Code   408  hw_lcd.o(.text.LCD_ShowChinese16x16)
    LCD_ShowChinese24x24                     0x000015f9   Thumb Code   408  hw_lcd.o(.text.LCD_ShowChinese24x24)
    LCD_ShowChinese32x32                     0x00001795   Thumb Code   408  hw_lcd.o(.text.LCD_ShowChinese32x32)
    LCD_WR_DATA                              0x00001931   Thumb Code    28  hw_lcd.o(.text.LCD_WR_DATA)
    LCD_WR_DATA8                             0x0000194d   Thumb Code    20  hw_lcd.o(.text.LCD_WR_DATA8)
    LCD_WR_REG                               0x00001961   Thumb Code    44  hw_lcd.o(.text.LCD_WR_REG)
    LCD_Writ_Bus                             0x0000198d   Thumb Code    44  hw_lcd.o(.text.LCD_Writ_Bus)
    SYSCFG_DL_GPIO_init                      0x000019b9   Thumb Code   224  ti_msp_dl_config.o(.text.SYSCFG_DL_GPIO_init)
    SYSCFG_DL_PWM_MOTOR_init                 0x00001a9d   Thumb Code   128  ti_msp_dl_config.o(.text.SYSCFG_DL_PWM_MOTOR_init)
    SYSCFG_DL_SPI_LCD_init                   0x00001b29   Thumb Code    52  ti_msp_dl_config.o(.text.SYSCFG_DL_SPI_LCD_init)
    SYSCFG_DL_SYSCTL_init                    0x00001b65   Thumb Code    72  ti_msp_dl_config.o(.text.SYSCFG_DL_SYSCTL_init)
    SYSCFG_DL_UART_DEBUG_init                0x00001bb1   Thumb Code    72  ti_msp_dl_config.o(.text.SYSCFG_DL_UART_DEBUG_init)
    SYSCFG_DL_init                           0x00001c01   Thumb Code    44  ti_msp_dl_config.o(.text.SYSCFG_DL_init)
    SYSCFG_DL_initPower                      0x00001c35   Thumb Code    84  ti_msp_dl_config.o(.text.SYSCFG_DL_initPower)
    UART0_IRQHandler                         0x00001c99   Thumb Code    40  mid_debug_uart.o(.text.UART0_IRQHandler)
    btn_down_cb                              0x00001da1   Thumb Code    48  app_key_task.o(.text.btn_down_cb)
    btn_left_cb                              0x00001dd1   Thumb Code    52  app_key_task.o(.text.btn_left_cb)
    btn_right_cb                             0x00001e05   Thumb Code    96  app_key_task.o(.text.btn_right_cb)
    btn_up_cb                                0x00001e6d   Thumb Code    48  app_key_task.o(.text.btn_up_cb)
    debug_uart_init                          0x00001ef5   Thumb Code    22  mid_debug_uart.o(.text.debug_uart_init)
    disp_select_box                          0x00001f39   Thumb Code   234  empty.o(.text.disp_select_box)
    disp_string_rect                         0x00002025   Thumb Code   132  empty.o(.text.disp_string_rect)
    disp_x_center                            0x000020a9   Thumb Code    96  empty.o(.text.disp_x_center)
    flex_button_register                     0x000025d9   Thumb Code   152  mid_button.o(.text.flex_button_register)
    flex_button_scan                         0x0000267d   Thumb Code    12  mid_button.o(.text.flex_button_scan)
    get_app_key_current_mode                 0x00002689   Thumb Code     8  app_key_task.o(.text.get_app_key_current_mode)
    key_scan                                 0x00002691   Thumb Code   136  hw_key.o(.text.key_scan)
    lcd_init                                 0x0000271d   Thumb Code   448  hw_lcd.o(.text.lcd_init)
    main                                     0x000028e9   Thumb Code   104  empty.o(.text.main)
    set_app_key_current_mode                 0x00002989   Thumb Code    16  app_key_task.o(.text.set_app_key_current_mode)
    set_motor                                0x000029d1   Thumb Code    48  hw_motor.o(.text.set_motor)
    spi_write_bus                            0x00002a01   Thumb Code    40  hw_lcd.o(.text.spi_write_bus)
    stop_motor                               0x00002a2d   Thumb Code    12  hw_motor.o(.text.stop_motor)
    ui_home_page                             0x00002a39   Thumb Code   192  empty.o(.text.ui_home_page)
    ui_home_page_select                      0x00002b0d   Thumb Code   160  empty.o(.text.ui_home_page_select)
    user_button_init                         0x00002bb1   Thumb Code   152  mid_button.o(.text.user_button_init)
    __ARM_clz                                0x00002c6d   Thumb Code    46  depilogue.o(i.__ARM_clz)
    __scatterload_copy                       0x00002ca1   Thumb Code    14  handlers.o(i.__scatterload_copy)
    __scatterload_null                       0x00002cb1   Thumb Code     2  handlers.o(i.__scatterload_null)
    __scatterload_zeroinit                   0x00002cb9   Thumb Code    14  handlers.o(i.__scatterload_zeroinit)
    __set_errno                              0x00002cc9   Thumb Code     6  errno.o(i.__set_errno)
    sqrt                                     0x00002cd5   Thumb Code    66  sqrt.o(i.sqrt)
    ascii_1206                               0x00002d1c   Data        1140  hw_lcd.o(.rodata.ascii_1206)
    ascii_1608                               0x00003190   Data        1520  hw_lcd.o(.rodata.ascii_1608)
    ascii_2412                               0x00003780   Data        4560  hw_lcd.o(.rodata.ascii_2412)
    ascii_3216                               0x00004950   Data        6080  hw_lcd.o(.rodata.ascii_3216)
    tfont12                                  0x00006181   Data         130  hw_lcd.o(.rodata.tfont12)
    tfont16                                  0x00006203   Data         374  hw_lcd.o(.rodata.tfont16)
    tfont24                                  0x00006379   Data         222  hw_lcd.o(.rodata.tfont24)
    tfont32                                  0x00006457   Data         130  hw_lcd.o(.rodata.tfont32)
    Region$$Table$$Base                      0x000064dc   Number         0  anon$$obj.o(Region$$Table)
    Region$$Table$$Limit                     0x000064fc   Number         0  anon$$obj.o(Region$$Table)
    debug_uart                               0x20200018   Data         132  mid_debug_uart.o(.bss.debug_uart)
    gPWM_MOTORBackup                         0x2020009c   Data         160  ti_msp_dl_config.o(.bss.gPWM_MOTORBackup)
    gSPI_LCDBackup                           0x2020013c   Data          40  ti_msp_dl_config.o(.bss.gSPI_LCDBackup)
    __initial_sp                             0x202005d8   Data           0  startup_mspm0g350x_uvision.o(STACK)



==============================================================================

Memory Map of the image

  Image Entry point : 0x000000c1

  Load Region LR_IROM1 (Base: 0x00000000, Size: 0x00006508, Max: 0x00020000, ABSOLUTE)

    Execution Region ER_IROM1 (Exec base: 0x00000000, Load base: 0x00000000, Size: 0x000064fc, Max: 0x00020000, ABSOLUTE)

    Exec Addr    Load Addr    Size         Type   Attr      Idx    E Section Name        Object

    0x00000000   0x00000000   0x000000c0   Data   RO           28    RESET               startup_mspm0g350x_uvision.o
    0x000000c0   0x000000c0   0x00000000   Code   RO          589  * .ARM.Collect$$$$00000000  mc_p.l(entry.o)
    0x000000c0   0x000000c0   0x00000004   Code   RO          608    .ARM.Collect$$$$00000001  mc_p.l(entry2.o)
    0x000000c4   0x000000c4   0x00000004   Code   RO          611    .ARM.Collect$$$$00000004  mc_p.l(entry5.o)
    0x000000c8   0x000000c8   0x00000000   Code   RO          613    .ARM.Collect$$$$00000008  mc_p.l(entry7b.o)
    0x000000c8   0x000000c8   0x00000000   Code   RO          615    .ARM.Collect$$$$0000000A  mc_p.l(entry8b.o)
    0x000000c8   0x000000c8   0x00000008   Code   RO          616    .ARM.Collect$$$$0000000B  mc_p.l(entry9a.o)
    0x000000d0   0x000000d0   0x00000000   Code   RO          618    .ARM.Collect$$$$0000000D  mc_p.l(entry10a.o)
    0x000000d0   0x000000d0   0x00000000   Code   RO          620    .ARM.Collect$$$$0000000F  mc_p.l(entry11a.o)
    0x000000d0   0x000000d0   0x00000004   Code   RO          609    .ARM.Collect$$$$00002712  mc_p.l(entry2.o)
    0x000000d4   0x000000d4   0x00000014   Code   RO           29    .text               startup_mspm0g350x_uvision.o
    0x000000e8   0x000000e8   0x00000024   Code   RO          598    .text               mc_p.l(memseta.o)
    0x0000010c   0x0000010c   0x0000001c   Code   RO          602    .text               mf_p.l(dfltui.o)
    0x00000128   0x00000128   0x00000048   Code   RO          606    .text               mf_p.l(dfixi.o)
    0x00000170   0x00000170   0x0000003e   Code   RO          626    .text               mc_p.l(uidiv_div0.o)
    0x000001ae   0x000001ae   0x00000022   Code   RO          632    .text               mc_p.l(llushr.o)
    0x000001d0   0x000001d0   0x00000000   Code   RO          641    .text               mc_p.l(iusefp.o)
    0x000001d0   0x000001d0   0x000000be   Code   RO          642    .text               mf_p.l(depilogue.o)
    0x0000028e   0x0000028e   0x000000a2   Code   RO          646    .text               mf_p.l(dsqrt.o)
    0x00000330   0x00000330   0x00000030   Code   RO          648    .text               mc_p.l(init.o)
    0x00000360   0x00000360   0x00000020   Code   RO          650    .text               mc_p.l(llshl.o)
    0x00000380   0x00000380   0x0000000a   Code   RO          350    .text.DL_Common_delayCycles  driverlib.a(dl_common.o)
    0x0000038a   0x0000038a   0x00000028   Code   RO          120    .text.DL_Common_updateReg  ti_msp_dl_config.o
    0x000003b2   0x000003b2   0x00000014   Code   RO           14    .text.DL_GPIO_clearPins  empty.o
    0x000003c6   0x000003c6   0x00000014   Code   RO           84    .text.DL_GPIO_clearPins  ti_msp_dl_config.o
    0x000003da   0x000003da   0x00000014   Code   RO          146    .text.DL_GPIO_clearPins  hw_lcd.o
    0x000003ee   0x000003ee   0x00000002   PAD
    0x000003f0   0x000003f0   0x00000018   Code   RO           74    .text.DL_GPIO_enableOutput  ti_msp_dl_config.o
    0x00000408   0x00000408   0x00000014   Code   RO           62    .text.DL_GPIO_enablePower  ti_msp_dl_config.o
    0x0000041c   0x0000041c   0x00000030   Code   RO           82    .text.DL_GPIO_initDigitalInputFeatures  ti_msp_dl_config.o
    0x0000044c   0x0000044c   0x00000014   Code   RO           80    .text.DL_GPIO_initDigitalOutput  ti_msp_dl_config.o
    0x00000460   0x00000460   0x0000002c   Code   RO           78    .text.DL_GPIO_initDigitalOutputFeatures  ti_msp_dl_config.o
    0x0000048c   0x0000048c   0x00000014   Code   RO           70    .text.DL_GPIO_initPeripheralAnalogFunction  ti_msp_dl_config.o
    0x000004a0   0x000004a0   0x0000001c   Code   RO           76    .text.DL_GPIO_initPeripheralInputFunction  ti_msp_dl_config.o
    0x000004bc   0x000004bc   0x0000001c   Code   RO           72    .text.DL_GPIO_initPeripheralOutputFunction  ti_msp_dl_config.o
    0x000004d8   0x000004d8   0x00000016   Code   RO          215    .text.DL_GPIO_readPins  hw_key.o
    0x000004ee   0x000004ee   0x00000002   PAD
    0x000004f0   0x000004f0   0x00000010   Code   RO           54    .text.DL_GPIO_reset  ti_msp_dl_config.o
    0x00000500   0x00000500   0x00000014   Code   RO           16    .text.DL_GPIO_setPins  empty.o
    0x00000514   0x00000514   0x00000018   Code   RO          148    .text.DL_GPIO_setPins  hw_lcd.o
    0x0000052c   0x0000052c   0x00000018   Code   RO          118    .text.DL_SPI_enable  ti_msp_dl_config.o
    0x00000544   0x00000544   0x00000018   Code   RO           68    .text.DL_SPI_enablePower  ti_msp_dl_config.o
    0x0000055c   0x0000055c   0x00000044   Code   RO          359    .text.DL_SPI_init   driverlib.a(dl_spi.o)
    0x000005a0   0x000005a0   0x00000018   Code   RO          142    .text.DL_SPI_isBusy  hw_lcd.o
    0x000005b8   0x000005b8   0x00000018   Code   RO           60    .text.DL_SPI_reset  ti_msp_dl_config.o
    0x000005d0   0x000005d0   0x00000020   Code   RO          114    .text.DL_SPI_setBitRateSerialClockDivider  ti_msp_dl_config.o
    0x000005f0   0x000005f0   0x00000012   Code   RO          361    .text.DL_SPI_setClockConfig  driverlib.a(dl_spi.o)
    0x00000602   0x00000602   0x00000002   PAD
    0x00000604   0x00000604   0x0000002c   Code   RO          116    .text.DL_SPI_setFIFOThreshold  ti_msp_dl_config.o
    0x00000630   0x00000630   0x00000016   Code   RO          140    .text.DL_SPI_transmitData8  hw_lcd.o
    0x00000646   0x00000646   0x00000002   PAD
    0x00000648   0x00000648   0x000000c0   Code   RO          554    .text.DL_SYSCTL_configSYSPLL  driverlib.a(dl_sysctl_mspm0g1x0x_g3x0x.o)
    0x00000708   0x00000708   0x0000000c   Code   RO           92    .text.DL_SYSCTL_disableHFXT  ti_msp_dl_config.o
    0x00000714   0x00000714   0x00000014   Code   RO           94    .text.DL_SYSCTL_disableSYSPLL  ti_msp_dl_config.o
    0x00000728   0x00000728   0x00000018   Code   RO           86    .text.DL_SYSCTL_setBORThreshold  ti_msp_dl_config.o
    0x00000740   0x00000740   0x0000001c   Code   RO           88    .text.DL_SYSCTL_setFlashWaitState  ti_msp_dl_config.o
    0x0000075c   0x0000075c   0x00000050   Code   RO          568    .text.DL_SYSCTL_setHFCLKSourceHFXTParams  driverlib.a(dl_sysctl_mspm0g1x0x_g3x0x.o)
    0x000007ac   0x000007ac   0x0000001c   Code   RO           90    .text.DL_SYSCTL_setSYSOSCFreq  ti_msp_dl_config.o
    0x000007c8   0x000007c8   0x00000018   Code   RO           96    .text.DL_SYSCTL_setULPCLKDivider  ti_msp_dl_config.o
    0x000007e0   0x000007e0   0x00000028   Code   RO          562    .text.DL_SYSCTL_switchMCLKfromSYSOSCtoHSCLK  driverlib.a(dl_sysctl_mspm0g1x0x_g3x0x.o)
    0x00000808   0x00000808   0x00000014   Code   RO          100    .text.DL_Timer_enableClock  ti_msp_dl_config.o
    0x0000081c   0x0000081c   0x00000018   Code   RO           64    .text.DL_Timer_enablePower  ti_msp_dl_config.o
    0x00000834   0x00000834   0x0000010c   Code   RO          493    .text.DL_Timer_initFourCCPWMMode  driverlib.a(dl_timer.o)
    0x00000940   0x00000940   0x00000018   Code   RO           56    .text.DL_Timer_reset  ti_msp_dl_config.o
    0x00000958   0x00000958   0x00000014   Code   RO          102    .text.DL_Timer_setCCPDirection  ti_msp_dl_config.o
    0x0000096c   0x0000096c   0x0000001c   Code   RO          459    .text.DL_Timer_setCaptCompUpdateMethod  driverlib.a(dl_timer.o)
    0x00000988   0x00000988   0x00000018   Code   RO          467    .text.DL_Timer_setCaptureCompareOutCtl  driverlib.a(dl_timer.o)
    0x000009a0   0x000009a0   0x00000010   Code   RO          419    .text.DL_Timer_setCaptureCompareValue  driverlib.a(dl_timer.o)
    0x000009b0   0x000009b0   0x0000001c   Code   RO          413    .text.DL_Timer_setClockConfig  driverlib.a(dl_timer.o)
    0x000009cc   0x000009cc   0x0000003c   Code   RO           98    .text.DL_Timer_setCounterControl  ti_msp_dl_config.o
    0x00000a08   0x00000a08   0x00000016   Code   RO          112    .text.DL_UART_enable  ti_msp_dl_config.o
    0x00000a1e   0x00000a1e   0x00000002   PAD
    0x00000a20   0x00000a20   0x0000001c   Code   RO          108    .text.DL_UART_enableInterrupt  ti_msp_dl_config.o
    0x00000a3c   0x00000a3c   0x00000018   Code   RO           66    .text.DL_UART_enablePower  ti_msp_dl_config.o
    0x00000a54   0x00000a54   0x00000012   Code   RO          281    .text.DL_UART_getPendingInterrupt  mid_debug_uart.o
    0x00000a66   0x00000a66   0x00000002   PAD
    0x00000a68   0x00000a68   0x00000048   Code   RO          514    .text.DL_UART_init  driverlib.a(dl_uart.o)
    0x00000ab0   0x00000ab0   0x00000014   Code   RO          283    .text.DL_UART_receiveData  mid_debug_uart.o
    0x00000ac4   0x00000ac4   0x00000018   Code   RO           58    .text.DL_UART_reset  ti_msp_dl_config.o
    0x00000adc   0x00000adc   0x0000004c   Code   RO          106    .text.DL_UART_setBaudRateDivisor  ti_msp_dl_config.o
    0x00000b28   0x00000b28   0x00000012   Code   RO          516    .text.DL_UART_setClockConfig  driverlib.a(dl_uart.o)
    0x00000b3a   0x00000b3a   0x0000001e   Code   RO          104    .text.DL_UART_setOversampling  ti_msp_dl_config.o
    0x00000b58   0x00000b58   0x00000152   Code   RO          172    .text.Drawarc       hw_lcd.o
    0x00000caa   0x00000caa   0x0000003e   Code   RO          156    .text.LCD_Address_Set  hw_lcd.o
    0x00000ce8   0x00000ce8   0x0000014a   Code   RO          174    .text.LCD_ArcRect   hw_lcd.o
    0x00000e32   0x00000e32   0x0000010c   Code   RO          164    .text.LCD_DrawLine  hw_lcd.o
    0x00000f3e   0x00000f3e   0x00000020   Code   RO          162    .text.LCD_DrawPoint  hw_lcd.o
    0x00000f5e   0x00000f5e   0x0000005c   Code   RO          160    .text.LCD_Fill      hw_lcd.o
    0x00000fba   0x00000fba   0x00000002   PAD
    0x00000fbc   0x00000fbc   0x000001dc   Code   RO          186    .text.LCD_ShowChar  hw_lcd.o
    0x00001198   0x00001198   0x00000128   Code   RO          176    .text.LCD_ShowChinese  hw_lcd.o
    0x000012c0   0x000012c0   0x0000019c   Code   RO          178    .text.LCD_ShowChinese12x12  hw_lcd.o
    0x0000145c   0x0000145c   0x0000019c   Code   RO          180    .text.LCD_ShowChinese16x16  hw_lcd.o
    0x000015f8   0x000015f8   0x0000019c   Code   RO          182    .text.LCD_ShowChinese24x24  hw_lcd.o
    0x00001794   0x00001794   0x0000019c   Code   RO          184    .text.LCD_ShowChinese32x32  hw_lcd.o
    0x00001930   0x00001930   0x0000001c   Code   RO          152    .text.LCD_WR_DATA   hw_lcd.o
    0x0000194c   0x0000194c   0x00000014   Code   RO          150    .text.LCD_WR_DATA8  hw_lcd.o
    0x00001960   0x00001960   0x0000002c   Code   RO          154    .text.LCD_WR_REG    hw_lcd.o
    0x0000198c   0x0000198c   0x0000002c   Code   RO          144    .text.LCD_Writ_Bus  hw_lcd.o
    0x000019b8   0x000019b8   0x000000e4   Code   RO           40    .text.SYSCFG_DL_GPIO_init  ti_msp_dl_config.o
    0x00001a9c   0x00001a9c   0x0000008c   Code   RO           44    .text.SYSCFG_DL_PWM_MOTOR_init  ti_msp_dl_config.o
    0x00001b28   0x00001b28   0x0000003c   Code   RO           48    .text.SYSCFG_DL_SPI_LCD_init  ti_msp_dl_config.o
    0x00001b64   0x00001b64   0x0000004c   Code   RO           42    .text.SYSCFG_DL_SYSCTL_init  ti_msp_dl_config.o
    0x00001bb0   0x00001bb0   0x00000050   Code   RO           46    .text.SYSCFG_DL_UART_DEBUG_init  ti_msp_dl_config.o
    0x00001c00   0x00001c00   0x00000034   Code   RO           36    .text.SYSCFG_DL_init  ti_msp_dl_config.o
    0x00001c34   0x00001c34   0x00000064   Code   RO           38    .text.SYSCFG_DL_initPower  ti_msp_dl_config.o
    0x00001c98   0x00001c98   0x0000002c   Code   RO          279    .text.UART0_IRQHandler  mid_debug_uart.o
    0x00001cc4   0x00001cc4   0x0000002c   Code   RO          263    .text.__NVIC_ClearPendingIRQ  mid_debug_uart.o
    0x00001cf0   0x00001cf0   0x0000002c   Code   RO          265    .text.__NVIC_EnableIRQ  mid_debug_uart.o
    0x00001d1c   0x00001d1c   0x00000084   Code   RO          110    .text.__NVIC_SetPriority  ti_msp_dl_config.o
    0x00001da0   0x00001da0   0x00000030   Code   RO          339    .text.btn_down_cb   app_key_task.o
    0x00001dd0   0x00001dd0   0x00000034   Code   RO          335    .text.btn_left_cb   app_key_task.o
    0x00001e04   0x00001e04   0x00000068   Code   RO          337    .text.btn_right_cb  app_key_task.o
    0x00001e6c   0x00001e6c   0x00000030   Code   RO          333    .text.btn_up_cb     app_key_task.o
    0x00001e9c   0x00001e9c   0x00000016   Code   RO          303    .text.button_down_read  mid_button.o
    0x00001eb2   0x00001eb2   0x00000016   Code   RO          299    .text.button_left_read  mid_button.o
    0x00001ec8   0x00001ec8   0x00000016   Code   RO          301    .text.button_right_read  mid_button.o
    0x00001ede   0x00001ede   0x00000016   Code   RO          297    .text.button_up_read  mid_button.o
    0x00001ef4   0x00001ef4   0x00000016   Code   RO          261    .text.debug_uart_init  mid_debug_uart.o
    0x00001f0a   0x00001f0a   0x00000002   PAD
    0x00001f0c   0x00001f0c   0x0000002c   Code   RO          285    .text.debug_uart_receive_limit_length  mid_debug_uart.o
    0x00001f38   0x00001f38   0x000000ea   Code   RO           12    .text.disp_select_box  empty.o
    0x00002022   0x00002022   0x00000002   PAD
    0x00002024   0x00002024   0x00000084   Code   RO           10    .text.disp_string_rect  empty.o
    0x000020a8   0x000020a8   0x00000064   Code   RO            8    .text.disp_x_center  empty.o
    0x0000210c   0x0000210c   0x00000404   Code   RO          313    .text.flex_button_process  mid_button.o
    0x00002510   0x00002510   0x000000c8   Code   RO          311    .text.flex_button_read  mid_button.o
    0x000025d8   0x000025d8   0x000000a4   Code   RO          305    .text.flex_button_register  mid_button.o
    0x0000267c   0x0000267c   0x0000000c   Code   RO          309    .text.flex_button_scan  mid_button.o
    0x00002688   0x00002688   0x00000008   Code   RO          331    .text.get_app_key_current_mode  app_key_task.o
    0x00002690   0x00002690   0x0000008c   Code   RO          213    .text.key_scan      hw_key.o
    0x0000271c   0x0000271c   0x000001cc   Code   RO          158    .text.lcd_init      hw_lcd.o
    0x000028e8   0x000028e8   0x0000007c   Code   RO            2    .text.main          empty.o
    0x00002964   0x00002964   0x00000024   Code   RO          226    .text.restrict_pwm_max_value  hw_motor.o
    0x00002988   0x00002988   0x00000014   Code   RO          329    .text.set_app_key_current_mode  app_key_task.o
    0x0000299c   0x0000299c   0x00000018   Code   RO          230    .text.set_bi        hw_motor.o
    0x000029b4   0x000029b4   0x0000001c   Code   RO          228    .text.set_fi        hw_motor.o
    0x000029d0   0x000029d0   0x00000030   Code   RO          224    .text.set_motor     hw_motor.o
    0x00002a00   0x00002a00   0x0000002c   Code   RO          138    .text.spi_write_bus  hw_lcd.o
    0x00002a2c   0x00002a2c   0x0000000c   Code   RO          232    .text.stop_motor    hw_motor.o
    0x00002a38   0x00002a38   0x000000d4   Code   RO            4    .text.ui_home_page  empty.o
    0x00002b0c   0x00002b0c   0x000000a4   Code   RO            6    .text.ui_home_page_select  empty.o
    0x00002bb0   0x00002bb0   0x000000bc   Code   RO          295    .text.user_button_init  mid_button.o
    0x00002c6c   0x00002c6c   0x0000002e   Code   RO          644    i.__ARM_clz         mf_p.l(depilogue.o)
    0x00002c9a   0x00002c9a   0x00000006   PAD
    0x00002ca0   0x00002ca0   0x0000000e   Code   RO          654    i.__scatterload_copy  mc_p.l(handlers.o)
    0x00002cae   0x00002cae   0x00000002   PAD
    0x00002cb0   0x00002cb0   0x00000002   Code   RO          655    i.__scatterload_null  mc_p.l(handlers.o)
    0x00002cb2   0x00002cb2   0x00000006   PAD
    0x00002cb8   0x00002cb8   0x0000000e   Code   RO          656    i.__scatterload_zeroinit  mc_p.l(handlers.o)
    0x00002cc6   0x00002cc6   0x00000002   PAD
    0x00002cc8   0x00002cc8   0x0000000c   Code   RO          636    i.__set_errno       mc_p.l(errno.o)
    0x00002cd4   0x00002cd4   0x00000048   Code   RO          586    i.sqrt              m_ps.l(sqrt.o)
    0x00002d1c   0x00002d1c   0x00000474   Data   RO          198    .rodata.ascii_1206  hw_lcd.o
    0x00003190   0x00003190   0x000005f0   Data   RO          199    .rodata.ascii_1608  hw_lcd.o
    0x00003780   0x00003780   0x000011d0   Data   RO          200    .rodata.ascii_2412  hw_lcd.o
    0x00004950   0x00004950   0x000017c0   Data   RO          201    .rodata.ascii_3216  hw_lcd.o
    0x00006110   0x00006110   0x00000003   Data   RO          125    .rodata.gPWM_MOTORClockConfig  ti_msp_dl_config.o
    0x00006113   0x00006113   0x00000001   PAD
    0x00006114   0x00006114   0x00000008   Data   RO          126    .rodata.gPWM_MOTORConfig  ti_msp_dl_config.o
    0x0000611c   0x0000611c   0x00000002   Data   RO          129    .rodata.gSPI_LCD_clockConfig  ti_msp_dl_config.o
    0x0000611e   0x0000611e   0x0000000a   Data   RO          130    .rodata.gSPI_LCD_config  ti_msp_dl_config.o
    0x00006128   0x00006128   0x00000028   Data   RO          124    .rodata.gSYSPLLConfig  ti_msp_dl_config.o
    0x00006150   0x00006150   0x00000002   Data   RO          127    .rodata.gUART_DEBUGClockConfig  ti_msp_dl_config.o
    0x00006152   0x00006152   0x0000000a   Data   RO          128    .rodata.gUART_DEBUGConfig  ti_msp_dl_config.o
    0x0000615c   0x0000615c   0x00000025   Data   RO           18    .rodata.str1.1      empty.o
    0x00006181   0x00006181   0x00000082   Data   RO          202    .rodata.tfont12     hw_lcd.o
    0x00006203   0x00006203   0x00000176   Data   RO          203    .rodata.tfont16     hw_lcd.o
    0x00006379   0x00006379   0x000000de   Data   RO          204    .rodata.tfont24     hw_lcd.o
    0x00006457   0x00006457   0x00000082   Data   RO          205    .rodata.tfont32     hw_lcd.o
    0x000064d9   0x000064d9   0x00000003   PAD
    0x000064dc   0x000064dc   0x00000020   Data   RO          653    Region$$Table       anon$$obj.o


    Execution Region RW_IRAM2 (Exec base: 0x20200000, Load base: 0x00006500, Size: 0x000005d8, Max: 0x00008000, ABSOLUTE)

    Exec Addr    Load Addr    Size         Type   Attr      Idx    E Section Name        Object

    0x20200000   0x00006500   0x00000004   Data   RW          637    .data               mc_p.l(errno.o)
    0x20200004   0x00006504   0x00000002   Data   RW          318    .data.key_rst_data  mid_button.o
    0x20200006   0x00006506   0x00000002   Data   RW          319    .data.keydata       mid_button.o
    0x20200008        -       0x00000004   Zero   RW          316    .bss.btn_head       mid_button.o
    0x2020000c        -       0x00000004   Zero   RW          342    .bss.btn_right_cb.motor_status  app_key_task.o
    0x20200010        -       0x00000001   Zero   RW          317    .bss.button_cnt     mid_button.o
    0x20200011   0x00006508   0x00000001   PAD
    0x20200012        -       0x00000002   Zero   RW          320    .bss.cont           mid_button.o
    0x20200014        -       0x00000001   Zero   RW          341    .bss.current_mode   app_key_task.o
    0x20200015   0x00006508   0x00000003   PAD
    0x20200018        -       0x00000084   Zero   RW          287    .bss.debug_uart     mid_debug_uart.o
    0x2020009c        -       0x000000a0   Zero   RW          122    .bss.gPWM_MOTORBackup  ti_msp_dl_config.o
    0x2020013c        -       0x00000028   Zero   RW          123    .bss.gSPI_LCDBackup  ti_msp_dl_config.o
    0x20200164        -       0x00000002   Zero   RW          321    .bss.trg            mid_button.o
    0x20200166   0x00006508   0x00000002   PAD
    0x20200168        -       0x00000070   Zero   RW          315    .bss.user_button    mid_button.o
    0x202001d8        -       0x00000400   Zero   RW           26    STACK               startup_mspm0g350x_uvision.o



  Load Region LR_BCR (Base: 0x41c00000, Size: 0x00000000, Max: 0x00000100, ABSOLUTE)

    Execution Region BCR_CONFIG (Exec base: 0x41c00000, Load base: 0x41c00000, Size: 0x00000000, Max: 0x000000ff, ABSOLUTE)

    **** No section assigned to this execution region ****



  Load Region LR_BSL (Base: 0x41c00100, Size: 0x00000000, Max: 0x00000100, ABSOLUTE)

    Execution Region BSL_CONFIG (Exec base: 0x41c00100, Load base: 0x41c00100, Size: 0x00000000, Max: 0x00000080, ABSOLUTE)

    **** No section assigned to this execution region ****


==============================================================================

Image component sizes


      Code (inc. data)   RO Data    RW Data    ZI Data      Debug   Object Name

       280         12          0          0          5       2319   app_key_task.o
      1006         48         37          0          0       5649   empty.o
       162          4          0          0          0       3651   hw_key.o
      4272         56      14156          0          0      15957   hw_lcd.o
       148         12          0          0          0       3845   hw_motor.o
      1680        100          0          4        121       4436   mid_button.o
       236         20          0          0        132       6350   mid_debug_uart.o
        20          4        192          0       1024        644   startup_mspm0g350x_uvision.o
      1812        172         75          0        200      29098   ti_msp_dl_config.o

    ----------------------------------------------------------------------
      9632        428      14496          4       1488      71949   Object Totals
         0          0         32          0          0          0   (incl. Generated)
        16          0          4          0          6          0   (incl. Padding)

    ----------------------------------------------------------------------

      Code (inc. data)   RO Data    RW Data    ZI Data      Debug   Library Member Name

        10          0          0          0          0        790   dl_common.o
        86          8          0          0          0      13505   dl_spi.o
       312         24          0          0          0      12865   dl_sysctl_mspm0g1x0x_g3x0x.o
       364         40          0          0          0      41545   dl_timer.o
        90          8          0          0          0      14150   dl_uart.o
        72          6          0          0          0         76   sqrt.o
         0          0          0          0          0          0   entry.o
         0          0          0          0          0          0   entry10a.o
         0          0          0          0          0          0   entry11a.o
         8          4          0          0          0          0   entry2.o
         4          0          0          0          0          0   entry5.o
         0          0          0          0          0          0   entry7b.o
         0          0          0          0          0          0   entry8b.o
         8          4          0          0          0          0   entry9a.o
        12          6          0          4          0         60   errno.o
        30          0          0          0          0          0   handlers.o
        48         10          0          0          0         68   init.o
         0          0          0          0          0          0   iusefp.o
        32          0          0          0          0         68   llshl.o
        34          0          0          0          0         68   llushr.o
        36          0          0          0          0        100   memseta.o
        62          0          0          0          0         72   uidiv_div0.o
       236          0          0          0          0        216   depilogue.o
        72         10          0          0          0         72   dfixi.o
        28          4          0          0          0         68   dfltui.o
       162          0          0          0          0         80   dsqrt.o

    ----------------------------------------------------------------------
      1724        124          0          4          0      83803   Library Totals
        18          0          0          0          0          0   (incl. Padding)

    ----------------------------------------------------------------------

      Code (inc. data)   RO Data    RW Data    ZI Data      Debug   Library Name

       862         80          0          0          0      82855   driverlib.a
        72          6          0          0          0         76   m_ps.l
       274         24          0          4          0        436   mc_p.l
       498         14          0          0          0        436   mf_p.l

    ----------------------------------------------------------------------
      1724        124          0          4          0      83803   Library Totals

    ----------------------------------------------------------------------

==============================================================================


      Code (inc. data)   RO Data    RW Data    ZI Data      Debug   

     11356        552      14496          8       1488     155268   Grand Totals
     11356        552      14496          8       1488     155268   ELF Image Totals
     11356        552      14496          8          0          0   ROM Totals

==============================================================================

    Total RO  Size (Code + RO Data)                25852 (  25.25kB)
    Total RW  Size (RW Data + ZI Data)              1496 (   1.46kB)
    Total ROM Size (Code + RO Data + RW Data)      25860 (  25.25kB)

==============================================================================

