Component: Arm Compiler for Embedded 6.21 Tool: armlink [5ec1fa00]

==============================================================================

Section Cross References

    empty.o(.text.main) refers to ti_msp_dl_config.o(.text.SYSCFG_DL_init) for SYSCFG_DL_init
    empty.o(.text.main) refers to mid_debug_uart.o(.text.debug_uart_init) for debug_uart_init
    empty.o(.text.main) refers to mid_button.o(.text.user_button_init) for user_button_init
    empty.o(.text.main) refers to hw_encoder.o(.text.encoder_init) for encoder_init
    empty.o(.text.main) refers to mid_timer.o(.text.timer_init) for timer_init
    empty.o(.text.main) refers to app_sys_mode.o(.text.sys_event_init) for sys_event_init
    empty.o(.text.main) refers to hw_lcd.o(.text.lcd_init) for lcd_init
    empty.o(.text.main) refers to app_ui.o(.text.ui_home_page) for ui_home_page
    empty.o(.text.main) refers to app_sys_mode.o(.text.get_motor_status_flag) for get_motor_status_flag
    empty.o(.text.main) refers to app_sys_mode.o(.text.get_functional_mode) for get_functional_mode
    empty.o(.text.main) refers to hw_lcd.o(.text.LCD_DrawPoint) for LCD_DrawPoint
    empty.o(.text.main) refers to app_sys_mode.o(.text.get_show_state) for get_show_state
    empty.o(.ARM.exidx.text.main) refers to empty.o(.text.main) for [Anonymous Symbol]
    startup_mspm0g350x_uvision.o(RESET) refers to startup_mspm0g350x_uvision.o(STACK) for __initial_sp
    startup_mspm0g350x_uvision.o(RESET) refers to startup_mspm0g350x_uvision.o(.text) for Reset_Handler
    startup_mspm0g350x_uvision.o(RESET) refers to hw_encoder.o(.text.GROUP1_IRQHandler) for GROUP1_IRQHandler
    startup_mspm0g350x_uvision.o(RESET) refers to mid_debug_uart.o(.text.UART0_IRQHandler) for UART0_IRQHandler
    startup_mspm0g350x_uvision.o(RESET) refers to mid_timer.o(.text.TIMA0_IRQHandler) for TIMA0_IRQHandler
==============================================================================

Removing Unused input sections from the image.

    Removing empty.o(.text), (0 bytes).
    Removing empty.o(.ARM.exidx.text.main), (8 bytes).
    Removing empty.o(.ARM.use_no_argv), (4 bytes).
    Removing startup_mspm0g350x_uvision.o(HEAP), (1024 bytes).
    Removing ti_msp_dl_config.o(.text), (0 bytes).
    Removing ti_msp_dl_config.o(.ARM.exidx.text.SYSCFG_DL_init), (8 bytes).
    Removing ti_msp_dl_config.o(.ARM.exidx.text.SYSCFG_DL_initPower), (8 bytes).
    Removing ti_msp_dl_config.o(.ARM.exidx.text.SYSCFG_DL_GPIO_init), (8 bytes).
    Removing ti_msp_dl_config.o(.ARM.exidx.text.SYSCFG_DL_SYSCTL_init), (8 bytes).
    Removing ti_msp_dl_config.o(.ARM.exidx.text.SYSCFG_DL_PWM_MOTOR_init), (8 bytes).
    Removing ti_msp_dl_config.o(.ARM.exidx.text.SYSCFG_DL_TIMER_TICK_init), (8 bytes).
    Removing ti_msp_dl_config.o(.ARM.exidx.text.SYSCFG_DL_UART_DEBUG_init), (8 bytes).
    Removing ti_msp_dl_config.o(.ARM.exidx.text.SYSCFG_DL_SPI_LCD_init), (8 bytes).
    Removing ti_msp_dl_config.o(.text.SYSCFG_DL_saveConfiguration), (104 bytes).
    Removing ti_msp_dl_config.o(.ARM.exidx.text.SYSCFG_DL_saveConfiguration), (8 bytes).
    Removing ti_msp_dl_config.o(.text.SYSCFG_DL_restoreConfiguration), (108 bytes).
    Removing ti_msp_dl_config.o(.ARM.exidx.text.SYSCFG_DL_restoreConfiguration), (8 bytes).
    Removing ti_msp_dl_config.o(.ARM.exidx.text.DL_GPIO_reset), (8 bytes).
==============================================================================

Image Symbol Table

    Local Symbols

    Symbol Name                              Value     Ov Type        Size  Object(Section)

    ../clib/division.s                       0x00000000   Number         0  aeabi_sdivfast.o ABSOLUTE
    ../clib/division.s                       0x00000000   Number         0  aeabi_sdivfast_div0.o ABSOLUTE
    ../clib/microlib/division.c              0x00000000   Number         0  uidiv.o ABSOLUTE
    ../clib/microlib/division.c              0x00000000   Number         0  uidiv_div0.o ABSOLUTE
    ../clib/microlib/division.c              0x00000000   Number         0  idiv_div0.o ABSOLUTE
    ../clib/microlib/division.c              0x00000000   Number         0  idiv0.o ABSOLUTE
    ../clib/microlib/division.c              0x00000000   Number         0  uldiv.o ABSOLUTE
    ../clib/microlib/errno.c                 0x00000000   Number         0  errno.o ABSOLUTE
    ../clib/microlib/init/entry.s            0x00000000   Number         0  entry.o ABSOLUTE
    ../clib/microlib/init/entry.s            0x00000000   Number         0  entry2.o ABSOLUTE
    ../clib/microlib/init/entry.s            0x00000000   Number         0  entry5.o ABSOLUTE
    ../clib/microlib/init/entry.s            0x00000000   Number         0  entry7a.o ABSOLUTE
    ../clib/microlib/init/entry.s            0x00000000   Number         0  entry7b.o ABSOLUTE
    ../clib/microlib/init/entry.s            0x00000000   Number         0  entry8a.o ABSOLUTE
    ../clib/microlib/init/entry.s            0x00000000   Number         0  entry8b.o ABSOLUTE
    ../clib/microlib/init/entry.s            0x00000000   Number         0  entry9a.o ABSOLUTE
    ../clib/microlib/init/entry.s            0x00000000   Number         0  entry9b.o ABSOLUTE
    ../clib/microlib/init/entry.s            0x00000000   Number         0  entry10a.o ABSOLUTE
    ../clib/microlib/init/entry.s            0x00000000   Number         0  entry10b.o ABSOLUTE
    ../clib/microlib/init/entry.s            0x00000000   Number         0  entry11a.o ABSOLUTE
    ../clib/microlib/init/entry.s            0x00000000   Number         0  entry11b.o ABSOLUTE
    ../clib/microlib/longlong.c              0x00000000   Number         0  llushr.o ABSOLUTE
    ../clib/microlib/longlong.c              0x00000000   Number         0  llshl.o ABSOLUTE
    ../clib/microlib/longlong.c              0x00000000   Number         0  llsshr.o ABSOLUTE
    ../clib/microlib/printf/printf.c         0x00000000   Number         0  printfa.o ABSOLUTE
    ../clib/microlib/stdio/fputc.c           0x00000000   Number         0  fputc.o ABSOLUTE
    ../clib/microlib/stdio/fputc.c           0x00000000   Number         0  fputc_h.o ABSOLUTE
    ../clib/microlib/stdio/semi.s            0x00000000   Number         0  semi.o ABSOLUTE
    ../clib/microlib/stdio/streams.c         0x00000000   Number         0  stdout.o ABSOLUTE
    ../clib/microlib/string/memset.c         0x00000000   Number         0  memseta.o ABSOLUTE
    ../clib/microlib/string/strlen.c         0x00000000   Number         0  strlen.o ABSOLUTE
    ../clib/microlib/stubs.s                 0x00000000   Number         0  iusefp.o ABSOLUTE
    ../clib/microlib/stubs.s                 0x00000000   Number         0  iusesemip.o ABSOLUTE
    ../fplib/microlib/f2d.c                  0x00000000   Number         0  f2d.o ABSOLUTE
    ../fplib/microlib/fpadd.c                0x00000000   Number         0  dadd.o ABSOLUTE
    ../fplib/microlib/fpcmp.c                0x00000000   Number         0  fcmpeq.o ABSOLUTE
    ../fplib/microlib/fpdiv.c                0x00000000   Number         0  ddiv.o ABSOLUTE
    ../fplib/microlib/fpepilogue.c           0x00000000   Number         0  depilogue.o ABSOLUTE
    ../fplib/microlib/fpfix.c                0x00000000   Number         0  ffixui.o ABSOLUTE
    ../fplib/microlib/fpfix.c                0x00000000   Number         0  dfixi.o ABSOLUTE
    ../fplib/microlib/fpfix.c                0x00000000   Number         0  dfixul.o ABSOLUTE
    ../fplib/microlib/fpflt.c                0x00000000   Number         0  dfltui.o ABSOLUTE
    ../fplib/microlib/fpmul.c                0x00000000   Number         0  fmul.o ABSOLUTE
    ../fplib/microlib/fpmul.c                0x00000000   Number         0  dmul.o ABSOLUTE
    ../fplib/microlib/fpsqrt.c               0x00000000   Number         0  dsqrt.o ABSOLUTE
    ../mathlib/sqrt.c                        0x00000000   Number         0  sqrt.o ABSOLUTE
    app_key_task.c                           0x00000000   Number         0  app_key_task.o ABSOLUTE
    app_sys_mode.c                           0x00000000   Number         0  app_sys_mode.o ABSOLUTE
    app_ui.c                                 0x00000000   Number         0  app_ui.o ABSOLUTE
    cdrcmple.s                               0x00000000   Number         0  cdrcmple.o ABSOLUTE
    dc.s                                     0x00000000   Number         0  dc.o ABSOLUTE
    dl_common.c                              0x00000000   Number         0  dl_common.o ABSOLUTE
    dl_spi.c                                 0x00000000   Number         0  dl_spi.o ABSOLUTE
    dl_sysctl_mspm0g1x0x_g3x0x.c             0x00000000   Number         0  dl_sysctl_mspm0g1x0x_g3x0x.o ABSOLUTE
    dl_timer.c                               0x00000000   Number         0  dl_timer.o ABSOLUTE
    dl_uart.c                                0x00000000   Number         0  dl_uart.o ABSOLUTE
    empty.c                                  0x00000000   Number         0  empty.o ABSOLUTE
    handlers.s                               0x00000000   Number         0  handlers.o ABSOLUTE
    hw_encoder.c                             0x00000000   Number         0  hw_encoder.o ABSOLUTE
    hw_key.c                                 0x00000000   Number         0  hw_key.o ABSOLUTE
    hw_lcd.c                                 0x00000000   Number         0  hw_lcd.o ABSOLUTE
    hw_motor.c                               0x00000000   Number         0  hw_motor.o ABSOLUTE
    init.s                                   0x00000000   Number         0  init.o ABSOLUTE
    mid_button.c                             0x00000000   Number         0  mid_button.o ABSOLUTE
    mid_debug_led.c                          0x00000000   Number         0  mid_debug_led.o ABSOLUTE
    mid_debug_uart.c                         0x00000000   Number         0  mid_debug_uart.o ABSOLUTE
    mid_timer.c                              0x00000000   Number         0  mid_timer.o ABSOLUTE
    startup_mspm0g350x_uvision.s             0x00000000   Number         0  startup_mspm0g350x_uvision.o ABSOLUTE
    ti_msp_dl_config.c                       0x00000000   Number         0  ti_msp_dl_config.o ABSOLUTE
    RESET                                    0x00000000   Section      192  startup_mspm0g350x_uvision.o(RESET)
    .ARM.Collect$$$$00000000                 0x000000c0   Section        0  entry.o(.ARM.Collect$$$$00000000)
    .ARM.Collect$$$$00000001                 0x000000c0   Section        4  entry2.o(.ARM.Collect$$$$00000001)
    .ARM.Collect$$$$00000004                 0x000000c4   Section        4  entry5.o(.ARM.Collect$$$$00000004)
    .ARM.Collect$$$$00000008                 0x000000c8   Section        0  entry7b.o(.ARM.Collect$$$$00000008)
    .ARM.Collect$$$$0000000A                 0x000000c8   Section        0  entry8b.o(.ARM.Collect$$$$0000000A)
    .ARM.Collect$$$$0000000B                 0x000000c8   Section        8  entry9a.o(.ARM.Collect$$$$0000000B)
    __lit__00000000                          0x000000d0   Data           4  entry2.o(.ARM.Collect$$$$00002712)
    .ARM.Collect$$$$0000000D                 0x000000d0   Section        0  entry10a.o(.ARM.Collect$$$$0000000D)
    .ARM.Collect$$$$0000000F                 0x000000d0   Section        0  entry11a.o(.ARM.Collect$$$$0000000F)
    .ARM.Collect$$$$00002712                 0x000000d0   Section        4  entry2.o(.ARM.Collect$$$$00002712)
    .text                                    0x000000d4   Section       20  startup_mspm0g350x_uvision.o(.text)
    .text                                    0x000000e8   Section        0  memseta.o(.text)
    .text                                    0x0000010c   Section        0  strlen.o(.text)
    .text                                    0x0000011a   Section        0  fcmpeq.o(.text)
    .text                                    0x00000138   Section        0  dfltui.o(.text)
    .text                                    0x00000154   Section        0  dfixi.o(.text)
    .text                                    0x0000019c   Section        0  f2d.o(.text)
    .text                                    0x000001c4   Section        0  uidiv_div0.o(.text)
    .text                                    0x00000202   Section        0  uldiv.o(.text)
    .text                                    0x00000262   Section        0  llushr.o(.text)
    .text                                    0x00000284   Section        0  iusefp.o(.text)
    .text                                    0x00000284   Section        0  depilogue.o(.text)
    .text                                    0x00000344   Section        0  dadd.o(.text)
    .text                                    0x000004a8   Section        0  dmul.o(.text)
    .text                                    0x00000578   Section        0  ddiv.o(.text)
    .text                                    0x00000668   Section        0  dsqrt.o(.text)
    .text                                    0x0000070c   Section        0  dfixul.o(.text)
    .text                                    0x0000074c   Section       40  cdrcmple.o(.text)
    .text                                    0x00000778   Section       48  init.o(.text)
    .text                                    0x000007a8   Section        0  llshl.o(.text)
    .text                                    0x000007c8   Section        0  llsshr.o(.text)
    [Anonymous Symbol]                       0x000007ee   Section        0  dl_common.o(.text.DL_Common_delayCycles)
    DL_Common_updateReg                      0x000007f9   Thumb Code    40  ti_msp_dl_config.o(.text.DL_Common_updateReg)
    [Anonymous Symbol]                       0x000007f8   Section        0  ti_msp_dl_config.o(.text.DL_Common_updateReg)
    DL_GPIO_clearInterruptStatus             0x00000821   Thumb Code    24  ti_msp_dl_config.o(.text.DL_GPIO_clearInterruptStatus)
    [Anonymous Symbol]                       0x00000820   Section        0  ti_msp_dl_config.o(.text.DL_GPIO_clearInterruptStatus)
    DL_GPIO_clearInterruptStatus             0x00000839   Thumb Code    24  hw_encoder.o(.text.DL_GPIO_clearInterruptStatus)
    [Anonymous Symbol]                       0x00000838   Section        0  hw_encoder.o(.text.DL_GPIO_clearInterruptStatus)
    __arm_cp.9_0                             0x00000850   Number         4  hw_encoder.o(.text.DL_GPIO_clearInterruptStatus)
    DL_GPIO_clearPins                        0x00000855   Thumb Code    20  ti_msp_dl_config.o(.text.DL_GPIO_clearPins)
    [Anonymous Symbol]                       0x00000854   Section        0  ti_msp_dl_config.o(.text.DL_GPIO_clearPins)
    DL_GPIO_clearPins                        0x00000869   Thumb Code    20  hw_lcd.o(.text.DL_GPIO_clearPins)
    [Anonymous Symbol]                       0x00000868   Section        0  hw_lcd.o(.text.DL_GPIO_clearPins)
    DL_GPIO_clearPins                        0x0000087d   Thumb Code    20  app_ui.o(.text.DL_GPIO_clearPins)
    [Anonymous Symbol]                       0x0000087c   Section        0  app_ui.o(.text.DL_GPIO_clearPins)
    DL_GPIO_enableInterrupt                  0x00000891   Thumb Code    24  ti_msp_dl_config.o(.text.DL_GPIO_enableInterrupt)
    [Anonymous Symbol]                       0x00000890   Section        0  ti_msp_dl_config.o(.text.DL_GPIO_enableInterrupt)
    __arm_cp.28_0                            0x000008a8   Number         4  ti_msp_dl_config.o(.text.DL_GPIO_enableInterrupt)
    DL_GPIO_enableOutput                     0x000008ad   Thumb Code    20  ti_msp_dl_config.o(.text.DL_GPIO_enableOutput)
    [Anonymous Symbol]                       0x000008ac   Section        0  ti_msp_dl_config.o(.text.DL_GPIO_enableOutput)
    __arm_cp.20_0                            0x000008c0   Number         4  ti_msp_dl_config.o(.text.DL_GPIO_enableOutput)
    DL_GPIO_enablePower                      0x000008c5   Thumb Code    20  ti_msp_dl_config.o(.text.DL_GPIO_enablePower)
    [Anonymous Symbol]                       0x000008c4   Section        0  ti_msp_dl_config.o(.text.DL_GPIO_enablePower)
    DL_GPIO_getEnabledInterruptStatus        0x000008d9   Thumb Code    20  hw_encoder.o(.text.DL_GPIO_getEnabledInterruptStatus)
    [Anonymous Symbol]                       0x000008d8   Section        0  hw_encoder.o(.text.DL_GPIO_getEnabledInterruptStatus)
    __arm_cp.7_0                             0x000008ec   Number         4  hw_encoder.o(.text.DL_GPIO_getEnabledInterruptStatus)
    DL_GPIO_initDigitalInputFeatures         0x000008f1   Thumb Code    44  ti_msp_dl_config.o(.text.DL_GPIO_initDigitalInputFeatures)
    [Anonymous Symbol]                       0x000008f0   Section        0  ti_msp_dl_config.o(.text.DL_GPIO_initDigitalInputFeatures)
    __arm_cp.24_0                            0x0000091c   Number         4  ti_msp_dl_config.o(.text.DL_GPIO_initDigitalInputFeatures)
    DL_GPIO_initDigitalOutput                0x00000921   Thumb Code    20  ti_msp_dl_config.o(.text.DL_GPIO_initDigitalOutput)
    [Anonymous Symbol]                       0x00000920   Section        0  ti_msp_dl_config.o(.text.DL_GPIO_initDigitalOutput)
    DL_GPIO_initDigitalOutputFeatures        0x00000935   Thumb Code    44  ti_msp_dl_config.o(.text.DL_GPIO_initDigitalOutputFeatures)
    [Anonymous Symbol]                       0x00000934   Section        0  ti_msp_dl_config.o(.text.DL_GPIO_initDigitalOutputFeatures)
    DL_GPIO_initPeripheralAnalogFunction     0x00000961   Thumb Code    20  ti_msp_dl_config.o(.text.DL_GPIO_initPeripheralAnalogFunction)
    [Anonymous Symbol]                       0x00000960   Section        0  ti_msp_dl_config.o(.text.DL_GPIO_initPeripheralAnalogFunction)
    DL_GPIO_initPeripheralInputFunction      0x00000975   Thumb Code    24  ti_msp_dl_config.o(.text.DL_GPIO_initPeripheralInputFunction)
    [Anonymous Symbol]                       0x00000974   Section        0  ti_msp_dl_config.o(.text.DL_GPIO_initPeripheralInputFunction)
    __arm_cp.21_0                            0x0000098c   Number         4  ti_msp_dl_config.o(.text.DL_GPIO_initPeripheralInputFunction)
    DL_GPIO_initPeripheralOutputFunction     0x00000991   Thumb Code    24  ti_msp_dl_config.o(.text.DL_GPIO_initPeripheralOutputFunction)
    [Anonymous Symbol]                       0x00000990   Section        0  ti_msp_dl_config.o(.text.DL_GPIO_initPeripheralOutputFunction)
    __arm_cp.19_0                            0x000009a8   Number         4  ti_msp_dl_config.o(.text.DL_GPIO_initPeripheralOutputFunction)
    DL_GPIO_readPins                         0x000009ad   Thumb Code    22  hw_key.o(.text.DL_GPIO_readPins)
    [Anonymous Symbol]                       0x000009ac   Section        0  hw_key.o(.text.DL_GPIO_readPins)
    DL_GPIO_readPins                         0x000009c3   Thumb Code    22  hw_encoder.o(.text.DL_GPIO_readPins)
    [Anonymous Symbol]                       0x000009c2   Section        0  hw_encoder.o(.text.DL_GPIO_readPins)
    DL_GPIO_reset                            0x000009d9   Thumb Code    16  ti_msp_dl_config.o(.text.DL_GPIO_reset)
    [Anonymous Symbol]                       0x000009d8   Section        0  ti_msp_dl_config.o(.text.DL_GPIO_reset)
    DL_GPIO_setLowerPinsPolarity             0x000009e9   Thumb Code    24  ti_msp_dl_config.o(.text.DL_GPIO_setLowerPinsPolarity)
    [Anonymous Symbol]                       0x000009e8   Section        0  ti_msp_dl_config.o(.text.DL_GPIO_setLowerPinsPolarity)
    __arm_cp.26_0                            0x00000a00   Number         4  ti_msp_dl_config.o(.text.DL_GPIO_setLowerPinsPolarity)
    DL_GPIO_setPins                          0x00000a05   Thumb Code    20  hw_lcd.o(.text.DL_GPIO_setPins)
    [Anonymous Symbol]                       0x00000a04   Section        0  hw_lcd.o(.text.DL_GPIO_setPins)
    DL_GPIO_setPins                          0x00000a19   Thumb Code    20  app_ui.o(.text.DL_GPIO_setPins)
    [Anonymous Symbol]                       0x00000a18   Section        0  app_ui.o(.text.DL_GPIO_setPins)
    __arm_cp.5_0                             0x00000a2c   Number         4  app_ui.o(.text.DL_GPIO_setPins)
    DL_SPI_enable                            0x00000a31   Thumb Code    20  ti_msp_dl_config.o(.text.DL_SPI_enable)
    [Anonymous Symbol]                       0x00000a30   Section        0  ti_msp_dl_config.o(.text.DL_SPI_enable)
    __arm_cp.46_0                            0x00000a44   Number         4  ti_msp_dl_config.o(.text.DL_SPI_enable)
    DL_SPI_enablePower                       0x00000a49   Thumb Code    20  ti_msp_dl_config.o(.text.DL_SPI_enablePower)
    [Anonymous Symbol]                       0x00000a48   Section        0  ti_msp_dl_config.o(.text.DL_SPI_enablePower)
    __arm_cp.17_0                            0x00000a5c   Number         4  ti_msp_dl_config.o(.text.DL_SPI_enablePower)
    [Anonymous Symbol]                       0x00000a60   Section        0  dl_spi.o(.text.DL_SPI_init)
    __arm_cp.0_0                             0x00000a9c   Number         4  dl_spi.o(.text.DL_SPI_init)
    __arm_cp.0_1                             0x00000aa0   Number         4  dl_spi.o(.text.DL_SPI_init)
    DL_SPI_isBusy                            0x00000aa5   Thumb Code    20  hw_lcd.o(.text.DL_SPI_isBusy)
    [Anonymous Symbol]                       0x00000aa4   Section        0  hw_lcd.o(.text.DL_SPI_isBusy)
    __arm_cp.2_0                             0x00000ab8   Number         4  hw_lcd.o(.text.DL_SPI_isBusy)
    DL_SPI_reset                             0x00000abd   Thumb Code    16  ti_msp_dl_config.o(.text.DL_SPI_reset)
    [Anonymous Symbol]                       0x00000abc   Section        0  ti_msp_dl_config.o(.text.DL_SPI_reset)
    __arm_cp.13_0                            0x00000acc   Number         4  ti_msp_dl_config.o(.text.DL_SPI_reset)
    __arm_cp.13_1                            0x00000ad0   Number         4  ti_msp_dl_config.o(.text.DL_SPI_reset)
    DL_SPI_setBitRateSerialClockDivider      0x00000ad5   Thumb Code    28  ti_msp_dl_config.o(.text.DL_SPI_setBitRateSerialClockDivider)
    [Anonymous Symbol]                       0x00000ad4   Section        0  ti_msp_dl_config.o(.text.DL_SPI_setBitRateSerialClockDivider)
    __arm_cp.44_1                            0x00000af0   Number         4  ti_msp_dl_config.o(.text.DL_SPI_setBitRateSerialClockDivider)
    [Anonymous Symbol]                       0x00000af4   Section        0  dl_spi.o(.text.DL_SPI_setClockConfig)
    DL_SPI_setFIFOThreshold                  0x00000b09   Thumb Code    44  ti_msp_dl_config.o(.text.DL_SPI_setFIFOThreshold)
    [Anonymous Symbol]                       0x00000b08   Section        0  ti_msp_dl_config.o(.text.DL_SPI_setFIFOThreshold)
    __arm_cp.45_0                            0x00000b34   Number         4  ti_msp_dl_config.o(.text.DL_SPI_setFIFOThreshold)
    DL_SPI_transmitData8                     0x00000b39   Thumb Code    22  hw_lcd.o(.text.DL_SPI_transmitData8)
    [Anonymous Symbol]                       0x00000b38   Section        0  hw_lcd.o(.text.DL_SPI_transmitData8)
    [Anonymous Symbol]                       0x00000b50   Section        0  dl_sysctl_mspm0g1x0x_g3x0x.o(.text.DL_SYSCTL_configSYSPLL)
    __arm_cp.0_2                             0x00000c04   Number         4  dl_sysctl_mspm0g1x0x_g3x0x.o(.text.DL_SYSCTL_configSYSPLL)
    __arm_cp.0_3                             0x00000c08   Number         4  dl_sysctl_mspm0g1x0x_g3x0x.o(.text.DL_SYSCTL_configSYSPLL)
    __arm_cp.0_4                             0x00000c0c   Number         4  dl_sysctl_mspm0g1x0x_g3x0x.o(.text.DL_SYSCTL_configSYSPLL)
    DL_SYSCTL_disableHFXT                    0x00000c11   Thumb Code    12  ti_msp_dl_config.o(.text.DL_SYSCTL_disableHFXT)
    [Anonymous Symbol]                       0x00000c10   Section        0  ti_msp_dl_config.o(.text.DL_SYSCTL_disableHFXT)
    DL_SYSCTL_disableSYSPLL                  0x00000c1d   Thumb Code    16  ti_msp_dl_config.o(.text.DL_SYSCTL_disableSYSPLL)
    [Anonymous Symbol]                       0x00000c1c   Section        0  ti_msp_dl_config.o(.text.DL_SYSCTL_disableSYSPLL)
    __arm_cp.33_0                            0x00000c2c   Number         4  ti_msp_dl_config.o(.text.DL_SYSCTL_disableSYSPLL)
    DL_SYSCTL_setBORThreshold                0x00000c31   Thumb Code    20  ti_msp_dl_config.o(.text.DL_SYSCTL_setBORThreshold)
    [Anonymous Symbol]                       0x00000c30   Section        0  ti_msp_dl_config.o(.text.DL_SYSCTL_setBORThreshold)
    __arm_cp.29_0                            0x00000c44   Number         4  ti_msp_dl_config.o(.text.DL_SYSCTL_setBORThreshold)
    DL_SYSCTL_setFlashWaitState              0x00000c49   Thumb Code    28  ti_msp_dl_config.o(.text.DL_SYSCTL_setFlashWaitState)
    [Anonymous Symbol]                       0x00000c48   Section        0  ti_msp_dl_config.o(.text.DL_SYSCTL_setFlashWaitState)
    [Anonymous Symbol]                       0x00000c64   Section        0  dl_sysctl_mspm0g1x0x_g3x0x.o(.text.DL_SYSCTL_setHFCLKSourceHFXTParams)
    __arm_cp.7_0                             0x00000cb0   Number         4  dl_sysctl_mspm0g1x0x_g3x0x.o(.text.DL_SYSCTL_setHFCLKSourceHFXTParams)
    DL_SYSCTL_setSYSOSCFreq                  0x00000cb5   Thumb Code    24  ti_msp_dl_config.o(.text.DL_SYSCTL_setSYSOSCFreq)
    [Anonymous Symbol]                       0x00000cb4   Section        0  ti_msp_dl_config.o(.text.DL_SYSCTL_setSYSOSCFreq)
    __arm_cp.31_0                            0x00000ccc   Number         4  ti_msp_dl_config.o(.text.DL_SYSCTL_setSYSOSCFreq)
    DL_SYSCTL_setULPCLKDivider               0x00000cd1   Thumb Code    24  ti_msp_dl_config.o(.text.DL_SYSCTL_setULPCLKDivider)
    [Anonymous Symbol]                       0x00000cd0   Section        0  ti_msp_dl_config.o(.text.DL_SYSCTL_setULPCLKDivider)
    [Anonymous Symbol]                       0x00000ce8   Section        0  dl_sysctl_mspm0g1x0x_g3x0x.o(.text.DL_SYSCTL_switchMCLKfromSYSOSCtoHSCLK)
    __arm_cp.4_0                             0x00000d08   Number         4  dl_sysctl_mspm0g1x0x_g3x0x.o(.text.DL_SYSCTL_switchMCLKfromSYSOSCtoHSCLK)
    __arm_cp.4_1                             0x00000d0c   Number         4  dl_sysctl_mspm0g1x0x_g3x0x.o(.text.DL_SYSCTL_switchMCLKfromSYSOSCtoHSCLK)
    DL_Timer_enableClock                     0x00000d11   Thumb Code    16  ti_msp_dl_config.o(.text.DL_Timer_enableClock)
    [Anonymous Symbol]                       0x00000d10   Section        0  ti_msp_dl_config.o(.text.DL_Timer_enableClock)
    __arm_cp.37_0                            0x00000d20   Number         4  ti_msp_dl_config.o(.text.DL_Timer_enableClock)
    DL_Timer_enableInterrupt                 0x00000d25   Thumb Code    24  ti_msp_dl_config.o(.text.DL_Timer_enableInterrupt)
    [Anonymous Symbol]                       0x00000d24   Section        0  ti_msp_dl_config.o(.text.DL_Timer_enableInterrupt)
    DL_Timer_enablePower                     0x00000d3d   Thumb Code    20  ti_msp_dl_config.o(.text.DL_Timer_enablePower)
    [Anonymous Symbol]                       0x00000d3c   Section        0  ti_msp_dl_config.o(.text.DL_Timer_enablePower)
    __arm_cp.15_0                            0x00000d50   Number         4  ti_msp_dl_config.o(.text.DL_Timer_enablePower)
    DL_Timer_getPendingInterrupt             0x00000d55   Thumb Code    18  mid_timer.o(.text.DL_Timer_getPendingInterrupt)
    [Anonymous Symbol]                       0x00000d54   Section        0  mid_timer.o(.text.DL_Timer_getPendingInterrupt)
    [Anonymous Symbol]                       0x00000d68   Section        0  dl_timer.o(.text.DL_Timer_initFourCCPWMMode)
    __arm_cp.40_1                            0x00000e5c   Number         4  dl_timer.o(.text.DL_Timer_initFourCCPWMMode)
    __arm_cp.40_2                            0x00000e60   Number         4  dl_timer.o(.text.DL_Timer_initFourCCPWMMode)
    __arm_cp.40_4                            0x00000e64   Number         4  dl_timer.o(.text.DL_Timer_initFourCCPWMMode)
    __arm_cp.40_5                            0x00000e68   Number         4  dl_timer.o(.text.DL_Timer_initFourCCPWMMode)
    __arm_cp.40_6                            0x00000e6c   Number         4  dl_timer.o(.text.DL_Timer_initFourCCPWMMode)
    [Anonymous Symbol]                       0x00000e70   Section        0  dl_timer.o(.text.DL_Timer_initTimerMode)
    __arm_cp.2_0                             0x00000f50   Number         4  dl_timer.o(.text.DL_Timer_initTimerMode)
    __arm_cp.2_2                             0x00000f54   Number         4  dl_timer.o(.text.DL_Timer_initTimerMode)
    __arm_cp.2_3                             0x00000f58   Number         4  dl_timer.o(.text.DL_Timer_initTimerMode)
    DL_Timer_reset                           0x00000f5d   Thumb Code    16  ti_msp_dl_config.o(.text.DL_Timer_reset)
    [Anonymous Symbol]                       0x00000f5c   Section        0  ti_msp_dl_config.o(.text.DL_Timer_reset)
    DL_Timer_setCCPDirection                 0x00000f6d   Thumb Code    20  ti_msp_dl_config.o(.text.DL_Timer_setCCPDirection)
    [Anonymous Symbol]                       0x00000f6c   Section        0  ti_msp_dl_config.o(.text.DL_Timer_setCCPDirection)
    [Anonymous Symbol]                       0x00000f80   Section        0  dl_timer.o(.text.DL_Timer_setCaptCompUpdateMethod)
    __arm_cp.23_0                            0x00000f98   Number         4  dl_timer.o(.text.DL_Timer_setCaptCompUpdateMethod)
    [Anonymous Symbol]                       0x00000f9c   Section        0  dl_timer.o(.text.DL_Timer_setCaptureCompareOutCtl)
    __arm_cp.27_0                            0x00000fb0   Number         4  dl_timer.o(.text.DL_Timer_setCaptureCompareOutCtl)
    [Anonymous Symbol]                       0x00000fb4   Section        0  dl_timer.o(.text.DL_Timer_setCaptureCompareValue)
    __arm_cp.3_0                             0x00000fc0   Number         4  dl_timer.o(.text.DL_Timer_setCaptureCompareValue)
    [Anonymous Symbol]                       0x00000fc4   Section        0  dl_timer.o(.text.DL_Timer_setClockConfig)
    __arm_cp.0_0                             0x00000fdc   Number         4  dl_timer.o(.text.DL_Timer_setClockConfig)
    DL_Timer_setCounterControl               0x00000fe1   Thumb Code    52  ti_msp_dl_config.o(.text.DL_Timer_setCounterControl)
    [Anonymous Symbol]                       0x00000fe0   Section        0  ti_msp_dl_config.o(.text.DL_Timer_setCounterControl)
    __arm_cp.36_0                            0x00001014   Number         4  ti_msp_dl_config.o(.text.DL_Timer_setCounterControl)
    __arm_cp.36_1                            0x00001018   Number         4  ti_msp_dl_config.o(.text.DL_Timer_setCounterControl)
    DL_UART_enable                           0x0000101d   Thumb Code    22  ti_msp_dl_config.o(.text.DL_UART_enable)
    [Anonymous Symbol]                       0x0000101c   Section        0  ti_msp_dl_config.o(.text.DL_UART_enable)
    DL_UART_enableInterrupt                  0x00001035   Thumb Code    24  ti_msp_dl_config.o(.text.DL_UART_enableInterrupt)
    [Anonymous Symbol]                       0x00001034   Section        0  ti_msp_dl_config.o(.text.DL_UART_enableInterrupt)
    __arm_cp.42_0                            0x0000104c   Number         4  ti_msp_dl_config.o(.text.DL_UART_enableInterrupt)
    DL_UART_enablePower                      0x00001051   Thumb Code    20  ti_msp_dl_config.o(.text.DL_UART_enablePower)
    [Anonymous Symbol]                       0x00001050   Section        0  ti_msp_dl_config.o(.text.DL_UART_enablePower)
    __arm_cp.16_0                            0x00001064   Number         4  ti_msp_dl_config.o(.text.DL_UART_enablePower)
    DL_UART_getPendingInterrupt              0x00001069   Thumb Code    18  mid_debug_uart.o(.text.DL_UART_getPendingInterrupt)
    [Anonymous Symbol]                       0x00001068   Section        0  mid_debug_uart.o(.text.DL_UART_getPendingInterrupt)
    [Anonymous Symbol]                       0x0000107c   Section        0  dl_uart.o(.text.DL_UART_init)
    __arm_cp.0_0                             0x000010bc   Number         4  dl_uart.o(.text.DL_UART_init)
    __arm_cp.0_1                             0x000010c0   Number         4  dl_uart.o(.text.DL_UART_init)
    DL_UART_receiveData                      0x000010c5   Thumb Code    16  mid_debug_uart.o(.text.DL_UART_receiveData)
    [Anonymous Symbol]                       0x000010c4   Section        0  mid_debug_uart.o(.text.DL_UART_receiveData)
    __arm_cp.11_0                            0x000010d4   Number         4  mid_debug_uart.o(.text.DL_UART_receiveData)
    DL_UART_reset                            0x000010d9   Thumb Code    16  ti_msp_dl_config.o(.text.DL_UART_reset)
    [Anonymous Symbol]                       0x000010d8   Section        0  ti_msp_dl_config.o(.text.DL_UART_reset)
    __arm_cp.12_0                            0x000010e8   Number         4  ti_msp_dl_config.o(.text.DL_UART_reset)
    __arm_cp.12_1                            0x000010ec   Number         4  ti_msp_dl_config.o(.text.DL_UART_reset)
    DL_UART_setBaudRateDivisor               0x000010f1   Thumb Code    60  ti_msp_dl_config.o(.text.DL_UART_setBaudRateDivisor)
    [Anonymous Symbol]                       0x000010f0   Section        0  ti_msp_dl_config.o(.text.DL_UART_setBaudRateDivisor)
    __arm_cp.41_0                            0x0000112c   Number         4  ti_msp_dl_config.o(.text.DL_UART_setBaudRateDivisor)
    __arm_cp.41_1                            0x00001130   Number         4  ti_msp_dl_config.o(.text.DL_UART_setBaudRateDivisor)
    __arm_cp.41_2                            0x00001134   Number         4  ti_msp_dl_config.o(.text.DL_UART_setBaudRateDivisor)
    __arm_cp.41_3                            0x00001138   Number         4  ti_msp_dl_config.o(.text.DL_UART_setBaudRateDivisor)
    [Anonymous Symbol]                       0x0000113c   Section        0  dl_uart.o(.text.DL_UART_setClockConfig)
    DL_UART_setOversampling                  0x0000114f   Thumb Code    30  ti_msp_dl_config.o(.text.DL_UART_setOversampling)
    [Anonymous Symbol]                       0x0000114e   Section        0  ti_msp_dl_config.o(.text.DL_UART_setOversampling)
    [Anonymous Symbol]                       0x0000116c   Section        0  hw_lcd.o(.text.Drawarc)
    [Anonymous Symbol]                       0x000012c0   Section        0  hw_encoder.o(.text.GROUP1_IRQHandler)
    __arm_cp.6_0                             0x0000135c   Number         4  hw_encoder.o(.text.GROUP1_IRQHandler)
    __arm_cp.6_1                             0x00001360   Number         4  hw_encoder.o(.text.GROUP1_IRQHandler)
    [Anonymous Symbol]                       0x00001364   Section        0  hw_lcd.o(.text.LCD_Address_Set)
    [Anonymous Symbol]                       0x000013a2   Section        0  hw_lcd.o(.text.LCD_ArcRect)
    [Anonymous Symbol]                       0x000014ec   Section        0  hw_lcd.o(.text.LCD_DrawLine)
    [Anonymous Symbol]                       0x000015f8   Section        0  hw_lcd.o(.text.LCD_DrawPoint)
    [Anonymous Symbol]                       0x00001618   Section        0  hw_lcd.o(.text.LCD_DrawRectangle)
    [Anonymous Symbol]                       0x0000166a   Section        0  hw_lcd.o(.text.LCD_Fill)
    [Anonymous Symbol]                       0x000016c8   Section        0  hw_lcd.o(.text.LCD_ShowChar)
    __arm_cp.24_0                            0x00001894   Number         4  hw_lcd.o(.text.LCD_ShowChar)
    __arm_cp.24_1                            0x00001898   Number         4  hw_lcd.o(.text.LCD_ShowChar)
    __arm_cp.24_2                            0x0000189c   Number         4  hw_lcd.o(.text.LCD_ShowChar)
    __arm_cp.24_3                            0x000018a0   Number         4  hw_lcd.o(.text.LCD_ShowChar)
    [Anonymous Symbol]                       0x000018a4   Section        0  hw_lcd.o(.text.LCD_ShowChinese)
    [Anonymous Symbol]                       0x000019cc   Section        0  hw_lcd.o(.text.LCD_ShowChinese12x12)
    __arm_cp.20_0                            0x00001b64   Number         4  hw_lcd.o(.text.LCD_ShowChinese12x12)
    [Anonymous Symbol]                       0x00001b68   Section        0  hw_lcd.o(.text.LCD_ShowChinese16x16)
    __arm_cp.21_0                            0x00001d00   Number         4  hw_lcd.o(.text.LCD_ShowChinese16x16)
    [Anonymous Symbol]                       0x00001d04   Section        0  hw_lcd.o(.text.LCD_ShowChinese24x24)
    __arm_cp.22_0                            0x00001e9c   Number         4  hw_lcd.o(.text.LCD_ShowChinese24x24)
    [Anonymous Symbol]                       0x00001ea0   Section        0  hw_lcd.o(.text.LCD_ShowChinese32x32)
    __arm_cp.23_0                            0x00002038   Number         4  hw_lcd.o(.text.LCD_ShowChinese32x32)
    [Anonymous Symbol]                       0x0000203c   Section        0  hw_lcd.o(.text.LCD_ShowString)
    [Anonymous Symbol]                       0x0000209e   Section        0  hw_lcd.o(.text.LCD_WR_DATA)
    [Anonymous Symbol]                       0x000020ba   Section        0  hw_lcd.o(.text.LCD_WR_DATA8)
    [Anonymous Symbol]                       0x000020d0   Section        0  hw_lcd.o(.text.LCD_WR_REG)
    [Anonymous Symbol]                       0x000020fc   Section        0  hw_lcd.o(.text.LCD_Writ_Bus)
    [Anonymous Symbol]                       0x00002128   Section        0  ti_msp_dl_config.o(.text.SYSCFG_DL_GPIO_init)
    __arm_cp.2_2                             0x0000223c   Number         4  ti_msp_dl_config.o(.text.SYSCFG_DL_GPIO_init)
    [Anonymous Symbol]                       0x00002240   Section        0  ti_msp_dl_config.o(.text.SYSCFG_DL_PWM_MOTOR_init)
    __arm_cp.4_0                             0x000022c0   Number         4  ti_msp_dl_config.o(.text.SYSCFG_DL_PWM_MOTOR_init)
    __arm_cp.4_2                             0x000022c4   Number         4  ti_msp_dl_config.o(.text.SYSCFG_DL_PWM_MOTOR_init)
    __arm_cp.4_3                             0x000022c8   Number         4  ti_msp_dl_config.o(.text.SYSCFG_DL_PWM_MOTOR_init)
    [Anonymous Symbol]                       0x000022cc   Section        0  ti_msp_dl_config.o(.text.SYSCFG_DL_SPI_LCD_init)
    __arm_cp.7_0                             0x00002300   Number         4  ti_msp_dl_config.o(.text.SYSCFG_DL_SPI_LCD_init)
    __arm_cp.7_2                             0x00002304   Number         4  ti_msp_dl_config.o(.text.SYSCFG_DL_SPI_LCD_init)
    [Anonymous Symbol]                       0x00002308   Section        0  ti_msp_dl_config.o(.text.SYSCFG_DL_SYSCTL_init)
    __arm_cp.3_0                             0x00002358   Number         4  ti_msp_dl_config.o(.text.SYSCFG_DL_SYSCTL_init)
    [Anonymous Symbol]                       0x0000235c   Section        0  ti_msp_dl_config.o(.text.SYSCFG_DL_TIMER_TICK_init)
    __arm_cp.5_0                             0x0000238c   Number         4  ti_msp_dl_config.o(.text.SYSCFG_DL_TIMER_TICK_init)
    __arm_cp.5_2                             0x00002390   Number         4  ti_msp_dl_config.o(.text.SYSCFG_DL_TIMER_TICK_init)
    [Anonymous Symbol]                       0x00002394   Section        0  ti_msp_dl_config.o(.text.SYSCFG_DL_UART_DEBUG_init)
    __arm_cp.6_0                             0x000023dc   Number         4  ti_msp_dl_config.o(.text.SYSCFG_DL_UART_DEBUG_init)
    __arm_cp.6_2                             0x000023e0   Number         4  ti_msp_dl_config.o(.text.SYSCFG_DL_UART_DEBUG_init)
    [Anonymous Symbol]                       0x000023e4   Section        0  ti_msp_dl_config.o(.text.SYSCFG_DL_init)
    __arm_cp.0_0                             0x00002418   Number         4  ti_msp_dl_config.o(.text.SYSCFG_DL_init)
    __arm_cp.0_1                             0x0000241c   Number         4  ti_msp_dl_config.o(.text.SYSCFG_DL_init)
    __arm_cp.0_2                             0x00002420   Number         4  ti_msp_dl_config.o(.text.SYSCFG_DL_init)
    [Anonymous Symbol]                       0x00002424   Section        0  ti_msp_dl_config.o(.text.SYSCFG_DL_initPower)
    __arm_cp.1_0                             0x00002488   Number         4  ti_msp_dl_config.o(.text.SYSCFG_DL_initPower)
    __arm_cp.1_1                             0x0000248c   Number         4  ti_msp_dl_config.o(.text.SYSCFG_DL_initPower)
    __arm_cp.1_2                             0x00002490   Number         4  ti_msp_dl_config.o(.text.SYSCFG_DL_initPower)
    __arm_cp.1_5                             0x00002494   Number         4  ti_msp_dl_config.o(.text.SYSCFG_DL_initPower)
    [Anonymous Symbol]                       0x00002498   Section        0  mid_timer.o(.text.TIMA0_IRQHandler)
    __arm_cp.3_0                             0x000024b4   Number         4  mid_timer.o(.text.TIMA0_IRQHandler)
    [Anonymous Symbol]                       0x000024b8   Section        0  mid_debug_uart.o(.text.UART0_IRQHandler)
    __arm_cp.9_0                             0x000024e0   Number         4  mid_debug_uart.o(.text.UART0_IRQHandler)
    __arm_cp.9_1                             0x000024e4   Number         4  mid_debug_uart.o(.text.UART0_IRQHandler)
    __NVIC_ClearPendingIRQ                   0x000024e9   Thumb Code    40  hw_encoder.o(.text.__NVIC_ClearPendingIRQ)
    [Anonymous Symbol]                       0x000024e8   Section        0  hw_encoder.o(.text.__NVIC_ClearPendingIRQ)
    __NVIC_ClearPendingIRQ                   0x00002511   Thumb Code    40  mid_debug_uart.o(.text.__NVIC_ClearPendingIRQ)
    [Anonymous Symbol]                       0x00002510   Section        0  mid_debug_uart.o(.text.__NVIC_ClearPendingIRQ)
    __NVIC_ClearPendingIRQ                   0x00002539   Thumb Code    40  mid_timer.o(.text.__NVIC_ClearPendingIRQ)
    [Anonymous Symbol]                       0x00002538   Section        0  mid_timer.o(.text.__NVIC_ClearPendingIRQ)
    __arm_cp.1_0                             0x00002560   Number         4  mid_timer.o(.text.__NVIC_ClearPendingIRQ)
    __NVIC_EnableIRQ                         0x00002565   Thumb Code    40  hw_encoder.o(.text.__NVIC_EnableIRQ)
    [Anonymous Symbol]                       0x00002564   Section        0  hw_encoder.o(.text.__NVIC_EnableIRQ)
    __NVIC_EnableIRQ                         0x0000258d   Thumb Code    40  mid_debug_uart.o(.text.__NVIC_EnableIRQ)
    [Anonymous Symbol]                       0x0000258c   Section        0  mid_debug_uart.o(.text.__NVIC_EnableIRQ)
    __NVIC_EnableIRQ                         0x000025b5   Thumb Code    40  mid_timer.o(.text.__NVIC_EnableIRQ)
    [Anonymous Symbol]                       0x000025b4   Section        0  mid_timer.o(.text.__NVIC_EnableIRQ)
    __arm_cp.2_0                             0x000025dc   Number         4  mid_timer.o(.text.__NVIC_EnableIRQ)
    __NVIC_SetPriority                       0x000025e1   Thumb Code   124  ti_msp_dl_config.o(.text.__NVIC_SetPriority)
    [Anonymous Symbol]                       0x000025e0   Section        0  ti_msp_dl_config.o(.text.__NVIC_SetPriority)
    __arm_cp.35_0                            0x0000265c   Number         4  ti_msp_dl_config.o(.text.__NVIC_SetPriority)
    __arm_cp.35_1                            0x00002660   Number         4  ti_msp_dl_config.o(.text.__NVIC_SetPriority)
    [Anonymous Symbol]                       0x00002664   Section        0  app_key_task.o(.text.btn_down_cb)
    [Anonymous Symbol]                       0x00002744   Section        0  app_key_task.o(.text.btn_left_cb)
    [Anonymous Symbol]                       0x000027c8   Section        0  app_key_task.o(.text.btn_right_cb)
    [Anonymous Symbol]                       0x000028c4   Section        0  app_key_task.o(.text.btn_up_cb)
    __arm_cp.0_0                             0x000029a0   Number         4  app_key_task.o(.text.btn_up_cb)
    __arm_cp.0_1                             0x000029a4   Number         4  app_key_task.o(.text.btn_up_cb)
    __arm_cp.0_2                             0x000029a8   Number         4  app_key_task.o(.text.btn_up_cb)
    __arm_cp.0_3                             0x000029ac   Number         4  app_key_task.o(.text.btn_up_cb)
    button_down_read                         0x000029b1   Thumb Code    22  mid_button.o(.text.button_down_read)
    [Anonymous Symbol]                       0x000029b0   Section        0  mid_button.o(.text.button_down_read)
    button_left_read                         0x000029c7   Thumb Code    22  mid_button.o(.text.button_left_read)
    [Anonymous Symbol]                       0x000029c6   Section        0  mid_button.o(.text.button_left_read)
    button_right_read                        0x000029dd   Thumb Code    22  mid_button.o(.text.button_right_read)
    [Anonymous Symbol]                       0x000029dc   Section        0  mid_button.o(.text.button_right_read)
    button_up_read                           0x000029f3   Thumb Code    22  mid_button.o(.text.button_up_read)
    [Anonymous Symbol]                       0x000029f2   Section        0  mid_button.o(.text.button_up_read)
    [Anonymous Symbol]                       0x00002a08   Section        0  mid_debug_uart.o(.text.debug_uart_init)
    debug_uart_receive_limit_length          0x00002a21   Thumb Code    40  mid_debug_uart.o(.text.debug_uart_receive_limit_length)
    [Anonymous Symbol]                       0x00002a20   Section        0  mid_debug_uart.o(.text.debug_uart_receive_limit_length)
    __arm_cp.12_0                            0x00002a48   Number         4  mid_debug_uart.o(.text.debug_uart_receive_limit_length)
    [Anonymous Symbol]                       0x00002a4c   Section        0  app_ui.o(.text.disp_select_box)
    [Anonymous Symbol]                       0x00002b38   Section        0  app_ui.o(.text.disp_string_rect)
    [Anonymous Symbol]                       0x00002bbc   Section        0  app_ui.o(.text.disp_x_center)
    __arm_cp.0_0                             0x00002c1c   Number         4  app_ui.o(.text.disp_x_center)
    [Anonymous Symbol]                       0x00002c20   Section        0  hw_encoder.o(.text.encoder_init)
    [Anonymous Symbol]                       0x00002c38   Section        0  hw_encoder.o(.text.encoder_update)
    __arm_cp.5_0                             0x00002c50   Number         4  hw_encoder.o(.text.encoder_update)
    [Anonymous Symbol]                       0x00002c54   Section        0  app_sys_mode.o(.text.event_manager)
    flex_button_process                      0x00002da5   Thumb Code  1016  mid_button.o(.text.flex_button_process)
    [Anonymous Symbol]                       0x00002da4   Section        0  mid_button.o(.text.flex_button_process)
    __arm_cp.9_0                             0x0000319c   Number         4  mid_button.o(.text.flex_button_process)
    __arm_cp.9_1                             0x000031a0   Number         4  mid_button.o(.text.flex_button_process)
    __arm_cp.9_2                             0x000031a4   Number         4  mid_button.o(.text.flex_button_process)
    flex_button_read                         0x000031a9   Thumb Code   188  mid_button.o(.text.flex_button_read)
    [Anonymous Symbol]                       0x000031a8   Section        0  mid_button.o(.text.flex_button_read)
    __arm_cp.8_1                             0x00003264   Number         4  mid_button.o(.text.flex_button_read)
    __arm_cp.8_3                             0x00003268   Number         4  mid_button.o(.text.flex_button_read)
    __arm_cp.8_4                             0x0000326c   Number         4  mid_button.o(.text.flex_button_read)
    [Anonymous Symbol]                       0x00003270   Section        0  mid_button.o(.text.flex_button_register)
    __arm_cp.5_0                             0x00003308   Number         4  mid_button.o(.text.flex_button_register)
    __arm_cp.5_1                             0x0000330c   Number         4  mid_button.o(.text.flex_button_register)
    __arm_cp.5_2                             0x00003310   Number         4  mid_button.o(.text.flex_button_register)
    [Anonymous Symbol]                       0x00003314   Section        0  mid_button.o(.text.flex_button_scan)
    [Anonymous Symbol]                       0x00003320   Section        0  app_sys_mode.o(.text.get_default_page_flag)
    [Anonymous Symbol]                       0x00003328   Section        0  app_sys_mode.o(.text.get_functional_mode)
    [Anonymous Symbol]                       0x00003330   Section        0  app_sys_mode.o(.text.get_motor_status_flag)
    [Anonymous Symbol]                       0x00003338   Section        0  app_sys_mode.o(.text.get_set_page_flag)
    [Anonymous Symbol]                       0x00003340   Section        0  app_sys_mode.o(.text.get_show_state)
    [Anonymous Symbol]                       0x00003348   Section        0  hw_key.o(.text.key_scan)
    __arm_cp.0_0                             0x000033d0   Number         4  hw_key.o(.text.key_scan)
    [Anonymous Symbol]                       0x000033d4   Section        0  hw_lcd.o(.text.lcd_init)
    __arm_cp.10_0                            0x00003594   Number         4  hw_lcd.o(.text.lcd_init)
    __arm_cp.10_1                            0x00003598   Number         4  hw_lcd.o(.text.lcd_init)
    __arm_cp.10_2                            0x0000359c   Number         4  hw_lcd.o(.text.lcd_init)
    __arm_cp.10_3                            0x000035a0   Number         4  hw_lcd.o(.text.lcd_init)
    [Anonymous Symbol]                       0x000035a4   Section        0  empty.o(.text.main)
    restrict_pwm_max_value                   0x00003659   Thumb Code    28  hw_motor.o(.text.restrict_pwm_max_value)
    [Anonymous Symbol]                       0x00003658   Section        0  hw_motor.o(.text.restrict_pwm_max_value)
    __arm_cp.1_0                             0x00003674   Number         4  hw_motor.o(.text.restrict_pwm_max_value)
    __arm_cp.1_1                             0x00003678   Number         4  hw_motor.o(.text.restrict_pwm_max_value)
    set_bi                                   0x0000367d   Thumb Code    24  hw_motor.o(.text.set_bi)
    [Anonymous Symbol]                       0x0000367c   Section        0  hw_motor.o(.text.set_bi)
    set_fi                                   0x00003695   Thumb Code    24  hw_motor.o(.text.set_fi)
    [Anonymous Symbol]                       0x00003694   Section        0  hw_motor.o(.text.set_fi)
    __arm_cp.2_0                             0x000036ac   Number         4  hw_motor.o(.text.set_fi)
    [Anonymous Symbol]                       0x000036b0   Section        0  hw_motor.o(.text.set_motor)
    [Anonymous Symbol]                       0x000036e0   Section        0  app_sys_mode.o(.text.set_motor_status_flag)
    __arm_cp.6_0                             0x000036f0   Number         4  app_sys_mode.o(.text.set_motor_status_flag)
    [Anonymous Symbol]                       0x000036f4   Section        0  hw_lcd.o(.text.spi_write_bus)
    __arm_cp.0_0                             0x0000371c   Number         4  hw_lcd.o(.text.spi_write_bus)
    [Anonymous Symbol]                       0x00003720   Section        0  hw_motor.o(.text.stop_motor)
    [Anonymous Symbol]                       0x0000372c   Section        0  app_sys_mode.o(.text.sys_event_init)
    __arm_cp.0_0                             0x00003738   Number         4  app_sys_mode.o(.text.sys_event_init)
    [Anonymous Symbol]                       0x0000373c   Section        0  mid_timer.o(.text.timer_init)
    [Anonymous Symbol]                       0x00003754   Section        0  app_ui.o(.text.ui_distance_page)
    __arm_cp.11_0                            0x000038a0   Number         4  app_ui.o(.text.ui_distance_page)
    __arm_cp.11_2                            0x000038a4   Number         4  app_ui.o(.text.ui_distance_page)
    __arm_cp.11_3                            0x000038a8   Number         4  app_ui.o(.text.ui_distance_page)
    [Anonymous Symbol]                       0x000038ac   Section        0  app_ui.o(.text.ui_distance_page_value_set)
    __arm_cp.12_0                            0x00003af0   Number         4  app_ui.o(.text.ui_distance_page_value_set)
    __arm_cp.12_1                            0x00003af4   Number         4  app_ui.o(.text.ui_distance_page_value_set)
    __arm_cp.12_2                            0x00003af8   Number         4  app_ui.o(.text.ui_distance_page_value_set)
    __arm_cp.12_3                            0x00003afc   Number         4  app_ui.o(.text.ui_distance_page_value_set)
    __arm_cp.12_4                            0x00003b00   Number         4  app_ui.o(.text.ui_distance_page_value_set)
    __arm_cp.12_5                            0x00003b04   Number         4  app_ui.o(.text.ui_distance_page_value_set)
    __arm_cp.12_6                            0x00003b08   Number         4  app_ui.o(.text.ui_distance_page_value_set)
    __arm_cp.12_7                            0x00003b0c   Number         4  app_ui.o(.text.ui_distance_page_value_set)
    __arm_cp.12_8                            0x00003b10   Number         4  app_ui.o(.text.ui_distance_page_value_set)
    [Anonymous Symbol]                       0x00003b14   Section        0  app_ui.o(.text.ui_home_page)
    __arm_cp.3_0                             0x00003c00   Number         4  app_ui.o(.text.ui_home_page)
    __arm_cp.3_1                             0x00003c04   Number         4  app_ui.o(.text.ui_home_page)
    __arm_cp.3_2                             0x00003c08   Number         4  app_ui.o(.text.ui_home_page)
    __arm_cp.3_3                             0x00003c0c   Number         4  app_ui.o(.text.ui_home_page)
    __arm_cp.3_4                             0x00003c10   Number         4  app_ui.o(.text.ui_home_page)
    [Anonymous Symbol]                       0x00003c14   Section        0  app_ui.o(.text.ui_home_page_select)
    __arm_cp.6_0                             0x00003cb4   Number         4  app_ui.o(.text.ui_home_page_select)
    [Anonymous Symbol]                       0x00003cb8   Section        0  app_ui.o(.text.ui_parameter_select_box_bold)
    __arm_cp.10_0                            0x00003de4   Number         4  app_ui.o(.text.ui_parameter_select_box_bold)
    [Anonymous Symbol]                       0x00003de8   Section        0  app_ui.o(.text.ui_select_page_show)
    [Anonymous Symbol]                       0x00003e24   Section        0  app_ui.o(.text.ui_speed_page)
    __arm_cp.7_0                             0x00003f70   Number         4  app_ui.o(.text.ui_speed_page)
    __arm_cp.7_1                             0x00003f74   Number         4  app_ui.o(.text.ui_speed_page)
    __arm_cp.7_2                             0x00003f78   Number         4  app_ui.o(.text.ui_speed_page)
    __arm_cp.7_3                             0x00003f7c   Number         4  app_ui.o(.text.ui_speed_page)
    [Anonymous Symbol]                       0x00003f80   Section        0  app_ui.o(.text.ui_speed_page_select_box)
    __arm_cp.9_0                             0x00004178   Number         4  app_ui.o(.text.ui_speed_page_select_box)
    [Anonymous Symbol]                       0x0000417c   Section        0  app_ui.o(.text.ui_speed_page_value_set)
    __arm_cp.8_0                             0x000043c0   Number         4  app_ui.o(.text.ui_speed_page_value_set)
    __arm_cp.8_1                             0x000043c4   Number         4  app_ui.o(.text.ui_speed_page_value_set)
    __arm_cp.8_2                             0x000043c8   Number         4  app_ui.o(.text.ui_speed_page_value_set)
    __arm_cp.8_3                             0x000043cc   Number         4  app_ui.o(.text.ui_speed_page_value_set)
    __arm_cp.8_4                             0x000043d0   Number         4  app_ui.o(.text.ui_speed_page_value_set)
    __arm_cp.8_5                             0x000043d4   Number         4  app_ui.o(.text.ui_speed_page_value_set)
    __arm_cp.8_6                             0x000043d8   Number         4  app_ui.o(.text.ui_speed_page_value_set)
    __arm_cp.8_7                             0x000043dc   Number         4  app_ui.o(.text.ui_speed_page_value_set)
    __arm_cp.8_8                             0x000043e0   Number         4  app_ui.o(.text.ui_speed_page_value_set)
    [Anonymous Symbol]                       0x000043e4   Section        0  mid_button.o(.text.user_button_init)
    __arm_cp.0_0                             0x0000447c   Number         4  mid_button.o(.text.user_button_init)
    __arm_cp.0_1                             0x00004480   Number         4  mid_button.o(.text.user_button_init)
    __arm_cp.0_2                             0x00004484   Number         4  mid_button.o(.text.user_button_init)
    __arm_cp.0_3                             0x00004488   Number         4  mid_button.o(.text.user_button_init)
    __arm_cp.0_4                             0x0000448c   Number         4  mid_button.o(.text.user_button_init)
    __arm_cp.0_5                             0x00004490   Number         4  mid_button.o(.text.user_button_init)
    __arm_cp.0_6                             0x00004494   Number         4  mid_button.o(.text.user_button_init)
    __arm_cp.0_7                             0x00004498   Number         4  mid_button.o(.text.user_button_init)
    __arm_cp.0_8                             0x0000449c   Number         4  mid_button.o(.text.user_button_init)
    i.__0sprintf                             0x000044a0   Section        0  printfa.o(i.__0sprintf)
    i.__ARM_clz                              0x000044c8   Section        0  depilogue.o(i.__ARM_clz)
    i.__scatterload_copy                     0x000044f8   Section       14  handlers.o(i.__scatterload_copy)
    i.__scatterload_null                     0x00004508   Section        2  handlers.o(i.__scatterload_null)
    i.__scatterload_zeroinit                 0x00004510   Section       14  handlers.o(i.__scatterload_zeroinit)
    i.__set_errno                            0x00004520   Section        0  errno.o(i.__set_errno)
    _fp_digits                               0x0000452d   Thumb Code   344  printfa.o(i._fp_digits)
    i._fp_digits                             0x0000452c   Section        0  printfa.o(i._fp_digits)
    _printf_core                             0x000046a1   Thumb Code  1754  printfa.o(i._printf_core)
    i._printf_core                           0x000046a0   Section        0  printfa.o(i._printf_core)
    _printf_post_padding                     0x00004d8d   Thumb Code    32  printfa.o(i._printf_post_padding)
    i._printf_post_padding                   0x00004d8c   Section        0  printfa.o(i._printf_post_padding)
    _printf_pre_padding                      0x00004dad   Thumb Code    44  printfa.o(i._printf_pre_padding)
    i._printf_pre_padding                    0x00004dac   Section        0  printfa.o(i._printf_pre_padding)
    _sputc                                   0x00004dd9   Thumb Code    10  printfa.o(i._sputc)
    i._sputc                                 0x00004dd8   Section        0  printfa.o(i._sputc)
    i.sqrt                                   0x00004de4   Section        0  sqrt.o(i.sqrt)
    gPWM_MOTORClockConfig                    0x00008220   Data           3  ti_msp_dl_config.o(.rodata.gPWM_MOTORClockConfig)
    [Anonymous Symbol]                       0x00008220   Section        0  ti_msp_dl_config.o(.rodata.gPWM_MOTORClockConfig)
    gPWM_MOTORConfig                         0x00008224   Data           8  ti_msp_dl_config.o(.rodata.gPWM_MOTORConfig)
    [Anonymous Symbol]                       0x00008224   Section        0  ti_msp_dl_config.o(.rodata.gPWM_MOTORConfig)
    gSPI_LCD_clockConfig                     0x0000822c   Data           2  ti_msp_dl_config.o(.rodata.gSPI_LCD_clockConfig)
    [Anonymous Symbol]                       0x0000822c   Section        0  ti_msp_dl_config.o(.rodata.gSPI_LCD_clockConfig)
    gSPI_LCD_config                          0x0000822e   Data          10  ti_msp_dl_config.o(.rodata.gSPI_LCD_config)
    [Anonymous Symbol]                       0x0000822e   Section        0  ti_msp_dl_config.o(.rodata.gSPI_LCD_config)
    gSYSPLLConfig                            0x00008238   Data          40  ti_msp_dl_config.o(.rodata.gSYSPLLConfig)
    [Anonymous Symbol]                       0x00008238   Section        0  ti_msp_dl_config.o(.rodata.gSYSPLLConfig)
    gTIMER_TICKClockConfig                   0x00008260   Data           3  ti_msp_dl_config.o(.rodata.gTIMER_TICKClockConfig)
    [Anonymous Symbol]                       0x00008260   Section        0  ti_msp_dl_config.o(.rodata.gTIMER_TICKClockConfig)
    gTIMER_TICKTimerConfig                   0x00008264   Data          20  ti_msp_dl_config.o(.rodata.gTIMER_TICKTimerConfig)
    [Anonymous Symbol]                       0x00008264   Section        0  ti_msp_dl_config.o(.rodata.gTIMER_TICKTimerConfig)
    gUART_DEBUGClockConfig                   0x00008278   Data           2  ti_msp_dl_config.o(.rodata.gUART_DEBUGClockConfig)
    [Anonymous Symbol]                       0x00008278   Section        0  ti_msp_dl_config.o(.rodata.gUART_DEBUGClockConfig)
    gUART_DEBUGConfig                        0x0000827a   Data          10  ti_msp_dl_config.o(.rodata.gUART_DEBUGConfig)
    [Anonymous Symbol]                       0x0000827a   Section        0  ti_msp_dl_config.o(.rodata.gUART_DEBUGConfig)
    [Anonymous Symbol]                       0x00008284   Section        0  app_ui.o(.rodata.str1.1)
    _errno                                   0x20200000   Data           4  errno.o(.data)
    .data                                    0x20200000   Section        4  errno.o(.data)
    key_rst_data                             0x20200004   Data           2  mid_button.o(.data.key_rst_data)
    [Anonymous Symbol]                       0x20200004   Section        0  mid_button.o(.data.key_rst_data)
    keydata                                  0x20200006   Data           2  mid_button.o(.data.keydata)
    [Anonymous Symbol]                       0x20200006   Section        0  mid_button.o(.data.keydata)
    btn_head                                 0x20200008   Data           4  mid_button.o(.bss.btn_head)
    [Anonymous Symbol]                       0x20200008   Section        0  mid_button.o(.bss.btn_head)
    button_cnt                               0x2020000c   Data           1  mid_button.o(.bss.button_cnt)
    [Anonymous Symbol]                       0x2020000c   Section        0  mid_button.o(.bss.button_cnt)
    cont                                     0x2020000e   Data           2  mid_button.o(.bss.cont)
    [Anonymous Symbol]                       0x2020000e   Section        0  mid_button.o(.bss.cont)
    motor_encoder                            0x20200218   Data          16  hw_encoder.o(.bss.motor_encoder)
    [Anonymous Symbol]                       0x20200218   Section        0  hw_encoder.o(.bss.motor_encoder)
    trg                                      0x20200238   Data           2  mid_button.o(.bss.trg)
    [Anonymous Symbol]                       0x20200238   Section        0  mid_button.o(.bss.trg)
    ui_distance_page_value_set.last_d        0x2020023c   Data           4  app_ui.o(.bss.ui_distance_page_value_set.last_d)
    [Anonymous Symbol]                       0x2020023c   Section        0  app_ui.o(.bss.ui_distance_page_value_set.last_d)
    ui_distance_page_value_set.last_distance 0x20200240   Data           4  app_ui.o(.bss.ui_distance_page_value_set.last_distance)
    [Anonymous Symbol]                       0x20200240   Section        0  app_ui.o(.bss.ui_distance_page_value_set.last_distance)
    ui_distance_page_value_set.last_i        0x20200244   Data           4  app_ui.o(.bss.ui_distance_page_value_set.last_i)
    [Anonymous Symbol]                       0x20200244   Section        0  app_ui.o(.bss.ui_distance_page_value_set.last_i)
    ui_distance_page_value_set.last_p        0x20200248   Data           4  app_ui.o(.bss.ui_distance_page_value_set.last_p)
    [Anonymous Symbol]                       0x20200248   Section        0  app_ui.o(.bss.ui_distance_page_value_set.last_p)
    ui_distance_page_value_set.last_target   0x2020024c   Data           4  app_ui.o(.bss.ui_distance_page_value_set.last_target)
    [Anonymous Symbol]                       0x2020024c   Section        0  app_ui.o(.bss.ui_distance_page_value_set.last_target)
    ui_speed_page_value_set.last_d           0x20200250   Data           4  app_ui.o(.bss.ui_speed_page_value_set.last_d)
    [Anonymous Symbol]                       0x20200250   Section        0  app_ui.o(.bss.ui_speed_page_value_set.last_d)
    ui_speed_page_value_set.last_i           0x20200254   Data           4  app_ui.o(.bss.ui_speed_page_value_set.last_i)
    [Anonymous Symbol]                       0x20200254   Section        0  app_ui.o(.bss.ui_speed_page_value_set.last_i)
    ui_speed_page_value_set.last_p           0x20200258   Data           4  app_ui.o(.bss.ui_speed_page_value_set.last_p)
    [Anonymous Symbol]                       0x20200258   Section        0  app_ui.o(.bss.ui_speed_page_value_set.last_p)
    ui_speed_page_value_set.last_speed       0x2020025c   Data           4  app_ui.o(.bss.ui_speed_page_value_set.last_speed)
    [Anonymous Symbol]                       0x2020025c   Section        0  app_ui.o(.bss.ui_speed_page_value_set.last_speed)
    ui_speed_page_value_set.last_target      0x20200260   Data           4  app_ui.o(.bss.ui_speed_page_value_set.last_target)
    [Anonymous Symbol]                       0x20200260   Section        0  app_ui.o(.bss.ui_speed_page_value_set.last_target)
    user_button                              0x20200264   Data         112  mid_button.o(.bss.user_button)
    [Anonymous Symbol]                       0x20200264   Section        0  mid_button.o(.bss.user_button)
    STACK                                    0x202002d8   Section     1024  startup_mspm0g350x_uvision.o(STACK)

    Global Symbols

    Symbol Name                              Value     Ov Type        Size  Object(Section)

    BuildAttributes$$THM_ISAv3M$S$PE$A:L22$X:L11$S22$IEEE1$IW$~IW$USESV6$~STKCKD$USESV7$~SHL$OTIME$ROPI$IEEEJ$EBA8$MICROLIB$REQ8$PRES8$EABIv2 0x00000000   Number         0  anon$$obj.o ABSOLUTE
    __Vectors                                0x00000000   Data           4  startup_mspm0g350x_uvision.o(RESET)
    __cpp_initialize__aeabi_                  - Undefined Weak Reference
    __cxa_finalize                            - Undefined Weak Reference
    __decompress                              - Undefined Weak Reference
    _clock_init                               - Undefined Weak Reference
    _microlib_exit                            - Undefined Weak Reference
    __Vectors_End                            0x000000c0   Data           0  startup_mspm0g350x_uvision.o(RESET)
    __Vectors_Size                           0x000000c0   Number         0  startup_mspm0g350x_uvision.o ABSOLUTE
    __main                                   0x000000c1   Thumb Code     0  entry.o(.ARM.Collect$$$$00000000)
    _main_stk                                0x000000c1   Thumb Code     0  entry2.o(.ARM.Collect$$$$00000001)
    _main_scatterload                        0x000000c5   Thumb Code     0  entry5.o(.ARM.Collect$$$$00000004)
    __main_after_scatterload                 0x000000c9   Thumb Code     0  entry5.o(.ARM.Collect$$$$00000004)
    _main_clock                              0x000000c9   Thumb Code     0  entry7b.o(.ARM.Collect$$$$00000008)
    _main_cpp_init                           0x000000c9   Thumb Code     0  entry8b.o(.ARM.Collect$$$$0000000A)
    _main_init                               0x000000c9   Thumb Code     0  entry9a.o(.ARM.Collect$$$$0000000B)
    __rt_final_cpp                           0x000000d1   Thumb Code     0  entry10a.o(.ARM.Collect$$$$0000000D)
    __rt_final_exit                          0x000000d1   Thumb Code     0  entry11a.o(.ARM.Collect$$$$0000000F)
    Reset_Handler                            0x000000d5   Thumb Code     4  startup_mspm0g350x_uvision.o(.text)
    NMI_Handler                              0x000000d9   Thumb Code     2  startup_mspm0g350x_uvision.o(.text)
    HardFault_Handler                        0x000000db   Thumb Code     2  startup_mspm0g350x_uvision.o(.text)
    SVC_Handler                              0x000000dd   Thumb Code     2  startup_mspm0g350x_uvision.o(.text)
    PendSV_Handler                           0x000000df   Thumb Code     2  startup_mspm0g350x_uvision.o(.text)
    SysTick_Handler                          0x000000e1   Thumb Code     2  startup_mspm0g350x_uvision.o(.text)
    ADC0_IRQHandler                          0x000000e3   Thumb Code     0  startup_mspm0g350x_uvision.o(.text)
    ADC1_IRQHandler                          0x000000e3   Thumb Code     0  startup_mspm0g350x_uvision.o(.text)
    AES_IRQHandler                           0x000000e3   Thumb Code     0  startup_mspm0g350x_uvision.o(.text)
    CANFD0_IRQHandler                        0x000000e3   Thumb Code     0  startup_mspm0g350x_uvision.o(.text)
    DAC0_IRQHandler                          0x000000e3   Thumb Code     0  startup_mspm0g350x_uvision.o(.text)
    DMA_IRQHandler                           0x000000e3   Thumb Code     0  startup_mspm0g350x_uvision.o(.text)
    Default_Handler                          0x000000e3   Thumb Code     2  startup_mspm0g350x_uvision.o(.text)
    GROUP0_IRQHandler                        0x000000e3   Thumb Code     0  startup_mspm0g350x_uvision.o(.text)
    I2C0_IRQHandler                          0x000000e3   Thumb Code     0  startup_mspm0g350x_uvision.o(.text)
    I2C1_IRQHandler                          0x000000e3   Thumb Code     0  startup_mspm0g350x_uvision.o(.text)
    RTC_IRQHandler                           0x000000e3   Thumb Code     0  startup_mspm0g350x_uvision.o(.text)
    SPI0_IRQHandler                          0x000000e3   Thumb Code     0  startup_mspm0g350x_uvision.o(.text)
    SPI1_IRQHandler                          0x000000e3   Thumb Code     0  startup_mspm0g350x_uvision.o(.text)
    TIMA1_IRQHandler                         0x000000e3   Thumb Code     0  startup_mspm0g350x_uvision.o(.text)
    TIMG0_IRQHandler                         0x000000e3   Thumb Code     0  startup_mspm0g350x_uvision.o(.text)
    TIMG12_IRQHandler                        0x000000e3   Thumb Code     0  startup_mspm0g350x_uvision.o(.text)
    TIMG6_IRQHandler                         0x000000e3   Thumb Code     0  startup_mspm0g350x_uvision.o(.text)
    TIMG7_IRQHandler                         0x000000e3   Thumb Code     0  startup_mspm0g350x_uvision.o(.text)
    TIMG8_IRQHandler                         0x000000e3   Thumb Code     0  startup_mspm0g350x_uvision.o(.text)
    UART1_IRQHandler                         0x000000e3   Thumb Code     0  startup_mspm0g350x_uvision.o(.text)
    UART2_IRQHandler                         0x000000e3   Thumb Code     0  startup_mspm0g350x_uvision.o(.text)
    UART3_IRQHandler                         0x000000e3   Thumb Code     0  startup_mspm0g350x_uvision.o(.text)
    __aeabi_memset                           0x000000e9   Thumb Code    14  memseta.o(.text)
    __aeabi_memset4                          0x000000e9   Thumb Code     0  memseta.o(.text)
    __aeabi_memset8                          0x000000e9   Thumb Code     0  memseta.o(.text)
    __aeabi_memclr                           0x000000f7   Thumb Code     4  memseta.o(.text)
    __aeabi_memclr4                          0x000000f7   Thumb Code     0  memseta.o(.text)
    __aeabi_memclr8                          0x000000f7   Thumb Code     0  memseta.o(.text)
    _memset$wrapper                          0x000000fb   Thumb Code    18  memseta.o(.text)
    strlen                                   0x0000010d   Thumb Code    14  strlen.o(.text)
    __aeabi_fcmpeq                           0x0000011b   Thumb Code    28  fcmpeq.o(.text)
    __aeabi_ui2d                             0x00000139   Thumb Code    24  dfltui.o(.text)
    __aeabi_d2iz                             0x00000155   Thumb Code    62  dfixi.o(.text)
    __aeabi_f2d                              0x0000019d   Thumb Code    40  f2d.o(.text)
    __aeabi_uidiv                            0x000001c5   Thumb Code     0  uidiv_div0.o(.text)
    __aeabi_uidivmod                         0x000001c5   Thumb Code    62  uidiv_div0.o(.text)
    __aeabi_uldivmod                         0x00000203   Thumb Code    96  uldiv.o(.text)
    __aeabi_llsr                             0x00000263   Thumb Code    34  llushr.o(.text)
    _ll_ushift_r                             0x00000263   Thumb Code     0  llushr.o(.text)
    __I$use$fp                               0x00000285   Thumb Code     0  iusefp.o(.text)
    _double_round                            0x00000285   Thumb Code    26  depilogue.o(.text)
    _double_epilogue                         0x0000029f   Thumb Code   164  depilogue.o(.text)
    __aeabi_dadd                             0x00000345   Thumb Code   328  dadd.o(.text)
    __aeabi_dsub                             0x0000048d   Thumb Code    12  dadd.o(.text)
    __aeabi_drsub                            0x00000499   Thumb Code    12  dadd.o(.text)
    __aeabi_dmul                             0x000004a9   Thumb Code   202  dmul.o(.text)
    __aeabi_ddiv                             0x00000579   Thumb Code   234  ddiv.o(.text)
    _dsqrt                                   0x00000669   Thumb Code   162  dsqrt.o(.text)
    __aeabi_d2ulz                            0x0000070d   Thumb Code    54  dfixul.o(.text)
    __aeabi_cdrcmple                         0x0000074d   Thumb Code    38  cdrcmple.o(.text)
    __scatterload                            0x00000779   Thumb Code    38  init.o(.text)
    __scatterload_rt2                        0x00000779   Thumb Code     0  init.o(.text)
    __aeabi_llsl                             0x000007a9   Thumb Code    32  llshl.o(.text)
    _ll_shift_l                              0x000007a9   Thumb Code     0  llshl.o(.text)
    __aeabi_lasr                             0x000007c9   Thumb Code    38  llsshr.o(.text)
    _ll_sshift_r                             0x000007c9   Thumb Code     0  llsshr.o(.text)
    DL_Common_delayCycles                    0x000007ef   Thumb Code    10  dl_common.o(.text.DL_Common_delayCycles)
    DL_SPI_init                              0x00000a61   Thumb Code    68  dl_spi.o(.text.DL_SPI_init)
    DL_SPI_setClockConfig                    0x00000af5   Thumb Code    18  dl_spi.o(.text.DL_SPI_setClockConfig)
    DL_SYSCTL_configSYSPLL                   0x00000b51   Thumb Code   192  dl_sysctl_mspm0g1x0x_g3x0x.o(.text.DL_SYSCTL_configSYSPLL)
    DL_SYSCTL_setHFCLKSourceHFXTParams       0x00000c65   Thumb Code    80  dl_sysctl_mspm0g1x0x_g3x0x.o(.text.DL_SYSCTL_setHFCLKSourceHFXTParams)
    DL_SYSCTL_switchMCLKfromSYSOSCtoHSCLK    0x00000ce9   Thumb Code    40  dl_sysctl_mspm0g1x0x_g3x0x.o(.text.DL_SYSCTL_switchMCLKfromSYSOSCtoHSCLK)
    DL_Timer_initFourCCPWMMode               0x00000d69   Thumb Code   264  dl_timer.o(.text.DL_Timer_initFourCCPWMMode)
    DL_Timer_initTimerMode                   0x00000e71   Thumb Code   236  dl_timer.o(.text.DL_Timer_initTimerMode)
    DL_Timer_setCaptCompUpdateMethod         0x00000f81   Thumb Code    28  dl_timer.o(.text.DL_Timer_setCaptCompUpdateMethod)
    DL_Timer_setCaptureCompareOutCtl         0x00000f9d   Thumb Code    24  dl_timer.o(.text.DL_Timer_setCaptureCompareOutCtl)
    DL_Timer_setCaptureCompareValue          0x00000fb5   Thumb Code    16  dl_timer.o(.text.DL_Timer_setCaptureCompareValue)
    DL_Timer_setClockConfig                  0x00000fc5   Thumb Code    28  dl_timer.o(.text.DL_Timer_setClockConfig)
    DL_UART_init                             0x0000107d   Thumb Code    72  dl_uart.o(.text.DL_UART_init)
    DL_UART_setClockConfig                   0x0000113d   Thumb Code    18  dl_uart.o(.text.DL_UART_setClockConfig)
    Drawarc                                  0x0000116d   Thumb Code   338  hw_lcd.o(.text.Drawarc)
    GROUP1_IRQHandler                        0x000012c1   Thumb Code   156  hw_encoder.o(.text.GROUP1_IRQHandler)
    LCD_Address_Set                          0x00001365   Thumb Code    62  hw_lcd.o(.text.LCD_Address_Set)
    LCD_ArcRect                              0x000013a3   Thumb Code   330  hw_lcd.o(.text.LCD_ArcRect)
    LCD_DrawLine                             0x000014ed   Thumb Code   268  hw_lcd.o(.text.LCD_DrawLine)
    LCD_DrawPoint                            0x000015f9   Thumb Code    32  hw_lcd.o(.text.LCD_DrawPoint)
    LCD_DrawRectangle                        0x00001619   Thumb Code    82  hw_lcd.o(.text.LCD_DrawRectangle)
    LCD_Fill                                 0x0000166b   Thumb Code    92  hw_lcd.o(.text.LCD_Fill)
    LCD_ShowChar                             0x000016c9   Thumb Code   460  hw_lcd.o(.text.LCD_ShowChar)
    LCD_ShowChinese                          0x000018a5   Thumb Code   296  hw_lcd.o(.text.LCD_ShowChinese)
    LCD_ShowChinese12x12                     0x000019cd   Thumb Code   408  hw_lcd.o(.text.LCD_ShowChinese12x12)
    LCD_ShowChinese16x16                     0x00001b69   Thumb Code   408  hw_lcd.o(.text.LCD_ShowChinese16x16)
    LCD_ShowChinese24x24                     0x00001d05   Thumb Code   408  hw_lcd.o(.text.LCD_ShowChinese24x24)
    LCD_ShowChinese32x32                     0x00001ea1   Thumb Code   408  hw_lcd.o(.text.LCD_ShowChinese32x32)
    LCD_ShowString                           0x0000203d   Thumb Code    98  hw_lcd.o(.text.LCD_ShowString)
    LCD_WR_DATA                              0x0000209f   Thumb Code    28  hw_lcd.o(.text.LCD_WR_DATA)
    LCD_WR_DATA8                             0x000020bb   Thumb Code    20  hw_lcd.o(.text.LCD_WR_DATA8)
    LCD_WR_REG                               0x000020d1   Thumb Code    44  hw_lcd.o(.text.LCD_WR_REG)
    LCD_Writ_Bus                             0x000020fd   Thumb Code    44  hw_lcd.o(.text.LCD_Writ_Bus)
    SYSCFG_DL_GPIO_init                      0x00002129   Thumb Code   276  ti_msp_dl_config.o(.text.SYSCFG_DL_GPIO_init)
    SYSCFG_DL_PWM_MOTOR_init                 0x00002241   Thumb Code   128  ti_msp_dl_config.o(.text.SYSCFG_DL_PWM_MOTOR_init)
    SYSCFG_DL_SPI_LCD_init                   0x000022cd   Thumb Code    52  ti_msp_dl_config.o(.text.SYSCFG_DL_SPI_LCD_init)
    SYSCFG_DL_SYSCTL_init                    0x00002309   Thumb Code    80  ti_msp_dl_config.o(.text.SYSCFG_DL_SYSCTL_init)
    SYSCFG_DL_TIMER_TICK_init                0x0000235d   Thumb Code    48  ti_msp_dl_config.o(.text.SYSCFG_DL_TIMER_TICK_init)
    SYSCFG_DL_UART_DEBUG_init                0x00002395   Thumb Code    72  ti_msp_dl_config.o(.text.SYSCFG_DL_UART_DEBUG_init)
    SYSCFG_DL_init                           0x000023e5   Thumb Code    52  ti_msp_dl_config.o(.text.SYSCFG_DL_init)
    SYSCFG_DL_initPower                      0x00002425   Thumb Code   100  ti_msp_dl_config.o(.text.SYSCFG_DL_initPower)
    TIMA0_IRQHandler                         0x00002499   Thumb Code    28  mid_timer.o(.text.TIMA0_IRQHandler)
    UART0_IRQHandler                         0x000024b9   Thumb Code    40  mid_debug_uart.o(.text.UART0_IRQHandler)
    btn_down_cb                              0x00002665   Thumb Code   224  app_key_task.o(.text.btn_down_cb)
    btn_left_cb                              0x00002745   Thumb Code   132  app_key_task.o(.text.btn_left_cb)
    btn_right_cb                             0x000027c9   Thumb Code   252  app_key_task.o(.text.btn_right_cb)
    btn_up_cb                                0x000028c5   Thumb Code   220  app_key_task.o(.text.btn_up_cb)
    debug_uart_init                          0x00002a09   Thumb Code    22  mid_debug_uart.o(.text.debug_uart_init)
    disp_select_box                          0x00002a4d   Thumb Code   234  app_ui.o(.text.disp_select_box)
    disp_string_rect                         0x00002b39   Thumb Code   132  app_ui.o(.text.disp_string_rect)
    disp_x_center                            0x00002bbd   Thumb Code    96  app_ui.o(.text.disp_x_center)
    encoder_init                             0x00002c21   Thumb Code    22  hw_encoder.o(.text.encoder_init)
    encoder_update                           0x00002c39   Thumb Code    24  hw_encoder.o(.text.encoder_update)
    event_manager                            0x00002c55   Thumb Code   334  app_sys_mode.o(.text.event_manager)
    flex_button_register                     0x00003271   Thumb Code   152  mid_button.o(.text.flex_button_register)
    flex_button_scan                         0x00003315   Thumb Code    12  mid_button.o(.text.flex_button_scan)
    get_default_page_flag                    0x00003321   Thumb Code     8  app_sys_mode.o(.text.get_default_page_flag)
    get_functional_mode                      0x00003329   Thumb Code     8  app_sys_mode.o(.text.get_functional_mode)
    get_motor_status_flag                    0x00003331   Thumb Code     8  app_sys_mode.o(.text.get_motor_status_flag)
    get_set_page_flag                        0x00003339   Thumb Code     8  app_sys_mode.o(.text.get_set_page_flag)
    get_show_state                           0x00003341   Thumb Code     8  app_sys_mode.o(.text.get_show_state)
    key_scan                                 0x00003349   Thumb Code   136  hw_key.o(.text.key_scan)
    lcd_init                                 0x000033d5   Thumb Code   448  hw_lcd.o(.text.lcd_init)
    main                                     0x000035a5   Thumb Code   180  empty.o(.text.main)
    set_motor                                0x000036b1   Thumb Code    48  hw_motor.o(.text.set_motor)
    set_motor_status_flag                    0x000036e1   Thumb Code    16  app_sys_mode.o(.text.set_motor_status_flag)
    spi_write_bus                            0x000036f5   Thumb Code    40  hw_lcd.o(.text.spi_write_bus)
    stop_motor                               0x00003721   Thumb Code    12  hw_motor.o(.text.stop_motor)
    sys_event_init                           0x0000372d   Thumb Code    12  app_sys_mode.o(.text.sys_event_init)
    timer_init                               0x0000373d   Thumb Code    22  mid_timer.o(.text.timer_init)
    ui_distance_page                         0x00003755   Thumb Code   332  app_ui.o(.text.ui_distance_page)
    ui_distance_page_value_set               0x000038ad   Thumb Code   580  app_ui.o(.text.ui_distance_page_value_set)
    ui_home_page                             0x00003b15   Thumb Code   236  app_ui.o(.text.ui_home_page)
    ui_home_page_select                      0x00003c15   Thumb Code   160  app_ui.o(.text.ui_home_page_select)
    ui_parameter_select_box_bold             0x00003cb9   Thumb Code   300  app_ui.o(.text.ui_parameter_select_box_bold)
    ui_select_page_show                      0x00003de9   Thumb Code    60  app_ui.o(.text.ui_select_page_show)
    ui_speed_page                            0x00003e25   Thumb Code   332  app_ui.o(.text.ui_speed_page)
    ui_speed_page_select_box                 0x00003f81   Thumb Code   504  app_ui.o(.text.ui_speed_page_select_box)
    ui_speed_page_value_set                  0x0000417d   Thumb Code   580  app_ui.o(.text.ui_speed_page_value_set)
    user_button_init                         0x000043e5   Thumb Code   152  mid_button.o(.text.user_button_init)
    __0sprintf                               0x000044a1   Thumb Code    36  printfa.o(i.__0sprintf)
    __1sprintf                               0x000044a1   Thumb Code     0  printfa.o(i.__0sprintf)
    __2sprintf                               0x000044a1   Thumb Code     0  printfa.o(i.__0sprintf)
    __c89sprintf                             0x000044a1   Thumb Code     0  printfa.o(i.__0sprintf)
    sprintf                                  0x000044a1   Thumb Code     0  printfa.o(i.__0sprintf)
    __ARM_clz                                0x000044c9   Thumb Code    46  depilogue.o(i.__ARM_clz)
    __scatterload_copy                       0x000044f9   Thumb Code    14  handlers.o(i.__scatterload_copy)
    __scatterload_null                       0x00004509   Thumb Code     2  handlers.o(i.__scatterload_null)
    __scatterload_zeroinit                   0x00004511   Thumb Code    14  handlers.o(i.__scatterload_zeroinit)
    __set_errno                              0x00004521   Thumb Code     6  errno.o(i.__set_errno)
    sqrt                                     0x00004de5   Thumb Code    66  sqrt.o(i.sqrt)
    ascii_1206                               0x00004e2c   Data        1140  hw_lcd.o(.rodata.ascii_1206)
    ascii_1608                               0x000052a0   Data        1520  hw_lcd.o(.rodata.ascii_1608)
    ascii_2412                               0x00005890   Data        4560  hw_lcd.o(.rodata.ascii_2412)
    ascii_3216                               0x00006a60   Data        6080  hw_lcd.o(.rodata.ascii_3216)
    tfont12                                  0x000082cd   Data         130  hw_lcd.o(.rodata.tfont12)
    tfont16                                  0x0000834f   Data         374  hw_lcd.o(.rodata.tfont16)
    tfont24                                  0x000084c5   Data         222  hw_lcd.o(.rodata.tfont24)
    tfont32                                  0x000085a3   Data         130  hw_lcd.o(.rodata.tfont32)
    Region$$Table$$Base                      0x00008628   Number         0  anon$$obj.o(Region$$Table)
    Region$$Table$$Limit                     0x00008648   Number         0  anon$$obj.o(Region$$Table)
    debug_uart                               0x20200010   Data         132  mid_debug_uart.o(.bss.debug_uart)
    gPWM_MOTORBackup                         0x20200094   Data         160  ti_msp_dl_config.o(.bss.gPWM_MOTORBackup)
    gSPI_LCDBackup                           0x20200134   Data          40  ti_msp_dl_config.o(.bss.gSPI_LCDBackup)
    gTIMER_TICKBackup                        0x2020015c   Data         188  ti_msp_dl_config.o(.bss.gTIMER_TICKBackup)
    system_status                            0x20200228   Data          16  app_sys_mode.o(.bss.system_status)
    __initial_sp                             0x202006d8   Data           0  startup_mspm0g350x_uvision.o(STACK)



==============================================================================

Memory Map of the image

  Image Entry point : 0x000000c1

  Load Region LR_IROM1 (Base: 0x00000000, Size: 0x00008650, Max: 0x00020000, ABSOLUTE)

    Execution Region ER_IROM1 (Exec base: 0x00000000, Load base: 0x00000000, Size: 0x00008648, Max: 0x00020000, ABSOLUTE)

    Exec Addr    Load Addr    Size         Type   Attr      Idx    E Section Name        Object

    0x00000000   0x00000000   0x000000c0   Data   RO           12    RESET               startup_mspm0g350x_uvision.o
    0x000000c0   0x000000c0   0x00000000   Code   RO          711  * .ARM.Collect$$$$00000000  mc_p.l(entry.o)
    0x000000c0   0x000000c0   0x00000004   Code   RO          764    .ARM.Collect$$$$00000001  mc_p.l(entry2.o)
    0x000000c4   0x000000c4   0x00000004   Code   RO          767    .ARM.Collect$$$$00000004  mc_p.l(entry5.o)
    0x000000c8   0x000000c8   0x00000000   Code   RO          769    .ARM.Collect$$$$00000008  mc_p.l(entry7b.o)
    0x000000c8   0x000000c8   0x00000000   Code   RO          771    .ARM.Collect$$$$0000000A  mc_p.l(entry8b.o)
    0x000000c8   0x000000c8   0x00000008   Code   RO          772    .ARM.Collect$$$$0000000B  mc_p.l(entry9a.o)
    0x000000d0   0x000000d0   0x00000000   Code   RO          774    .ARM.Collect$$$$0000000D  mc_p.l(entry10a.o)
    0x000000d0   0x000000d0   0x00000000   Code   RO          776    .ARM.Collect$$$$0000000F  mc_p.l(entry11a.o)
    0x000000d0   0x000000d0   0x00000004   Code   RO          765    .ARM.Collect$$$$00002712  mc_p.l(entry2.o)
    0x000000d4   0x000000d4   0x00000014   Code   RO           13    .text               startup_mspm0g350x_uvision.o
    0x000000e8   0x000000e8   0x00000024   Code   RO          720    .text               mc_p.l(memseta.o)
    0x0000010c   0x0000010c   0x0000000e   Code   RO          722    .text               mc_p.l(strlen.o)
    0x0000011a   0x0000011a   0x0000001c   Code   RO          754    .text               mf_p.l(fcmpeq.o)
    0x00000136   0x00000136   0x00000002   PAD
    0x00000138   0x00000138   0x0000001c   Code   RO          756    .text               mf_p.l(dfltui.o)
    0x00000154   0x00000154   0x00000048   Code   RO          760    .text               mf_p.l(dfixi.o)
    0x0000019c   0x0000019c   0x00000028   Code   RO          762    .text               mf_p.l(f2d.o)
    0x000001c4   0x000001c4   0x0000003e   Code   RO          787    .text               mc_p.l(uidiv_div0.o)
    0x00000202   0x00000202   0x00000060   Code   RO          793    .text               mc_p.l(uldiv.o)
    0x00000262   0x00000262   0x00000022   Code   RO          795    .text               mc_p.l(llushr.o)
    0x00000284   0x00000284   0x00000000   Code   RO          804    .text               mc_p.l(iusefp.o)
    0x00000284   0x00000284   0x000000be   Code   RO          805    .text               mf_p.l(depilogue.o)
    0x00000342   0x00000342   0x00000002   PAD
    0x00000344   0x00000344   0x00000164   Code   RO          809    .text               mf_p.l(dadd.o)
    0x000004a8   0x000004a8   0x000000d0   Code   RO          811    .text               mf_p.l(dmul.o)
    0x00000578   0x00000578   0x000000f0   Code   RO          813    .text               mf_p.l(ddiv.o)
    0x00000668   0x00000668   0x000000a2   Code   RO          815    .text               mf_p.l(dsqrt.o)
    0x0000070a   0x0000070a   0x00000002   PAD
    0x0000070c   0x0000070c   0x00000040   Code   RO          817    .text               mf_p.l(dfixul.o)
    0x0000074c   0x0000074c   0x00000028   Code   RO          819    .text               mf_p.l(cdrcmple.o)
    0x00000774   0x00000774   0x00000004   PAD
    0x00000778   0x00000778   0x00000030   Code   RO          821    .text               mc_p.l(init.o)
    0x000007a8   0x000007a8   0x00000020   Code   RO          824    .text               mc_p.l(llshl.o)
    0x000007c8   0x000007c8   0x00000026   Code   RO          826    .text               mc_p.l(llsshr.o)
    0x000007ee   0x000007ee   0x0000000a   Code   RO          472    .text.DL_Common_delayCycles  driverlib.a(dl_common.o)
    0x000007f8   0x000007f8   0x00000028   Code   RO          114    .text.DL_Common_updateReg  ti_msp_dl_config.o
    0x00000820   0x00000820   0x00000018   Code   RO           74    .text.DL_GPIO_clearInterruptStatus  ti_msp_dl_config.o
    0x00000838   0x00000838   0x0000001c   Code   RO          256    .text.DL_GPIO_clearInterruptStatus  hw_encoder.o
    0x00000854   0x00000854   0x00000014   Code   RO           70    .text.DL_GPIO_clearPins  ti_msp_dl_config.o
    0x00000868   0x00000868   0x00000014   Code   RO          143    .text.DL_GPIO_clearPins  hw_lcd.o
    0x0000087c   0x0000087c   0x00000014   Code   RO          394    .text.DL_GPIO_clearPins  app_ui.o
    0x00000890   0x00000890   0x0000001c   Code   RO           76    .text.DL_GPIO_enableInterrupt  ti_msp_dl_config.o
    0x000008ac   0x000008ac   0x00000018   Code   RO           60    .text.DL_GPIO_enableOutput  ti_msp_dl_config.o
    0x000008c4   0x000008c4   0x00000014   Code   RO           48    .text.DL_GPIO_enablePower  ti_msp_dl_config.o
    0x000008d8   0x000008d8   0x00000018   Code   RO          252    .text.DL_GPIO_getEnabledInterruptStatus  hw_encoder.o
    0x000008f0   0x000008f0   0x00000030   Code   RO           68    .text.DL_GPIO_initDigitalInputFeatures  ti_msp_dl_config.o
    0x00000920   0x00000920   0x00000014   Code   RO           66    .text.DL_GPIO_initDigitalOutput  ti_msp_dl_config.o
    0x00000934   0x00000934   0x0000002c   Code   RO           64    .text.DL_GPIO_initDigitalOutputFeatures  ti_msp_dl_config.o
    0x00000960   0x00000960   0x00000014   Code   RO           56    .text.DL_GPIO_initPeripheralAnalogFunction  ti_msp_dl_config.o
    0x00000974   0x00000974   0x0000001c   Code   RO           62    .text.DL_GPIO_initPeripheralInputFunction  ti_msp_dl_config.o
    0x00000990   0x00000990   0x0000001c   Code   RO           58    .text.DL_GPIO_initPeripheralOutputFunction  ti_msp_dl_config.o
    0x000009ac   0x000009ac   0x00000016   Code   RO          212    .text.DL_GPIO_readPins  hw_key.o
    0x000009c2   0x000009c2   0x00000016   Code   RO          254    .text.DL_GPIO_readPins  hw_encoder.o
    0x000009d8   0x000009d8   0x00000010   Code   RO           40    .text.DL_GPIO_reset  ti_msp_dl_config.o
    0x000009e8   0x000009e8   0x0000001c   Code   RO           72    .text.DL_GPIO_setLowerPinsPolarity  ti_msp_dl_config.o
    0x00000a04   0x00000a04   0x00000014   Code   RO          145    .text.DL_GPIO_setPins  hw_lcd.o
    0x00000a18   0x00000a18   0x00000018   Code   RO          396    .text.DL_GPIO_setPins  app_ui.o
    0x00000a30   0x00000a30   0x00000018   Code   RO          112    .text.DL_SPI_enable  ti_msp_dl_config.o
    0x00000a48   0x00000a48   0x00000018   Code   RO           54    .text.DL_SPI_enablePower  ti_msp_dl_config.o
    0x00000a60   0x00000a60   0x00000044   Code   RO          481    .text.DL_SPI_init   driverlib.a(dl_spi.o)
    0x00000aa4   0x00000aa4   0x00000018   Code   RO          139    .text.DL_SPI_isBusy  hw_lcd.o
    0x00000abc   0x00000abc   0x00000018   Code   RO           46    .text.DL_SPI_reset  ti_msp_dl_config.o
    0x00000ad4   0x00000ad4   0x00000020   Code   RO          108    .text.DL_SPI_setBitRateSerialClockDivider  ti_msp_dl_config.o
    0x00000af4   0x00000af4   0x00000012   Code   RO          483    .text.DL_SPI_setClockConfig  driverlib.a(dl_spi.o)
    0x00000b06   0x00000b06   0x00000002   PAD
    0x00000b08   0x00000b08   0x00000030   Code   RO          110    .text.DL_SPI_setFIFOThreshold  ti_msp_dl_config.o
    0x00000b38   0x00000b38   0x00000016   Code   RO          137    .text.DL_SPI_transmitData8  hw_lcd.o
    0x00000b4e   0x00000b4e   0x00000002   PAD
    0x00000b50   0x00000b50   0x000000c0   Code   RO          676    .text.DL_SYSCTL_configSYSPLL  driverlib.a(dl_sysctl_mspm0g1x0x_g3x0x.o)
    0x00000c10   0x00000c10   0x0000000c   Code   RO           84    .text.DL_SYSCTL_disableHFXT  ti_msp_dl_config.o
    0x00000c1c   0x00000c1c   0x00000014   Code   RO           86    .text.DL_SYSCTL_disableSYSPLL  ti_msp_dl_config.o
    0x00000c30   0x00000c30   0x00000018   Code   RO           78    .text.DL_SYSCTL_setBORThreshold  ti_msp_dl_config.o
    0x00000c48   0x00000c48   0x0000001c   Code   RO           80    .text.DL_SYSCTL_setFlashWaitState  ti_msp_dl_config.o
    0x00000c64   0x00000c64   0x00000050   Code   RO          690    .text.DL_SYSCTL_setHFCLKSourceHFXTParams  driverlib.a(dl_sysctl_mspm0g1x0x_g3x0x.o)
    0x00000cb4   0x00000cb4   0x0000001c   Code   RO           82    .text.DL_SYSCTL_setSYSOSCFreq  ti_msp_dl_config.o
    0x00000cd0   0x00000cd0   0x00000018   Code   RO           88    .text.DL_SYSCTL_setULPCLKDivider  ti_msp_dl_config.o
    0x00000ce8   0x00000ce8   0x00000028   Code   RO          684    .text.DL_SYSCTL_switchMCLKfromSYSOSCtoHSCLK  driverlib.a(dl_sysctl_mspm0g1x0x_g3x0x.o)
    0x00000d10   0x00000d10   0x00000014   Code   RO           94    .text.DL_Timer_enableClock  ti_msp_dl_config.o
    0x00000d24   0x00000d24   0x00000018   Code   RO           98    .text.DL_Timer_enableInterrupt  ti_msp_dl_config.o
    0x00000d3c   0x00000d3c   0x00000018   Code   RO           50    .text.DL_Timer_enablePower  ti_msp_dl_config.o
    0x00000d54   0x00000d54   0x00000012   Code   RO          362    .text.DL_Timer_getPendingInterrupt  mid_timer.o
    0x00000d66   0x00000d66   0x00000002   PAD
    0x00000d68   0x00000d68   0x00000108   Code   RO          615    .text.DL_Timer_initFourCCPWMMode  driverlib.a(dl_timer.o)
    0x00000e70   0x00000e70   0x000000ec   Code   RO          539    .text.DL_Timer_initTimerMode  driverlib.a(dl_timer.o)
    0x00000f5c   0x00000f5c   0x00000010   Code   RO           42    .text.DL_Timer_reset  ti_msp_dl_config.o
    0x00000f6c   0x00000f6c   0x00000014   Code   RO           96    .text.DL_Timer_setCCPDirection  ti_msp_dl_config.o
    0x00000f80   0x00000f80   0x0000001c   Code   RO          581    .text.DL_Timer_setCaptCompUpdateMethod  driverlib.a(dl_timer.o)
    0x00000f9c   0x00000f9c   0x00000018   Code   RO          589    .text.DL_Timer_setCaptureCompareOutCtl  driverlib.a(dl_timer.o)
    0x00000fb4   0x00000fb4   0x00000010   Code   RO          541    .text.DL_Timer_setCaptureCompareValue  driverlib.a(dl_timer.o)
    0x00000fc4   0x00000fc4   0x0000001c   Code   RO          535    .text.DL_Timer_setClockConfig  driverlib.a(dl_timer.o)
    0x00000fe0   0x00000fe0   0x0000003c   Code   RO           92    .text.DL_Timer_setCounterControl  ti_msp_dl_config.o
    0x0000101c   0x0000101c   0x00000016   Code   RO          106    .text.DL_UART_enable  ti_msp_dl_config.o
    0x00001032   0x00001032   0x00000002   PAD
    0x00001034   0x00001034   0x0000001c   Code   RO          104    .text.DL_UART_enableInterrupt  ti_msp_dl_config.o
    0x00001050   0x00001050   0x00000018   Code   RO           52    .text.DL_UART_enablePower  ti_msp_dl_config.o
    0x00001068   0x00001068   0x00000012   Code   RO          306    .text.DL_UART_getPendingInterrupt  mid_debug_uart.o
    0x0000107a   0x0000107a   0x00000002   PAD
    0x0000107c   0x0000107c   0x00000048   Code   RO          636    .text.DL_UART_init  driverlib.a(dl_uart.o)
    0x000010c4   0x000010c4   0x00000014   Code   RO          308    .text.DL_UART_receiveData  mid_debug_uart.o
    0x000010d8   0x000010d8   0x00000018   Code   RO           44    .text.DL_UART_reset  ti_msp_dl_config.o
    0x000010f0   0x000010f0   0x0000004c   Code   RO          102    .text.DL_UART_setBaudRateDivisor  ti_msp_dl_config.o
    0x0000113c   0x0000113c   0x00000012   Code   RO          638    .text.DL_UART_setClockConfig  driverlib.a(dl_uart.o)
    0x0000114e   0x0000114e   0x0000001e   Code   RO          100    .text.DL_UART_setOversampling  ti_msp_dl_config.o
    0x0000116c   0x0000116c   0x00000152   Code   RO          169    .text.Drawarc       hw_lcd.o
    0x000012be   0x000012be   0x00000002   PAD
    0x000012c0   0x000012c0   0x000000a4   Code   RO          250    .text.GROUP1_IRQHandler  hw_encoder.o
    0x00001364   0x00001364   0x0000003e   Code   RO          153    .text.LCD_Address_Set  hw_lcd.o
    0x000013a2   0x000013a2   0x0000014a   Code   RO          171    .text.LCD_ArcRect   hw_lcd.o
    0x000014ec   0x000014ec   0x0000010c   Code   RO          161    .text.LCD_DrawLine  hw_lcd.o
    0x000015f8   0x000015f8   0x00000020   Code   RO          159    .text.LCD_DrawPoint  hw_lcd.o
    0x00001618   0x00001618   0x00000052   Code   RO          165    .text.LCD_DrawRectangle  hw_lcd.o
    0x0000166a   0x0000166a   0x0000005c   Code   RO          157    .text.LCD_Fill      hw_lcd.o
    0x000016c6   0x000016c6   0x00000002   PAD
    0x000016c8   0x000016c8   0x000001dc   Code   RO          183    .text.LCD_ShowChar  hw_lcd.o
    0x000018a4   0x000018a4   0x00000128   Code   RO          173    .text.LCD_ShowChinese  hw_lcd.o
    0x000019cc   0x000019cc   0x0000019c   Code   RO          175    .text.LCD_ShowChinese12x12  hw_lcd.o
    0x00001b68   0x00001b68   0x0000019c   Code   RO          177    .text.LCD_ShowChinese16x16  hw_lcd.o
    0x00001d04   0x00001d04   0x0000019c   Code   RO          179    .text.LCD_ShowChinese24x24  hw_lcd.o
    0x00001ea0   0x00001ea0   0x0000019c   Code   RO          181    .text.LCD_ShowChinese32x32  hw_lcd.o
    0x0000203c   0x0000203c   0x00000062   Code   RO          185    .text.LCD_ShowString  hw_lcd.o
    0x0000209e   0x0000209e   0x0000001c   Code   RO          149    .text.LCD_WR_DATA   hw_lcd.o
    0x000020ba   0x000020ba   0x00000014   Code   RO          147    .text.LCD_WR_DATA8  hw_lcd.o
    0x000020ce   0x000020ce   0x00000002   PAD
    0x000020d0   0x000020d0   0x0000002c   Code   RO          151    .text.LCD_WR_REG    hw_lcd.o
    0x000020fc   0x000020fc   0x0000002c   Code   RO          141    .text.LCD_Writ_Bus  hw_lcd.o
    0x00002128   0x00002128   0x00000118   Code   RO           24    .text.SYSCFG_DL_GPIO_init  ti_msp_dl_config.o
    0x00002240   0x00002240   0x0000008c   Code   RO           28    .text.SYSCFG_DL_PWM_MOTOR_init  ti_msp_dl_config.o
    0x000022cc   0x000022cc   0x0000003c   Code   RO           34    .text.SYSCFG_DL_SPI_LCD_init  ti_msp_dl_config.o
    0x00002308   0x00002308   0x00000054   Code   RO           26    .text.SYSCFG_DL_SYSCTL_init  ti_msp_dl_config.o
    0x0000235c   0x0000235c   0x00000038   Code   RO           30    .text.SYSCFG_DL_TIMER_TICK_init  ti_msp_dl_config.o
    0x00002394   0x00002394   0x00000050   Code   RO           32    .text.SYSCFG_DL_UART_DEBUG_init  ti_msp_dl_config.o
    0x000023e4   0x000023e4   0x00000040   Code   RO           20    .text.SYSCFG_DL_init  ti_msp_dl_config.o
    0x00002424   0x00002424   0x00000074   Code   RO           22    .text.SYSCFG_DL_initPower  ti_msp_dl_config.o
    0x00002498   0x00002498   0x00000020   Code   RO          360    .text.TIMA0_IRQHandler  mid_timer.o
    0x000024b8   0x000024b8   0x00000030   Code   RO          304    .text.UART0_IRQHandler  mid_debug_uart.o
    0x000024e8   0x000024e8   0x00000028   Code   RO          240    .text.__NVIC_ClearPendingIRQ  hw_encoder.o
    0x00002510   0x00002510   0x00000028   Code   RO          288    .text.__NVIC_ClearPendingIRQ  mid_debug_uart.o
    0x00002538   0x00002538   0x0000002c   Code   RO          356    .text.__NVIC_ClearPendingIRQ  mid_timer.o
    0x00002564   0x00002564   0x00000028   Code   RO          242    .text.__NVIC_EnableIRQ  hw_encoder.o
    0x0000258c   0x0000258c   0x00000028   Code   RO          290    .text.__NVIC_EnableIRQ  mid_debug_uart.o
    0x000025b4   0x000025b4   0x0000002c   Code   RO          358    .text.__NVIC_EnableIRQ  mid_timer.o
    0x000025e0   0x000025e0   0x00000084   Code   RO           90    .text.__NVIC_SetPriority  ti_msp_dl_config.o
    0x00002664   0x00002664   0x000000e0   Code   RO          377    .text.btn_down_cb   app_key_task.o
    0x00002744   0x00002744   0x00000084   Code   RO          373    .text.btn_left_cb   app_key_task.o
    0x000027c8   0x000027c8   0x000000fc   Code   RO          375    .text.btn_right_cb  app_key_task.o
    0x000028c4   0x000028c4   0x000000ec   Code   RO          371    .text.btn_up_cb     app_key_task.o
    0x000029b0   0x000029b0   0x00000016   Code   RO          328    .text.button_down_read  mid_button.o
    0x000029c6   0x000029c6   0x00000016   Code   RO          324    .text.button_left_read  mid_button.o
    0x000029dc   0x000029dc   0x00000016   Code   RO          326    .text.button_right_read  mid_button.o
    0x000029f2   0x000029f2   0x00000016   Code   RO          322    .text.button_up_read  mid_button.o
    0x00002a08   0x00002a08   0x00000016   Code   RO          286    .text.debug_uart_init  mid_debug_uart.o
    0x00002a1e   0x00002a1e   0x00000002   PAD
    0x00002a20   0x00002a20   0x0000002c   Code   RO          310    .text.debug_uart_receive_limit_length  mid_debug_uart.o
    0x00002a4c   0x00002a4c   0x000000ea   Code   RO          390    .text.disp_select_box  app_ui.o
    0x00002b36   0x00002b36   0x00000002   PAD
    0x00002b38   0x00002b38   0x00000084   Code   RO          388    .text.disp_string_rect  app_ui.o
    0x00002bbc   0x00002bbc   0x00000064   Code   RO          386    .text.disp_x_center  app_ui.o
    0x00002c20   0x00002c20   0x00000016   Code   RO          238    .text.encoder_init  hw_encoder.o
    0x00002c36   0x00002c36   0x00000002   PAD
    0x00002c38   0x00002c38   0x0000001c   Code   RO          248    .text.encoder_update  hw_encoder.o
    0x00002c54   0x00002c54   0x0000014e   Code   RO          444    .text.event_manager  app_sys_mode.o
    0x00002da2   0x00002da2   0x00000002   PAD
    0x00002da4   0x00002da4   0x00000404   Code   RO          338    .text.flex_button_process  mid_button.o
    0x000031a8   0x000031a8   0x000000c8   Code   RO          336    .text.flex_button_read  mid_button.o
    0x00003270   0x00003270   0x000000a4   Code   RO          330    .text.flex_button_register  mid_button.o
    0x00003314   0x00003314   0x0000000c   Code   RO          334    .text.flex_button_scan  mid_button.o
    0x00003320   0x00003320   0x00000008   Code   RO          450    .text.get_default_page_flag  app_sys_mode.o
    0x00003328   0x00003328   0x00000008   Code   RO          460    .text.get_functional_mode  app_sys_mode.o
    0x00003330   0x00003330   0x00000008   Code   RO          456    .text.get_motor_status_flag  app_sys_mode.o
    0x00003338   0x00003338   0x00000008   Code   RO          452    .text.get_set_page_flag  app_sys_mode.o
    0x00003340   0x00003340   0x00000008   Code   RO          446    .text.get_show_state  app_sys_mode.o
    0x00003348   0x00003348   0x0000008c   Code   RO          210    .text.key_scan      hw_key.o
    0x000033d4   0x000033d4   0x000001d0   Code   RO          155    .text.lcd_init      hw_lcd.o
    0x000035a4   0x000035a4   0x000000b4   Code   RO            2    .text.main          empty.o
    0x00003658   0x00003658   0x00000024   Code   RO          223    .text.restrict_pwm_max_value  hw_motor.o
    0x0000367c   0x0000367c   0x00000018   Code   RO          227    .text.set_bi        hw_motor.o
    0x00003694   0x00003694   0x0000001c   Code   RO          225    .text.set_fi        hw_motor.o
    0x000036b0   0x000036b0   0x00000030   Code   RO          221    .text.set_motor     hw_motor.o
    0x000036e0   0x000036e0   0x00000014   Code   RO          454    .text.set_motor_status_flag  app_sys_mode.o
    0x000036f4   0x000036f4   0x0000002c   Code   RO          135    .text.spi_write_bus  hw_lcd.o
    0x00003720   0x00003720   0x0000000c   Code   RO          229    .text.stop_motor    hw_motor.o
    0x0000372c   0x0000372c   0x00000010   Code   RO          442    .text.sys_event_init  app_sys_mode.o
    0x0000373c   0x0000373c   0x00000016   Code   RO          354    .text.timer_init    mid_timer.o
    0x00003752   0x00003752   0x00000002   PAD
    0x00003754   0x00003754   0x00000158   Code   RO          408    .text.ui_distance_page  app_ui.o
    0x000038ac   0x000038ac   0x00000268   Code   RO          410    .text.ui_distance_page_value_set  app_ui.o
    0x00003b14   0x00003b14   0x00000100   Code   RO          392    .text.ui_home_page  app_ui.o
    0x00003c14   0x00003c14   0x000000a4   Code   RO          398    .text.ui_home_page_select  app_ui.o
    0x00003cb8   0x00003cb8   0x00000130   Code   RO          406    .text.ui_parameter_select_box_bold  app_ui.o
    0x00003de8   0x00003de8   0x0000003c   Code   RO          412    .text.ui_select_page_show  app_ui.o
    0x00003e24   0x00003e24   0x0000015c   Code   RO          400    .text.ui_speed_page  app_ui.o
    0x00003f80   0x00003f80   0x000001fc   Code   RO          404    .text.ui_speed_page_select_box  app_ui.o
    0x0000417c   0x0000417c   0x00000268   Code   RO          402    .text.ui_speed_page_value_set  app_ui.o
    0x000043e4   0x000043e4   0x000000bc   Code   RO          320    .text.user_button_init  mid_button.o
    0x000044a0   0x000044a0   0x00000028   Code   RO          727    i.__0sprintf        mc_p.l(printfa.o)
    0x000044c8   0x000044c8   0x0000002e   Code   RO          807    i.__ARM_clz         mf_p.l(depilogue.o)
    0x000044f6   0x000044f6   0x00000002   PAD
    0x000044f8   0x000044f8   0x0000000e   Code   RO          831    i.__scatterload_copy  mc_p.l(handlers.o)
    0x00004506   0x00004506   0x00000002   PAD
    0x00004508   0x00004508   0x00000002   Code   RO          832    i.__scatterload_null  mc_p.l(handlers.o)
    0x0000450a   0x0000450a   0x00000006   PAD
    0x00004510   0x00004510   0x0000000e   Code   RO          833    i.__scatterload_zeroinit  mc_p.l(handlers.o)
    0x0000451e   0x0000451e   0x00000002   PAD
    0x00004520   0x00004520   0x0000000c   Code   RO          799    i.__set_errno       mc_p.l(errno.o)
    0x0000452c   0x0000452c   0x00000174   Code   RO          732    i._fp_digits        mc_p.l(printfa.o)
    0x000046a0   0x000046a0   0x000006ec   Code   RO          733    i._printf_core      mc_p.l(printfa.o)
    0x00004d8c   0x00004d8c   0x00000020   Code   RO          734    i._printf_post_padding  mc_p.l(printfa.o)
    0x00004dac   0x00004dac   0x0000002c   Code   RO          735    i._printf_pre_padding  mc_p.l(printfa.o)
    0x00004dd8   0x00004dd8   0x0000000a   Code   RO          737    i._sputc            mc_p.l(printfa.o)
    0x00004de2   0x00004de2   0x00000002   PAD
    0x00004de4   0x00004de4   0x00000048   Code   RO          708    i.sqrt              m_ps.l(sqrt.o)
    0x00004e2c   0x00004e2c   0x00000474   Data   RO          195    .rodata.ascii_1206  hw_lcd.o
    0x000052a0   0x000052a0   0x000005f0   Data   RO          196    .rodata.ascii_1608  hw_lcd.o
    0x00005890   0x00005890   0x000011d0   Data   RO          197    .rodata.ascii_2412  hw_lcd.o
    0x00006a60   0x00006a60   0x000017c0   Data   RO          198    .rodata.ascii_3216  hw_lcd.o
    0x00008220   0x00008220   0x00000003   Data   RO          120    .rodata.gPWM_MOTORClockConfig  ti_msp_dl_config.o
    0x00008223   0x00008223   0x00000001   PAD
    0x00008224   0x00008224   0x00000008   Data   RO          121    .rodata.gPWM_MOTORConfig  ti_msp_dl_config.o
    0x0000822c   0x0000822c   0x00000002   Data   RO          126    .rodata.gSPI_LCD_clockConfig  ti_msp_dl_config.o
    0x0000822e   0x0000822e   0x0000000a   Data   RO          127    .rodata.gSPI_LCD_config  ti_msp_dl_config.o
    0x00008238   0x00008238   0x00000028   Data   RO          119    .rodata.gSYSPLLConfig  ti_msp_dl_config.o
    0x00008260   0x00008260   0x00000003   Data   RO          122    .rodata.gTIMER_TICKClockConfig  ti_msp_dl_config.o
    0x00008263   0x00008263   0x00000001   PAD
    0x00008264   0x00008264   0x00000014   Data   RO          123    .rodata.gTIMER_TICKTimerConfig  ti_msp_dl_config.o
    0x00008278   0x00008278   0x00000002   Data   RO          124    .rodata.gUART_DEBUGClockConfig  ti_msp_dl_config.o
    0x0000827a   0x0000827a   0x0000000a   Data   RO          125    .rodata.gUART_DEBUGConfig  ti_msp_dl_config.o
    0x00008284   0x00008284   0x00000049   Data   RO          418    .rodata.str1.1      app_ui.o
    0x000082cd   0x000082cd   0x00000082   Data   RO          199    .rodata.tfont12     hw_lcd.o
    0x0000834f   0x0000834f   0x00000176   Data   RO          200    .rodata.tfont16     hw_lcd.o
    0x000084c5   0x000084c5   0x000000de   Data   RO          201    .rodata.tfont24     hw_lcd.o
    0x000085a3   0x000085a3   0x00000082   Data   RO          202    .rodata.tfont32     hw_lcd.o
    0x00008625   0x00008625   0x00000003   PAD
    0x00008628   0x00008628   0x00000020   Data   RO          830    Region$$Table       anon$$obj.o


    Execution Region RW_IRAM2 (Exec base: 0x20200000, Load base: 0x00008648, Size: 0x000006d8, Max: 0x00008000, ABSOLUTE)

    Exec Addr    Load Addr    Size         Type   Attr      Idx    E Section Name        Object

    0x20200000   0x00008648   0x00000004   Data   RW          800    .data               mc_p.l(errno.o)
    0x20200004   0x0000864c   0x00000002   Data   RW          343    .data.key_rst_data  mid_button.o
    0x20200006   0x0000864e   0x00000002   Data   RW          344    .data.keydata       mid_button.o
    0x20200008        -       0x00000004   Zero   RW          341    .bss.btn_head       mid_button.o
    0x2020000c        -       0x00000001   Zero   RW          342    .bss.button_cnt     mid_button.o
    0x2020000d   0x00008650   0x00000001   PAD
    0x2020000e        -       0x00000002   Zero   RW          345    .bss.cont           mid_button.o
    0x20200010        -       0x00000084   Zero   RW          312    .bss.debug_uart     mid_debug_uart.o
    0x20200094        -       0x000000a0   Zero   RW          116    .bss.gPWM_MOTORBackup  ti_msp_dl_config.o
    0x20200134        -       0x00000028   Zero   RW          118    .bss.gSPI_LCDBackup  ti_msp_dl_config.o
    0x2020015c        -       0x000000bc   Zero   RW          117    .bss.gTIMER_TICKBackup  ti_msp_dl_config.o
    0x20200218        -       0x00000010   Zero   RW          258    .bss.motor_encoder  hw_encoder.o
    0x20200228        -       0x00000010   Zero   RW          464    .bss.system_status  app_sys_mode.o
    0x20200238        -       0x00000002   Zero   RW          346    .bss.trg            mid_button.o
    0x2020023a   0x00008650   0x00000002   PAD
    0x2020023c        -       0x00000004   Zero   RW          426    .bss.ui_distance_page_value_set.last_d  app_ui.o
    0x20200240        -       0x00000004   Zero   RW          427    .bss.ui_distance_page_value_set.last_distance  app_ui.o
    0x20200244        -       0x00000004   Zero   RW          425    .bss.ui_distance_page_value_set.last_i  app_ui.o
    0x20200248        -       0x00000004   Zero   RW          424    .bss.ui_distance_page_value_set.last_p  app_ui.o
    0x2020024c        -       0x00000004   Zero   RW          428    .bss.ui_distance_page_value_set.last_target  app_ui.o
    0x20200250        -       0x00000004   Zero   RW          421    .bss.ui_speed_page_value_set.last_d  app_ui.o
    0x20200254        -       0x00000004   Zero   RW          420    .bss.ui_speed_page_value_set.last_i  app_ui.o
    0x20200258        -       0x00000004   Zero   RW          419    .bss.ui_speed_page_value_set.last_p  app_ui.o
    0x2020025c        -       0x00000004   Zero   RW          422    .bss.ui_speed_page_value_set.last_speed  app_ui.o
    0x20200260        -       0x00000004   Zero   RW          423    .bss.ui_speed_page_value_set.last_target  app_ui.o
    0x20200264        -       0x00000070   Zero   RW          340    .bss.user_button    mid_button.o
    0x202002d4   0x00008650   0x00000004   PAD
    0x202002d8        -       0x00000400   Zero   RW           10    STACK               startup_mspm0g350x_uvision.o



  Load Region LR_BCR (Base: 0x41c00000, Size: 0x00000000, Max: 0x00000100, ABSOLUTE)

    Execution Region BCR_CONFIG (Exec base: 0x41c00000, Load base: 0x41c00000, Size: 0x00000000, Max: 0x000000ff, ABSOLUTE)

    **** No section assigned to this execution region ****



  Load Region LR_BSL (Base: 0x41c00100, Size: 0x00000000, Max: 0x00000100, ABSOLUTE)

    Execution Region BSL_CONFIG (Exec base: 0x41c00100, Load base: 0x41c00100, Size: 0x00000000, Max: 0x00000080, ABSOLUTE)

    **** No section assigned to this execution region ****


==============================================================================

Image component sizes


      Code (inc. data)   RO Data    RW Data    ZI Data      Debug   Object Name

       844         16          0          0          0       2819   app_key_task.o
       410         32          0          0         16       2832   app_sys_mode.o
      3726        192         73          0         40      10713   app_ui.o
       180          0          0          0          0        827   empty.o
       368         20          0          0         16       6112   hw_encoder.o
       162          4          0          0          0       3650   hw_key.o
      4452         56      14156          0          0      15956   hw_lcd.o
       148         12          0          0          0       3844   hw_motor.o
      1680        100          0          4        121       4435   mid_button.o
       232         16          0          0        132       6349   mid_debug_uart.o
       160         12          0          0          0       5470   mid_timer.o
        20          4        192          0       1024        644   startup_mspm0g350x_uvision.o
      2056        188         98          0        388      31268   ti_msp_dl_config.o

    ----------------------------------------------------------------------
     14462        652      14556          4       1744      94919   Object Totals
         0          0         32          0          0          0   (incl. Generated)
        24          0          5          0          7          0   (incl. Padding)

    ----------------------------------------------------------------------

      Code (inc. data)   RO Data    RW Data    ZI Data      Debug   Library Member Name

        10          0          0          0          0        790   dl_common.o
        86          8          0          0          0      13505   dl_spi.o
       312         24          0          0          0      12865   dl_sysctl_mspm0g1x0x_g3x0x.o
       596        188          0          0          0      41545   dl_timer.o
        90          8          0          0          0      14150   dl_uart.o
        72          6          0          0          0         76   sqrt.o
         0          0          0          0          0          0   entry.o
         0          0          0          0          0          0   entry10a.o
         0          0          0          0          0          0   entry11a.o
         8          4          0          0          0          0   entry2.o
         4          0          0          0          0          0   entry5.o
         0          0          0          0          0          0   entry7b.o
         0          0          0          0          0          0   entry8b.o
         8          4          0          0          0          0   entry9a.o
        12          6          0          4          0         60   errno.o
        30          0          0          0          0          0   handlers.o
        48         10          0          0          0         68   init.o
         0          0          0          0          0          0   iusefp.o
        32          0          0          0          0         68   llshl.o
        38          0          0          0          0         68   llsshr.o
        34          0          0          0          0         68   llushr.o
        36          0          0          0          0        100   memseta.o
      2270         94          0          0          0        472   printfa.o
        14          0          0          0          0         60   strlen.o
        62          0          0          0          0         72   uidiv_div0.o
        96          0          0          0          0         84   uldiv.o
        40          2          0          0          0         68   cdrcmple.o
       356          4          0          0          0        140   dadd.o
       240          6          0          0          0         84   ddiv.o
       236          0          0          0          0        216   depilogue.o
        72         10          0          0          0         72   dfixi.o
        64         10          0          0          0         68   dfixul.o
        28          4          0          0          0         68   dfltui.o
       208          6          0          0          0         88   dmul.o
       162          0          0          0          0         80   dsqrt.o
        40          0          0          0          0         60   f2d.o
        28          0          0          0          0         60   fcmpeq.o

    ----------------------------------------------------------------------
      5358        398          0          4          0      85055   Library Totals
        26          4          0          0          0          0   (incl. Padding)

    ----------------------------------------------------------------------

      Code (inc. data)   RO Data    RW Data    ZI Data      Debug   Library Name

      1094        228          0          0          0      82855   driverlib.a
        72          6          0          0          0         76   m_ps.l
      2692        118          0          4          0       1120   mc_p.l
      1474         42          0          0          0       1004   mf_p.l

    ----------------------------------------------------------------------
      5358        398          0          4          0      85055   Library Totals

    ----------------------------------------------------------------------

==============================================================================


      Code (inc. data)   RO Data    RW Data    ZI Data      Debug   

     19820       1050      14556          8       1744     178742   Grand Totals
     19820       1050      14556          8       1744     178742   ELF Image Totals
     19820       1050      14556          8          0          0   ROM Totals

==============================================================================

    Total RO  Size (Code + RO Data)                34376 (  33.57kB)
    Total RW  Size (RW Data + ZI Data)              1752 (   1.71kB)
    Total ROM Size (Code + RO Data + RW Data)      34384 (  33.58kB)

==============================================================================

