Component: Arm Compiler for Embedded 6.21 Tool: armlink [5ec1fa00]

==============================================================================

Section Cross References

    empty.o(.text.ui_speed_or_distance_page_value_set_quick) refers to app_sys_mode.o(.text.get_functional_mode) for get_functional_mode
    empty.o(.text.ui_speed_or_distance_page_value_set_quick) refers to app_speed_pid.o(.text.get_speed_pid) for get_speed_pid
    empty.o(.text.ui_speed_or_distance_page_value_set_quick) refers to app_speed_pid.o(.text.set_speed_pid_parameter) for set_speed_pid_parameter
    empty.o(.text.ui_speed_or_distance_page_value_set_quick) refers to app_distance_pid.o(.text.get_distance_pid) for get_distance_pid
    empty.o(.text.ui_speed_or_distance_page_value_set_quick) refers to app_distance_pid.o(.text.set_distance_pid_parameter) for set_distance_pid_parameter
    empty.o(.text.ui_speed_or_distance_page_value_set_quick) refers to app_sys_mode.o(.bss.system_status) for system_status
    empty.o(.ARM.exidx.text.ui_speed_or_distance_page_value_set_quick) refers to empty.o(.text.ui_speed_or_distance_page_value_set_quick) for [Anonymous Symbol]
    empty.o(.text.main) refers to ti_msp_dl_config.o(.text.SYSCFG_DL_init) for SYSCFG_DL_init
    empty.o(.text.main) refers to mid_debug_uart.o(.text.debug_uart_init) for debug_uart_init
    empty.o(.text.main) refers to mid_button.o(.text.user_button_init) for user_button_init
    empty.o(.text.main) refers to hw_encoder.o(.text.encoder_init) for encoder_init
    empty.o(.text.main) refers to mid_timer.o(.text.timer_init) for timer_init
    empty.o(.text.main) refers to app_sys_mode.o(.text.sys_event_init) for sys_event_init
    empty.o(.text.main) refers to app_speed_pid.o(.text.speed_pid_init) for speed_pid_init
    empty.o(.text.main) refers to app_distance_pid.o(.text.distance_pid_init) for distance_pid_init
    empty.o(.text.main) refers to hw_lcd.o(.text.lcd_init) for lcd_init
    empty.o(.text.main) refers to app_ui.o(.text.ui_home_page) for ui_home_page
    empty.o(.text.main) refers to app_sys_mode.o(.text.get_motor_status_flag) for get_motor_status_flag
==============================================================================

Removing Unused input sections from the image.

    Removing empty.o(.text), (0 bytes).
    Removing empty.o(.ARM.exidx.text.ui_speed_or_distance_page_value_set_quick), (8 bytes).
    Removing empty.o(.ARM.exidx.text.main), (8 bytes).
    Removing empty.o(.ARM.use_no_argv), (4 bytes).
    Removing startup_mspm0g350x_uvision.o(HEAP), (1024 bytes).
    Removing ti_msp_dl_config.o(.text), (0 bytes).
    Removing ti_msp_dl_config.o(.ARM.exidx.text.SYSCFG_DL_init), (8 bytes).
    Removing ti_msp_dl_config.o(.ARM.exidx.text.SYSCFG_DL_initPower), (8 bytes).
    Removing ti_msp_dl_config.o(.ARM.exidx.text.SYSCFG_DL_GPIO_init), (8 bytes).
    Removing ti_msp_dl_config.o(.ARM.exidx.text.SYSCFG_DL_SYSCTL_init), (8 bytes).
    Removing ti_msp_dl_config.o(.ARM.exidx.text.SYSCFG_DL_PWM_MOTOR_init), (8 bytes).
    Removing ti_msp_dl_config.o(.ARM.exidx.text.SYSCFG_DL_TIMER_TICK_init), (8 bytes).
    Removing ti_msp_dl_config.o(.ARM.exidx.text.SYSCFG_DL_UART_DEBUG_init), (8 bytes).
    Removing ti_msp_dl_config.o(.ARM.exidx.text.SYSCFG_DL_SPI_LCD_init), (8 bytes).
    Removing ti_msp_dl_config.o(.text.SYSCFG_DL_saveConfiguration), (104 bytes).
    Removing ti_msp_dl_config.o(.ARM.exidx.text.SYSCFG_DL_saveConfiguration), (8 bytes).
    Removing ti_msp_dl_config.o(.text.SYSCFG_DL_restoreConfiguration), (108 bytes).
    Removing ti_msp_dl_config.o(.ARM.exidx.text.SYSCFG_DL_restoreConfiguration), (8 bytes).
==============================================================================

Image Symbol Table

    Local Symbols

    Symbol Name                              Value     Ov Type        Size  Object(Section)

    ../clib/division.s                       0x00000000   Number         0  aeabi_sdivfast.o ABSOLUTE
    ../clib/division.s                       0x00000000   Number         0  aeabi_sdivfast_div0.o ABSOLUTE
    ../clib/microlib/division.c              0x00000000   Number         0  uidiv.o ABSOLUTE
    ../clib/microlib/division.c              0x00000000   Number         0  uidiv_div0.o ABSOLUTE
    ../clib/microlib/division.c              0x00000000   Number         0  idiv_div0.o ABSOLUTE
    ../clib/microlib/division.c              0x00000000   Number         0  idiv0.o ABSOLUTE
    ../clib/microlib/division.c              0x00000000   Number         0  uldiv.o ABSOLUTE
    ../clib/microlib/errno.c                 0x00000000   Number         0  errno.o ABSOLUTE
    ../clib/microlib/init/entry.s            0x00000000   Number         0  entry.o ABSOLUTE
    ../clib/microlib/init/entry.s            0x00000000   Number         0  entry2.o ABSOLUTE
    ../clib/microlib/init/entry.s            0x00000000   Number         0  entry5.o ABSOLUTE
    ../clib/microlib/init/entry.s            0x00000000   Number         0  entry7a.o ABSOLUTE
    ../clib/microlib/init/entry.s            0x00000000   Number         0  entry7b.o ABSOLUTE
    ../clib/microlib/init/entry.s            0x00000000   Number         0  entry8a.o ABSOLUTE
    ../clib/microlib/init/entry.s            0x00000000   Number         0  entry8b.o ABSOLUTE
    ../clib/microlib/init/entry.s            0x00000000   Number         0  entry9a.o ABSOLUTE
    ../clib/microlib/init/entry.s            0x00000000   Number         0  entry9b.o ABSOLUTE
    ../clib/microlib/init/entry.s            0x00000000   Number         0  entry10a.o ABSOLUTE
    ../clib/microlib/init/entry.s            0x00000000   Number         0  entry10b.o ABSOLUTE
    ../clib/microlib/init/entry.s            0x00000000   Number         0  entry11a.o ABSOLUTE
    ../clib/microlib/init/entry.s            0x00000000   Number         0  entry11b.o ABSOLUTE
    ../clib/microlib/longlong.c              0x00000000   Number         0  llshl.o ABSOLUTE
    ../clib/microlib/longlong.c              0x00000000   Number         0  llushr.o ABSOLUTE
    ../clib/microlib/longlong.c              0x00000000   Number         0  llsshr.o ABSOLUTE
    ../clib/microlib/printf/printf.c         0x00000000   Number         0  printfa.o ABSOLUTE
    ../clib/microlib/stdio/fputc.c           0x00000000   Number         0  fputc.o ABSOLUTE
    ../clib/microlib/stdio/fputc.c           0x00000000   Number         0  fputc_h.o ABSOLUTE
    ../clib/microlib/stdio/semi.s            0x00000000   Number         0  semi.o ABSOLUTE
    ../clib/microlib/stdio/streams.c         0x00000000   Number         0  stdout.o ABSOLUTE
    ../clib/microlib/string/memset.c         0x00000000   Number         0  memseta.o ABSOLUTE
    ../clib/microlib/string/strlen.c         0x00000000   Number         0  strlen.o ABSOLUTE
    ../clib/microlib/stubs.s                 0x00000000   Number         0  iusefp.o ABSOLUTE
    ../clib/microlib/stubs.s                 0x00000000   Number         0  iusesemip.o ABSOLUTE
    ../fplib/microlib/d2f.c                  0x00000000   Number         0  d2f.o ABSOLUTE
    ../fplib/microlib/f2d.c                  0x00000000   Number         0  f2d.o ABSOLUTE
    ../fplib/microlib/fpadd.c                0x00000000   Number         0  fadd.o ABSOLUTE
    ../fplib/microlib/fpadd.c                0x00000000   Number         0  dadd.o ABSOLUTE
    ../fplib/microlib/fpcmp.c                0x00000000   Number         0  fcmple.o ABSOLUTE
    ../fplib/microlib/fpcmp.c                0x00000000   Number         0  fcmpge.o ABSOLUTE
    ../fplib/microlib/fpcmp.c                0x00000000   Number         0  fcmpgt.o ABSOLUTE
    ../fplib/microlib/fpcmp.c                0x00000000   Number         0  fcmpeq.o ABSOLUTE
    ../fplib/microlib/fpdiv.c                0x00000000   Number         0  fdiv.o ABSOLUTE
    ../fplib/microlib/fpdiv.c                0x00000000   Number         0  ddiv.o ABSOLUTE
    ../fplib/microlib/fpepilogue.c           0x00000000   Number         0  fepilogue.o ABSOLUTE
    ../fplib/microlib/fpepilogue.c           0x00000000   Number         0  depilogue.o ABSOLUTE
    ../fplib/microlib/fpfix.c                0x00000000   Number         0  ffixi.o ABSOLUTE
    ../fplib/microlib/fpfix.c                0x00000000   Number         0  ffixui.o ABSOLUTE
    ../fplib/microlib/fpfix.c                0x00000000   Number         0  dfixi.o ABSOLUTE
    ../fplib/microlib/fpfix.c                0x00000000   Number         0  dfixui.o ABSOLUTE
    ../fplib/microlib/fpfix.c                0x00000000   Number         0  dfixul.o ABSOLUTE
    ../fplib/microlib/fpflt.c                0x00000000   Number         0  fflti.o ABSOLUTE
    ../fplib/microlib/fpflt.c                0x00000000   Number         0  ffltl.o ABSOLUTE
    ../fplib/microlib/fpflt.c                0x00000000   Number         0  dflti.o ABSOLUTE
    ../fplib/microlib/fpflt.c                0x00000000   Number         0  dfltui.o ABSOLUTE
    ../fplib/microlib/fpmul.c                0x00000000   Number         0  fmul.o ABSOLUTE
    ../fplib/microlib/fpmul.c                0x00000000   Number         0  dmul.o ABSOLUTE
    ../fplib/microlib/fpsqrt.c               0x00000000   Number         0  dsqrt.o ABSOLUTE
    ../mathlib/sqrt.c                        0x00000000   Number         0  sqrt.o ABSOLUTE
    app_distance_pid.c                       0x00000000   Number         0  app_distance_pid.o ABSOLUTE
    app_key_task.c                           0x00000000   Number         0  app_key_task.o ABSOLUTE
    app_speed_pid.c                          0x00000000   Number         0  app_speed_pid.o ABSOLUTE
    app_sys_mode.c                           0x00000000   Number         0  app_sys_mode.o ABSOLUTE
    app_ui.c                                 0x00000000   Number         0  app_ui.o ABSOLUTE
    cdrcmple.s                               0x00000000   Number         0  cdrcmple.o ABSOLUTE
    dc.s                                     0x00000000   Number         0  dc.o ABSOLUTE
    dl_common.c                              0x00000000   Number         0  dl_common.o ABSOLUTE
    dl_spi.c                                 0x00000000   Number         0  dl_spi.o ABSOLUTE
    dl_sysctl_mspm0g1x0x_g3x0x.c             0x00000000   Number         0  dl_sysctl_mspm0g1x0x_g3x0x.o ABSOLUTE
    dl_timer.c                               0x00000000   Number         0  dl_timer.o ABSOLUTE
    dl_uart.c                                0x00000000   Number         0  dl_uart.o ABSOLUTE
    empty.c                                  0x00000000   Number         0  empty.o ABSOLUTE
    handlers.s                               0x00000000   Number         0  handlers.o ABSOLUTE
    hw_encoder.c                             0x00000000   Number         0  hw_encoder.o ABSOLUTE
    hw_key.c                                 0x00000000   Number         0  hw_key.o ABSOLUTE
    hw_lcd.c                                 0x00000000   Number         0  hw_lcd.o ABSOLUTE
    hw_motor.c                               0x00000000   Number         0  hw_motor.o ABSOLUTE
    init.s                                   0x00000000   Number         0  init.o ABSOLUTE
    mid_button.c                             0x00000000   Number         0  mid_button.o ABSOLUTE
    mid_debug_led.c                          0x00000000   Number         0  mid_debug_led.o ABSOLUTE
    mid_debug_uart.c                         0x00000000   Number         0  mid_debug_uart.o ABSOLUTE
    mid_pid.c                                0x00000000   Number         0  mid_pid.o ABSOLUTE
    mid_timer.c                              0x00000000   Number         0  mid_timer.o ABSOLUTE
    startup_mspm0g350x_uvision.s             0x00000000   Number         0  startup_mspm0g350x_uvision.o ABSOLUTE
    ti_msp_dl_config.c                       0x00000000   Number         0  ti_msp_dl_config.o ABSOLUTE
    RESET                                    0x00000000   Section      192  startup_mspm0g350x_uvision.o(RESET)
    .ARM.Collect$$$$00000000                 0x000000c0   Section        0  entry.o(.ARM.Collect$$$$00000000)
    .ARM.Collect$$$$00000001                 0x000000c0   Section        4  entry2.o(.ARM.Collect$$$$00000001)
    .ARM.Collect$$$$00000004                 0x000000c4   Section        4  entry5.o(.ARM.Collect$$$$00000004)
    .ARM.Collect$$$$00000008                 0x000000c8   Section        0  entry7b.o(.ARM.Collect$$$$00000008)
    .ARM.Collect$$$$0000000A                 0x000000c8   Section        0  entry8b.o(.ARM.Collect$$$$0000000A)
    .ARM.Collect$$$$0000000B                 0x000000c8   Section        8  entry9a.o(.ARM.Collect$$$$0000000B)
    __lit__00000000                          0x000000d0   Data           4  entry2.o(.ARM.Collect$$$$00002712)
    .ARM.Collect$$$$0000000D                 0x000000d0   Section        0  entry10a.o(.ARM.Collect$$$$0000000D)
    .ARM.Collect$$$$0000000F                 0x000000d0   Section        0  entry11a.o(.ARM.Collect$$$$0000000F)
    .ARM.Collect$$$$00002712                 0x000000d0   Section        4  entry2.o(.ARM.Collect$$$$00002712)
    .text                                    0x000000d4   Section       20  startup_mspm0g350x_uvision.o(.text)
    .text                                    0x000000e8   Section        0  memseta.o(.text)
    .text                                    0x0000010c   Section        0  strlen.o(.text)
    .text                                    0x0000011a   Section        0  fadd.o(.text)
    .text                                    0x000001cc   Section        0  fmul.o(.text)
    .text                                    0x00000246   Section        0  fdiv.o(.text)
    .text                                    0x000002c4   Section        0  dadd.o(.text)
    .text                                    0x00000428   Section        0  ddiv.o(.text)
    .text                                    0x00000518   Section        0  fcmple.o(.text)
    .text                                    0x00000534   Section        0  fcmpge.o(.text)
    .text                                    0x00000550   Section        0  fcmpgt.o(.text)
    .text                                    0x0000056c   Section        0  fcmpeq.o(.text)
    .text                                    0x00000588   Section        0  fflti.o(.text)
    .text                                    0x0000059e   Section        0  ffltl.o(.text)
    .text                                    0x000005cc   Section        0  dflti.o(.text)
    .text                                    0x000005f4   Section        0  dfltui.o(.text)
    .text                                    0x00000610   Section        0  ffixi.o(.text)
    .text                                    0x00000644   Section        0  dfixi.o(.text)
    .text                                    0x0000068c   Section        0  dfixui.o(.text)
    .text                                    0x000006c8   Section        0  f2d.o(.text)
    .text                                    0x000006f0   Section        0  d2f.o(.text)
    .text                                    0x00000728   Section        0  uidiv_div0.o(.text)
    .text                                    0x00000766   Section        0  uldiv.o(.text)
    .text                                    0x000007c6   Section        0  llshl.o(.text)
    .text                                    0x000007e6   Section        0  llushr.o(.text)
    .text                                    0x00000808   Section        0  llsshr.o(.text)
    .text                                    0x0000082e   Section        0  iusefp.o(.text)
    .text                                    0x0000082e   Section        0  fepilogue.o(.text)
    .text                                    0x000008b0   Section        0  depilogue.o(.text)
    .text                                    0x00000970   Section        0  dmul.o(.text)
    .text                                    0x00000a40   Section        0  dsqrt.o(.text)
    .text                                    0x00000ae4   Section        0  dfixul.o(.text)
    .text                                    0x00000b24   Section       40  cdrcmple.o(.text)
    .text                                    0x00000b50   Section       48  init.o(.text)
    [Anonymous Symbol]                       0x00000b80   Section        0  dl_common.o(.text.DL_Common_delayCycles)
    DL_Common_updateReg                      0x00000b8b   Thumb Code    40  ti_msp_dl_config.o(.text.DL_Common_updateReg)
    [Anonymous Symbol]                       0x00000b8a   Section        0  ti_msp_dl_config.o(.text.DL_Common_updateReg)
    DL_GPIO_clearInterruptStatus             0x00000bb5   Thumb Code    24  ti_msp_dl_config.o(.text.DL_GPIO_clearInterruptStatus)
    [Anonymous Symbol]                       0x00000bb4   Section        0  ti_msp_dl_config.o(.text.DL_GPIO_clearInterruptStatus)
    DL_GPIO_clearInterruptStatus             0x00000bcd   Thumb Code    24  hw_encoder.o(.text.DL_GPIO_clearInterruptStatus)
    [Anonymous Symbol]                       0x00000bcc   Section        0  hw_encoder.o(.text.DL_GPIO_clearInterruptStatus)
    __arm_cp.10_0                            0x00000be4   Number         4  hw_encoder.o(.text.DL_GPIO_clearInterruptStatus)
    DL_GPIO_clearPins                        0x00000be9   Thumb Code    20  ti_msp_dl_config.o(.text.DL_GPIO_clearPins)
    [Anonymous Symbol]                       0x00000be8   Section        0  ti_msp_dl_config.o(.text.DL_GPIO_clearPins)
    DL_GPIO_clearPins                        0x00000bfd   Thumb Code    20  hw_lcd.o(.text.DL_GPIO_clearPins)
    [Anonymous Symbol]                       0x00000bfc   Section        0  hw_lcd.o(.text.DL_GPIO_clearPins)
    DL_GPIO_clearPins                        0x00000c11   Thumb Code    20  app_ui.o(.text.DL_GPIO_clearPins)
    [Anonymous Symbol]                       0x00000c10   Section        0  app_ui.o(.text.DL_GPIO_clearPins)
    DL_GPIO_enableInterrupt                  0x00000c25   Thumb Code    24  ti_msp_dl_config.o(.text.DL_GPIO_enableInterrupt)
    [Anonymous Symbol]                       0x00000c24   Section        0  ti_msp_dl_config.o(.text.DL_GPIO_enableInterrupt)
    __arm_cp.28_0                            0x00000c3c   Number         4  ti_msp_dl_config.o(.text.DL_GPIO_enableInterrupt)
    DL_GPIO_enableOutput                     0x00000c41   Thumb Code    20  ti_msp_dl_config.o(.text.DL_GPIO_enableOutput)
    [Anonymous Symbol]                       0x00000c40   Section        0  ti_msp_dl_config.o(.text.DL_GPIO_enableOutput)
    __arm_cp.20_0                            0x00000c54   Number         4  ti_msp_dl_config.o(.text.DL_GPIO_enableOutput)
    DL_GPIO_enablePower                      0x00000c59   Thumb Code    20  ti_msp_dl_config.o(.text.DL_GPIO_enablePower)
    [Anonymous Symbol]                       0x00000c58   Section        0  ti_msp_dl_config.o(.text.DL_GPIO_enablePower)
    DL_GPIO_getEnabledInterruptStatus        0x00000c6d   Thumb Code    20  hw_encoder.o(.text.DL_GPIO_getEnabledInterruptStatus)
    [Anonymous Symbol]                       0x00000c6c   Section        0  hw_encoder.o(.text.DL_GPIO_getEnabledInterruptStatus)
    __arm_cp.8_0                             0x00000c80   Number         4  hw_encoder.o(.text.DL_GPIO_getEnabledInterruptStatus)
    DL_GPIO_initDigitalInputFeatures         0x00000c85   Thumb Code    44  ti_msp_dl_config.o(.text.DL_GPIO_initDigitalInputFeatures)
    [Anonymous Symbol]                       0x00000c84   Section        0  ti_msp_dl_config.o(.text.DL_GPIO_initDigitalInputFeatures)
    __arm_cp.24_0                            0x00000cb0   Number         4  ti_msp_dl_config.o(.text.DL_GPIO_initDigitalInputFeatures)
    DL_GPIO_initDigitalOutput                0x00000cb5   Thumb Code    20  ti_msp_dl_config.o(.text.DL_GPIO_initDigitalOutput)
    [Anonymous Symbol]                       0x00000cb4   Section        0  ti_msp_dl_config.o(.text.DL_GPIO_initDigitalOutput)
    DL_GPIO_initDigitalOutputFeatures        0x00000cc9   Thumb Code    44  ti_msp_dl_config.o(.text.DL_GPIO_initDigitalOutputFeatures)
    [Anonymous Symbol]                       0x00000cc8   Section        0  ti_msp_dl_config.o(.text.DL_GPIO_initDigitalOutputFeatures)
    DL_GPIO_initPeripheralAnalogFunction     0x00000cf5   Thumb Code    20  ti_msp_dl_config.o(.text.DL_GPIO_initPeripheralAnalogFunction)
    [Anonymous Symbol]                       0x00000cf4   Section        0  ti_msp_dl_config.o(.text.DL_GPIO_initPeripheralAnalogFunction)
    DL_GPIO_initPeripheralInputFunction      0x00000d09   Thumb Code    24  ti_msp_dl_config.o(.text.DL_GPIO_initPeripheralInputFunction)
    [Anonymous Symbol]                       0x00000d08   Section        0  ti_msp_dl_config.o(.text.DL_GPIO_initPeripheralInputFunction)
    __arm_cp.21_0                            0x00000d20   Number         4  ti_msp_dl_config.o(.text.DL_GPIO_initPeripheralInputFunction)
    DL_GPIO_initPeripheralOutputFunction     0x00000d25   Thumb Code    24  ti_msp_dl_config.o(.text.DL_GPIO_initPeripheralOutputFunction)
    [Anonymous Symbol]                       0x00000d24   Section        0  ti_msp_dl_config.o(.text.DL_GPIO_initPeripheralOutputFunction)
    __arm_cp.19_0                            0x00000d3c   Number         4  ti_msp_dl_config.o(.text.DL_GPIO_initPeripheralOutputFunction)
    DL_GPIO_readPins                         0x00000d41   Thumb Code    22  hw_key.o(.text.DL_GPIO_readPins)
    [Anonymous Symbol]                       0x00000d40   Section        0  hw_key.o(.text.DL_GPIO_readPins)
    DL_GPIO_readPins                         0x00000d57   Thumb Code    22  hw_encoder.o(.text.DL_GPIO_readPins)
    [Anonymous Symbol]                       0x00000d56   Section        0  hw_encoder.o(.text.DL_GPIO_readPins)
    DL_GPIO_reset                            0x00000d6d   Thumb Code    16  ti_msp_dl_config.o(.text.DL_GPIO_reset)
    [Anonymous Symbol]                       0x00000d6c   Section        0  ti_msp_dl_config.o(.text.DL_GPIO_reset)
    DL_GPIO_setLowerPinsPolarity             0x00000d7d   Thumb Code    24  ti_msp_dl_config.o(.text.DL_GPIO_setLowerPinsPolarity)
    [Anonymous Symbol]                       0x00000d7c   Section        0  ti_msp_dl_config.o(.text.DL_GPIO_setLowerPinsPolarity)
    __arm_cp.26_0                            0x00000d94   Number         4  ti_msp_dl_config.o(.text.DL_GPIO_setLowerPinsPolarity)
    DL_GPIO_setPins                          0x00000d99   Thumb Code    20  hw_lcd.o(.text.DL_GPIO_setPins)
    [Anonymous Symbol]                       0x00000d98   Section        0  hw_lcd.o(.text.DL_GPIO_setPins)
    DL_GPIO_setPins                          0x00000dad   Thumb Code    20  app_ui.o(.text.DL_GPIO_setPins)
    [Anonymous Symbol]                       0x00000dac   Section        0  app_ui.o(.text.DL_GPIO_setPins)
    __arm_cp.5_0                             0x00000dc0   Number         4  app_ui.o(.text.DL_GPIO_setPins)
    DL_SPI_enable                            0x00000dc5   Thumb Code    20  ti_msp_dl_config.o(.text.DL_SPI_enable)
    [Anonymous Symbol]                       0x00000dc4   Section        0  ti_msp_dl_config.o(.text.DL_SPI_enable)
    __arm_cp.46_0                            0x00000dd8   Number         4  ti_msp_dl_config.o(.text.DL_SPI_enable)
    DL_SPI_enablePower                       0x00000ddd   Thumb Code    20  ti_msp_dl_config.o(.text.DL_SPI_enablePower)
    [Anonymous Symbol]                       0x00000ddc   Section        0  ti_msp_dl_config.o(.text.DL_SPI_enablePower)
    __arm_cp.17_0                            0x00000df0   Number         4  ti_msp_dl_config.o(.text.DL_SPI_enablePower)
    [Anonymous Symbol]                       0x00000df4   Section        0  dl_spi.o(.text.DL_SPI_init)
    __arm_cp.0_0                             0x00000e30   Number         4  dl_spi.o(.text.DL_SPI_init)
    __arm_cp.0_1                             0x00000e34   Number         4  dl_spi.o(.text.DL_SPI_init)
    DL_SPI_isBusy                            0x00000e39   Thumb Code    20  hw_lcd.o(.text.DL_SPI_isBusy)
    [Anonymous Symbol]                       0x00000e38   Section        0  hw_lcd.o(.text.DL_SPI_isBusy)
    __arm_cp.2_0                             0x00000e4c   Number         4  hw_lcd.o(.text.DL_SPI_isBusy)
    DL_SPI_reset                             0x00000e51   Thumb Code    16  ti_msp_dl_config.o(.text.DL_SPI_reset)
    [Anonymous Symbol]                       0x00000e50   Section        0  ti_msp_dl_config.o(.text.DL_SPI_reset)
    __arm_cp.13_0                            0x00000e60   Number         4  ti_msp_dl_config.o(.text.DL_SPI_reset)
    __arm_cp.13_1                            0x00000e64   Number         4  ti_msp_dl_config.o(.text.DL_SPI_reset)
    DL_SPI_setBitRateSerialClockDivider      0x00000e69   Thumb Code    28  ti_msp_dl_config.o(.text.DL_SPI_setBitRateSerialClockDivider)
    [Anonymous Symbol]                       0x00000e68   Section        0  ti_msp_dl_config.o(.text.DL_SPI_setBitRateSerialClockDivider)
    __arm_cp.44_1                            0x00000e84   Number         4  ti_msp_dl_config.o(.text.DL_SPI_setBitRateSerialClockDivider)
    [Anonymous Symbol]                       0x00000e88   Section        0  dl_spi.o(.text.DL_SPI_setClockConfig)
    DL_SPI_setFIFOThreshold                  0x00000e9d   Thumb Code    44  ti_msp_dl_config.o(.text.DL_SPI_setFIFOThreshold)
    [Anonymous Symbol]                       0x00000e9c   Section        0  ti_msp_dl_config.o(.text.DL_SPI_setFIFOThreshold)
    __arm_cp.45_0                            0x00000ec8   Number         4  ti_msp_dl_config.o(.text.DL_SPI_setFIFOThreshold)
    DL_SPI_transmitData8                     0x00000ecd   Thumb Code    22  hw_lcd.o(.text.DL_SPI_transmitData8)
    [Anonymous Symbol]                       0x00000ecc   Section        0  hw_lcd.o(.text.DL_SPI_transmitData8)
    [Anonymous Symbol]                       0x00000ee4   Section        0  dl_sysctl_mspm0g1x0x_g3x0x.o(.text.DL_SYSCTL_configSYSPLL)
    __arm_cp.0_2                             0x00000f98   Number         4  dl_sysctl_mspm0g1x0x_g3x0x.o(.text.DL_SYSCTL_configSYSPLL)
    __arm_cp.0_3                             0x00000f9c   Number         4  dl_sysctl_mspm0g1x0x_g3x0x.o(.text.DL_SYSCTL_configSYSPLL)
    __arm_cp.0_4                             0x00000fa0   Number         4  dl_sysctl_mspm0g1x0x_g3x0x.o(.text.DL_SYSCTL_configSYSPLL)
    DL_SYSCTL_disableHFXT                    0x00000fa5   Thumb Code    12  ti_msp_dl_config.o(.text.DL_SYSCTL_disableHFXT)
    [Anonymous Symbol]                       0x00000fa4   Section        0  ti_msp_dl_config.o(.text.DL_SYSCTL_disableHFXT)
    DL_SYSCTL_disableSYSPLL                  0x00000fb1   Thumb Code    16  ti_msp_dl_config.o(.text.DL_SYSCTL_disableSYSPLL)
    [Anonymous Symbol]                       0x00000fb0   Section        0  ti_msp_dl_config.o(.text.DL_SYSCTL_disableSYSPLL)
    __arm_cp.33_0                            0x00000fc0   Number         4  ti_msp_dl_config.o(.text.DL_SYSCTL_disableSYSPLL)
    DL_SYSCTL_setBORThreshold                0x00000fc5   Thumb Code    20  ti_msp_dl_config.o(.text.DL_SYSCTL_setBORThreshold)
    [Anonymous Symbol]                       0x00000fc4   Section        0  ti_msp_dl_config.o(.text.DL_SYSCTL_setBORThreshold)
    __arm_cp.29_0                            0x00000fd8   Number         4  ti_msp_dl_config.o(.text.DL_SYSCTL_setBORThreshold)
    DL_SYSCTL_setFlashWaitState              0x00000fdd   Thumb Code    28  ti_msp_dl_config.o(.text.DL_SYSCTL_setFlashWaitState)
    [Anonymous Symbol]                       0x00000fdc   Section        0  ti_msp_dl_config.o(.text.DL_SYSCTL_setFlashWaitState)
    [Anonymous Symbol]                       0x00000ff8   Section        0  dl_sysctl_mspm0g1x0x_g3x0x.o(.text.DL_SYSCTL_setHFCLKSourceHFXTParams)
    __arm_cp.7_0                             0x00001044   Number         4  dl_sysctl_mspm0g1x0x_g3x0x.o(.text.DL_SYSCTL_setHFCLKSourceHFXTParams)
    DL_SYSCTL_setSYSOSCFreq                  0x00001049   Thumb Code    24  ti_msp_dl_config.o(.text.DL_SYSCTL_setSYSOSCFreq)
    [Anonymous Symbol]                       0x00001048   Section        0  ti_msp_dl_config.o(.text.DL_SYSCTL_setSYSOSCFreq)
    __arm_cp.31_0                            0x00001060   Number         4  ti_msp_dl_config.o(.text.DL_SYSCTL_setSYSOSCFreq)
    DL_SYSCTL_setULPCLKDivider               0x00001065   Thumb Code    24  ti_msp_dl_config.o(.text.DL_SYSCTL_setULPCLKDivider)
    [Anonymous Symbol]                       0x00001064   Section        0  ti_msp_dl_config.o(.text.DL_SYSCTL_setULPCLKDivider)
    [Anonymous Symbol]                       0x0000107c   Section        0  dl_sysctl_mspm0g1x0x_g3x0x.o(.text.DL_SYSCTL_switchMCLKfromSYSOSCtoHSCLK)
    __arm_cp.4_0                             0x0000109c   Number         4  dl_sysctl_mspm0g1x0x_g3x0x.o(.text.DL_SYSCTL_switchMCLKfromSYSOSCtoHSCLK)
    __arm_cp.4_1                             0x000010a0   Number         4  dl_sysctl_mspm0g1x0x_g3x0x.o(.text.DL_SYSCTL_switchMCLKfromSYSOSCtoHSCLK)
    DL_Timer_enableClock                     0x000010a5   Thumb Code    16  ti_msp_dl_config.o(.text.DL_Timer_enableClock)
    [Anonymous Symbol]                       0x000010a4   Section        0  ti_msp_dl_config.o(.text.DL_Timer_enableClock)
    __arm_cp.37_0                            0x000010b4   Number         4  ti_msp_dl_config.o(.text.DL_Timer_enableClock)
    DL_Timer_enableInterrupt                 0x000010b9   Thumb Code    24  ti_msp_dl_config.o(.text.DL_Timer_enableInterrupt)
    [Anonymous Symbol]                       0x000010b8   Section        0  ti_msp_dl_config.o(.text.DL_Timer_enableInterrupt)
    DL_Timer_enablePower                     0x000010d1   Thumb Code    20  ti_msp_dl_config.o(.text.DL_Timer_enablePower)
    [Anonymous Symbol]                       0x000010d0   Section        0  ti_msp_dl_config.o(.text.DL_Timer_enablePower)
    __arm_cp.15_0                            0x000010e4   Number         4  ti_msp_dl_config.o(.text.DL_Timer_enablePower)
    DL_Timer_getPendingInterrupt             0x000010e9   Thumb Code    18  mid_timer.o(.text.DL_Timer_getPendingInterrupt)
    [Anonymous Symbol]                       0x000010e8   Section        0  mid_timer.o(.text.DL_Timer_getPendingInterrupt)
    [Anonymous Symbol]                       0x000010fc   Section        0  dl_timer.o(.text.DL_Timer_initFourCCPWMMode)
    __arm_cp.40_1                            0x000011f0   Number         4  dl_timer.o(.text.DL_Timer_initFourCCPWMMode)
    __arm_cp.40_2                            0x000011f4   Number         4  dl_timer.o(.text.DL_Timer_initFourCCPWMMode)
    __arm_cp.40_4                            0x000011f8   Number         4  dl_timer.o(.text.DL_Timer_initFourCCPWMMode)
    __arm_cp.40_5                            0x000011fc   Number         4  dl_timer.o(.text.DL_Timer_initFourCCPWMMode)
    __arm_cp.40_6                            0x00001200   Number         4  dl_timer.o(.text.DL_Timer_initFourCCPWMMode)
    [Anonymous Symbol]                       0x00001204   Section        0  dl_timer.o(.text.DL_Timer_initTimerMode)
    __arm_cp.2_0                             0x000012e4   Number         4  dl_timer.o(.text.DL_Timer_initTimerMode)
    __arm_cp.2_2                             0x000012e8   Number         4  dl_timer.o(.text.DL_Timer_initTimerMode)
    __arm_cp.2_3                             0x000012ec   Number         4  dl_timer.o(.text.DL_Timer_initTimerMode)
    DL_Timer_reset                           0x000012f1   Thumb Code    16  ti_msp_dl_config.o(.text.DL_Timer_reset)
    [Anonymous Symbol]                       0x000012f0   Section        0  ti_msp_dl_config.o(.text.DL_Timer_reset)
    DL_Timer_setCCPDirection                 0x00001301   Thumb Code    20  ti_msp_dl_config.o(.text.DL_Timer_setCCPDirection)
    [Anonymous Symbol]                       0x00001300   Section        0  ti_msp_dl_config.o(.text.DL_Timer_setCCPDirection)
    [Anonymous Symbol]                       0x00001314   Section        0  dl_timer.o(.text.DL_Timer_setCaptCompUpdateMethod)
    __arm_cp.23_0                            0x0000132c   Number         4  dl_timer.o(.text.DL_Timer_setCaptCompUpdateMethod)
    [Anonymous Symbol]                       0x00001330   Section        0  dl_timer.o(.text.DL_Timer_setCaptureCompareOutCtl)
    __arm_cp.27_0                            0x00001344   Number         4  dl_timer.o(.text.DL_Timer_setCaptureCompareOutCtl)
    [Anonymous Symbol]                       0x00001348   Section        0  dl_timer.o(.text.DL_Timer_setCaptureCompareValue)
    __arm_cp.3_0                             0x00001354   Number         4  dl_timer.o(.text.DL_Timer_setCaptureCompareValue)
    [Anonymous Symbol]                       0x00001358   Section        0  dl_timer.o(.text.DL_Timer_setClockConfig)
    __arm_cp.0_0                             0x00001370   Number         4  dl_timer.o(.text.DL_Timer_setClockConfig)
    DL_Timer_setCounterControl               0x00001375   Thumb Code    52  ti_msp_dl_config.o(.text.DL_Timer_setCounterControl)
    [Anonymous Symbol]                       0x00001374   Section        0  ti_msp_dl_config.o(.text.DL_Timer_setCounterControl)
    __arm_cp.36_0                            0x000013a8   Number         4  ti_msp_dl_config.o(.text.DL_Timer_setCounterControl)
    __arm_cp.36_1                            0x000013ac   Number         4  ti_msp_dl_config.o(.text.DL_Timer_setCounterControl)
    DL_UART_enable                           0x000013b1   Thumb Code    22  ti_msp_dl_config.o(.text.DL_UART_enable)
    [Anonymous Symbol]                       0x000013b0   Section        0  ti_msp_dl_config.o(.text.DL_UART_enable)
    DL_UART_enableInterrupt                  0x000013c9   Thumb Code    24  ti_msp_dl_config.o(.text.DL_UART_enableInterrupt)
    [Anonymous Symbol]                       0x000013c8   Section        0  ti_msp_dl_config.o(.text.DL_UART_enableInterrupt)
    __arm_cp.42_0                            0x000013e0   Number         4  ti_msp_dl_config.o(.text.DL_UART_enableInterrupt)
    DL_UART_enablePower                      0x000013e5   Thumb Code    20  ti_msp_dl_config.o(.text.DL_UART_enablePower)
    [Anonymous Symbol]                       0x000013e4   Section        0  ti_msp_dl_config.o(.text.DL_UART_enablePower)
    __arm_cp.16_0                            0x000013f8   Number         4  ti_msp_dl_config.o(.text.DL_UART_enablePower)
    DL_UART_getPendingInterrupt              0x000013fd   Thumb Code    18  mid_debug_uart.o(.text.DL_UART_getPendingInterrupt)
    [Anonymous Symbol]                       0x000013fc   Section        0  mid_debug_uart.o(.text.DL_UART_getPendingInterrupt)
    [Anonymous Symbol]                       0x00001410   Section        0  dl_uart.o(.text.DL_UART_init)
    __arm_cp.0_0                             0x00001450   Number         4  dl_uart.o(.text.DL_UART_init)
    __arm_cp.0_1                             0x00001454   Number         4  dl_uart.o(.text.DL_UART_init)
    DL_UART_receiveData                      0x00001459   Thumb Code    16  mid_debug_uart.o(.text.DL_UART_receiveData)
    [Anonymous Symbol]                       0x00001458   Section        0  mid_debug_uart.o(.text.DL_UART_receiveData)
    __arm_cp.11_0                            0x00001468   Number         4  mid_debug_uart.o(.text.DL_UART_receiveData)
    DL_UART_reset                            0x0000146d   Thumb Code    16  ti_msp_dl_config.o(.text.DL_UART_reset)
    [Anonymous Symbol]                       0x0000146c   Section        0  ti_msp_dl_config.o(.text.DL_UART_reset)
    __arm_cp.12_0                            0x0000147c   Number         4  ti_msp_dl_config.o(.text.DL_UART_reset)
    __arm_cp.12_1                            0x00001480   Number         4  ti_msp_dl_config.o(.text.DL_UART_reset)
    DL_UART_setBaudRateDivisor               0x00001485   Thumb Code    60  ti_msp_dl_config.o(.text.DL_UART_setBaudRateDivisor)
    [Anonymous Symbol]                       0x00001484   Section        0  ti_msp_dl_config.o(.text.DL_UART_setBaudRateDivisor)
    __arm_cp.41_0                            0x000014c0   Number         4  ti_msp_dl_config.o(.text.DL_UART_setBaudRateDivisor)
    __arm_cp.41_1                            0x000014c4   Number         4  ti_msp_dl_config.o(.text.DL_UART_setBaudRateDivisor)
    __arm_cp.41_2                            0x000014c8   Number         4  ti_msp_dl_config.o(.text.DL_UART_setBaudRateDivisor)
    __arm_cp.41_3                            0x000014cc   Number         4  ti_msp_dl_config.o(.text.DL_UART_setBaudRateDivisor)
    [Anonymous Symbol]                       0x000014d0   Section        0  dl_uart.o(.text.DL_UART_setClockConfig)
    DL_UART_setOversampling                  0x000014e3   Thumb Code    30  ti_msp_dl_config.o(.text.DL_UART_setOversampling)
    [Anonymous Symbol]                       0x000014e2   Section        0  ti_msp_dl_config.o(.text.DL_UART_setOversampling)
    [Anonymous Symbol]                       0x00001500   Section        0  hw_lcd.o(.text.Drawarc)
    [Anonymous Symbol]                       0x00001654   Section        0  hw_encoder.o(.text.GROUP1_IRQHandler)
    __arm_cp.7_0                             0x000016f0   Number         4  hw_encoder.o(.text.GROUP1_IRQHandler)
    __arm_cp.7_1                             0x000016f4   Number         4  hw_encoder.o(.text.GROUP1_IRQHandler)
    [Anonymous Symbol]                       0x000016f8   Section        0  hw_lcd.o(.text.LCD_Address_Set)
    [Anonymous Symbol]                       0x00001736   Section        0  hw_lcd.o(.text.LCD_ArcRect)
    [Anonymous Symbol]                       0x00001880   Section        0  hw_lcd.o(.text.LCD_DrawLine)
    [Anonymous Symbol]                       0x0000198c   Section        0  hw_lcd.o(.text.LCD_DrawPoint)
    [Anonymous Symbol]                       0x000019ac   Section        0  hw_lcd.o(.text.LCD_DrawRectangle)
    [Anonymous Symbol]                       0x000019fe   Section        0  hw_lcd.o(.text.LCD_DrawVerrticalLine)
    [Anonymous Symbol]                       0x00001a40   Section        0  hw_lcd.o(.text.LCD_Fill)
    [Anonymous Symbol]                       0x00001a9c   Section        0  hw_lcd.o(.text.LCD_ShowChar)
    __arm_cp.24_0                            0x00001c68   Number         4  hw_lcd.o(.text.LCD_ShowChar)
    __arm_cp.24_1                            0x00001c6c   Number         4  hw_lcd.o(.text.LCD_ShowChar)
    __arm_cp.24_2                            0x00001c70   Number         4  hw_lcd.o(.text.LCD_ShowChar)
    __arm_cp.24_3                            0x00001c74   Number         4  hw_lcd.o(.text.LCD_ShowChar)
    [Anonymous Symbol]                       0x00001c78   Section        0  hw_lcd.o(.text.LCD_ShowChinese)
    [Anonymous Symbol]                       0x00001da0   Section        0  hw_lcd.o(.text.LCD_ShowChinese12x12)
    __arm_cp.20_0                            0x00001f38   Number         4  hw_lcd.o(.text.LCD_ShowChinese12x12)
    [Anonymous Symbol]                       0x00001f3c   Section        0  hw_lcd.o(.text.LCD_ShowChinese16x16)
    __arm_cp.21_0                            0x000020d4   Number         4  hw_lcd.o(.text.LCD_ShowChinese16x16)
    [Anonymous Symbol]                       0x000020d8   Section        0  hw_lcd.o(.text.LCD_ShowChinese24x24)
    __arm_cp.22_0                            0x00002270   Number         4  hw_lcd.o(.text.LCD_ShowChinese24x24)
    [Anonymous Symbol]                       0x00002274   Section        0  hw_lcd.o(.text.LCD_ShowChinese32x32)
    __arm_cp.23_0                            0x0000240c   Number         4  hw_lcd.o(.text.LCD_ShowChinese32x32)
    [Anonymous Symbol]                       0x00002410   Section        0  hw_lcd.o(.text.LCD_ShowString)
    [Anonymous Symbol]                       0x00002472   Section        0  hw_lcd.o(.text.LCD_WR_DATA)
    [Anonymous Symbol]                       0x0000248e   Section        0  hw_lcd.o(.text.LCD_WR_DATA8)
    [Anonymous Symbol]                       0x000024a4   Section        0  hw_lcd.o(.text.LCD_WR_REG)
    [Anonymous Symbol]                       0x000024d0   Section        0  hw_lcd.o(.text.LCD_Writ_Bus)
    [Anonymous Symbol]                       0x000024fc   Section        0  ti_msp_dl_config.o(.text.SYSCFG_DL_GPIO_init)
    __arm_cp.2_2                             0x00002610   Number         4  ti_msp_dl_config.o(.text.SYSCFG_DL_GPIO_init)
    [Anonymous Symbol]                       0x00002614   Section        0  ti_msp_dl_config.o(.text.SYSCFG_DL_PWM_MOTOR_init)
    __arm_cp.4_0                             0x00002694   Number         4  ti_msp_dl_config.o(.text.SYSCFG_DL_PWM_MOTOR_init)
    __arm_cp.4_2                             0x00002698   Number         4  ti_msp_dl_config.o(.text.SYSCFG_DL_PWM_MOTOR_init)
    __arm_cp.4_3                             0x0000269c   Number         4  ti_msp_dl_config.o(.text.SYSCFG_DL_PWM_MOTOR_init)
    [Anonymous Symbol]                       0x000026a0   Section        0  ti_msp_dl_config.o(.text.SYSCFG_DL_SPI_LCD_init)
    __arm_cp.7_0                             0x000026d4   Number         4  ti_msp_dl_config.o(.text.SYSCFG_DL_SPI_LCD_init)
    __arm_cp.7_2                             0x000026d8   Number         4  ti_msp_dl_config.o(.text.SYSCFG_DL_SPI_LCD_init)
    [Anonymous Symbol]                       0x000026dc   Section        0  ti_msp_dl_config.o(.text.SYSCFG_DL_SYSCTL_init)
    __arm_cp.3_0                             0x0000272c   Number         4  ti_msp_dl_config.o(.text.SYSCFG_DL_SYSCTL_init)
    [Anonymous Symbol]                       0x00002730   Section        0  ti_msp_dl_config.o(.text.SYSCFG_DL_TIMER_TICK_init)
    __arm_cp.5_0                             0x00002760   Number         4  ti_msp_dl_config.o(.text.SYSCFG_DL_TIMER_TICK_init)
    __arm_cp.5_2                             0x00002764   Number         4  ti_msp_dl_config.o(.text.SYSCFG_DL_TIMER_TICK_init)
    [Anonymous Symbol]                       0x00002768   Section        0  ti_msp_dl_config.o(.text.SYSCFG_DL_UART_DEBUG_init)
    __arm_cp.6_0                             0x000027b0   Number         4  ti_msp_dl_config.o(.text.SYSCFG_DL_UART_DEBUG_init)
    __arm_cp.6_2                             0x000027b4   Number         4  ti_msp_dl_config.o(.text.SYSCFG_DL_UART_DEBUG_init)
    [Anonymous Symbol]                       0x000027b8   Section        0  ti_msp_dl_config.o(.text.SYSCFG_DL_init)
    __arm_cp.0_0                             0x000027ec   Number         4  ti_msp_dl_config.o(.text.SYSCFG_DL_init)
    __arm_cp.0_1                             0x000027f0   Number         4  ti_msp_dl_config.o(.text.SYSCFG_DL_init)
    __arm_cp.0_2                             0x000027f4   Number         4  ti_msp_dl_config.o(.text.SYSCFG_DL_init)
    [Anonymous Symbol]                       0x000027f8   Section        0  ti_msp_dl_config.o(.text.SYSCFG_DL_initPower)
    __arm_cp.1_0                             0x0000285c   Number         4  ti_msp_dl_config.o(.text.SYSCFG_DL_initPower)
    __arm_cp.1_1                             0x00002860   Number         4  ti_msp_dl_config.o(.text.SYSCFG_DL_initPower)
    __arm_cp.1_2                             0x00002864   Number         4  ti_msp_dl_config.o(.text.SYSCFG_DL_initPower)
    __arm_cp.1_5                             0x00002868   Number         4  ti_msp_dl_config.o(.text.SYSCFG_DL_initPower)
    [Anonymous Symbol]                       0x0000286c   Section        0  mid_timer.o(.text.TIMA0_IRQHandler)
    __arm_cp.6_0                             0x000028a0   Number         4  mid_timer.o(.text.TIMA0_IRQHandler)
    [Anonymous Symbol]                       0x000028a4   Section        0  mid_debug_uart.o(.text.UART0_IRQHandler)
    __arm_cp.9_0                             0x000028cc   Number         4  mid_debug_uart.o(.text.UART0_IRQHandler)
    __arm_cp.9_1                             0x000028d0   Number         4  mid_debug_uart.o(.text.UART0_IRQHandler)
    __NVIC_ClearPendingIRQ                   0x000028d5   Thumb Code    40  hw_encoder.o(.text.__NVIC_ClearPendingIRQ)
    [Anonymous Symbol]                       0x000028d4   Section        0  hw_encoder.o(.text.__NVIC_ClearPendingIRQ)
    __NVIC_ClearPendingIRQ                   0x000028fd   Thumb Code    40  mid_debug_uart.o(.text.__NVIC_ClearPendingIRQ)
    [Anonymous Symbol]                       0x000028fc   Section        0  mid_debug_uart.o(.text.__NVIC_ClearPendingIRQ)
    __NVIC_ClearPendingIRQ                   0x00002925   Thumb Code    40  mid_timer.o(.text.__NVIC_ClearPendingIRQ)
    [Anonymous Symbol]                       0x00002924   Section        0  mid_timer.o(.text.__NVIC_ClearPendingIRQ)
    __arm_cp.4_0                             0x0000294c   Number         4  mid_timer.o(.text.__NVIC_ClearPendingIRQ)
    __NVIC_EnableIRQ                         0x00002951   Thumb Code    40  hw_encoder.o(.text.__NVIC_EnableIRQ)
    [Anonymous Symbol]                       0x00002950   Section        0  hw_encoder.o(.text.__NVIC_EnableIRQ)
    __NVIC_EnableIRQ                         0x00002979   Thumb Code    40  mid_debug_uart.o(.text.__NVIC_EnableIRQ)
    [Anonymous Symbol]                       0x00002978   Section        0  mid_debug_uart.o(.text.__NVIC_EnableIRQ)
    __NVIC_EnableIRQ                         0x000029a1   Thumb Code    40  mid_timer.o(.text.__NVIC_EnableIRQ)
    [Anonymous Symbol]                       0x000029a0   Section        0  mid_timer.o(.text.__NVIC_EnableIRQ)
    __arm_cp.5_0                             0x000029c8   Number         4  mid_timer.o(.text.__NVIC_EnableIRQ)
    __NVIC_SetPriority                       0x000029cd   Thumb Code   124  ti_msp_dl_config.o(.text.__NVIC_SetPriority)
    [Anonymous Symbol]                       0x000029cc   Section        0  ti_msp_dl_config.o(.text.__NVIC_SetPriority)
    __arm_cp.35_0                            0x00002a48   Number         4  ti_msp_dl_config.o(.text.__NVIC_SetPriority)
    __arm_cp.35_1                            0x00002a4c   Number         4  ti_msp_dl_config.o(.text.__NVIC_SetPriority)
    [Anonymous Symbol]                       0x00002a50   Section        0  app_key_task.o(.text.btn_down_cb)
    [Anonymous Symbol]                       0x00002b28   Section        0  app_key_task.o(.text.btn_left_cb)
    [Anonymous Symbol]                       0x00002bac   Section        0  app_key_task.o(.text.btn_right_cb)
    __arm_cp.2_1                             0x00002d08   Number         4  app_key_task.o(.text.btn_right_cb)
    [Anonymous Symbol]                       0x00002d0c   Section        0  app_key_task.o(.text.btn_up_cb)
    __arm_cp.0_0                             0x00002de0   Number         4  app_key_task.o(.text.btn_up_cb)
    button_down_read                         0x00002de5   Thumb Code    22  mid_button.o(.text.button_down_read)
    [Anonymous Symbol]                       0x00002de4   Section        0  mid_button.o(.text.button_down_read)
    button_left_read                         0x00002dfb   Thumb Code    22  mid_button.o(.text.button_left_read)
    [Anonymous Symbol]                       0x00002dfa   Section        0  mid_button.o(.text.button_left_read)
    button_right_read                        0x00002e11   Thumb Code    22  mid_button.o(.text.button_right_read)
    [Anonymous Symbol]                       0x00002e10   Section        0  mid_button.o(.text.button_right_read)
    button_up_read                           0x00002e27   Thumb Code    22  mid_button.o(.text.button_up_read)
    [Anonymous Symbol]                       0x00002e26   Section        0  mid_button.o(.text.button_up_read)
    [Anonymous Symbol]                       0x00002e3c   Section        0  mid_debug_uart.o(.text.debug_uart_init)
    debug_uart_receive_limit_length          0x00002e55   Thumb Code    40  mid_debug_uart.o(.text.debug_uart_receive_limit_length)
    [Anonymous Symbol]                       0x00002e54   Section        0  mid_debug_uart.o(.text.debug_uart_receive_limit_length)
    __arm_cp.12_0                            0x00002e7c   Number         4  mid_debug_uart.o(.text.debug_uart_receive_limit_length)
    [Anonymous Symbol]                       0x00002e80   Section        0  mid_timer.o(.text.disable_task_interrupt)
    __arm_cp.1_0                             0x00002e88   Number         4  mid_timer.o(.text.disable_task_interrupt)
    [Anonymous Symbol]                       0x00002e8c   Section        0  app_ui.o(.text.disp_select_box)
    [Anonymous Symbol]                       0x00002f78   Section        0  app_ui.o(.text.disp_string_rect)
    [Anonymous Symbol]                       0x00002ffc   Section        0  app_ui.o(.text.disp_x_center)
    [Anonymous Symbol]                       0x0000305c   Section        0  app_distance_pid.o(.text.distance_pid_init)
    __arm_cp.0_0                             0x0000307c   Number         4  app_distance_pid.o(.text.distance_pid_init)
    __arm_cp.0_1                             0x00003080   Number         4  app_distance_pid.o(.text.distance_pid_init)
    __arm_cp.0_2                             0x00003084   Number         4  app_distance_pid.o(.text.distance_pid_init)
    __arm_cp.0_3                             0x00003088   Number         4  app_distance_pid.o(.text.distance_pid_init)
    [Anonymous Symbol]                       0x0000308c   Section        0  app_ui.o(.text.draw_distance_curve)
    __arm_cp.15_0                            0x000031b4   Number         4  app_ui.o(.text.draw_distance_curve)
    __arm_cp.15_1                            0x000031b8   Number         4  app_ui.o(.text.draw_distance_curve)
    __arm_cp.15_2                            0x000031bc   Number         4  app_ui.o(.text.draw_distance_curve)
    [Anonymous Symbol]                       0x000031c0   Section        0  app_ui.o(.text.draw_speed_curve)
    __arm_cp.14_0                            0x000032e8   Number         4  app_ui.o(.text.draw_speed_curve)
    __arm_cp.14_1                            0x000032ec   Number         4  app_ui.o(.text.draw_speed_curve)
    __arm_cp.14_2                            0x000032f0   Number         4  app_ui.o(.text.draw_speed_curve)
    __arm_cp.14_3                            0x000032f4   Number         4  app_ui.o(.text.draw_speed_curve)
    [Anonymous Symbol]                       0x000032f8   Section        0  mid_timer.o(.text.enable_task_interrupt)
    __arm_cp.0_0                             0x00003300   Number         4  mid_timer.o(.text.enable_task_interrupt)
    [Anonymous Symbol]                       0x00003304   Section        0  hw_encoder.o(.text.encoder_init)
    [Anonymous Symbol]                       0x0000331c   Section        0  hw_encoder.o(.text.encoder_update)
    __arm_cp.6_0                             0x00003334   Number         4  hw_encoder.o(.text.encoder_update)
    [Anonymous Symbol]                       0x00003338   Section        0  app_sys_mode.o(.text.event_manager)
    flex_button_process                      0x00003489   Thumb Code  1016  mid_button.o(.text.flex_button_process)
    [Anonymous Symbol]                       0x00003488   Section        0  mid_button.o(.text.flex_button_process)
    __arm_cp.9_0                             0x00003880   Number         4  mid_button.o(.text.flex_button_process)
    __arm_cp.9_1                             0x00003884   Number         4  mid_button.o(.text.flex_button_process)
    __arm_cp.9_2                             0x00003888   Number         4  mid_button.o(.text.flex_button_process)
    flex_button_read                         0x0000388d   Thumb Code   188  mid_button.o(.text.flex_button_read)
    [Anonymous Symbol]                       0x0000388c   Section        0  mid_button.o(.text.flex_button_read)
    __arm_cp.8_1                             0x00003948   Number         4  mid_button.o(.text.flex_button_read)
    __arm_cp.8_3                             0x0000394c   Number         4  mid_button.o(.text.flex_button_read)
    __arm_cp.8_4                             0x00003950   Number         4  mid_button.o(.text.flex_button_read)
    [Anonymous Symbol]                       0x00003954   Section        0  mid_button.o(.text.flex_button_register)
    __arm_cp.5_0                             0x000039ec   Number         4  mid_button.o(.text.flex_button_register)
    __arm_cp.5_1                             0x000039f0   Number         4  mid_button.o(.text.flex_button_register)
    __arm_cp.5_2                             0x000039f4   Number         4  mid_button.o(.text.flex_button_register)
    [Anonymous Symbol]                       0x000039f8   Section        0  mid_button.o(.text.flex_button_scan)
    [Anonymous Symbol]                       0x00003a04   Section        0  app_sys_mode.o(.text.get_default_page_flag)
    [Anonymous Symbol]                       0x00003a0c   Section        0  app_distance_pid.o(.text.get_distance_pid)
    [Anonymous Symbol]                       0x00003a10   Section        0  app_distance_pid.o(.text.get_distance_pid_target)
    __arm_cp.2_0                             0x00003a18   Number         4  app_distance_pid.o(.text.get_distance_pid_target)
    [Anonymous Symbol]                       0x00003a1c   Section        0  hw_encoder.o(.text.get_encoder_count)
    [Anonymous Symbol]                       0x00003a24   Section        0  app_sys_mode.o(.text.get_functional_mode)
    [Anonymous Symbol]                       0x00003a2c   Section        0  app_sys_mode.o(.text.get_long_press_state)
    [Anonymous Symbol]                       0x00003a34   Section        0  app_sys_mode.o(.text.get_motor_status_flag)
    [Anonymous Symbol]                       0x00003a3c   Section        0  app_sys_mode.o(.text.get_set_page_flag)
    [Anonymous Symbol]                       0x00003a44   Section        0  app_sys_mode.o(.text.get_show_state)
    __arm_cp.2_0                             0x00003a4c   Number         4  app_sys_mode.o(.text.get_show_state)
    [Anonymous Symbol]                       0x00003a50   Section        0  app_speed_pid.o(.text.get_speed_pid)
    [Anonymous Symbol]                       0x00003a54   Section        0  app_speed_pid.o(.text.get_speed_pid_target)
    __arm_cp.2_0                             0x00003a5c   Number         4  app_speed_pid.o(.text.get_speed_pid_target)
    [Anonymous Symbol]                       0x00003a60   Section        0  mid_timer.o(.text.get_task_status)
    __arm_cp.2_0                             0x00003a68   Number         4  mid_timer.o(.text.get_task_status)
    [Anonymous Symbol]                       0x00003a6c   Section        0  hw_encoder.o(.text.get_temp_encoder)
    __arm_cp.5_0                             0x00003a74   Number         4  hw_encoder.o(.text.get_temp_encoder)
    [Anonymous Symbol]                       0x00003a78   Section        0  hw_key.o(.text.key_scan)
    __arm_cp.0_0                             0x00003b00   Number         4  hw_key.o(.text.key_scan)
    [Anonymous Symbol]                       0x00003b04   Section        0  hw_lcd.o(.text.lcd_init)
    __arm_cp.10_0                            0x00003cc4   Number         4  hw_lcd.o(.text.lcd_init)
    __arm_cp.10_1                            0x00003cc8   Number         4  hw_lcd.o(.text.lcd_init)
    __arm_cp.10_2                            0x00003ccc   Number         4  hw_lcd.o(.text.lcd_init)
    __arm_cp.10_3                            0x00003cd0   Number         4  hw_lcd.o(.text.lcd_init)
    [Anonymous Symbol]                       0x00003cd4   Section        0  empty.o(.text.main)
    [Anonymous Symbol]                       0x00003e28   Section        0  app_distance_pid.o(.text.motor_distance_control)
    __arm_cp.3_0                             0x00003eac   Number         4  app_distance_pid.o(.text.motor_distance_control)
    __arm_cp.3_1                             0x00003eb0   Number         4  app_distance_pid.o(.text.motor_distance_control)
    [Anonymous Symbol]                       0x00003eb4   Section        0  app_speed_pid.o(.text.motor_speed_control)
    __arm_cp.3_0                             0x00003f28   Number         4  app_speed_pid.o(.text.motor_speed_control)
    __arm_cp.3_1                             0x00003f2c   Number         4  app_speed_pid.o(.text.motor_speed_control)
    [Anonymous Symbol]                       0x00003f30   Section        0  mid_pid.o(.text.pid_calc)
    [Anonymous Symbol]                       0x00004030   Section        0  mid_pid.o(.text.pid_change_zero)
    [Anonymous Symbol]                       0x00004046   Section        0  mid_pid.o(.text.pid_init)
    restrict_pwm_max_value                   0x00004081   Thumb Code    28  hw_motor.o(.text.restrict_pwm_max_value)
    [Anonymous Symbol]                       0x00004080   Section        0  hw_motor.o(.text.restrict_pwm_max_value)
    __arm_cp.1_0                             0x0000409c   Number         4  hw_motor.o(.text.restrict_pwm_max_value)
    __arm_cp.1_1                             0x000040a0   Number         4  hw_motor.o(.text.restrict_pwm_max_value)
    set_bi                                   0x000040a5   Thumb Code    24  hw_motor.o(.text.set_bi)
    [Anonymous Symbol]                       0x000040a4   Section        0  hw_motor.o(.text.set_bi)
    [Anonymous Symbol]                       0x000040bc   Section        0  app_distance_pid.o(.text.set_distance_pid_parameter)
    __arm_cp.4_0                             0x00004280   Number         4  app_distance_pid.o(.text.set_distance_pid_parameter)
    __arm_cp.4_1                             0x00004284   Number         4  app_distance_pid.o(.text.set_distance_pid_parameter)
    set_fi                                   0x00004289   Thumb Code    24  hw_motor.o(.text.set_fi)
    [Anonymous Symbol]                       0x00004288   Section        0  hw_motor.o(.text.set_fi)
    __arm_cp.2_0                             0x000042a0   Number         4  hw_motor.o(.text.set_fi)
    [Anonymous Symbol]                       0x000042a4   Section        0  hw_motor.o(.text.set_motor)
    [Anonymous Symbol]                       0x000042d4   Section        0  app_sys_mode.o(.text.set_motor_status_flag)
    [Anonymous Symbol]                       0x000042e4   Section        0  app_speed_pid.o(.text.set_speed_pid_parameter)
    __arm_cp.4_0                             0x000044c4   Number         4  app_speed_pid.o(.text.set_speed_pid_parameter)
    __arm_cp.4_1                             0x000044c8   Number         4  app_speed_pid.o(.text.set_speed_pid_parameter)
    __arm_cp.4_2                             0x000044cc   Number         4  app_speed_pid.o(.text.set_speed_pid_parameter)
    [Anonymous Symbol]                       0x000044d0   Section        0  app_speed_pid.o(.text.speed_pid_init)
    __arm_cp.0_0                             0x000044f0   Number         4  app_speed_pid.o(.text.speed_pid_init)
    __arm_cp.0_1                             0x000044f4   Number         4  app_speed_pid.o(.text.speed_pid_init)
    __arm_cp.0_2                             0x000044f8   Number         4  app_speed_pid.o(.text.speed_pid_init)
    __arm_cp.0_3                             0x000044fc   Number         4  app_speed_pid.o(.text.speed_pid_init)
    __arm_cp.0_4                             0x00004500   Number         4  app_speed_pid.o(.text.speed_pid_init)
    [Anonymous Symbol]                       0x00004504   Section        0  hw_lcd.o(.text.spi_write_bus)
    __arm_cp.0_0                             0x0000452c   Number         4  hw_lcd.o(.text.spi_write_bus)
    [Anonymous Symbol]                       0x00004530   Section        0  hw_motor.o(.text.stop_motor)
    [Anonymous Symbol]                       0x0000453c   Section        0  app_sys_mode.o(.text.sys_event_init)
    __arm_cp.0_0                             0x00004548   Number         4  app_sys_mode.o(.text.sys_event_init)
    [Anonymous Symbol]                       0x0000454c   Section        0  mid_timer.o(.text.timer_init)
    [Anonymous Symbol]                       0x00004564   Section        0  app_ui.o(.text.ui_distance_curve)
    __arm_cp.17_0                            0x00004634   Number         4  app_ui.o(.text.ui_distance_curve)
    __arm_cp.17_1                            0x00004638   Number         4  app_ui.o(.text.ui_distance_curve)
    __arm_cp.17_2                            0x0000463c   Number         4  app_ui.o(.text.ui_distance_curve)
    __arm_cp.17_3                            0x00004640   Number         4  app_ui.o(.text.ui_distance_curve)
    [Anonymous Symbol]                       0x00004644   Section        0  app_ui.o(.text.ui_distance_page)
    __arm_cp.11_0                            0x00004790   Number         4  app_ui.o(.text.ui_distance_page)
    __arm_cp.11_2                            0x00004794   Number         4  app_ui.o(.text.ui_distance_page)
    __arm_cp.11_3                            0x00004798   Number         4  app_ui.o(.text.ui_distance_page)
    [Anonymous Symbol]                       0x0000479c   Section        0  app_ui.o(.text.ui_distance_page_value_set)
    __arm_cp.12_0                            0x000049e0   Number         4  app_ui.o(.text.ui_distance_page_value_set)
    __arm_cp.12_1                            0x000049e4   Number         4  app_ui.o(.text.ui_distance_page_value_set)
    __arm_cp.12_2                            0x000049e8   Number         4  app_ui.o(.text.ui_distance_page_value_set)
    __arm_cp.12_3                            0x000049ec   Number         4  app_ui.o(.text.ui_distance_page_value_set)
    __arm_cp.12_4                            0x000049f0   Number         4  app_ui.o(.text.ui_distance_page_value_set)
    __arm_cp.12_5                            0x000049f4   Number         4  app_ui.o(.text.ui_distance_page_value_set)
    __arm_cp.12_6                            0x000049f8   Number         4  app_ui.o(.text.ui_distance_page_value_set)
    __arm_cp.12_7                            0x000049fc   Number         4  app_ui.o(.text.ui_distance_page_value_set)
    __arm_cp.12_8                            0x00004a00   Number         4  app_ui.o(.text.ui_distance_page_value_set)
    [Anonymous Symbol]                       0x00004a04   Section        0  app_ui.o(.text.ui_home_page)
    __arm_cp.3_0                             0x00004af0   Number         4  app_ui.o(.text.ui_home_page)
    __arm_cp.3_1                             0x00004af4   Number         4  app_ui.o(.text.ui_home_page)
    __arm_cp.3_2                             0x00004af8   Number         4  app_ui.o(.text.ui_home_page)
    __arm_cp.3_3                             0x00004afc   Number         4  app_ui.o(.text.ui_home_page)
    __arm_cp.3_4                             0x00004b00   Number         4  app_ui.o(.text.ui_home_page)
    [Anonymous Symbol]                       0x00004b04   Section        0  app_ui.o(.text.ui_home_page_select)
    __arm_cp.6_0                             0x00004ba4   Number         4  app_ui.o(.text.ui_home_page_select)
    [Anonymous Symbol]                       0x00004ba8   Section        0  app_ui.o(.text.ui_parameter_select_box_bold)
    __arm_cp.10_0                            0x00004cd4   Number         4  app_ui.o(.text.ui_parameter_select_box_bold)
    [Anonymous Symbol]                       0x00004cd8   Section        0  app_ui.o(.text.ui_select_page_show)
    [Anonymous Symbol]                       0x00004d14   Section        0  app_ui.o(.text.ui_speed_curve)
    __arm_cp.16_0                            0x00004dc8   Number         4  app_ui.o(.text.ui_speed_curve)
    __arm_cp.16_1                            0x00004dcc   Number         4  app_ui.o(.text.ui_speed_curve)
    __arm_cp.16_2                            0x00004dd0   Number         4  app_ui.o(.text.ui_speed_curve)
    [Anonymous Symbol]                       0x00004dd4   Section        0  empty.o(.text.ui_speed_or_distance_page_value_set_quick)
    __arm_cp.0_0                             0x00004e74   Number         4  empty.o(.text.ui_speed_or_distance_page_value_set_quick)
    [Anonymous Symbol]                       0x00004e78   Section        0  app_ui.o(.text.ui_speed_page)
    __arm_cp.7_0                             0x00004fc4   Number         4  app_ui.o(.text.ui_speed_page)
    __arm_cp.7_1                             0x00004fc8   Number         4  app_ui.o(.text.ui_speed_page)
    __arm_cp.7_2                             0x00004fcc   Number         4  app_ui.o(.text.ui_speed_page)
    __arm_cp.7_3                             0x00004fd0   Number         4  app_ui.o(.text.ui_speed_page)
    [Anonymous Symbol]                       0x00004fd4   Section        0  app_ui.o(.text.ui_speed_page_select_box)
    __arm_cp.9_0                             0x000051cc   Number         4  app_ui.o(.text.ui_speed_page_select_box)
    [Anonymous Symbol]                       0x000051d0   Section        0  app_ui.o(.text.ui_speed_page_value_set)
    __arm_cp.8_0                             0x00005414   Number         4  app_ui.o(.text.ui_speed_page_value_set)
    __arm_cp.8_1                             0x00005418   Number         4  app_ui.o(.text.ui_speed_page_value_set)
    __arm_cp.8_2                             0x0000541c   Number         4  app_ui.o(.text.ui_speed_page_value_set)
    __arm_cp.8_3                             0x00005420   Number         4  app_ui.o(.text.ui_speed_page_value_set)
    __arm_cp.8_4                             0x00005424   Number         4  app_ui.o(.text.ui_speed_page_value_set)
    __arm_cp.8_5                             0x00005428   Number         4  app_ui.o(.text.ui_speed_page_value_set)
    __arm_cp.8_6                             0x0000542c   Number         4  app_ui.o(.text.ui_speed_page_value_set)
    __arm_cp.8_7                             0x00005430   Number         4  app_ui.o(.text.ui_speed_page_value_set)
    __arm_cp.8_8                             0x00005434   Number         4  app_ui.o(.text.ui_speed_page_value_set)
    [Anonymous Symbol]                       0x00005438   Section        0  mid_button.o(.text.user_button_init)
    __arm_cp.0_0                             0x000054d0   Number         4  mid_button.o(.text.user_button_init)
    __arm_cp.0_1                             0x000054d4   Number         4  mid_button.o(.text.user_button_init)
    __arm_cp.0_2                             0x000054d8   Number         4  mid_button.o(.text.user_button_init)
    __arm_cp.0_3                             0x000054dc   Number         4  mid_button.o(.text.user_button_init)
    __arm_cp.0_4                             0x000054e0   Number         4  mid_button.o(.text.user_button_init)
    __arm_cp.0_5                             0x000054e4   Number         4  mid_button.o(.text.user_button_init)
    __arm_cp.0_6                             0x000054e8   Number         4  mid_button.o(.text.user_button_init)
    __arm_cp.0_7                             0x000054ec   Number         4  mid_button.o(.text.user_button_init)
    __arm_cp.0_8                             0x000054f0   Number         4  mid_button.o(.text.user_button_init)
    i.__0sprintf                             0x000054f4   Section        0  printfa.o(i.__0sprintf)
    i.__ARM_clz                              0x0000551c   Section        0  depilogue.o(i.__ARM_clz)
    i.__scatterload_copy                     0x00005550   Section       14  handlers.o(i.__scatterload_copy)
    i.__scatterload_null                     0x00005560   Section        2  handlers.o(i.__scatterload_null)
    i.__scatterload_zeroinit                 0x00005568   Section       14  handlers.o(i.__scatterload_zeroinit)
    i.__set_errno                            0x00005578   Section        0  errno.o(i.__set_errno)
    _fp_digits                               0x00005585   Thumb Code   344  printfa.o(i._fp_digits)
    i._fp_digits                             0x00005584   Section        0  printfa.o(i._fp_digits)
    _printf_core                             0x000056f9   Thumb Code  1754  printfa.o(i._printf_core)
    i._printf_core                           0x000056f8   Section        0  printfa.o(i._printf_core)
    _printf_post_padding                     0x00005de5   Thumb Code    32  printfa.o(i._printf_post_padding)
    i._printf_post_padding                   0x00005de4   Section        0  printfa.o(i._printf_post_padding)
    _printf_pre_padding                      0x00005e05   Thumb Code    44  printfa.o(i._printf_pre_padding)
    i._printf_pre_padding                    0x00005e04   Section        0  printfa.o(i._printf_pre_padding)
    _sputc                                   0x00005e31   Thumb Code    10  printfa.o(i._sputc)
    i._sputc                                 0x00005e30   Section        0  printfa.o(i._sputc)
    i.sqrt                                   0x00005e3c   Section        0  sqrt.o(i.sqrt)
    gPWM_MOTORClockConfig                    0x00009278   Data           3  ti_msp_dl_config.o(.rodata.gPWM_MOTORClockConfig)
    [Anonymous Symbol]                       0x00009278   Section        0  ti_msp_dl_config.o(.rodata.gPWM_MOTORClockConfig)
    gPWM_MOTORConfig                         0x0000927c   Data           8  ti_msp_dl_config.o(.rodata.gPWM_MOTORConfig)
    [Anonymous Symbol]                       0x0000927c   Section        0  ti_msp_dl_config.o(.rodata.gPWM_MOTORConfig)
    gSPI_LCD_clockConfig                     0x00009284   Data           2  ti_msp_dl_config.o(.rodata.gSPI_LCD_clockConfig)
    [Anonymous Symbol]                       0x00009284   Section        0  ti_msp_dl_config.o(.rodata.gSPI_LCD_clockConfig)
    gSPI_LCD_config                          0x00009286   Data          10  ti_msp_dl_config.o(.rodata.gSPI_LCD_config)
    [Anonymous Symbol]                       0x00009286   Section        0  ti_msp_dl_config.o(.rodata.gSPI_LCD_config)
    gSYSPLLConfig                            0x00009290   Data          40  ti_msp_dl_config.o(.rodata.gSYSPLLConfig)
    [Anonymous Symbol]                       0x00009290   Section        0  ti_msp_dl_config.o(.rodata.gSYSPLLConfig)
    gTIMER_TICKClockConfig                   0x000092b8   Data           3  ti_msp_dl_config.o(.rodata.gTIMER_TICKClockConfig)
    [Anonymous Symbol]                       0x000092b8   Section        0  ti_msp_dl_config.o(.rodata.gTIMER_TICKClockConfig)
    gTIMER_TICKTimerConfig                   0x000092bc   Data          20  ti_msp_dl_config.o(.rodata.gTIMER_TICKTimerConfig)
    [Anonymous Symbol]                       0x000092bc   Section        0  ti_msp_dl_config.o(.rodata.gTIMER_TICKTimerConfig)
    gUART_DEBUGClockConfig                   0x000092d0   Data           2  ti_msp_dl_config.o(.rodata.gUART_DEBUGClockConfig)
    [Anonymous Symbol]                       0x000092d0   Section        0  ti_msp_dl_config.o(.rodata.gUART_DEBUGClockConfig)
    gUART_DEBUGConfig                        0x000092d2   Data          10  ti_msp_dl_config.o(.rodata.gUART_DEBUGConfig)
    [Anonymous Symbol]                       0x000092d2   Section        0  ti_msp_dl_config.o(.rodata.gUART_DEBUGConfig)
    [Anonymous Symbol]                       0x000092dc   Section        0  app_ui.o(.rodata.str1.1)
    _errno                                   0x20200000   Data           4  errno.o(.data)
    .data                                    0x20200000   Section        4  errno.o(.data)
    draw_distance_curve.firstPoint           0x20200004   Data           1  app_ui.o(.data.draw_distance_curve.firstPoint)
    [Anonymous Symbol]                       0x20200004   Section        0  app_ui.o(.data.draw_distance_curve.firstPoint)
    draw_speed_curve.firstPoint              0x20200005   Data           1  app_ui.o(.data.draw_speed_curve.firstPoint)
    [Anonymous Symbol]                       0x20200005   Section        0  app_ui.o(.data.draw_speed_curve.firstPoint)
    key_rst_data                             0x20200006   Data           2  mid_button.o(.data.key_rst_data)
    [Anonymous Symbol]                       0x20200006   Section        0  mid_button.o(.data.key_rst_data)
    keydata                                  0x20200008   Data           2  mid_button.o(.data.keydata)
    [Anonymous Symbol]                       0x20200008   Section        0  mid_button.o(.data.keydata)
    tack_enable_flag                         0x2020000a   Data           1  mid_timer.o(.data.tack_enable_flag)
    [Anonymous Symbol]                       0x2020000a   Section        0  mid_timer.o(.data.tack_enable_flag)
    btn_head                                 0x20200010   Data           4  mid_button.o(.bss.btn_head)
    [Anonymous Symbol]                       0x20200010   Section        0  mid_button.o(.bss.btn_head)
    button_cnt                               0x20200014   Data           1  mid_button.o(.bss.button_cnt)
    [Anonymous Symbol]                       0x20200014   Section        0  mid_button.o(.bss.button_cnt)
    cont                                     0x20200016   Data           2  mid_button.o(.bss.cont)
    [Anonymous Symbol]                       0x20200016   Section        0  mid_button.o(.bss.cont)
    draw_distance_curve.lastX                0x202000cc   Data           2  app_ui.o(.bss.draw_distance_curve.lastX)
    [Anonymous Symbol]                       0x202000cc   Section        0  app_ui.o(.bss.draw_distance_curve.lastX)
    draw_distance_curve.lastY                0x202000ce   Data           2  app_ui.o(.bss.draw_distance_curve.lastY)
    [Anonymous Symbol]                       0x202000ce   Section        0  app_ui.o(.bss.draw_distance_curve.lastY)
    draw_speed_curve.lastX                   0x202000d0   Data           2  app_ui.o(.bss.draw_speed_curve.lastX)
    [Anonymous Symbol]                       0x202000d0   Section        0  app_ui.o(.bss.draw_speed_curve.lastX)
    draw_speed_curve.lastY                   0x202000d2   Data           2  app_ui.o(.bss.draw_speed_curve.lastY)
    [Anonymous Symbol]                       0x202000d2   Section        0  app_ui.o(.bss.draw_speed_curve.lastY)
    motor_encoder                            0x20200258   Data          16  hw_encoder.o(.bss.motor_encoder)
    [Anonymous Symbol]                       0x20200258   Section        0  hw_encoder.o(.bss.motor_encoder)
    trg                                      0x202002a8   Data           2  mid_button.o(.bss.trg)
    [Anonymous Symbol]                       0x202002a8   Section        0  mid_button.o(.bss.trg)
    ui_distance_page_value_set.last_d        0x202002ac   Data           4  app_ui.o(.bss.ui_distance_page_value_set.last_d)
    [Anonymous Symbol]                       0x202002ac   Section        0  app_ui.o(.bss.ui_distance_page_value_set.last_d)
    ui_distance_page_value_set.last_distance 0x202002b0   Data           4  app_ui.o(.bss.ui_distance_page_value_set.last_distance)
    [Anonymous Symbol]                       0x202002b0   Section        0  app_ui.o(.bss.ui_distance_page_value_set.last_distance)
    ui_distance_page_value_set.last_i        0x202002b4   Data           4  app_ui.o(.bss.ui_distance_page_value_set.last_i)
    [Anonymous Symbol]                       0x202002b4   Section        0  app_ui.o(.bss.ui_distance_page_value_set.last_i)
    ui_distance_page_value_set.last_p        0x202002b8   Data           4  app_ui.o(.bss.ui_distance_page_value_set.last_p)
    [Anonymous Symbol]                       0x202002b8   Section        0  app_ui.o(.bss.ui_distance_page_value_set.last_p)
    ui_distance_page_value_set.last_target   0x202002bc   Data           4  app_ui.o(.bss.ui_distance_page_value_set.last_target)
    [Anonymous Symbol]                       0x202002bc   Section        0  app_ui.o(.bss.ui_distance_page_value_set.last_target)
    ui_speed_page_value_set.last_d           0x202002c0   Data           4  app_ui.o(.bss.ui_speed_page_value_set.last_d)
    [Anonymous Symbol]                       0x202002c0   Section        0  app_ui.o(.bss.ui_speed_page_value_set.last_d)
    ui_speed_page_value_set.last_i           0x202002c4   Data           4  app_ui.o(.bss.ui_speed_page_value_set.last_i)
    [Anonymous Symbol]                       0x202002c4   Section        0  app_ui.o(.bss.ui_speed_page_value_set.last_i)
    ui_speed_page_value_set.last_p           0x202002c8   Data           4  app_ui.o(.bss.ui_speed_page_value_set.last_p)
    [Anonymous Symbol]                       0x202002c8   Section        0  app_ui.o(.bss.ui_speed_page_value_set.last_p)
    ui_speed_page_value_set.last_speed       0x202002cc   Data           4  app_ui.o(.bss.ui_speed_page_value_set.last_speed)
    [Anonymous Symbol]                       0x202002cc   Section        0  app_ui.o(.bss.ui_speed_page_value_set.last_speed)
    ui_speed_page_value_set.last_target      0x202002d0   Data           4  app_ui.o(.bss.ui_speed_page_value_set.last_target)
    [Anonymous Symbol]                       0x202002d0   Section        0  app_ui.o(.bss.ui_speed_page_value_set.last_target)
    user_button                              0x202002d4   Data         112  mid_button.o(.bss.user_button)
    [Anonymous Symbol]                       0x202002d4   Section        0  mid_button.o(.bss.user_button)
    STACK                                    0x20200348   Section     1024  startup_mspm0g350x_uvision.o(STACK)

    Global Symbols

    Symbol Name                              Value     Ov Type        Size  Object(Section)

    BuildAttributes$$THM_ISAv3M$S$PE$A:L22$X:L11$S22$IEEE1$IW$~IW$USESV6$~STKCKD$USESV7$~SHL$OTIME$ROPI$IEEEJ$EBA8$MICROLIB$REQ8$PRES8$EABIv2 0x00000000   Number         0  anon$$obj.o ABSOLUTE
    __Vectors                                0x00000000   Data           4  startup_mspm0g350x_uvision.o(RESET)
    __cpp_initialize__aeabi_                  - Undefined Weak Reference
    __cxa_finalize                            - Undefined Weak Reference
    __decompress                              - Undefined Weak Reference
    _clock_init                               - Undefined Weak Reference
    _microlib_exit                            - Undefined Weak Reference
    __Vectors_End                            0x000000c0   Data           0  startup_mspm0g350x_uvision.o(RESET)
    __Vectors_Size                           0x000000c0   Number         0  startup_mspm0g350x_uvision.o ABSOLUTE
    __main                                   0x000000c1   Thumb Code     0  entry.o(.ARM.Collect$$$$00000000)
    _main_stk                                0x000000c1   Thumb Code     0  entry2.o(.ARM.Collect$$$$00000001)
    _main_scatterload                        0x000000c5   Thumb Code     0  entry5.o(.ARM.Collect$$$$00000004)
    __main_after_scatterload                 0x000000c9   Thumb Code     0  entry5.o(.ARM.Collect$$$$00000004)
    _main_clock                              0x000000c9   Thumb Code     0  entry7b.o(.ARM.Collect$$$$00000008)
    _main_cpp_init                           0x000000c9   Thumb Code     0  entry8b.o(.ARM.Collect$$$$0000000A)
    _main_init                               0x000000c9   Thumb Code     0  entry9a.o(.ARM.Collect$$$$0000000B)
    __rt_final_cpp                           0x000000d1   Thumb Code     0  entry10a.o(.ARM.Collect$$$$0000000D)
    __rt_final_exit                          0x000000d1   Thumb Code     0  entry11a.o(.ARM.Collect$$$$0000000F)
    Reset_Handler                            0x000000d5   Thumb Code     4  startup_mspm0g350x_uvision.o(.text)
    NMI_Handler                              0x000000d9   Thumb Code     2  startup_mspm0g350x_uvision.o(.text)
    HardFault_Handler                        0x000000db   Thumb Code     2  startup_mspm0g350x_uvision.o(.text)
    SVC_Handler                              0x000000dd   Thumb Code     2  startup_mspm0g350x_uvision.o(.text)
    PendSV_Handler                           0x000000df   Thumb Code     2  startup_mspm0g350x_uvision.o(.text)
    SysTick_Handler                          0x000000e1   Thumb Code     2  startup_mspm0g350x_uvision.o(.text)
    ADC0_IRQHandler                          0x000000e3   Thumb Code     0  startup_mspm0g350x_uvision.o(.text)
    ADC1_IRQHandler                          0x000000e3   Thumb Code     0  startup_mspm0g350x_uvision.o(.text)
    AES_IRQHandler                           0x000000e3   Thumb Code     0  startup_mspm0g350x_uvision.o(.text)
    CANFD0_IRQHandler                        0x000000e3   Thumb Code     0  startup_mspm0g350x_uvision.o(.text)
    DAC0_IRQHandler                          0x000000e3   Thumb Code     0  startup_mspm0g350x_uvision.o(.text)
    DMA_IRQHandler                           0x000000e3   Thumb Code     0  startup_mspm0g350x_uvision.o(.text)
    Default_Handler                          0x000000e3   Thumb Code     2  startup_mspm0g350x_uvision.o(.text)
    GROUP0_IRQHandler                        0x000000e3   Thumb Code     0  startup_mspm0g350x_uvision.o(.text)
    I2C0_IRQHandler                          0x000000e3   Thumb Code     0  startup_mspm0g350x_uvision.o(.text)
    I2C1_IRQHandler                          0x000000e3   Thumb Code     0  startup_mspm0g350x_uvision.o(.text)
    RTC_IRQHandler                           0x000000e3   Thumb Code     0  startup_mspm0g350x_uvision.o(.text)
    SPI0_IRQHandler                          0x000000e3   Thumb Code     0  startup_mspm0g350x_uvision.o(.text)
    SPI1_IRQHandler                          0x000000e3   Thumb Code     0  startup_mspm0g350x_uvision.o(.text)
    TIMA1_IRQHandler                         0x000000e3   Thumb Code     0  startup_mspm0g350x_uvision.o(.text)
    TIMG0_IRQHandler                         0x000000e3   Thumb Code     0  startup_mspm0g350x_uvision.o(.text)
    TIMG12_IRQHandler                        0x000000e3   Thumb Code     0  startup_mspm0g350x_uvision.o(.text)
    TIMG6_IRQHandler                         0x000000e3   Thumb Code     0  startup_mspm0g350x_uvision.o(.text)
    TIMG7_IRQHandler                         0x000000e3   Thumb Code     0  startup_mspm0g350x_uvision.o(.text)
    TIMG8_IRQHandler                         0x000000e3   Thumb Code     0  startup_mspm0g350x_uvision.o(.text)
    UART1_IRQHandler                         0x000000e3   Thumb Code     0  startup_mspm0g350x_uvision.o(.text)
    UART2_IRQHandler                         0x000000e3   Thumb Code     0  startup_mspm0g350x_uvision.o(.text)
    UART3_IRQHandler                         0x000000e3   Thumb Code     0  startup_mspm0g350x_uvision.o(.text)
    __aeabi_memset                           0x000000e9   Thumb Code    14  memseta.o(.text)
    __aeabi_memset4                          0x000000e9   Thumb Code     0  memseta.o(.text)
    __aeabi_memset8                          0x000000e9   Thumb Code     0  memseta.o(.text)
    __aeabi_memclr                           0x000000f7   Thumb Code     4  memseta.o(.text)
    __aeabi_memclr4                          0x000000f7   Thumb Code     0  memseta.o(.text)
    __aeabi_memclr8                          0x000000f7   Thumb Code     0  memseta.o(.text)
    _memset$wrapper                          0x000000fb   Thumb Code    18  memseta.o(.text)
    strlen                                   0x0000010d   Thumb Code    14  strlen.o(.text)
    __aeabi_fadd                             0x0000011b   Thumb Code   162  fadd.o(.text)
    __aeabi_fsub                             0x000001bd   Thumb Code     8  fadd.o(.text)
    __aeabi_frsub                            0x000001c5   Thumb Code     8  fadd.o(.text)
    __aeabi_fmul                             0x000001cd   Thumb Code   122  fmul.o(.text)
    __aeabi_fdiv                             0x00000247   Thumb Code   124  fdiv.o(.text)
    __aeabi_dadd                             0x000002c5   Thumb Code   328  dadd.o(.text)
    __aeabi_dsub                             0x0000040d   Thumb Code    12  dadd.o(.text)
    __aeabi_drsub                            0x00000419   Thumb Code    12  dadd.o(.text)
    __aeabi_ddiv                             0x00000429   Thumb Code   234  ddiv.o(.text)
    __aeabi_fcmple                           0x00000519   Thumb Code    28  fcmple.o(.text)
    __aeabi_fcmpge                           0x00000535   Thumb Code    28  fcmpge.o(.text)
    __aeabi_fcmpgt                           0x00000551   Thumb Code    28  fcmpgt.o(.text)
    __aeabi_fcmpeq                           0x0000056d   Thumb Code    28  fcmpeq.o(.text)
    __aeabi_i2f                              0x00000589   Thumb Code    22  fflti.o(.text)
    __aeabi_l2f                              0x0000059f   Thumb Code    44  ffltl.o(.text)
    __aeabi_i2d                              0x000005cd   Thumb Code    34  dflti.o(.text)
    __aeabi_ui2d                             0x000005f5   Thumb Code    24  dfltui.o(.text)
    __aeabi_f2iz                             0x00000611   Thumb Code    50  ffixi.o(.text)
    __aeabi_d2iz                             0x00000645   Thumb Code    62  dfixi.o(.text)
    __aeabi_d2uiz                            0x0000068d   Thumb Code    50  dfixui.o(.text)
    __aeabi_f2d                              0x000006c9   Thumb Code    40  f2d.o(.text)
    __aeabi_d2f                              0x000006f1   Thumb Code    56  d2f.o(.text)
    __aeabi_uidiv                            0x00000729   Thumb Code     0  uidiv_div0.o(.text)
    __aeabi_uidivmod                         0x00000729   Thumb Code    62  uidiv_div0.o(.text)
    __aeabi_uldivmod                         0x00000767   Thumb Code    96  uldiv.o(.text)
    __aeabi_llsl                             0x000007c7   Thumb Code    32  llshl.o(.text)
    _ll_shift_l                              0x000007c7   Thumb Code     0  llshl.o(.text)
    __aeabi_llsr                             0x000007e7   Thumb Code    34  llushr.o(.text)
    _ll_ushift_r                             0x000007e7   Thumb Code     0  llushr.o(.text)
    __aeabi_lasr                             0x00000809   Thumb Code    38  llsshr.o(.text)
    _ll_sshift_r                             0x00000809   Thumb Code     0  llsshr.o(.text)
    __I$use$fp                               0x0000082f   Thumb Code     0  iusefp.o(.text)
    _float_round                             0x0000082f   Thumb Code    16  fepilogue.o(.text)
    _float_epilogue                          0x0000083f   Thumb Code   114  fepilogue.o(.text)
    _double_round                            0x000008b1   Thumb Code    26  depilogue.o(.text)
    _double_epilogue                         0x000008cb   Thumb Code   164  depilogue.o(.text)
    __aeabi_dmul                             0x00000971   Thumb Code   202  dmul.o(.text)
    _dsqrt                                   0x00000a41   Thumb Code   162  dsqrt.o(.text)
    __aeabi_d2ulz                            0x00000ae5   Thumb Code    54  dfixul.o(.text)
    __aeabi_cdrcmple                         0x00000b25   Thumb Code    38  cdrcmple.o(.text)
    __scatterload                            0x00000b51   Thumb Code    38  init.o(.text)
    __scatterload_rt2                        0x00000b51   Thumb Code     0  init.o(.text)
    DL_Common_delayCycles                    0x00000b81   Thumb Code    10  dl_common.o(.text.DL_Common_delayCycles)
    DL_SPI_init                              0x00000df5   Thumb Code    68  dl_spi.o(.text.DL_SPI_init)
    DL_SPI_setClockConfig                    0x00000e89   Thumb Code    18  dl_spi.o(.text.DL_SPI_setClockConfig)
    DL_SYSCTL_configSYSPLL                   0x00000ee5   Thumb Code   192  dl_sysctl_mspm0g1x0x_g3x0x.o(.text.DL_SYSCTL_configSYSPLL)
    DL_SYSCTL_setHFCLKSourceHFXTParams       0x00000ff9   Thumb Code    80  dl_sysctl_mspm0g1x0x_g3x0x.o(.text.DL_SYSCTL_setHFCLKSourceHFXTParams)
    DL_SYSCTL_switchMCLKfromSYSOSCtoHSCLK    0x0000107d   Thumb Code    40  dl_sysctl_mspm0g1x0x_g3x0x.o(.text.DL_SYSCTL_switchMCLKfromSYSOSCtoHSCLK)
    DL_Timer_initFourCCPWMMode               0x000010fd   Thumb Code   264  dl_timer.o(.text.DL_Timer_initFourCCPWMMode)
    DL_Timer_initTimerMode                   0x00001205   Thumb Code   236  dl_timer.o(.text.DL_Timer_initTimerMode)
    DL_Timer_setCaptCompUpdateMethod         0x00001315   Thumb Code    28  dl_timer.o(.text.DL_Timer_setCaptCompUpdateMethod)
    DL_Timer_setCaptureCompareOutCtl         0x00001331   Thumb Code    24  dl_timer.o(.text.DL_Timer_setCaptureCompareOutCtl)
    DL_Timer_setCaptureCompareValue          0x00001349   Thumb Code    16  dl_timer.o(.text.DL_Timer_setCaptureCompareValue)
    DL_Timer_setClockConfig                  0x00001359   Thumb Code    28  dl_timer.o(.text.DL_Timer_setClockConfig)
    DL_UART_init                             0x00001411   Thumb Code    72  dl_uart.o(.text.DL_UART_init)
    DL_UART_setClockConfig                   0x000014d1   Thumb Code    18  dl_uart.o(.text.DL_UART_setClockConfig)
    Drawarc                                  0x00001501   Thumb Code   338  hw_lcd.o(.text.Drawarc)
    GROUP1_IRQHandler                        0x00001655   Thumb Code   156  hw_encoder.o(.text.GROUP1_IRQHandler)
    LCD_Address_Set                          0x000016f9   Thumb Code    62  hw_lcd.o(.text.LCD_Address_Set)
    LCD_ArcRect                              0x00001737   Thumb Code   330  hw_lcd.o(.text.LCD_ArcRect)
    LCD_DrawLine                             0x00001881   Thumb Code   268  hw_lcd.o(.text.LCD_DrawLine)
    LCD_DrawPoint                            0x0000198d   Thumb Code    32  hw_lcd.o(.text.LCD_DrawPoint)
    LCD_DrawRectangle                        0x000019ad   Thumb Code    82  hw_lcd.o(.text.LCD_DrawRectangle)
    LCD_DrawVerrticalLine                    0x000019ff   Thumb Code    66  hw_lcd.o(.text.LCD_DrawVerrticalLine)
    LCD_Fill                                 0x00001a41   Thumb Code    92  hw_lcd.o(.text.LCD_Fill)
    LCD_ShowChar                             0x00001a9d   Thumb Code   460  hw_lcd.o(.text.LCD_ShowChar)
    LCD_ShowChinese                          0x00001c79   Thumb Code   296  hw_lcd.o(.text.LCD_ShowChinese)
    LCD_ShowChinese12x12                     0x00001da1   Thumb Code   408  hw_lcd.o(.text.LCD_ShowChinese12x12)
    LCD_ShowChinese16x16                     0x00001f3d   Thumb Code   408  hw_lcd.o(.text.LCD_ShowChinese16x16)
    LCD_ShowChinese24x24                     0x000020d9   Thumb Code   408  hw_lcd.o(.text.LCD_ShowChinese24x24)
    LCD_ShowChinese32x32                     0x00002275   Thumb Code   408  hw_lcd.o(.text.LCD_ShowChinese32x32)
    LCD_ShowString                           0x00002411   Thumb Code    98  hw_lcd.o(.text.LCD_ShowString)
    LCD_WR_DATA                              0x00002473   Thumb Code    28  hw_lcd.o(.text.LCD_WR_DATA)
    LCD_WR_DATA8                             0x0000248f   Thumb Code    20  hw_lcd.o(.text.LCD_WR_DATA8)
    LCD_WR_REG                               0x000024a5   Thumb Code    44  hw_lcd.o(.text.LCD_WR_REG)
    LCD_Writ_Bus                             0x000024d1   Thumb Code    44  hw_lcd.o(.text.LCD_Writ_Bus)
    SYSCFG_DL_GPIO_init                      0x000024fd   Thumb Code   276  ti_msp_dl_config.o(.text.SYSCFG_DL_GPIO_init)
    SYSCFG_DL_PWM_MOTOR_init                 0x00002615   Thumb Code   128  ti_msp_dl_config.o(.text.SYSCFG_DL_PWM_MOTOR_init)
    SYSCFG_DL_SPI_LCD_init                   0x000026a1   Thumb Code    52  ti_msp_dl_config.o(.text.SYSCFG_DL_SPI_LCD_init)
    SYSCFG_DL_SYSCTL_init                    0x000026dd   Thumb Code    80  ti_msp_dl_config.o(.text.SYSCFG_DL_SYSCTL_init)
    SYSCFG_DL_TIMER_TICK_init                0x00002731   Thumb Code    48  ti_msp_dl_config.o(.text.SYSCFG_DL_TIMER_TICK_init)
    SYSCFG_DL_UART_DEBUG_init                0x00002769   Thumb Code    72  ti_msp_dl_config.o(.text.SYSCFG_DL_UART_DEBUG_init)
    SYSCFG_DL_init                           0x000027b9   Thumb Code    52  ti_msp_dl_config.o(.text.SYSCFG_DL_init)
    SYSCFG_DL_initPower                      0x000027f9   Thumb Code   100  ti_msp_dl_config.o(.text.SYSCFG_DL_initPower)
    TIMA0_IRQHandler                         0x0000286d   Thumb Code    52  mid_timer.o(.text.TIMA0_IRQHandler)
    UART0_IRQHandler                         0x000028a5   Thumb Code    40  mid_debug_uart.o(.text.UART0_IRQHandler)
    btn_down_cb                              0x00002a51   Thumb Code   216  app_key_task.o(.text.btn_down_cb)
    btn_left_cb                              0x00002b29   Thumb Code   132  app_key_task.o(.text.btn_left_cb)
    btn_right_cb                             0x00002bad   Thumb Code   348  app_key_task.o(.text.btn_right_cb)
    btn_up_cb                                0x00002d0d   Thumb Code   212  app_key_task.o(.text.btn_up_cb)
    debug_uart_init                          0x00002e3d   Thumb Code    22  mid_debug_uart.o(.text.debug_uart_init)
    disable_task_interrupt                   0x00002e81   Thumb Code     8  mid_timer.o(.text.disable_task_interrupt)
    disp_select_box                          0x00002e8d   Thumb Code   234  app_ui.o(.text.disp_select_box)
    disp_string_rect                         0x00002f79   Thumb Code   132  app_ui.o(.text.disp_string_rect)
    disp_x_center                            0x00002ffd   Thumb Code    96  app_ui.o(.text.disp_x_center)
    distance_pid_init                        0x0000305d   Thumb Code    32  app_distance_pid.o(.text.distance_pid_init)
    draw_distance_curve                      0x0000308d   Thumb Code   296  app_ui.o(.text.draw_distance_curve)
    draw_speed_curve                         0x000031c1   Thumb Code   296  app_ui.o(.text.draw_speed_curve)
    enable_task_interrupt                    0x000032f9   Thumb Code     8  mid_timer.o(.text.enable_task_interrupt)
    encoder_init                             0x00003305   Thumb Code    22  hw_encoder.o(.text.encoder_init)
    encoder_update                           0x0000331d   Thumb Code    24  hw_encoder.o(.text.encoder_update)
    event_manager                            0x00003339   Thumb Code   334  app_sys_mode.o(.text.event_manager)
    flex_button_register                     0x00003955   Thumb Code   152  mid_button.o(.text.flex_button_register)
    flex_button_scan                         0x000039f9   Thumb Code    12  mid_button.o(.text.flex_button_scan)
    get_default_page_flag                    0x00003a05   Thumb Code     8  app_sys_mode.o(.text.get_default_page_flag)
    get_distance_pid                         0x00003a0d   Thumb Code     4  app_distance_pid.o(.text.get_distance_pid)
    get_distance_pid_target                  0x00003a11   Thumb Code     8  app_distance_pid.o(.text.get_distance_pid_target)
    get_encoder_count                        0x00003a1d   Thumb Code     8  hw_encoder.o(.text.get_encoder_count)
    get_functional_mode                      0x00003a25   Thumb Code     8  app_sys_mode.o(.text.get_functional_mode)
    get_long_press_state                     0x00003a2d   Thumb Code     8  app_sys_mode.o(.text.get_long_press_state)
    get_motor_status_flag                    0x00003a35   Thumb Code     8  app_sys_mode.o(.text.get_motor_status_flag)
    get_set_page_flag                        0x00003a3d   Thumb Code     8  app_sys_mode.o(.text.get_set_page_flag)
    get_show_state                           0x00003a45   Thumb Code     8  app_sys_mode.o(.text.get_show_state)
    get_speed_pid                            0x00003a51   Thumb Code     4  app_speed_pid.o(.text.get_speed_pid)
    get_speed_pid_target                     0x00003a55   Thumb Code     8  app_speed_pid.o(.text.get_speed_pid_target)
    get_task_status                          0x00003a61   Thumb Code     8  mid_timer.o(.text.get_task_status)
    get_temp_encoder                         0x00003a6d   Thumb Code     8  hw_encoder.o(.text.get_temp_encoder)
    key_scan                                 0x00003a79   Thumb Code   136  hw_key.o(.text.key_scan)
    lcd_init                                 0x00003b05   Thumb Code   448  hw_lcd.o(.text.lcd_init)
    main                                     0x00003cd5   Thumb Code   340  empty.o(.text.main)
    motor_distance_control                   0x00003e29   Thumb Code   132  app_distance_pid.o(.text.motor_distance_control)
    motor_speed_control                      0x00003eb5   Thumb Code   116  app_speed_pid.o(.text.motor_speed_control)
    pid_calc                                 0x00003f31   Thumb Code   256  mid_pid.o(.text.pid_calc)
    pid_change_zero                          0x00004031   Thumb Code    22  mid_pid.o(.text.pid_change_zero)
    pid_init                                 0x00004047   Thumb Code    58  mid_pid.o(.text.pid_init)
    set_distance_pid_parameter               0x000040bd   Thumb Code   452  app_distance_pid.o(.text.set_distance_pid_parameter)
    set_motor                                0x000042a5   Thumb Code    48  hw_motor.o(.text.set_motor)
    set_motor_status_flag                    0x000042d5   Thumb Code    16  app_sys_mode.o(.text.set_motor_status_flag)
    set_speed_pid_parameter                  0x000042e5   Thumb Code   480  app_speed_pid.o(.text.set_speed_pid_parameter)
    speed_pid_init                           0x000044d1   Thumb Code    32  app_speed_pid.o(.text.speed_pid_init)
    spi_write_bus                            0x00004505   Thumb Code    40  hw_lcd.o(.text.spi_write_bus)
    stop_motor                               0x00004531   Thumb Code    12  hw_motor.o(.text.stop_motor)
    sys_event_init                           0x0000453d   Thumb Code    12  app_sys_mode.o(.text.sys_event_init)
    timer_init                               0x0000454d   Thumb Code    22  mid_timer.o(.text.timer_init)
    ui_distance_curve                        0x00004565   Thumb Code   208  app_ui.o(.text.ui_distance_curve)
    ui_distance_page                         0x00004645   Thumb Code   332  app_ui.o(.text.ui_distance_page)
    ui_distance_page_value_set               0x0000479d   Thumb Code   580  app_ui.o(.text.ui_distance_page_value_set)
    ui_home_page                             0x00004a05   Thumb Code   236  app_ui.o(.text.ui_home_page)
    ui_home_page_select                      0x00004b05   Thumb Code   160  app_ui.o(.text.ui_home_page_select)
    ui_parameter_select_box_bold             0x00004ba9   Thumb Code   300  app_ui.o(.text.ui_parameter_select_box_bold)
    ui_select_page_show                      0x00004cd9   Thumb Code    60  app_ui.o(.text.ui_select_page_show)
    ui_speed_curve                           0x00004d15   Thumb Code   180  app_ui.o(.text.ui_speed_curve)
    ui_speed_or_distance_page_value_set_quick 0x00004dd5   Thumb Code   160  empty.o(.text.ui_speed_or_distance_page_value_set_quick)
    ui_speed_page                            0x00004e79   Thumb Code   332  app_ui.o(.text.ui_speed_page)
    ui_speed_page_select_box                 0x00004fd5   Thumb Code   504  app_ui.o(.text.ui_speed_page_select_box)
    ui_speed_page_value_set                  0x000051d1   Thumb Code   580  app_ui.o(.text.ui_speed_page_value_set)
    user_button_init                         0x00005439   Thumb Code   152  mid_button.o(.text.user_button_init)
    __0sprintf                               0x000054f5   Thumb Code    36  printfa.o(i.__0sprintf)
    __1sprintf                               0x000054f5   Thumb Code     0  printfa.o(i.__0sprintf)
    __2sprintf                               0x000054f5   Thumb Code     0  printfa.o(i.__0sprintf)
    __c89sprintf                             0x000054f5   Thumb Code     0  printfa.o(i.__0sprintf)
    sprintf                                  0x000054f5   Thumb Code     0  printfa.o(i.__0sprintf)
    __ARM_clz                                0x0000551d   Thumb Code    46  depilogue.o(i.__ARM_clz)
    __scatterload_copy                       0x00005551   Thumb Code    14  handlers.o(i.__scatterload_copy)
    __scatterload_null                       0x00005561   Thumb Code     2  handlers.o(i.__scatterload_null)
    __scatterload_zeroinit                   0x00005569   Thumb Code    14  handlers.o(i.__scatterload_zeroinit)
    __set_errno                              0x00005579   Thumb Code     6  errno.o(i.__set_errno)
    sqrt                                     0x00005e3d   Thumb Code    66  sqrt.o(i.sqrt)
    ascii_1206                               0x00005e84   Data        1140  hw_lcd.o(.rodata.ascii_1206)
    ascii_1608                               0x000062f8   Data        1520  hw_lcd.o(.rodata.ascii_1608)
    ascii_2412                               0x000068e8   Data        4560  hw_lcd.o(.rodata.ascii_2412)
    ascii_3216                               0x00007ab8   Data        6080  hw_lcd.o(.rodata.ascii_3216)
    tfont12                                  0x00009325   Data         130  hw_lcd.o(.rodata.tfont12)
    tfont16                                  0x000093a7   Data         374  hw_lcd.o(.rodata.tfont16)
    tfont24                                  0x0000951d   Data         222  hw_lcd.o(.rodata.tfont24)
    tfont32                                  0x000095fb   Data         130  hw_lcd.o(.rodata.tfont32)
    Region$$Table$$Base                      0x00009680   Number         0  anon$$obj.o(Region$$Table)
    Region$$Table$$Limit                     0x000096a0   Number         0  anon$$obj.o(Region$$Table)
    debug_uart                               0x20200018   Data         132  mid_debug_uart.o(.bss.debug_uart)
    distance_pid                             0x2020009c   Data          48  app_distance_pid.o(.bss.distance_pid)
    gPWM_MOTORBackup                         0x202000d4   Data         160  ti_msp_dl_config.o(.bss.gPWM_MOTORBackup)
    gSPI_LCDBackup                           0x20200174   Data          40  ti_msp_dl_config.o(.bss.gSPI_LCDBackup)
    gTIMER_TICKBackup                        0x2020019c   Data         188  ti_msp_dl_config.o(.bss.gTIMER_TICKBackup)
    speed_pid                                0x20200268   Data          48  app_speed_pid.o(.bss.speed_pid)
    system_status                            0x20200298   Data          16  app_sys_mode.o(.bss.system_status)
    __initial_sp                             0x20200748   Data           0  startup_mspm0g350x_uvision.o(STACK)



==============================================================================

Memory Map of the image

  Image Entry point : 0x000000c1

  Load Region LR_IROM1 (Base: 0x00000000, Size: 0x000096b0, Max: 0x00020000, ABSOLUTE)

    Execution Region ER_IROM1 (Exec base: 0x00000000, Load base: 0x00000000, Size: 0x000096a0, Max: 0x00020000, ABSOLUTE)

    Exec Addr    Load Addr    Size         Type   Attr      Idx    E Section Name        Object

    0x00000000   0x00000000   0x000000c0   Data   RO           15    RESET               startup_mspm0g350x_uvision.o
    0x000000c0   0x000000c0   0x00000000   Code   RO          778  * .ARM.Collect$$$$00000000  mc_p.l(entry.o)
    0x000000c0   0x000000c0   0x00000004   Code   RO          857    .ARM.Collect$$$$00000001  mc_p.l(entry2.o)
    0x000000c4   0x000000c4   0x00000004   Code   RO          860    .ARM.Collect$$$$00000004  mc_p.l(entry5.o)
    0x000000c8   0x000000c8   0x00000000   Code   RO          862    .ARM.Collect$$$$00000008  mc_p.l(entry7b.o)
    0x000000c8   0x000000c8   0x00000000   Code   RO          864    .ARM.Collect$$$$0000000A  mc_p.l(entry8b.o)
    0x000000c8   0x000000c8   0x00000008   Code   RO          865    .ARM.Collect$$$$0000000B  mc_p.l(entry9a.o)
    0x000000d0   0x000000d0   0x00000000   Code   RO          867    .ARM.Collect$$$$0000000D  mc_p.l(entry10a.o)
    0x000000d0   0x000000d0   0x00000000   Code   RO          869    .ARM.Collect$$$$0000000F  mc_p.l(entry11a.o)
    0x000000d0   0x000000d0   0x00000004   Code   RO          858    .ARM.Collect$$$$00002712  mc_p.l(entry2.o)
    0x000000d4   0x000000d4   0x00000014   Code   RO           16    .text               startup_mspm0g350x_uvision.o
    0x000000e8   0x000000e8   0x00000024   Code   RO          787    .text               mc_p.l(memseta.o)
    0x0000010c   0x0000010c   0x0000000e   Code   RO          789    .text               mc_p.l(strlen.o)
    0x0000011a   0x0000011a   0x000000b2   Code   RO          819    .text               mf_p.l(fadd.o)
    0x000001cc   0x000001cc   0x0000007a   Code   RO          821    .text               mf_p.l(fmul.o)
    0x00000246   0x00000246   0x0000007c   Code   RO          823    .text               mf_p.l(fdiv.o)
    0x000002c2   0x000002c2   0x00000002   PAD
    0x000002c4   0x000002c4   0x00000164   Code   RO          825    .text               mf_p.l(dadd.o)
    0x00000428   0x00000428   0x000000f0   Code   RO          827    .text               mf_p.l(ddiv.o)
    0x00000518   0x00000518   0x0000001c   Code   RO          829    .text               mf_p.l(fcmple.o)
    0x00000534   0x00000534   0x0000001c   Code   RO          831    .text               mf_p.l(fcmpge.o)
    0x00000550   0x00000550   0x0000001c   Code   RO          833    .text               mf_p.l(fcmpgt.o)
    0x0000056c   0x0000056c   0x0000001c   Code   RO          835    .text               mf_p.l(fcmpeq.o)
    0x00000588   0x00000588   0x00000016   Code   RO          837    .text               mf_p.l(fflti.o)
    0x0000059e   0x0000059e   0x0000002c   Code   RO          839    .text               mf_p.l(ffltl.o)
    0x000005ca   0x000005ca   0x00000002   PAD
    0x000005cc   0x000005cc   0x00000028   Code   RO          841    .text               mf_p.l(dflti.o)
    0x000005f4   0x000005f4   0x0000001c   Code   RO          843    .text               mf_p.l(dfltui.o)
    0x00000610   0x00000610   0x00000032   Code   RO          845    .text               mf_p.l(ffixi.o)
    0x00000642   0x00000642   0x00000002   PAD
    0x00000644   0x00000644   0x00000048   Code   RO          849    .text               mf_p.l(dfixi.o)
    0x0000068c   0x0000068c   0x0000003c   Code   RO          851    .text               mf_p.l(dfixui.o)
    0x000006c8   0x000006c8   0x00000028   Code   RO          853    .text               mf_p.l(f2d.o)
    0x000006f0   0x000006f0   0x00000038   Code   RO          855    .text               mf_p.l(d2f.o)
    0x00000728   0x00000728   0x0000003e   Code   RO          880    .text               mc_p.l(uidiv_div0.o)
    0x00000766   0x00000766   0x00000060   Code   RO          886    .text               mc_p.l(uldiv.o)
    0x000007c6   0x000007c6   0x00000020   Code   RO          888    .text               mc_p.l(llshl.o)
    0x000007e6   0x000007e6   0x00000022   Code   RO          890    .text               mc_p.l(llushr.o)
    0x00000808   0x00000808   0x00000026   Code   RO          892    .text               mc_p.l(llsshr.o)
    0x0000082e   0x0000082e   0x00000000   Code   RO          901    .text               mc_p.l(iusefp.o)
    0x0000082e   0x0000082e   0x00000082   Code   RO          902    .text               mf_p.l(fepilogue.o)
    0x000008b0   0x000008b0   0x000000be   Code   RO          904    .text               mf_p.l(depilogue.o)
    0x0000096e   0x0000096e   0x00000002   PAD
    0x00000970   0x00000970   0x000000d0   Code   RO          908    .text               mf_p.l(dmul.o)
    0x00000a40   0x00000a40   0x000000a2   Code   RO          910    .text               mf_p.l(dsqrt.o)
    0x00000ae2   0x00000ae2   0x00000002   PAD
    0x00000ae4   0x00000ae4   0x00000040   Code   RO          912    .text               mf_p.l(dfixul.o)
    0x00000b24   0x00000b24   0x00000028   Code   RO          914    .text               mf_p.l(cdrcmple.o)
    0x00000b4c   0x00000b4c   0x00000004   PAD
    0x00000b50   0x00000b50   0x00000030   Code   RO          916    .text               mc_p.l(init.o)
    0x00000b80   0x00000b80   0x0000000a   Code   RO          539    .text.DL_Common_delayCycles  driverlib.a(dl_common.o)
    0x00000b8a   0x00000b8a   0x00000028   Code   RO          117    .text.DL_Common_updateReg  ti_msp_dl_config.o
    0x00000bb2   0x00000bb2   0x00000002   PAD
    0x00000bb4   0x00000bb4   0x00000018   Code   RO           77    .text.DL_GPIO_clearInterruptStatus  ti_msp_dl_config.o
    0x00000bcc   0x00000bcc   0x0000001c   Code   RO          261    .text.DL_GPIO_clearInterruptStatus  hw_encoder.o
    0x00000be8   0x00000be8   0x00000014   Code   RO           73    .text.DL_GPIO_clearPins  ti_msp_dl_config.o
    0x00000bfc   0x00000bfc   0x00000014   Code   RO          146    .text.DL_GPIO_clearPins  hw_lcd.o
    0x00000c10   0x00000c10   0x00000014   Code   RO          421    .text.DL_GPIO_clearPins  app_ui.o
    0x00000c24   0x00000c24   0x0000001c   Code   RO           79    .text.DL_GPIO_enableInterrupt  ti_msp_dl_config.o
    0x00000c40   0x00000c40   0x00000018   Code   RO           63    .text.DL_GPIO_enableOutput  ti_msp_dl_config.o
    0x00000c58   0x00000c58   0x00000014   Code   RO           51    .text.DL_GPIO_enablePower  ti_msp_dl_config.o
    0x00000c6c   0x00000c6c   0x00000018   Code   RO          257    .text.DL_GPIO_getEnabledInterruptStatus  hw_encoder.o
    0x00000c84   0x00000c84   0x00000030   Code   RO           71    .text.DL_GPIO_initDigitalInputFeatures  ti_msp_dl_config.o
    0x00000cb4   0x00000cb4   0x00000014   Code   RO           69    .text.DL_GPIO_initDigitalOutput  ti_msp_dl_config.o
    0x00000cc8   0x00000cc8   0x0000002c   Code   RO           67    .text.DL_GPIO_initDigitalOutputFeatures  ti_msp_dl_config.o
    0x00000cf4   0x00000cf4   0x00000014   Code   RO           59    .text.DL_GPIO_initPeripheralAnalogFunction  ti_msp_dl_config.o
    0x00000d08   0x00000d08   0x0000001c   Code   RO           65    .text.DL_GPIO_initPeripheralInputFunction  ti_msp_dl_config.o
    0x00000d24   0x00000d24   0x0000001c   Code   RO           61    .text.DL_GPIO_initPeripheralOutputFunction  ti_msp_dl_config.o
    0x00000d40   0x00000d40   0x00000016   Code   RO          215    .text.DL_GPIO_readPins  hw_key.o
    0x00000d56   0x00000d56   0x00000016   Code   RO          259    .text.DL_GPIO_readPins  hw_encoder.o
    0x00000d6c   0x00000d6c   0x00000010   Code   RO           43    .text.DL_GPIO_reset  ti_msp_dl_config.o
    0x00000d7c   0x00000d7c   0x0000001c   Code   RO           75    .text.DL_GPIO_setLowerPinsPolarity  ti_msp_dl_config.o
    0x00000d98   0x00000d98   0x00000014   Code   RO          148    .text.DL_GPIO_setPins  hw_lcd.o
    0x00000dac   0x00000dac   0x00000018   Code   RO          423    .text.DL_GPIO_setPins  app_ui.o
    0x00000dc4   0x00000dc4   0x00000018   Code   RO          115    .text.DL_SPI_enable  ti_msp_dl_config.o
    0x00000ddc   0x00000ddc   0x00000018   Code   RO           57    .text.DL_SPI_enablePower  ti_msp_dl_config.o
    0x00000df4   0x00000df4   0x00000044   Code   RO          548    .text.DL_SPI_init   driverlib.a(dl_spi.o)
    0x00000e38   0x00000e38   0x00000018   Code   RO          142    .text.DL_SPI_isBusy  hw_lcd.o
    0x00000e50   0x00000e50   0x00000018   Code   RO           49    .text.DL_SPI_reset  ti_msp_dl_config.o
    0x00000e68   0x00000e68   0x00000020   Code   RO          111    .text.DL_SPI_setBitRateSerialClockDivider  ti_msp_dl_config.o
    0x00000e88   0x00000e88   0x00000012   Code   RO          550    .text.DL_SPI_setClockConfig  driverlib.a(dl_spi.o)
    0x00000e9a   0x00000e9a   0x00000002   PAD
    0x00000e9c   0x00000e9c   0x00000030   Code   RO          113    .text.DL_SPI_setFIFOThreshold  ti_msp_dl_config.o
    0x00000ecc   0x00000ecc   0x00000016   Code   RO          140    .text.DL_SPI_transmitData8  hw_lcd.o
    0x00000ee2   0x00000ee2   0x00000002   PAD
    0x00000ee4   0x00000ee4   0x000000c0   Code   RO          743    .text.DL_SYSCTL_configSYSPLL  driverlib.a(dl_sysctl_mspm0g1x0x_g3x0x.o)
    0x00000fa4   0x00000fa4   0x0000000c   Code   RO           87    .text.DL_SYSCTL_disableHFXT  ti_msp_dl_config.o
    0x00000fb0   0x00000fb0   0x00000014   Code   RO           89    .text.DL_SYSCTL_disableSYSPLL  ti_msp_dl_config.o
    0x00000fc4   0x00000fc4   0x00000018   Code   RO           81    .text.DL_SYSCTL_setBORThreshold  ti_msp_dl_config.o
    0x00000fdc   0x00000fdc   0x0000001c   Code   RO           83    .text.DL_SYSCTL_setFlashWaitState  ti_msp_dl_config.o
    0x00000ff8   0x00000ff8   0x00000050   Code   RO          757    .text.DL_SYSCTL_setHFCLKSourceHFXTParams  driverlib.a(dl_sysctl_mspm0g1x0x_g3x0x.o)
    0x00001048   0x00001048   0x0000001c   Code   RO           85    .text.DL_SYSCTL_setSYSOSCFreq  ti_msp_dl_config.o
    0x00001064   0x00001064   0x00000018   Code   RO           91    .text.DL_SYSCTL_setULPCLKDivider  ti_msp_dl_config.o
    0x0000107c   0x0000107c   0x00000028   Code   RO          751    .text.DL_SYSCTL_switchMCLKfromSYSOSCtoHSCLK  driverlib.a(dl_sysctl_mspm0g1x0x_g3x0x.o)
    0x000010a4   0x000010a4   0x00000014   Code   RO           97    .text.DL_Timer_enableClock  ti_msp_dl_config.o
    0x000010b8   0x000010b8   0x00000018   Code   RO          101    .text.DL_Timer_enableInterrupt  ti_msp_dl_config.o
    0x000010d0   0x000010d0   0x00000018   Code   RO           53    .text.DL_Timer_enablePower  ti_msp_dl_config.o
    0x000010e8   0x000010e8   0x00000012   Code   RO          373    .text.DL_Timer_getPendingInterrupt  mid_timer.o
    0x000010fa   0x000010fa   0x00000002   PAD
    0x000010fc   0x000010fc   0x00000108   Code   RO          682    .text.DL_Timer_initFourCCPWMMode  driverlib.a(dl_timer.o)
    0x00001204   0x00001204   0x000000ec   Code   RO          606    .text.DL_Timer_initTimerMode  driverlib.a(dl_timer.o)
    0x000012f0   0x000012f0   0x00000010   Code   RO           45    .text.DL_Timer_reset  ti_msp_dl_config.o
    0x00001300   0x00001300   0x00000014   Code   RO           99    .text.DL_Timer_setCCPDirection  ti_msp_dl_config.o
    0x00001314   0x00001314   0x0000001c   Code   RO          648    .text.DL_Timer_setCaptCompUpdateMethod  driverlib.a(dl_timer.o)
    0x00001330   0x00001330   0x00000018   Code   RO          656    .text.DL_Timer_setCaptureCompareOutCtl  driverlib.a(dl_timer.o)
    0x00001348   0x00001348   0x00000010   Code   RO          608    .text.DL_Timer_setCaptureCompareValue  driverlib.a(dl_timer.o)
    0x00001358   0x00001358   0x0000001c   Code   RO          602    .text.DL_Timer_setClockConfig  driverlib.a(dl_timer.o)
    0x00001374   0x00001374   0x0000003c   Code   RO           95    .text.DL_Timer_setCounterControl  ti_msp_dl_config.o
    0x000013b0   0x000013b0   0x00000016   Code   RO          109    .text.DL_UART_enable  ti_msp_dl_config.o
    0x000013c6   0x000013c6   0x00000002   PAD
    0x000013c8   0x000013c8   0x0000001c   Code   RO          107    .text.DL_UART_enableInterrupt  ti_msp_dl_config.o
    0x000013e4   0x000013e4   0x00000018   Code   RO           55    .text.DL_UART_enablePower  ti_msp_dl_config.o
    0x000013fc   0x000013fc   0x00000012   Code   RO          311    .text.DL_UART_getPendingInterrupt  mid_debug_uart.o
    0x0000140e   0x0000140e   0x00000002   PAD
    0x00001410   0x00001410   0x00000048   Code   RO          703    .text.DL_UART_init  driverlib.a(dl_uart.o)
    0x00001458   0x00001458   0x00000014   Code   RO          313    .text.DL_UART_receiveData  mid_debug_uart.o
    0x0000146c   0x0000146c   0x00000018   Code   RO           47    .text.DL_UART_reset  ti_msp_dl_config.o
    0x00001484   0x00001484   0x0000004c   Code   RO          105    .text.DL_UART_setBaudRateDivisor  ti_msp_dl_config.o
    0x000014d0   0x000014d0   0x00000012   Code   RO          705    .text.DL_UART_setClockConfig  driverlib.a(dl_uart.o)
    0x000014e2   0x000014e2   0x0000001e   Code   RO          103    .text.DL_UART_setOversampling  ti_msp_dl_config.o
    0x00001500   0x00001500   0x00000152   Code   RO          172    .text.Drawarc       hw_lcd.o
    0x00001652   0x00001652   0x00000002   PAD
    0x00001654   0x00001654   0x000000a4   Code   RO          255    .text.GROUP1_IRQHandler  hw_encoder.o
    0x000016f8   0x000016f8   0x0000003e   Code   RO          156    .text.LCD_Address_Set  hw_lcd.o
    0x00001736   0x00001736   0x0000014a   Code   RO          174    .text.LCD_ArcRect   hw_lcd.o
    0x00001880   0x00001880   0x0000010c   Code   RO          164    .text.LCD_DrawLine  hw_lcd.o
    0x0000198c   0x0000198c   0x00000020   Code   RO          162    .text.LCD_DrawPoint  hw_lcd.o
    0x000019ac   0x000019ac   0x00000052   Code   RO          168    .text.LCD_DrawRectangle  hw_lcd.o
    0x000019fe   0x000019fe   0x00000042   Code   RO          166    .text.LCD_DrawVerrticalLine  hw_lcd.o
    0x00001a40   0x00001a40   0x0000005c   Code   RO          160    .text.LCD_Fill      hw_lcd.o
    0x00001a9c   0x00001a9c   0x000001dc   Code   RO          186    .text.LCD_ShowChar  hw_lcd.o
    0x00001c78   0x00001c78   0x00000128   Code   RO          176    .text.LCD_ShowChinese  hw_lcd.o
    0x00001da0   0x00001da0   0x0000019c   Code   RO          178    .text.LCD_ShowChinese12x12  hw_lcd.o
    0x00001f3c   0x00001f3c   0x0000019c   Code   RO          180    .text.LCD_ShowChinese16x16  hw_lcd.o
    0x000020d8   0x000020d8   0x0000019c   Code   RO          182    .text.LCD_ShowChinese24x24  hw_lcd.o
    0x00002274   0x00002274   0x0000019c   Code   RO          184    .text.LCD_ShowChinese32x32  hw_lcd.o
    0x00002410   0x00002410   0x00000062   Code   RO          188    .text.LCD_ShowString  hw_lcd.o
    0x00002472   0x00002472   0x0000001c   Code   RO          152    .text.LCD_WR_DATA   hw_lcd.o
    0x0000248e   0x0000248e   0x00000014   Code   RO          150    .text.LCD_WR_DATA8  hw_lcd.o
    0x000024a2   0x000024a2   0x00000002   PAD
    0x000024a4   0x000024a4   0x0000002c   Code   RO          154    .text.LCD_WR_REG    hw_lcd.o
    0x000024d0   0x000024d0   0x0000002c   Code   RO          144    .text.LCD_Writ_Bus  hw_lcd.o
    0x000024fc   0x000024fc   0x00000118   Code   RO           27    .text.SYSCFG_DL_GPIO_init  ti_msp_dl_config.o
    0x00002614   0x00002614   0x0000008c   Code   RO           31    .text.SYSCFG_DL_PWM_MOTOR_init  ti_msp_dl_config.o
    0x000026a0   0x000026a0   0x0000003c   Code   RO           37    .text.SYSCFG_DL_SPI_LCD_init  ti_msp_dl_config.o
    0x000026dc   0x000026dc   0x00000054   Code   RO           29    .text.SYSCFG_DL_SYSCTL_init  ti_msp_dl_config.o
    0x00002730   0x00002730   0x00000038   Code   RO           33    .text.SYSCFG_DL_TIMER_TICK_init  ti_msp_dl_config.o
    0x00002768   0x00002768   0x00000050   Code   RO           35    .text.SYSCFG_DL_UART_DEBUG_init  ti_msp_dl_config.o
    0x000027b8   0x000027b8   0x00000040   Code   RO           23    .text.SYSCFG_DL_init  ti_msp_dl_config.o
    0x000027f8   0x000027f8   0x00000074   Code   RO           25    .text.SYSCFG_DL_initPower  ti_msp_dl_config.o
    0x0000286c   0x0000286c   0x00000038   Code   RO          371    .text.TIMA0_IRQHandler  mid_timer.o
    0x000028a4   0x000028a4   0x00000030   Code   RO          309    .text.UART0_IRQHandler  mid_debug_uart.o
    0x000028d4   0x000028d4   0x00000028   Code   RO          243    .text.__NVIC_ClearPendingIRQ  hw_encoder.o
    0x000028fc   0x000028fc   0x00000028   Code   RO          293    .text.__NVIC_ClearPendingIRQ  mid_debug_uart.o
    0x00002924   0x00002924   0x0000002c   Code   RO          367    .text.__NVIC_ClearPendingIRQ  mid_timer.o
    0x00002950   0x00002950   0x00000028   Code   RO          245    .text.__NVIC_EnableIRQ  hw_encoder.o
    0x00002978   0x00002978   0x00000028   Code   RO          295    .text.__NVIC_EnableIRQ  mid_debug_uart.o
    0x000029a0   0x000029a0   0x0000002c   Code   RO          369    .text.__NVIC_EnableIRQ  mid_timer.o
    0x000029cc   0x000029cc   0x00000084   Code   RO           93    .text.__NVIC_SetPriority  ti_msp_dl_config.o
    0x00002a50   0x00002a50   0x000000d8   Code   RO          404    .text.btn_down_cb   app_key_task.o
    0x00002b28   0x00002b28   0x00000084   Code   RO          400    .text.btn_left_cb   app_key_task.o
    0x00002bac   0x00002bac   0x00000160   Code   RO          402    .text.btn_right_cb  app_key_task.o
    0x00002d0c   0x00002d0c   0x000000d8   Code   RO          398    .text.btn_up_cb     app_key_task.o
    0x00002de4   0x00002de4   0x00000016   Code   RO          333    .text.button_down_read  mid_button.o
    0x00002dfa   0x00002dfa   0x00000016   Code   RO          329    .text.button_left_read  mid_button.o
    0x00002e10   0x00002e10   0x00000016   Code   RO          331    .text.button_right_read  mid_button.o
    0x00002e26   0x00002e26   0x00000016   Code   RO          327    .text.button_up_read  mid_button.o
    0x00002e3c   0x00002e3c   0x00000016   Code   RO          291    .text.debug_uart_init  mid_debug_uart.o
    0x00002e52   0x00002e52   0x00000002   PAD
    0x00002e54   0x00002e54   0x0000002c   Code   RO          315    .text.debug_uart_receive_limit_length  mid_debug_uart.o
    0x00002e80   0x00002e80   0x0000000c   Code   RO          361    .text.disable_task_interrupt  mid_timer.o
    0x00002e8c   0x00002e8c   0x000000ea   Code   RO          417    .text.disp_select_box  app_ui.o
    0x00002f76   0x00002f76   0x00000002   PAD
    0x00002f78   0x00002f78   0x00000084   Code   RO          415    .text.disp_string_rect  app_ui.o
    0x00002ffc   0x00002ffc   0x00000060   Code   RO          413    .text.disp_x_center  app_ui.o
    0x0000305c   0x0000305c   0x00000030   Code   RO          521    .text.distance_pid_init  app_distance_pid.o
    0x0000308c   0x0000308c   0x00000134   Code   RO          443    .text.draw_distance_curve  app_ui.o
    0x000031c0   0x000031c0   0x00000138   Code   RO          441    .text.draw_speed_curve  app_ui.o
    0x000032f8   0x000032f8   0x0000000c   Code   RO          359    .text.enable_task_interrupt  mid_timer.o
    0x00003304   0x00003304   0x00000016   Code   RO          241    .text.encoder_init  hw_encoder.o
    0x0000331a   0x0000331a   0x00000002   PAD
    0x0000331c   0x0000331c   0x0000001c   Code   RO          253    .text.encoder_update  hw_encoder.o
    0x00003338   0x00003338   0x0000014e   Code   RO          475    .text.event_manager  app_sys_mode.o
    0x00003486   0x00003486   0x00000002   PAD
    0x00003488   0x00003488   0x00000404   Code   RO          343    .text.flex_button_process  mid_button.o
    0x0000388c   0x0000388c   0x000000c8   Code   RO          341    .text.flex_button_read  mid_button.o
    0x00003954   0x00003954   0x000000a4   Code   RO          335    .text.flex_button_register  mid_button.o
    0x000039f8   0x000039f8   0x0000000c   Code   RO          339    .text.flex_button_scan  mid_button.o
    0x00003a04   0x00003a04   0x00000008   Code   RO          481    .text.get_default_page_flag  app_sys_mode.o
    0x00003a0c   0x00003a0c   0x00000004   Code   RO          523    .text.get_distance_pid  app_distance_pid.o
    0x00003a10   0x00003a10   0x0000000c   Code   RO          525    .text.get_distance_pid_target  app_distance_pid.o
    0x00003a1c   0x00003a1c   0x00000008   Code   RO          247    .text.get_encoder_count  hw_encoder.o
    0x00003a24   0x00003a24   0x00000008   Code   RO          491    .text.get_functional_mode  app_sys_mode.o
    0x00003a2c   0x00003a2c   0x00000008   Code   RO          489    .text.get_long_press_state  app_sys_mode.o
    0x00003a34   0x00003a34   0x00000008   Code   RO          487    .text.get_motor_status_flag  app_sys_mode.o
    0x00003a3c   0x00003a3c   0x00000008   Code   RO          483    .text.get_set_page_flag  app_sys_mode.o
    0x00003a44   0x00003a44   0x0000000c   Code   RO          477    .text.get_show_state  app_sys_mode.o
    0x00003a50   0x00003a50   0x00000004   Code   RO          505    .text.get_speed_pid  app_speed_pid.o
    0x00003a54   0x00003a54   0x0000000c   Code   RO          507    .text.get_speed_pid_target  app_speed_pid.o
    0x00003a60   0x00003a60   0x0000000c   Code   RO          363    .text.get_task_status  mid_timer.o
    0x00003a6c   0x00003a6c   0x0000000c   Code   RO          251    .text.get_temp_encoder  hw_encoder.o
    0x00003a78   0x00003a78   0x0000008c   Code   RO          213    .text.key_scan      hw_key.o
    0x00003b04   0x00003b04   0x000001d0   Code   RO          158    .text.lcd_init      hw_lcd.o
    0x00003cd4   0x00003cd4   0x00000154   Code   RO            4    .text.main          empty.o
    0x00003e28   0x00003e28   0x0000008c   Code   RO          527    .text.motor_distance_control  app_distance_pid.o
    0x00003eb4   0x00003eb4   0x0000007c   Code   RO          509    .text.motor_speed_control  app_speed_pid.o
    0x00003f30   0x00003f30   0x00000100   Code   RO          387    .text.pid_calc      mid_pid.o
    0x00004030   0x00004030   0x00000016   Code   RO          385    .text.pid_change_zero  mid_pid.o
    0x00004046   0x00004046   0x0000003a   Code   RO          383    .text.pid_init      mid_pid.o
    0x00004080   0x00004080   0x00000024   Code   RO          226    .text.restrict_pwm_max_value  hw_motor.o
    0x000040a4   0x000040a4   0x00000018   Code   RO          230    .text.set_bi        hw_motor.o
    0x000040bc   0x000040bc   0x000001cc   Code   RO          529    .text.set_distance_pid_parameter  app_distance_pid.o
    0x00004288   0x00004288   0x0000001c   Code   RO          228    .text.set_fi        hw_motor.o
    0x000042a4   0x000042a4   0x00000030   Code   RO          224    .text.set_motor     hw_motor.o
    0x000042d4   0x000042d4   0x00000010   Code   RO          485    .text.set_motor_status_flag  app_sys_mode.o
    0x000042e4   0x000042e4   0x000001ec   Code   RO          511    .text.set_speed_pid_parameter  app_speed_pid.o
    0x000044d0   0x000044d0   0x00000034   Code   RO          503    .text.speed_pid_init  app_speed_pid.o
    0x00004504   0x00004504   0x0000002c   Code   RO          138    .text.spi_write_bus  hw_lcd.o
    0x00004530   0x00004530   0x0000000c   Code   RO          232    .text.stop_motor    hw_motor.o
    0x0000453c   0x0000453c   0x00000010   Code   RO          473    .text.sys_event_init  app_sys_mode.o
    0x0000454c   0x0000454c   0x00000016   Code   RO          365    .text.timer_init    mid_timer.o
    0x00004562   0x00004562   0x00000002   PAD
    0x00004564   0x00004564   0x000000e0   Code   RO          447    .text.ui_distance_curve  app_ui.o
    0x00004644   0x00004644   0x00000158   Code   RO          435    .text.ui_distance_page  app_ui.o
    0x0000479c   0x0000479c   0x00000268   Code   RO          437    .text.ui_distance_page_value_set  app_ui.o
    0x00004a04   0x00004a04   0x00000100   Code   RO          419    .text.ui_home_page  app_ui.o
    0x00004b04   0x00004b04   0x000000a4   Code   RO          425    .text.ui_home_page_select  app_ui.o
    0x00004ba8   0x00004ba8   0x00000130   Code   RO          433    .text.ui_parameter_select_box_bold  app_ui.o
    0x00004cd8   0x00004cd8   0x0000003c   Code   RO          439    .text.ui_select_page_show  app_ui.o
    0x00004d14   0x00004d14   0x000000c0   Code   RO          445    .text.ui_speed_curve  app_ui.o
    0x00004dd4   0x00004dd4   0x000000a4   Code   RO            2    .text.ui_speed_or_distance_page_value_set_quick  empty.o
    0x00004e78   0x00004e78   0x0000015c   Code   RO          427    .text.ui_speed_page  app_ui.o
    0x00004fd4   0x00004fd4   0x000001fc   Code   RO          431    .text.ui_speed_page_select_box  app_ui.o
    0x000051d0   0x000051d0   0x00000268   Code   RO          429    .text.ui_speed_page_value_set  app_ui.o
    0x00005438   0x00005438   0x000000bc   Code   RO          325    .text.user_button_init  mid_button.o
    0x000054f4   0x000054f4   0x00000028   Code   RO          794    i.__0sprintf        mc_p.l(printfa.o)
    0x0000551c   0x0000551c   0x0000002e   Code   RO          906    i.__ARM_clz         mf_p.l(depilogue.o)
    0x0000554a   0x0000554a   0x00000006   PAD
    0x00005550   0x00005550   0x0000000e   Code   RO          922    i.__scatterload_copy  mc_p.l(handlers.o)
    0x0000555e   0x0000555e   0x00000002   PAD
    0x00005560   0x00005560   0x00000002   Code   RO          923    i.__scatterload_null  mc_p.l(handlers.o)
    0x00005562   0x00005562   0x00000006   PAD
    0x00005568   0x00005568   0x0000000e   Code   RO          924    i.__scatterload_zeroinit  mc_p.l(handlers.o)
    0x00005576   0x00005576   0x00000002   PAD
    0x00005578   0x00005578   0x0000000c   Code   RO          896    i.__set_errno       mc_p.l(errno.o)
    0x00005584   0x00005584   0x00000174   Code   RO          799    i._fp_digits        mc_p.l(printfa.o)
    0x000056f8   0x000056f8   0x000006ec   Code   RO          800    i._printf_core      mc_p.l(printfa.o)
    0x00005de4   0x00005de4   0x00000020   Code   RO          801    i._printf_post_padding  mc_p.l(printfa.o)
    0x00005e04   0x00005e04   0x0000002c   Code   RO          802    i._printf_pre_padding  mc_p.l(printfa.o)
    0x00005e30   0x00005e30   0x0000000a   Code   RO          804    i._sputc            mc_p.l(printfa.o)
    0x00005e3a   0x00005e3a   0x00000002   PAD
    0x00005e3c   0x00005e3c   0x00000048   Code   RO          775    i.sqrt              m_ps.l(sqrt.o)
    0x00005e84   0x00005e84   0x00000474   Data   RO          198    .rodata.ascii_1206  hw_lcd.o
    0x000062f8   0x000062f8   0x000005f0   Data   RO          199    .rodata.ascii_1608  hw_lcd.o
    0x000068e8   0x000068e8   0x000011d0   Data   RO          200    .rodata.ascii_2412  hw_lcd.o
    0x00007ab8   0x00007ab8   0x000017c0   Data   RO          201    .rodata.ascii_3216  hw_lcd.o
    0x00009278   0x00009278   0x00000003   Data   RO          123    .rodata.gPWM_MOTORClockConfig  ti_msp_dl_config.o
    0x0000927b   0x0000927b   0x00000001   PAD
    0x0000927c   0x0000927c   0x00000008   Data   RO          124    .rodata.gPWM_MOTORConfig  ti_msp_dl_config.o
    0x00009284   0x00009284   0x00000002   Data   RO          129    .rodata.gSPI_LCD_clockConfig  ti_msp_dl_config.o
    0x00009286   0x00009286   0x0000000a   Data   RO          130    .rodata.gSPI_LCD_config  ti_msp_dl_config.o
    0x00009290   0x00009290   0x00000028   Data   RO          122    .rodata.gSYSPLLConfig  ti_msp_dl_config.o
    0x000092b8   0x000092b8   0x00000003   Data   RO          125    .rodata.gTIMER_TICKClockConfig  ti_msp_dl_config.o
    0x000092bb   0x000092bb   0x00000001   PAD
    0x000092bc   0x000092bc   0x00000014   Data   RO          126    .rodata.gTIMER_TICKTimerConfig  ti_msp_dl_config.o
    0x000092d0   0x000092d0   0x00000002   Data   RO          127    .rodata.gUART_DEBUGClockConfig  ti_msp_dl_config.o
    0x000092d2   0x000092d2   0x0000000a   Data   RO          128    .rodata.gUART_DEBUGConfig  ti_msp_dl_config.o
    0x000092dc   0x000092dc   0x00000049   Data   RO          449    .rodata.str1.1      app_ui.o
    0x00009325   0x00009325   0x00000082   Data   RO          202    .rodata.tfont12     hw_lcd.o
    0x000093a7   0x000093a7   0x00000176   Data   RO          203    .rodata.tfont16     hw_lcd.o
    0x0000951d   0x0000951d   0x000000de   Data   RO          204    .rodata.tfont24     hw_lcd.o
    0x000095fb   0x000095fb   0x00000082   Data   RO          205    .rodata.tfont32     hw_lcd.o
    0x0000967d   0x0000967d   0x00000003   PAD
    0x00009680   0x00009680   0x00000020   Data   RO          921    Region$$Table       anon$$obj.o


    Execution Region RW_IRAM2 (Exec base: 0x20200000, Load base: 0x000096a0, Size: 0x00000748, Max: 0x00008000, ABSOLUTE)

    Exec Addr    Load Addr    Size         Type   Attr      Idx    E Section Name        Object

    0x20200000   0x000096a0   0x00000004   Data   RW          897    .data               mc_p.l(errno.o)
    0x20200004   0x000096a4   0x00000001   Data   RW          463    .data.draw_distance_curve.firstPoint  app_ui.o
    0x20200005   0x000096a5   0x00000001   Data   RW          460    .data.draw_speed_curve.firstPoint  app_ui.o
    0x20200006   0x000096a6   0x00000002   Data   RW          348    .data.key_rst_data  mid_button.o
    0x20200008   0x000096a8   0x00000002   Data   RW          349    .data.keydata       mid_button.o
    0x2020000a   0x000096aa   0x00000001   Data   RW          375    .data.tack_enable_flag  mid_timer.o
    0x2020000b   0x000096ab   0x00000005   PAD
    0x20200010        -       0x00000004   Zero   RW          346    .bss.btn_head       mid_button.o
    0x20200014        -       0x00000001   Zero   RW          347    .bss.button_cnt     mid_button.o
    0x20200015   0x000096ab   0x00000001   PAD
    0x20200016        -       0x00000002   Zero   RW          350    .bss.cont           mid_button.o
    0x20200018        -       0x00000084   Zero   RW          317    .bss.debug_uart     mid_debug_uart.o
    0x2020009c        -       0x00000030   Zero   RW          531    .bss.distance_pid   app_distance_pid.o
    0x202000cc        -       0x00000002   Zero   RW          464    .bss.draw_distance_curve.lastX  app_ui.o
    0x202000ce        -       0x00000002   Zero   RW          465    .bss.draw_distance_curve.lastY  app_ui.o
    0x202000d0        -       0x00000002   Zero   RW          461    .bss.draw_speed_curve.lastX  app_ui.o
    0x202000d2        -       0x00000002   Zero   RW          462    .bss.draw_speed_curve.lastY  app_ui.o
    0x202000d4        -       0x000000a0   Zero   RW          119    .bss.gPWM_MOTORBackup  ti_msp_dl_config.o
    0x20200174        -       0x00000028   Zero   RW          121    .bss.gSPI_LCDBackup  ti_msp_dl_config.o
    0x2020019c        -       0x000000bc   Zero   RW          120    .bss.gTIMER_TICKBackup  ti_msp_dl_config.o
    0x20200258        -       0x00000010   Zero   RW          263    .bss.motor_encoder  hw_encoder.o
    0x20200268        -       0x00000030   Zero   RW          513    .bss.speed_pid      app_speed_pid.o
    0x20200298        -       0x00000010   Zero   RW          495    .bss.system_status  app_sys_mode.o
    0x202002a8        -       0x00000002   Zero   RW          351    .bss.trg            mid_button.o
    0x202002aa   0x000096ab   0x00000002   PAD
    0x202002ac        -       0x00000004   Zero   RW          457    .bss.ui_distance_page_value_set.last_d  app_ui.o
    0x202002b0        -       0x00000004   Zero   RW          458    .bss.ui_distance_page_value_set.last_distance  app_ui.o
    0x202002b4        -       0x00000004   Zero   RW          456    .bss.ui_distance_page_value_set.last_i  app_ui.o
    0x202002b8        -       0x00000004   Zero   RW          455    .bss.ui_distance_page_value_set.last_p  app_ui.o
    0x202002bc        -       0x00000004   Zero   RW          459    .bss.ui_distance_page_value_set.last_target  app_ui.o
    0x202002c0        -       0x00000004   Zero   RW          452    .bss.ui_speed_page_value_set.last_d  app_ui.o
    0x202002c4        -       0x00000004   Zero   RW          451    .bss.ui_speed_page_value_set.last_i  app_ui.o
    0x202002c8        -       0x00000004   Zero   RW          450    .bss.ui_speed_page_value_set.last_p  app_ui.o
    0x202002cc        -       0x00000004   Zero   RW          453    .bss.ui_speed_page_value_set.last_speed  app_ui.o
    0x202002d0        -       0x00000004   Zero   RW          454    .bss.ui_speed_page_value_set.last_target  app_ui.o
    0x202002d4        -       0x00000070   Zero   RW          345    .bss.user_button    mid_button.o
    0x20200344   0x000096ab   0x00000004   PAD
    0x20200348        -       0x00000400   Zero   RW           13    STACK               startup_mspm0g350x_uvision.o



  Load Region LR_BCR (Base: 0x41c00000, Size: 0x00000000, Max: 0x00000100, ABSOLUTE)

    Execution Region BCR_CONFIG (Exec base: 0x41c00000, Load base: 0x41c00000, Size: 0x00000000, Max: 0x000000ff, ABSOLUTE)

    **** No section assigned to this execution region ****



  Load Region LR_BSL (Base: 0x41c00100, Size: 0x00000000, Max: 0x00000100, ABSOLUTE)

    Execution Region BSL_CONFIG (Exec base: 0x41c00100, Load base: 0x41c00100, Size: 0x00000000, Max: 0x00000080, ABSOLUTE)

    **** No section assigned to this execution region ****


==============================================================================

Image component sizes


      Code (inc. data)   RO Data    RW Data    ZI Data      Debug   Object Name

       664         68          0          0         48       1972   app_distance_pid.o
       916          8          0          0          0       2965   app_key_task.o
       684         76          0          0         48       1922   app_speed_pid.o
       418         32          0          0         16       2833   app_sys_mode.o
      4758        244         73          2         48      11185   app_ui.o
       504          4          0          0          0       1798   empty.o
       388         24          0          0         16       6204   hw_encoder.o
       162          4          0          0          0       3651   hw_key.o
      4518         56      14156          0          0      15957   hw_lcd.o
       148         12          0          0          0       3845   hw_motor.o
      1680        100          0          4        121       4436   mid_button.o
       232         16          0          0        132       6350   mid_debug_uart.o
       336          0          0          0          0       1833   mid_pid.o
       220         24          0          1          0       6011   mid_timer.o
        20          4        192          0       1024        644   startup_mspm0g350x_uvision.o
      2056        188         98          0        388      31269   ti_msp_dl_config.o

    ----------------------------------------------------------------------
     17728        860      14556          8       1852     102875   Object Totals
         0          0         32          0          0          0   (incl. Generated)
        24          0          5          1         11          0   (incl. Padding)

    ----------------------------------------------------------------------

      Code (inc. data)   RO Data    RW Data    ZI Data      Debug   Library Member Name

        10          0          0          0          0        790   dl_common.o
        86          8          0          0          0      13505   dl_spi.o
       312         24          0          0          0      12865   dl_sysctl_mspm0g1x0x_g3x0x.o
       596        188          0          0          0      41545   dl_timer.o
        90          8          0          0          0      14150   dl_uart.o
        72          6          0          0          0         76   sqrt.o
         0          0          0          0          0          0   entry.o
         0          0          0          0          0          0   entry10a.o
         0          0          0          0          0          0   entry11a.o
         8          4          0          0          0          0   entry2.o
         4          0          0          0          0          0   entry5.o
         0          0          0          0          0          0   entry7b.o
         0          0          0          0          0          0   entry8b.o
         8          4          0          0          0          0   entry9a.o
        12          6          0          4          0         60   errno.o
        30          0          0          0          0          0   handlers.o
        48         10          0          0          0         68   init.o
         0          0          0          0          0          0   iusefp.o
        32          0          0          0          0         68   llshl.o
        38          0          0          0          0         68   llsshr.o
        34          0          0          0          0         68   llushr.o
        36          0          0          0          0        100   memseta.o
      2270         94          0          0          0        472   printfa.o
        14          0          0          0          0         60   strlen.o
        62          0          0          0          0         72   uidiv_div0.o
        96          0          0          0          0         84   uldiv.o
        40          2          0          0          0         68   cdrcmple.o
        56          0          0          0          0         68   d2f.o
       356          4          0          0          0        140   dadd.o
       240          6          0          0          0         84   ddiv.o
       236          0          0          0          0        216   depilogue.o
        72         10          0          0          0         72   dfixi.o
        60         10          0          0          0         68   dfixui.o
        64         10          0          0          0         68   dfixul.o
        40          6          0          0          0         68   dflti.o
        28          4          0          0          0         68   dfltui.o
       208          6          0          0          0         88   dmul.o
       162          0          0          0          0         80   dsqrt.o
        40          0          0          0          0         60   f2d.o
       178          0          0          0          0        108   fadd.o
        28          0          0          0          0         60   fcmpeq.o
        28          0          0          0          0         60   fcmpge.o
        28          0          0          0          0         60   fcmpgt.o
        28          0          0          0          0         60   fcmple.o
       124          0          0          0          0         72   fdiv.o
       130          0          0          0          0        144   fepilogue.o
        50          0          0          0          0         60   ffixi.o
        22          0          0          0          0         68   fflti.o
        44          0          0          0          0         72   ffltl.o
       122          0          0          0          0         72   fmul.o

    ----------------------------------------------------------------------
      6276        414          0          4          0      86035   Library Totals
        34          4          0          0          0          0   (incl. Padding)

    ----------------------------------------------------------------------

      Code (inc. data)   RO Data    RW Data    ZI Data      Debug   Library Name

      1094        228          0          0          0      82855   driverlib.a
        72          6          0          0          0         76   m_ps.l
      2692        118          0          4          0       1120   mc_p.l
      2384         58          0          0          0       1984   mf_p.l

    ----------------------------------------------------------------------
      6276        414          0          4          0      86035   Library Totals

    ----------------------------------------------------------------------

==============================================================================


      Code (inc. data)   RO Data    RW Data    ZI Data      Debug   

     24004       1274      14556         12       1852     187002   Grand Totals
     24004       1274      14556         12       1852     187002   ELF Image Totals
     24004       1274      14556         12          0          0   ROM Totals

==============================================================================

    Total RO  Size (Code + RO Data)                38560 (  37.66kB)
    Total RW  Size (RW Data + ZI Data)              1864 (   1.82kB)
    Total ROM Size (Code + RO Data + RW Data)      38572 (  37.67kB)

==============================================================================

